{
  "_format": "hh-sol-artifact-1",
  "contractName": "ThreatStats",
  "sourceName": "contracts/ThreatStats.sol",
  "abi": [
    {
      "anonymous": false,
      "inputs": [
        {
          "indexed": false,
          "internalType": "uint256",
          "name": "total",
          "type": "uint256"
        },
        {
          "indexed": false,
          "internalType": "string",
          "name": "topIp",
          "type": "string"
        }
      ],
      "name": "GlobalStatsUpdated",
      "type": "event"
    },
    {
      "inputs": [
        {
          "internalType": "uint8",
          "name": "",
          "type": "uint8"
        }
      ],
      "name": "attackTypeCounts",
      "outputs": [
        {
          "internalType": "uint256",
          "name": "",
          "type": "uint256"
        }
      ],
      "stateMutability": "view",
      "type": "function"
    },
    {
      "inputs": [
        {
          "internalType": "uint8",
          "name": "attackType",
          "type": "uint8"
        }
      ],
      "name": "getAttackTypeCount",
      "outputs": [
        {
          "internalType": "uint256",
          "name": "count",
          "type": "uint256"
        }
      ],
      "stateMutability": "view",
      "type": "function"
    },
    {
      "inputs": [],
      "name": "getDashboardStats",
      "outputs": [
        {
          "internalType": "uint256",
          "name": "total",
          "type": "uint256"
        },
        {
          "internalType": "string",
          "name": "mostDangerousIp",
          "type": "string"
        },
        {
          "internalType": "uint256",
          "name": "maxScore",
          "type": "uint256"
        },
        {
          "internalType": "uint256[]",
          "name": "typeDistribution",
          "type": "uint256[]"
        }
      ],
      "stateMutability": "view",
      "type": "function"
    },
    {
      "inputs": [],
      "name": "resetStats",
      "outputs": [],
      "stateMutability": "nonpayable",
      "type": "function"
    },
    {
      "inputs": [],
      "name": "topThreatIp",
      "outputs": [
        {
          "internalType": "string",
          "name": "",
          "type": "string"
        }
      ],
      "stateMutability": "view",
      "type": "function"
    },
    {
      "inputs": [],
      "name": "topThreatScore",
      "outputs": [
        {
          "internalType": "uint256",
          "name": "",
          "type": "uint256"
        }
      ],
      "stateMutability": "view",
      "type": "function"
    },
    {
      "inputs": [],
      "name": "totalThreatsDetected",
      "outputs": [
        {
          "internalType": "uint256",
          "name": "",
          "type": "uint256"
        }
      ],
      "stateMutability": "view",
      "type": "function"
    },
    {
      "inputs": [
        {
          "internalType": "uint8",
          "name": "attackType",
          "type": "uint8"
        },
        {
          "internalType": "string",
          "name": "ip",
          "type": "string"
        },
        {
          "internalType": "uint256",
          "name": "newScore",
          "type": "uint256"
        }
      ],
      "name": "updateStats",
      "outputs": [],
      "stateMutability": "nonpayable",
      "type": "function"
    }
  ],
  "bytecode": "0x6080806040523461001657610791908161001c8239f35b600080fdfe60806040818152600491600436101561001757600080fd5b600090813560e01c9081632c64b846146105c2575080634ee8054a146101bf57806351aed79d146105a35780636d1fccbc146102c9578063724ec8a2146101ef578063772c329e146101bf5780637ee79a30146101865763a2f6805c1461007d57600080fd5b3461018357806003193601126101835781519060e0820182811067ffffffffffffffff82111761016f578352600691600681526020918282019460c0368737815b60ff811686811015610109578084528386528284205490855111156100f657600582901b611fe016850186015260010160ff166100be565b634e487b7160e01b845260328952602484fd5b505090859391600192806001549560035461013a61012561062d565b8651998a526080858b015260808a01906106ff565b94880152868403606088015251928381520195925b82811061015c5785870386f35b835187529581019592810192840161014f565b634e487b7160e01b82526041600452602482fd5b80fd5b5090346101bb57816003193601126101bb576101b7906101a461062d565b90519182916020835260208301906106ff565b0390f35b5080fd5b5090346101bb5760203660031901126101bb578060209260ff6101e06105de565b16815280845220549051908152f35b5090346101bb57816003193601126101bb57600182600155826003556102166002546105f3565b80610254575b5082815b610228578380f35b60ff811690600682101561024f578260ff9181938752866020528686812055011690610220565b508380f35b601f811160011461026b5750826002555b8361021c565b8390601f600080516020610765833981519152910160051c8101837f405787fa12a823e0f2b7631cc41b3ba8828b3321ca811111fa75cd3aa3bb5acf5b8281106102bc575050508160025555610265565b93845586938591016102a8565b50346101835760609160606003193601126101bb576102e66105de565b926024916024359467ffffffffffffffff9081871161059f573660238801121561059f57866004013591821161059f57366024838901011161059f5760ff6044359116865260209486865283872061033e815461073f565b905560019761034d895461073f565b8955600354831161046c575b50505050845492815193845281818501528495600254610378816105f3565b8094870152818116908160001461042457506001146103bc575b857f84da1891eada6b49ca2be47f584d4c372a11d0b0d3e52405fdcdef8885ee26c386890387a180f35b9550600285526000805160206107658339815191529585965b83881061041157505050509281016060019250807f84da1891eada6b49ca2be47f584d4c372a11d0b0d3e52405fdcdef8885ee26c38580610392565b80548689018601529682019681016103d5565b9150507f84da1891eada6b49ca2be47f584d4c372a11d0b0d3e52405fdcdef8885ee26c3959650849350606092915060ff191682840152151560051b82010193928580610392565b839260035561047c6002546105f3565b601f8111610540575b508791601f84116001146104c7575087926104b9575b5050600019600383901b1c191690861b176002555b85808080610359565b60249250010135878061049b565b91899450601f19841660028a52600080516020610765833981519152938a905b8a838310610524575050508411610507575b505050811b016002556104b0565b0160240135600019600384901b60f8161c191690558780806104f9565b84860182013587558d98909601959384019391909101906104e7565b9091925060028852600080516020610765833981519152601f850160051c810191888610610595575b8594939291601f8c920160051c01915b828110610587575050610485565b8a81558695508b9101610579565b9091508190610569565b8580fd5b5090346101bb57816003193601126101bb576020906003549051908152f35b9050346101bb57816003193601126101bb576020906001548152f35b6004359060ff821682036105ee57565b600080fd5b90600182811c92168015610623575b602083101461060d57565b634e487b7160e01b600052602260045260246000fd5b91607f1691610602565b60405190600060025461063f816105f3565b808552906020906001908181169081156106df5750600114610699575b505050829003601f01601f1916820167ffffffffffffffff81118382101761068357604052565b634e487b7160e01b600052604160045260246000fd5b600260009081529293506000805160206107658339815191525b8484106106cc575050506020915083010138808061065c565b80548785018401529282019281016106b3565b925050506020925060ff191682850152151560051b83010138808061065c565b919082519283825260005b84811061072b575050826000602080949584010152601f8019910116010190565b60208183018101518483018201520161070a565b600019811461074e5760010190565b634e487b7160e01b600052601160045260246000fdfe405787fa12a823e0f2b7631cc41b3ba8828b3321ca811111fa75cd3aa3bb5acea164736f6c6343000818000a",
  "linkReferences": {},
  "deployedLinkReferences": {}
}