{
  "_format": "hh-sol-artifact-1",
  "contractName": "OraSRSGovernance",
  "sourceName": "contracts/OraSRSGovernance.sol",
  "abi": [
    {
      "inputs": [
        {
          "internalType": "address",
          "name": "_timelock",
          "type": "address"
        },
        {
          "internalType": "address",
          "name": "_threatIntelligenceCoordination",
          "type": "address"
        }
      ],
      "stateMutability": "nonpayable",
      "type": "constructor"
    },
    {
      "inputs": [
        {
          "internalType": "address",
          "name": "owner",
          "type": "address"
        }
      ],
      "name": "OwnableInvalidOwner",
      "type": "error"
    },
    {
      "inputs": [
        {
          "internalType": "address",
          "name": "account",
          "type": "address"
        }
      ],
      "name": "OwnableUnauthorizedAccount",
      "type": "error"
    },
    {
      "inputs": [],
      "name": "ReentrancyGuardReentrantCall",
      "type": "error"
    },
    {
      "anonymous": false,
      "inputs": [
        {
          "indexed": false,
          "internalType": "string",
          "name": "contractName",
          "type": "string"
        },
        {
          "indexed": false,
          "internalType": "address",
          "name": "oldAddress",
          "type": "address"
        },
        {
          "indexed": false,
          "internalType": "address",
          "name": "newAddress",
          "type": "address"
        }
      ],
      "name": "GovernanceAddressUpdated",
      "type": "event"
    },
    {
      "anonymous": false,
      "inputs": [
        {
          "indexed": false,
          "internalType": "string",
          "name": "parameter",
          "type": "string"
        },
        {
          "indexed": false,
          "internalType": "uint256",
          "name": "value",
          "type": "uint256"
        }
      ],
      "name": "GovernanceParameterUpdated",
      "type": "event"
    },
    {
      "anonymous": false,
      "inputs": [
        {
          "indexed": true,
          "internalType": "address",
          "name": "previousOwner",
          "type": "address"
        },
        {
          "indexed": true,
          "internalType": "address",
          "name": "newOwner",
          "type": "address"
        }
      ],
      "name": "OwnershipTransferred",
      "type": "event"
    },
    {
      "anonymous": false,
      "inputs": [
        {
          "indexed": true,
          "internalType": "uint256",
          "name": "id",
          "type": "uint256"
        },
        {
          "indexed": true,
          "internalType": "address",
          "name": "proposer",
          "type": "address"
        },
        {
          "indexed": false,
          "internalType": "string",
          "name": "description",
          "type": "string"
        },
        {
          "indexed": true,
          "internalType": "enum OraSRSGovernance.ProposalType",
          "name": "proposalType",
          "type": "uint8"
        }
      ],
      "name": "ProposalCreated",
      "type": "event"
    },
    {
      "anonymous": false,
      "inputs": [
        {
          "indexed": true,
          "internalType": "uint256",
          "name": "id",
          "type": "uint256"
        }
      ],
      "name": "ProposalExecuted",
      "type": "event"
    },
    {
      "anonymous": false,
      "inputs": [
        {
          "indexed": true,
          "internalType": "uint256",
          "name": "proposalId",
          "type": "uint256"
        },
        {
          "indexed": true,
          "internalType": "address",
          "name": "voter",
          "type": "address"
        },
        {
          "indexed": false,
          "internalType": "uint8",
          "name": "support",
          "type": "uint8"
        },
        {
          "indexed": false,
          "internalType": "uint256",
          "name": "votes",
          "type": "uint256"
        }
      ],
      "name": "VoteCast",
      "type": "event"
    },
    {
      "inputs": [
        {
          "internalType": "uint256",
          "name": "proposalId",
          "type": "uint256"
        },
        {
          "internalType": "uint8",
          "name": "support",
          "type": "uint8"
        }
      ],
      "name": "castVote",
      "outputs": [],
      "stateMutability": "nonpayable",
      "type": "function"
    },
    {
      "inputs": [
        {
          "internalType": "string",
          "name": "description",
          "type": "string"
        },
        {
          "internalType": "enum OraSRSGovernance.ProposalType",
          "name": "proposalType",
          "type": "uint8"
        },
        {
          "internalType": "address[]",
          "name": "targets",
          "type": "address[]"
        },
        {
          "internalType": "uint256[]",
          "name": "values",
          "type": "uint256[]"
        },
        {
          "internalType": "bytes[]",
          "name": "calldatas",
          "type": "bytes[]"
        }
      ],
      "name": "createProposal",
      "outputs": [
        {
          "internalType": "uint256",
          "name": "",
          "type": "uint256"
        }
      ],
      "stateMutability": "nonpayable",
      "type": "function"
    },
    {
      "inputs": [],
      "name": "destroy",
      "outputs": [],
      "stateMutability": "nonpayable",
      "type": "function"
    },
    {
      "inputs": [
        {
          "internalType": "address payable",
          "name": "_recipient",
          "type": "address"
        }
      ],
      "name": "destroyAndSendTo",
      "outputs": [],
      "stateMutability": "nonpayable",
      "type": "function"
    },
    {
      "inputs": [
        {
          "internalType": "uint256",
          "name": "proposalId",
          "type": "uint256"
        }
      ],
      "name": "getProposalDetails",
      "outputs": [
        {
          "internalType": "address",
          "name": "",
          "type": "address"
        },
        {
          "internalType": "uint256",
          "name": "",
          "type": "uint256"
        },
        {
          "internalType": "uint256",
          "name": "",
          "type": "uint256"
        },
        {
          "internalType": "uint256",
          "name": "",
          "type": "uint256"
        },
        {
          "internalType": "uint256",
          "name": "",
          "type": "uint256"
        },
        {
          "internalType": "uint256",
          "name": "",
          "type": "uint256"
        },
        {
          "internalType": "uint256",
          "name": "",
          "type": "uint256"
        },
        {
          "internalType": "string",
          "name": "",
          "type": "string"
        },
        {
          "internalType": "enum OraSRSGovernance.ProposalType",
          "name": "",
          "type": "uint8"
        },
        {
          "internalType": "enum OraSRSGovernance.ProposalState",
          "name": "",
          "type": "uint8"
        }
      ],
      "stateMutability": "view",
      "type": "function"
    },
    {
      "inputs": [],
      "name": "owner",
      "outputs": [
        {
          "internalType": "address",
          "name": "",
          "type": "address"
        }
      ],
      "stateMutability": "view",
      "type": "function"
    },
    {
      "inputs": [],
      "name": "proposalCount",
      "outputs": [
        {
          "internalType": "uint256",
          "name": "",
          "type": "uint256"
        }
      ],
      "stateMutability": "view",
      "type": "function"
    },
    {
      "inputs": [],
      "name": "proposalThreshold",
      "outputs": [
        {
          "internalType": "uint256",
          "name": "",
          "type": "uint256"
        }
      ],
      "stateMutability": "view",
      "type": "function"
    },
    {
      "inputs": [
        {
          "internalType": "uint256",
          "name": "",
          "type": "uint256"
        }
      ],
      "name": "proposals",
      "outputs": [
        {
          "internalType": "uint256",
          "name": "id",
          "type": "uint256"
        },
        {
          "internalType": "address",
          "name": "proposer",
          "type": "address"
        },
        {
          "internalType": "uint256",
          "name": "startTime",
          "type": "uint256"
        },
        {
          "internalType": "uint256",
          "name": "endTime",
          "type": "uint256"
        },
        {
          "internalType": "uint256",
          "name": "votesFor",
          "type": "uint256"
        },
        {
          "internalType": "uint256",
          "name": "votesAgainst",
          "type": "uint256"
        },
        {
          "internalType": "uint256",
          "name": "votesAbstain",
          "type": "uint256"
        },
        {
          "internalType": "uint256",
          "name": "requiredQuorum",
          "type": "uint256"
        },
        {
          "internalType": "string",
          "name": "description",
          "type": "string"
        },
        {
          "internalType": "enum OraSRSGovernance.ProposalType",
          "name": "proposalType",
          "type": "uint8"
        },
        {
          "internalType": "enum OraSRSGovernance.ProposalState",
          "name": "state",
          "type": "uint8"
        }
      ],
      "stateMutability": "view",
      "type": "function"
    },
    {
      "inputs": [],
      "name": "quorumPercentage",
      "outputs": [
        {
          "internalType": "uint256",
          "name": "",
          "type": "uint256"
        }
      ],
      "stateMutability": "view",
      "type": "function"
    },
    {
      "inputs": [],
      "name": "renounceOwnership",
      "outputs": [],
      "stateMutability": "nonpayable",
      "type": "function"
    },
    {
      "inputs": [
        {
          "internalType": "uint256",
          "name": "proposalId",
          "type": "uint256"
        }
      ],
      "name": "state",
      "outputs": [
        {
          "internalType": "enum OraSRSGovernance.ProposalState",
          "name": "",
          "type": "uint8"
        }
      ],
      "stateMutability": "view",
      "type": "function"
    },
    {
      "inputs": [],
      "name": "threatIntelligenceCoordination",
      "outputs": [
        {
          "internalType": "address",
          "name": "",
          "type": "address"
        }
      ],
      "stateMutability": "view",
      "type": "function"
    },
    {
      "inputs": [],
      "name": "timelock",
      "outputs": [
        {
          "internalType": "address",
          "name": "",
          "type": "address"
        }
      ],
      "stateMutability": "view",
      "type": "function"
    },
    {
      "inputs": [
        {
          "internalType": "address",
          "name": "newOwner",
          "type": "address"
        }
      ],
      "name": "transferOwnership",
      "outputs": [],
      "stateMutability": "nonpayable",
      "type": "function"
    },
    {
      "inputs": [
        {
          "internalType": "uint256",
          "name": "_newThreshold",
          "type": "uint256"
        }
      ],
      "name": "updateProposalThreshold",
      "outputs": [],
      "stateMutability": "nonpayable",
      "type": "function"
    },
    {
      "inputs": [
        {
          "internalType": "uint256",
          "name": "_newQuorumPercentage",
          "type": "uint256"
        }
      ],
      "name": "updateQuorumPercentage",
      "outputs": [],
      "stateMutability": "nonpayable",
      "type": "function"
    },
    {
      "inputs": [
        {
          "internalType": "address",
          "name": "_newContract",
          "type": "address"
        }
      ],
      "name": "updateThreatIntelligenceCoordination",
      "outputs": [],
      "stateMutability": "nonpayable",
      "type": "function"
    },
    {
      "inputs": [
        {
          "internalType": "address",
          "name": "_newTimelock",
          "type": "address"
        }
      ],
      "name": "updateTimelock",
      "outputs": [],
      "stateMutability": "nonpayable",
      "type": "function"
    },
    {
      "inputs": [
        {
          "internalType": "uint256",
          "name": "_newVotingPeriod",
          "type": "uint256"
        }
      ],
      "name": "updateVotingPeriod",
      "outputs": [],
      "stateMutability": "nonpayable",
      "type": "function"
    },
    {
      "inputs": [
        {
          "internalType": "uint256",
          "name": "",
          "type": "uint256"
        },
        {
          "internalType": "address",
          "name": "",
          "type": "address"
        }
      ],
      "name": "votes",
      "outputs": [
        {
          "internalType": "bool",
          "name": "hasVoted",
          "type": "bool"
        },
        {
          "internalType": "uint8",
          "name": "support",
          "type": "uint8"
        },
        {
          "internalType": "uint256",
          "name": "votes",
          "type": "uint256"
        }
      ],
      "stateMutability": "view",
      "type": "function"
    },
    {
      "inputs": [],
      "name": "votingPeriod",
      "outputs": [
        {
          "internalType": "uint256",
          "name": "",
          "type": "uint256"
        }
      ],
      "stateMutability": "view",
      "type": "function"
    }
  ],
  "bytecode": "0x6080346100fd57601f61185238819003918201601f19168301916001600160401b038311848410176101025780849260409485528339810103126100fd57610052602061004b83610118565b9201610118565b9033156100e4576000549160018060a01b03908160018060a01b031993338587161760005560405195823391167f8be0079c531659141344cd1fd0a4f28419497f9722a3daafe3b4186f6b6457e0600080a360018055168360055416176005551690600654161760065562093a8060075569021e19e0c9bab2400000600855620186a0600955611725908161012d8239f35b604051631e4fbdf760e01b815260006004820152602490fd5b600080fd5b634e487b7160e01b600052604160045260246000fd5b51906001600160a01b03821682036100fd5756fe6080604052600436101561001257600080fd5b60003560e01c8063013cf08b146112e457806302a251a3146112c6578063105603ac14610bae5780631aeec15e14610aba5780633b4d01a7146109f25780633e4f49e6146109c55780634e6162031461099c5780634fa76ec91461097e57806356781388146106b457806357ad627914610640578063715018a6146105e757806383197ef01461059a5780638da5cb5b14610571578063a890c91014610492578063b58131b014610474578063cc7a2b21146103d5578063d23254b41461036d578063d33219b414610344578063da35c66414610326578063ef00ef431461025f578063f0f9e6b71461019c5763f2fde38b1461010e57600080fd5b3461019757602036600319011261019757610127611580565b61012f6116ec565b6001600160a01b0390811690811561017e57600054826001600160601b0360a01b821617600055167f8be0079c531659141344cd1fd0a4f28419497f9722a3daafe3b4186f6b6457e0600080a3005b604051631e4fbdf760e01b815260006004820152602490fd5b600080fd5b34610197576020366003190112610197576004356101b86116ec565b620f4240811161021a576080817f48e381a1babc0380d5de4948672449b79a514434c0e351800509c47a84578f85926009556040519060408252601060408301526f51756f72756d50657263656e7461676560801b60608301526020820152a1005b60405162461bcd60e51b815260206004820152601960248201527f51756f72756d2063616e6e6f74206578636565642031303025000000000000006044820152606490fd5b346101975760203660031901126101975760043561027b6116ec565b80156102d5576080817f48e381a1babc0380d5de4948672449b79a514434c0e351800509c47a84578f85926007556040519060408252600c60408301526b159bdd1a5b99d4195c9a5bd960a21b60608301526020820152a1005b60405162461bcd60e51b8152602060048201526024808201527f566f74696e6720706572696f64206d75737420626520677265617465722074686044820152630616e20360e41b6064820152608490fd5b34610197576000366003190112610197576020600254604051908152f35b34610197576000366003190112610197576005546040516001600160a01b039091168152602090f35b34610197576040366003190112610197576024356001600160a01b03811690819003610197576004356000526004602052604060002090600052602052606060406000206001815491015460ff604051928181161515845260081c1660208301526040820152f35b34610197576020366003190112610197576004356001600160a01b038116808203610197576104026116ec565b1561042f57427f712ae1383f79ac853f8d882153778e0260ef8f03b504e2866e0593e04d2b291f600080a2ff5b60405162461bcd60e51b815260206004820152601960248201527f496e76616c696420726563697069656e742061646472657373000000000000006044820152606490fd5b34610197576000366003190112610197576020600854604051908152f35b34610197576020366003190112610197576104ab611580565b6104b36116ec565b6001600160a01b03908116801561052c577fe397b660eb55877c8394e2dbe3ddad8744697ee44034e424712e373067dfedd49160a09160055491816001600160601b03851b8416176005556040519260608452600860608501526754696d656c6f636b60c01b60808501521660208301526040820152a1005b60405162461bcd60e51b815260206004820152601860248201527f496e76616c69642074696d656c6f636b206164647265737300000000000000006044820152606490fd5b34610197576000366003190112610197576000546040516001600160a01b039091168152602090f35b34610197576000366003190112610197576105b36116ec565b427f712ae1383f79ac853f8d882153778e0260ef8f03b504e2866e0593e04d2b291f600080a26000546001600160a01b0316ff5b34610197576000366003190112610197576106006116ec565b600080546001600160a01b0319811682556001600160a01b03167f8be0079c531659141344cd1fd0a4f28419497f9722a3daafe3b4186f6b6457e08280a3005b34610197576020366003190112610197577f48e381a1babc0380d5de4948672449b79a514434c0e351800509c47a84578f85608060043561067f6116ec565b8060085560405190604082526011604083015270141c9bdc1bdcd85b151a1c995cda1bdb19607a1b60608301526020820152a1005b346101975760403660031901126101975760043560249081359060ff82169182810361019757600193600285541461096c576002855582151580610960575b6106fc90611622565b6002841161091c57826000526020916003835260406000209060ff600983015460081c1660078110156109075787036108ca576003820154421161088657600d82013360005280855260ff6040600020541661085257606491889133600052865260406000208260ff19825416179055866000526004865260406000203360005286528160406000209161ff0083549160081b169061ffff191617178155015585851460001461080457600401805491606483018093116107f05750556064905b6040519384528301527fb83d25c6a5d258561330739951487acb4bd09ba5190b5d32c4f261817d90679260403393a38055005b634e487b7160e01b60009081526011600452fd5b8461082457600501805491606483018093116107f05750556064906107bd565b60028514610837575b50506064906107bd565b600601805491606483018093116107f057505560648561082d565b60405162461bcd60e51b815260048101869052600d818601526c105b1c9958591e481d9bdd1959609a1b6044820152606490fd5b60405162461bcd60e51b8152600481018590526017818501527f566f74696e6720706572696f642068617320656e6465640000000000000000006044820152606490fd5b60405162461bcd60e51b8152600481018590526016818501527550726f706f73616c206973206e6f742061637469766560501b6044820152606490fd5b83634e487b7160e01b60005260216004526000fd5b606490601a6040519162461bcd60e51b8352602060048401528201527f496e76616c696420766f746520737570706f72742076616c75650000000000006044820152fd5b506002548311156106f3565b604051633ee5aeb560e01b8152600490fd5b34610197576000366003190112610197576020600954604051908152f35b34610197576000366003190112610197576006546040516001600160a01b039091168152602090f35b346101975760203660031901126101975760206109e3600435611664565b6109f06040518092611514565bf35b34610197576020366003190112610197576004356000526003602052604060002060018060a01b0360018201541690600281015490610ab6610a9360038301549460048401549060058501546006860154600787015491610a5a600860098a0154990161140c565b946040519a8b9a610140968c5260208c015260408b015260608a0152608089015260a088015260c08701528060e08701528501906114b1565b91610aa5610100850160ff83166114f1565b60ff61012085019160081c16611514565b0390f35b3461019757602036600319011261019757610ad3611580565b610adb6116ec565b6001600160a01b039081168015610b69577fe397b660eb55877c8394e2dbe3ddad8744697ee44034e424712e373067dfedd49160a09160065491816001600160601b03851b8416176006556040519260608452601e60608501527f546872656174496e74656c6c6967656e6365436f6f7264696e6174696f6e000060808501521660208301526040820152a1005b60405162461bcd60e51b815260206004820152601860248201527f496e76616c696420636f6e7472616374206164647265737300000000000000006044820152606490fd5b346101975760a03660031901126101975760043567ffffffffffffffff8111610197573660238201121561019757610bf0903690602481600401359101611521565b60066024351015610197576044359067ffffffffffffffff8211610197573660238301121561019757816004013590610c2882611568565b92610c3660405194856113ea565b82845260208401906024829460051b8201019036821161019757602401915b8183106112a65750505067ffffffffffffffff6064351161019757366023606435011215610197576064356004013592610c8e84611568565b610c9b60405191826113ea565b8481526020810194853660248360051b60643501011161019757602460643501905b60248360051b606435010182106112965750505067ffffffffffffffff6084351161019757366023608435011215610197576084356004013594610d0086611568565b91610d0e60405193846113ea565b8683526020830180973660248260051b60843501011161019757602460843501915b60248260051b60843501018310611249575050508451156112045783518151811490816111f9575b50156111b45760025495600019871461119e576001870160025560018701600052600360205260406000209460018801865560018601336001600160601b0360a01b825416179055426002870155610db260075442611596565b60038701556000600487015560006005870155600060068701556009546007870155865167ffffffffffffffff811161106757610dff81610df660088a01546113b0565b60088a016115ba565b6020601f8211600114611131579080610e2e92600091611126575b508160011b916000199060031b1c19161790565b60088701555b60098601805461ffff191660243560ff16179055519067ffffffffffffffff821161106757600160401b821161106757600a86018054838255610e79918491906115ff565b600a8601600052602060002060005b8381106111095750505050519067ffffffffffffffff821161106757600160401b821161106757600b84018054838255610ec4918491906115ff565b600b8401600052602060002060005b8381106110f557505050505193600160401b851161106757600c82015485600c84015580861061107d575b5093600c82016000526020600020946000905b828210610f7c5760098401805461ff001916610100179055604051602080825290879060243590339060018401907fe0269f7953e70365e80e614e4efe7d4bede59b7f5ad80982ea4064c97ee6f4ef9080610f6e8189018e6114b1565b0390a4600160405191018152f35b805180519067ffffffffffffffff821161106757610fa482610f9e8b546113b0565b8b6115ba565b602090601f8311600114610ff75792610fdd83600195946020948796600092610fec575b50508160011b916000199060031b1c19161790565b8a555b01970191019095610f11565b015190508d80610fc8565b908960005260206000209160005b601f198516811061104f575083602093600196938796938794601f19811610611036575b505050811b018a55610fe0565b015160001960f88460031b161c191690558c8080611029565b91926020600181928685015181550194019201611005565b634e487b7160e01b600052604160045260246000fd5b600c83016000526020600020908682015b818301811061109e575050610efe565b806110ab600192546113b0565b806110b8575b500161108e565b601f811183146110ce5750600081555b896110b1565b6000908282526110ec601f60208420920160051c82018583016115a3565b818355556110c8565b600190602084519401938184015501610ed3565b82516001600160a01b031681830155602090920191600101610e88565b90508901518c610e1a565b906008880160005260206000206000925b8a601f198416851061118757506001935082601f1981161061116e575b5050811b016008870155610e34565b8a015160001960f88460031b161c191690558b8061115f565b810151825560209384019360019092019101611142565b634e487b7160e01b600052601160045260246000fd5b60405162461bcd60e51b815260206004820152601860248201527f4172726179206c656e67746873206d757374206d6174636800000000000000006044820152606490fd5b905083511488610d58565b60405162461bcd60e51b815260206004820152601b60248201527f4465736372697074696f6e2063616e6e6f7420626520656d70747900000000006044820152606490fd5b82359067ffffffffffffffff8211610197573660438360843501011215610197576024916020918291611289903690608435018087013590604401611521565b8152019301929050610d30565b8135815260209182019101610cbd565b82356001600160a01b038116810361019757815260209283019201610c55565b34610197576000366003190112610197576020600754604051908152f35b346101975760203660031901126101975760043560005260036020526040600020805460018060a01b0360018301541690610ab661138d60028501549460038101549360048201546005830154600684015490600785015492600961134b6008880161140c565b960154986040519b8c9b610160978d5260208d015260408c015260608b015260808a015260a089015260c088015260e0870152806101008701528501906114b1565b9161139f610120850160ff83166114f1565b60ff61014085019160081c16611514565b90600182811c921680156113e0575b60208310146113ca57565b634e487b7160e01b600052602260045260246000fd5b91607f16916113bf565b90601f8019910116810190811067ffffffffffffffff82111761106757604052565b9060405191826000825461141f816113b0565b9081845260209460019160018116908160001461148f5750600114611450575b50505061144e925003836113ea565b565b600090815285812095935091905b81831061147757505061144e935082010138808061143f565b8554888401850152948501948794509183019161145e565b9250505061144e94925060ff191682840152151560051b82010138808061143f565b919082519283825260005b8481106114dd575050826000602080949584010152601f8019910116010190565b6020818301810151848301820152016114bc565b9060068210156114fe5752565b634e487b7160e01b600052602160045260246000fd5b9060078210156114fe5752565b92919267ffffffffffffffff8211611067576040519161154b601f8201601f1916602001846113ea565b829481845281830111610197578281602093846000960137010152565b67ffffffffffffffff81116110675760051b60200190565b600435906001600160a01b038216820361019757565b9190820180921161119e57565b8181106115ae575050565b600081556001016115a3565b9190601f81116115c957505050565b61144e926000526020600020906020601f840160051c830193106115f5575b601f0160051c01906115a3565b90915081906115e8565b9181811061160c57505050565b61144e92600052602060002091820191016115a3565b1561162957565b60405162461bcd60e51b8152602060048201526013602482015272125b9d985b1a59081c1c9bdc1bdcd85b081a59606a1b6044820152606490fd5b801515806116e0575b61167690611622565b600052600360205260406000206003810154421161169b576009015460081c60ff1690565b600481015490600581015480831192836116c4575b5050506000146116bf57600490565b600390565b6007929350906116d391611596565b91015411153880806116b0565b5060025481111561166d565b6000546001600160a01b0316330361170057565b60405163118cdaa760e01b8152336004820152602490fdfea164736f6c6343000818000a",
  "linkReferences": {},
  "deployedLinkReferences": {}
}