{
  "_format": "hh-sol-artifact-1",
  "contractName": "OraSRSGovernance",
  "sourceName": "contracts/OraSRSGovernance.sol",
  "abi": [
    {
      "inputs": [],
      "stateMutability": "nonpayable",
      "type": "constructor"
    },
    {
      "anonymous": false,
      "inputs": [
        {
          "indexed": true,
          "internalType": "bytes32",
          "name": "actionHash",
          "type": "bytes32"
        }
      ],
      "name": "ActionCancelled",
      "type": "event"
    },
    {
      "anonymous": false,
      "inputs": [
        {
          "indexed": true,
          "internalType": "bytes32",
          "name": "actionHash",
          "type": "bytes32"
        }
      ],
      "name": "ActionExecuted",
      "type": "event"
    },
    {
      "anonymous": false,
      "inputs": [
        {
          "indexed": true,
          "internalType": "bytes32",
          "name": "actionHash",
          "type": "bytes32"
        },
        {
          "indexed": false,
          "internalType": "uint256",
          "name": "executeTime",
          "type": "uint256"
        },
        {
          "indexed": false,
          "internalType": "string",
          "name": "description",
          "type": "string"
        }
      ],
      "name": "ActionProposed",
      "type": "event"
    },
    {
      "anonymous": false,
      "inputs": [
        {
          "indexed": true,
          "internalType": "uint256",
          "name": "appealID",
          "type": "uint256"
        },
        {
          "indexed": false,
          "internalType": "bool",
          "name": "approved",
          "type": "bool"
        }
      ],
      "name": "AppealResolved",
      "type": "event"
    },
    {
      "anonymous": false,
      "inputs": [
        {
          "indexed": true,
          "internalType": "uint256",
          "name": "appealID",
          "type": "uint256"
        },
        {
          "indexed": true,
          "internalType": "address",
          "name": "appellant",
          "type": "address"
        },
        {
          "indexed": false,
          "internalType": "string",
          "name": "targetIP",
          "type": "string"
        },
        {
          "indexed": false,
          "internalType": "string",
          "name": "evidenceHash",
          "type": "string"
        }
      ],
      "name": "AppealSubmitted",
      "type": "event"
    },
    {
      "anonymous": false,
      "inputs": [
        {
          "indexed": true,
          "internalType": "address",
          "name": "by",
          "type": "address"
        }
      ],
      "name": "EmergencyPause",
      "type": "event"
    },
    {
      "anonymous": false,
      "inputs": [
        {
          "indexed": true,
          "internalType": "address",
          "name": "by",
          "type": "address"
        }
      ],
      "name": "EmergencyUnpause",
      "type": "event"
    },
    {
      "anonymous": false,
      "inputs": [
        {
          "indexed": true,
          "internalType": "address",
          "name": "node",
          "type": "address"
        }
      ],
      "name": "NodeDisqualified",
      "type": "event"
    },
    {
      "anonymous": false,
      "inputs": [
        {
          "indexed": true,
          "internalType": "address",
          "name": "node",
          "type": "address"
        }
      ],
      "name": "NodeQualified",
      "type": "event"
    },
    {
      "anonymous": false,
      "inputs": [
        {
          "indexed": true,
          "internalType": "uint256",
          "name": "appealID",
          "type": "uint256"
        },
        {
          "indexed": true,
          "internalType": "address",
          "name": "voter",
          "type": "address"
        },
        {
          "indexed": false,
          "internalType": "bool",
          "name": "support",
          "type": "bool"
        }
      ],
      "name": "VoteCast",
      "type": "event"
    },
    {
      "inputs": [],
      "name": "EMERGENCY_DELAY",
      "outputs": [
        {
          "internalType": "uint256",
          "name": "",
          "type": "uint256"
        }
      ],
      "stateMutability": "view",
      "type": "function"
    },
    {
      "inputs": [],
      "name": "TIMELOCK_DELAY",
      "outputs": [
        {
          "internalType": "uint256",
          "name": "",
          "type": "uint256"
        }
      ],
      "stateMutability": "view",
      "type": "function"
    },
    {
      "inputs": [],
      "name": "appealCount",
      "outputs": [
        {
          "internalType": "uint256",
          "name": "",
          "type": "uint256"
        }
      ],
      "stateMutability": "view",
      "type": "function"
    },
    {
      "inputs": [
        {
          "internalType": "uint256",
          "name": "",
          "type": "uint256"
        }
      ],
      "name": "appeals",
      "outputs": [
        {
          "internalType": "address",
          "name": "appellant",
          "type": "address"
        },
        {
          "internalType": "string",
          "name": "targetIP",
          "type": "string"
        },
        {
          "internalType": "string",
          "name": "evidenceHash",
          "type": "string"
        },
        {
          "internalType": "uint256",
          "name": "timestamp",
          "type": "uint256"
        },
        {
          "internalType": "uint256",
          "name": "supportVotes",
          "type": "uint256"
        },
        {
          "internalType": "uint256",
          "name": "rejectVotes",
          "type": "uint256"
        },
        {
          "internalType": "bool",
          "name": "resolved",
          "type": "bool"
        },
        {
          "internalType": "bool",
          "name": "approved",
          "type": "bool"
        }
      ],
      "stateMutability": "view",
      "type": "function"
    },
    {
      "inputs": [
        {
          "internalType": "bytes32",
          "name": "actionHash",
          "type": "bytes32"
        }
      ],
      "name": "cancelAction",
      "outputs": [],
      "stateMutability": "nonpayable",
      "type": "function"
    },
    {
      "inputs": [
        {
          "internalType": "uint256",
          "name": "appealID",
          "type": "uint256"
        },
        {
          "internalType": "bool",
          "name": "support",
          "type": "bool"
        }
      ],
      "name": "castVote",
      "outputs": [],
      "stateMutability": "nonpayable",
      "type": "function"
    },
    {
      "inputs": [],
      "name": "developer",
      "outputs": [
        {
          "internalType": "address",
          "name": "",
          "type": "address"
        }
      ],
      "stateMutability": "view",
      "type": "function"
    },
    {
      "inputs": [],
      "name": "emergencyPause",
      "outputs": [],
      "stateMutability": "nonpayable",
      "type": "function"
    },
    {
      "inputs": [],
      "name": "emergencyUnpause",
      "outputs": [],
      "stateMutability": "nonpayable",
      "type": "function"
    },
    {
      "inputs": [
        {
          "internalType": "bytes",
          "name": "action",
          "type": "bytes"
        }
      ],
      "name": "executeAction",
      "outputs": [],
      "stateMutability": "nonpayable",
      "type": "function"
    },
    {
      "inputs": [
        {
          "internalType": "uint256",
          "name": "appealID",
          "type": "uint256"
        }
      ],
      "name": "getAppeal",
      "outputs": [
        {
          "internalType": "address",
          "name": "appellant",
          "type": "address"
        },
        {
          "internalType": "string",
          "name": "targetIP",
          "type": "string"
        },
        {
          "internalType": "string",
          "name": "evidenceHash",
          "type": "string"
        },
        {
          "internalType": "uint256",
          "name": "timestamp",
          "type": "uint256"
        },
        {
          "internalType": "uint256",
          "name": "supportVotes",
          "type": "uint256"
        },
        {
          "internalType": "uint256",
          "name": "rejectVotes",
          "type": "uint256"
        },
        {
          "internalType": "bool",
          "name": "resolved",
          "type": "bool"
        },
        {
          "internalType": "bool",
          "name": "approved",
          "type": "bool"
        }
      ],
      "stateMutability": "view",
      "type": "function"
    },
    {
      "inputs": [
        {
          "internalType": "uint256",
          "name": "appealID",
          "type": "uint256"
        },
        {
          "internalType": "address",
          "name": "voter",
          "type": "address"
        }
      ],
      "name": "hasVoted",
      "outputs": [
        {
          "internalType": "bool",
          "name": "",
          "type": "bool"
        }
      ],
      "stateMutability": "view",
      "type": "function"
    },
    {
      "inputs": [
        {
          "internalType": "address",
          "name": "node",
          "type": "address"
        }
      ],
      "name": "isNodeQualified",
      "outputs": [
        {
          "internalType": "bool",
          "name": "",
          "type": "bool"
        }
      ],
      "stateMutability": "view",
      "type": "function"
    },
    {
      "inputs": [
        {
          "internalType": "address",
          "name": "",
          "type": "address"
        }
      ],
      "name": "nodes",
      "outputs": [
        {
          "internalType": "uint256",
          "name": "riskScore",
          "type": "uint256"
        },
        {
          "internalType": "uint256",
          "name": "uptime",
          "type": "uint256"
        },
        {
          "internalType": "uint256",
          "name": "reputation",
          "type": "uint256"
        },
        {
          "internalType": "bool",
          "name": "qualified",
          "type": "bool"
        }
      ],
      "stateMutability": "view",
      "type": "function"
    },
    {
      "inputs": [],
      "name": "paused",
      "outputs": [
        {
          "internalType": "bool",
          "name": "",
          "type": "bool"
        }
      ],
      "stateMutability": "view",
      "type": "function"
    },
    {
      "inputs": [
        {
          "internalType": "bytes",
          "name": "action",
          "type": "bytes"
        },
        {
          "internalType": "string",
          "name": "description",
          "type": "string"
        }
      ],
      "name": "proposeAction",
      "outputs": [
        {
          "internalType": "bytes32",
          "name": "",
          "type": "bytes32"
        }
      ],
      "stateMutability": "nonpayable",
      "type": "function"
    },
    {
      "inputs": [
        {
          "internalType": "bytes32",
          "name": "",
          "type": "bytes32"
        }
      ],
      "name": "proposedActions",
      "outputs": [
        {
          "internalType": "bytes32",
          "name": "actionHash",
          "type": "bytes32"
        },
        {
          "internalType": "uint256",
          "name": "executeTime",
          "type": "uint256"
        },
        {
          "internalType": "bool",
          "name": "executed",
          "type": "bool"
        },
        {
          "internalType": "bool",
          "name": "cancelled",
          "type": "bool"
        },
        {
          "internalType": "string",
          "name": "description",
          "type": "string"
        }
      ],
      "stateMutability": "view",
      "type": "function"
    },
    {
      "inputs": [
        {
          "internalType": "uint256",
          "name": "appealID",
          "type": "uint256"
        }
      ],
      "name": "resolveAppeal",
      "outputs": [],
      "stateMutability": "nonpayable",
      "type": "function"
    },
    {
      "inputs": [
        {
          "internalType": "string",
          "name": "targetIP",
          "type": "string"
        },
        {
          "internalType": "string",
          "name": "evidenceHash",
          "type": "string"
        }
      ],
      "name": "submitAppeal",
      "outputs": [
        {
          "internalType": "uint256",
          "name": "",
          "type": "uint256"
        }
      ],
      "stateMutability": "nonpayable",
      "type": "function"
    },
    {
      "inputs": [
        {
          "internalType": "address",
          "name": "node",
          "type": "address"
        },
        {
          "internalType": "uint256",
          "name": "riskScore",
          "type": "uint256"
        },
        {
          "internalType": "uint256",
          "name": "uptime",
          "type": "uint256"
        },
        {
          "internalType": "uint256",
          "name": "reputation",
          "type": "uint256"
        }
      ],
      "name": "updateNodeQualification",
      "outputs": [],
      "stateMutability": "nonpayable",
      "type": "function"
    }
  ],
  "bytecode": "0x6080806040523461002f57600080546001600160a81b0319163360ff60a01b191617905561131e90816100358239f35b600080fdfe60406080815260048036101561001457600080fd5b600091823560e01c90816315373e3d14610d6a578163189a5a1714610d0b5781634385963214610cbc5781634a4e3bd514610c6457816351858e2714610c065781635ba1c1a914610be85781635c975abb14610bc35781635fb032471461089657816364dbadca1461085557816369d2529d146107e3578163781cc3d31461075c5781637f52479a1461073d57816382944e2d146107225781638550ea2a146106b2578163a129568d1461057e578163acff868714610505578163ad2f85dc146103ed578163ca4b208b146103c5578163e38b0e5414610134575063fb237d41146100fe57600080fd5b346101305760203660031901126101305761012d9061012760018060a01b0384541633146111d0565b3561129b565b80f35b5080fd5b8391503461013057806003193601126101305767ffffffffffffffff9083358281116103c1576101679036908601610f4e565b926024358381116101305761017f9036908701610f4e565b61019360018060a01b0383541633146111d0565b8451602080960120938483526002865260019283858220015461037e5785815260028752848120918683556201518042019283421161036b578086600392019485556002810161ffff19815416905501918451918211610358579082916101fd8996959454610fa5565b601f8111610300575b508990601f831160011461027f577f1107c3351390e351f7859a17b5fff4b12bbb9353072b11ad8a593938fffff93e96978392839293610274575b501b916000199060031b1c19161790555b5461026b85519283928352868984015286830190611084565b0390a251908152f35b87015192508c610241565b8381528a8120601f19841698939290915b8c8a82106102e9575050827f1107c3351390e351f7859a17b5fff4b12bbb9353072b11ad8a593938fffff93e9899106102d0575b5050811b019055610252565b86015160001960f88460031b161c191690558a806102c4565b8883015184558c9950928501929182019101610290565b90919280949596508252898220601f840160051c8101918b851061034e575b8a97969594939291601f8a920160051c01915b828110610340575050610206565b8381558b9850899101610332565b909150819061031f565b634e487b7160e01b815260418a52602490fd5b634e487b7160e01b835260118a52602483fd5b845162461bcd60e51b8152808901889052601760248201527f416374696f6e20616c72656164792070726f706f7365640000000000000000006044820152606490fd5b8380fd5b839034610130578160031936011261013057905490516001600160a01b039091168152602090f35b83903461013057608036600319011261013057610408610efb565b6024359060443560ff60036064359360018060a01b039061042d828a541633146111d0565b16958688528160205287208581558360018201558460028201550191825493600a838616961091826104f7575b50816104eb575b50151516809260ff191617905580806104e3575b156104a35750507f81f70183487e5a85bd6ea3ee31da9af34b63353244747835db4d8c36f8f4be978280a280f35b1590816104db575b506104b4575080f35b7f798e868a5d43e04e0a418a82c13c9548b65db330493241e3303b2d9e9140aaff8280a280f35b9050836104ab565b508115610475565b603c9150101587610461565b6203f480111591508861045a565b9050823461057b57602036600319011261057b578161057791843581526001602052209160018060a01b0383541661053f60018501610fdf565b9361054c60028201610fdf565b956003820154908201549060066005840154930154945197889760ff808860081c16971695896110c4565b0390f35b80fd5b919050346106ae5760203660031901126106ae57803567ffffffffffffffff81116103c1576105b09036908301610f4e565b6105c460018060a01b0385541633146111d0565b6020815191012091828452600260205280842060018101546105e781151561120d565b4210610674576002019182549161060160ff84161561124f565b60ff8360081c1661063e57505060ff191660011790557f9b5a634ce9dbcc1cc28dbce24cd5b30136689ff28f9ae433837bd68895d7d5e08280a280f35b906020606492519162461bcd60e51b8352820152601060248201526f1058dd1a5bdb8818d85b98d95b1b195960821b6044820152fd5b815162461bcd60e51b81526020818501526014602482015273151a5b595b1bd8dac81b9bdd08195e1c1a5c995960621b6044820152606490fd5b8280fd5b82843461057b57602036600319011261057b578261057791833581526001602052209160018060a01b0383541660038401549184015460058501549060068601549361070c600261070560018a01610fdf565b9801610fdf565b975197889760ff808860081c16971695896110c4565b83903461013057816003193601126101305751908152602090f35b919050346106ae57826003193601126106ae5760209250549051908152f35b919050346106ae5760203660031901126106ae57600290359161078960018060a01b0385541633146111d0565b8284528160205283206107a16001820154151561120d565b0161010081546107b460ff82161561124f565b61ff0019161790557f123ababb6f85aa48b13de8f5bd2acb5393e4980d969791661dc98733100703958280a280f35b919050346106ae5760203660031901126106ae579181923581526002602052209061057782549160ff600185015494610823600360028301549201610fdf565b9280519687968752602087015282821615159086015260081c161515606084015260a0608084015260a0830190611084565b8390346101305760203660031901126101305760209160ff9060039083906001600160a01b03610883610efb565b1681528286522001541690519015158152f35b9050346106ae57806003193601126106ae5767ffffffffffffffff928235848111610130576108c89036908501610f4e565b6024358581116106ae576108df9036908601610f4e565b916108f160ff825460a01c161561111e565b6108fb85546111ab565b808655815260019060209682885285822092336bffffffffffffffffffffffff60a01b855416178455808401855190838211610bb05761093b8154610fa5565b918b601f93848111610b6b575b5050808c8d858311600114610b0957508791610afe575b50600019600383901b1c191690841b1790555b60028501938751938411610358578a61098b8654610fa5565b838111610ab9575b50508a918411600114610a30579280807f7b8dec03dc1ab3e7e93135384d6adbb54ffc289b79839fc05f10fa31cfbddeaf9794610a0e9c979460069793610a25575b501b916000199060031b1c19161790555b4260038201550161ffff19815416905554948592610a1c865192839288845288840190611084565b8281038a8401523396611084565b0390a351908152f35b8b01519250386109d5565b90601f9392931983168583528b8320925b8c828210610aa557505092610a0e9a959260069592827f7b8dec03dc1ab3e7e93135384d6adbb54ffc289b79839fc05f10fa31cfbddeaf999610610a8c575b5050811b0190556109e6565b8a015160001960f88460031b161c191690553880610a80565b8a8401518555938601939283019201610a41565b868352838284209181880160051c8301938810610af5575b0160051c019084905b828110610aea57508c9150610993565b838155018490610ada565b92508192610ad1565b90508801513861095f565b90869350601f198316858a52828a20928a905b8d838310610b53575050508311610b3a575b5050811b019055610972565b8a015160001960f88460031b161c191690553880610b2e565b84015185558996909401939283019290810190610b1c565b838852848289209181850160051c8301938510610ba7575b0160051c019085905b828110610b9c57508d9150610948565b888155018590610b8c565b92508192610b83565b634e487b7160e01b855260418a52602485fd5b83903461013057816003193601126101305760ff6020925460a01c1690519015158152f35b83903461013057816003193601126101305760209051620151808152f35b833461057b578060031936011261057b578054610c2d336001600160a01b038316146111d0565b60ff60a01b1916600160a01b178155337f7c83004a7e59a8ea03b200186c4dda29a4e144d9844d63dbc1a09acf7dfcd4858280a280f35b833461057b578060031936011261057b578054610c8b336001600160a01b038316146111d0565b60ff60a01b19168155337f306ca22c455fe433ebbf0542bbf947ea6a725495f9e1043db2a47e3c579403858280a280f35b919050346106ae57816003193601126106ae576024356001600160a01b03811691908290036103c15760209360ff92849235825260018652600783832001908252855220541690519015158152f35b8390346101305760203660031901126101305760809181906001600160a01b03610d33610efb565b1681526003602052209081549160018101549160ff6003600284015493015416928151948552602085015283015215156060820152f35b9050346106ae57806003193601126106ae578135916024359182151590818403610ef757610d9f60ff875460a01c161561111e565b3386526020906003825260ff600382892001541615610ec1578587526001825280872094610dd460ff6006880154161561115f565b6007860133895280845260ff838a205416610e8e573389528352818820805460ff1916600117905586927fe71fcdac32df1877c1700e7bda2a03157e20993363a28fc35ac495cefc76e4d492909115610e7957858701610e3481546111ab565b90555b519384523393a36005818301549201548201809211610e66575060031115610e5d575080f35b61012d9061129b565b634e487b7160e01b845260119052602483fd5b60058701610e8781546111ab565b9055610e37565b825162461bcd60e51b8152808701859052600d60248201526c105b1c9958591e481d9bdd1959609a1b6044820152606490fd5b5162461bcd60e51b815292830152506012602482015271139bd919481b9bdd081c5d585b1a599a595960721b6044820152606490fd5b8580fd5b600435906001600160a01b0382168203610f1157565b600080fd5b90601f8019910116810190811067ffffffffffffffff821117610f3857604052565b634e487b7160e01b600052604160045260246000fd5b81601f82011215610f115780359067ffffffffffffffff8211610f385760405192610f83601f8401601f191660200185610f16565b82845260208383010111610f1157816000926020809301838601378301015290565b90600182811c92168015610fd5575b6020831014610fbf57565b634e487b7160e01b600052602260045260246000fd5b91607f1691610fb4565b90604051918260008254610ff281610fa5565b908184526020946001916001811690816000146110625750600114611023575b50505061102192500383610f16565b565b600090815285812095935091905b81831061104a5750506110219350820101388080611012565b85548884018501529485019487945091830191611031565b9250505061102194925060ff191682840152151560051b820101388080611012565b919082519283825260005b8481106110b0575050826000602080949584010152601f8019910116010190565b60208183018101518483018201520161108f565b969398979491926110f260e09794611100936101009060018060a01b03168b528060208c01528a0190611084565b9088820360408a0152611084565b976060870152608086015260a0850152151560c08401521515910152565b1561112557565b60405162461bcd60e51b815260206004820152601260248201527110dbdb9d1c9858dd081a5cc81c185d5cd95960721b6044820152606490fd5b1561116657565b60405162461bcd60e51b815260206004820152601760248201527f41707065616c20616c7265616479207265736f6c7665640000000000000000006044820152606490fd5b60001981146111ba5760010190565b634e487b7160e01b600052601160045260246000fd5b156111d757565b60405162461bcd60e51b815260206004820152600e60248201526d27b7363c903232bb32b637b832b960911b6044820152606490fd5b1561121457565b60405162461bcd60e51b81526020600482015260136024820152721058dd1a5bdb881b9bdd081c1c9bdc1bdcd959606a1b6044820152606490fd5b1561125657565b60405162461bcd60e51b815260206004820152601760248201527f416374696f6e20616c72656164792065786563757465640000000000000000006044820152606490fd5b8060005260016020527f89cd618842088e9ada48e481bba3a9320eba61a9329ef23ede5abd02837084a5602060406000206001600682019161ff008354916112e660ff84161561115f565b600560048201549101541060081b169061ffff1916171780915560ff6040519160081c1615158152a256fea164736f6c6343000818000a",
  "linkReferences": {},
  "deployedLinkReferences": {}
}