{
  "_format": "hh3-artifact-1",
  "contractName": "ThreatIntelSync",
  "sourceName": "isolated_contracts/ThreatIntelSync.sol",
  "abi": [
    {
      "inputs": [
        {
          "internalType": "address",
          "name": "_layerZeroEndpoint",
          "type": "address"
        },
        {
          "internalType": "address",
          "name": "_governanceContract",
          "type": "address"
        },
        {
          "internalType": "uint256",
          "name": "_domesticChainId",
          "type": "uint256"
        },
        {
          "internalType": "uint256",
          "name": "_overseasChainId",
          "type": "uint256"
        }
      ],
      "stateMutability": "nonpayable",
      "type": "constructor"
    },
    {
      "anonymous": false,
      "inputs": [
        {
          "indexed": false,
          "internalType": "address",
          "name": "oldGovernance",
          "type": "address"
        },
        {
          "indexed": false,
          "internalType": "address",
          "name": "newGovernance",
          "type": "address"
        }
      ],
      "name": "GovernanceUpdated",
      "type": "event"
    },
    {
      "anonymous": false,
      "inputs": [
        {
          "indexed": true,
          "internalType": "string",
          "name": "threatId",
          "type": "string"
        },
        {
          "indexed": false,
          "internalType": "string",
          "name": "sourceIP",
          "type": "string"
        },
        {
          "indexed": false,
          "internalType": "uint256",
          "name": "threatLevel",
          "type": "uint256"
        },
        {
          "indexed": true,
          "internalType": "uint256",
          "name": "sourceChainId",
          "type": "uint256"
        },
        {
          "indexed": true,
          "internalType": "uint256",
          "name": "destChainId",
          "type": "uint256"
        }
      ],
      "name": "ThreatIntelReceived",
      "type": "event"
    },
    {
      "anonymous": false,
      "inputs": [
        {
          "indexed": true,
          "internalType": "string",
          "name": "threatId",
          "type": "string"
        },
        {
          "indexed": true,
          "internalType": "uint256",
          "name": "sourceChainId",
          "type": "uint256"
        },
        {
          "indexed": true,
          "internalType": "uint256",
          "name": "destChainId",
          "type": "uint256"
        }
      ],
      "name": "ThreatIntelSent",
      "type": "event"
    },
    {
      "inputs": [
        {
          "internalType": "uint16",
          "name": "_dstChainId",
          "type": "uint16"
        },
        {
          "internalType": "string[]",
          "name": "_threatIds",
          "type": "string[]"
        },
        {
          "internalType": "string[]",
          "name": "_sourceIPs",
          "type": "string[]"
        },
        {
          "internalType": "uint256[]",
          "name": "_threatLevels",
          "type": "uint256[]"
        },
        {
          "internalType": "uint256[]",
          "name": "_threatTypes",
          "type": "uint256[]"
        },
        {
          "internalType": "string[]",
          "name": "_evidenceHashes",
          "type": "string[]"
        },
        {
          "internalType": "string[]",
          "name": "_geolocations",
          "type": "string[]"
        }
      ],
      "name": "batchSendThreatIntel",
      "outputs": [],
      "stateMutability": "payable",
      "type": "function"
    },
    {
      "inputs": [],
      "name": "domesticChainId",
      "outputs": [
        {
          "internalType": "uint256",
          "name": "",
          "type": "uint256"
        }
      ],
      "stateMutability": "view",
      "type": "function"
    },
    {
      "inputs": [
        {
          "internalType": "string",
          "name": "_threatId",
          "type": "string"
        },
        {
          "internalType": "uint256",
          "name": "_chainId",
          "type": "uint256"
        }
      ],
      "name": "getThreatIntel",
      "outputs": [
        {
          "components": [
            {
              "internalType": "string",
              "name": "threatId",
              "type": "string"
            },
            {
              "internalType": "string",
              "name": "sourceIP",
              "type": "string"
            },
            {
              "internalType": "uint256",
              "name": "threatLevel",
              "type": "uint256"
            },
            {
              "internalType": "uint256",
              "name": "threatType",
              "type": "uint256"
            },
            {
              "internalType": "uint256",
              "name": "timestamp",
              "type": "uint256"
            },
            {
              "internalType": "string",
              "name": "evidenceHash",
              "type": "string"
            },
            {
              "internalType": "string",
              "name": "geolocation",
              "type": "string"
            },
            {
              "internalType": "uint256",
              "name": "sourceChainId",
              "type": "uint256"
            },
            {
              "internalType": "address",
              "name": "reporter",
              "type": "address"
            },
            {
              "internalType": "bool",
              "name": "isProcessed",
              "type": "bool"
            }
          ],
          "internalType": "struct ThreatIntelSync.ThreatIntel",
          "name": "",
          "type": "tuple"
        }
      ],
      "stateMutability": "view",
      "type": "function"
    },
    {
      "inputs": [],
      "name": "governanceContract",
      "outputs": [
        {
          "internalType": "address",
          "name": "",
          "type": "address"
        }
      ],
      "stateMutability": "view",
      "type": "function"
    },
    {
      "inputs": [],
      "name": "lzEndpoint",
      "outputs": [
        {
          "internalType": "contract ILayerZeroEndpoint",
          "name": "",
          "type": "address"
        }
      ],
      "stateMutability": "view",
      "type": "function"
    },
    {
      "inputs": [
        {
          "internalType": "uint16",
          "name": "_srcChainId",
          "type": "uint16"
        },
        {
          "internalType": "bytes",
          "name": "_srcAddress",
          "type": "bytes"
        },
        {
          "internalType": "uint64",
          "name": "_nonce",
          "type": "uint64"
        },
        {
          "internalType": "bytes",
          "name": "_payload",
          "type": "bytes"
        }
      ],
      "name": "lzReceive",
      "outputs": [],
      "stateMutability": "nonpayable",
      "type": "function"
    },
    {
      "inputs": [],
      "name": "overseasChainId",
      "outputs": [
        {
          "internalType": "uint256",
          "name": "",
          "type": "uint256"
        }
      ],
      "stateMutability": "view",
      "type": "function"
    },
    {
      "inputs": [],
      "name": "pause",
      "outputs": [],
      "stateMutability": "nonpayable",
      "type": "function"
    },
    {
      "inputs": [
        {
          "internalType": "bytes32",
          "name": "",
          "type": "bytes32"
        }
      ],
      "name": "processedMessages",
      "outputs": [
        {
          "internalType": "bool",
          "name": "",
          "type": "bool"
        }
      ],
      "stateMutability": "view",
      "type": "function"
    },
    {
      "inputs": [
        {
          "internalType": "uint16",
          "name": "_dstChainId",
          "type": "uint16"
        },
        {
          "internalType": "string",
          "name": "_threatId",
          "type": "string"
        },
        {
          "internalType": "string",
          "name": "_sourceIP",
          "type": "string"
        },
        {
          "internalType": "uint256",
          "name": "_threatLevel",
          "type": "uint256"
        },
        {
          "internalType": "uint256",
          "name": "_threatType",
          "type": "uint256"
        },
        {
          "internalType": "string",
          "name": "_evidenceHash",
          "type": "string"
        },
        {
          "internalType": "string",
          "name": "_geolocation",
          "type": "string"
        }
      ],
      "name": "quoteSendThreatIntel",
      "outputs": [
        {
          "internalType": "uint256",
          "name": "fee",
          "type": "uint256"
        }
      ],
      "stateMutability": "view",
      "type": "function"
    },
    {
      "inputs": [
        {
          "internalType": "uint16",
          "name": "_dstChainId",
          "type": "uint16"
        },
        {
          "internalType": "string",
          "name": "_threatId",
          "type": "string"
        },
        {
          "internalType": "string",
          "name": "_sourceIP",
          "type": "string"
        },
        {
          "internalType": "uint256",
          "name": "_threatLevel",
          "type": "uint256"
        },
        {
          "internalType": "uint256",
          "name": "_threatType",
          "type": "uint256"
        },
        {
          "internalType": "string",
          "name": "_evidenceHash",
          "type": "string"
        },
        {
          "internalType": "string",
          "name": "_geolocation",
          "type": "string"
        }
      ],
      "name": "sendThreatIntel",
      "outputs": [],
      "stateMutability": "payable",
      "type": "function"
    },
    {
      "inputs": [
        {
          "internalType": "bytes32",
          "name": "",
          "type": "bytes32"
        }
      ],
      "name": "threatIntels",
      "outputs": [
        {
          "internalType": "string",
          "name": "threatId",
          "type": "string"
        },
        {
          "internalType": "string",
          "name": "sourceIP",
          "type": "string"
        },
        {
          "internalType": "uint256",
          "name": "threatLevel",
          "type": "uint256"
        },
        {
          "internalType": "uint256",
          "name": "threatType",
          "type": "uint256"
        },
        {
          "internalType": "uint256",
          "name": "timestamp",
          "type": "uint256"
        },
        {
          "internalType": "string",
          "name": "evidenceHash",
          "type": "string"
        },
        {
          "internalType": "string",
          "name": "geolocation",
          "type": "string"
        },
        {
          "internalType": "uint256",
          "name": "sourceChainId",
          "type": "uint256"
        },
        {
          "internalType": "address",
          "name": "reporter",
          "type": "address"
        },
        {
          "internalType": "bool",
          "name": "isProcessed",
          "type": "bool"
        }
      ],
      "stateMutability": "view",
      "type": "function"
    },
    {
      "inputs": [],
      "name": "unpause",
      "outputs": [],
      "stateMutability": "nonpayable",
      "type": "function"
    },
    {
      "inputs": [
        {
          "internalType": "address",
          "name": "_newGovernance",
          "type": "address"
        }
      ],
      "name": "updateGovernance",
      "outputs": [],
      "stateMutability": "nonpayable",
      "type": "function"
    }
  ],
  "bytecode": "0x60806040523480156200001157600080fd5b50604051620020e9380380620020e9833981016040819052620000349162000090565b600080546001600160a01b039586166001600160a01b0319918216179091556003805494909516931692909217909255600491909155600555620000d8565b80516001600160a01b03811681146200008b57600080fd5b919050565b60008060008060808587031215620000a757600080fd5b620000b28562000073565b9350620000c26020860162000073565b6040860151606090960151949790965092505050565b61200180620000e86000396000f3fe6080604052600436106100dc5760003560e01c8063b172b2221161007f578063cab5fc4911610059578063cab5fc491461021f578063e32adf641461024c578063f4d0ea3c14610282578063f5597c541461029857600080fd5b8063b172b222146101a7578063b2561263146101df578063b353aaa7146101ff57600080fd5b80636df9b476116100bb5780636df9b476146101415780638456cb591461012c578063873094a31461015457806388ba16ab1461016757600080fd5b80621d3567146100e157806336874b8c146101035780633f4ba83a1461012c575b600080fd5b3480156100ed57600080fd5b506101016100fc3660046113c2565b6102b8565b005b34801561010f57600080fd5b5061011960055481565b6040519081526020015b60405180910390f35b34801561013857600080fd5b50610101610616565b61010161014f36600461155b565b610642565b610101610162366004611738565b61091b565b34801561017357600080fd5b5061019761018236600461182f565b60026020526000908152604090205460ff1681565b6040519015158152602001610123565b3480156101b357600080fd5b506003546101c7906001600160a01b031681565b6040516001600160a01b039091168152602001610123565b3480156101eb57600080fd5b506101016101fa36600461185f565b610aee565b34801561020b57600080fd5b506000546101c7906001600160a01b031681565b34801561022b57600080fd5b5061023f61023a366004611881565b610b79565b60405161012391906119d7565b34801561025857600080fd5b5061026c61026736600461182f565b610ebd565b6040516101239a999897969594939291906119ea565b34801561028e57600080fd5b5061011960045481565b3480156102a457600080fd5b506101196102b336600461155b565b611138565b6000546001600160a01b031633146103175760405162461bcd60e51b815260206004820152601760248201527f4c7a4170703a20696e76616c696420656e64706f696e7400000000000000000060448201526064015b60405180910390fd5b6000868686866040516020016103309493929190611a7c565b60408051601f1981840301815291815281516020928301206000818152600290935291205490915060ff16156103a85760405162461bcd60e51b815260206004820152601960248201527f4d65737361676520616c72656164792070726f63657373656400000000000000604482015260640161030e565b6000818152600260205260408120805460ff191660011790556103cd83850185611aca565b805151519091506104185760405162461bcd60e51b8152602060048201526015602482015274151a1c99585d081251081a5cc81c995c5d5a5c9959605a1b604482015260640161030e565b805160400151606410156104655760405162461bcd60e51b8152602060048201526014602482015273125b9d985b1a59081d1a1c99585d081b195d995b60621b604482015260640161030e565b805160600151600610156104b15760405162461bcd60e51b8152602060048201526013602482015272496e76616c696420746872656174207479706560681b604482015260640161030e565b8051516040516000916104c8918b90602001611c2e565b60408051601f198184030181529181528151602092830120845160008281526001909452919092208151929350909181906105039082611ce9565b50602082015160018201906105189082611ce9565b5060408201516002820155606082015160038201556080820151600482015560a0820151600582019061054b9082611ce9565b5060c082015160068201906105609082611ce9565b5060e0820151600782015561010082015160089091018054610120909301511515600160a01b026001600160a81b03199093166001600160a01b0390921691909117919091179055815151604051469161ffff8c16916105c09190611da8565b604080519182900382208651602081015192015190927fa1cd19d06d2a9222ae3dd0df2d9c64337263cbd4b4e979b6c38732d533cbcd4c92610603929091611dc4565b60405180910390a4505050505050505050565b6003546001600160a01b031633146106405760405162461bcd60e51b815260040161030e90611de6565b565b6004548761ffff16148061065b57506005548761ffff16145b6106a35760405162461bcd60e51b815260206004820152601960248201527824b73b30b634b2103232b9ba34b730ba34b7b71031b430b4b760391b604482015260640161030e565b6000604051806101400160405280888152602001878152602001868152602001858152602001428152602001848152602001838152602001468152602001336001600160a01b03168152602001600015158152509050600060405180604001604052808381526020014281525090506000816040516020016107259190611e2c565b60408051601f1981840301815260008054602085018452818552925163040a7bb160e41b8152919450926001600160a01b03909216916340a7bb1091610776918f9130918891889190600401611e5e565b6040805180830381865afa158015610792573d6000803e3d6000fd5b505050506040513d601f19601f820116820180604052508101906107b69190611eb2565b5090506107d68b8333306040518060200160405280600081525086611273565b60008a466040516020016107eb929190611ed6565b60408051601f1981840301815291815281516020928301206000818152600190935291208651919250869181906108229082611ce9565b50602082015160018201906108379082611ce9565b5060408201516002820155606082015160038201556080820151600482015560a0820151600582019061086a9082611ce9565b5060c0820151600682019061087f9082611ce9565b5060e0820151600782015561010082015160089091018054610120909301511515600160a01b026001600160a81b03199093166001600160a01b039092169190911791909117905560405161ffff8d169046906108dd908e90611da8565b604051908190038120907fc79010da6238c05756882dae4d81feee7e3a6cd1303e804622ebe73ce2e6cacc90600090a4505050505050505050505050565b845186511461093c5760405162461bcd60e51b815260040161030e90611ef8565b835186511461095d5760405162461bcd60e51b815260040161030e90611ef8565b825186511461097e5760405162461bcd60e51b815260040161030e90611ef8565b815186511461099f5760405162461bcd60e51b815260040161030e90611ef8565b80518651146109c05760405162461bcd60e51b815260040161030e90611ef8565b6004548761ffff1614806109d957506005548761ffff16145b610a215760405162461bcd60e51b815260206004820152601960248201527824b73b30b634b2103232b9ba34b730ba34b7b71031b430b4b760391b604482015260640161030e565b60005b8651811015610ae457610ad288888381518110610a4357610a43611f27565b6020026020010151888481518110610a5d57610a5d611f27565b6020026020010151888581518110610a7757610a77611f27565b6020026020010151888681518110610a9157610a91611f27565b6020026020010151888781518110610aab57610aab611f27565b6020026020010151888881518110610ac557610ac5611f27565b6020026020010151610642565b80610adc81611f3d565b915050610a24565b5050505050505050565b6003546001600160a01b03163314610b185760405162461bcd60e51b815260040161030e90611de6565b600380546001600160a01b038381166001600160a01b031983168117909355604080519190921680825260208201939093527f434a2db650703b36c824e745330d6397cdaa9ee2cc891a4938ae853e1c50b68d910160405180910390a15050565b610bda604051806101400160405280606081526020016060815260200160008152602001600081526020016000815260200160608152602001606081526020016000815260200160006001600160a01b031681526020016000151581525090565b60008383604051602001610bef929190611ed6565b60408051601f19818403018152828252805160209182012060008181526001909252908290206101408401909252815490935082908290610c2f90611c60565b80601f0160208091040260200160405190810160405280929190818152602001828054610c5b90611c60565b8015610ca85780601f10610c7d57610100808354040283529160200191610ca8565b820191906000526020600020905b815481529060010190602001808311610c8b57829003601f168201915b50505050508152602001600182018054610cc190611c60565b80601f0160208091040260200160405190810160405280929190818152602001828054610ced90611c60565b8015610d3a5780601f10610d0f57610100808354040283529160200191610d3a565b820191906000526020600020905b815481529060010190602001808311610d1d57829003601f168201915b50505050508152602001600282015481526020016003820154815260200160048201548152602001600582018054610d7190611c60565b80601f0160208091040260200160405190810160405280929190818152602001828054610d9d90611c60565b8015610dea5780601f10610dbf57610100808354040283529160200191610dea565b820191906000526020600020905b815481529060010190602001808311610dcd57829003601f168201915b50505050508152602001600682018054610e0390611c60565b80601f0160208091040260200160405190810160405280929190818152602001828054610e2f90611c60565b8015610e7c5780601f10610e5157610100808354040283529160200191610e7c565b820191906000526020600020905b815481529060010190602001808311610e5f57829003601f168201915b5050509183525050600782015460208201526008909101546001600160a01b0381166040830152600160a01b900460ff161515606090910152949350505050565b600160205260009081526040902080548190610ed890611c60565b80601f0160208091040260200160405190810160405280929190818152602001828054610f0490611c60565b8015610f515780601f10610f2657610100808354040283529160200191610f51565b820191906000526020600020905b815481529060010190602001808311610f3457829003601f168201915b505050505090806001018054610f6690611c60565b80601f0160208091040260200160405190810160405280929190818152602001828054610f9290611c60565b8015610fdf5780601f10610fb457610100808354040283529160200191610fdf565b820191906000526020600020905b815481529060010190602001808311610fc257829003601f168201915b50505050509080600201549080600301549080600401549080600501805461100690611c60565b80601f016020809104026020016040519081016040528092919081815260200182805461103290611c60565b801561107f5780601f106110545761010080835404028352916020019161107f565b820191906000526020600020905b81548152906001019060200180831161106257829003601f168201915b50505050509080600601805461109490611c60565b80601f01602080910402602001604051908101604052809291908181526020018280546110c090611c60565b801561110d5780601f106110e25761010080835404028352916020019161110d565b820191906000526020600020905b8154815290600101906020018083116110f057829003601f168201915b5050505060078301546008909301549192916001600160a01b0381169150600160a01b900460ff168a565b600080604051806101400160405280898152602001888152602001878152602001868152602001428152602001858152602001848152602001468152602001336001600160a01b03168152602001600015158152509050600060405180604001604052808381526020014281525090506000816040516020016111bb9190611e2c565b604051602081830303815290604052905060008054906101000a90046001600160a01b03166001600160a01b03166340a7bb108c30846000604051806020016040528060008152506040518663ffffffff1660e01b8152600401611223959493929190611e5e565b6040805180830381865afa15801561123f573d6000803e3d6000fd5b505050506040513d601f19601f820116820180604052508101906112639190611eb2565b509b9a5050505050505050505050565b60008251116112c45760405162461bcd60e51b815260206004820152601860248201527f4c7a4170703a206e6f206164617074657220706172616d730000000000000000604482015260640161030e565b600054604080513060601b6bffffffffffffffffffffffff1916602082015281516014818303018152603482019283905262c5803160e81b9092526001600160a01b039092169163c5803100918491611329918b918b908b908b908b90603801611f64565b6000604051808303818588803b15801561134257600080fd5b505af1158015611356573d6000803e3d6000fd5b5050505050505050505050565b803561ffff8116811461137557600080fd5b919050565b60008083601f84011261138c57600080fd5b5081356001600160401b038111156113a357600080fd5b6020830191508360208285010111156113bb57600080fd5b9250929050565b600080600080600080608087890312156113db57600080fd5b6113e487611363565b955060208701356001600160401b038082111561140057600080fd5b61140c8a838b0161137a565b909750955060408901359150808216821461142657600080fd5b9093506060880135908082111561143c57600080fd5b5061144989828a0161137a565b979a9699509497509295939492505050565b634e487b7160e01b600052604160045260246000fd5b604080519081016001600160401b03811182821017156114935761149361145b565b60405290565b60405161014081016001600160401b03811182821017156114935761149361145b565b604051601f8201601f191681016001600160401b03811182821017156114e4576114e461145b565b604052919050565b600082601f8301126114fd57600080fd5b81356001600160401b038111156115165761151661145b565b611529601f8201601f19166020016114bc565b81815284602083860101111561153e57600080fd5b816020850160208301376000918101602001919091529392505050565b600080600080600080600060e0888a03121561157657600080fd5b61157f88611363565b965060208801356001600160401b038082111561159b57600080fd5b6115a78b838c016114ec565b975060408a01359150808211156115bd57600080fd5b6115c98b838c016114ec565b965060608a0135955060808a0135945060a08a01359150808211156115ed57600080fd5b6115f98b838c016114ec565b935060c08a013591508082111561160f57600080fd5b5061161c8a828b016114ec565b91505092959891949750929550565b60006001600160401b038211156116445761164461145b565b5060051b60200190565b600082601f83011261165f57600080fd5b8135602061167461166f8361162b565b6114bc565b82815260059290921b8401810191818101908684111561169357600080fd5b8286015b848110156116d25780356001600160401b038111156116b65760008081fd5b6116c48986838b01016114ec565b845250918301918301611697565b509695505050505050565b600082601f8301126116ee57600080fd5b813560206116fe61166f8361162b565b82815260059290921b8401810191818101908684111561171d57600080fd5b8286015b848110156116d25780358352918301918301611721565b600080600080600080600060e0888a03121561175357600080fd5b61175c88611363565b965060208801356001600160401b038082111561177857600080fd5b6117848b838c0161164e565b975060408a013591508082111561179a57600080fd5b6117a68b838c0161164e565b965060608a01359150808211156117bc57600080fd5b6117c88b838c016116dd565b955060808a01359150808211156117de57600080fd5b6117ea8b838c016116dd565b945060a08a013591508082111561180057600080fd5b61180c8b838c0161164e565b935060c08a013591508082111561182257600080fd5b5061161c8a828b0161164e565b60006020828403121561184157600080fd5b5035919050565b80356001600160a01b038116811461137557600080fd5b60006020828403121561187157600080fd5b61187a82611848565b9392505050565b6000806040838503121561189457600080fd5b82356001600160401b038111156118aa57600080fd5b6118b6858286016114ec565b95602094909401359450505050565b60005b838110156118e05781810151838201526020016118c8565b50506000910152565b600081518084526119018160208601602086016118c5565b601f01601f19169290920160200192915050565b6000610140825181855261192b828601826118e9565b9150506020830151848203602086015261194582826118e9565b91505060408301516040850152606083015160608501526080830151608085015260a083015184820360a086015261197d82826118e9565b91505060c083015184820360c086015261199782826118e9565b91505060e083015160e0850152610100808401516119bf828701826001600160a01b03169052565b50506101209283015115159390920192909252919050565b60208152600061187a6020830184611915565b60006101408083526119fe8184018e6118e9565b90508281036020840152611a12818d6118e9565b90508a604084015289606084015288608084015282810360a0840152611a3881896118e9565b905082810360c0840152611a4c81886118e9565b60e084019690965250506001600160a01b0392909216610100830152151561012090910152979650505050505050565b60f085901b6001600160f01b03191681528284600283013760c09190911b6001600160c01b03191660029190920190810191909152600a0192915050565b8035801515811461137557600080fd5b600060208284031215611adc57600080fd5b81356001600160401b0380821115611af357600080fd5b9083019060408286031215611b0757600080fd5b611b0f611471565b823582811115611b1e57600080fd5b83016101408188031215611b3157600080fd5b611b39611499565b813584811115611b4857600080fd5b611b54898285016114ec565b825250602082013584811115611b6957600080fd5b611b75898285016114ec565b60208301525060408201356040820152606082013560608201526080820135608082015260a082013584811115611bab57600080fd5b611bb7898285016114ec565b60a08301525060c082013584811115611bcf57600080fd5b611bdb898285016114ec565b60c08301525060e082013560e08201526101009350611bfb848301611848565b848201526101209350611c0f848301611aba565b8482015280835250506020830135602082015280935050505092915050565b60008351611c408184602088016118c5565b60f09390931b6001600160f01b0319169190920190815260020192915050565b600181811c90821680611c7457607f821691505b602082108103611c9457634e487b7160e01b600052602260045260246000fd5b50919050565b601f821115611ce457600081815260208120601f850160051c81016020861015611cc15750805b601f850160051c820191505b81811015611ce057828155600101611ccd565b5050505b505050565b81516001600160401b03811115611d0257611d0261145b565b611d1681611d108454611c60565b84611c9a565b602080601f831160018114611d4b5760008415611d335750858301515b600019600386901b1c1916600185901b178555611ce0565b600085815260208120601f198616915b82811015611d7a57888601518255948401946001909101908401611d5b565b5085821015611d985787850151600019600388901b60f8161c191681555b5050505050600190811b01905550565b60008251611dba8184602087016118c5565b9190910192915050565b604081526000611dd760408301856118e9565b90508260208301529392505050565b60208082526026908201527f4f6e6c7920676f7665726e616e63652063616e2063616c6c20746869732066756040820152653731ba34b7b760d11b606082015260800190565b602081526000825160406020840152611e486060840182611915565b9050602084015160408401528091505092915050565b61ffff861681526001600160a01b038516602082015260a060408201819052600090611e8c908301866118e9565b84151560608401528281036080840152611ea681856118e9565b98975050505050505050565b60008060408385031215611ec557600080fd5b505080516020909101519092909150565b60008351611ee88184602088016118c5565b9190910191825250602001919050565b602080825260159082015274082e4e4c2f240d8cadccee8d040dad2e6dac2e8c6d605b1b604082015260600190565b634e487b7160e01b600052603260045260246000fd5b600060018201611f5d57634e487b7160e01b600052601160045260246000fd5b5060010190565b61ffff8716815260c060208201526000611f8160c08301886118e9565b8281036040840152611f9381886118e9565b6001600160a01b0387811660608601528616608085015283810360a08501529050611fbe81856118e9565b999850505050505050505056fea2646970667358221220ad37535d592ab6160f4a787dce2d2d3c2a2cc01a87c83c521e55ac17acd7946664736f6c63430008130033",
  "linkReferences": {},
  "deployedLinkReferences": {},
  "immutableReferences": {},
  "inputSourceName": "project/isolated_contracts/ThreatIntelSync.sol",
  "buildInfoId": "solc-0_8_19-22d079e1c32bc46a1bc5b10cbc249f0401cf74f3"
}