{"contracts/ThreatIntelligenceCoordination.sol":{"ThreatIntelligenceCoordination":{"abi":[{"inputs":[],"stateMutability":"nonpayable","type":"constructor"},{"anonymous":false,"inputs":[{"indexed":true,"internalType":"string","name":"ip","type":"string"},{"indexed":false,"internalType":"enum ThreatIntelligenceCoordination.ThreatLevel","name":"level","type":"uint8"},{"indexed":false,"internalType":"string","name":"threatType","type":"string"},{"indexed":false,"internalType":"uint256","name":"timestamp","type":"uint256"}],"name":"ThreatIntelAdded","type":"event"},{"anonymous":false,"inputs":[{"indexed":true,"internalType":"string","name":"ip","type":"string"},{"indexed":false,"internalType":"uint256","name":"timestamp","type":"uint256"}],"name":"ThreatIntelRemoved","type":"event"},{"inputs":[{"internalType":"string","name":"_ip","type":"string"},{"internalType":"enum ThreatIntelligenceCoordination.ThreatLevel","name":"_threatLevel","type":"uint8"},{"internalType":"string","name":"_threatType","type":"string"}],"name":"addThreatIntel","outputs":[],"stateMutability":"nonpayable","type":"function"},{"inputs":[{"internalType":"string","name":"_ip","type":"string"}],"name":"getThreatIntel","outputs":[{"internalType":"string","name":"sourceIP","type":"string"},{"internalType":"string","name":"targetIP","type":"string"},{"internalType":"enum ThreatIntelligenceCoordination.ThreatLevel","name":"threatLevel","type":"uint8"},{"internalType":"uint256","name":"timestamp","type":"uint256"},{"internalType":"string","name":"threatType","type":"string"},{"internalType":"bool","name":"isActive","type":"bool"}],"stateMutability":"view","type":"function"},{"inputs":[{"internalType":"string","name":"","type":"string"}],"name":"isThreatIP","outputs":[{"internalType":"bool","name":"","type":"bool"}],"stateMutability":"view","type":"function"},{"inputs":[{"internalType":"string","name":"_ip","type":"string"}],"name":"isThreatSource","outputs":[{"internalType":"bool","name":"","type":"bool"}],"stateMutability":"view","type":"function"},{"inputs":[{"internalType":"string","name":"_ip","type":"string"}],"name":"removeThreatIntel","outputs":[],"stateMutability":"nonpayable","type":"function"},{"inputs":[{"internalType":"string","name":"","type":"string"}],"name":"threatIntels","outputs":[{"internalType":"string","name":"sourceIP","type":"string"},{"internalType":"string","name":"targetIP","type":"string"},{"internalType":"enum ThreatIntelligenceCoordination.ThreatLevel","name":"threatLevel","type":"uint8"},{"internalType":"uint256","name":"timestamp","type":"uint256"},{"internalType":"string","name":"threatType","type":"string"},{"internalType":"bool","name":"isActive","type":"bool"}],"stateMutability":"view","type":"function"}],"evm":{"bytecode":{"linkReferences":{},"object":"6080806040523461001657610b6e908161001c8239f35b600080fdfe6080604052600436101561001257600080fd5b60003560e01c8063149cdd99146108905780632a592cff146107f55780632ec920c9146107a75780639d55cb29146106b6578063b64a71e31461011c5763bd1cbfd51461005e57600080fd5b34610117576020366003190112610117576004356001600160401b038111610117576100916100eb913690600401610953565b6040516100d6602060058451938281818801966100af81838a6109a9565b81016000815203019020019260ff19938481541690556040518093819287519283916109a9565b81016001815203019020908154169055610b41565b7f0d06e35fac876e69e0d720d375f7b4d852cee07e4e59c9170cad871f37bf81c96020604051428152a2005b600080fd5b34610117576060366003190112610117576004356001600160401b0381116101175761014c903690600401610953565b60046024351015610117576044356001600160401b03811161011757610176903690600401610953565b9080511561067c5760405161018a81610917565b818152604051602081018181106001600160401b038211176104b9576040526000815260208201526101c160243560408301610b35565b426060820152826080820152600160a082015260405160208184516101e981838589016109a9565b8101600081520301902081518051906001600160401b0382116104b957819061021284546109cc565b601f811161062c575b50602090601f83116001146105c0576000926105b5575b50508160011b916000199060031b1c19161781555b60208201518051906001600160401b0382116104b957819061026c60018501546109cc565b601f8111610562575b50602090601f83116001146104f0576000926104e5575b50508160011b916000199060031b1c19161760018201555b60028101604083015160048110156104cf5760ff801983541691161790556060820151600382015560808201518051906001600160401b0382116104b9576102ef60048401546109cc565b601f8111610472575b50602090601f83116001146103d457600561039a94847f87bdc31b1bcec98e3bcc912354b27eb9f24fb60e3c33a4995a4dc319640a452b98956103be989560a0956000926103c9575b50508160011b916000199060031b1c19161760048201555b01910151151560ff80198354169116179055604051602081835161038081838588016109a9565b81016001815203019020600160ff19825416179055610b41565b926040519182916103ad83602435610ad0565b606060208401526060830190610aab565b4260408301520390a2005b015190508b80610341565b906004840160005260206000209160005b601f198516811061045a575061039a946001856103be989560a0956005957f87bdc31b1bcec98e3bcc912354b27eb9f24fb60e3c33a4995a4dc319640a452b9c99601f19811610610441575b505050811b016004820155610359565b015160001960f88460031b161c191690558b8080610431565b919260206001819286850151815501940192016103e5565b600484016000526020600020601f840160051c8101602085106104b2575b601f830160051c820181106104a65750506102f8565b60008155600101610490565b5080610490565b634e487b7160e01b600052604160045260246000fd5b634e487b7160e01b600052602160045260246000fd5b01519050868061028c565b9250600184016000526020600020906000935b601f1984168510610547576001945083601f1981161061052e575b505050811b0160018201556102a4565b015160001960f88460031b161c1916905586808061051e565b81810151835560209485019460019093019290910190610503565b909150600184016000526020600020601f840160051c8101602085106105ae575b90849392915b601f830160051c8201811061059f575050610275565b60008155859450600101610589565b5080610583565b015190508680610232565b9250836000526020600020906000935b601f1984168510610611576001945083601f198116106105f8575b505050811b018155610247565b015160001960f88460031b161c191690558680806105eb565b818101518355602094850194600190930192909101906105d0565b909150836000526020600020601f840160051c810160208510610675575b90849392915b601f830160051c8201811061066657505061021b565b60008155859450600101610650565b508061064a565b60405162461bcd60e51b815260206004820152601260248201527149502063616e6e6f7420626520656d70747960701b6044820152606490fd5b34610117576020366003190112610117576004356001600160401b0381116101175760206106eb6106fe923690600401610953565b81604051938285809451938492016109a9565b8101600081520301902060405161071481610917565b61071d82610a06565b815261072b60018301610a06565b906020810191825260ff6002840154169261074a604083019485610b35565b6003810154916060810192835260ff600561076760048501610a06565b93608084019485520154169060a08101911515825251935194519160048310156104cf576107a393519051915115159260405196879687610add565b0390f35b34610117576020366003190112610117576004356001600160401b0381116101175760ff6107df60206106eb81943690600401610953565b8101600181520301902054166040519015158152f35b34610117576020366003190112610117576004356001600160401b038111610117576108276020913690600401610953565b60405160ff8251918481818601946108408183886109a9565b810160018152030190205416918261085f575b50506040519015158152f35b60ff92508360059261087c926040519384928392519283916109a9565b810160008152030190200154168280610853565b34610117576020366003190112610117576004356001600160401b0381116101175760206106eb6108c5923690600401610953565b810160008152030190206108d881610a06565b6107a36108e760018401610a06565b9260ff60028201541690600381015460ff600561090660048501610a06565b930154169260405196879687610add565b60c081019081106001600160401b038211176104b957604052565b90601f801991011681019081106001600160401b038211176104b957604052565b81601f82011215610117578035906001600160401b0382116104b95760405192610987601f8401601f191660200185610932565b8284526020838301011161011757816000926020809301838601378301015290565b60005b8381106109bc5750506000910152565b81810151838201526020016109ac565b90600182811c921680156109fc575b60208310146109e657565b634e487b7160e01b600052602260045260246000fd5b91607f16916109db565b90604051918260008254610a19816109cc565b90818452602094600191600181169081600014610a895750600114610a4a575b505050610a4892500383610932565b565b600090815285812095935091905b818310610a71575050610a489350820101388080610a39565b85548884018501529485019487945091830191610a58565b92505050610a4894925060ff191682840152151560051b820101388080610a39565b90602091610ac4815180928185528580860191016109a9565b601f01601f1916010190565b9060048210156104cf5752565b949093610b1b610b10610b2d9594610b0260a0989b9a9b60c08b5260c08b0190610aab565b9089820360208b0152610aab565b936040880190610ad0565b60608601528482036080860152610aab565b931515910152565b60048210156104cf5752565b610b59906020604051928284809451938492016109a9565b81010390209056fea164736f6c6343000818000a","opcodes":"PUSH1 0x80 DUP1 PUSH1 0x40 MSTORE CALLVALUE PUSH2 0x16 JUMPI PUSH2 0xB6E SWAP1 DUP2 PUSH2 0x1C DUP3 CODECOPY RETURN JUMPDEST PUSH1 0x0 DUP1 REVERT INVALID PUSH1 0x80 PUSH1 0x40 MSTORE PUSH1 0x4 CALLDATASIZE LT ISZERO PUSH2 0x12 JUMPI PUSH1 0x0 DUP1 REVERT JUMPDEST PUSH1 0x0 CALLDATALOAD PUSH1 0xE0 SHR DUP1 PUSH4 0x149CDD99 EQ PUSH2 0x890 JUMPI DUP1 PUSH4 0x2A592CFF EQ PUSH2 0x7F5 JUMPI DUP1 PUSH4 0x2EC920C9 EQ PUSH2 0x7A7 JUMPI DUP1 PUSH4 0x9D55CB29 EQ PUSH2 0x6B6 JUMPI DUP1 PUSH4 0xB64A71E3 EQ PUSH2 0x11C JUMPI PUSH4 0xBD1CBFD5 EQ PUSH2 0x5E JUMPI PUSH1 0x0 DUP1 REVERT JUMPDEST CALLVALUE PUSH2 0x117 JUMPI PUSH1 0x20 CALLDATASIZE PUSH1 0x3 NOT ADD SLT PUSH2 0x117 JUMPI PUSH1 0x4 CALLDATALOAD PUSH1 0x1 PUSH1 0x1 PUSH1 0x40 SHL SUB DUP2 GT PUSH2 0x117 JUMPI PUSH2 0x91 PUSH2 0xEB SWAP2 CALLDATASIZE SWAP1 PUSH1 0x4 ADD PUSH2 0x953 JUMP JUMPDEST PUSH1 0x40 MLOAD PUSH2 0xD6 PUSH1 0x20 PUSH1 0x5 DUP5 MLOAD SWAP4 DUP3 DUP2 DUP2 DUP9 ADD SWAP7 PUSH2 0xAF DUP2 DUP4 DUP11 PUSH2 0x9A9 JUMP JUMPDEST DUP2 ADD PUSH1 0x0 DUP2 MSTORE SUB ADD SWAP1 KECCAK256 ADD SWAP3 PUSH1 0xFF NOT SWAP4 DUP5 DUP2 SLOAD AND SWAP1 SSTORE PUSH1 0x40 MLOAD DUP1 SWAP4 DUP2 SWAP3 DUP8 MLOAD SWAP3 DUP4 SWAP2 PUSH2 0x9A9 JUMP JUMPDEST DUP2 ADD PUSH1 0x1 DUP2 MSTORE SUB ADD SWAP1 KECCAK256 SWAP1 DUP2 SLOAD AND SWAP1 SSTORE PUSH2 0xB41 JUMP JUMPDEST PUSH32 0xD06E35FAC876E69E0D720D375F7B4D852CEE07E4E59C9170CAD871F37BF81C9 PUSH1 0x20 PUSH1 0x40 MLOAD TIMESTAMP DUP2 MSTORE LOG2 STOP JUMPDEST PUSH1 0x0 DUP1 REVERT JUMPDEST CALLVALUE PUSH2 0x117 JUMPI PUSH1 0x60 CALLDATASIZE PUSH1 0x3 NOT ADD SLT PUSH2 0x117 JUMPI PUSH1 0x4 CALLDATALOAD PUSH1 0x1 PUSH1 0x1 PUSH1 0x40 SHL SUB DUP2 GT PUSH2 0x117 JUMPI PUSH2 0x14C SWAP1 CALLDATASIZE SWAP1 PUSH1 0x4 ADD PUSH2 0x953 JUMP JUMPDEST PUSH1 0x4 PUSH1 0x24 CALLDATALOAD LT ISZERO PUSH2 0x117 JUMPI PUSH1 0x44 CALLDATALOAD PUSH1 0x1 PUSH1 0x1 PUSH1 0x40 SHL SUB DUP2 GT PUSH2 0x117 JUMPI PUSH2 0x176 SWAP1 CALLDATASIZE SWAP1 PUSH1 0x4 ADD PUSH2 0x953 JUMP JUMPDEST SWAP1 DUP1 MLOAD ISZERO PUSH2 0x67C JUMPI PUSH1 0x40 MLOAD PUSH2 0x18A DUP2 PUSH2 0x917 JUMP JUMPDEST DUP2 DUP2 MSTORE PUSH1 0x40 MLOAD PUSH1 0x20 DUP2 ADD DUP2 DUP2 LT PUSH1 0x1 PUSH1 0x1 PUSH1 0x40 SHL SUB DUP3 GT OR PUSH2 0x4B9 JUMPI PUSH1 0x40 MSTORE PUSH1 0x0 DUP2 MSTORE PUSH1 0x20 DUP3 ADD MSTORE PUSH2 0x1C1 PUSH1 0x24 CALLDATALOAD PUSH1 0x40 DUP4 ADD PUSH2 0xB35 JUMP JUMPDEST TIMESTAMP PUSH1 0x60 DUP3 ADD MSTORE DUP3 PUSH1 0x80 DUP3 ADD MSTORE PUSH1 0x1 PUSH1 0xA0 DUP3 ADD MSTORE PUSH1 0x40 MLOAD PUSH1 0x20 DUP2 DUP5 MLOAD PUSH2 0x1E9 DUP2 DUP4 DUP6 DUP10 ADD PUSH2 0x9A9 JUMP JUMPDEST DUP2 ADD PUSH1 0x0 DUP2 MSTORE SUB ADD SWAP1 KECCAK256 DUP2 MLOAD DUP1 MLOAD SWAP1 PUSH1 0x1 PUSH1 0x1 PUSH1 0x40 SHL SUB DUP3 GT PUSH2 0x4B9 JUMPI DUP2 SWAP1 PUSH2 0x212 DUP5 SLOAD PUSH2 0x9CC JUMP JUMPDEST PUSH1 0x1F DUP2 GT PUSH2 0x62C JUMPI JUMPDEST POP PUSH1 0x20 SWAP1 PUSH1 0x1F DUP4 GT PUSH1 0x1 EQ PUSH2 0x5C0 JUMPI PUSH1 0x0 SWAP3 PUSH2 0x5B5 JUMPI JUMPDEST POP POP DUP2 PUSH1 0x1 SHL SWAP2 PUSH1 0x0 NOT SWAP1 PUSH1 0x3 SHL SHR NOT AND OR DUP2 SSTORE JUMPDEST PUSH1 0x20 DUP3 ADD MLOAD DUP1 MLOAD SWAP1 PUSH1 0x1 PUSH1 0x1 PUSH1 0x40 SHL SUB DUP3 GT PUSH2 0x4B9 JUMPI DUP2 SWAP1 PUSH2 0x26C PUSH1 0x1 DUP6 ADD SLOAD PUSH2 0x9CC JUMP JUMPDEST PUSH1 0x1F DUP2 GT PUSH2 0x562 JUMPI JUMPDEST POP PUSH1 0x20 SWAP1 PUSH1 0x1F DUP4 GT PUSH1 0x1 EQ PUSH2 0x4F0 JUMPI PUSH1 0x0 SWAP3 PUSH2 0x4E5 JUMPI JUMPDEST POP POP DUP2 PUSH1 0x1 SHL SWAP2 PUSH1 0x0 NOT SWAP1 PUSH1 0x3 SHL SHR NOT AND OR PUSH1 0x1 DUP3 ADD SSTORE JUMPDEST PUSH1 0x2 DUP2 ADD PUSH1 0x40 DUP4 ADD MLOAD PUSH1 0x4 DUP2 LT ISZERO PUSH2 0x4CF JUMPI PUSH1 0xFF DUP1 NOT DUP4 SLOAD AND SWAP2 AND OR SWAP1 SSTORE PUSH1 0x60 DUP3 ADD MLOAD PUSH1 0x3 DUP3 ADD SSTORE PUSH1 0x80 DUP3 ADD MLOAD DUP1 MLOAD SWAP1 PUSH1 0x1 PUSH1 0x1 PUSH1 0x40 SHL SUB DUP3 GT PUSH2 0x4B9 JUMPI PUSH2 0x2EF PUSH1 0x4 DUP5 ADD SLOAD PUSH2 0x9CC JUMP JUMPDEST PUSH1 0x1F DUP2 GT PUSH2 0x472 JUMPI JUMPDEST POP PUSH1 0x20 SWAP1 PUSH1 0x1F DUP4 GT PUSH1 0x1 EQ PUSH2 0x3D4 JUMPI PUSH1 0x5 PUSH2 0x39A SWAP5 DUP5 PUSH32 0x87BDC31B1BCEC98E3BCC912354B27EB9F24FB60E3C33A4995A4DC319640A452B SWAP9 SWAP6 PUSH2 0x3BE SWAP9 SWAP6 PUSH1 0xA0 SWAP6 PUSH1 0x0 SWAP3 PUSH2 0x3C9 JUMPI JUMPDEST POP POP DUP2 PUSH1 0x1 SHL SWAP2 PUSH1 0x0 NOT SWAP1 PUSH1 0x3 SHL SHR NOT AND OR PUSH1 0x4 DUP3 ADD SSTORE JUMPDEST ADD SWAP2 ADD MLOAD ISZERO ISZERO PUSH1 0xFF DUP1 NOT DUP4 SLOAD AND SWAP2 AND OR SWAP1 SSTORE PUSH1 0x40 MLOAD PUSH1 0x20 DUP2 DUP4 MLOAD PUSH2 0x380 DUP2 DUP4 DUP6 DUP9 ADD PUSH2 0x9A9 JUMP JUMPDEST DUP2 ADD PUSH1 0x1 DUP2 MSTORE SUB ADD SWAP1 KECCAK256 PUSH1 0x1 PUSH1 0xFF NOT DUP3 SLOAD AND OR SWAP1 SSTORE PUSH2 0xB41 JUMP JUMPDEST SWAP3 PUSH1 0x40 MLOAD SWAP2 DUP3 SWAP2 PUSH2 0x3AD DUP4 PUSH1 0x24 CALLDATALOAD PUSH2 0xAD0 JUMP JUMPDEST PUSH1 0x60 PUSH1 0x20 DUP5 ADD MSTORE PUSH1 0x60 DUP4 ADD SWAP1 PUSH2 0xAAB JUMP JUMPDEST TIMESTAMP PUSH1 0x40 DUP4 ADD MSTORE SUB SWAP1 LOG2 STOP JUMPDEST ADD MLOAD SWAP1 POP DUP12 DUP1 PUSH2 0x341 JUMP JUMPDEST SWAP1 PUSH1 0x4 DUP5 ADD PUSH1 0x0 MSTORE PUSH1 0x20 PUSH1 0x0 KECCAK256 SWAP2 PUSH1 0x0 JUMPDEST PUSH1 0x1F NOT DUP6 AND DUP2 LT PUSH2 0x45A JUMPI POP PUSH2 0x39A SWAP5 PUSH1 0x1 DUP6 PUSH2 0x3BE SWAP9 SWAP6 PUSH1 0xA0 SWAP6 PUSH1 0x5 SWAP6 PUSH32 0x87BDC31B1BCEC98E3BCC912354B27EB9F24FB60E3C33A4995A4DC319640A452B SWAP13 SWAP10 PUSH1 0x1F NOT DUP2 AND LT PUSH2 0x441 JUMPI JUMPDEST POP POP POP DUP2 SHL ADD PUSH1 0x4 DUP3 ADD SSTORE PUSH2 0x359 JUMP JUMPDEST ADD MLOAD PUSH1 0x0 NOT PUSH1 0xF8 DUP5 PUSH1 0x3 SHL AND SHR NOT AND SWAP1 SSTORE DUP12 DUP1 DUP1 PUSH2 0x431 JUMP JUMPDEST SWAP2 SWAP3 PUSH1 0x20 PUSH1 0x1 DUP2 SWAP3 DUP7 DUP6 ADD MLOAD DUP2 SSTORE ADD SWAP5 ADD SWAP3 ADD PUSH2 0x3E5 JUMP JUMPDEST PUSH1 0x4 DUP5 ADD PUSH1 0x0 MSTORE PUSH1 0x20 PUSH1 0x0 KECCAK256 PUSH1 0x1F DUP5 ADD PUSH1 0x5 SHR DUP2 ADD PUSH1 0x20 DUP6 LT PUSH2 0x4B2 JUMPI JUMPDEST PUSH1 0x1F DUP4 ADD PUSH1 0x5 SHR DUP3 ADD DUP2 LT PUSH2 0x4A6 JUMPI POP POP PUSH2 0x2F8 JUMP JUMPDEST PUSH1 0x0 DUP2 SSTORE PUSH1 0x1 ADD PUSH2 0x490 JUMP JUMPDEST POP DUP1 PUSH2 0x490 JUMP JUMPDEST PUSH4 0x4E487B71 PUSH1 0xE0 SHL PUSH1 0x0 MSTORE PUSH1 0x41 PUSH1 0x4 MSTORE PUSH1 0x24 PUSH1 0x0 REVERT JUMPDEST PUSH4 0x4E487B71 PUSH1 0xE0 SHL PUSH1 0x0 MSTORE PUSH1 0x21 PUSH1 0x4 MSTORE PUSH1 0x24 PUSH1 0x0 REVERT JUMPDEST ADD MLOAD SWAP1 POP DUP7 DUP1 PUSH2 0x28C JUMP JUMPDEST SWAP3 POP PUSH1 0x1 DUP5 ADD PUSH1 0x0 MSTORE PUSH1 0x20 PUSH1 0x0 KECCAK256 SWAP1 PUSH1 0x0 SWAP4 JUMPDEST PUSH1 0x1F NOT DUP5 AND DUP6 LT PUSH2 0x547 JUMPI PUSH1 0x1 SWAP5 POP DUP4 PUSH1 0x1F NOT DUP2 AND LT PUSH2 0x52E JUMPI JUMPDEST POP POP POP DUP2 SHL ADD PUSH1 0x1 DUP3 ADD SSTORE PUSH2 0x2A4 JUMP JUMPDEST ADD MLOAD PUSH1 0x0 NOT PUSH1 0xF8 DUP5 PUSH1 0x3 SHL AND SHR NOT AND SWAP1 SSTORE DUP7 DUP1 DUP1 PUSH2 0x51E JUMP JUMPDEST DUP2 DUP2 ADD MLOAD DUP4 SSTORE PUSH1 0x20 SWAP5 DUP6 ADD SWAP5 PUSH1 0x1 SWAP1 SWAP4 ADD SWAP3 SWAP1 SWAP2 ADD SWAP1 PUSH2 0x503 JUMP JUMPDEST SWAP1 SWAP2 POP PUSH1 0x1 DUP5 ADD PUSH1 0x0 MSTORE PUSH1 0x20 PUSH1 0x0 KECCAK256 PUSH1 0x1F DUP5 ADD PUSH1 0x5 SHR DUP2 ADD PUSH1 0x20 DUP6 LT PUSH2 0x5AE JUMPI JUMPDEST SWAP1 DUP5 SWAP4 SWAP3 SWAP2 JUMPDEST PUSH1 0x1F DUP4 ADD PUSH1 0x5 SHR DUP3 ADD DUP2 LT PUSH2 0x59F JUMPI POP POP PUSH2 0x275 JUMP JUMPDEST PUSH1 0x0 DUP2 SSTORE DUP6 SWAP5 POP PUSH1 0x1 ADD PUSH2 0x589 JUMP JUMPDEST POP DUP1 PUSH2 0x583 JUMP JUMPDEST ADD MLOAD SWAP1 POP DUP7 DUP1 PUSH2 0x232 JUMP JUMPDEST SWAP3 POP DUP4 PUSH1 0x0 MSTORE PUSH1 0x20 PUSH1 0x0 KECCAK256 SWAP1 PUSH1 0x0 SWAP4 JUMPDEST PUSH1 0x1F NOT DUP5 AND DUP6 LT PUSH2 0x611 JUMPI PUSH1 0x1 SWAP5 POP DUP4 PUSH1 0x1F NOT DUP2 AND LT PUSH2 0x5F8 JUMPI JUMPDEST POP POP POP DUP2 SHL ADD DUP2 SSTORE PUSH2 0x247 JUMP JUMPDEST ADD MLOAD PUSH1 0x0 NOT PUSH1 0xF8 DUP5 PUSH1 0x3 SHL AND SHR NOT AND SWAP1 SSTORE DUP7 DUP1 DUP1 PUSH2 0x5EB JUMP JUMPDEST DUP2 DUP2 ADD MLOAD DUP4 SSTORE PUSH1 0x20 SWAP5 DUP6 ADD SWAP5 PUSH1 0x1 SWAP1 SWAP4 ADD SWAP3 SWAP1 SWAP2 ADD SWAP1 PUSH2 0x5D0 JUMP JUMPDEST SWAP1 SWAP2 POP DUP4 PUSH1 0x0 MSTORE PUSH1 0x20 PUSH1 0x0 KECCAK256 PUSH1 0x1F DUP5 ADD PUSH1 0x5 SHR DUP2 ADD PUSH1 0x20 DUP6 LT PUSH2 0x675 JUMPI JUMPDEST SWAP1 DUP5 SWAP4 SWAP3 SWAP2 JUMPDEST PUSH1 0x1F DUP4 ADD PUSH1 0x5 SHR DUP3 ADD DUP2 LT PUSH2 0x666 JUMPI POP POP PUSH2 0x21B JUMP JUMPDEST PUSH1 0x0 DUP2 SSTORE DUP6 SWAP5 POP PUSH1 0x1 ADD PUSH2 0x650 JUMP JUMPDEST POP DUP1 PUSH2 0x64A JUMP JUMPDEST PUSH1 0x40 MLOAD PUSH3 0x461BCD PUSH1 0xE5 SHL DUP2 MSTORE PUSH1 0x20 PUSH1 0x4 DUP3 ADD MSTORE PUSH1 0x12 PUSH1 0x24 DUP3 ADD MSTORE PUSH18 0x49502063616E6E6F7420626520656D707479 PUSH1 0x70 SHL PUSH1 0x44 DUP3 ADD MSTORE PUSH1 0x64 SWAP1 REVERT JUMPDEST CALLVALUE PUSH2 0x117 JUMPI PUSH1 0x20 CALLDATASIZE PUSH1 0x3 NOT ADD SLT PUSH2 0x117 JUMPI PUSH1 0x4 CALLDATALOAD PUSH1 0x1 PUSH1 0x1 PUSH1 0x40 SHL SUB DUP2 GT PUSH2 0x117 JUMPI PUSH1 0x20 PUSH2 0x6EB PUSH2 0x6FE SWAP3 CALLDATASIZE SWAP1 PUSH1 0x4 ADD PUSH2 0x953 JUMP JUMPDEST DUP2 PUSH1 0x40 MLOAD SWAP4 DUP3 DUP6 DUP1 SWAP5 MLOAD SWAP4 DUP5 SWAP3 ADD PUSH2 0x9A9 JUMP JUMPDEST DUP2 ADD PUSH1 0x0 DUP2 MSTORE SUB ADD SWAP1 KECCAK256 PUSH1 0x40 MLOAD PUSH2 0x714 DUP2 PUSH2 0x917 JUMP JUMPDEST PUSH2 0x71D DUP3 PUSH2 0xA06 JUMP JUMPDEST DUP2 MSTORE PUSH2 0x72B PUSH1 0x1 DUP4 ADD PUSH2 0xA06 JUMP JUMPDEST SWAP1 PUSH1 0x20 DUP2 ADD SWAP2 DUP3 MSTORE PUSH1 0xFF PUSH1 0x2 DUP5 ADD SLOAD AND SWAP3 PUSH2 0x74A PUSH1 0x40 DUP4 ADD SWAP5 DUP6 PUSH2 0xB35 JUMP JUMPDEST PUSH1 0x3 DUP2 ADD SLOAD SWAP2 PUSH1 0x60 DUP2 ADD SWAP3 DUP4 MSTORE PUSH1 0xFF PUSH1 0x5 PUSH2 0x767 PUSH1 0x4 DUP6 ADD PUSH2 0xA06 JUMP JUMPDEST SWAP4 PUSH1 0x80 DUP5 ADD SWAP5 DUP6 MSTORE ADD SLOAD AND SWAP1 PUSH1 0xA0 DUP2 ADD SWAP2 ISZERO ISZERO DUP3 MSTORE MLOAD SWAP4 MLOAD SWAP5 MLOAD SWAP2 PUSH1 0x4 DUP4 LT ISZERO PUSH2 0x4CF JUMPI PUSH2 0x7A3 SWAP4 MLOAD SWAP1 MLOAD SWAP2 MLOAD ISZERO ISZERO SWAP3 PUSH1 0x40 MLOAD SWAP7 DUP8 SWAP7 DUP8 PUSH2 0xADD JUMP JUMPDEST SUB SWAP1 RETURN JUMPDEST CALLVALUE PUSH2 0x117 JUMPI PUSH1 0x20 CALLDATASIZE PUSH1 0x3 NOT ADD SLT PUSH2 0x117 JUMPI PUSH1 0x4 CALLDATALOAD PUSH1 0x1 PUSH1 0x1 PUSH1 0x40 SHL SUB DUP2 GT PUSH2 0x117 JUMPI PUSH1 0xFF PUSH2 0x7DF PUSH1 0x20 PUSH2 0x6EB DUP2 SWAP5 CALLDATASIZE SWAP1 PUSH1 0x4 ADD PUSH2 0x953 JUMP JUMPDEST DUP2 ADD PUSH1 0x1 DUP2 MSTORE SUB ADD SWAP1 KECCAK256 SLOAD AND PUSH1 0x40 MLOAD SWAP1 ISZERO ISZERO DUP2 MSTORE RETURN JUMPDEST CALLVALUE PUSH2 0x117 JUMPI PUSH1 0x20 CALLDATASIZE PUSH1 0x3 NOT ADD SLT PUSH2 0x117 JUMPI PUSH1 0x4 CALLDATALOAD PUSH1 0x1 PUSH1 0x1 PUSH1 0x40 SHL SUB DUP2 GT PUSH2 0x117 JUMPI PUSH2 0x827 PUSH1 0x20 SWAP2 CALLDATASIZE SWAP1 PUSH1 0x4 ADD PUSH2 0x953 JUMP JUMPDEST PUSH1 0x40 MLOAD PUSH1 0xFF DUP3 MLOAD SWAP2 DUP5 DUP2 DUP2 DUP7 ADD SWAP5 PUSH2 0x840 DUP2 DUP4 DUP9 PUSH2 0x9A9 JUMP JUMPDEST DUP2 ADD PUSH1 0x1 DUP2 MSTORE SUB ADD SWAP1 KECCAK256 SLOAD AND SWAP2 DUP3 PUSH2 0x85F JUMPI JUMPDEST POP POP PUSH1 0x40 MLOAD SWAP1 ISZERO ISZERO DUP2 MSTORE RETURN JUMPDEST PUSH1 0xFF SWAP3 POP DUP4 PUSH1 0x5 SWAP3 PUSH2 0x87C SWAP3 PUSH1 0x40 MLOAD SWAP4 DUP5 SWAP3 DUP4 SWAP3 MLOAD SWAP3 DUP4 SWAP2 PUSH2 0x9A9 JUMP JUMPDEST DUP2 ADD PUSH1 0x0 DUP2 MSTORE SUB ADD SWAP1 KECCAK256 ADD SLOAD AND DUP3 DUP1 PUSH2 0x853 JUMP JUMPDEST CALLVALUE PUSH2 0x117 JUMPI PUSH1 0x20 CALLDATASIZE PUSH1 0x3 NOT ADD SLT PUSH2 0x117 JUMPI PUSH1 0x4 CALLDATALOAD PUSH1 0x1 PUSH1 0x1 PUSH1 0x40 SHL SUB DUP2 GT PUSH2 0x117 JUMPI PUSH1 0x20 PUSH2 0x6EB PUSH2 0x8C5 SWAP3 CALLDATASIZE SWAP1 PUSH1 0x4 ADD PUSH2 0x953 JUMP JUMPDEST DUP2 ADD PUSH1 0x0 DUP2 MSTORE SUB ADD SWAP1 KECCAK256 PUSH2 0x8D8 DUP2 PUSH2 0xA06 JUMP JUMPDEST PUSH2 0x7A3 PUSH2 0x8E7 PUSH1 0x1 DUP5 ADD PUSH2 0xA06 JUMP JUMPDEST SWAP3 PUSH1 0xFF PUSH1 0x2 DUP3 ADD SLOAD AND SWAP1 PUSH1 0x3 DUP2 ADD SLOAD PUSH1 0xFF PUSH1 0x5 PUSH2 0x906 PUSH1 0x4 DUP6 ADD PUSH2 0xA06 JUMP JUMPDEST SWAP4 ADD SLOAD AND SWAP3 PUSH1 0x40 MLOAD SWAP7 DUP8 SWAP7 DUP8 PUSH2 0xADD JUMP JUMPDEST PUSH1 0xC0 DUP2 ADD SWAP1 DUP2 LT PUSH1 0x1 PUSH1 0x1 PUSH1 0x40 SHL SUB DUP3 GT OR PUSH2 0x4B9 JUMPI PUSH1 0x40 MSTORE JUMP JUMPDEST SWAP1 PUSH1 0x1F DUP1 NOT SWAP2 ADD AND DUP2 ADD SWAP1 DUP2 LT PUSH1 0x1 PUSH1 0x1 PUSH1 0x40 SHL SUB DUP3 GT OR PUSH2 0x4B9 JUMPI PUSH1 0x40 MSTORE JUMP JUMPDEST DUP2 PUSH1 0x1F DUP3 ADD SLT ISZERO PUSH2 0x117 JUMPI DUP1 CALLDATALOAD SWAP1 PUSH1 0x1 PUSH1 0x1 PUSH1 0x40 SHL SUB DUP3 GT PUSH2 0x4B9 JUMPI PUSH1 0x40 MLOAD SWAP3 PUSH2 0x987 PUSH1 0x1F DUP5 ADD PUSH1 0x1F NOT AND PUSH1 0x20 ADD DUP6 PUSH2 0x932 JUMP JUMPDEST DUP3 DUP5 MSTORE PUSH1 0x20 DUP4 DUP4 ADD ADD GT PUSH2 0x117 JUMPI DUP2 PUSH1 0x0 SWAP3 PUSH1 0x20 DUP1 SWAP4 ADD DUP4 DUP7 ADD CALLDATACOPY DUP4 ADD ADD MSTORE SWAP1 JUMP JUMPDEST PUSH1 0x0 JUMPDEST DUP4 DUP2 LT PUSH2 0x9BC JUMPI POP POP PUSH1 0x0 SWAP2 ADD MSTORE JUMP JUMPDEST DUP2 DUP2 ADD MLOAD DUP4 DUP3 ADD MSTORE PUSH1 0x20 ADD PUSH2 0x9AC JUMP JUMPDEST SWAP1 PUSH1 0x1 DUP3 DUP2 SHR SWAP3 AND DUP1 ISZERO PUSH2 0x9FC JUMPI JUMPDEST PUSH1 0x20 DUP4 LT EQ PUSH2 0x9E6 JUMPI JUMP JUMPDEST PUSH4 0x4E487B71 PUSH1 0xE0 SHL PUSH1 0x0 MSTORE PUSH1 0x22 PUSH1 0x4 MSTORE PUSH1 0x24 PUSH1 0x0 REVERT JUMPDEST SWAP2 PUSH1 0x7F AND SWAP2 PUSH2 0x9DB JUMP JUMPDEST SWAP1 PUSH1 0x40 MLOAD SWAP2 DUP3 PUSH1 0x0 DUP3 SLOAD PUSH2 0xA19 DUP2 PUSH2 0x9CC JUMP JUMPDEST SWAP1 DUP2 DUP5 MSTORE PUSH1 0x20 SWAP5 PUSH1 0x1 SWAP2 PUSH1 0x1 DUP2 AND SWAP1 DUP2 PUSH1 0x0 EQ PUSH2 0xA89 JUMPI POP PUSH1 0x1 EQ PUSH2 0xA4A JUMPI JUMPDEST POP POP POP PUSH2 0xA48 SWAP3 POP SUB DUP4 PUSH2 0x932 JUMP JUMPDEST JUMP JUMPDEST PUSH1 0x0 SWAP1 DUP2 MSTORE DUP6 DUP2 KECCAK256 SWAP6 SWAP4 POP SWAP2 SWAP1 JUMPDEST DUP2 DUP4 LT PUSH2 0xA71 JUMPI POP POP PUSH2 0xA48 SWAP4 POP DUP3 ADD ADD CODESIZE DUP1 DUP1 PUSH2 0xA39 JUMP JUMPDEST DUP6 SLOAD DUP9 DUP5 ADD DUP6 ADD MSTORE SWAP5 DUP6 ADD SWAP5 DUP8 SWAP5 POP SWAP2 DUP4 ADD SWAP2 PUSH2 0xA58 JUMP JUMPDEST SWAP3 POP POP POP PUSH2 0xA48 SWAP5 SWAP3 POP PUSH1 0xFF NOT AND DUP3 DUP5 ADD MSTORE ISZERO ISZERO PUSH1 0x5 SHL DUP3 ADD ADD CODESIZE DUP1 DUP1 PUSH2 0xA39 JUMP JUMPDEST SWAP1 PUSH1 0x20 SWAP2 PUSH2 0xAC4 DUP2 MLOAD DUP1 SWAP3 DUP2 DUP6 MSTORE DUP6 DUP1 DUP7 ADD SWAP2 ADD PUSH2 0x9A9 JUMP JUMPDEST PUSH1 0x1F ADD PUSH1 0x1F NOT AND ADD ADD SWAP1 JUMP JUMPDEST SWAP1 PUSH1 0x4 DUP3 LT ISZERO PUSH2 0x4CF JUMPI MSTORE JUMP JUMPDEST SWAP5 SWAP1 SWAP4 PUSH2 0xB1B PUSH2 0xB10 PUSH2 0xB2D SWAP6 SWAP5 PUSH2 0xB02 PUSH1 0xA0 SWAP9 SWAP12 SWAP11 SWAP12 PUSH1 0xC0 DUP12 MSTORE PUSH1 0xC0 DUP12 ADD SWAP1 PUSH2 0xAAB JUMP JUMPDEST SWAP1 DUP10 DUP3 SUB PUSH1 0x20 DUP12 ADD MSTORE PUSH2 0xAAB JUMP JUMPDEST SWAP4 PUSH1 0x40 DUP9 ADD SWAP1 PUSH2 0xAD0 JUMP JUMPDEST PUSH1 0x60 DUP7 ADD MSTORE DUP5 DUP3 SUB PUSH1 0x80 DUP7 ADD MSTORE PUSH2 0xAAB JUMP JUMPDEST SWAP4 ISZERO ISZERO SWAP2 ADD MSTORE JUMP JUMPDEST PUSH1 0x4 DUP3 LT ISZERO PUSH2 0x4CF JUMPI MSTORE JUMP JUMPDEST PUSH2 0xB59 SWAP1 PUSH1 0x20 PUSH1 0x40 MLOAD SWAP3 DUP3 DUP5 DUP1 SWAP5 MLOAD SWAP4 DUP5 SWAP3 ADD PUSH2 0x9A9 JUMP JUMPDEST DUP2 ADD SUB SWAP1 KECCAK256 SWAP1 JUMP INVALID LOG1 PUSH5 0x736F6C6343 STOP ADDMOD XOR STOP EXP "},"methodIdentifiers":{"addThreatIntel(string,uint8,string)":"b64a71e3","getThreatIntel(string)":"9d55cb29","isThreatIP(string)":"2ec920c9","isThreatSource(string)":"2a592cff","removeThreatIntel(string)":"bd1cbfd5","threatIntels(string)":"149cdd99"}}}}}