{"contracts/SimpleSecurityActionContract.sol":{"SimpleSecurityActionContract":{"abi":[{"inputs":[{"internalType":"address","name":"_governanceContract","type":"address"}],"stateMutability":"nonpayable","type":"constructor"},{"inputs":[{"internalType":"address","name":"owner","type":"address"}],"name":"OwnableInvalidOwner","type":"error"},{"inputs":[{"internalType":"address","name":"account","type":"address"}],"name":"OwnableUnauthorizedAccount","type":"error"},{"inputs":[],"name":"ReentrancyGuardReentrantCall","type":"error"},{"anonymous":false,"inputs":[{"indexed":true,"internalType":"string","name":"domain","type":"string"},{"indexed":false,"internalType":"address","name":"executor","type":"address"},{"indexed":false,"internalType":"uint256","name":"timestamp","type":"uint256"}],"name":"DomainBlocked","type":"event"},{"anonymous":false,"inputs":[{"indexed":true,"internalType":"string","name":"domain","type":"string"},{"indexed":false,"internalType":"address","name":"executor","type":"address"},{"indexed":false,"internalType":"uint256","name":"timestamp","type":"uint256"}],"name":"DomainUnblocked","type":"event"},{"anonymous":false,"inputs":[{"indexed":false,"internalType":"address","name":"oldGovernance","type":"address"},{"indexed":false,"internalType":"address","name":"newGovernance","type":"address"}],"name":"GovernanceContractUpdated","type":"event"},{"anonymous":false,"inputs":[{"indexed":true,"internalType":"string","name":"ip","type":"string"},{"indexed":false,"internalType":"address","name":"executor","type":"address"},{"indexed":false,"internalType":"uint256","name":"timestamp","type":"uint256"}],"name":"IPBlocked","type":"event"},{"anonymous":false,"inputs":[{"indexed":true,"internalType":"string","name":"ip","type":"string"},{"indexed":false,"internalType":"address","name":"executor","type":"address"},{"indexed":false,"internalType":"uint256","name":"timestamp","type":"uint256"}],"name":"IPUnblocked","type":"event"},{"anonymous":false,"inputs":[{"indexed":true,"internalType":"address","name":"previousOwner","type":"address"},{"indexed":true,"internalType":"address","name":"newOwner","type":"address"}],"name":"OwnershipTransferred","type":"event"},{"inputs":[{"internalType":"string","name":"_domain","type":"string"}],"name":"blockDomain","outputs":[],"stateMutability":"nonpayable","type":"function"},{"inputs":[{"internalType":"string","name":"_ip","type":"string"}],"name":"blockIP","outputs":[],"stateMutability":"nonpayable","type":"function"},{"inputs":[{"internalType":"string","name":"","type":"string"}],"name":"domainBlocked","outputs":[{"internalType":"bool","name":"","type":"bool"}],"stateMutability":"view","type":"function"},{"inputs":[],"name":"governanceContract","outputs":[{"internalType":"address","name":"","type":"address"}],"stateMutability":"view","type":"function"},{"inputs":[{"internalType":"string","name":"","type":"string"}],"name":"ipBlocked","outputs":[{"internalType":"bool","name":"","type":"bool"}],"stateMutability":"view","type":"function"},{"inputs":[{"internalType":"string","name":"_domain","type":"string"}],"name":"isDomainBlocked","outputs":[{"internalType":"bool","name":"","type":"bool"}],"stateMutability":"view","type":"function"},{"inputs":[{"internalType":"string","name":"_ip","type":"string"}],"name":"isIPBlocked","outputs":[{"internalType":"bool","name":"","type":"bool"}],"stateMutability":"view","type":"function"},{"inputs":[],"name":"owner","outputs":[{"internalType":"address","name":"","type":"address"}],"stateMutability":"view","type":"function"},{"inputs":[],"name":"renounceOwnership","outputs":[],"stateMutability":"nonpayable","type":"function"},{"inputs":[{"internalType":"address","name":"newOwner","type":"address"}],"name":"transferOwnership","outputs":[],"stateMutability":"nonpayable","type":"function"},{"inputs":[{"internalType":"string","name":"_domain","type":"string"}],"name":"unblockDomain","outputs":[],"stateMutability":"nonpayable","type":"function"},{"inputs":[{"internalType":"string","name":"_ip","type":"string"}],"name":"unblockIP","outputs":[],"stateMutability":"nonpayable","type":"function"},{"inputs":[{"internalType":"address","name":"_newGovernanceContract","type":"address"}],"name":"updateGovernanceContract","outputs":[],"stateMutability":"nonpayable","type":"function"}],"evm":{"bytecode":{"linkReferences":{},"object":"6080346100da57601f61091d38819003918201601f19168301916001600160401b038311848410176100df578084926020946040528339810103126100da57516001600160a01b03808216908183036100da5733156100c1576000549260018060a01b031992338486161760005560405194833391167f8be0079c531659141344cd1fd0a4f28419497f9722a3daafe3b4186f6b6457e0600080a360018055156100ba575b1690600454161760045561082790816100f68239f35b50336100a4565b604051631e4fbdf760e01b815260006004820152602490fd5b600080fd5b634e487b7160e01b600052604160045260246000fdfe60406080815260048036101561001457600080fd5b600091823560e01c80633134c0f61461041857806367ea2f5c146104535780636faf60a0146105cc578063715018a61461056f5780638da5cb5b146105475780639a5910d81461047f5780639c8df9ee14610453578063a86541c214610418578063af25d8511461034c578063b172b22214610324578063bdc97ffe14610243578063cc19a7f81461013f5763f2fde38b146100af57600080fd5b3461013b57602036600319011261013b576001600160a01b03823581811693919290849003610137576100e06107cb565b831561012157505082546001600160a01b0319811683178455167f8be0079c531659141344cd1fd0a4f28419497f9722a3daafe3b4186f6b6457e08380a380f35b51631e4fbdf760e01b8152908101849052602490fd5b8480fd5b8280fd5b50903461013b5761014f366106ad565b9061016e60018060a01b03808354163314908115610236575b50610770565b6101766107f7565b60ff83516020816101878187610745565b60028152030190205416156101ff57506101e67f3a9c6ad3cf1251080bae89e2df88f737a61c86cebc98159a00ae1f697a70e8539183516020816101cb8185610745565b600281520301902060ff198154169055835191828092610745565b0390209151338152426020820152604090a26001805580f35b606490602084519162461bcd60e51b835282015260116024820152701254081a5cc81b9bdd08189b1bd8dad959607a1b6044820152fd5b9050855416331438610168565b50903461013b57610253366106ad565b9061027160018060a01b038083541633149081156102365750610770565b6102796107f7565b60ff835160208161028a8187610745565b60038152030190205416156102e957506101e67feb3b2d6524360a3cec92b47d0c021f4701895ebc5a13a7841e544416cb14ddad9183516020816102ce8185610745565b600381520301902060ff198154169055835191828092610745565b606490602084519162461bcd60e51b83528201526015602482015274111bdb585a5b881a5cc81b9bdd08189b1bd8dad959605a1b6044820152fd5b50903461013b578260031936011261013b575490516001600160a01b03909116815260209150f35b50903461013b5761035c366106ad565b9061037a60018060a01b038083541633149081156102365750610770565b6103826107f7565b8151156103dc57506101e67f5cf440f3e90a7f05f0863c70777b810007ed2bc1e8e28068adb06afe1ee985959183516020816103be8185610745565b6003815203019020600160ff19825416179055835191828092610745565b606490602084519162461bcd60e51b83528201526016602482015275446f6d61696e2063616e6e6f7420626520656d70747960501b6044820152fd5b83823461044f5760209060ff61043c83610431366106ad565b845192838092610745565b6003815203019020541690519015158152f35b5080fd5b83823461044f5760209060ff61046c83610431366106ad565b6002815203019020541690519015158152f35b50903461013b5761048f366106ad565b906104ad60018060a01b038083541633149081156102365750610770565b6104b56107f7565b81511561050f57506101e67f63212388728c1be1255e63e773d8ecd037e8fb76623c1986f34fab5f629bbcb99183516020816104f18185610745565b6002815203019020600160ff19825416179055835191828092610745565b606490602084519162461bcd60e51b8352820152601260248201527149502063616e6e6f7420626520656d70747960701b6044820152fd5b83823461044f578160031936011261044f57905490516001600160a01b039091168152602090f35b83346105c957806003193601126105c9576105886107cb565b80546001600160a01b03198116825581906001600160a01b03167f8be0079c531659141344cd1fd0a4f28419497f9722a3daafe3b4186f6b6457e08280a380f35b80fd5b5082903461044f57602036600319011261044f576001600160a01b03928035848116908190036106a9576105fe6107cb565b801561064f577f2bb6fa423908148a692d1326edeb12cf0436abf468ce271a4be85c722b3277489394825492826bffffffffffffffffffffffff60a01b85161790558351921682526020820152a180f35b506020608492519162461bcd60e51b8352820152602e60248201527f4e657720676f7665726e616e636520636f6e74726163742063616e6e6f74206260448201526d65207a65726f206164647265737360901b6064820152fd5b8380fd5b602060031982011261072a5767ffffffffffffffff9060043582811161072a578160238201121561072a5780600401359183831161072f5760405193601f8401601f19908116603f011685019081118582101761072f576040528284526024838301011161072a5781600092602460209301838601378301015290565b600080fd5b634e487b7160e01b600052604160045260246000fd5b9081519160005b83811061075d575050016000815290565b806020809284010151818501520161074c565b1561077757565b60405162461bcd60e51b815260206004820152602660248201527f4f6e6c7920617574686f72697a65642063616e2063616c6c20746869732066756044820152653731ba34b7b760d11b6064820152608490fd5b6000546001600160a01b031633036107df57565b60405163118cdaa760e01b8152336004820152602490fd5b600260015414610808576002600155565b604051633ee5aeb560e01b8152600490fdfea164736f6c6343000818000a","opcodes":"PUSH1 0x80 CALLVALUE PUSH2 0xDA JUMPI PUSH1 0x1F PUSH2 0x91D CODESIZE DUP2 SWAP1 SUB SWAP2 DUP3 ADD PUSH1 0x1F NOT AND DUP4 ADD SWAP2 PUSH1 0x1 PUSH1 0x1 PUSH1 0x40 SHL SUB DUP4 GT DUP5 DUP5 LT OR PUSH2 0xDF JUMPI DUP1 DUP5 SWAP3 PUSH1 0x20 SWAP5 PUSH1 0x40 MSTORE DUP4 CODECOPY DUP2 ADD SUB SLT PUSH2 0xDA JUMPI MLOAD PUSH1 0x1 PUSH1 0x1 PUSH1 0xA0 SHL SUB DUP1 DUP3 AND SWAP1 DUP2 DUP4 SUB PUSH2 0xDA JUMPI CALLER ISZERO PUSH2 0xC1 JUMPI PUSH1 0x0 SLOAD SWAP3 PUSH1 0x1 DUP1 PUSH1 0xA0 SHL SUB NOT SWAP3 CALLER DUP5 DUP7 AND OR PUSH1 0x0 SSTORE PUSH1 0x40 MLOAD SWAP5 DUP4 CALLER SWAP2 AND PUSH32 0x8BE0079C531659141344CD1FD0A4F28419497F9722A3DAAFE3B4186F6B6457E0 PUSH1 0x0 DUP1 LOG3 PUSH1 0x1 DUP1 SSTORE ISZERO PUSH2 0xBA JUMPI JUMPDEST AND SWAP1 PUSH1 0x4 SLOAD AND OR PUSH1 0x4 SSTORE PUSH2 0x827 SWAP1 DUP2 PUSH2 0xF6 DUP3 CODECOPY RETURN JUMPDEST POP CALLER PUSH2 0xA4 JUMP JUMPDEST PUSH1 0x40 MLOAD PUSH4 0x1E4FBDF7 PUSH1 0xE0 SHL DUP2 MSTORE PUSH1 0x0 PUSH1 0x4 DUP3 ADD MSTORE PUSH1 0x24 SWAP1 REVERT JUMPDEST PUSH1 0x0 DUP1 REVERT JUMPDEST PUSH4 0x4E487B71 PUSH1 0xE0 SHL PUSH1 0x0 MSTORE PUSH1 0x41 PUSH1 0x4 MSTORE PUSH1 0x24 PUSH1 0x0 REVERT INVALID PUSH1 0x40 PUSH1 0x80 DUP2 MSTORE PUSH1 0x4 DUP1 CALLDATASIZE LT ISZERO PUSH2 0x14 JUMPI PUSH1 0x0 DUP1 REVERT JUMPDEST PUSH1 0x0 SWAP2 DUP3 CALLDATALOAD PUSH1 0xE0 SHR DUP1 PUSH4 0x3134C0F6 EQ PUSH2 0x418 JUMPI DUP1 PUSH4 0x67EA2F5C EQ PUSH2 0x453 JUMPI DUP1 PUSH4 0x6FAF60A0 EQ PUSH2 0x5CC JUMPI DUP1 PUSH4 0x715018A6 EQ PUSH2 0x56F JUMPI DUP1 PUSH4 0x8DA5CB5B EQ PUSH2 0x547 JUMPI DUP1 PUSH4 0x9A5910D8 EQ PUSH2 0x47F JUMPI DUP1 PUSH4 0x9C8DF9EE EQ PUSH2 0x453 JUMPI DUP1 PUSH4 0xA86541C2 EQ PUSH2 0x418 JUMPI DUP1 PUSH4 0xAF25D851 EQ PUSH2 0x34C JUMPI DUP1 PUSH4 0xB172B222 EQ PUSH2 0x324 JUMPI DUP1 PUSH4 0xBDC97FFE EQ PUSH2 0x243 JUMPI DUP1 PUSH4 0xCC19A7F8 EQ PUSH2 0x13F JUMPI PUSH4 0xF2FDE38B EQ PUSH2 0xAF JUMPI PUSH1 0x0 DUP1 REVERT JUMPDEST CALLVALUE PUSH2 0x13B JUMPI PUSH1 0x20 CALLDATASIZE PUSH1 0x3 NOT ADD SLT PUSH2 0x13B JUMPI PUSH1 0x1 PUSH1 0x1 PUSH1 0xA0 SHL SUB DUP3 CALLDATALOAD DUP2 DUP2 AND SWAP4 SWAP2 SWAP3 SWAP1 DUP5 SWAP1 SUB PUSH2 0x137 JUMPI PUSH2 0xE0 PUSH2 0x7CB JUMP JUMPDEST DUP4 ISZERO PUSH2 0x121 JUMPI POP POP DUP3 SLOAD PUSH1 0x1 PUSH1 0x1 PUSH1 0xA0 SHL SUB NOT DUP2 AND DUP4 OR DUP5 SSTORE AND PUSH32 0x8BE0079C531659141344CD1FD0A4F28419497F9722A3DAAFE3B4186F6B6457E0 DUP4 DUP1 LOG3 DUP1 RETURN JUMPDEST MLOAD PUSH4 0x1E4FBDF7 PUSH1 0xE0 SHL DUP2 MSTORE SWAP1 DUP2 ADD DUP5 SWAP1 MSTORE PUSH1 0x24 SWAP1 REVERT JUMPDEST DUP5 DUP1 REVERT JUMPDEST DUP3 DUP1 REVERT JUMPDEST POP SWAP1 CALLVALUE PUSH2 0x13B JUMPI PUSH2 0x14F CALLDATASIZE PUSH2 0x6AD JUMP JUMPDEST SWAP1 PUSH2 0x16E PUSH1 0x1 DUP1 PUSH1 0xA0 SHL SUB DUP1 DUP4 SLOAD AND CALLER EQ SWAP1 DUP2 ISZERO PUSH2 0x236 JUMPI JUMPDEST POP PUSH2 0x770 JUMP JUMPDEST PUSH2 0x176 PUSH2 0x7F7 JUMP JUMPDEST PUSH1 0xFF DUP4 MLOAD PUSH1 0x20 DUP2 PUSH2 0x187 DUP2 DUP8 PUSH2 0x745 JUMP JUMPDEST PUSH1 0x2 DUP2 MSTORE SUB ADD SWAP1 KECCAK256 SLOAD AND ISZERO PUSH2 0x1FF JUMPI POP PUSH2 0x1E6 PUSH32 0x3A9C6AD3CF1251080BAE89E2DF88F737A61C86CEBC98159A00AE1F697A70E853 SWAP2 DUP4 MLOAD PUSH1 0x20 DUP2 PUSH2 0x1CB DUP2 DUP6 PUSH2 0x745 JUMP JUMPDEST PUSH1 0x2 DUP2 MSTORE SUB ADD SWAP1 KECCAK256 PUSH1 0xFF NOT DUP2 SLOAD AND SWAP1 SSTORE DUP4 MLOAD SWAP2 DUP3 DUP1 SWAP3 PUSH2 0x745 JUMP JUMPDEST SUB SWAP1 KECCAK256 SWAP2 MLOAD CALLER DUP2 MSTORE TIMESTAMP PUSH1 0x20 DUP3 ADD MSTORE PUSH1 0x40 SWAP1 LOG2 PUSH1 0x1 DUP1 SSTORE DUP1 RETURN JUMPDEST PUSH1 0x64 SWAP1 PUSH1 0x20 DUP5 MLOAD SWAP2 PUSH3 0x461BCD PUSH1 0xE5 SHL DUP4 MSTORE DUP3 ADD MSTORE PUSH1 0x11 PUSH1 0x24 DUP3 ADD MSTORE PUSH17 0x1254081A5CC81B9BDD08189B1BD8DAD959 PUSH1 0x7A SHL PUSH1 0x44 DUP3 ADD MSTORE REVERT JUMPDEST SWAP1 POP DUP6 SLOAD AND CALLER EQ CODESIZE PUSH2 0x168 JUMP JUMPDEST POP SWAP1 CALLVALUE PUSH2 0x13B JUMPI PUSH2 0x253 CALLDATASIZE PUSH2 0x6AD JUMP JUMPDEST SWAP1 PUSH2 0x271 PUSH1 0x1 DUP1 PUSH1 0xA0 SHL SUB DUP1 DUP4 SLOAD AND CALLER EQ SWAP1 DUP2 ISZERO PUSH2 0x236 JUMPI POP PUSH2 0x770 JUMP JUMPDEST PUSH2 0x279 PUSH2 0x7F7 JUMP JUMPDEST PUSH1 0xFF DUP4 MLOAD PUSH1 0x20 DUP2 PUSH2 0x28A DUP2 DUP8 PUSH2 0x745 JUMP JUMPDEST PUSH1 0x3 DUP2 MSTORE SUB ADD SWAP1 KECCAK256 SLOAD AND ISZERO PUSH2 0x2E9 JUMPI POP PUSH2 0x1E6 PUSH32 0xEB3B2D6524360A3CEC92B47D0C021F4701895EBC5A13A7841E544416CB14DDAD SWAP2 DUP4 MLOAD PUSH1 0x20 DUP2 PUSH2 0x2CE DUP2 DUP6 PUSH2 0x745 JUMP JUMPDEST PUSH1 0x3 DUP2 MSTORE SUB ADD SWAP1 KECCAK256 PUSH1 0xFF NOT DUP2 SLOAD AND SWAP1 SSTORE DUP4 MLOAD SWAP2 DUP3 DUP1 SWAP3 PUSH2 0x745 JUMP JUMPDEST PUSH1 0x64 SWAP1 PUSH1 0x20 DUP5 MLOAD SWAP2 PUSH3 0x461BCD PUSH1 0xE5 SHL DUP4 MSTORE DUP3 ADD MSTORE PUSH1 0x15 PUSH1 0x24 DUP3 ADD MSTORE PUSH21 0x111BDB585A5B881A5CC81B9BDD08189B1BD8DAD959 PUSH1 0x5A SHL PUSH1 0x44 DUP3 ADD MSTORE REVERT JUMPDEST POP SWAP1 CALLVALUE PUSH2 0x13B JUMPI DUP3 PUSH1 0x3 NOT CALLDATASIZE ADD SLT PUSH2 0x13B JUMPI SLOAD SWAP1 MLOAD PUSH1 0x1 PUSH1 0x1 PUSH1 0xA0 SHL SUB SWAP1 SWAP2 AND DUP2 MSTORE PUSH1 0x20 SWAP2 POP RETURN JUMPDEST POP SWAP1 CALLVALUE PUSH2 0x13B JUMPI PUSH2 0x35C CALLDATASIZE PUSH2 0x6AD JUMP JUMPDEST SWAP1 PUSH2 0x37A PUSH1 0x1 DUP1 PUSH1 0xA0 SHL SUB DUP1 DUP4 SLOAD AND CALLER EQ SWAP1 DUP2 ISZERO PUSH2 0x236 JUMPI POP PUSH2 0x770 JUMP JUMPDEST PUSH2 0x382 PUSH2 0x7F7 JUMP JUMPDEST DUP2 MLOAD ISZERO PUSH2 0x3DC JUMPI POP PUSH2 0x1E6 PUSH32 0x5CF440F3E90A7F05F0863C70777B810007ED2BC1E8E28068ADB06AFE1EE98595 SWAP2 DUP4 MLOAD PUSH1 0x20 DUP2 PUSH2 0x3BE DUP2 DUP6 PUSH2 0x745 JUMP JUMPDEST PUSH1 0x3 DUP2 MSTORE SUB ADD SWAP1 KECCAK256 PUSH1 0x1 PUSH1 0xFF NOT DUP3 SLOAD AND OR SWAP1 SSTORE DUP4 MLOAD SWAP2 DUP3 DUP1 SWAP3 PUSH2 0x745 JUMP JUMPDEST PUSH1 0x64 SWAP1 PUSH1 0x20 DUP5 MLOAD SWAP2 PUSH3 0x461BCD PUSH1 0xE5 SHL DUP4 MSTORE DUP3 ADD MSTORE PUSH1 0x16 PUSH1 0x24 DUP3 ADD MSTORE PUSH22 0x446F6D61696E2063616E6E6F7420626520656D707479 PUSH1 0x50 SHL PUSH1 0x44 DUP3 ADD MSTORE REVERT JUMPDEST DUP4 DUP3 CALLVALUE PUSH2 0x44F JUMPI PUSH1 0x20 SWAP1 PUSH1 0xFF PUSH2 0x43C DUP4 PUSH2 0x431 CALLDATASIZE PUSH2 0x6AD JUMP JUMPDEST DUP5 MLOAD SWAP3 DUP4 DUP1 SWAP3 PUSH2 0x745 JUMP JUMPDEST PUSH1 0x3 DUP2 MSTORE SUB ADD SWAP1 KECCAK256 SLOAD AND SWAP1 MLOAD SWAP1 ISZERO ISZERO DUP2 MSTORE RETURN JUMPDEST POP DUP1 REVERT JUMPDEST DUP4 DUP3 CALLVALUE PUSH2 0x44F JUMPI PUSH1 0x20 SWAP1 PUSH1 0xFF PUSH2 0x46C DUP4 PUSH2 0x431 CALLDATASIZE PUSH2 0x6AD JUMP JUMPDEST PUSH1 0x2 DUP2 MSTORE SUB ADD SWAP1 KECCAK256 SLOAD AND SWAP1 MLOAD SWAP1 ISZERO ISZERO DUP2 MSTORE RETURN JUMPDEST POP SWAP1 CALLVALUE PUSH2 0x13B JUMPI PUSH2 0x48F CALLDATASIZE PUSH2 0x6AD JUMP JUMPDEST SWAP1 PUSH2 0x4AD PUSH1 0x1 DUP1 PUSH1 0xA0 SHL SUB DUP1 DUP4 SLOAD AND CALLER EQ SWAP1 DUP2 ISZERO PUSH2 0x236 JUMPI POP PUSH2 0x770 JUMP JUMPDEST PUSH2 0x4B5 PUSH2 0x7F7 JUMP JUMPDEST DUP2 MLOAD ISZERO PUSH2 0x50F JUMPI POP PUSH2 0x1E6 PUSH32 0x63212388728C1BE1255E63E773D8ECD037E8FB76623C1986F34FAB5F629BBCB9 SWAP2 DUP4 MLOAD PUSH1 0x20 DUP2 PUSH2 0x4F1 DUP2 DUP6 PUSH2 0x745 JUMP JUMPDEST PUSH1 0x2 DUP2 MSTORE SUB ADD SWAP1 KECCAK256 PUSH1 0x1 PUSH1 0xFF NOT DUP3 SLOAD AND OR SWAP1 SSTORE DUP4 MLOAD SWAP2 DUP3 DUP1 SWAP3 PUSH2 0x745 JUMP JUMPDEST PUSH1 0x64 SWAP1 PUSH1 0x20 DUP5 MLOAD SWAP2 PUSH3 0x461BCD PUSH1 0xE5 SHL DUP4 MSTORE DUP3 ADD MSTORE PUSH1 0x12 PUSH1 0x24 DUP3 ADD MSTORE PUSH18 0x49502063616E6E6F7420626520656D707479 PUSH1 0x70 SHL PUSH1 0x44 DUP3 ADD MSTORE REVERT JUMPDEST DUP4 DUP3 CALLVALUE PUSH2 0x44F JUMPI DUP2 PUSH1 0x3 NOT CALLDATASIZE ADD SLT PUSH2 0x44F JUMPI SWAP1 SLOAD SWAP1 MLOAD PUSH1 0x1 PUSH1 0x1 PUSH1 0xA0 SHL SUB SWAP1 SWAP2 AND DUP2 MSTORE PUSH1 0x20 SWAP1 RETURN JUMPDEST DUP4 CALLVALUE PUSH2 0x5C9 JUMPI DUP1 PUSH1 0x3 NOT CALLDATASIZE ADD SLT PUSH2 0x5C9 JUMPI PUSH2 0x588 PUSH2 0x7CB JUMP JUMPDEST DUP1 SLOAD PUSH1 0x1 PUSH1 0x1 PUSH1 0xA0 SHL SUB NOT DUP2 AND DUP3 SSTORE DUP2 SWAP1 PUSH1 0x1 PUSH1 0x1 PUSH1 0xA0 SHL SUB AND PUSH32 0x8BE0079C531659141344CD1FD0A4F28419497F9722A3DAAFE3B4186F6B6457E0 DUP3 DUP1 LOG3 DUP1 RETURN JUMPDEST DUP1 REVERT JUMPDEST POP DUP3 SWAP1 CALLVALUE PUSH2 0x44F JUMPI PUSH1 0x20 CALLDATASIZE PUSH1 0x3 NOT ADD SLT PUSH2 0x44F JUMPI PUSH1 0x1 PUSH1 0x1 PUSH1 0xA0 SHL SUB SWAP3 DUP1 CALLDATALOAD DUP5 DUP2 AND SWAP1 DUP2 SWAP1 SUB PUSH2 0x6A9 JUMPI PUSH2 0x5FE PUSH2 0x7CB JUMP JUMPDEST DUP1 ISZERO PUSH2 0x64F JUMPI PUSH32 0x2BB6FA423908148A692D1326EDEB12CF0436ABF468CE271A4BE85C722B327748 SWAP4 SWAP5 DUP3 SLOAD SWAP3 DUP3 PUSH12 0xFFFFFFFFFFFFFFFFFFFFFFFF PUSH1 0xA0 SHL DUP6 AND OR SWAP1 SSTORE DUP4 MLOAD SWAP3 AND DUP3 MSTORE PUSH1 0x20 DUP3 ADD MSTORE LOG1 DUP1 RETURN JUMPDEST POP PUSH1 0x20 PUSH1 0x84 SWAP3 MLOAD SWAP2 PUSH3 0x461BCD PUSH1 0xE5 SHL DUP4 MSTORE DUP3 ADD MSTORE PUSH1 0x2E PUSH1 0x24 DUP3 ADD MSTORE PUSH32 0x4E657720676F7665726E616E636520636F6E74726163742063616E6E6F742062 PUSH1 0x44 DUP3 ADD MSTORE PUSH14 0x65207A65726F2061646472657373 PUSH1 0x90 SHL PUSH1 0x64 DUP3 ADD MSTORE REVERT JUMPDEST DUP4 DUP1 REVERT JUMPDEST PUSH1 0x20 PUSH1 0x3 NOT DUP3 ADD SLT PUSH2 0x72A JUMPI PUSH8 0xFFFFFFFFFFFFFFFF SWAP1 PUSH1 0x4 CALLDATALOAD DUP3 DUP2 GT PUSH2 0x72A JUMPI DUP2 PUSH1 0x23 DUP3 ADD SLT ISZERO PUSH2 0x72A JUMPI DUP1 PUSH1 0x4 ADD CALLDATALOAD SWAP2 DUP4 DUP4 GT PUSH2 0x72F JUMPI PUSH1 0x40 MLOAD SWAP4 PUSH1 0x1F DUP5 ADD PUSH1 0x1F NOT SWAP1 DUP2 AND PUSH1 0x3F ADD AND DUP6 ADD SWAP1 DUP2 GT DUP6 DUP3 LT OR PUSH2 0x72F JUMPI PUSH1 0x40 MSTORE DUP3 DUP5 MSTORE PUSH1 0x24 DUP4 DUP4 ADD ADD GT PUSH2 0x72A JUMPI DUP2 PUSH1 0x0 SWAP3 PUSH1 0x24 PUSH1 0x20 SWAP4 ADD DUP4 DUP7 ADD CALLDATACOPY DUP4 ADD ADD MSTORE SWAP1 JUMP JUMPDEST PUSH1 0x0 DUP1 REVERT JUMPDEST PUSH4 0x4E487B71 PUSH1 0xE0 SHL PUSH1 0x0 MSTORE PUSH1 0x41 PUSH1 0x4 MSTORE PUSH1 0x24 PUSH1 0x0 REVERT JUMPDEST SWAP1 DUP2 MLOAD SWAP2 PUSH1 0x0 JUMPDEST DUP4 DUP2 LT PUSH2 0x75D JUMPI POP POP ADD PUSH1 0x0 DUP2 MSTORE SWAP1 JUMP JUMPDEST DUP1 PUSH1 0x20 DUP1 SWAP3 DUP5 ADD ADD MLOAD DUP2 DUP6 ADD MSTORE ADD PUSH2 0x74C JUMP JUMPDEST ISZERO PUSH2 0x777 JUMPI JUMP JUMPDEST PUSH1 0x40 MLOAD PUSH3 0x461BCD PUSH1 0xE5 SHL DUP2 MSTORE PUSH1 0x20 PUSH1 0x4 DUP3 ADD MSTORE PUSH1 0x26 PUSH1 0x24 DUP3 ADD MSTORE PUSH32 0x4F6E6C7920617574686F72697A65642063616E2063616C6C2074686973206675 PUSH1 0x44 DUP3 ADD MSTORE PUSH6 0x3731BA34B7B7 PUSH1 0xD1 SHL PUSH1 0x64 DUP3 ADD MSTORE PUSH1 0x84 SWAP1 REVERT JUMPDEST PUSH1 0x0 SLOAD PUSH1 0x1 PUSH1 0x1 PUSH1 0xA0 SHL SUB AND CALLER SUB PUSH2 0x7DF JUMPI JUMP JUMPDEST PUSH1 0x40 MLOAD PUSH4 0x118CDAA7 PUSH1 0xE0 SHL DUP2 MSTORE CALLER PUSH1 0x4 DUP3 ADD MSTORE PUSH1 0x24 SWAP1 REVERT JUMPDEST PUSH1 0x2 PUSH1 0x1 SLOAD EQ PUSH2 0x808 JUMPI PUSH1 0x2 PUSH1 0x1 SSTORE JUMP JUMPDEST PUSH1 0x40 MLOAD PUSH4 0x3EE5AEB5 PUSH1 0xE0 SHL DUP2 MSTORE PUSH1 0x4 SWAP1 REVERT INVALID LOG1 PUSH5 0x736F6C6343 STOP ADDMOD XOR STOP EXP "},"methodIdentifiers":{"blockDomain(string)":"af25d851","blockIP(string)":"9a5910d8","domainBlocked(string)":"a86541c2","governanceContract()":"b172b222","ipBlocked(string)":"9c8df9ee","isDomainBlocked(string)":"3134c0f6","isIPBlocked(string)":"67ea2f5c","owner()":"8da5cb5b","renounceOwnership()":"715018a6","transferOwnership(address)":"f2fde38b","unblockDomain(string)":"bdc97ffe","unblockIP(string)":"cc19a7f8","updateGovernanceContract(address)":"6faf60a0"}}}}}