{"contracts/FaucetUpgradeable.sol":{"FaucetUpgradeable":{"abi":[{"inputs":[{"internalType":"address","name":"_oraToken","type":"address"}],"stateMutability":"nonpayable","type":"constructor"},{"inputs":[{"internalType":"address","name":"owner","type":"address"}],"name":"OwnableInvalidOwner","type":"error"},{"inputs":[{"internalType":"address","name":"account","type":"address"}],"name":"OwnableUnauthorizedAccount","type":"error"},{"anonymous":false,"inputs":[{"indexed":false,"internalType":"uint256","name":"newPeriod","type":"uint256"}],"name":"CooldownPeriodChanged","type":"event"},{"anonymous":false,"inputs":[{"indexed":true,"internalType":"address","name":"previousOwner","type":"address"},{"indexed":true,"internalType":"address","name":"newOwner","type":"address"}],"name":"OwnershipTransferred","type":"event"},{"anonymous":false,"inputs":[{"indexed":true,"internalType":"address","name":"sender","type":"address"},{"indexed":false,"internalType":"uint256","name":"amount","type":"uint256"}],"name":"TokensDeposited","type":"event"},{"anonymous":false,"inputs":[{"indexed":true,"internalType":"address","name":"recipient","type":"address"},{"indexed":false,"internalType":"uint256","name":"amount","type":"uint256"}],"name":"TokensWithdrawn","type":"event"},{"anonymous":false,"inputs":[{"indexed":false,"internalType":"uint256","name":"newLimit","type":"uint256"}],"name":"WithdrawalLimitChanged","type":"event"},{"inputs":[{"internalType":"address[]","name":"recipients","type":"address[]"}],"name":"batchDistribute","outputs":[],"stateMutability":"nonpayable","type":"function"},{"inputs":[{"internalType":"address","name":"account","type":"address"}],"name":"canWithdraw","outputs":[{"internalType":"bool","name":"","type":"bool"}],"stateMutability":"view","type":"function"},{"inputs":[],"name":"cooldownPeriod","outputs":[{"internalType":"uint256","name":"","type":"uint256"}],"stateMutability":"view","type":"function"},{"inputs":[{"internalType":"uint256","name":"amount","type":"uint256"}],"name":"depositTokens","outputs":[],"stateMutability":"nonpayable","type":"function"},{"inputs":[],"name":"faucetBalance","outputs":[{"internalType":"uint256","name":"","type":"uint256"}],"stateMutability":"view","type":"function"},{"inputs":[{"internalType":"address","name":"","type":"address"}],"name":"lastWithdrawal","outputs":[{"internalType":"uint256","name":"","type":"uint256"}],"stateMutability":"view","type":"function"},{"inputs":[],"name":"oraToken","outputs":[{"internalType":"contract IERC20","name":"","type":"address"}],"stateMutability":"view","type":"function"},{"inputs":[],"name":"owner","outputs":[{"internalType":"address","name":"","type":"address"}],"stateMutability":"view","type":"function"},{"inputs":[],"name":"renounceOwnership","outputs":[],"stateMutability":"nonpayable","type":"function"},{"inputs":[{"internalType":"uint256","name":"newPeriod","type":"uint256"}],"name":"setCooldownPeriod","outputs":[],"stateMutability":"nonpayable","type":"function"},{"inputs":[{"internalType":"uint256","name":"newAmount","type":"uint256"}],"name":"setWithdrawAmount","outputs":[],"stateMutability":"nonpayable","type":"function"},{"inputs":[{"internalType":"address","name":"account","type":"address"}],"name":"timeToNextWithdraw","outputs":[{"internalType":"uint256","name":"","type":"uint256"}],"stateMutability":"view","type":"function"},{"inputs":[{"internalType":"address","name":"newOwner","type":"address"}],"name":"transferOwnership","outputs":[],"stateMutability":"nonpayable","type":"function"},{"inputs":[],"name":"withdrawAmount","outputs":[{"internalType":"uint256","name":"","type":"uint256"}],"stateMutability":"view","type":"function"},{"inputs":[],"name":"withdrawETH","outputs":[],"stateMutability":"nonpayable","type":"function"},{"inputs":[{"internalType":"uint256","name":"amount","type":"uint256"}],"name":"withdrawFaucetBalance","outputs":[],"stateMutability":"nonpayable","type":"function"},{"inputs":[],"name":"withdrawTokens","outputs":[],"stateMutability":"nonpayable","type":"function"},{"stateMutability":"payable","type":"receive"}],"evm":{"bytecode":{"linkReferences":{},"object":"60803461012657601f610da538819003918201601f19168301916001600160401b0383118484101761012b5780849260209460405283398101031261012657516001600160a01b038082169182900361012657331561010d576000549060018060a01b0319913383821617600055604051913391167f8be0079c531659141344cd1fd0a4f28419497f9722a3daafe3b4186f6b6457e0600080a382156100cb57506001541617600155683635c9adc5dea0000060025562015180600355604051610c6390816101428239f35b62461bcd60e51b815260206004820152601c60248201527f546f6b656e20616464726573732063616e6e6f74206265207a65726f000000006044820152606490fd5b604051631e4fbdf760e01b815260006004820152602490fd5b600080fd5b634e487b7160e01b600052604160045260246000fdfe60406080815260048036101561001f575b5050361561001d57600080fd5b005b600091823560e01c806301b5d703146109f257806304646a49146109d35780631720f5d21461093c57806319262d30146108f3578063534844a2146108d4578063715018a61461087a57806380ea3de11461082c5780638d8f2adb146106855780638da5cb5b1461065d578063b267250f14610625578063bb4abe1e146105fc578063bed24c2414610398578063ceb04e2914610301578063dd49756e146101ff578063e086e5ec146101b5578063ebe6c9ff146101775763f2fde38b146100e75750610010565b34610173576020366003190112610173576001600160a01b0382358181169391929084900361016f57610118610c2a565b831561015957505082546001600160a01b0319811683178455167f8be0079c531659141344cd1fd0a4f28419497f9722a3daafe3b4186f6b6457e08380a380f35b51631e4fbdf760e01b8152908101849052602490fd5b8480fd5b8280fd5b5090346101735760203660031901126101735780356001600160a01b038116908190036101b1579282916020948252845220549051908152f35b8380fd5b8382346101fb57816003193601126101fb576101cf610c2a565b81808080478181156101f2575b3390f1156101e8575080f35b51903d90823e3d90fd5b506108fc6101dc565b5080fd5b503461017357602090816003193601126101b15782359261021e610c2a565b60015482516323b872dd60e01b8152338382015230602482015260448101869052908490829060649082908a906001600160a01b03165af19081156102f75786916102ca575b50156102985750907f59062170a285eb80e8c6b8ced60428442a51910635005233fc4ce084a475845e91519283523392a280f35b82606492519162461bcd60e51b8352820152600e60248201526d11195c1bdcda5d0819985a5b195960921b6044820152fd5b6102ea9150843d86116102f0575b6102e28183610abf565b810190610af7565b38610264565b503d6102d8565b83513d88823e3d90fd5b50346101735760203660031901126101735781359161031e610c2a565b82156103565750816020917f8d9bc996d35f1a4bedd5ed20910999b7c750f5d5b01a50d09dbb82fdcdba1e539360025551908152a180f35b6020606492519162461bcd60e51b8352820152601d60248201527f416d6f756e74206d7573742062652067726561746572207468616e20300000006044820152fd5b5034610173576020806003193601126101b15782359067ffffffffffffffff928383116105f857366023840112156105f857828501359384116105f8576024926005953660248760051b840101116105f4576103f2610c2a565b6002916002549787890298808a048914901517156105e1576001805486516370a0823160e01b81523086820152919a6001600160a01b0394929189908390602490829089165afa80156105d7578d906105a4575b61045292501015610b37565b8a5b89811061045f578b80f35b8881841b83010135848116908d8282036105a15780838b9252888c52205461048b429160035490610b14565b1161054f57818e52868a52888e204290558c5488548a5163a9059cbb60e01b81526001600160a01b03909316838a0190815260208101919091528f92918c9183918a169082908690829060400103925af1918215610544578e9493926104f79290610527575b50610b83565b7f6352c5382c4a4578e712449ca65e83cdb392d045dfcf1cad9615189db2da244b8a89548b51908152a201610454565b61053e91508c8d3d106102f0576102e28183610abf565b386104f1565b8a51903d90823e3d90fd5b885162461bcd60e51b81528088018b90526027818d01527f526563697069656e74206d757374207761697420666f7220636f6f6c646f776e604482015266081c195c9a5bd960ca1b6064820152608490fd5b80fd5b508882813d83116105d0575b6105ba8183610abf565b810103126105cc576104529151610446565b8c80fd5b503d6105b0565b88513d8f823e3d90fd5b634e487b7160e01b8a526011835260248afd5b8780fd5b8580fd5b8382346101fb57816003193601126101fb5760015490516001600160a01b039091168152602090f35b5090346101735760203660031901126101735735916001600160a01b03831683036105a15750610656602092610bc1565b9051908152f35b8382346101fb57816003193601126101fb57905490516001600160a01b039091168152602090f35b50903461017357826003193601126101735733835260208181526106af8385205460035490610b14565b42106107ec5760015483516370a0823160e01b815230818501526001600160a01b03939183908290602490829088165afa9081156107e25786916107b1575b50906107429361070384936002541115610b37565b33808852828452868820429055600154600254885163a9059cbb60e01b8152948501928352602083015292958693929092169183918991839160400190565b03925af19182156107a4577f6352c5382c4a4578e712449ca65e83cdb392d045dfcf1cad9615189db2da244b9261077f91869161078d5750610b83565b60025492519283523392a280f35b61053e9150833d85116102f0576102e28183610abf565b50505051903d90823e3d90fd5b9190508282813d83116107db575b6107c98183610abf565b810103126105f85790516107426106ee565b503d6107bf565b85513d88823e3d90fd5b606492519162461bcd60e51b8352820152601d60248201527f4d757374207761697420666f7220636f6f6c646f776e20706572696f640000006044820152fd5b509034610173576020366003190112610173577fd4d83b235c1d3bdbbbfc0256f977fa865028b88b40fb15b3acdc1f70a4cda27291602091359061086e610c2a565b8160035551908152a180f35b83346105a157806003193601126105a157610893610c2a565b80546001600160a01b03198116825581906001600160a01b03167f8be0079c531659141344cd1fd0a4f28419497f9722a3daafe3b4186f6b6457e08280a380f35b8382346101fb57816003193601126101fb576020906002549051908152f35b5090346101735760203660031901126101735780356001600160a01b038116908190036101b15783610932928492602096528552205460035490610b14565b9051904210158152f35b503461017357826003193601126101735760015481516370a0823160e01b81523093810193909352602090839060249082906001600160a01b03165afa9182156109c9578392610991575b6020838351908152f35b9091506020813d6020116109c1575b816109ad60209383610abf565b810103126101735760209250519038610987565b3d91506109a0565b81513d85823e3d90fd5b8382346101fb57816003193601126101fb576020906003549051908152f35b503461017357602036600319011261017357610a0c610c2a565b600154815163a9059cbb60e01b81523384820190815284356020808301919091529192839182900360400190829088906001600160a01b03165af1908115610ab5578491610a96575b5015610a5f578280f35b906020606492519162461bcd60e51b8352820152601160248201527015da5d1a191c985dd85b0819985a5b1959607a1b6044820152fd5b610aaf915060203d6020116102f0576102e28183610abf565b38610a55565b82513d86823e3d90fd5b90601f8019910116810190811067ffffffffffffffff821117610ae157604052565b634e487b7160e01b600052604160045260246000fd5b90816020910312610b0f57518015158103610b0f5790565b600080fd5b91908201809211610b2157565b634e487b7160e01b600052601160045260246000fd5b15610b3e57565b60405162461bcd60e51b815260206004820152601b60248201527f496e73756666696369656e74206661756365742062616c616e636500000000006044820152606490fd5b15610b8a57565b60405162461bcd60e51b815260206004820152600f60248201526e151c985b9cd9995c8819985a5b1959608a1b6044820152606490fd5b60018060a01b031660009080825260046020526040822054610be66003548092610b14565b421015610c2557610c0291835260046020526040832054610b14565b90428203918211610c11575090565b634e487b7160e01b81526011600452602490fd5b505090565b6000546001600160a01b03163303610c3e57565b60405163118cdaa760e01b8152336004820152602490fdfea164736f6c6343000818000a","opcodes":"PUSH1 0x80 CALLVALUE PUSH2 0x126 JUMPI PUSH1 0x1F PUSH2 0xDA5 CODESIZE DUP2 SWAP1 SUB SWAP2 DUP3 ADD PUSH1 0x1F NOT AND DUP4 ADD SWAP2 PUSH1 0x1 PUSH1 0x1 PUSH1 0x40 SHL SUB DUP4 GT DUP5 DUP5 LT OR PUSH2 0x12B JUMPI DUP1 DUP5 SWAP3 PUSH1 0x20 SWAP5 PUSH1 0x40 MSTORE DUP4 CODECOPY DUP2 ADD SUB SLT PUSH2 0x126 JUMPI MLOAD PUSH1 0x1 PUSH1 0x1 PUSH1 0xA0 SHL SUB DUP1 DUP3 AND SWAP2 DUP3 SWAP1 SUB PUSH2 0x126 JUMPI CALLER ISZERO PUSH2 0x10D JUMPI PUSH1 0x0 SLOAD SWAP1 PUSH1 0x1 DUP1 PUSH1 0xA0 SHL SUB NOT SWAP2 CALLER DUP4 DUP3 AND OR PUSH1 0x0 SSTORE PUSH1 0x40 MLOAD SWAP2 CALLER SWAP2 AND PUSH32 0x8BE0079C531659141344CD1FD0A4F28419497F9722A3DAAFE3B4186F6B6457E0 PUSH1 0x0 DUP1 LOG3 DUP3 ISZERO PUSH2 0xCB JUMPI POP PUSH1 0x1 SLOAD AND OR PUSH1 0x1 SSTORE PUSH9 0x3635C9ADC5DEA00000 PUSH1 0x2 SSTORE PUSH3 0x15180 PUSH1 0x3 SSTORE PUSH1 0x40 MLOAD PUSH2 0xC63 SWAP1 DUP2 PUSH2 0x142 DUP3 CODECOPY RETURN JUMPDEST PUSH3 0x461BCD PUSH1 0xE5 SHL DUP2 MSTORE PUSH1 0x20 PUSH1 0x4 DUP3 ADD MSTORE PUSH1 0x1C PUSH1 0x24 DUP3 ADD MSTORE PUSH32 0x546F6B656E20616464726573732063616E6E6F74206265207A65726F00000000 PUSH1 0x44 DUP3 ADD MSTORE PUSH1 0x64 SWAP1 REVERT JUMPDEST PUSH1 0x40 MLOAD PUSH4 0x1E4FBDF7 PUSH1 0xE0 SHL DUP2 MSTORE PUSH1 0x0 PUSH1 0x4 DUP3 ADD MSTORE PUSH1 0x24 SWAP1 REVERT JUMPDEST PUSH1 0x0 DUP1 REVERT JUMPDEST PUSH4 0x4E487B71 PUSH1 0xE0 SHL PUSH1 0x0 MSTORE PUSH1 0x41 PUSH1 0x4 MSTORE PUSH1 0x24 PUSH1 0x0 REVERT INVALID PUSH1 0x40 PUSH1 0x80 DUP2 MSTORE PUSH1 0x4 DUP1 CALLDATASIZE LT ISZERO PUSH2 0x1F JUMPI JUMPDEST POP POP CALLDATASIZE ISZERO PUSH2 0x1D JUMPI PUSH1 0x0 DUP1 REVERT JUMPDEST STOP JUMPDEST PUSH1 0x0 SWAP2 DUP3 CALLDATALOAD PUSH1 0xE0 SHR DUP1 PUSH4 0x1B5D703 EQ PUSH2 0x9F2 JUMPI DUP1 PUSH4 0x4646A49 EQ PUSH2 0x9D3 JUMPI DUP1 PUSH4 0x1720F5D2 EQ PUSH2 0x93C JUMPI DUP1 PUSH4 0x19262D30 EQ PUSH2 0x8F3 JUMPI DUP1 PUSH4 0x534844A2 EQ PUSH2 0x8D4 JUMPI DUP1 PUSH4 0x715018A6 EQ PUSH2 0x87A JUMPI DUP1 PUSH4 0x80EA3DE1 EQ PUSH2 0x82C JUMPI DUP1 PUSH4 0x8D8F2ADB EQ PUSH2 0x685 JUMPI DUP1 PUSH4 0x8DA5CB5B EQ PUSH2 0x65D JUMPI DUP1 PUSH4 0xB267250F EQ PUSH2 0x625 JUMPI DUP1 PUSH4 0xBB4ABE1E EQ PUSH2 0x5FC JUMPI DUP1 PUSH4 0xBED24C24 EQ PUSH2 0x398 JUMPI DUP1 PUSH4 0xCEB04E29 EQ PUSH2 0x301 JUMPI DUP1 PUSH4 0xDD49756E EQ PUSH2 0x1FF JUMPI DUP1 PUSH4 0xE086E5EC EQ PUSH2 0x1B5 JUMPI DUP1 PUSH4 0xEBE6C9FF EQ PUSH2 0x177 JUMPI PUSH4 0xF2FDE38B EQ PUSH2 0xE7 JUMPI POP PUSH2 0x10 JUMP JUMPDEST CALLVALUE PUSH2 0x173 JUMPI PUSH1 0x20 CALLDATASIZE PUSH1 0x3 NOT ADD SLT PUSH2 0x173 JUMPI PUSH1 0x1 PUSH1 0x1 PUSH1 0xA0 SHL SUB DUP3 CALLDATALOAD DUP2 DUP2 AND SWAP4 SWAP2 SWAP3 SWAP1 DUP5 SWAP1 SUB PUSH2 0x16F JUMPI PUSH2 0x118 PUSH2 0xC2A JUMP JUMPDEST DUP4 ISZERO PUSH2 0x159 JUMPI POP POP DUP3 SLOAD PUSH1 0x1 PUSH1 0x1 PUSH1 0xA0 SHL SUB NOT DUP2 AND DUP4 OR DUP5 SSTORE AND PUSH32 0x8BE0079C531659141344CD1FD0A4F28419497F9722A3DAAFE3B4186F6B6457E0 DUP4 DUP1 LOG3 DUP1 RETURN JUMPDEST MLOAD PUSH4 0x1E4FBDF7 PUSH1 0xE0 SHL DUP2 MSTORE SWAP1 DUP2 ADD DUP5 SWAP1 MSTORE PUSH1 0x24 SWAP1 REVERT JUMPDEST DUP5 DUP1 REVERT JUMPDEST DUP3 DUP1 REVERT JUMPDEST POP SWAP1 CALLVALUE PUSH2 0x173 JUMPI PUSH1 0x20 CALLDATASIZE PUSH1 0x3 NOT ADD SLT PUSH2 0x173 JUMPI DUP1 CALLDATALOAD PUSH1 0x1 PUSH1 0x1 PUSH1 0xA0 SHL SUB DUP2 AND SWAP1 DUP2 SWAP1 SUB PUSH2 0x1B1 JUMPI SWAP3 DUP3 SWAP2 PUSH1 0x20 SWAP5 DUP3 MSTORE DUP5 MSTORE KECCAK256 SLOAD SWAP1 MLOAD SWAP1 DUP2 MSTORE RETURN JUMPDEST DUP4 DUP1 REVERT JUMPDEST DUP4 DUP3 CALLVALUE PUSH2 0x1FB JUMPI DUP2 PUSH1 0x3 NOT CALLDATASIZE ADD SLT PUSH2 0x1FB JUMPI PUSH2 0x1CF PUSH2 0xC2A JUMP JUMPDEST DUP2 DUP1 DUP1 DUP1 SELFBALANCE DUP2 DUP2 ISZERO PUSH2 0x1F2 JUMPI JUMPDEST CALLER SWAP1 CALL ISZERO PUSH2 0x1E8 JUMPI POP DUP1 RETURN JUMPDEST MLOAD SWAP1 RETURNDATASIZE SWAP1 DUP3 RETURNDATACOPY RETURNDATASIZE SWAP1 REVERT JUMPDEST POP PUSH2 0x8FC PUSH2 0x1DC JUMP JUMPDEST POP DUP1 REVERT JUMPDEST POP CALLVALUE PUSH2 0x173 JUMPI PUSH1 0x20 SWAP1 DUP2 PUSH1 0x3 NOT CALLDATASIZE ADD SLT PUSH2 0x1B1 JUMPI DUP3 CALLDATALOAD SWAP3 PUSH2 0x21E PUSH2 0xC2A JUMP JUMPDEST PUSH1 0x1 SLOAD DUP3 MLOAD PUSH4 0x23B872DD PUSH1 0xE0 SHL DUP2 MSTORE CALLER DUP4 DUP3 ADD MSTORE ADDRESS PUSH1 0x24 DUP3 ADD MSTORE PUSH1 0x44 DUP2 ADD DUP7 SWAP1 MSTORE SWAP1 DUP5 SWAP1 DUP3 SWAP1 PUSH1 0x64 SWAP1 DUP3 SWAP1 DUP11 SWAP1 PUSH1 0x1 PUSH1 0x1 PUSH1 0xA0 SHL SUB AND GAS CALL SWAP1 DUP2 ISZERO PUSH2 0x2F7 JUMPI DUP7 SWAP2 PUSH2 0x2CA JUMPI JUMPDEST POP ISZERO PUSH2 0x298 JUMPI POP SWAP1 PUSH32 0x59062170A285EB80E8C6B8CED60428442A51910635005233FC4CE084A475845E SWAP2 MLOAD SWAP3 DUP4 MSTORE CALLER SWAP3 LOG2 DUP1 RETURN JUMPDEST DUP3 PUSH1 0x64 SWAP3 MLOAD SWAP2 PUSH3 0x461BCD PUSH1 0xE5 SHL DUP4 MSTORE DUP3 ADD MSTORE PUSH1 0xE PUSH1 0x24 DUP3 ADD MSTORE PUSH14 0x11195C1BDCDA5D0819985A5B1959 PUSH1 0x92 SHL PUSH1 0x44 DUP3 ADD MSTORE REVERT JUMPDEST PUSH2 0x2EA SWAP2 POP DUP5 RETURNDATASIZE DUP7 GT PUSH2 0x2F0 JUMPI JUMPDEST PUSH2 0x2E2 DUP2 DUP4 PUSH2 0xABF JUMP JUMPDEST DUP2 ADD SWAP1 PUSH2 0xAF7 JUMP JUMPDEST CODESIZE PUSH2 0x264 JUMP JUMPDEST POP RETURNDATASIZE PUSH2 0x2D8 JUMP JUMPDEST DUP4 MLOAD RETURNDATASIZE DUP9 DUP3 RETURNDATACOPY RETURNDATASIZE SWAP1 REVERT JUMPDEST POP CALLVALUE PUSH2 0x173 JUMPI PUSH1 0x20 CALLDATASIZE PUSH1 0x3 NOT ADD SLT PUSH2 0x173 JUMPI DUP2 CALLDATALOAD SWAP2 PUSH2 0x31E PUSH2 0xC2A JUMP JUMPDEST DUP3 ISZERO PUSH2 0x356 JUMPI POP DUP2 PUSH1 0x20 SWAP2 PUSH32 0x8D9BC996D35F1A4BEDD5ED20910999B7C750F5D5B01A50D09DBB82FDCDBA1E53 SWAP4 PUSH1 0x2 SSTORE MLOAD SWAP1 DUP2 MSTORE LOG1 DUP1 RETURN JUMPDEST PUSH1 0x20 PUSH1 0x64 SWAP3 MLOAD SWAP2 PUSH3 0x461BCD PUSH1 0xE5 SHL DUP4 MSTORE DUP3 ADD MSTORE PUSH1 0x1D PUSH1 0x24 DUP3 ADD MSTORE PUSH32 0x416D6F756E74206D7573742062652067726561746572207468616E2030000000 PUSH1 0x44 DUP3 ADD MSTORE REVERT JUMPDEST POP CALLVALUE PUSH2 0x173 JUMPI PUSH1 0x20 DUP1 PUSH1 0x3 NOT CALLDATASIZE ADD SLT PUSH2 0x1B1 JUMPI DUP3 CALLDATALOAD SWAP1 PUSH8 0xFFFFFFFFFFFFFFFF SWAP3 DUP4 DUP4 GT PUSH2 0x5F8 JUMPI CALLDATASIZE PUSH1 0x23 DUP5 ADD SLT ISZERO PUSH2 0x5F8 JUMPI DUP3 DUP6 ADD CALLDATALOAD SWAP4 DUP5 GT PUSH2 0x5F8 JUMPI PUSH1 0x24 SWAP3 PUSH1 0x5 SWAP6 CALLDATASIZE PUSH1 0x24 DUP8 PUSH1 0x5 SHL DUP5 ADD ADD GT PUSH2 0x5F4 JUMPI PUSH2 0x3F2 PUSH2 0xC2A JUMP JUMPDEST PUSH1 0x2 SWAP2 PUSH1 0x2 SLOAD SWAP8 DUP8 DUP10 MUL SWAP9 DUP1 DUP11 DIV DUP10 EQ SWAP1 ISZERO OR ISZERO PUSH2 0x5E1 JUMPI PUSH1 0x1 DUP1 SLOAD DUP7 MLOAD PUSH4 0x70A08231 PUSH1 0xE0 SHL DUP2 MSTORE ADDRESS DUP7 DUP3 ADD MSTORE SWAP2 SWAP11 PUSH1 0x1 PUSH1 0x1 PUSH1 0xA0 SHL SUB SWAP5 SWAP3 SWAP2 DUP10 SWAP1 DUP4 SWAP1 PUSH1 0x24 SWAP1 DUP3 SWAP1 DUP10 AND GAS STATICCALL DUP1 ISZERO PUSH2 0x5D7 JUMPI DUP14 SWAP1 PUSH2 0x5A4 JUMPI JUMPDEST PUSH2 0x452 SWAP3 POP LT ISZERO PUSH2 0xB37 JUMP JUMPDEST DUP11 JUMPDEST DUP10 DUP2 LT PUSH2 0x45F JUMPI DUP12 DUP1 RETURN JUMPDEST DUP9 DUP2 DUP5 SHL DUP4 ADD ADD CALLDATALOAD DUP5 DUP2 AND SWAP1 DUP14 DUP3 DUP3 SUB PUSH2 0x5A1 JUMPI DUP1 DUP4 DUP12 SWAP3 MSTORE DUP9 DUP13 MSTORE KECCAK256 SLOAD PUSH2 0x48B TIMESTAMP SWAP2 PUSH1 0x3 SLOAD SWAP1 PUSH2 0xB14 JUMP JUMPDEST GT PUSH2 0x54F JUMPI DUP2 DUP15 MSTORE DUP7 DUP11 MSTORE DUP9 DUP15 KECCAK256 TIMESTAMP SWAP1 SSTORE DUP13 SLOAD DUP9 SLOAD DUP11 MLOAD PUSH4 0xA9059CBB PUSH1 0xE0 SHL DUP2 MSTORE PUSH1 0x1 PUSH1 0x1 PUSH1 0xA0 SHL SUB SWAP1 SWAP4 AND DUP4 DUP11 ADD SWAP1 DUP2 MSTORE PUSH1 0x20 DUP2 ADD SWAP2 SWAP1 SWAP2 MSTORE DUP16 SWAP3 SWAP2 DUP13 SWAP2 DUP4 SWAP2 DUP11 AND SWAP1 DUP3 SWAP1 DUP7 SWAP1 DUP3 SWAP1 PUSH1 0x40 ADD SUB SWAP3 GAS CALL SWAP2 DUP3 ISZERO PUSH2 0x544 JUMPI DUP15 SWAP5 SWAP4 SWAP3 PUSH2 0x4F7 SWAP3 SWAP1 PUSH2 0x527 JUMPI JUMPDEST POP PUSH2 0xB83 JUMP JUMPDEST PUSH32 0x6352C5382C4A4578E712449CA65E83CDB392D045DFCF1CAD9615189DB2DA244B DUP11 DUP10 SLOAD DUP12 MLOAD SWAP1 DUP2 MSTORE LOG2 ADD PUSH2 0x454 JUMP JUMPDEST PUSH2 0x53E SWAP2 POP DUP13 DUP14 RETURNDATASIZE LT PUSH2 0x2F0 JUMPI PUSH2 0x2E2 DUP2 DUP4 PUSH2 0xABF JUMP JUMPDEST CODESIZE PUSH2 0x4F1 JUMP JUMPDEST DUP11 MLOAD SWAP1 RETURNDATASIZE SWAP1 DUP3 RETURNDATACOPY RETURNDATASIZE SWAP1 REVERT JUMPDEST DUP9 MLOAD PUSH3 0x461BCD PUSH1 0xE5 SHL DUP2 MSTORE DUP1 DUP9 ADD DUP12 SWAP1 MSTORE PUSH1 0x27 DUP2 DUP14 ADD MSTORE PUSH32 0x526563697069656E74206D757374207761697420666F7220636F6F6C646F776E PUSH1 0x44 DUP3 ADD MSTORE PUSH7 0x81C195C9A5BD9 PUSH1 0xCA SHL PUSH1 0x64 DUP3 ADD MSTORE PUSH1 0x84 SWAP1 REVERT JUMPDEST DUP1 REVERT JUMPDEST POP DUP9 DUP3 DUP2 RETURNDATASIZE DUP4 GT PUSH2 0x5D0 JUMPI JUMPDEST PUSH2 0x5BA DUP2 DUP4 PUSH2 0xABF JUMP JUMPDEST DUP2 ADD SUB SLT PUSH2 0x5CC JUMPI PUSH2 0x452 SWAP2 MLOAD PUSH2 0x446 JUMP JUMPDEST DUP13 DUP1 REVERT JUMPDEST POP RETURNDATASIZE PUSH2 0x5B0 JUMP JUMPDEST DUP9 MLOAD RETURNDATASIZE DUP16 DUP3 RETURNDATACOPY RETURNDATASIZE SWAP1 REVERT JUMPDEST PUSH4 0x4E487B71 PUSH1 0xE0 SHL DUP11 MSTORE PUSH1 0x11 DUP4 MSTORE PUSH1 0x24 DUP11 REVERT JUMPDEST DUP8 DUP1 REVERT JUMPDEST DUP6 DUP1 REVERT JUMPDEST DUP4 DUP3 CALLVALUE PUSH2 0x1FB JUMPI DUP2 PUSH1 0x3 NOT CALLDATASIZE ADD SLT PUSH2 0x1FB JUMPI PUSH1 0x1 SLOAD SWAP1 MLOAD PUSH1 0x1 PUSH1 0x1 PUSH1 0xA0 SHL SUB SWAP1 SWAP2 AND DUP2 MSTORE PUSH1 0x20 SWAP1 RETURN JUMPDEST POP SWAP1 CALLVALUE PUSH2 0x173 JUMPI PUSH1 0x20 CALLDATASIZE PUSH1 0x3 NOT ADD SLT PUSH2 0x173 JUMPI CALLDATALOAD SWAP2 PUSH1 0x1 PUSH1 0x1 PUSH1 0xA0 SHL SUB DUP4 AND DUP4 SUB PUSH2 0x5A1 JUMPI POP PUSH2 0x656 PUSH1 0x20 SWAP3 PUSH2 0xBC1 JUMP JUMPDEST SWAP1 MLOAD SWAP1 DUP2 MSTORE RETURN JUMPDEST DUP4 DUP3 CALLVALUE PUSH2 0x1FB JUMPI DUP2 PUSH1 0x3 NOT CALLDATASIZE ADD SLT PUSH2 0x1FB JUMPI SWAP1 SLOAD SWAP1 MLOAD PUSH1 0x1 PUSH1 0x1 PUSH1 0xA0 SHL SUB SWAP1 SWAP2 AND DUP2 MSTORE PUSH1 0x20 SWAP1 RETURN JUMPDEST POP SWAP1 CALLVALUE PUSH2 0x173 JUMPI DUP3 PUSH1 0x3 NOT CALLDATASIZE ADD SLT PUSH2 0x173 JUMPI CALLER DUP4 MSTORE PUSH1 0x20 DUP2 DUP2 MSTORE PUSH2 0x6AF DUP4 DUP6 KECCAK256 SLOAD PUSH1 0x3 SLOAD SWAP1 PUSH2 0xB14 JUMP JUMPDEST TIMESTAMP LT PUSH2 0x7EC JUMPI PUSH1 0x1 SLOAD DUP4 MLOAD PUSH4 0x70A08231 PUSH1 0xE0 SHL DUP2 MSTORE ADDRESS DUP2 DUP6 ADD MSTORE PUSH1 0x1 PUSH1 0x1 PUSH1 0xA0 SHL SUB SWAP4 SWAP2 DUP4 SWAP1 DUP3 SWAP1 PUSH1 0x24 SWAP1 DUP3 SWAP1 DUP9 AND GAS STATICCALL SWAP1 DUP2 ISZERO PUSH2 0x7E2 JUMPI DUP7 SWAP2 PUSH2 0x7B1 JUMPI JUMPDEST POP SWAP1 PUSH2 0x742 SWAP4 PUSH2 0x703 DUP5 SWAP4 PUSH1 0x2 SLOAD GT ISZERO PUSH2 0xB37 JUMP JUMPDEST CALLER DUP1 DUP9 MSTORE DUP3 DUP5 MSTORE DUP7 DUP9 KECCAK256 TIMESTAMP SWAP1 SSTORE PUSH1 0x1 SLOAD PUSH1 0x2 SLOAD DUP9 MLOAD PUSH4 0xA9059CBB PUSH1 0xE0 SHL DUP2 MSTORE SWAP5 DUP6 ADD SWAP3 DUP4 MSTORE PUSH1 0x20 DUP4 ADD MSTORE SWAP3 SWAP6 DUP7 SWAP4 SWAP3 SWAP1 SWAP3 AND SWAP2 DUP4 SWAP2 DUP10 SWAP2 DUP4 SWAP2 PUSH1 0x40 ADD SWAP1 JUMP JUMPDEST SUB SWAP3 GAS CALL SWAP2 DUP3 ISZERO PUSH2 0x7A4 JUMPI PUSH32 0x6352C5382C4A4578E712449CA65E83CDB392D045DFCF1CAD9615189DB2DA244B SWAP3 PUSH2 0x77F SWAP2 DUP7 SWAP2 PUSH2 0x78D JUMPI POP PUSH2 0xB83 JUMP JUMPDEST PUSH1 0x2 SLOAD SWAP3 MLOAD SWAP3 DUP4 MSTORE CALLER SWAP3 LOG2 DUP1 RETURN JUMPDEST PUSH2 0x53E SWAP2 POP DUP4 RETURNDATASIZE DUP6 GT PUSH2 0x2F0 JUMPI PUSH2 0x2E2 DUP2 DUP4 PUSH2 0xABF JUMP JUMPDEST POP POP POP MLOAD SWAP1 RETURNDATASIZE SWAP1 DUP3 RETURNDATACOPY RETURNDATASIZE SWAP1 REVERT JUMPDEST SWAP2 SWAP1 POP DUP3 DUP3 DUP2 RETURNDATASIZE DUP4 GT PUSH2 0x7DB JUMPI JUMPDEST PUSH2 0x7C9 DUP2 DUP4 PUSH2 0xABF JUMP JUMPDEST DUP2 ADD SUB SLT PUSH2 0x5F8 JUMPI SWAP1 MLOAD PUSH2 0x742 PUSH2 0x6EE JUMP JUMPDEST POP RETURNDATASIZE PUSH2 0x7BF JUMP JUMPDEST DUP6 MLOAD RETURNDATASIZE DUP9 DUP3 RETURNDATACOPY RETURNDATASIZE SWAP1 REVERT JUMPDEST PUSH1 0x64 SWAP3 MLOAD SWAP2 PUSH3 0x461BCD PUSH1 0xE5 SHL DUP4 MSTORE DUP3 ADD MSTORE PUSH1 0x1D PUSH1 0x24 DUP3 ADD MSTORE PUSH32 0x4D757374207761697420666F7220636F6F6C646F776E20706572696F64000000 PUSH1 0x44 DUP3 ADD MSTORE REVERT JUMPDEST POP SWAP1 CALLVALUE PUSH2 0x173 JUMPI PUSH1 0x20 CALLDATASIZE PUSH1 0x3 NOT ADD SLT PUSH2 0x173 JUMPI PUSH32 0xD4D83B235C1D3BDBBBFC0256F977FA865028B88B40FB15B3ACDC1F70A4CDA272 SWAP2 PUSH1 0x20 SWAP2 CALLDATALOAD SWAP1 PUSH2 0x86E PUSH2 0xC2A JUMP JUMPDEST DUP2 PUSH1 0x3 SSTORE MLOAD SWAP1 DUP2 MSTORE LOG1 DUP1 RETURN JUMPDEST DUP4 CALLVALUE PUSH2 0x5A1 JUMPI DUP1 PUSH1 0x3 NOT CALLDATASIZE ADD SLT PUSH2 0x5A1 JUMPI PUSH2 0x893 PUSH2 0xC2A JUMP JUMPDEST DUP1 SLOAD PUSH1 0x1 PUSH1 0x1 PUSH1 0xA0 SHL SUB NOT DUP2 AND DUP3 SSTORE DUP2 SWAP1 PUSH1 0x1 PUSH1 0x1 PUSH1 0xA0 SHL SUB AND PUSH32 0x8BE0079C531659141344CD1FD0A4F28419497F9722A3DAAFE3B4186F6B6457E0 DUP3 DUP1 LOG3 DUP1 RETURN JUMPDEST DUP4 DUP3 CALLVALUE PUSH2 0x1FB JUMPI DUP2 PUSH1 0x3 NOT CALLDATASIZE ADD SLT PUSH2 0x1FB JUMPI PUSH1 0x20 SWAP1 PUSH1 0x2 SLOAD SWAP1 MLOAD SWAP1 DUP2 MSTORE RETURN JUMPDEST POP SWAP1 CALLVALUE PUSH2 0x173 JUMPI PUSH1 0x20 CALLDATASIZE PUSH1 0x3 NOT ADD SLT PUSH2 0x173 JUMPI DUP1 CALLDATALOAD PUSH1 0x1 PUSH1 0x1 PUSH1 0xA0 SHL SUB DUP2 AND SWAP1 DUP2 SWAP1 SUB PUSH2 0x1B1 JUMPI DUP4 PUSH2 0x932 SWAP3 DUP5 SWAP3 PUSH1 0x20 SWAP7 MSTORE DUP6 MSTORE KECCAK256 SLOAD PUSH1 0x3 SLOAD SWAP1 PUSH2 0xB14 JUMP JUMPDEST SWAP1 MLOAD SWAP1 TIMESTAMP LT ISZERO DUP2 MSTORE RETURN JUMPDEST POP CALLVALUE PUSH2 0x173 JUMPI DUP3 PUSH1 0x3 NOT CALLDATASIZE ADD SLT PUSH2 0x173 JUMPI PUSH1 0x1 SLOAD DUP2 MLOAD PUSH4 0x70A08231 PUSH1 0xE0 SHL DUP2 MSTORE ADDRESS SWAP4 DUP2 ADD SWAP4 SWAP1 SWAP4 MSTORE PUSH1 0x20 SWAP1 DUP4 SWAP1 PUSH1 0x24 SWAP1 DUP3 SWAP1 PUSH1 0x1 PUSH1 0x1 PUSH1 0xA0 SHL SUB AND GAS STATICCALL SWAP2 DUP3 ISZERO PUSH2 0x9C9 JUMPI DUP4 SWAP3 PUSH2 0x991 JUMPI JUMPDEST PUSH1 0x20 DUP4 DUP4 MLOAD SWAP1 DUP2 MSTORE RETURN JUMPDEST SWAP1 SWAP2 POP PUSH1 0x20 DUP2 RETURNDATASIZE PUSH1 0x20 GT PUSH2 0x9C1 JUMPI JUMPDEST DUP2 PUSH2 0x9AD PUSH1 0x20 SWAP4 DUP4 PUSH2 0xABF JUMP JUMPDEST DUP2 ADD SUB SLT PUSH2 0x173 JUMPI PUSH1 0x20 SWAP3 POP MLOAD SWAP1 CODESIZE PUSH2 0x987 JUMP JUMPDEST RETURNDATASIZE SWAP2 POP PUSH2 0x9A0 JUMP JUMPDEST DUP2 MLOAD RETURNDATASIZE DUP6 DUP3 RETURNDATACOPY RETURNDATASIZE SWAP1 REVERT JUMPDEST DUP4 DUP3 CALLVALUE PUSH2 0x1FB JUMPI DUP2 PUSH1 0x3 NOT CALLDATASIZE ADD SLT PUSH2 0x1FB JUMPI PUSH1 0x20 SWAP1 PUSH1 0x3 SLOAD SWAP1 MLOAD SWAP1 DUP2 MSTORE RETURN JUMPDEST POP CALLVALUE PUSH2 0x173 JUMPI PUSH1 0x20 CALLDATASIZE PUSH1 0x3 NOT ADD SLT PUSH2 0x173 JUMPI PUSH2 0xA0C PUSH2 0xC2A JUMP JUMPDEST PUSH1 0x1 SLOAD DUP2 MLOAD PUSH4 0xA9059CBB PUSH1 0xE0 SHL DUP2 MSTORE CALLER DUP5 DUP3 ADD SWAP1 DUP2 MSTORE DUP5 CALLDATALOAD PUSH1 0x20 DUP1 DUP4 ADD SWAP2 SWAP1 SWAP2 MSTORE SWAP2 SWAP3 DUP4 SWAP2 DUP3 SWAP1 SUB PUSH1 0x40 ADD SWAP1 DUP3 SWAP1 DUP9 SWAP1 PUSH1 0x1 PUSH1 0x1 PUSH1 0xA0 SHL SUB AND GAS CALL SWAP1 DUP2 ISZERO PUSH2 0xAB5 JUMPI DUP5 SWAP2 PUSH2 0xA96 JUMPI JUMPDEST POP ISZERO PUSH2 0xA5F JUMPI DUP3 DUP1 RETURN JUMPDEST SWAP1 PUSH1 0x20 PUSH1 0x64 SWAP3 MLOAD SWAP2 PUSH3 0x461BCD PUSH1 0xE5 SHL DUP4 MSTORE DUP3 ADD MSTORE PUSH1 0x11 PUSH1 0x24 DUP3 ADD MSTORE PUSH17 0x15DA5D1A191C985DD85B0819985A5B1959 PUSH1 0x7A SHL PUSH1 0x44 DUP3 ADD MSTORE REVERT JUMPDEST PUSH2 0xAAF SWAP2 POP PUSH1 0x20 RETURNDATASIZE PUSH1 0x20 GT PUSH2 0x2F0 JUMPI PUSH2 0x2E2 DUP2 DUP4 PUSH2 0xABF JUMP JUMPDEST CODESIZE PUSH2 0xA55 JUMP JUMPDEST DUP3 MLOAD RETURNDATASIZE DUP7 DUP3 RETURNDATACOPY RETURNDATASIZE SWAP1 REVERT JUMPDEST SWAP1 PUSH1 0x1F DUP1 NOT SWAP2 ADD AND DUP2 ADD SWAP1 DUP2 LT PUSH8 0xFFFFFFFFFFFFFFFF DUP3 GT OR PUSH2 0xAE1 JUMPI PUSH1 0x40 MSTORE JUMP JUMPDEST PUSH4 0x4E487B71 PUSH1 0xE0 SHL PUSH1 0x0 MSTORE PUSH1 0x41 PUSH1 0x4 MSTORE PUSH1 0x24 PUSH1 0x0 REVERT JUMPDEST SWAP1 DUP2 PUSH1 0x20 SWAP2 SUB SLT PUSH2 0xB0F JUMPI MLOAD DUP1 ISZERO ISZERO DUP2 SUB PUSH2 0xB0F JUMPI SWAP1 JUMP JUMPDEST PUSH1 0x0 DUP1 REVERT JUMPDEST SWAP2 SWAP1 DUP3 ADD DUP1 SWAP3 GT PUSH2 0xB21 JUMPI JUMP JUMPDEST PUSH4 0x4E487B71 PUSH1 0xE0 SHL PUSH1 0x0 MSTORE PUSH1 0x11 PUSH1 0x4 MSTORE PUSH1 0x24 PUSH1 0x0 REVERT JUMPDEST ISZERO PUSH2 0xB3E JUMPI JUMP JUMPDEST PUSH1 0x40 MLOAD PUSH3 0x461BCD PUSH1 0xE5 SHL DUP2 MSTORE PUSH1 0x20 PUSH1 0x4 DUP3 ADD MSTORE PUSH1 0x1B PUSH1 0x24 DUP3 ADD MSTORE PUSH32 0x496E73756666696369656E74206661756365742062616C616E63650000000000 PUSH1 0x44 DUP3 ADD MSTORE PUSH1 0x64 SWAP1 REVERT JUMPDEST ISZERO PUSH2 0xB8A JUMPI JUMP JUMPDEST PUSH1 0x40 MLOAD PUSH3 0x461BCD PUSH1 0xE5 SHL DUP2 MSTORE PUSH1 0x20 PUSH1 0x4 DUP3 ADD MSTORE PUSH1 0xF PUSH1 0x24 DUP3 ADD MSTORE PUSH15 0x151C985B9CD9995C8819985A5B1959 PUSH1 0x8A SHL PUSH1 0x44 DUP3 ADD MSTORE PUSH1 0x64 SWAP1 REVERT JUMPDEST PUSH1 0x1 DUP1 PUSH1 0xA0 SHL SUB AND PUSH1 0x0 SWAP1 DUP1 DUP3 MSTORE PUSH1 0x4 PUSH1 0x20 MSTORE PUSH1 0x40 DUP3 KECCAK256 SLOAD PUSH2 0xBE6 PUSH1 0x3 SLOAD DUP1 SWAP3 PUSH2 0xB14 JUMP JUMPDEST TIMESTAMP LT ISZERO PUSH2 0xC25 JUMPI PUSH2 0xC02 SWAP2 DUP4 MSTORE PUSH1 0x4 PUSH1 0x20 MSTORE PUSH1 0x40 DUP4 KECCAK256 SLOAD PUSH2 0xB14 JUMP JUMPDEST SWAP1 TIMESTAMP DUP3 SUB SWAP2 DUP3 GT PUSH2 0xC11 JUMPI POP SWAP1 JUMP JUMPDEST PUSH4 0x4E487B71 PUSH1 0xE0 SHL DUP2 MSTORE PUSH1 0x11 PUSH1 0x4 MSTORE PUSH1 0x24 SWAP1 REVERT JUMPDEST POP POP SWAP1 JUMP JUMPDEST PUSH1 0x0 SLOAD PUSH1 0x1 PUSH1 0x1 PUSH1 0xA0 SHL SUB AND CALLER SUB PUSH2 0xC3E JUMPI JUMP JUMPDEST PUSH1 0x40 MLOAD PUSH4 0x118CDAA7 PUSH1 0xE0 SHL DUP2 MSTORE CALLER PUSH1 0x4 DUP3 ADD MSTORE PUSH1 0x24 SWAP1 REVERT INVALID LOG1 PUSH5 0x736F6C6343 STOP ADDMOD XOR STOP EXP "},"methodIdentifiers":{"batchDistribute(address[])":"bed24c24","canWithdraw(address)":"19262d30","cooldownPeriod()":"04646a49","depositTokens(uint256)":"dd49756e","faucetBalance()":"1720f5d2","lastWithdrawal(address)":"ebe6c9ff","oraToken()":"bb4abe1e","owner()":"8da5cb5b","renounceOwnership()":"715018a6","setCooldownPeriod(uint256)":"80ea3de1","setWithdrawAmount(uint256)":"ceb04e29","timeToNextWithdraw(address)":"b267250f","transferOwnership(address)":"f2fde38b","withdrawAmount()":"534844a2","withdrawETH()":"e086e5ec","withdrawFaucetBalance(uint256)":"01b5d703","withdrawTokens()":"8d8f2adb"}}}}}