{"contracts/ContractRegistry.sol":{"ContractRegistry":{"abi":[{"inputs":[],"stateMutability":"nonpayable","type":"constructor"},{"inputs":[{"internalType":"address","name":"owner","type":"address"}],"name":"OwnableInvalidOwner","type":"error"},{"inputs":[{"internalType":"address","name":"account","type":"address"}],"name":"OwnableUnauthorizedAccount","type":"error"},{"anonymous":false,"inputs":[{"indexed":true,"internalType":"string","name":"name","type":"string"},{"indexed":true,"internalType":"address","name":"newAddress","type":"address"}],"name":"AddressUpdated","type":"event"},{"anonymous":false,"inputs":[{"indexed":true,"internalType":"address","name":"previousOwner","type":"address"},{"indexed":true,"internalType":"address","name":"newOwner","type":"address"}],"name":"OwnershipTransferred","type":"event"},{"inputs":[{"internalType":"string","name":"","type":"string"}],"name":"contracts","outputs":[{"internalType":"address","name":"","type":"address"}],"stateMutability":"view","type":"function"},{"inputs":[{"internalType":"string","name":"name","type":"string"}],"name":"getContractAddress","outputs":[{"internalType":"address","name":"","type":"address"}],"stateMutability":"view","type":"function"},{"inputs":[],"name":"owner","outputs":[{"internalType":"address","name":"","type":"address"}],"stateMutability":"view","type":"function"},{"inputs":[],"name":"renounceOwnership","outputs":[],"stateMutability":"nonpayable","type":"function"},{"inputs":[{"internalType":"address","name":"newOwner","type":"address"}],"name":"transferOwnership","outputs":[],"stateMutability":"nonpayable","type":"function"},{"inputs":[{"internalType":"string","name":"name","type":"string"},{"internalType":"address","name":"newAddress","type":"address"}],"name":"updateAddress","outputs":[],"stateMutability":"nonpayable","type":"function"},{"inputs":[{"internalType":"string[]","name":"names","type":"string[]"},{"internalType":"address[]","name":"addresses","type":"address[]"}],"name":"updateAddresses","outputs":[],"stateMutability":"nonpayable","type":"function"}],"evm":{"bytecode":{"linkReferences":{},"object":"6080806040523461007a5733156100645760008054336001600160a01b03198216811783556040519290916001600160a01b0316907f8be0079c531659141344cd1fd0a4f28419497f9722a3daafe3b4186f6b6457e09080a36105da90816100808239f35b631e4fbdf760e01b815260006004820152602490fd5b600080fdfe60406080815260048036101561001457600080fd5b600091823560e01c806304433bbc1461012957806321b55192146102975780633e21750a146101e4578063715018a61461018a5780638c5b8385146101295780638da5cb5b146100fd5763f2fde38b1461006d57600080fd5b346100f95760203660031901126100f9576001600160a01b038235818116939192908490036100f55761009e6105a1565b83156100df57505082546001600160a01b0319811683178455167f8be0079c531659141344cd1fd0a4f28419497f9722a3daafe3b4186f6b6457e08380a380f35b51631e4fbdf760e01b8152908101849052602490fd5b8480fd5b8280fd5b838234610125578160031936011261012557905490516001600160a01b039091168152602090f35b5080fd5b5082346101875760203660031901126101875782359067ffffffffffffffff8211610187575060209261015e913691016104dc565b61016a8251809261054c565b60018152819003830190205490516001600160a01b039091168152f35b80fd5b83346101875780600319360112610187576101a36105a1565b80546001600160a01b03198116825581906001600160a01b03167f8be0079c531659141344cd1fd0a4f28419497f9722a3daafe3b4186f6b6457e08280a380f35b5090346100f957816003193601126100f95780359067ffffffffffffffff821161029357610214913691016104dc565b6024356001600160a01b03811692919083900361029357610269916102376105a1565b8051602081610246818661054c565b600181520301902080546001600160a01b0319168517905551918291829061054c565b0390207f943e9d45a11aaae5d87503e3bc248665d9807856e5cf2bdb4a988bee444227818380a380f35b8380fd5b50346100f957806003193601126100f95767ffffffffffffffff82358181116100f557366023820112156100f557808401359360246102dd6102d887610534565b6104a0565b9283968085528260208096019160051b8301019136831161046e57838101915b83831061047657505050508035938411610472573660238501121561047257838201359361032d6102d886610534565b94828587838152019160051b8301019136831161046e578301905b82821061044b5750505061035a6105a1565b8551845103610412575050845b845181101561040e576001906001600160a01b03806103868387610577565b51166103a285610396858b610577565b5189519283809261054c565b8781520301902080546001600160a01b03191690911790556103e16103c78389610577565b51916103d38488610577565b51169187519182809261054c565b0390207f943e9d45a11aaae5d87503e3bc248665d9807856e5cf2bdb4a988bee444227818980a301610367565b8580f35b60169060649386519362461bcd60e51b855284015282015275082e4e4c2f2e640d8cadccee8d040dad2e6dac2e8c6d60531b6044820152fd5b81356001600160a01b038116810361046a578152908501908501610348565b8a80fd5b8980fd5b8680fd5b823588811161049c57879161049183928836918701016104dc565b8152019201916102fd565b8b80fd5b6040519190601f01601f1916820167ffffffffffffffff8111838210176104c657604052565b634e487b7160e01b600052604160045260246000fd5b81601f8201121561052f5780359067ffffffffffffffff82116104c65761050c601f8301601f19166020016104a0565b928284526020838301011161052f57816000926020809301838601378301015290565b600080fd5b67ffffffffffffffff81116104c65760051b60200190565b9081519160005b838110610564575050016000815290565b8060208092840101518185015201610553565b805182101561058b5760209160051b010190565b634e487b7160e01b600052603260045260246000fd5b6000546001600160a01b031633036105b557565b60405163118cdaa760e01b8152336004820152602490fdfea164736f6c6343000818000a","opcodes":"PUSH1 0x80 DUP1 PUSH1 0x40 MSTORE CALLVALUE PUSH2 0x7A JUMPI CALLER ISZERO PUSH2 0x64 JUMPI PUSH1 0x0 DUP1 SLOAD CALLER PUSH1 0x1 PUSH1 0x1 PUSH1 0xA0 SHL SUB NOT DUP3 AND DUP2 OR DUP4 SSTORE PUSH1 0x40 MLOAD SWAP3 SWAP1 SWAP2 PUSH1 0x1 PUSH1 0x1 PUSH1 0xA0 SHL SUB AND SWAP1 PUSH32 0x8BE0079C531659141344CD1FD0A4F28419497F9722A3DAAFE3B4186F6B6457E0 SWAP1 DUP1 LOG3 PUSH2 0x5DA SWAP1 DUP2 PUSH2 0x80 DUP3 CODECOPY RETURN JUMPDEST PUSH4 0x1E4FBDF7 PUSH1 0xE0 SHL DUP2 MSTORE PUSH1 0x0 PUSH1 0x4 DUP3 ADD MSTORE PUSH1 0x24 SWAP1 REVERT JUMPDEST PUSH1 0x0 DUP1 REVERT INVALID PUSH1 0x40 PUSH1 0x80 DUP2 MSTORE PUSH1 0x4 DUP1 CALLDATASIZE LT ISZERO PUSH2 0x14 JUMPI PUSH1 0x0 DUP1 REVERT JUMPDEST PUSH1 0x0 SWAP2 DUP3 CALLDATALOAD PUSH1 0xE0 SHR DUP1 PUSH4 0x4433BBC EQ PUSH2 0x129 JUMPI DUP1 PUSH4 0x21B55192 EQ PUSH2 0x297 JUMPI DUP1 PUSH4 0x3E21750A EQ PUSH2 0x1E4 JUMPI DUP1 PUSH4 0x715018A6 EQ PUSH2 0x18A JUMPI DUP1 PUSH4 0x8C5B8385 EQ PUSH2 0x129 JUMPI DUP1 PUSH4 0x8DA5CB5B EQ PUSH2 0xFD JUMPI PUSH4 0xF2FDE38B EQ PUSH2 0x6D JUMPI PUSH1 0x0 DUP1 REVERT JUMPDEST CALLVALUE PUSH2 0xF9 JUMPI PUSH1 0x20 CALLDATASIZE PUSH1 0x3 NOT ADD SLT PUSH2 0xF9 JUMPI PUSH1 0x1 PUSH1 0x1 PUSH1 0xA0 SHL SUB DUP3 CALLDATALOAD DUP2 DUP2 AND SWAP4 SWAP2 SWAP3 SWAP1 DUP5 SWAP1 SUB PUSH2 0xF5 JUMPI PUSH2 0x9E PUSH2 0x5A1 JUMP JUMPDEST DUP4 ISZERO PUSH2 0xDF JUMPI POP POP DUP3 SLOAD PUSH1 0x1 PUSH1 0x1 PUSH1 0xA0 SHL SUB NOT DUP2 AND DUP4 OR DUP5 SSTORE AND PUSH32 0x8BE0079C531659141344CD1FD0A4F28419497F9722A3DAAFE3B4186F6B6457E0 DUP4 DUP1 LOG3 DUP1 RETURN JUMPDEST MLOAD PUSH4 0x1E4FBDF7 PUSH1 0xE0 SHL DUP2 MSTORE SWAP1 DUP2 ADD DUP5 SWAP1 MSTORE PUSH1 0x24 SWAP1 REVERT JUMPDEST DUP5 DUP1 REVERT JUMPDEST DUP3 DUP1 REVERT JUMPDEST DUP4 DUP3 CALLVALUE PUSH2 0x125 JUMPI DUP2 PUSH1 0x3 NOT CALLDATASIZE ADD SLT PUSH2 0x125 JUMPI SWAP1 SLOAD SWAP1 MLOAD PUSH1 0x1 PUSH1 0x1 PUSH1 0xA0 SHL SUB SWAP1 SWAP2 AND DUP2 MSTORE PUSH1 0x20 SWAP1 RETURN JUMPDEST POP DUP1 REVERT JUMPDEST POP DUP3 CALLVALUE PUSH2 0x187 JUMPI PUSH1 0x20 CALLDATASIZE PUSH1 0x3 NOT ADD SLT PUSH2 0x187 JUMPI DUP3 CALLDATALOAD SWAP1 PUSH8 0xFFFFFFFFFFFFFFFF DUP3 GT PUSH2 0x187 JUMPI POP PUSH1 0x20 SWAP3 PUSH2 0x15E SWAP2 CALLDATASIZE SWAP2 ADD PUSH2 0x4DC JUMP JUMPDEST PUSH2 0x16A DUP3 MLOAD DUP1 SWAP3 PUSH2 0x54C JUMP JUMPDEST PUSH1 0x1 DUP2 MSTORE DUP2 SWAP1 SUB DUP4 ADD SWAP1 KECCAK256 SLOAD SWAP1 MLOAD PUSH1 0x1 PUSH1 0x1 PUSH1 0xA0 SHL SUB SWAP1 SWAP2 AND DUP2 MSTORE RETURN JUMPDEST DUP1 REVERT JUMPDEST DUP4 CALLVALUE PUSH2 0x187 JUMPI DUP1 PUSH1 0x3 NOT CALLDATASIZE ADD SLT PUSH2 0x187 JUMPI PUSH2 0x1A3 PUSH2 0x5A1 JUMP JUMPDEST DUP1 SLOAD PUSH1 0x1 PUSH1 0x1 PUSH1 0xA0 SHL SUB NOT DUP2 AND DUP3 SSTORE DUP2 SWAP1 PUSH1 0x1 PUSH1 0x1 PUSH1 0xA0 SHL SUB AND PUSH32 0x8BE0079C531659141344CD1FD0A4F28419497F9722A3DAAFE3B4186F6B6457E0 DUP3 DUP1 LOG3 DUP1 RETURN JUMPDEST POP SWAP1 CALLVALUE PUSH2 0xF9 JUMPI DUP2 PUSH1 0x3 NOT CALLDATASIZE ADD SLT PUSH2 0xF9 JUMPI DUP1 CALLDATALOAD SWAP1 PUSH8 0xFFFFFFFFFFFFFFFF DUP3 GT PUSH2 0x293 JUMPI PUSH2 0x214 SWAP2 CALLDATASIZE SWAP2 ADD PUSH2 0x4DC JUMP JUMPDEST PUSH1 0x24 CALLDATALOAD PUSH1 0x1 PUSH1 0x1 PUSH1 0xA0 SHL SUB DUP2 AND SWAP3 SWAP2 SWAP1 DUP4 SWAP1 SUB PUSH2 0x293 JUMPI PUSH2 0x269 SWAP2 PUSH2 0x237 PUSH2 0x5A1 JUMP JUMPDEST DUP1 MLOAD PUSH1 0x20 DUP2 PUSH2 0x246 DUP2 DUP7 PUSH2 0x54C JUMP JUMPDEST PUSH1 0x1 DUP2 MSTORE SUB ADD SWAP1 KECCAK256 DUP1 SLOAD PUSH1 0x1 PUSH1 0x1 PUSH1 0xA0 SHL SUB NOT AND DUP6 OR SWAP1 SSTORE MLOAD SWAP2 DUP3 SWAP2 DUP3 SWAP1 PUSH2 0x54C JUMP JUMPDEST SUB SWAP1 KECCAK256 PUSH32 0x943E9D45A11AAAE5D87503E3BC248665D9807856E5CF2BDB4A988BEE44422781 DUP4 DUP1 LOG3 DUP1 RETURN JUMPDEST DUP4 DUP1 REVERT JUMPDEST POP CALLVALUE PUSH2 0xF9 JUMPI DUP1 PUSH1 0x3 NOT CALLDATASIZE ADD SLT PUSH2 0xF9 JUMPI PUSH8 0xFFFFFFFFFFFFFFFF DUP3 CALLDATALOAD DUP2 DUP2 GT PUSH2 0xF5 JUMPI CALLDATASIZE PUSH1 0x23 DUP3 ADD SLT ISZERO PUSH2 0xF5 JUMPI DUP1 DUP5 ADD CALLDATALOAD SWAP4 PUSH1 0x24 PUSH2 0x2DD PUSH2 0x2D8 DUP8 PUSH2 0x534 JUMP JUMPDEST PUSH2 0x4A0 JUMP JUMPDEST SWAP3 DUP4 SWAP7 DUP1 DUP6 MSTORE DUP3 PUSH1 0x20 DUP1 SWAP7 ADD SWAP2 PUSH1 0x5 SHL DUP4 ADD ADD SWAP2 CALLDATASIZE DUP4 GT PUSH2 0x46E JUMPI DUP4 DUP2 ADD SWAP2 JUMPDEST DUP4 DUP4 LT PUSH2 0x476 JUMPI POP POP POP POP DUP1 CALLDATALOAD SWAP4 DUP5 GT PUSH2 0x472 JUMPI CALLDATASIZE PUSH1 0x23 DUP6 ADD SLT ISZERO PUSH2 0x472 JUMPI DUP4 DUP3 ADD CALLDATALOAD SWAP4 PUSH2 0x32D PUSH2 0x2D8 DUP7 PUSH2 0x534 JUMP JUMPDEST SWAP5 DUP3 DUP6 DUP8 DUP4 DUP2 MSTORE ADD SWAP2 PUSH1 0x5 SHL DUP4 ADD ADD SWAP2 CALLDATASIZE DUP4 GT PUSH2 0x46E JUMPI DUP4 ADD SWAP1 JUMPDEST DUP3 DUP3 LT PUSH2 0x44B JUMPI POP POP POP PUSH2 0x35A PUSH2 0x5A1 JUMP JUMPDEST DUP6 MLOAD DUP5 MLOAD SUB PUSH2 0x412 JUMPI POP POP DUP5 JUMPDEST DUP5 MLOAD DUP2 LT ISZERO PUSH2 0x40E JUMPI PUSH1 0x1 SWAP1 PUSH1 0x1 PUSH1 0x1 PUSH1 0xA0 SHL SUB DUP1 PUSH2 0x386 DUP4 DUP8 PUSH2 0x577 JUMP JUMPDEST MLOAD AND PUSH2 0x3A2 DUP6 PUSH2 0x396 DUP6 DUP12 PUSH2 0x577 JUMP JUMPDEST MLOAD DUP10 MLOAD SWAP3 DUP4 DUP1 SWAP3 PUSH2 0x54C JUMP JUMPDEST DUP8 DUP2 MSTORE SUB ADD SWAP1 KECCAK256 DUP1 SLOAD PUSH1 0x1 PUSH1 0x1 PUSH1 0xA0 SHL SUB NOT AND SWAP1 SWAP2 OR SWAP1 SSTORE PUSH2 0x3E1 PUSH2 0x3C7 DUP4 DUP10 PUSH2 0x577 JUMP JUMPDEST MLOAD SWAP2 PUSH2 0x3D3 DUP5 DUP9 PUSH2 0x577 JUMP JUMPDEST MLOAD AND SWAP2 DUP8 MLOAD SWAP2 DUP3 DUP1 SWAP3 PUSH2 0x54C JUMP JUMPDEST SUB SWAP1 KECCAK256 PUSH32 0x943E9D45A11AAAE5D87503E3BC248665D9807856E5CF2BDB4A988BEE44422781 DUP10 DUP1 LOG3 ADD PUSH2 0x367 JUMP JUMPDEST DUP6 DUP1 RETURN JUMPDEST PUSH1 0x16 SWAP1 PUSH1 0x64 SWAP4 DUP7 MLOAD SWAP4 PUSH3 0x461BCD PUSH1 0xE5 SHL DUP6 MSTORE DUP5 ADD MSTORE DUP3 ADD MSTORE PUSH22 0x82E4E4C2F2E640D8CADCCEE8D040DAD2E6DAC2E8C6D PUSH1 0x53 SHL PUSH1 0x44 DUP3 ADD MSTORE REVERT JUMPDEST DUP2 CALLDATALOAD PUSH1 0x1 PUSH1 0x1 PUSH1 0xA0 SHL SUB DUP2 AND DUP2 SUB PUSH2 0x46A JUMPI DUP2 MSTORE SWAP1 DUP6 ADD SWAP1 DUP6 ADD PUSH2 0x348 JUMP JUMPDEST DUP11 DUP1 REVERT JUMPDEST DUP10 DUP1 REVERT JUMPDEST DUP7 DUP1 REVERT JUMPDEST DUP3 CALLDATALOAD DUP9 DUP2 GT PUSH2 0x49C JUMPI DUP8 SWAP2 PUSH2 0x491 DUP4 SWAP3 DUP9 CALLDATASIZE SWAP2 DUP8 ADD ADD PUSH2 0x4DC JUMP JUMPDEST DUP2 MSTORE ADD SWAP3 ADD SWAP2 PUSH2 0x2FD JUMP JUMPDEST DUP12 DUP1 REVERT JUMPDEST PUSH1 0x40 MLOAD SWAP2 SWAP1 PUSH1 0x1F ADD PUSH1 0x1F NOT AND DUP3 ADD PUSH8 0xFFFFFFFFFFFFFFFF DUP2 GT DUP4 DUP3 LT OR PUSH2 0x4C6 JUMPI PUSH1 0x40 MSTORE JUMP JUMPDEST PUSH4 0x4E487B71 PUSH1 0xE0 SHL PUSH1 0x0 MSTORE PUSH1 0x41 PUSH1 0x4 MSTORE PUSH1 0x24 PUSH1 0x0 REVERT JUMPDEST DUP2 PUSH1 0x1F DUP3 ADD SLT ISZERO PUSH2 0x52F JUMPI DUP1 CALLDATALOAD SWAP1 PUSH8 0xFFFFFFFFFFFFFFFF DUP3 GT PUSH2 0x4C6 JUMPI PUSH2 0x50C PUSH1 0x1F DUP4 ADD PUSH1 0x1F NOT AND PUSH1 0x20 ADD PUSH2 0x4A0 JUMP JUMPDEST SWAP3 DUP3 DUP5 MSTORE PUSH1 0x20 DUP4 DUP4 ADD ADD GT PUSH2 0x52F JUMPI DUP2 PUSH1 0x0 SWAP3 PUSH1 0x20 DUP1 SWAP4 ADD DUP4 DUP7 ADD CALLDATACOPY DUP4 ADD ADD MSTORE SWAP1 JUMP JUMPDEST PUSH1 0x0 DUP1 REVERT JUMPDEST PUSH8 0xFFFFFFFFFFFFFFFF DUP2 GT PUSH2 0x4C6 JUMPI PUSH1 0x5 SHL PUSH1 0x20 ADD SWAP1 JUMP JUMPDEST SWAP1 DUP2 MLOAD SWAP2 PUSH1 0x0 JUMPDEST DUP4 DUP2 LT PUSH2 0x564 JUMPI POP POP ADD PUSH1 0x0 DUP2 MSTORE SWAP1 JUMP JUMPDEST DUP1 PUSH1 0x20 DUP1 SWAP3 DUP5 ADD ADD MLOAD DUP2 DUP6 ADD MSTORE ADD PUSH2 0x553 JUMP JUMPDEST DUP1 MLOAD DUP3 LT ISZERO PUSH2 0x58B JUMPI PUSH1 0x20 SWAP2 PUSH1 0x5 SHL ADD ADD SWAP1 JUMP JUMPDEST PUSH4 0x4E487B71 PUSH1 0xE0 SHL PUSH1 0x0 MSTORE PUSH1 0x32 PUSH1 0x4 MSTORE PUSH1 0x24 PUSH1 0x0 REVERT JUMPDEST PUSH1 0x0 SLOAD PUSH1 0x1 PUSH1 0x1 PUSH1 0xA0 SHL SUB AND CALLER SUB PUSH2 0x5B5 JUMPI JUMP JUMPDEST PUSH1 0x40 MLOAD PUSH4 0x118CDAA7 PUSH1 0xE0 SHL DUP2 MSTORE CALLER PUSH1 0x4 DUP3 ADD MSTORE PUSH1 0x24 SWAP1 REVERT INVALID LOG1 PUSH5 0x736F6C6343 STOP ADDMOD XOR STOP EXP "},"methodIdentifiers":{"contracts(string)":"8c5b8385","getContractAddress(string)":"04433bbc","owner()":"8da5cb5b","renounceOwnership()":"715018a6","transferOwnership(address)":"f2fde38b","updateAddress(string,address)":"3e21750a","updateAddresses(string[],address[])":"21b55192"}}}}}