{"contracts/NodeRegistry.sol":{"NodeRegistry":{"abi":[{"inputs":[],"stateMutability":"nonpayable","type":"constructor"},{"inputs":[{"internalType":"address","name":"owner","type":"address"}],"name":"OwnableInvalidOwner","type":"error"},{"inputs":[{"internalType":"address","name":"account","type":"address"}],"name":"OwnableUnauthorizedAccount","type":"error"},{"anonymous":false,"inputs":[{"indexed":true,"internalType":"address","name":"wallet","type":"address"},{"indexed":false,"internalType":"string","name":"ip","type":"string"}],"name":"NodeDeactivated","type":"event"},{"anonymous":false,"inputs":[{"indexed":true,"internalType":"address","name":"wallet","type":"address"},{"indexed":false,"internalType":"string","name":"ip","type":"string"}],"name":"NodeReactivated","type":"event"},{"anonymous":false,"inputs":[{"indexed":true,"internalType":"address","name":"wallet","type":"address"},{"indexed":false,"internalType":"string","name":"ip","type":"string"},{"indexed":false,"internalType":"uint16","name":"port","type":"uint16"}],"name":"NodeRegistered","type":"event"},{"anonymous":false,"inputs":[{"indexed":true,"internalType":"address","name":"previousOwner","type":"address"},{"indexed":true,"internalType":"address","name":"newOwner","type":"address"}],"name":"OwnershipTransferred","type":"event"},{"inputs":[{"internalType":"uint256","name":"","type":"uint256"}],"name":"activeNodes","outputs":[{"internalType":"string","name":"ip","type":"string"},{"internalType":"uint16","name":"port","type":"uint16"},{"internalType":"address","name":"wallet","type":"address"},{"internalType":"uint256","name":"registeredAt","type":"uint256"},{"internalType":"bool","name":"active","type":"bool"}],"stateMutability":"view","type":"function"},{"inputs":[{"internalType":"address","name":"_wallet","type":"address"}],"name":"forceUnregisterNode","outputs":[],"stateMutability":"nonpayable","type":"function"},{"inputs":[],"name":"getActiveNodeCount","outputs":[{"internalType":"uint256","name":"","type":"uint256"}],"stateMutability":"view","type":"function"},{"inputs":[],"name":"getActiveNodes","outputs":[{"components":[{"internalType":"string","name":"ip","type":"string"},{"internalType":"uint16","name":"port","type":"uint16"},{"internalType":"address","name":"wallet","type":"address"},{"internalType":"uint256","name":"registeredAt","type":"uint256"},{"internalType":"bool","name":"active","type":"bool"}],"internalType":"struct NodeRegistry.NodeInfo[]","name":"","type":"tuple[]"}],"stateMutability":"view","type":"function"},{"inputs":[{"internalType":"string","name":"","type":"string"}],"name":"ipRegistered","outputs":[{"internalType":"bool","name":"","type":"bool"}],"stateMutability":"view","type":"function"},{"inputs":[{"internalType":"address","name":"_wallet","type":"address"}],"name":"isNodeActive","outputs":[{"internalType":"bool","name":"","type":"bool"}],"stateMutability":"view","type":"function"},{"inputs":[{"internalType":"address","name":"","type":"address"}],"name":"nodeIndex","outputs":[{"internalType":"uint256","name":"","type":"uint256"}],"stateMutability":"view","type":"function"},{"inputs":[],"name":"owner","outputs":[{"internalType":"address","name":"","type":"address"}],"stateMutability":"view","type":"function"},{"inputs":[{"internalType":"string","name":"_ip","type":"string"},{"internalType":"uint16","name":"_port","type":"uint16"}],"name":"registerNode","outputs":[],"stateMutability":"nonpayable","type":"function"},{"inputs":[],"name":"renounceOwnership","outputs":[],"stateMutability":"nonpayable","type":"function"},{"inputs":[{"internalType":"address","name":"newOwner","type":"address"}],"name":"transferOwnership","outputs":[],"stateMutability":"nonpayable","type":"function"},{"inputs":[],"name":"unregisterNode","outputs":[],"stateMutability":"nonpayable","type":"function"}],"evm":{"bytecode":{"linkReferences":{},"object":"6080806040523461007a5733156100645760008054336001600160a01b03198216811783556040519290916001600160a01b0316907f8be0079c531659141344cd1fd0a4f28419497f9722a3daafe3b4186f6b6457e09080a36110cb90816100808239f35b631e4fbdf760e01b815260006004820152602490fd5b600080fdfe6080604052600436101561001257600080fd5b60003560e01c80630bca8d79146107a35780633d385cf5146106be5780636b51e91914610460578063715018a6146104075780638da5cb5b146103de5780638faeddc7146103025780639407af1f146102c957806396f9d9831461022f578063c5ea2b87146101d5578063d673de4614610197578063e894188a146101355763f2fde38b146100a057600080fd5b34610130576020366003190112610130576004356001600160a01b0381811691829003610130576100cf611092565b811561011757600054826bffffffffffffffffffffffff60a01b821617600055167f8be0079c531659141344cd1fd0a4f28419497f9722a3daafe3b4186f6b6457e0600080a3005b604051631e4fbdf760e01b815260006004820152602490fd5b600080fd5b346101305760203660031901126101305760043567ffffffffffffffff81116101305760ff610181602061016e81943690600401610d7e565b8160405193828580945193849201610dd5565b8101600381520301902054166040519015158152f35b34610130576020366003190112610130576004356001600160a01b038116908190036101305760005260026020526020604060002054604051908152f35b346101305760003660031901126101305760018054600090815b81811061020157602083604051908152f35b8060ff60036102108794610e1d565b5001541661021f575b016101ef565b926102299061102b565b92610219565b34610130576020366003190112610130576004356001548110156101305761025961029b91610e1d565b50604051906102738261026c8184610ea7565b0383610d5c565b60018101549060ff60036002830154920154169060405194859460a0865260a0860190610df8565b61ffff8416602086015260109390931c6001600160a01b031660408501526060840152151560808301520390f35b34610130576020366003190112610130576004356001600160a01b0381168103610130576102f860209161104e565b6040519015158152f35b34610130576020366003190112610130576004356001600160a01b0381169081900361013057610330611092565b8060005260026020526103496040600020541515610f3d565b80600052600260205260406000205460001981019081116103c8576103c36103917f7d4442641ef9cf201769cbb64e481e45bdcb2113c1f5a2e03054a958659f1e8392610e1d565b506003810160ff19908181541690556103a982610f7f565b908154169055604051918291602083526020830190610ea7565b0390a2005b634e487b7160e01b600052601160045260246000fd5b34610130576000366003190112610130576000546040516001600160a01b039091168152602090f35b3461013057600036600319011261013057610420611092565b600080546001600160a01b0319811682556001600160a01b03167f8be0079c531659141344cd1fd0a4f28419497f9722a3daafe3b4186f6b6457e08280a3005b34610130576000366003190112610130576040516020908181019080821067ffffffffffffffff8311176106a85760009160405252600080600190600154905b81811061067857506104b183611013565b926104bf6040519485610d5c565b8084526104ce601f1991611013565b018460005b828110610642575050506000805b8281106105915750505090604051928392818401828552835180915260408501928060408360051b8801019501936000905b8382106105205787870388f35b918496819592949698508190603f198b820301855289519061054b60a0835190808452830190610df8565b9161ffff84820151168483015260018060a01b03604082015116604083015260608082015190830152608080910151151591015298019201920187969593919492610513565b8061059c8592610e1d565b5060ff80600380930154166105b4575b5050016104e1565b908294916105c461063a94610e1d565b5091604051926105d384610d40565b6040516105eb816105e48185610ea7565b0382610d5c565b84528087015461ffff81168d86015260101c6001600160a01b031660408501526002810154606085015201541615156080820152610629828961103a565b52610634818861103a565b5061102b565b9187806105ac565b60405161064e81610d40565b600060608083528185840152816040840152820152600060808201528282880101520185906104d3565b60ff600361068583610e1d565b50015416610695575b82016104a0565b926106a0839161102b565b93905061068e565b634e487b7160e01b600052604160045260246000fd5b34610130576000366003190112610130573360005260026020526106e86040600020541515610f3d565b33600052600260205260406000205460001981019081116103c85761070c90610e1d565b506003810180549060ff82161561076c5760ff19918216905561072e82610f7f565b9081541690557f7d4442641ef9cf201769cbb64e481e45bdcb2113c1f5a2e03054a958659f1e8360405160208152806103c333946020830190610ea7565b60405162461bcd60e51b815260206004820152600f60248201526e4e6f6465206e6f742061637469766560881b6044820152606490fd5b346101305760403660031901126101305767ffffffffffffffff600435818111610130576107d5903690600401610d7e565b906024359161ffff8316830361013057805115610d065761ffff831615610cc15760ff604051602081845161080d8183858901610dd5565b810160038152030190205416610c84573360005260026020526040600020548015600014610a9957506040519161084383610d40565b81835261ffff8416602084015233604084015242606084015260016080840152600154680100000000000000008110156106a8578060016108879201600155610e1d565b919091610a8357835180519182116106a8576108a38354610e6d565b601f8111610a3f575b50602090601f83116001146109d1579180608094926003946000926109c6575b50508160011b9160001990851b1c19161781555b6001810161ffff60208701511681549062010000600160b01b03604089015160101b169169ffffffffffffffffffff60b01b1617179055606085015160028201550192015115159160ff199260ff84835416911617905560015491826000198101116103c8577f4da2517be3ced8d91603c36095d6df59c154202332590203c4be65624b92eee2923360005260026020526040600020556001604051602081855161098e8183858a01610dd5565b810160038152030190209182541617905561ffff6109b760405192604084526040840190610df8565b931660208201528033930390a2005b0151905088806108cc565b908360005260206000209160005b601f1985168110610a275750926080949260019260039583601f19811610610a0f575b505050811b0181556108e0565b015160001983871b60f8161c19169055888080610a02565b919260206001819286850151815501940192016109df565b836000526020600020601f840160051c810160208510610a7c575b601f830160051c82018110610a705750506108ac565b60008155600101610a5a565b5080610a5a565b634e487b7160e01b600052600060045260246000fd5b90926000199290918381019081116103c857610ab490610e1d565b5090600382019360ff855416610c495785519182116106a857610ad78354610e6d565b601f8111610c01575b506020601f8311600114610b9457918061ffff9492600194600092610b89575b5082851b9260031b1c19161781555b01911661ffff1982541617905560ff199060018282541617905560016040516020818551610b408183858a01610dd5565b81016003815203019020918254161790557f586f841fac1aa0d2e00e5b989a5ff672b5ef45b1f256f60715d921ae9652a49f60405160208152806103c333946020830190610df8565b890151915089610b00565b90601f198316918460005260206000209260005b818110610be9575092600194919285938361ffff989610610bd1575b505050811b018155610b0f565b8a01519060f88460031b161c19169055888080610bc4565b9193602060018192878d015181550195019201610ba8565b836000526020600020601f840160051c81019160208510610c3f575b601f0160051c01905b818110610c335750610ae0565b60008155600101610c26565b9091508190610c1d565b60405162461bcd60e51b81526020600482015260136024820152724e6f646520616c72656164792061637469766560681b6044820152606490fd5b60405162461bcd60e51b8152602060048201526015602482015274125408185b1c9958591e481c9959da5cdd195c9959605a1b6044820152606490fd5b60405162461bcd60e51b815260206004820152601b60248201527f506f7274206d7573742062652067726561746572207468616e203000000000006044820152606490fd5b60405162461bcd60e51b815260206004820152601260248201527149502063616e6e6f7420626520656d70747960701b6044820152606490fd5b60a0810190811067ffffffffffffffff8211176106a857604052565b90601f8019910116810190811067ffffffffffffffff8211176106a857604052565b81601f820112156101305780359067ffffffffffffffff82116106a85760405192610db3601f8401601f191660200185610d5c565b8284526020838301011161013057816000926020809301838601378301015290565b60005b838110610de85750506000910152565b8181015183820152602001610dd8565b90602091610e1181518092818552858086019101610dd5565b601f01601f1916010190565b600154811015610e5757600160005260021b7fb10e2d527612073b26eecdfd717e6a320cf44b4afac2b0732d9fcbe2b7fa0cf60190600090565b634e487b7160e01b600052603260045260246000fd5b90600182811c92168015610e9d575b6020831014610e8757565b634e487b7160e01b600052602260045260246000fd5b91607f1691610e7c565b805460009392610eb682610e6d565b91828252602093600191600181169081600014610f1e5750600114610edd575b5050505050565b90939495506000929192528360002092846000945b838610610f0a57505050500101903880808080610ed6565b805485870183015294019385908201610ef2565b60ff19168685015250505090151560051b010191503880808080610ed6565b15610f4457565b60405162461bcd60e51b8152602060048201526013602482015272139bd919481b9bdd081c9959da5cdd195c9959606a1b6044820152606490fd5b604051908160008254610f9181610e6d565b93600191808316908115610ff75750600114610fb9575b505060209250600381520301902090565b9091506000526020906020600020906000915b858310610fe3575050505060209181013880610fa8565b805487840152869450918301918101610fcc565b92505050602093915060ff191682528015150281013880610fa8565b67ffffffffffffffff81116106a85760051b60200190565b60001981146103c85760010190565b8051821015610e575760209160051b010190565b6001600160a01b0316600090815260026020526040902054801561108c5760001981019081116103c857600361108560ff92610e1d565b5001541690565b50600090565b6000546001600160a01b031633036110a657565b60405163118cdaa760e01b8152336004820152602490fdfea164736f6c6343000818000a","opcodes":"PUSH1 0x80 DUP1 PUSH1 0x40 MSTORE CALLVALUE PUSH2 0x7A JUMPI CALLER ISZERO PUSH2 0x64 JUMPI PUSH1 0x0 DUP1 SLOAD CALLER PUSH1 0x1 PUSH1 0x1 PUSH1 0xA0 SHL SUB NOT DUP3 AND DUP2 OR DUP4 SSTORE PUSH1 0x40 MLOAD SWAP3 SWAP1 SWAP2 PUSH1 0x1 PUSH1 0x1 PUSH1 0xA0 SHL SUB AND SWAP1 PUSH32 0x8BE0079C531659141344CD1FD0A4F28419497F9722A3DAAFE3B4186F6B6457E0 SWAP1 DUP1 LOG3 PUSH2 0x10CB SWAP1 DUP2 PUSH2 0x80 DUP3 CODECOPY RETURN JUMPDEST PUSH4 0x1E4FBDF7 PUSH1 0xE0 SHL DUP2 MSTORE PUSH1 0x0 PUSH1 0x4 DUP3 ADD MSTORE PUSH1 0x24 SWAP1 REVERT JUMPDEST PUSH1 0x0 DUP1 REVERT INVALID PUSH1 0x80 PUSH1 0x40 MSTORE PUSH1 0x4 CALLDATASIZE LT ISZERO PUSH2 0x12 JUMPI PUSH1 0x0 DUP1 REVERT JUMPDEST PUSH1 0x0 CALLDATALOAD PUSH1 0xE0 SHR DUP1 PUSH4 0xBCA8D79 EQ PUSH2 0x7A3 JUMPI DUP1 PUSH4 0x3D385CF5 EQ PUSH2 0x6BE JUMPI DUP1 PUSH4 0x6B51E919 EQ PUSH2 0x460 JUMPI DUP1 PUSH4 0x715018A6 EQ PUSH2 0x407 JUMPI DUP1 PUSH4 0x8DA5CB5B EQ PUSH2 0x3DE JUMPI DUP1 PUSH4 0x8FAEDDC7 EQ PUSH2 0x302 JUMPI DUP1 PUSH4 0x9407AF1F EQ PUSH2 0x2C9 JUMPI DUP1 PUSH4 0x96F9D983 EQ PUSH2 0x22F JUMPI DUP1 PUSH4 0xC5EA2B87 EQ PUSH2 0x1D5 JUMPI DUP1 PUSH4 0xD673DE46 EQ PUSH2 0x197 JUMPI DUP1 PUSH4 0xE894188A EQ PUSH2 0x135 JUMPI PUSH4 0xF2FDE38B EQ PUSH2 0xA0 JUMPI PUSH1 0x0 DUP1 REVERT JUMPDEST CALLVALUE PUSH2 0x130 JUMPI PUSH1 0x20 CALLDATASIZE PUSH1 0x3 NOT ADD SLT PUSH2 0x130 JUMPI PUSH1 0x4 CALLDATALOAD PUSH1 0x1 PUSH1 0x1 PUSH1 0xA0 SHL SUB DUP2 DUP2 AND SWAP2 DUP3 SWAP1 SUB PUSH2 0x130 JUMPI PUSH2 0xCF PUSH2 0x1092 JUMP JUMPDEST DUP2 ISZERO PUSH2 0x117 JUMPI PUSH1 0x0 SLOAD DUP3 PUSH12 0xFFFFFFFFFFFFFFFFFFFFFFFF PUSH1 0xA0 SHL DUP3 AND OR PUSH1 0x0 SSTORE AND PUSH32 0x8BE0079C531659141344CD1FD0A4F28419497F9722A3DAAFE3B4186F6B6457E0 PUSH1 0x0 DUP1 LOG3 STOP JUMPDEST PUSH1 0x40 MLOAD PUSH4 0x1E4FBDF7 PUSH1 0xE0 SHL DUP2 MSTORE PUSH1 0x0 PUSH1 0x4 DUP3 ADD MSTORE PUSH1 0x24 SWAP1 REVERT JUMPDEST PUSH1 0x0 DUP1 REVERT JUMPDEST CALLVALUE PUSH2 0x130 JUMPI PUSH1 0x20 CALLDATASIZE PUSH1 0x3 NOT ADD SLT PUSH2 0x130 JUMPI PUSH1 0x4 CALLDATALOAD PUSH8 0xFFFFFFFFFFFFFFFF DUP2 GT PUSH2 0x130 JUMPI PUSH1 0xFF PUSH2 0x181 PUSH1 0x20 PUSH2 0x16E DUP2 SWAP5 CALLDATASIZE SWAP1 PUSH1 0x4 ADD PUSH2 0xD7E JUMP JUMPDEST DUP2 PUSH1 0x40 MLOAD SWAP4 DUP3 DUP6 DUP1 SWAP5 MLOAD SWAP4 DUP5 SWAP3 ADD PUSH2 0xDD5 JUMP JUMPDEST DUP2 ADD PUSH1 0x3 DUP2 MSTORE SUB ADD SWAP1 KECCAK256 SLOAD AND PUSH1 0x40 MLOAD SWAP1 ISZERO ISZERO DUP2 MSTORE RETURN JUMPDEST CALLVALUE PUSH2 0x130 JUMPI PUSH1 0x20 CALLDATASIZE PUSH1 0x3 NOT ADD SLT PUSH2 0x130 JUMPI PUSH1 0x4 CALLDATALOAD PUSH1 0x1 PUSH1 0x1 PUSH1 0xA0 SHL SUB DUP2 AND SWAP1 DUP2 SWAP1 SUB PUSH2 0x130 JUMPI PUSH1 0x0 MSTORE PUSH1 0x2 PUSH1 0x20 MSTORE PUSH1 0x20 PUSH1 0x40 PUSH1 0x0 KECCAK256 SLOAD PUSH1 0x40 MLOAD SWAP1 DUP2 MSTORE RETURN JUMPDEST CALLVALUE PUSH2 0x130 JUMPI PUSH1 0x0 CALLDATASIZE PUSH1 0x3 NOT ADD SLT PUSH2 0x130 JUMPI PUSH1 0x1 DUP1 SLOAD PUSH1 0x0 SWAP1 DUP2 JUMPDEST DUP2 DUP2 LT PUSH2 0x201 JUMPI PUSH1 0x20 DUP4 PUSH1 0x40 MLOAD SWAP1 DUP2 MSTORE RETURN JUMPDEST DUP1 PUSH1 0xFF PUSH1 0x3 PUSH2 0x210 DUP8 SWAP5 PUSH2 0xE1D JUMP JUMPDEST POP ADD SLOAD AND PUSH2 0x21F JUMPI JUMPDEST ADD PUSH2 0x1EF JUMP JUMPDEST SWAP3 PUSH2 0x229 SWAP1 PUSH2 0x102B JUMP JUMPDEST SWAP3 PUSH2 0x219 JUMP JUMPDEST CALLVALUE PUSH2 0x130 JUMPI PUSH1 0x20 CALLDATASIZE PUSH1 0x3 NOT ADD SLT PUSH2 0x130 JUMPI PUSH1 0x4 CALLDATALOAD PUSH1 0x1 SLOAD DUP2 LT ISZERO PUSH2 0x130 JUMPI PUSH2 0x259 PUSH2 0x29B SWAP2 PUSH2 0xE1D JUMP JUMPDEST POP PUSH1 0x40 MLOAD SWAP1 PUSH2 0x273 DUP3 PUSH2 0x26C DUP2 DUP5 PUSH2 0xEA7 JUMP JUMPDEST SUB DUP4 PUSH2 0xD5C JUMP JUMPDEST PUSH1 0x1 DUP2 ADD SLOAD SWAP1 PUSH1 0xFF PUSH1 0x3 PUSH1 0x2 DUP4 ADD SLOAD SWAP3 ADD SLOAD AND SWAP1 PUSH1 0x40 MLOAD SWAP5 DUP6 SWAP5 PUSH1 0xA0 DUP7 MSTORE PUSH1 0xA0 DUP7 ADD SWAP1 PUSH2 0xDF8 JUMP JUMPDEST PUSH2 0xFFFF DUP5 AND PUSH1 0x20 DUP7 ADD MSTORE PUSH1 0x10 SWAP4 SWAP1 SWAP4 SHR PUSH1 0x1 PUSH1 0x1 PUSH1 0xA0 SHL SUB AND PUSH1 0x40 DUP6 ADD MSTORE PUSH1 0x60 DUP5 ADD MSTORE ISZERO ISZERO PUSH1 0x80 DUP4 ADD MSTORE SUB SWAP1 RETURN JUMPDEST CALLVALUE PUSH2 0x130 JUMPI PUSH1 0x20 CALLDATASIZE PUSH1 0x3 NOT ADD SLT PUSH2 0x130 JUMPI PUSH1 0x4 CALLDATALOAD PUSH1 0x1 PUSH1 0x1 PUSH1 0xA0 SHL SUB DUP2 AND DUP2 SUB PUSH2 0x130 JUMPI PUSH2 0x2F8 PUSH1 0x20 SWAP2 PUSH2 0x104E JUMP JUMPDEST PUSH1 0x40 MLOAD SWAP1 ISZERO ISZERO DUP2 MSTORE RETURN JUMPDEST CALLVALUE PUSH2 0x130 JUMPI PUSH1 0x20 CALLDATASIZE PUSH1 0x3 NOT ADD SLT PUSH2 0x130 JUMPI PUSH1 0x4 CALLDATALOAD PUSH1 0x1 PUSH1 0x1 PUSH1 0xA0 SHL SUB DUP2 AND SWAP1 DUP2 SWAP1 SUB PUSH2 0x130 JUMPI PUSH2 0x330 PUSH2 0x1092 JUMP JUMPDEST DUP1 PUSH1 0x0 MSTORE PUSH1 0x2 PUSH1 0x20 MSTORE PUSH2 0x349 PUSH1 0x40 PUSH1 0x0 KECCAK256 SLOAD ISZERO ISZERO PUSH2 0xF3D JUMP JUMPDEST DUP1 PUSH1 0x0 MSTORE PUSH1 0x2 PUSH1 0x20 MSTORE PUSH1 0x40 PUSH1 0x0 KECCAK256 SLOAD PUSH1 0x0 NOT DUP2 ADD SWAP1 DUP2 GT PUSH2 0x3C8 JUMPI PUSH2 0x3C3 PUSH2 0x391 PUSH32 0x7D4442641EF9CF201769CBB64E481E45BDCB2113C1F5A2E03054A958659F1E83 SWAP3 PUSH2 0xE1D JUMP JUMPDEST POP PUSH1 0x3 DUP2 ADD PUSH1 0xFF NOT SWAP1 DUP2 DUP2 SLOAD AND SWAP1 SSTORE PUSH2 0x3A9 DUP3 PUSH2 0xF7F JUMP JUMPDEST SWAP1 DUP2 SLOAD AND SWAP1 SSTORE PUSH1 0x40 MLOAD SWAP2 DUP3 SWAP2 PUSH1 0x20 DUP4 MSTORE PUSH1 0x20 DUP4 ADD SWAP1 PUSH2 0xEA7 JUMP JUMPDEST SUB SWAP1 LOG2 STOP JUMPDEST PUSH4 0x4E487B71 PUSH1 0xE0 SHL PUSH1 0x0 MSTORE PUSH1 0x11 PUSH1 0x4 MSTORE PUSH1 0x24 PUSH1 0x0 REVERT JUMPDEST CALLVALUE PUSH2 0x130 JUMPI PUSH1 0x0 CALLDATASIZE PUSH1 0x3 NOT ADD SLT PUSH2 0x130 JUMPI PUSH1 0x0 SLOAD PUSH1 0x40 MLOAD PUSH1 0x1 PUSH1 0x1 PUSH1 0xA0 SHL SUB SWAP1 SWAP2 AND DUP2 MSTORE PUSH1 0x20 SWAP1 RETURN JUMPDEST CALLVALUE PUSH2 0x130 JUMPI PUSH1 0x0 CALLDATASIZE PUSH1 0x3 NOT ADD SLT PUSH2 0x130 JUMPI PUSH2 0x420 PUSH2 0x1092 JUMP JUMPDEST PUSH1 0x0 DUP1 SLOAD PUSH1 0x1 PUSH1 0x1 PUSH1 0xA0 SHL SUB NOT DUP2 AND DUP3 SSTORE PUSH1 0x1 PUSH1 0x1 PUSH1 0xA0 SHL SUB AND PUSH32 0x8BE0079C531659141344CD1FD0A4F28419497F9722A3DAAFE3B4186F6B6457E0 DUP3 DUP1 LOG3 STOP JUMPDEST CALLVALUE PUSH2 0x130 JUMPI PUSH1 0x0 CALLDATASIZE PUSH1 0x3 NOT ADD SLT PUSH2 0x130 JUMPI PUSH1 0x40 MLOAD PUSH1 0x20 SWAP1 DUP2 DUP2 ADD SWAP1 DUP1 DUP3 LT PUSH8 0xFFFFFFFFFFFFFFFF DUP4 GT OR PUSH2 0x6A8 JUMPI PUSH1 0x0 SWAP2 PUSH1 0x40 MSTORE MSTORE PUSH1 0x0 DUP1 PUSH1 0x1 SWAP1 PUSH1 0x1 SLOAD SWAP1 JUMPDEST DUP2 DUP2 LT PUSH2 0x678 JUMPI POP PUSH2 0x4B1 DUP4 PUSH2 0x1013 JUMP JUMPDEST SWAP3 PUSH2 0x4BF PUSH1 0x40 MLOAD SWAP5 DUP6 PUSH2 0xD5C JUMP JUMPDEST DUP1 DUP5 MSTORE PUSH2 0x4CE PUSH1 0x1F NOT SWAP2 PUSH2 0x1013 JUMP JUMPDEST ADD DUP5 PUSH1 0x0 JUMPDEST DUP3 DUP2 LT PUSH2 0x642 JUMPI POP POP POP PUSH1 0x0 DUP1 JUMPDEST DUP3 DUP2 LT PUSH2 0x591 JUMPI POP POP POP SWAP1 PUSH1 0x40 MLOAD SWAP3 DUP4 SWAP3 DUP2 DUP5 ADD DUP3 DUP6 MSTORE DUP4 MLOAD DUP1 SWAP2 MSTORE PUSH1 0x40 DUP6 ADD SWAP3 DUP1 PUSH1 0x40 DUP4 PUSH1 0x5 SHL DUP9 ADD ADD SWAP6 ADD SWAP4 PUSH1 0x0 SWAP1 JUMPDEST DUP4 DUP3 LT PUSH2 0x520 JUMPI DUP8 DUP8 SUB DUP9 RETURN JUMPDEST SWAP2 DUP5 SWAP7 DUP2 SWAP6 SWAP3 SWAP5 SWAP7 SWAP9 POP DUP2 SWAP1 PUSH1 0x3F NOT DUP12 DUP3 SUB ADD DUP6 MSTORE DUP10 MLOAD SWAP1 PUSH2 0x54B PUSH1 0xA0 DUP4 MLOAD SWAP1 DUP1 DUP5 MSTORE DUP4 ADD SWAP1 PUSH2 0xDF8 JUMP JUMPDEST SWAP2 PUSH2 0xFFFF DUP5 DUP3 ADD MLOAD AND DUP5 DUP4 ADD MSTORE PUSH1 0x1 DUP1 PUSH1 0xA0 SHL SUB PUSH1 0x40 DUP3 ADD MLOAD AND PUSH1 0x40 DUP4 ADD MSTORE PUSH1 0x60 DUP1 DUP3 ADD MLOAD SWAP1 DUP4 ADD MSTORE PUSH1 0x80 DUP1 SWAP2 ADD MLOAD ISZERO ISZERO SWAP2 ADD MSTORE SWAP9 ADD SWAP3 ADD SWAP3 ADD DUP8 SWAP7 SWAP6 SWAP4 SWAP2 SWAP5 SWAP3 PUSH2 0x513 JUMP JUMPDEST DUP1 PUSH2 0x59C DUP6 SWAP3 PUSH2 0xE1D JUMP JUMPDEST POP PUSH1 0xFF DUP1 PUSH1 0x3 DUP1 SWAP4 ADD SLOAD AND PUSH2 0x5B4 JUMPI JUMPDEST POP POP ADD PUSH2 0x4E1 JUMP JUMPDEST SWAP1 DUP3 SWAP5 SWAP2 PUSH2 0x5C4 PUSH2 0x63A SWAP5 PUSH2 0xE1D JUMP JUMPDEST POP SWAP2 PUSH1 0x40 MLOAD SWAP3 PUSH2 0x5D3 DUP5 PUSH2 0xD40 JUMP JUMPDEST PUSH1 0x40 MLOAD PUSH2 0x5EB DUP2 PUSH2 0x5E4 DUP2 DUP6 PUSH2 0xEA7 JUMP JUMPDEST SUB DUP3 PUSH2 0xD5C JUMP JUMPDEST DUP5 MSTORE DUP1 DUP8 ADD SLOAD PUSH2 0xFFFF DUP2 AND DUP14 DUP7 ADD MSTORE PUSH1 0x10 SHR PUSH1 0x1 PUSH1 0x1 PUSH1 0xA0 SHL SUB AND PUSH1 0x40 DUP6 ADD MSTORE PUSH1 0x2 DUP2 ADD SLOAD PUSH1 0x60 DUP6 ADD MSTORE ADD SLOAD AND ISZERO ISZERO PUSH1 0x80 DUP3 ADD MSTORE PUSH2 0x629 DUP3 DUP10 PUSH2 0x103A JUMP JUMPDEST MSTORE PUSH2 0x634 DUP2 DUP9 PUSH2 0x103A JUMP JUMPDEST POP PUSH2 0x102B JUMP JUMPDEST SWAP2 DUP8 DUP1 PUSH2 0x5AC JUMP JUMPDEST PUSH1 0x40 MLOAD PUSH2 0x64E DUP2 PUSH2 0xD40 JUMP JUMPDEST PUSH1 0x0 PUSH1 0x60 DUP1 DUP4 MSTORE DUP2 DUP6 DUP5 ADD MSTORE DUP2 PUSH1 0x40 DUP5 ADD MSTORE DUP3 ADD MSTORE PUSH1 0x0 PUSH1 0x80 DUP3 ADD MSTORE DUP3 DUP3 DUP9 ADD ADD MSTORE ADD DUP6 SWAP1 PUSH2 0x4D3 JUMP JUMPDEST PUSH1 0xFF PUSH1 0x3 PUSH2 0x685 DUP4 PUSH2 0xE1D JUMP JUMPDEST POP ADD SLOAD AND PUSH2 0x695 JUMPI JUMPDEST DUP3 ADD PUSH2 0x4A0 JUMP JUMPDEST SWAP3 PUSH2 0x6A0 DUP4 SWAP2 PUSH2 0x102B JUMP JUMPDEST SWAP4 SWAP1 POP PUSH2 0x68E JUMP JUMPDEST PUSH4 0x4E487B71 PUSH1 0xE0 SHL PUSH1 0x0 MSTORE PUSH1 0x41 PUSH1 0x4 MSTORE PUSH1 0x24 PUSH1 0x0 REVERT JUMPDEST CALLVALUE PUSH2 0x130 JUMPI PUSH1 0x0 CALLDATASIZE PUSH1 0x3 NOT ADD SLT PUSH2 0x130 JUMPI CALLER PUSH1 0x0 MSTORE PUSH1 0x2 PUSH1 0x20 MSTORE PUSH2 0x6E8 PUSH1 0x40 PUSH1 0x0 KECCAK256 SLOAD ISZERO ISZERO PUSH2 0xF3D JUMP JUMPDEST CALLER PUSH1 0x0 MSTORE PUSH1 0x2 PUSH1 0x20 MSTORE PUSH1 0x40 PUSH1 0x0 KECCAK256 SLOAD PUSH1 0x0 NOT DUP2 ADD SWAP1 DUP2 GT PUSH2 0x3C8 JUMPI PUSH2 0x70C SWAP1 PUSH2 0xE1D JUMP JUMPDEST POP PUSH1 0x3 DUP2 ADD DUP1 SLOAD SWAP1 PUSH1 0xFF DUP3 AND ISZERO PUSH2 0x76C JUMPI PUSH1 0xFF NOT SWAP2 DUP3 AND SWAP1 SSTORE PUSH2 0x72E DUP3 PUSH2 0xF7F JUMP JUMPDEST SWAP1 DUP2 SLOAD AND SWAP1 SSTORE PUSH32 0x7D4442641EF9CF201769CBB64E481E45BDCB2113C1F5A2E03054A958659F1E83 PUSH1 0x40 MLOAD PUSH1 0x20 DUP2 MSTORE DUP1 PUSH2 0x3C3 CALLER SWAP5 PUSH1 0x20 DUP4 ADD SWAP1 PUSH2 0xEA7 JUMP JUMPDEST PUSH1 0x40 MLOAD PUSH3 0x461BCD PUSH1 0xE5 SHL DUP2 MSTORE PUSH1 0x20 PUSH1 0x4 DUP3 ADD MSTORE PUSH1 0xF PUSH1 0x24 DUP3 ADD MSTORE PUSH15 0x4E6F6465206E6F7420616374697665 PUSH1 0x88 SHL PUSH1 0x44 DUP3 ADD MSTORE PUSH1 0x64 SWAP1 REVERT JUMPDEST CALLVALUE PUSH2 0x130 JUMPI PUSH1 0x40 CALLDATASIZE PUSH1 0x3 NOT ADD SLT PUSH2 0x130 JUMPI PUSH8 0xFFFFFFFFFFFFFFFF PUSH1 0x4 CALLDATALOAD DUP2 DUP2 GT PUSH2 0x130 JUMPI PUSH2 0x7D5 SWAP1 CALLDATASIZE SWAP1 PUSH1 0x4 ADD PUSH2 0xD7E JUMP JUMPDEST SWAP1 PUSH1 0x24 CALLDATALOAD SWAP2 PUSH2 0xFFFF DUP4 AND DUP4 SUB PUSH2 0x130 JUMPI DUP1 MLOAD ISZERO PUSH2 0xD06 JUMPI PUSH2 0xFFFF DUP4 AND ISZERO PUSH2 0xCC1 JUMPI PUSH1 0xFF PUSH1 0x40 MLOAD PUSH1 0x20 DUP2 DUP5 MLOAD PUSH2 0x80D DUP2 DUP4 DUP6 DUP10 ADD PUSH2 0xDD5 JUMP JUMPDEST DUP2 ADD PUSH1 0x3 DUP2 MSTORE SUB ADD SWAP1 KECCAK256 SLOAD AND PUSH2 0xC84 JUMPI CALLER PUSH1 0x0 MSTORE PUSH1 0x2 PUSH1 0x20 MSTORE PUSH1 0x40 PUSH1 0x0 KECCAK256 SLOAD DUP1 ISZERO PUSH1 0x0 EQ PUSH2 0xA99 JUMPI POP PUSH1 0x40 MLOAD SWAP2 PUSH2 0x843 DUP4 PUSH2 0xD40 JUMP JUMPDEST DUP2 DUP4 MSTORE PUSH2 0xFFFF DUP5 AND PUSH1 0x20 DUP5 ADD MSTORE CALLER PUSH1 0x40 DUP5 ADD MSTORE TIMESTAMP PUSH1 0x60 DUP5 ADD MSTORE PUSH1 0x1 PUSH1 0x80 DUP5 ADD MSTORE PUSH1 0x1 SLOAD PUSH9 0x10000000000000000 DUP2 LT ISZERO PUSH2 0x6A8 JUMPI DUP1 PUSH1 0x1 PUSH2 0x887 SWAP3 ADD PUSH1 0x1 SSTORE PUSH2 0xE1D JUMP JUMPDEST SWAP2 SWAP1 SWAP2 PUSH2 0xA83 JUMPI DUP4 MLOAD DUP1 MLOAD SWAP2 DUP3 GT PUSH2 0x6A8 JUMPI PUSH2 0x8A3 DUP4 SLOAD PUSH2 0xE6D JUMP JUMPDEST PUSH1 0x1F DUP2 GT PUSH2 0xA3F JUMPI JUMPDEST POP PUSH1 0x20 SWAP1 PUSH1 0x1F DUP4 GT PUSH1 0x1 EQ PUSH2 0x9D1 JUMPI SWAP2 DUP1 PUSH1 0x80 SWAP5 SWAP3 PUSH1 0x3 SWAP5 PUSH1 0x0 SWAP3 PUSH2 0x9C6 JUMPI JUMPDEST POP POP DUP2 PUSH1 0x1 SHL SWAP2 PUSH1 0x0 NOT SWAP1 DUP6 SHL SHR NOT AND OR DUP2 SSTORE JUMPDEST PUSH1 0x1 DUP2 ADD PUSH2 0xFFFF PUSH1 0x20 DUP8 ADD MLOAD AND DUP2 SLOAD SWAP1 PUSH3 0x10000 PUSH1 0x1 PUSH1 0xB0 SHL SUB PUSH1 0x40 DUP10 ADD MLOAD PUSH1 0x10 SHL AND SWAP2 PUSH10 0xFFFFFFFFFFFFFFFFFFFF PUSH1 0xB0 SHL AND OR OR SWAP1 SSTORE PUSH1 0x60 DUP6 ADD MLOAD PUSH1 0x2 DUP3 ADD SSTORE ADD SWAP3 ADD MLOAD ISZERO ISZERO SWAP2 PUSH1 0xFF NOT SWAP3 PUSH1 0xFF DUP5 DUP4 SLOAD AND SWAP2 AND OR SWAP1 SSTORE PUSH1 0x1 SLOAD SWAP2 DUP3 PUSH1 0x0 NOT DUP2 ADD GT PUSH2 0x3C8 JUMPI PUSH32 0x4DA2517BE3CED8D91603C36095D6DF59C154202332590203C4BE65624B92EEE2 SWAP3 CALLER PUSH1 0x0 MSTORE PUSH1 0x2 PUSH1 0x20 MSTORE PUSH1 0x40 PUSH1 0x0 KECCAK256 SSTORE PUSH1 0x1 PUSH1 0x40 MLOAD PUSH1 0x20 DUP2 DUP6 MLOAD PUSH2 0x98E DUP2 DUP4 DUP6 DUP11 ADD PUSH2 0xDD5 JUMP JUMPDEST DUP2 ADD PUSH1 0x3 DUP2 MSTORE SUB ADD SWAP1 KECCAK256 SWAP2 DUP3 SLOAD AND OR SWAP1 SSTORE PUSH2 0xFFFF PUSH2 0x9B7 PUSH1 0x40 MLOAD SWAP3 PUSH1 0x40 DUP5 MSTORE PUSH1 0x40 DUP5 ADD SWAP1 PUSH2 0xDF8 JUMP JUMPDEST SWAP4 AND PUSH1 0x20 DUP3 ADD MSTORE DUP1 CALLER SWAP4 SUB SWAP1 LOG2 STOP JUMPDEST ADD MLOAD SWAP1 POP DUP9 DUP1 PUSH2 0x8CC JUMP JUMPDEST SWAP1 DUP4 PUSH1 0x0 MSTORE PUSH1 0x20 PUSH1 0x0 KECCAK256 SWAP2 PUSH1 0x0 JUMPDEST PUSH1 0x1F NOT DUP6 AND DUP2 LT PUSH2 0xA27 JUMPI POP SWAP3 PUSH1 0x80 SWAP5 SWAP3 PUSH1 0x1 SWAP3 PUSH1 0x3 SWAP6 DUP4 PUSH1 0x1F NOT DUP2 AND LT PUSH2 0xA0F JUMPI JUMPDEST POP POP POP DUP2 SHL ADD DUP2 SSTORE PUSH2 0x8E0 JUMP JUMPDEST ADD MLOAD PUSH1 0x0 NOT DUP4 DUP8 SHL PUSH1 0xF8 AND SHR NOT AND SWAP1 SSTORE DUP9 DUP1 DUP1 PUSH2 0xA02 JUMP JUMPDEST SWAP2 SWAP3 PUSH1 0x20 PUSH1 0x1 DUP2 SWAP3 DUP7 DUP6 ADD MLOAD DUP2 SSTORE ADD SWAP5 ADD SWAP3 ADD PUSH2 0x9DF JUMP JUMPDEST DUP4 PUSH1 0x0 MSTORE PUSH1 0x20 PUSH1 0x0 KECCAK256 PUSH1 0x1F DUP5 ADD PUSH1 0x5 SHR DUP2 ADD PUSH1 0x20 DUP6 LT PUSH2 0xA7C JUMPI JUMPDEST PUSH1 0x1F DUP4 ADD PUSH1 0x5 SHR DUP3 ADD DUP2 LT PUSH2 0xA70 JUMPI POP POP PUSH2 0x8AC JUMP JUMPDEST PUSH1 0x0 DUP2 SSTORE PUSH1 0x1 ADD PUSH2 0xA5A JUMP JUMPDEST POP DUP1 PUSH2 0xA5A JUMP JUMPDEST PUSH4 0x4E487B71 PUSH1 0xE0 SHL PUSH1 0x0 MSTORE PUSH1 0x0 PUSH1 0x4 MSTORE PUSH1 0x24 PUSH1 0x0 REVERT JUMPDEST SWAP1 SWAP3 PUSH1 0x0 NOT SWAP3 SWAP1 SWAP2 DUP4 DUP2 ADD SWAP1 DUP2 GT PUSH2 0x3C8 JUMPI PUSH2 0xAB4 SWAP1 PUSH2 0xE1D JUMP JUMPDEST POP SWAP1 PUSH1 0x3 DUP3 ADD SWAP4 PUSH1 0xFF DUP6 SLOAD AND PUSH2 0xC49 JUMPI DUP6 MLOAD SWAP2 DUP3 GT PUSH2 0x6A8 JUMPI PUSH2 0xAD7 DUP4 SLOAD PUSH2 0xE6D JUMP JUMPDEST PUSH1 0x1F DUP2 GT PUSH2 0xC01 JUMPI JUMPDEST POP PUSH1 0x20 PUSH1 0x1F DUP4 GT PUSH1 0x1 EQ PUSH2 0xB94 JUMPI SWAP2 DUP1 PUSH2 0xFFFF SWAP5 SWAP3 PUSH1 0x1 SWAP5 PUSH1 0x0 SWAP3 PUSH2 0xB89 JUMPI JUMPDEST POP DUP3 DUP6 SHL SWAP3 PUSH1 0x3 SHL SHR NOT AND OR DUP2 SSTORE JUMPDEST ADD SWAP2 AND PUSH2 0xFFFF NOT DUP3 SLOAD AND OR SWAP1 SSTORE PUSH1 0xFF NOT SWAP1 PUSH1 0x1 DUP3 DUP3 SLOAD AND OR SWAP1 SSTORE PUSH1 0x1 PUSH1 0x40 MLOAD PUSH1 0x20 DUP2 DUP6 MLOAD PUSH2 0xB40 DUP2 DUP4 DUP6 DUP11 ADD PUSH2 0xDD5 JUMP JUMPDEST DUP2 ADD PUSH1 0x3 DUP2 MSTORE SUB ADD SWAP1 KECCAK256 SWAP2 DUP3 SLOAD AND OR SWAP1 SSTORE PUSH32 0x586F841FAC1AA0D2E00E5B989A5FF672B5EF45B1F256F60715D921AE9652A49F PUSH1 0x40 MLOAD PUSH1 0x20 DUP2 MSTORE DUP1 PUSH2 0x3C3 CALLER SWAP5 PUSH1 0x20 DUP4 ADD SWAP1 PUSH2 0xDF8 JUMP JUMPDEST DUP10 ADD MLOAD SWAP2 POP DUP10 PUSH2 0xB00 JUMP JUMPDEST SWAP1 PUSH1 0x1F NOT DUP4 AND SWAP2 DUP5 PUSH1 0x0 MSTORE PUSH1 0x20 PUSH1 0x0 KECCAK256 SWAP3 PUSH1 0x0 JUMPDEST DUP2 DUP2 LT PUSH2 0xBE9 JUMPI POP SWAP3 PUSH1 0x1 SWAP5 SWAP2 SWAP3 DUP6 SWAP4 DUP4 PUSH2 0xFFFF SWAP9 SWAP7 LT PUSH2 0xBD1 JUMPI JUMPDEST POP POP POP DUP2 SHL ADD DUP2 SSTORE PUSH2 0xB0F JUMP JUMPDEST DUP11 ADD MLOAD SWAP1 PUSH1 0xF8 DUP5 PUSH1 0x3 SHL AND SHR NOT AND SWAP1 SSTORE DUP9 DUP1 DUP1 PUSH2 0xBC4 JUMP JUMPDEST SWAP2 SWAP4 PUSH1 0x20 PUSH1 0x1 DUP2 SWAP3 DUP8 DUP14 ADD MLOAD DUP2 SSTORE ADD SWAP6 ADD SWAP3 ADD PUSH2 0xBA8 JUMP JUMPDEST DUP4 PUSH1 0x0 MSTORE PUSH1 0x20 PUSH1 0x0 KECCAK256 PUSH1 0x1F DUP5 ADD PUSH1 0x5 SHR DUP2 ADD SWAP2 PUSH1 0x20 DUP6 LT PUSH2 0xC3F JUMPI JUMPDEST PUSH1 0x1F ADD PUSH1 0x5 SHR ADD SWAP1 JUMPDEST DUP2 DUP2 LT PUSH2 0xC33 JUMPI POP PUSH2 0xAE0 JUMP JUMPDEST PUSH1 0x0 DUP2 SSTORE PUSH1 0x1 ADD PUSH2 0xC26 JUMP JUMPDEST SWAP1 SWAP2 POP DUP2 SWAP1 PUSH2 0xC1D JUMP JUMPDEST PUSH1 0x40 MLOAD PUSH3 0x461BCD PUSH1 0xE5 SHL DUP2 MSTORE PUSH1 0x20 PUSH1 0x4 DUP3 ADD MSTORE PUSH1 0x13 PUSH1 0x24 DUP3 ADD MSTORE PUSH19 0x4E6F646520616C726561647920616374697665 PUSH1 0x68 SHL PUSH1 0x44 DUP3 ADD MSTORE PUSH1 0x64 SWAP1 REVERT JUMPDEST PUSH1 0x40 MLOAD PUSH3 0x461BCD PUSH1 0xE5 SHL DUP2 MSTORE PUSH1 0x20 PUSH1 0x4 DUP3 ADD MSTORE PUSH1 0x15 PUSH1 0x24 DUP3 ADD MSTORE PUSH21 0x125408185B1C9958591E481C9959DA5CDD195C9959 PUSH1 0x5A SHL PUSH1 0x44 DUP3 ADD MSTORE PUSH1 0x64 SWAP1 REVERT JUMPDEST PUSH1 0x40 MLOAD PUSH3 0x461BCD PUSH1 0xE5 SHL DUP2 MSTORE PUSH1 0x20 PUSH1 0x4 DUP3 ADD MSTORE PUSH1 0x1B PUSH1 0x24 DUP3 ADD MSTORE PUSH32 0x506F7274206D7573742062652067726561746572207468616E20300000000000 PUSH1 0x44 DUP3 ADD MSTORE PUSH1 0x64 SWAP1 REVERT JUMPDEST PUSH1 0x40 MLOAD PUSH3 0x461BCD PUSH1 0xE5 SHL DUP2 MSTORE PUSH1 0x20 PUSH1 0x4 DUP3 ADD MSTORE PUSH1 0x12 PUSH1 0x24 DUP3 ADD MSTORE PUSH18 0x49502063616E6E6F7420626520656D707479 PUSH1 0x70 SHL PUSH1 0x44 DUP3 ADD MSTORE PUSH1 0x64 SWAP1 REVERT JUMPDEST PUSH1 0xA0 DUP2 ADD SWAP1 DUP2 LT PUSH8 0xFFFFFFFFFFFFFFFF DUP3 GT OR PUSH2 0x6A8 JUMPI PUSH1 0x40 MSTORE JUMP JUMPDEST SWAP1 PUSH1 0x1F DUP1 NOT SWAP2 ADD AND DUP2 ADD SWAP1 DUP2 LT PUSH8 0xFFFFFFFFFFFFFFFF DUP3 GT OR PUSH2 0x6A8 JUMPI PUSH1 0x40 MSTORE JUMP JUMPDEST DUP2 PUSH1 0x1F DUP3 ADD SLT ISZERO PUSH2 0x130 JUMPI DUP1 CALLDATALOAD SWAP1 PUSH8 0xFFFFFFFFFFFFFFFF DUP3 GT PUSH2 0x6A8 JUMPI PUSH1 0x40 MLOAD SWAP3 PUSH2 0xDB3 PUSH1 0x1F DUP5 ADD PUSH1 0x1F NOT AND PUSH1 0x20 ADD DUP6 PUSH2 0xD5C JUMP JUMPDEST DUP3 DUP5 MSTORE PUSH1 0x20 DUP4 DUP4 ADD ADD GT PUSH2 0x130 JUMPI DUP2 PUSH1 0x0 SWAP3 PUSH1 0x20 DUP1 SWAP4 ADD DUP4 DUP7 ADD CALLDATACOPY DUP4 ADD ADD MSTORE SWAP1 JUMP JUMPDEST PUSH1 0x0 JUMPDEST DUP4 DUP2 LT PUSH2 0xDE8 JUMPI POP POP PUSH1 0x0 SWAP2 ADD MSTORE JUMP JUMPDEST DUP2 DUP2 ADD MLOAD DUP4 DUP3 ADD MSTORE PUSH1 0x20 ADD PUSH2 0xDD8 JUMP JUMPDEST SWAP1 PUSH1 0x20 SWAP2 PUSH2 0xE11 DUP2 MLOAD DUP1 SWAP3 DUP2 DUP6 MSTORE DUP6 DUP1 DUP7 ADD SWAP2 ADD PUSH2 0xDD5 JUMP JUMPDEST PUSH1 0x1F ADD PUSH1 0x1F NOT AND ADD ADD SWAP1 JUMP JUMPDEST PUSH1 0x1 SLOAD DUP2 LT ISZERO PUSH2 0xE57 JUMPI PUSH1 0x1 PUSH1 0x0 MSTORE PUSH1 0x2 SHL PUSH32 0xB10E2D527612073B26EECDFD717E6A320CF44B4AFAC2B0732D9FCBE2B7FA0CF6 ADD SWAP1 PUSH1 0x0 SWAP1 JUMP JUMPDEST PUSH4 0x4E487B71 PUSH1 0xE0 SHL PUSH1 0x0 MSTORE PUSH1 0x32 PUSH1 0x4 MSTORE PUSH1 0x24 PUSH1 0x0 REVERT JUMPDEST SWAP1 PUSH1 0x1 DUP3 DUP2 SHR SWAP3 AND DUP1 ISZERO PUSH2 0xE9D JUMPI JUMPDEST PUSH1 0x20 DUP4 LT EQ PUSH2 0xE87 JUMPI JUMP JUMPDEST PUSH4 0x4E487B71 PUSH1 0xE0 SHL PUSH1 0x0 MSTORE PUSH1 0x22 PUSH1 0x4 MSTORE PUSH1 0x24 PUSH1 0x0 REVERT JUMPDEST SWAP2 PUSH1 0x7F AND SWAP2 PUSH2 0xE7C JUMP JUMPDEST DUP1 SLOAD PUSH1 0x0 SWAP4 SWAP3 PUSH2 0xEB6 DUP3 PUSH2 0xE6D JUMP JUMPDEST SWAP2 DUP3 DUP3 MSTORE PUSH1 0x20 SWAP4 PUSH1 0x1 SWAP2 PUSH1 0x1 DUP2 AND SWAP1 DUP2 PUSH1 0x0 EQ PUSH2 0xF1E JUMPI POP PUSH1 0x1 EQ PUSH2 0xEDD JUMPI JUMPDEST POP POP POP POP POP JUMP JUMPDEST SWAP1 SWAP4 SWAP5 SWAP6 POP PUSH1 0x0 SWAP3 SWAP2 SWAP3 MSTORE DUP4 PUSH1 0x0 KECCAK256 SWAP3 DUP5 PUSH1 0x0 SWAP5 JUMPDEST DUP4 DUP7 LT PUSH2 0xF0A JUMPI POP POP POP POP ADD ADD SWAP1 CODESIZE DUP1 DUP1 DUP1 DUP1 PUSH2 0xED6 JUMP JUMPDEST DUP1 SLOAD DUP6 DUP8 ADD DUP4 ADD MSTORE SWAP5 ADD SWAP4 DUP6 SWAP1 DUP3 ADD PUSH2 0xEF2 JUMP JUMPDEST PUSH1 0xFF NOT AND DUP7 DUP6 ADD MSTORE POP POP POP SWAP1 ISZERO ISZERO PUSH1 0x5 SHL ADD ADD SWAP2 POP CODESIZE DUP1 DUP1 DUP1 DUP1 PUSH2 0xED6 JUMP JUMPDEST ISZERO PUSH2 0xF44 JUMPI JUMP JUMPDEST PUSH1 0x40 MLOAD PUSH3 0x461BCD PUSH1 0xE5 SHL DUP2 MSTORE PUSH1 0x20 PUSH1 0x4 DUP3 ADD MSTORE PUSH1 0x13 PUSH1 0x24 DUP3 ADD MSTORE PUSH19 0x139BD919481B9BDD081C9959DA5CDD195C9959 PUSH1 0x6A SHL PUSH1 0x44 DUP3 ADD MSTORE PUSH1 0x64 SWAP1 REVERT JUMPDEST PUSH1 0x40 MLOAD SWAP1 DUP2 PUSH1 0x0 DUP3 SLOAD PUSH2 0xF91 DUP2 PUSH2 0xE6D JUMP JUMPDEST SWAP4 PUSH1 0x1 SWAP2 DUP1 DUP4 AND SWAP1 DUP2 ISZERO PUSH2 0xFF7 JUMPI POP PUSH1 0x1 EQ PUSH2 0xFB9 JUMPI JUMPDEST POP POP PUSH1 0x20 SWAP3 POP PUSH1 0x3 DUP2 MSTORE SUB ADD SWAP1 KECCAK256 SWAP1 JUMP JUMPDEST SWAP1 SWAP2 POP PUSH1 0x0 MSTORE PUSH1 0x20 SWAP1 PUSH1 0x20 PUSH1 0x0 KECCAK256 SWAP1 PUSH1 0x0 SWAP2 JUMPDEST DUP6 DUP4 LT PUSH2 0xFE3 JUMPI POP POP POP POP PUSH1 0x20 SWAP2 DUP2 ADD CODESIZE DUP1 PUSH2 0xFA8 JUMP JUMPDEST DUP1 SLOAD DUP8 DUP5 ADD MSTORE DUP7 SWAP5 POP SWAP2 DUP4 ADD SWAP2 DUP2 ADD PUSH2 0xFCC JUMP JUMPDEST SWAP3 POP POP POP PUSH1 0x20 SWAP4 SWAP2 POP PUSH1 0xFF NOT AND DUP3 MSTORE DUP1 ISZERO ISZERO MUL DUP2 ADD CODESIZE DUP1 PUSH2 0xFA8 JUMP JUMPDEST PUSH8 0xFFFFFFFFFFFFFFFF DUP2 GT PUSH2 0x6A8 JUMPI PUSH1 0x5 SHL PUSH1 0x20 ADD SWAP1 JUMP JUMPDEST PUSH1 0x0 NOT DUP2 EQ PUSH2 0x3C8 JUMPI PUSH1 0x1 ADD SWAP1 JUMP JUMPDEST DUP1 MLOAD DUP3 LT ISZERO PUSH2 0xE57 JUMPI PUSH1 0x20 SWAP2 PUSH1 0x5 SHL ADD ADD SWAP1 JUMP JUMPDEST PUSH1 0x1 PUSH1 0x1 PUSH1 0xA0 SHL SUB AND PUSH1 0x0 SWAP1 DUP2 MSTORE PUSH1 0x2 PUSH1 0x20 MSTORE PUSH1 0x40 SWAP1 KECCAK256 SLOAD DUP1 ISZERO PUSH2 0x108C JUMPI PUSH1 0x0 NOT DUP2 ADD SWAP1 DUP2 GT PUSH2 0x3C8 JUMPI PUSH1 0x3 PUSH2 0x1085 PUSH1 0xFF SWAP3 PUSH2 0xE1D JUMP JUMPDEST POP ADD SLOAD AND SWAP1 JUMP JUMPDEST POP PUSH1 0x0 SWAP1 JUMP JUMPDEST PUSH1 0x0 SLOAD PUSH1 0x1 PUSH1 0x1 PUSH1 0xA0 SHL SUB AND CALLER SUB PUSH2 0x10A6 JUMPI JUMP JUMPDEST PUSH1 0x40 MLOAD PUSH4 0x118CDAA7 PUSH1 0xE0 SHL DUP2 MSTORE CALLER PUSH1 0x4 DUP3 ADD MSTORE PUSH1 0x24 SWAP1 REVERT INVALID LOG1 PUSH5 0x736F6C6343 STOP ADDMOD XOR STOP EXP "},"methodIdentifiers":{"activeNodes(uint256)":"96f9d983","forceUnregisterNode(address)":"8faeddc7","getActiveNodeCount()":"c5ea2b87","getActiveNodes()":"6b51e919","ipRegistered(string)":"e894188a","isNodeActive(address)":"9407af1f","nodeIndex(address)":"d673de46","owner()":"8da5cb5b","registerNode(string,uint16)":"0bca8d79","renounceOwnership()":"715018a6","transferOwnership(address)":"f2fde38b","unregisterNode()":"3d385cf5"}}}}}