{"contracts/OraSRSGovernance.sol":{"OraSRSGovernance":{"abi":[{"inputs":[{"internalType":"address","name":"_timelock","type":"address"},{"internalType":"address","name":"_threatIntelligenceCoordination","type":"address"}],"stateMutability":"nonpayable","type":"constructor"},{"inputs":[{"internalType":"address","name":"owner","type":"address"}],"name":"OwnableInvalidOwner","type":"error"},{"inputs":[{"internalType":"address","name":"account","type":"address"}],"name":"OwnableUnauthorizedAccount","type":"error"},{"inputs":[],"name":"ReentrancyGuardReentrantCall","type":"error"},{"anonymous":false,"inputs":[{"indexed":false,"internalType":"string","name":"contractName","type":"string"},{"indexed":false,"internalType":"address","name":"oldAddress","type":"address"},{"indexed":false,"internalType":"address","name":"newAddress","type":"address"}],"name":"GovernanceAddressUpdated","type":"event"},{"anonymous":false,"inputs":[{"indexed":false,"internalType":"string","name":"parameter","type":"string"},{"indexed":false,"internalType":"uint256","name":"value","type":"uint256"}],"name":"GovernanceParameterUpdated","type":"event"},{"anonymous":false,"inputs":[{"indexed":true,"internalType":"address","name":"previousOwner","type":"address"},{"indexed":true,"internalType":"address","name":"newOwner","type":"address"}],"name":"OwnershipTransferred","type":"event"},{"anonymous":false,"inputs":[{"indexed":true,"internalType":"uint256","name":"id","type":"uint256"},{"indexed":true,"internalType":"address","name":"proposer","type":"address"},{"indexed":false,"internalType":"string","name":"description","type":"string"},{"indexed":true,"internalType":"enum OraSRSGovernance.ProposalType","name":"proposalType","type":"uint8"}],"name":"ProposalCreated","type":"event"},{"anonymous":false,"inputs":[{"indexed":true,"internalType":"uint256","name":"id","type":"uint256"}],"name":"ProposalExecuted","type":"event"},{"anonymous":false,"inputs":[{"indexed":true,"internalType":"uint256","name":"proposalId","type":"uint256"},{"indexed":true,"internalType":"address","name":"voter","type":"address"},{"indexed":false,"internalType":"uint8","name":"support","type":"uint8"},{"indexed":false,"internalType":"uint256","name":"votes","type":"uint256"}],"name":"VoteCast","type":"event"},{"inputs":[{"internalType":"uint256","name":"proposalId","type":"uint256"},{"internalType":"uint8","name":"support","type":"uint8"}],"name":"castVote","outputs":[],"stateMutability":"nonpayable","type":"function"},{"inputs":[{"internalType":"string","name":"description","type":"string"},{"internalType":"enum OraSRSGovernance.ProposalType","name":"proposalType","type":"uint8"},{"internalType":"address[]","name":"targets","type":"address[]"},{"internalType":"uint256[]","name":"values","type":"uint256[]"},{"internalType":"bytes[]","name":"calldatas","type":"bytes[]"}],"name":"createProposal","outputs":[{"internalType":"uint256","name":"","type":"uint256"}],"stateMutability":"nonpayable","type":"function"},{"inputs":[],"name":"destroy","outputs":[],"stateMutability":"nonpayable","type":"function"},{"inputs":[{"internalType":"address payable","name":"_recipient","type":"address"}],"name":"destroyAndSendTo","outputs":[],"stateMutability":"nonpayable","type":"function"},{"inputs":[{"internalType":"uint256","name":"proposalId","type":"uint256"}],"name":"getProposalDetails","outputs":[{"internalType":"address","name":"","type":"address"},{"internalType":"uint256","name":"","type":"uint256"},{"internalType":"uint256","name":"","type":"uint256"},{"internalType":"uint256","name":"","type":"uint256"},{"internalType":"uint256","name":"","type":"uint256"},{"internalType":"uint256","name":"","type":"uint256"},{"internalType":"uint256","name":"","type":"uint256"},{"internalType":"string","name":"","type":"string"},{"internalType":"enum OraSRSGovernance.ProposalType","name":"","type":"uint8"},{"internalType":"enum OraSRSGovernance.ProposalState","name":"","type":"uint8"}],"stateMutability":"view","type":"function"},{"inputs":[],"name":"owner","outputs":[{"internalType":"address","name":"","type":"address"}],"stateMutability":"view","type":"function"},{"inputs":[],"name":"proposalCount","outputs":[{"internalType":"uint256","name":"","type":"uint256"}],"stateMutability":"view","type":"function"},{"inputs":[],"name":"proposalThreshold","outputs":[{"internalType":"uint256","name":"","type":"uint256"}],"stateMutability":"view","type":"function"},{"inputs":[{"internalType":"uint256","name":"","type":"uint256"}],"name":"proposals","outputs":[{"internalType":"uint256","name":"id","type":"uint256"},{"internalType":"address","name":"proposer","type":"address"},{"internalType":"uint256","name":"startTime","type":"uint256"},{"internalType":"uint256","name":"endTime","type":"uint256"},{"internalType":"uint256","name":"votesFor","type":"uint256"},{"internalType":"uint256","name":"votesAgainst","type":"uint256"},{"internalType":"uint256","name":"votesAbstain","type":"uint256"},{"internalType":"uint256","name":"requiredQuorum","type":"uint256"},{"internalType":"string","name":"description","type":"string"},{"internalType":"enum OraSRSGovernance.ProposalType","name":"proposalType","type":"uint8"},{"internalType":"enum OraSRSGovernance.ProposalState","name":"state","type":"uint8"}],"stateMutability":"view","type":"function"},{"inputs":[],"name":"quorumPercentage","outputs":[{"internalType":"uint256","name":"","type":"uint256"}],"stateMutability":"view","type":"function"},{"inputs":[],"name":"renounceOwnership","outputs":[],"stateMutability":"nonpayable","type":"function"},{"inputs":[{"internalType":"uint256","name":"proposalId","type":"uint256"}],"name":"state","outputs":[{"internalType":"enum OraSRSGovernance.ProposalState","name":"","type":"uint8"}],"stateMutability":"view","type":"function"},{"inputs":[],"name":"threatIntelligenceCoordination","outputs":[{"internalType":"address","name":"","type":"address"}],"stateMutability":"view","type":"function"},{"inputs":[],"name":"timelock","outputs":[{"internalType":"address","name":"","type":"address"}],"stateMutability":"view","type":"function"},{"inputs":[{"internalType":"address","name":"newOwner","type":"address"}],"name":"transferOwnership","outputs":[],"stateMutability":"nonpayable","type":"function"},{"inputs":[{"internalType":"uint256","name":"_newThreshold","type":"uint256"}],"name":"updateProposalThreshold","outputs":[],"stateMutability":"nonpayable","type":"function"},{"inputs":[{"internalType":"uint256","name":"_newQuorumPercentage","type":"uint256"}],"name":"updateQuorumPercentage","outputs":[],"stateMutability":"nonpayable","type":"function"},{"inputs":[{"internalType":"address","name":"_newContract","type":"address"}],"name":"updateThreatIntelligenceCoordination","outputs":[],"stateMutability":"nonpayable","type":"function"},{"inputs":[{"internalType":"address","name":"_newTimelock","type":"address"}],"name":"updateTimelock","outputs":[],"stateMutability":"nonpayable","type":"function"},{"inputs":[{"internalType":"uint256","name":"_newVotingPeriod","type":"uint256"}],"name":"updateVotingPeriod","outputs":[],"stateMutability":"nonpayable","type":"function"},{"inputs":[{"internalType":"uint256","name":"","type":"uint256"},{"internalType":"address","name":"","type":"address"}],"name":"votes","outputs":[{"internalType":"bool","name":"hasVoted","type":"bool"},{"internalType":"uint8","name":"support","type":"uint8"},{"internalType":"uint256","name":"votes","type":"uint256"}],"stateMutability":"view","type":"function"},{"inputs":[],"name":"votingPeriod","outputs":[{"internalType":"uint256","name":"","type":"uint256"}],"stateMutability":"view","type":"function"}],"evm":{"bytecode":{"linkReferences":{},"object":"6080346100fd57601f61185238819003918201601f19168301916001600160401b038311848410176101025780849260409485528339810103126100fd57610052602061004b83610118565b9201610118565b9033156100e4576000549160018060a01b03908160018060a01b031993338587161760005560405195823391167f8be0079c531659141344cd1fd0a4f28419497f9722a3daafe3b4186f6b6457e0600080a360018055168360055416176005551690600654161760065562093a8060075569021e19e0c9bab2400000600855620186a0600955611725908161012d8239f35b604051631e4fbdf760e01b815260006004820152602490fd5b600080fd5b634e487b7160e01b600052604160045260246000fd5b51906001600160a01b03821682036100fd5756fe6080604052600436101561001257600080fd5b60003560e01c8063013cf08b146112e457806302a251a3146112c6578063105603ac14610bae5780631aeec15e14610aba5780633b4d01a7146109f25780633e4f49e6146109c55780634e6162031461099c5780634fa76ec91461097e57806356781388146106b457806357ad627914610640578063715018a6146105e757806383197ef01461059a5780638da5cb5b14610571578063a890c91014610492578063b58131b014610474578063cc7a2b21146103d5578063d23254b41461036d578063d33219b414610344578063da35c66414610326578063ef00ef431461025f578063f0f9e6b71461019c5763f2fde38b1461010e57600080fd5b3461019757602036600319011261019757610127611580565b61012f6116ec565b6001600160a01b0390811690811561017e57600054826001600160601b0360a01b821617600055167f8be0079c531659141344cd1fd0a4f28419497f9722a3daafe3b4186f6b6457e0600080a3005b604051631e4fbdf760e01b815260006004820152602490fd5b600080fd5b34610197576020366003190112610197576004356101b86116ec565b620f4240811161021a576080817f48e381a1babc0380d5de4948672449b79a514434c0e351800509c47a84578f85926009556040519060408252601060408301526f51756f72756d50657263656e7461676560801b60608301526020820152a1005b60405162461bcd60e51b815260206004820152601960248201527f51756f72756d2063616e6e6f74206578636565642031303025000000000000006044820152606490fd5b346101975760203660031901126101975760043561027b6116ec565b80156102d5576080817f48e381a1babc0380d5de4948672449b79a514434c0e351800509c47a84578f85926007556040519060408252600c60408301526b159bdd1a5b99d4195c9a5bd960a21b60608301526020820152a1005b60405162461bcd60e51b8152602060048201526024808201527f566f74696e6720706572696f64206d75737420626520677265617465722074686044820152630616e20360e41b6064820152608490fd5b34610197576000366003190112610197576020600254604051908152f35b34610197576000366003190112610197576005546040516001600160a01b039091168152602090f35b34610197576040366003190112610197576024356001600160a01b03811690819003610197576004356000526004602052604060002090600052602052606060406000206001815491015460ff604051928181161515845260081c1660208301526040820152f35b34610197576020366003190112610197576004356001600160a01b038116808203610197576104026116ec565b1561042f57427f712ae1383f79ac853f8d882153778e0260ef8f03b504e2866e0593e04d2b291f600080a2ff5b60405162461bcd60e51b815260206004820152601960248201527f496e76616c696420726563697069656e742061646472657373000000000000006044820152606490fd5b34610197576000366003190112610197576020600854604051908152f35b34610197576020366003190112610197576104ab611580565b6104b36116ec565b6001600160a01b03908116801561052c577fe397b660eb55877c8394e2dbe3ddad8744697ee44034e424712e373067dfedd49160a09160055491816001600160601b03851b8416176005556040519260608452600860608501526754696d656c6f636b60c01b60808501521660208301526040820152a1005b60405162461bcd60e51b815260206004820152601860248201527f496e76616c69642074696d656c6f636b206164647265737300000000000000006044820152606490fd5b34610197576000366003190112610197576000546040516001600160a01b039091168152602090f35b34610197576000366003190112610197576105b36116ec565b427f712ae1383f79ac853f8d882153778e0260ef8f03b504e2866e0593e04d2b291f600080a26000546001600160a01b0316ff5b34610197576000366003190112610197576106006116ec565b600080546001600160a01b0319811682556001600160a01b03167f8be0079c531659141344cd1fd0a4f28419497f9722a3daafe3b4186f6b6457e08280a3005b34610197576020366003190112610197577f48e381a1babc0380d5de4948672449b79a514434c0e351800509c47a84578f85608060043561067f6116ec565b8060085560405190604082526011604083015270141c9bdc1bdcd85b151a1c995cda1bdb19607a1b60608301526020820152a1005b346101975760403660031901126101975760043560249081359060ff82169182810361019757600193600285541461096c576002855582151580610960575b6106fc90611622565b6002841161091c57826000526020916003835260406000209060ff600983015460081c1660078110156109075787036108ca576003820154421161088657600d82013360005280855260ff6040600020541661085257606491889133600052865260406000208260ff19825416179055866000526004865260406000203360005286528160406000209161ff0083549160081b169061ffff191617178155015585851460001461080457600401805491606483018093116107f05750556064905b6040519384528301527fb83d25c6a5d258561330739951487acb4bd09ba5190b5d32c4f261817d90679260403393a38055005b634e487b7160e01b60009081526011600452fd5b8461082457600501805491606483018093116107f05750556064906107bd565b60028514610837575b50506064906107bd565b600601805491606483018093116107f057505560648561082d565b60405162461bcd60e51b815260048101869052600d818601526c105b1c9958591e481d9bdd1959609a1b6044820152606490fd5b60405162461bcd60e51b8152600481018590526017818501527f566f74696e6720706572696f642068617320656e6465640000000000000000006044820152606490fd5b60405162461bcd60e51b8152600481018590526016818501527550726f706f73616c206973206e6f742061637469766560501b6044820152606490fd5b83634e487b7160e01b60005260216004526000fd5b606490601a6040519162461bcd60e51b8352602060048401528201527f496e76616c696420766f746520737570706f72742076616c75650000000000006044820152fd5b506002548311156106f3565b604051633ee5aeb560e01b8152600490fd5b34610197576000366003190112610197576020600954604051908152f35b34610197576000366003190112610197576006546040516001600160a01b039091168152602090f35b346101975760203660031901126101975760206109e3600435611664565b6109f06040518092611514565bf35b34610197576020366003190112610197576004356000526003602052604060002060018060a01b0360018201541690600281015490610ab6610a9360038301549460048401549060058501546006860154600787015491610a5a600860098a0154990161140c565b946040519a8b9a610140968c5260208c015260408b015260608a0152608089015260a088015260c08701528060e08701528501906114b1565b91610aa5610100850160ff83166114f1565b60ff61012085019160081c16611514565b0390f35b3461019757602036600319011261019757610ad3611580565b610adb6116ec565b6001600160a01b039081168015610b69577fe397b660eb55877c8394e2dbe3ddad8744697ee44034e424712e373067dfedd49160a09160065491816001600160601b03851b8416176006556040519260608452601e60608501527f546872656174496e74656c6c6967656e6365436f6f7264696e6174696f6e000060808501521660208301526040820152a1005b60405162461bcd60e51b815260206004820152601860248201527f496e76616c696420636f6e7472616374206164647265737300000000000000006044820152606490fd5b346101975760a03660031901126101975760043567ffffffffffffffff8111610197573660238201121561019757610bf0903690602481600401359101611521565b60066024351015610197576044359067ffffffffffffffff8211610197573660238301121561019757816004013590610c2882611568565b92610c3660405194856113ea565b82845260208401906024829460051b8201019036821161019757602401915b8183106112a65750505067ffffffffffffffff6064351161019757366023606435011215610197576064356004013592610c8e84611568565b610c9b60405191826113ea565b8481526020810194853660248360051b60643501011161019757602460643501905b60248360051b606435010182106112965750505067ffffffffffffffff6084351161019757366023608435011215610197576084356004013594610d0086611568565b91610d0e60405193846113ea565b8683526020830180973660248260051b60843501011161019757602460843501915b60248260051b60843501018310611249575050508451156112045783518151811490816111f9575b50156111b45760025495600019871461119e576001870160025560018701600052600360205260406000209460018801865560018601336001600160601b0360a01b825416179055426002870155610db260075442611596565b60038701556000600487015560006005870155600060068701556009546007870155865167ffffffffffffffff811161106757610dff81610df660088a01546113b0565b60088a016115ba565b6020601f8211600114611131579080610e2e92600091611126575b508160011b916000199060031b1c19161790565b60088701555b60098601805461ffff191660243560ff16179055519067ffffffffffffffff821161106757600160401b821161106757600a86018054838255610e79918491906115ff565b600a8601600052602060002060005b8381106111095750505050519067ffffffffffffffff821161106757600160401b821161106757600b84018054838255610ec4918491906115ff565b600b8401600052602060002060005b8381106110f557505050505193600160401b851161106757600c82015485600c84015580861061107d575b5093600c82016000526020600020946000905b828210610f7c5760098401805461ff001916610100179055604051602080825290879060243590339060018401907fe0269f7953e70365e80e614e4efe7d4bede59b7f5ad80982ea4064c97ee6f4ef9080610f6e8189018e6114b1565b0390a4600160405191018152f35b805180519067ffffffffffffffff821161106757610fa482610f9e8b546113b0565b8b6115ba565b602090601f8311600114610ff75792610fdd83600195946020948796600092610fec575b50508160011b916000199060031b1c19161790565b8a555b01970191019095610f11565b015190508d80610fc8565b908960005260206000209160005b601f198516811061104f575083602093600196938796938794601f19811610611036575b505050811b018a55610fe0565b015160001960f88460031b161c191690558c8080611029565b91926020600181928685015181550194019201611005565b634e487b7160e01b600052604160045260246000fd5b600c83016000526020600020908682015b818301811061109e575050610efe565b806110ab600192546113b0565b806110b8575b500161108e565b601f811183146110ce5750600081555b896110b1565b6000908282526110ec601f60208420920160051c82018583016115a3565b818355556110c8565b600190602084519401938184015501610ed3565b82516001600160a01b031681830155602090920191600101610e88565b90508901518c610e1a565b906008880160005260206000206000925b8a601f198416851061118757506001935082601f1981161061116e575b5050811b016008870155610e34565b8a015160001960f88460031b161c191690558b8061115f565b810151825560209384019360019092019101611142565b634e487b7160e01b600052601160045260246000fd5b60405162461bcd60e51b815260206004820152601860248201527f4172726179206c656e67746873206d757374206d6174636800000000000000006044820152606490fd5b905083511488610d58565b60405162461bcd60e51b815260206004820152601b60248201527f4465736372697074696f6e2063616e6e6f7420626520656d70747900000000006044820152606490fd5b82359067ffffffffffffffff8211610197573660438360843501011215610197576024916020918291611289903690608435018087013590604401611521565b8152019301929050610d30565b8135815260209182019101610cbd565b82356001600160a01b038116810361019757815260209283019201610c55565b34610197576000366003190112610197576020600754604051908152f35b346101975760203660031901126101975760043560005260036020526040600020805460018060a01b0360018301541690610ab661138d60028501549460038101549360048201546005830154600684015490600785015492600961134b6008880161140c565b960154986040519b8c9b610160978d5260208d015260408c015260608b015260808a015260a089015260c088015260e0870152806101008701528501906114b1565b9161139f610120850160ff83166114f1565b60ff61014085019160081c16611514565b90600182811c921680156113e0575b60208310146113ca57565b634e487b7160e01b600052602260045260246000fd5b91607f16916113bf565b90601f8019910116810190811067ffffffffffffffff82111761106757604052565b9060405191826000825461141f816113b0565b9081845260209460019160018116908160001461148f5750600114611450575b50505061144e925003836113ea565b565b600090815285812095935091905b81831061147757505061144e935082010138808061143f565b8554888401850152948501948794509183019161145e565b9250505061144e94925060ff191682840152151560051b82010138808061143f565b919082519283825260005b8481106114dd575050826000602080949584010152601f8019910116010190565b6020818301810151848301820152016114bc565b9060068210156114fe5752565b634e487b7160e01b600052602160045260246000fd5b9060078210156114fe5752565b92919267ffffffffffffffff8211611067576040519161154b601f8201601f1916602001846113ea565b829481845281830111610197578281602093846000960137010152565b67ffffffffffffffff81116110675760051b60200190565b600435906001600160a01b038216820361019757565b9190820180921161119e57565b8181106115ae575050565b600081556001016115a3565b9190601f81116115c957505050565b61144e926000526020600020906020601f840160051c830193106115f5575b601f0160051c01906115a3565b90915081906115e8565b9181811061160c57505050565b61144e92600052602060002091820191016115a3565b1561162957565b60405162461bcd60e51b8152602060048201526013602482015272125b9d985b1a59081c1c9bdc1bdcd85b081a59606a1b6044820152606490fd5b801515806116e0575b61167690611622565b600052600360205260406000206003810154421161169b576009015460081c60ff1690565b600481015490600581015480831192836116c4575b5050506000146116bf57600490565b600390565b6007929350906116d391611596565b91015411153880806116b0565b5060025481111561166d565b6000546001600160a01b0316330361170057565b60405163118cdaa760e01b8152336004820152602490fdfea164736f6c6343000818000a","opcodes":"PUSH1 0x80 CALLVALUE PUSH2 0xFD JUMPI PUSH1 0x1F PUSH2 0x1852 CODESIZE DUP2 SWAP1 SUB SWAP2 DUP3 ADD PUSH1 0x1F NOT AND DUP4 ADD SWAP2 PUSH1 0x1 PUSH1 0x1 PUSH1 0x40 SHL SUB DUP4 GT DUP5 DUP5 LT OR PUSH2 0x102 JUMPI DUP1 DUP5 SWAP3 PUSH1 0x40 SWAP5 DUP6 MSTORE DUP4 CODECOPY DUP2 ADD SUB SLT PUSH2 0xFD JUMPI PUSH2 0x52 PUSH1 0x20 PUSH2 0x4B DUP4 PUSH2 0x118 JUMP JUMPDEST SWAP3 ADD PUSH2 0x118 JUMP JUMPDEST SWAP1 CALLER ISZERO PUSH2 0xE4 JUMPI PUSH1 0x0 SLOAD SWAP2 PUSH1 0x1 DUP1 PUSH1 0xA0 SHL SUB SWAP1 DUP2 PUSH1 0x1 DUP1 PUSH1 0xA0 SHL SUB NOT SWAP4 CALLER DUP6 DUP8 AND OR PUSH1 0x0 SSTORE PUSH1 0x40 MLOAD SWAP6 DUP3 CALLER SWAP2 AND PUSH32 0x8BE0079C531659141344CD1FD0A4F28419497F9722A3DAAFE3B4186F6B6457E0 PUSH1 0x0 DUP1 LOG3 PUSH1 0x1 DUP1 SSTORE AND DUP4 PUSH1 0x5 SLOAD AND OR PUSH1 0x5 SSTORE AND SWAP1 PUSH1 0x6 SLOAD AND OR PUSH1 0x6 SSTORE PUSH3 0x93A80 PUSH1 0x7 SSTORE PUSH10 0x21E19E0C9BAB2400000 PUSH1 0x8 SSTORE PUSH3 0x186A0 PUSH1 0x9 SSTORE PUSH2 0x1725 SWAP1 DUP2 PUSH2 0x12D DUP3 CODECOPY RETURN JUMPDEST PUSH1 0x40 MLOAD PUSH4 0x1E4FBDF7 PUSH1 0xE0 SHL DUP2 MSTORE PUSH1 0x0 PUSH1 0x4 DUP3 ADD MSTORE PUSH1 0x24 SWAP1 REVERT JUMPDEST PUSH1 0x0 DUP1 REVERT JUMPDEST PUSH4 0x4E487B71 PUSH1 0xE0 SHL PUSH1 0x0 MSTORE PUSH1 0x41 PUSH1 0x4 MSTORE PUSH1 0x24 PUSH1 0x0 REVERT JUMPDEST MLOAD SWAP1 PUSH1 0x1 PUSH1 0x1 PUSH1 0xA0 SHL SUB DUP3 AND DUP3 SUB PUSH2 0xFD JUMPI JUMP INVALID PUSH1 0x80 PUSH1 0x40 MSTORE PUSH1 0x4 CALLDATASIZE LT ISZERO PUSH2 0x12 JUMPI PUSH1 0x0 DUP1 REVERT JUMPDEST PUSH1 0x0 CALLDATALOAD PUSH1 0xE0 SHR DUP1 PUSH4 0x13CF08B EQ PUSH2 0x12E4 JUMPI DUP1 PUSH4 0x2A251A3 EQ PUSH2 0x12C6 JUMPI DUP1 PUSH4 0x105603AC EQ PUSH2 0xBAE JUMPI DUP1 PUSH4 0x1AEEC15E EQ PUSH2 0xABA JUMPI DUP1 PUSH4 0x3B4D01A7 EQ PUSH2 0x9F2 JUMPI DUP1 PUSH4 0x3E4F49E6 EQ PUSH2 0x9C5 JUMPI DUP1 PUSH4 0x4E616203 EQ PUSH2 0x99C JUMPI DUP1 PUSH4 0x4FA76EC9 EQ PUSH2 0x97E JUMPI DUP1 PUSH4 0x56781388 EQ PUSH2 0x6B4 JUMPI DUP1 PUSH4 0x57AD6279 EQ PUSH2 0x640 JUMPI DUP1 PUSH4 0x715018A6 EQ PUSH2 0x5E7 JUMPI DUP1 PUSH4 0x83197EF0 EQ PUSH2 0x59A JUMPI DUP1 PUSH4 0x8DA5CB5B EQ PUSH2 0x571 JUMPI DUP1 PUSH4 0xA890C910 EQ PUSH2 0x492 JUMPI DUP1 PUSH4 0xB58131B0 EQ PUSH2 0x474 JUMPI DUP1 PUSH4 0xCC7A2B21 EQ PUSH2 0x3D5 JUMPI DUP1 PUSH4 0xD23254B4 EQ PUSH2 0x36D JUMPI DUP1 PUSH4 0xD33219B4 EQ PUSH2 0x344 JUMPI DUP1 PUSH4 0xDA35C664 EQ PUSH2 0x326 JUMPI DUP1 PUSH4 0xEF00EF43 EQ PUSH2 0x25F JUMPI DUP1 PUSH4 0xF0F9E6B7 EQ PUSH2 0x19C JUMPI PUSH4 0xF2FDE38B EQ PUSH2 0x10E JUMPI PUSH1 0x0 DUP1 REVERT JUMPDEST CALLVALUE PUSH2 0x197 JUMPI PUSH1 0x20 CALLDATASIZE PUSH1 0x3 NOT ADD SLT PUSH2 0x197 JUMPI PUSH2 0x127 PUSH2 0x1580 JUMP JUMPDEST PUSH2 0x12F PUSH2 0x16EC JUMP JUMPDEST PUSH1 0x1 PUSH1 0x1 PUSH1 0xA0 SHL SUB SWAP1 DUP2 AND SWAP1 DUP2 ISZERO PUSH2 0x17E JUMPI PUSH1 0x0 SLOAD DUP3 PUSH1 0x1 PUSH1 0x1 PUSH1 0x60 SHL SUB PUSH1 0xA0 SHL DUP3 AND OR PUSH1 0x0 SSTORE AND PUSH32 0x8BE0079C531659141344CD1FD0A4F28419497F9722A3DAAFE3B4186F6B6457E0 PUSH1 0x0 DUP1 LOG3 STOP JUMPDEST PUSH1 0x40 MLOAD PUSH4 0x1E4FBDF7 PUSH1 0xE0 SHL DUP2 MSTORE PUSH1 0x0 PUSH1 0x4 DUP3 ADD MSTORE PUSH1 0x24 SWAP1 REVERT JUMPDEST PUSH1 0x0 DUP1 REVERT JUMPDEST CALLVALUE PUSH2 0x197 JUMPI PUSH1 0x20 CALLDATASIZE PUSH1 0x3 NOT ADD SLT PUSH2 0x197 JUMPI PUSH1 0x4 CALLDATALOAD PUSH2 0x1B8 PUSH2 0x16EC JUMP JUMPDEST PUSH3 0xF4240 DUP2 GT PUSH2 0x21A JUMPI PUSH1 0x80 DUP2 PUSH32 0x48E381A1BABC0380D5DE4948672449B79A514434C0E351800509C47A84578F85 SWAP3 PUSH1 0x9 SSTORE PUSH1 0x40 MLOAD SWAP1 PUSH1 0x40 DUP3 MSTORE PUSH1 0x10 PUSH1 0x40 DUP4 ADD MSTORE PUSH16 0x51756F72756D50657263656E74616765 PUSH1 0x80 SHL PUSH1 0x60 DUP4 ADD MSTORE PUSH1 0x20 DUP3 ADD MSTORE LOG1 STOP JUMPDEST PUSH1 0x40 MLOAD PUSH3 0x461BCD PUSH1 0xE5 SHL DUP2 MSTORE PUSH1 0x20 PUSH1 0x4 DUP3 ADD MSTORE PUSH1 0x19 PUSH1 0x24 DUP3 ADD MSTORE PUSH32 0x51756F72756D2063616E6E6F7420657863656564203130302500000000000000 PUSH1 0x44 DUP3 ADD MSTORE PUSH1 0x64 SWAP1 REVERT JUMPDEST CALLVALUE PUSH2 0x197 JUMPI PUSH1 0x20 CALLDATASIZE PUSH1 0x3 NOT ADD SLT PUSH2 0x197 JUMPI PUSH1 0x4 CALLDATALOAD PUSH2 0x27B PUSH2 0x16EC JUMP JUMPDEST DUP1 ISZERO PUSH2 0x2D5 JUMPI PUSH1 0x80 DUP2 PUSH32 0x48E381A1BABC0380D5DE4948672449B79A514434C0E351800509C47A84578F85 SWAP3 PUSH1 0x7 SSTORE PUSH1 0x40 MLOAD SWAP1 PUSH1 0x40 DUP3 MSTORE PUSH1 0xC PUSH1 0x40 DUP4 ADD MSTORE PUSH12 0x159BDD1A5B99D4195C9A5BD9 PUSH1 0xA2 SHL PUSH1 0x60 DUP4 ADD MSTORE PUSH1 0x20 DUP3 ADD MSTORE LOG1 STOP JUMPDEST PUSH1 0x40 MLOAD PUSH3 0x461BCD PUSH1 0xE5 SHL DUP2 MSTORE PUSH1 0x20 PUSH1 0x4 DUP3 ADD MSTORE PUSH1 0x24 DUP1 DUP3 ADD MSTORE PUSH32 0x566F74696E6720706572696F64206D7573742062652067726561746572207468 PUSH1 0x44 DUP3 ADD MSTORE PUSH4 0x616E203 PUSH1 0xE4 SHL PUSH1 0x64 DUP3 ADD MSTORE PUSH1 0x84 SWAP1 REVERT JUMPDEST CALLVALUE PUSH2 0x197 JUMPI PUSH1 0x0 CALLDATASIZE PUSH1 0x3 NOT ADD SLT PUSH2 0x197 JUMPI PUSH1 0x20 PUSH1 0x2 SLOAD PUSH1 0x40 MLOAD SWAP1 DUP2 MSTORE RETURN JUMPDEST CALLVALUE PUSH2 0x197 JUMPI PUSH1 0x0 CALLDATASIZE PUSH1 0x3 NOT ADD SLT PUSH2 0x197 JUMPI PUSH1 0x5 SLOAD PUSH1 0x40 MLOAD PUSH1 0x1 PUSH1 0x1 PUSH1 0xA0 SHL SUB SWAP1 SWAP2 AND DUP2 MSTORE PUSH1 0x20 SWAP1 RETURN JUMPDEST CALLVALUE PUSH2 0x197 JUMPI PUSH1 0x40 CALLDATASIZE PUSH1 0x3 NOT ADD SLT PUSH2 0x197 JUMPI PUSH1 0x24 CALLDATALOAD PUSH1 0x1 PUSH1 0x1 PUSH1 0xA0 SHL SUB DUP2 AND SWAP1 DUP2 SWAP1 SUB PUSH2 0x197 JUMPI PUSH1 0x4 CALLDATALOAD PUSH1 0x0 MSTORE PUSH1 0x4 PUSH1 0x20 MSTORE PUSH1 0x40 PUSH1 0x0 KECCAK256 SWAP1 PUSH1 0x0 MSTORE PUSH1 0x20 MSTORE PUSH1 0x60 PUSH1 0x40 PUSH1 0x0 KECCAK256 PUSH1 0x1 DUP2 SLOAD SWAP2 ADD SLOAD PUSH1 0xFF PUSH1 0x40 MLOAD SWAP3 DUP2 DUP2 AND ISZERO ISZERO DUP5 MSTORE PUSH1 0x8 SHR AND PUSH1 0x20 DUP4 ADD MSTORE PUSH1 0x40 DUP3 ADD MSTORE RETURN JUMPDEST CALLVALUE PUSH2 0x197 JUMPI PUSH1 0x20 CALLDATASIZE PUSH1 0x3 NOT ADD SLT PUSH2 0x197 JUMPI PUSH1 0x4 CALLDATALOAD PUSH1 0x1 PUSH1 0x1 PUSH1 0xA0 SHL SUB DUP2 AND DUP1 DUP3 SUB PUSH2 0x197 JUMPI PUSH2 0x402 PUSH2 0x16EC JUMP JUMPDEST ISZERO PUSH2 0x42F JUMPI TIMESTAMP PUSH32 0x712AE1383F79AC853F8D882153778E0260EF8F03B504E2866E0593E04D2B291F PUSH1 0x0 DUP1 LOG2 SELFDESTRUCT JUMPDEST PUSH1 0x40 MLOAD PUSH3 0x461BCD PUSH1 0xE5 SHL DUP2 MSTORE PUSH1 0x20 PUSH1 0x4 DUP3 ADD MSTORE PUSH1 0x19 PUSH1 0x24 DUP3 ADD MSTORE PUSH32 0x496E76616C696420726563697069656E74206164647265737300000000000000 PUSH1 0x44 DUP3 ADD MSTORE PUSH1 0x64 SWAP1 REVERT JUMPDEST CALLVALUE PUSH2 0x197 JUMPI PUSH1 0x0 CALLDATASIZE PUSH1 0x3 NOT ADD SLT PUSH2 0x197 JUMPI PUSH1 0x20 PUSH1 0x8 SLOAD PUSH1 0x40 MLOAD SWAP1 DUP2 MSTORE RETURN JUMPDEST CALLVALUE PUSH2 0x197 JUMPI PUSH1 0x20 CALLDATASIZE PUSH1 0x3 NOT ADD SLT PUSH2 0x197 JUMPI PUSH2 0x4AB PUSH2 0x1580 JUMP JUMPDEST PUSH2 0x4B3 PUSH2 0x16EC JUMP JUMPDEST PUSH1 0x1 PUSH1 0x1 PUSH1 0xA0 SHL SUB SWAP1 DUP2 AND DUP1 ISZERO PUSH2 0x52C JUMPI PUSH32 0xE397B660EB55877C8394E2DBE3DDAD8744697EE44034E424712E373067DFEDD4 SWAP2 PUSH1 0xA0 SWAP2 PUSH1 0x5 SLOAD SWAP2 DUP2 PUSH1 0x1 PUSH1 0x1 PUSH1 0x60 SHL SUB DUP6 SHL DUP5 AND OR PUSH1 0x5 SSTORE PUSH1 0x40 MLOAD SWAP3 PUSH1 0x60 DUP5 MSTORE PUSH1 0x8 PUSH1 0x60 DUP6 ADD MSTORE PUSH8 0x54696D656C6F636B PUSH1 0xC0 SHL PUSH1 0x80 DUP6 ADD MSTORE AND PUSH1 0x20 DUP4 ADD MSTORE PUSH1 0x40 DUP3 ADD MSTORE LOG1 STOP JUMPDEST PUSH1 0x40 MLOAD PUSH3 0x461BCD PUSH1 0xE5 SHL DUP2 MSTORE PUSH1 0x20 PUSH1 0x4 DUP3 ADD MSTORE PUSH1 0x18 PUSH1 0x24 DUP3 ADD MSTORE PUSH32 0x496E76616C69642074696D656C6F636B20616464726573730000000000000000 PUSH1 0x44 DUP3 ADD MSTORE PUSH1 0x64 SWAP1 REVERT JUMPDEST CALLVALUE PUSH2 0x197 JUMPI PUSH1 0x0 CALLDATASIZE PUSH1 0x3 NOT ADD SLT PUSH2 0x197 JUMPI PUSH1 0x0 SLOAD PUSH1 0x40 MLOAD PUSH1 0x1 PUSH1 0x1 PUSH1 0xA0 SHL SUB SWAP1 SWAP2 AND DUP2 MSTORE PUSH1 0x20 SWAP1 RETURN JUMPDEST CALLVALUE PUSH2 0x197 JUMPI PUSH1 0x0 CALLDATASIZE PUSH1 0x3 NOT ADD SLT PUSH2 0x197 JUMPI PUSH2 0x5B3 PUSH2 0x16EC JUMP JUMPDEST TIMESTAMP PUSH32 0x712AE1383F79AC853F8D882153778E0260EF8F03B504E2866E0593E04D2B291F PUSH1 0x0 DUP1 LOG2 PUSH1 0x0 SLOAD PUSH1 0x1 PUSH1 0x1 PUSH1 0xA0 SHL SUB AND SELFDESTRUCT JUMPDEST CALLVALUE PUSH2 0x197 JUMPI PUSH1 0x0 CALLDATASIZE PUSH1 0x3 NOT ADD SLT PUSH2 0x197 JUMPI PUSH2 0x600 PUSH2 0x16EC JUMP JUMPDEST PUSH1 0x0 DUP1 SLOAD PUSH1 0x1 PUSH1 0x1 PUSH1 0xA0 SHL SUB NOT DUP2 AND DUP3 SSTORE PUSH1 0x1 PUSH1 0x1 PUSH1 0xA0 SHL SUB AND PUSH32 0x8BE0079C531659141344CD1FD0A4F28419497F9722A3DAAFE3B4186F6B6457E0 DUP3 DUP1 LOG3 STOP JUMPDEST CALLVALUE PUSH2 0x197 JUMPI PUSH1 0x20 CALLDATASIZE PUSH1 0x3 NOT ADD SLT PUSH2 0x197 JUMPI PUSH32 0x48E381A1BABC0380D5DE4948672449B79A514434C0E351800509C47A84578F85 PUSH1 0x80 PUSH1 0x4 CALLDATALOAD PUSH2 0x67F PUSH2 0x16EC JUMP JUMPDEST DUP1 PUSH1 0x8 SSTORE PUSH1 0x40 MLOAD SWAP1 PUSH1 0x40 DUP3 MSTORE PUSH1 0x11 PUSH1 0x40 DUP4 ADD MSTORE PUSH17 0x141C9BDC1BDCD85B151A1C995CDA1BDB19 PUSH1 0x7A SHL PUSH1 0x60 DUP4 ADD MSTORE PUSH1 0x20 DUP3 ADD MSTORE LOG1 STOP JUMPDEST CALLVALUE PUSH2 0x197 JUMPI PUSH1 0x40 CALLDATASIZE PUSH1 0x3 NOT ADD SLT PUSH2 0x197 JUMPI PUSH1 0x4 CALLDATALOAD PUSH1 0x24 SWAP1 DUP2 CALLDATALOAD SWAP1 PUSH1 0xFF DUP3 AND SWAP2 DUP3 DUP2 SUB PUSH2 0x197 JUMPI PUSH1 0x1 SWAP4 PUSH1 0x2 DUP6 SLOAD EQ PUSH2 0x96C JUMPI PUSH1 0x2 DUP6 SSTORE DUP3 ISZERO ISZERO DUP1 PUSH2 0x960 JUMPI JUMPDEST PUSH2 0x6FC SWAP1 PUSH2 0x1622 JUMP JUMPDEST PUSH1 0x2 DUP5 GT PUSH2 0x91C JUMPI DUP3 PUSH1 0x0 MSTORE PUSH1 0x20 SWAP2 PUSH1 0x3 DUP4 MSTORE PUSH1 0x40 PUSH1 0x0 KECCAK256 SWAP1 PUSH1 0xFF PUSH1 0x9 DUP4 ADD SLOAD PUSH1 0x8 SHR AND PUSH1 0x7 DUP2 LT ISZERO PUSH2 0x907 JUMPI DUP8 SUB PUSH2 0x8CA JUMPI PUSH1 0x3 DUP3 ADD SLOAD TIMESTAMP GT PUSH2 0x886 JUMPI PUSH1 0xD DUP3 ADD CALLER PUSH1 0x0 MSTORE DUP1 DUP6 MSTORE PUSH1 0xFF PUSH1 0x40 PUSH1 0x0 KECCAK256 SLOAD AND PUSH2 0x852 JUMPI PUSH1 0x64 SWAP2 DUP9 SWAP2 CALLER PUSH1 0x0 MSTORE DUP7 MSTORE PUSH1 0x40 PUSH1 0x0 KECCAK256 DUP3 PUSH1 0xFF NOT DUP3 SLOAD AND OR SWAP1 SSTORE DUP7 PUSH1 0x0 MSTORE PUSH1 0x4 DUP7 MSTORE PUSH1 0x40 PUSH1 0x0 KECCAK256 CALLER PUSH1 0x0 MSTORE DUP7 MSTORE DUP2 PUSH1 0x40 PUSH1 0x0 KECCAK256 SWAP2 PUSH2 0xFF00 DUP4 SLOAD SWAP2 PUSH1 0x8 SHL AND SWAP1 PUSH2 0xFFFF NOT AND OR OR DUP2 SSTORE ADD SSTORE DUP6 DUP6 EQ PUSH1 0x0 EQ PUSH2 0x804 JUMPI PUSH1 0x4 ADD DUP1 SLOAD SWAP2 PUSH1 0x64 DUP4 ADD DUP1 SWAP4 GT PUSH2 0x7F0 JUMPI POP SSTORE PUSH1 0x64 SWAP1 JUMPDEST PUSH1 0x40 MLOAD SWAP4 DUP5 MSTORE DUP4 ADD MSTORE PUSH32 0xB83D25C6A5D258561330739951487ACB4BD09BA5190B5D32C4F261817D906792 PUSH1 0x40 CALLER SWAP4 LOG3 DUP1 SSTORE STOP JUMPDEST PUSH4 0x4E487B71 PUSH1 0xE0 SHL PUSH1 0x0 SWAP1 DUP2 MSTORE PUSH1 0x11 PUSH1 0x4 MSTORE REVERT JUMPDEST DUP5 PUSH2 0x824 JUMPI PUSH1 0x5 ADD DUP1 SLOAD SWAP2 PUSH1 0x64 DUP4 ADD DUP1 SWAP4 GT PUSH2 0x7F0 JUMPI POP SSTORE PUSH1 0x64 SWAP1 PUSH2 0x7BD JUMP JUMPDEST PUSH1 0x2 DUP6 EQ PUSH2 0x837 JUMPI JUMPDEST POP POP PUSH1 0x64 SWAP1 PUSH2 0x7BD JUMP JUMPDEST PUSH1 0x6 ADD DUP1 SLOAD SWAP2 PUSH1 0x64 DUP4 ADD DUP1 SWAP4 GT PUSH2 0x7F0 JUMPI POP SSTORE PUSH1 0x64 DUP6 PUSH2 0x82D JUMP JUMPDEST PUSH1 0x40 MLOAD PUSH3 0x461BCD PUSH1 0xE5 SHL DUP2 MSTORE PUSH1 0x4 DUP2 ADD DUP7 SWAP1 MSTORE PUSH1 0xD DUP2 DUP7 ADD MSTORE PUSH13 0x105B1C9958591E481D9BDD1959 PUSH1 0x9A SHL PUSH1 0x44 DUP3 ADD MSTORE PUSH1 0x64 SWAP1 REVERT JUMPDEST PUSH1 0x40 MLOAD PUSH3 0x461BCD PUSH1 0xE5 SHL DUP2 MSTORE PUSH1 0x4 DUP2 ADD DUP6 SWAP1 MSTORE PUSH1 0x17 DUP2 DUP6 ADD MSTORE PUSH32 0x566F74696E6720706572696F642068617320656E646564000000000000000000 PUSH1 0x44 DUP3 ADD MSTORE PUSH1 0x64 SWAP1 REVERT JUMPDEST PUSH1 0x40 MLOAD PUSH3 0x461BCD PUSH1 0xE5 SHL DUP2 MSTORE PUSH1 0x4 DUP2 ADD DUP6 SWAP1 MSTORE PUSH1 0x16 DUP2 DUP6 ADD MSTORE PUSH22 0x50726F706F73616C206973206E6F7420616374697665 PUSH1 0x50 SHL PUSH1 0x44 DUP3 ADD MSTORE PUSH1 0x64 SWAP1 REVERT JUMPDEST DUP4 PUSH4 0x4E487B71 PUSH1 0xE0 SHL PUSH1 0x0 MSTORE PUSH1 0x21 PUSH1 0x4 MSTORE PUSH1 0x0 REVERT JUMPDEST PUSH1 0x64 SWAP1 PUSH1 0x1A PUSH1 0x40 MLOAD SWAP2 PUSH3 0x461BCD PUSH1 0xE5 SHL DUP4 MSTORE PUSH1 0x20 PUSH1 0x4 DUP5 ADD MSTORE DUP3 ADD MSTORE PUSH32 0x496E76616C696420766F746520737570706F72742076616C7565000000000000 PUSH1 0x44 DUP3 ADD MSTORE REVERT JUMPDEST POP PUSH1 0x2 SLOAD DUP4 GT ISZERO PUSH2 0x6F3 JUMP JUMPDEST PUSH1 0x40 MLOAD PUSH4 0x3EE5AEB5 PUSH1 0xE0 SHL DUP2 MSTORE PUSH1 0x4 SWAP1 REVERT JUMPDEST CALLVALUE PUSH2 0x197 JUMPI PUSH1 0x0 CALLDATASIZE PUSH1 0x3 NOT ADD SLT PUSH2 0x197 JUMPI PUSH1 0x20 PUSH1 0x9 SLOAD PUSH1 0x40 MLOAD SWAP1 DUP2 MSTORE RETURN JUMPDEST CALLVALUE PUSH2 0x197 JUMPI PUSH1 0x0 CALLDATASIZE PUSH1 0x3 NOT ADD SLT PUSH2 0x197 JUMPI PUSH1 0x6 SLOAD PUSH1 0x40 MLOAD PUSH1 0x1 PUSH1 0x1 PUSH1 0xA0 SHL SUB SWAP1 SWAP2 AND DUP2 MSTORE PUSH1 0x20 SWAP1 RETURN JUMPDEST CALLVALUE PUSH2 0x197 JUMPI PUSH1 0x20 CALLDATASIZE PUSH1 0x3 NOT ADD SLT PUSH2 0x197 JUMPI PUSH1 0x20 PUSH2 0x9E3 PUSH1 0x4 CALLDATALOAD PUSH2 0x1664 JUMP JUMPDEST PUSH2 0x9F0 PUSH1 0x40 MLOAD DUP1 SWAP3 PUSH2 0x1514 JUMP JUMPDEST RETURN JUMPDEST CALLVALUE PUSH2 0x197 JUMPI PUSH1 0x20 CALLDATASIZE PUSH1 0x3 NOT ADD SLT PUSH2 0x197 JUMPI PUSH1 0x4 CALLDATALOAD PUSH1 0x0 MSTORE PUSH1 0x3 PUSH1 0x20 MSTORE PUSH1 0x40 PUSH1 0x0 KECCAK256 PUSH1 0x1 DUP1 PUSH1 0xA0 SHL SUB PUSH1 0x1 DUP3 ADD SLOAD AND SWAP1 PUSH1 0x2 DUP2 ADD SLOAD SWAP1 PUSH2 0xAB6 PUSH2 0xA93 PUSH1 0x3 DUP4 ADD SLOAD SWAP5 PUSH1 0x4 DUP5 ADD SLOAD SWAP1 PUSH1 0x5 DUP6 ADD SLOAD PUSH1 0x6 DUP7 ADD SLOAD PUSH1 0x7 DUP8 ADD SLOAD SWAP2 PUSH2 0xA5A PUSH1 0x8 PUSH1 0x9 DUP11 ADD SLOAD SWAP10 ADD PUSH2 0x140C JUMP JUMPDEST SWAP5 PUSH1 0x40 MLOAD SWAP11 DUP12 SWAP11 PUSH2 0x140 SWAP7 DUP13 MSTORE PUSH1 0x20 DUP13 ADD MSTORE PUSH1 0x40 DUP12 ADD MSTORE PUSH1 0x60 DUP11 ADD MSTORE PUSH1 0x80 DUP10 ADD MSTORE PUSH1 0xA0 DUP9 ADD MSTORE PUSH1 0xC0 DUP8 ADD MSTORE DUP1 PUSH1 0xE0 DUP8 ADD MSTORE DUP6 ADD SWAP1 PUSH2 0x14B1 JUMP JUMPDEST SWAP2 PUSH2 0xAA5 PUSH2 0x100 DUP6 ADD PUSH1 0xFF DUP4 AND PUSH2 0x14F1 JUMP JUMPDEST PUSH1 0xFF PUSH2 0x120 DUP6 ADD SWAP2 PUSH1 0x8 SHR AND PUSH2 0x1514 JUMP JUMPDEST SUB SWAP1 RETURN JUMPDEST CALLVALUE PUSH2 0x197 JUMPI PUSH1 0x20 CALLDATASIZE PUSH1 0x3 NOT ADD SLT PUSH2 0x197 JUMPI PUSH2 0xAD3 PUSH2 0x1580 JUMP JUMPDEST PUSH2 0xADB PUSH2 0x16EC JUMP JUMPDEST PUSH1 0x1 PUSH1 0x1 PUSH1 0xA0 SHL SUB SWAP1 DUP2 AND DUP1 ISZERO PUSH2 0xB69 JUMPI PUSH32 0xE397B660EB55877C8394E2DBE3DDAD8744697EE44034E424712E373067DFEDD4 SWAP2 PUSH1 0xA0 SWAP2 PUSH1 0x6 SLOAD SWAP2 DUP2 PUSH1 0x1 PUSH1 0x1 PUSH1 0x60 SHL SUB DUP6 SHL DUP5 AND OR PUSH1 0x6 SSTORE PUSH1 0x40 MLOAD SWAP3 PUSH1 0x60 DUP5 MSTORE PUSH1 0x1E PUSH1 0x60 DUP6 ADD MSTORE PUSH32 0x546872656174496E74656C6C6967656E6365436F6F7264696E6174696F6E0000 PUSH1 0x80 DUP6 ADD MSTORE AND PUSH1 0x20 DUP4 ADD MSTORE PUSH1 0x40 DUP3 ADD MSTORE LOG1 STOP JUMPDEST PUSH1 0x40 MLOAD PUSH3 0x461BCD PUSH1 0xE5 SHL DUP2 MSTORE PUSH1 0x20 PUSH1 0x4 DUP3 ADD MSTORE PUSH1 0x18 PUSH1 0x24 DUP3 ADD MSTORE PUSH32 0x496E76616C696420636F6E747261637420616464726573730000000000000000 PUSH1 0x44 DUP3 ADD MSTORE PUSH1 0x64 SWAP1 REVERT JUMPDEST CALLVALUE PUSH2 0x197 JUMPI PUSH1 0xA0 CALLDATASIZE PUSH1 0x3 NOT ADD SLT PUSH2 0x197 JUMPI PUSH1 0x4 CALLDATALOAD PUSH8 0xFFFFFFFFFFFFFFFF DUP2 GT PUSH2 0x197 JUMPI CALLDATASIZE PUSH1 0x23 DUP3 ADD SLT ISZERO PUSH2 0x197 JUMPI PUSH2 0xBF0 SWAP1 CALLDATASIZE SWAP1 PUSH1 0x24 DUP2 PUSH1 0x4 ADD CALLDATALOAD SWAP2 ADD PUSH2 0x1521 JUMP JUMPDEST PUSH1 0x6 PUSH1 0x24 CALLDATALOAD LT ISZERO PUSH2 0x197 JUMPI PUSH1 0x44 CALLDATALOAD SWAP1 PUSH8 0xFFFFFFFFFFFFFFFF DUP3 GT PUSH2 0x197 JUMPI CALLDATASIZE PUSH1 0x23 DUP4 ADD SLT ISZERO PUSH2 0x197 JUMPI DUP2 PUSH1 0x4 ADD CALLDATALOAD SWAP1 PUSH2 0xC28 DUP3 PUSH2 0x1568 JUMP JUMPDEST SWAP3 PUSH2 0xC36 PUSH1 0x40 MLOAD SWAP5 DUP6 PUSH2 0x13EA JUMP JUMPDEST DUP3 DUP5 MSTORE PUSH1 0x20 DUP5 ADD SWAP1 PUSH1 0x24 DUP3 SWAP5 PUSH1 0x5 SHL DUP3 ADD ADD SWAP1 CALLDATASIZE DUP3 GT PUSH2 0x197 JUMPI PUSH1 0x24 ADD SWAP2 JUMPDEST DUP2 DUP4 LT PUSH2 0x12A6 JUMPI POP POP POP PUSH8 0xFFFFFFFFFFFFFFFF PUSH1 0x64 CALLDATALOAD GT PUSH2 0x197 JUMPI CALLDATASIZE PUSH1 0x23 PUSH1 0x64 CALLDATALOAD ADD SLT ISZERO PUSH2 0x197 JUMPI PUSH1 0x64 CALLDATALOAD PUSH1 0x4 ADD CALLDATALOAD SWAP3 PUSH2 0xC8E DUP5 PUSH2 0x1568 JUMP JUMPDEST PUSH2 0xC9B PUSH1 0x40 MLOAD SWAP2 DUP3 PUSH2 0x13EA JUMP JUMPDEST DUP5 DUP2 MSTORE PUSH1 0x20 DUP2 ADD SWAP5 DUP6 CALLDATASIZE PUSH1 0x24 DUP4 PUSH1 0x5 SHL PUSH1 0x64 CALLDATALOAD ADD ADD GT PUSH2 0x197 JUMPI PUSH1 0x24 PUSH1 0x64 CALLDATALOAD ADD SWAP1 JUMPDEST PUSH1 0x24 DUP4 PUSH1 0x5 SHL PUSH1 0x64 CALLDATALOAD ADD ADD DUP3 LT PUSH2 0x1296 JUMPI POP POP POP PUSH8 0xFFFFFFFFFFFFFFFF PUSH1 0x84 CALLDATALOAD GT PUSH2 0x197 JUMPI CALLDATASIZE PUSH1 0x23 PUSH1 0x84 CALLDATALOAD ADD SLT ISZERO PUSH2 0x197 JUMPI PUSH1 0x84 CALLDATALOAD PUSH1 0x4 ADD CALLDATALOAD SWAP5 PUSH2 0xD00 DUP7 PUSH2 0x1568 JUMP JUMPDEST SWAP2 PUSH2 0xD0E PUSH1 0x40 MLOAD SWAP4 DUP5 PUSH2 0x13EA JUMP JUMPDEST DUP7 DUP4 MSTORE PUSH1 0x20 DUP4 ADD DUP1 SWAP8 CALLDATASIZE PUSH1 0x24 DUP3 PUSH1 0x5 SHL PUSH1 0x84 CALLDATALOAD ADD ADD GT PUSH2 0x197 JUMPI PUSH1 0x24 PUSH1 0x84 CALLDATALOAD ADD SWAP2 JUMPDEST PUSH1 0x24 DUP3 PUSH1 0x5 SHL PUSH1 0x84 CALLDATALOAD ADD ADD DUP4 LT PUSH2 0x1249 JUMPI POP POP POP DUP5 MLOAD ISZERO PUSH2 0x1204 JUMPI DUP4 MLOAD DUP2 MLOAD DUP2 EQ SWAP1 DUP2 PUSH2 0x11F9 JUMPI JUMPDEST POP ISZERO PUSH2 0x11B4 JUMPI PUSH1 0x2 SLOAD SWAP6 PUSH1 0x0 NOT DUP8 EQ PUSH2 0x119E JUMPI PUSH1 0x1 DUP8 ADD PUSH1 0x2 SSTORE PUSH1 0x1 DUP8 ADD PUSH1 0x0 MSTORE PUSH1 0x3 PUSH1 0x20 MSTORE PUSH1 0x40 PUSH1 0x0 KECCAK256 SWAP5 PUSH1 0x1 DUP9 ADD DUP7 SSTORE PUSH1 0x1 DUP7 ADD CALLER PUSH1 0x1 PUSH1 0x1 PUSH1 0x60 SHL SUB PUSH1 0xA0 SHL DUP3 SLOAD AND OR SWAP1 SSTORE TIMESTAMP PUSH1 0x2 DUP8 ADD SSTORE PUSH2 0xDB2 PUSH1 0x7 SLOAD TIMESTAMP PUSH2 0x1596 JUMP JUMPDEST PUSH1 0x3 DUP8 ADD SSTORE PUSH1 0x0 PUSH1 0x4 DUP8 ADD SSTORE PUSH1 0x0 PUSH1 0x5 DUP8 ADD SSTORE PUSH1 0x0 PUSH1 0x6 DUP8 ADD SSTORE PUSH1 0x9 SLOAD PUSH1 0x7 DUP8 ADD SSTORE DUP7 MLOAD PUSH8 0xFFFFFFFFFFFFFFFF DUP2 GT PUSH2 0x1067 JUMPI PUSH2 0xDFF DUP2 PUSH2 0xDF6 PUSH1 0x8 DUP11 ADD SLOAD PUSH2 0x13B0 JUMP JUMPDEST PUSH1 0x8 DUP11 ADD PUSH2 0x15BA JUMP JUMPDEST PUSH1 0x20 PUSH1 0x1F DUP3 GT PUSH1 0x1 EQ PUSH2 0x1131 JUMPI SWAP1 DUP1 PUSH2 0xE2E SWAP3 PUSH1 0x0 SWAP2 PUSH2 0x1126 JUMPI JUMPDEST POP DUP2 PUSH1 0x1 SHL SWAP2 PUSH1 0x0 NOT SWAP1 PUSH1 0x3 SHL SHR NOT AND OR SWAP1 JUMP JUMPDEST PUSH1 0x8 DUP8 ADD SSTORE JUMPDEST PUSH1 0x9 DUP7 ADD DUP1 SLOAD PUSH2 0xFFFF NOT AND PUSH1 0x24 CALLDATALOAD PUSH1 0xFF AND OR SWAP1 SSTORE MLOAD SWAP1 PUSH8 0xFFFFFFFFFFFFFFFF DUP3 GT PUSH2 0x1067 JUMPI PUSH1 0x1 PUSH1 0x40 SHL DUP3 GT PUSH2 0x1067 JUMPI PUSH1 0xA DUP7 ADD DUP1 SLOAD DUP4 DUP3 SSTORE PUSH2 0xE79 SWAP2 DUP5 SWAP2 SWAP1 PUSH2 0x15FF JUMP JUMPDEST PUSH1 0xA DUP7 ADD PUSH1 0x0 MSTORE PUSH1 0x20 PUSH1 0x0 KECCAK256 PUSH1 0x0 JUMPDEST DUP4 DUP2 LT PUSH2 0x1109 JUMPI POP POP POP POP MLOAD SWAP1 PUSH8 0xFFFFFFFFFFFFFFFF DUP3 GT PUSH2 0x1067 JUMPI PUSH1 0x1 PUSH1 0x40 SHL DUP3 GT PUSH2 0x1067 JUMPI PUSH1 0xB DUP5 ADD DUP1 SLOAD DUP4 DUP3 SSTORE PUSH2 0xEC4 SWAP2 DUP5 SWAP2 SWAP1 PUSH2 0x15FF JUMP JUMPDEST PUSH1 0xB DUP5 ADD PUSH1 0x0 MSTORE PUSH1 0x20 PUSH1 0x0 KECCAK256 PUSH1 0x0 JUMPDEST DUP4 DUP2 LT PUSH2 0x10F5 JUMPI POP POP POP POP MLOAD SWAP4 PUSH1 0x1 PUSH1 0x40 SHL DUP6 GT PUSH2 0x1067 JUMPI PUSH1 0xC DUP3 ADD SLOAD DUP6 PUSH1 0xC DUP5 ADD SSTORE DUP1 DUP7 LT PUSH2 0x107D JUMPI JUMPDEST POP SWAP4 PUSH1 0xC DUP3 ADD PUSH1 0x0 MSTORE PUSH1 0x20 PUSH1 0x0 KECCAK256 SWAP5 PUSH1 0x0 SWAP1 JUMPDEST DUP3 DUP3 LT PUSH2 0xF7C JUMPI PUSH1 0x9 DUP5 ADD DUP1 SLOAD PUSH2 0xFF00 NOT AND PUSH2 0x100 OR SWAP1 SSTORE PUSH1 0x40 MLOAD PUSH1 0x20 DUP1 DUP3 MSTORE SWAP1 DUP8 SWAP1 PUSH1 0x24 CALLDATALOAD SWAP1 CALLER SWAP1 PUSH1 0x1 DUP5 ADD SWAP1 PUSH32 0xE0269F7953E70365E80E614E4EFE7D4BEDE59B7F5AD80982EA4064C97EE6F4EF SWAP1 DUP1 PUSH2 0xF6E DUP2 DUP10 ADD DUP15 PUSH2 0x14B1 JUMP JUMPDEST SUB SWAP1 LOG4 PUSH1 0x1 PUSH1 0x40 MLOAD SWAP2 ADD DUP2 MSTORE RETURN JUMPDEST DUP1 MLOAD DUP1 MLOAD SWAP1 PUSH8 0xFFFFFFFFFFFFFFFF DUP3 GT PUSH2 0x1067 JUMPI PUSH2 0xFA4 DUP3 PUSH2 0xF9E DUP12 SLOAD PUSH2 0x13B0 JUMP JUMPDEST DUP12 PUSH2 0x15BA JUMP JUMPDEST PUSH1 0x20 SWAP1 PUSH1 0x1F DUP4 GT PUSH1 0x1 EQ PUSH2 0xFF7 JUMPI SWAP3 PUSH2 0xFDD DUP4 PUSH1 0x1 SWAP6 SWAP5 PUSH1 0x20 SWAP5 DUP8 SWAP7 PUSH1 0x0 SWAP3 PUSH2 0xFEC JUMPI JUMPDEST POP POP DUP2 PUSH1 0x1 SHL SWAP2 PUSH1 0x0 NOT SWAP1 PUSH1 0x3 SHL SHR NOT AND OR SWAP1 JUMP JUMPDEST DUP11 SSTORE JUMPDEST ADD SWAP8 ADD SWAP2 ADD SWAP1 SWAP6 PUSH2 0xF11 JUMP JUMPDEST ADD MLOAD SWAP1 POP DUP14 DUP1 PUSH2 0xFC8 JUMP JUMPDEST SWAP1 DUP10 PUSH1 0x0 MSTORE PUSH1 0x20 PUSH1 0x0 KECCAK256 SWAP2 PUSH1 0x0 JUMPDEST PUSH1 0x1F NOT DUP6 AND DUP2 LT PUSH2 0x104F JUMPI POP DUP4 PUSH1 0x20 SWAP4 PUSH1 0x1 SWAP7 SWAP4 DUP8 SWAP7 SWAP4 DUP8 SWAP5 PUSH1 0x1F NOT DUP2 AND LT PUSH2 0x1036 JUMPI JUMPDEST POP POP POP DUP2 SHL ADD DUP11 SSTORE PUSH2 0xFE0 JUMP JUMPDEST ADD MLOAD PUSH1 0x0 NOT PUSH1 0xF8 DUP5 PUSH1 0x3 SHL AND SHR NOT AND SWAP1 SSTORE DUP13 DUP1 DUP1 PUSH2 0x1029 JUMP JUMPDEST SWAP2 SWAP3 PUSH1 0x20 PUSH1 0x1 DUP2 SWAP3 DUP7 DUP6 ADD MLOAD DUP2 SSTORE ADD SWAP5 ADD SWAP3 ADD PUSH2 0x1005 JUMP JUMPDEST PUSH4 0x4E487B71 PUSH1 0xE0 SHL PUSH1 0x0 MSTORE PUSH1 0x41 PUSH1 0x4 MSTORE PUSH1 0x24 PUSH1 0x0 REVERT JUMPDEST PUSH1 0xC DUP4 ADD PUSH1 0x0 MSTORE PUSH1 0x20 PUSH1 0x0 KECCAK256 SWAP1 DUP7 DUP3 ADD JUMPDEST DUP2 DUP4 ADD DUP2 LT PUSH2 0x109E JUMPI POP POP PUSH2 0xEFE JUMP JUMPDEST DUP1 PUSH2 0x10AB PUSH1 0x1 SWAP3 SLOAD PUSH2 0x13B0 JUMP JUMPDEST DUP1 PUSH2 0x10B8 JUMPI JUMPDEST POP ADD PUSH2 0x108E JUMP JUMPDEST PUSH1 0x1F DUP2 GT DUP4 EQ PUSH2 0x10CE JUMPI POP PUSH1 0x0 DUP2 SSTORE JUMPDEST DUP10 PUSH2 0x10B1 JUMP JUMPDEST PUSH1 0x0 SWAP1 DUP3 DUP3 MSTORE PUSH2 0x10EC PUSH1 0x1F PUSH1 0x20 DUP5 KECCAK256 SWAP3 ADD PUSH1 0x5 SHR DUP3 ADD DUP6 DUP4 ADD PUSH2 0x15A3 JUMP JUMPDEST DUP2 DUP4 SSTORE SSTORE PUSH2 0x10C8 JUMP JUMPDEST PUSH1 0x1 SWAP1 PUSH1 0x20 DUP5 MLOAD SWAP5 ADD SWAP4 DUP2 DUP5 ADD SSTORE ADD PUSH2 0xED3 JUMP JUMPDEST DUP3 MLOAD PUSH1 0x1 PUSH1 0x1 PUSH1 0xA0 SHL SUB AND DUP2 DUP4 ADD SSTORE PUSH1 0x20 SWAP1 SWAP3 ADD SWAP2 PUSH1 0x1 ADD PUSH2 0xE88 JUMP JUMPDEST SWAP1 POP DUP10 ADD MLOAD DUP13 PUSH2 0xE1A JUMP JUMPDEST SWAP1 PUSH1 0x8 DUP9 ADD PUSH1 0x0 MSTORE PUSH1 0x20 PUSH1 0x0 KECCAK256 PUSH1 0x0 SWAP3 JUMPDEST DUP11 PUSH1 0x1F NOT DUP5 AND DUP6 LT PUSH2 0x1187 JUMPI POP PUSH1 0x1 SWAP4 POP DUP3 PUSH1 0x1F NOT DUP2 AND LT PUSH2 0x116E JUMPI JUMPDEST POP POP DUP2 SHL ADD PUSH1 0x8 DUP8 ADD SSTORE PUSH2 0xE34 JUMP JUMPDEST DUP11 ADD MLOAD PUSH1 0x0 NOT PUSH1 0xF8 DUP5 PUSH1 0x3 SHL AND SHR NOT AND SWAP1 SSTORE DUP12 DUP1 PUSH2 0x115F JUMP JUMPDEST DUP2 ADD MLOAD DUP3 SSTORE PUSH1 0x20 SWAP4 DUP5 ADD SWAP4 PUSH1 0x1 SWAP1 SWAP3 ADD SWAP2 ADD PUSH2 0x1142 JUMP JUMPDEST PUSH4 0x4E487B71 PUSH1 0xE0 SHL PUSH1 0x0 MSTORE PUSH1 0x11 PUSH1 0x4 MSTORE PUSH1 0x24 PUSH1 0x0 REVERT JUMPDEST PUSH1 0x40 MLOAD PUSH3 0x461BCD PUSH1 0xE5 SHL DUP2 MSTORE PUSH1 0x20 PUSH1 0x4 DUP3 ADD MSTORE PUSH1 0x18 PUSH1 0x24 DUP3 ADD MSTORE PUSH32 0x4172726179206C656E67746873206D757374206D617463680000000000000000 PUSH1 0x44 DUP3 ADD MSTORE PUSH1 0x64 SWAP1 REVERT JUMPDEST SWAP1 POP DUP4 MLOAD EQ DUP9 PUSH2 0xD58 JUMP JUMPDEST PUSH1 0x40 MLOAD PUSH3 0x461BCD PUSH1 0xE5 SHL DUP2 MSTORE PUSH1 0x20 PUSH1 0x4 DUP3 ADD MSTORE PUSH1 0x1B PUSH1 0x24 DUP3 ADD MSTORE PUSH32 0x4465736372697074696F6E2063616E6E6F7420626520656D7074790000000000 PUSH1 0x44 DUP3 ADD MSTORE PUSH1 0x64 SWAP1 REVERT JUMPDEST DUP3 CALLDATALOAD SWAP1 PUSH8 0xFFFFFFFFFFFFFFFF DUP3 GT PUSH2 0x197 JUMPI CALLDATASIZE PUSH1 0x43 DUP4 PUSH1 0x84 CALLDATALOAD ADD ADD SLT ISZERO PUSH2 0x197 JUMPI PUSH1 0x24 SWAP2 PUSH1 0x20 SWAP2 DUP3 SWAP2 PUSH2 0x1289 SWAP1 CALLDATASIZE SWAP1 PUSH1 0x84 CALLDATALOAD ADD DUP1 DUP8 ADD CALLDATALOAD SWAP1 PUSH1 0x44 ADD PUSH2 0x1521 JUMP JUMPDEST DUP2 MSTORE ADD SWAP4 ADD SWAP3 SWAP1 POP PUSH2 0xD30 JUMP JUMPDEST DUP2 CALLDATALOAD DUP2 MSTORE PUSH1 0x20 SWAP2 DUP3 ADD SWAP2 ADD PUSH2 0xCBD JUMP JUMPDEST DUP3 CALLDATALOAD PUSH1 0x1 PUSH1 0x1 PUSH1 0xA0 SHL SUB DUP2 AND DUP2 SUB PUSH2 0x197 JUMPI DUP2 MSTORE PUSH1 0x20 SWAP3 DUP4 ADD SWAP3 ADD PUSH2 0xC55 JUMP JUMPDEST CALLVALUE PUSH2 0x197 JUMPI PUSH1 0x0 CALLDATASIZE PUSH1 0x3 NOT ADD SLT PUSH2 0x197 JUMPI PUSH1 0x20 PUSH1 0x7 SLOAD PUSH1 0x40 MLOAD SWAP1 DUP2 MSTORE RETURN JUMPDEST CALLVALUE PUSH2 0x197 JUMPI PUSH1 0x20 CALLDATASIZE PUSH1 0x3 NOT ADD SLT PUSH2 0x197 JUMPI PUSH1 0x4 CALLDATALOAD PUSH1 0x0 MSTORE PUSH1 0x3 PUSH1 0x20 MSTORE PUSH1 0x40 PUSH1 0x0 KECCAK256 DUP1 SLOAD PUSH1 0x1 DUP1 PUSH1 0xA0 SHL SUB PUSH1 0x1 DUP4 ADD SLOAD AND SWAP1 PUSH2 0xAB6 PUSH2 0x138D PUSH1 0x2 DUP6 ADD SLOAD SWAP5 PUSH1 0x3 DUP2 ADD SLOAD SWAP4 PUSH1 0x4 DUP3 ADD SLOAD PUSH1 0x5 DUP4 ADD SLOAD PUSH1 0x6 DUP5 ADD SLOAD SWAP1 PUSH1 0x7 DUP6 ADD SLOAD SWAP3 PUSH1 0x9 PUSH2 0x134B PUSH1 0x8 DUP9 ADD PUSH2 0x140C JUMP JUMPDEST SWAP7 ADD SLOAD SWAP9 PUSH1 0x40 MLOAD SWAP12 DUP13 SWAP12 PUSH2 0x160 SWAP8 DUP14 MSTORE PUSH1 0x20 DUP14 ADD MSTORE PUSH1 0x40 DUP13 ADD MSTORE PUSH1 0x60 DUP12 ADD MSTORE PUSH1 0x80 DUP11 ADD MSTORE PUSH1 0xA0 DUP10 ADD MSTORE PUSH1 0xC0 DUP9 ADD MSTORE PUSH1 0xE0 DUP8 ADD MSTORE DUP1 PUSH2 0x100 DUP8 ADD MSTORE DUP6 ADD SWAP1 PUSH2 0x14B1 JUMP JUMPDEST SWAP2 PUSH2 0x139F PUSH2 0x120 DUP6 ADD PUSH1 0xFF DUP4 AND PUSH2 0x14F1 JUMP JUMPDEST PUSH1 0xFF PUSH2 0x140 DUP6 ADD SWAP2 PUSH1 0x8 SHR AND PUSH2 0x1514 JUMP JUMPDEST SWAP1 PUSH1 0x1 DUP3 DUP2 SHR SWAP3 AND DUP1 ISZERO PUSH2 0x13E0 JUMPI JUMPDEST PUSH1 0x20 DUP4 LT EQ PUSH2 0x13CA JUMPI JUMP JUMPDEST PUSH4 0x4E487B71 PUSH1 0xE0 SHL PUSH1 0x0 MSTORE PUSH1 0x22 PUSH1 0x4 MSTORE PUSH1 0x24 PUSH1 0x0 REVERT JUMPDEST SWAP2 PUSH1 0x7F AND SWAP2 PUSH2 0x13BF JUMP JUMPDEST SWAP1 PUSH1 0x1F DUP1 NOT SWAP2 ADD AND DUP2 ADD SWAP1 DUP2 LT PUSH8 0xFFFFFFFFFFFFFFFF DUP3 GT OR PUSH2 0x1067 JUMPI PUSH1 0x40 MSTORE JUMP JUMPDEST SWAP1 PUSH1 0x40 MLOAD SWAP2 DUP3 PUSH1 0x0 DUP3 SLOAD PUSH2 0x141F DUP2 PUSH2 0x13B0 JUMP JUMPDEST SWAP1 DUP2 DUP5 MSTORE PUSH1 0x20 SWAP5 PUSH1 0x1 SWAP2 PUSH1 0x1 DUP2 AND SWAP1 DUP2 PUSH1 0x0 EQ PUSH2 0x148F JUMPI POP PUSH1 0x1 EQ PUSH2 0x1450 JUMPI JUMPDEST POP POP POP PUSH2 0x144E SWAP3 POP SUB DUP4 PUSH2 0x13EA JUMP JUMPDEST JUMP JUMPDEST PUSH1 0x0 SWAP1 DUP2 MSTORE DUP6 DUP2 KECCAK256 SWAP6 SWAP4 POP SWAP2 SWAP1 JUMPDEST DUP2 DUP4 LT PUSH2 0x1477 JUMPI POP POP PUSH2 0x144E SWAP4 POP DUP3 ADD ADD CODESIZE DUP1 DUP1 PUSH2 0x143F JUMP JUMPDEST DUP6 SLOAD DUP9 DUP5 ADD DUP6 ADD MSTORE SWAP5 DUP6 ADD SWAP5 DUP8 SWAP5 POP SWAP2 DUP4 ADD SWAP2 PUSH2 0x145E JUMP JUMPDEST SWAP3 POP POP POP PUSH2 0x144E SWAP5 SWAP3 POP PUSH1 0xFF NOT AND DUP3 DUP5 ADD MSTORE ISZERO ISZERO PUSH1 0x5 SHL DUP3 ADD ADD CODESIZE DUP1 DUP1 PUSH2 0x143F JUMP JUMPDEST SWAP2 SWAP1 DUP3 MLOAD SWAP3 DUP4 DUP3 MSTORE PUSH1 0x0 JUMPDEST DUP5 DUP2 LT PUSH2 0x14DD JUMPI POP POP DUP3 PUSH1 0x0 PUSH1 0x20 DUP1 SWAP5 SWAP6 DUP5 ADD ADD MSTORE PUSH1 0x1F DUP1 NOT SWAP2 ADD AND ADD ADD SWAP1 JUMP JUMPDEST PUSH1 0x20 DUP2 DUP4 ADD DUP2 ADD MLOAD DUP5 DUP4 ADD DUP3 ADD MSTORE ADD PUSH2 0x14BC JUMP JUMPDEST SWAP1 PUSH1 0x6 DUP3 LT ISZERO PUSH2 0x14FE JUMPI MSTORE JUMP JUMPDEST PUSH4 0x4E487B71 PUSH1 0xE0 SHL PUSH1 0x0 MSTORE PUSH1 0x21 PUSH1 0x4 MSTORE PUSH1 0x24 PUSH1 0x0 REVERT JUMPDEST SWAP1 PUSH1 0x7 DUP3 LT ISZERO PUSH2 0x14FE JUMPI MSTORE JUMP JUMPDEST SWAP3 SWAP2 SWAP3 PUSH8 0xFFFFFFFFFFFFFFFF DUP3 GT PUSH2 0x1067 JUMPI PUSH1 0x40 MLOAD SWAP2 PUSH2 0x154B PUSH1 0x1F DUP3 ADD PUSH1 0x1F NOT AND PUSH1 0x20 ADD DUP5 PUSH2 0x13EA JUMP JUMPDEST DUP3 SWAP5 DUP2 DUP5 MSTORE DUP2 DUP4 ADD GT PUSH2 0x197 JUMPI DUP3 DUP2 PUSH1 0x20 SWAP4 DUP5 PUSH1 0x0 SWAP7 ADD CALLDATACOPY ADD ADD MSTORE JUMP JUMPDEST PUSH8 0xFFFFFFFFFFFFFFFF DUP2 GT PUSH2 0x1067 JUMPI PUSH1 0x5 SHL PUSH1 0x20 ADD SWAP1 JUMP JUMPDEST PUSH1 0x4 CALLDATALOAD SWAP1 PUSH1 0x1 PUSH1 0x1 PUSH1 0xA0 SHL SUB DUP3 AND DUP3 SUB PUSH2 0x197 JUMPI JUMP JUMPDEST SWAP2 SWAP1 DUP3 ADD DUP1 SWAP3 GT PUSH2 0x119E JUMPI JUMP JUMPDEST DUP2 DUP2 LT PUSH2 0x15AE JUMPI POP POP JUMP JUMPDEST PUSH1 0x0 DUP2 SSTORE PUSH1 0x1 ADD PUSH2 0x15A3 JUMP JUMPDEST SWAP2 SWAP1 PUSH1 0x1F DUP2 GT PUSH2 0x15C9 JUMPI POP POP POP JUMP JUMPDEST PUSH2 0x144E SWAP3 PUSH1 0x0 MSTORE PUSH1 0x20 PUSH1 0x0 KECCAK256 SWAP1 PUSH1 0x20 PUSH1 0x1F DUP5 ADD PUSH1 0x5 SHR DUP4 ADD SWAP4 LT PUSH2 0x15F5 JUMPI JUMPDEST PUSH1 0x1F ADD PUSH1 0x5 SHR ADD SWAP1 PUSH2 0x15A3 JUMP JUMPDEST SWAP1 SWAP2 POP DUP2 SWAP1 PUSH2 0x15E8 JUMP JUMPDEST SWAP2 DUP2 DUP2 LT PUSH2 0x160C JUMPI POP POP POP JUMP JUMPDEST PUSH2 0x144E SWAP3 PUSH1 0x0 MSTORE PUSH1 0x20 PUSH1 0x0 KECCAK256 SWAP2 DUP3 ADD SWAP2 ADD PUSH2 0x15A3 JUMP JUMPDEST ISZERO PUSH2 0x1629 JUMPI JUMP JUMPDEST PUSH1 0x40 MLOAD PUSH3 0x461BCD PUSH1 0xE5 SHL DUP2 MSTORE PUSH1 0x20 PUSH1 0x4 DUP3 ADD MSTORE PUSH1 0x13 PUSH1 0x24 DUP3 ADD MSTORE PUSH19 0x125B9D985B1A59081C1C9BDC1BDCD85B081A59 PUSH1 0x6A SHL PUSH1 0x44 DUP3 ADD MSTORE PUSH1 0x64 SWAP1 REVERT JUMPDEST DUP1 ISZERO ISZERO DUP1 PUSH2 0x16E0 JUMPI JUMPDEST PUSH2 0x1676 SWAP1 PUSH2 0x1622 JUMP JUMPDEST PUSH1 0x0 MSTORE PUSH1 0x3 PUSH1 0x20 MSTORE PUSH1 0x40 PUSH1 0x0 KECCAK256 PUSH1 0x3 DUP2 ADD SLOAD TIMESTAMP GT PUSH2 0x169B JUMPI PUSH1 0x9 ADD SLOAD PUSH1 0x8 SHR PUSH1 0xFF AND SWAP1 JUMP JUMPDEST PUSH1 0x4 DUP2 ADD SLOAD SWAP1 PUSH1 0x5 DUP2 ADD SLOAD DUP1 DUP4 GT SWAP3 DUP4 PUSH2 0x16C4 JUMPI JUMPDEST POP POP POP PUSH1 0x0 EQ PUSH2 0x16BF JUMPI PUSH1 0x4 SWAP1 JUMP JUMPDEST PUSH1 0x3 SWAP1 JUMP JUMPDEST PUSH1 0x7 SWAP3 SWAP4 POP SWAP1 PUSH2 0x16D3 SWAP2 PUSH2 0x1596 JUMP JUMPDEST SWAP2 ADD SLOAD GT ISZERO CODESIZE DUP1 DUP1 PUSH2 0x16B0 JUMP JUMPDEST POP PUSH1 0x2 SLOAD DUP2 GT ISZERO PUSH2 0x166D JUMP JUMPDEST PUSH1 0x0 SLOAD PUSH1 0x1 PUSH1 0x1 PUSH1 0xA0 SHL SUB AND CALLER SUB PUSH2 0x1700 JUMPI JUMP JUMPDEST PUSH1 0x40 MLOAD PUSH4 0x118CDAA7 PUSH1 0xE0 SHL DUP2 MSTORE CALLER PUSH1 0x4 DUP3 ADD MSTORE PUSH1 0x24 SWAP1 REVERT INVALID LOG1 PUSH5 0x736F6C6343 STOP ADDMOD XOR STOP EXP "},"methodIdentifiers":{"castVote(uint256,uint8)":"56781388","createProposal(string,uint8,address[],uint256[],bytes[])":"105603ac","destroy()":"83197ef0","destroyAndSendTo(address)":"cc7a2b21","getProposalDetails(uint256)":"3b4d01a7","owner()":"8da5cb5b","proposalCount()":"da35c664","proposalThreshold()":"b58131b0","proposals(uint256)":"013cf08b","quorumPercentage()":"4fa76ec9","renounceOwnership()":"715018a6","state(uint256)":"3e4f49e6","threatIntelligenceCoordination()":"4e616203","timelock()":"d33219b4","transferOwnership(address)":"f2fde38b","updateProposalThreshold(uint256)":"57ad6279","updateQuorumPercentage(uint256)":"f0f9e6b7","updateThreatIntelligenceCoordination(address)":"1aeec15e","updateTimelock(address)":"a890c910","updateVotingPeriod(uint256)":"ef00ef43","votes(uint256,address)":"d23254b4","votingPeriod()":"02a251a3"}}}}}