{"contracts/ThreatBatch.sol":{"ThreatBatch":{"abi":[{"inputs":[],"stateMutability":"nonpayable","type":"constructor"},{"inputs":[{"internalType":"address","name":"owner","type":"address"}],"name":"OwnableInvalidOwner","type":"error"},{"inputs":[{"internalType":"address","name":"account","type":"address"}],"name":"OwnableUnauthorizedAccount","type":"error"},{"inputs":[],"name":"ReentrancyGuardReentrantCall","type":"error"},{"anonymous":false,"inputs":[{"indexed":true,"internalType":"address","name":"previousOwner","type":"address"},{"indexed":true,"internalType":"address","name":"newOwner","type":"address"}],"name":"OwnershipTransferred","type":"event"},{"anonymous":false,"inputs":[{"indexed":false,"internalType":"string","name":"ip","type":"string"},{"indexed":false,"internalType":"uint16","name":"newScore","type":"uint16"},{"indexed":false,"internalType":"uint16","name":"newOffenseCount","type":"uint16"},{"indexed":false,"internalType":"uint40","name":"lastOffenseTime","type":"uint40"}],"name":"ProfileUpdated","type":"event"},{"anonymous":false,"inputs":[{"indexed":false,"internalType":"string[]","name":"ips","type":"string[]"},{"indexed":false,"internalType":"uint32[]","name":"durations","type":"uint32[]"}],"name":"PunishBatch","type":"event"},{"inputs":[],"name":"MAX_BATCH_SIZE","outputs":[{"internalType":"uint256","name":"","type":"uint256"}],"stateMutability":"view","type":"function"},{"inputs":[],"name":"TIER_1","outputs":[{"internalType":"uint32","name":"","type":"uint32"}],"stateMutability":"view","type":"function"},{"inputs":[],"name":"TIER_2","outputs":[{"internalType":"uint32","name":"","type":"uint32"}],"stateMutability":"view","type":"function"},{"inputs":[],"name":"TIER_3","outputs":[{"internalType":"uint32","name":"","type":"uint32"}],"stateMutability":"view","type":"function"},{"inputs":[{"internalType":"string","name":"ip","type":"string"}],"name":"emergencyClearProfile","outputs":[],"stateMutability":"nonpayable","type":"function"},{"inputs":[{"internalType":"uint16","name":"offenseCount","type":"uint16"}],"name":"getBanDuration","outputs":[{"internalType":"uint32","name":"","type":"uint32"}],"stateMutability":"view","type":"function"},{"inputs":[{"internalType":"string","name":"ip","type":"string"}],"name":"getProfile","outputs":[{"internalType":"uint40","name":"","type":"uint40"},{"internalType":"uint16","name":"","type":"uint16"},{"internalType":"uint16","name":"","type":"uint16"}],"stateMutability":"view","type":"function"},{"inputs":[{"internalType":"string[]","name":"ips","type":"string[]"}],"name":"getProfilesBatch","outputs":[{"internalType":"uint40[]","name":"","type":"uint40[]"},{"internalType":"uint16[]","name":"","type":"uint16[]"},{"internalType":"uint16[]","name":"","type":"uint16[]"}],"stateMutability":"view","type":"function"},{"inputs":[],"name":"owner","outputs":[{"internalType":"address","name":"","type":"address"}],"stateMutability":"view","type":"function"},{"inputs":[{"internalType":"string","name":"","type":"string"}],"name":"profiles","outputs":[{"internalType":"uint40","name":"lastOffenseTime","type":"uint40"},{"internalType":"uint16","name":"offenseCount","type":"uint16"},{"internalType":"uint16","name":"riskScore","type":"uint16"}],"stateMutability":"view","type":"function"},{"inputs":[],"name":"renounceOwnership","outputs":[],"stateMutability":"nonpayable","type":"function"},{"inputs":[{"internalType":"string[]","name":"ips","type":"string[]"},{"internalType":"uint16[]","name":"scores","type":"uint16[]"}],"name":"reportBatch","outputs":[],"stateMutability":"nonpayable","type":"function"},{"inputs":[{"internalType":"address","name":"newOwner","type":"address"}],"name":"transferOwnership","outputs":[],"stateMutability":"nonpayable","type":"function"}],"evm":{"bytecode":{"linkReferences":{},"object":"60e080604052346100d85733156100c25760008054336001600160a01b03198216811783556040519290916001600160a01b0316907f8be0079c531659141344cd1fd0a4f28419497f9722a3daafe3b4186f6b6457e09080a360018055620151806080526203f48060a05262093a8060c052610d5590816100de82396080518181816103ab015281816107850152610c83015260a05181818161081601528181610a7e0152610cae015260c05181818161036a0152818161084e0152610cd20152f35b631e4fbdf760e01b815260006004820152602490fd5b600080fdfe6080604052600436101561001257600080fd5b6000803560e01c80630de98693146102b05780631d2a056114610a615780634408f7a61461047b578063715018a6146104215780638da5cb5b146103fa5780639099cdd4146103cf5780639dd584851461038e578063a2f69a591461034d578063c680be7114610313578063cba521e2146102b0578063cfdbf25414610294578063e3eaf41e1461013a5763f2fde38b146100ac57600080fd5b34610137576020366003190112610137576004356001600160a01b0381811691829003610133576100db610d1c565b811561011a5782546001600160a01b0319811683178455167f8be0079c531659141344cd1fd0a4f28419497f9722a3daafe3b4186f6b6457e08380a380f35b604051631e4fbdf760e01b815260048101849052602490fd5b8280fd5b80fd5b5034610137576020806003193601126102905760043567ffffffffffffffff81116101335761016d903690600401610b64565b909161018061017b83610bf0565b610aa2565b9282845261018d83610bf0565b8483019290601f19013684376101a284610cf4565b916101ac85610cf4565b94875b81811061022257505050604051958695606087019060608852518091526080870194915b818110610204575050508483039085015261020092916101f291610bb8565b908382036040850152610bb8565b0390f35b825164ffffffffff16865288975094830194918301916001016101d3565b808461023760019385879c98999a9b9c610c08565b9190826040519384928337810160028152030190205464ffffffffff811661025f8388610c60565b5261ffff90818160281c16610274848b610c60565b5260381c16610283828b610c60565b52019695949392966101af565b5080fd5b5034610137578060031936011261013757602060405160648152f35b5034610137576102d760206102c436610b25565b8160405193828580945193849201610b95565b600290820190815203019020546040805164ffffffffff8316815261ffff602884901c8116602083015260389390931c90921690820152606090f35b5034610137576020366003190112610137576004359061ffff8216820361013757602061033f83610c74565b63ffffffff60405191168152f35b5034610137578060031936011261013757602060405163ffffffff7f0000000000000000000000000000000000000000000000000000000000000000168152f35b5034610137578060031936011261013757602060405163ffffffff7f0000000000000000000000000000000000000000000000000000000000000000168152f35b503461013757806103ec60206103e436610b25565b6102c4610d1c565b810160028152030190205580f35b5034610137578060031936011261013757546040516001600160a01b039091168152602090f35b503461013757806003193601126101375761043a610d1c565b80546001600160a01b03198116825581906001600160a01b03167f8be0079c531659141344cd1fd0a4f28419497f9722a3daafe3b4186f6b6457e08280a380f35b50346101375760403660031901126101375760043567ffffffffffffffff8111610290576104ad903690600401610b64565b9060243567ffffffffffffffff8111610a5d576104ce903690600401610b64565b6104d9929192610d1c565b600260015414610a4b576002600155808403610a145783156109e157606484116109aa5761050b61017b859395610bf0565b9282845261051883610bf0565b601f1901366020860137855b83811061063d575050506040519281604085016040865252606084019060608360051b86010192819287925b8284106105c4575050505050828103602084015260208083519283815201920190845b8181106105a857857f8e58b7592d7b692631768ae5d8dea0e5563f7ed94207710cb07e4717a36ec60d86860387a16001805580f35b825163ffffffff16845260209384019390920191600101610573565b9091929394605f198882030183528535601e1983360301811215610639578201906020823592019167ffffffffffffffff8111610635578036038313610635576020828280600196849695859652848401378d838284010152601f8019910116010197019301940192919390610550565b8a80fd5b8980fd5b61065461064d8286899799610c08565b3691610ade565b60405160208183516106698183858801610b95565b81016002815203019020805461ffff8160381c169086851015610996578460051b86013561ffff81168091036109925782018092116109485761ffff821161095c5761ffff60381b8260381b1661ffff60381b19821617835564ffffffffff610e1081831601116109485764ffffffffff818116610e1001164211156108c7575050805461ffff808260281c1610156108895761ffff808260281c161461087557600193927f5de4a66f96f22cda022e4bcaba6d2c64108aa065e631f9765e464524c23db1e19264ffffffffff928342169066ffff00000000008861ffff8360281c160160281b169066ffffffffffffff1916171781555b5461ffff8160281c168681146000146107fd5761077e868c610c60565b63ffffffff7f00000000000000000000000000000000000000000000000000000000000000001690525b604051938492608092838552855180948601526107ce8460a09760208989019101610b95565b603882901c61ffff1660208601526040850152166060830152601f01601f19168101030190a101949294610524565b6002810361083d5761080f868c610c60565b63ffffffff7f00000000000000000000000000000000000000000000000000000000000000001690526107a8565b610847868c610c60565b63ffffffff7f00000000000000000000000000000000000000000000000000000000000000001690526107a8565b634e487b7160e01b8a52601160045260248afd5b60405162461bcd60e51b81526020600482015260166024820152754f6666656e736520636f756e74206f766572666c6f7760501b6044820152606490fd5b927f5de4a66f96f22cda022e4bcaba6d2c64108aa065e631f9765e464524c23db1e192826001969561ffff61ffff60381b64ffffffffff9660381b1661ffff60381b1983161760281c161561091e575b5050610761565b61ffff60381b650100000000009260381b169068ffffffff00000000001916171781553880610917565b634e487b7160e01b8b52601160045260248bfd5b60405162461bcd60e51b815260206004820152600e60248201526d53636f7265206f766572666c6f7760901b6044820152606490fd5b8b80fd5b634e487b7160e01b8b52603260045260248bfd5b60405162461bcd60e51b815260206004820152600f60248201526e426174636820746f6f206c6172676560881b6044820152606490fd5b60405162461bcd60e51b815260206004820152600b60248201526a08adae0e8f240c4c2e8c6d60ab1b6044820152606490fd5b60405162461bcd60e51b815260206004820152600f60248201526e098cadccee8d040dad2e6dac2e8c6d608b1b6044820152606490fd5b604051633ee5aeb560e01b8152600490fd5b8380fd5b5034610137578060031936011261013757602060405163ffffffff7f0000000000000000000000000000000000000000000000000000000000000000168152f35b6040519190601f01601f1916820167ffffffffffffffff811183821017610ac857604052565b634e487b7160e01b600052604160045260246000fd5b92919267ffffffffffffffff8211610ac857610b03601f8301601f1916602001610aa2565b9382855282820111610b2057816000926020928387013784010152565b600080fd5b6020600319820112610b20576004359067ffffffffffffffff8211610b205780602383011215610b2057816024610b6193600401359101610ade565b90565b9181601f84011215610b205782359167ffffffffffffffff8311610b20576020808501948460051b010111610b2057565b60005b838110610ba85750506000910152565b8181015183820152602001610b98565b90815180825260208080930193019160005b828110610bd8575050505090565b835161ffff1685529381019392810192600101610bca565b67ffffffffffffffff8111610ac85760051b60200190565b9190811015610c4a5760051b81013590601e1981360301821215610b2057019081359167ffffffffffffffff8311610b20576020018236038113610b20579190565b634e487b7160e01b600052603260045260246000fd5b8051821015610c4a5760209160051b010190565b61ffff1660018103610ca557507f000000000000000000000000000000000000000000000000000000000000000090565b600203610cd0577f000000000000000000000000000000000000000000000000000000000000000090565b7f000000000000000000000000000000000000000000000000000000000000000090565b90610d0161017b83610bf0565b8281528092610d12601f1991610bf0565b0190602036910137565b6000546001600160a01b03163303610d3057565b60405163118cdaa760e01b8152336004820152602490fdfea164736f6c6343000818000a","opcodes":"PUSH1 0xE0 DUP1 PUSH1 0x40 MSTORE CALLVALUE PUSH2 0xD8 JUMPI CALLER ISZERO PUSH2 0xC2 JUMPI PUSH1 0x0 DUP1 SLOAD CALLER PUSH1 0x1 PUSH1 0x1 PUSH1 0xA0 SHL SUB NOT DUP3 AND DUP2 OR DUP4 SSTORE PUSH1 0x40 MLOAD SWAP3 SWAP1 SWAP2 PUSH1 0x1 PUSH1 0x1 PUSH1 0xA0 SHL SUB AND SWAP1 PUSH32 0x8BE0079C531659141344CD1FD0A4F28419497F9722A3DAAFE3B4186F6B6457E0 SWAP1 DUP1 LOG3 PUSH1 0x1 DUP1 SSTORE PUSH3 0x15180 PUSH1 0x80 MSTORE PUSH3 0x3F480 PUSH1 0xA0 MSTORE PUSH3 0x93A80 PUSH1 0xC0 MSTORE PUSH2 0xD55 SWAP1 DUP2 PUSH2 0xDE DUP3 CODECOPY PUSH1 0x80 MLOAD DUP2 DUP2 DUP2 PUSH2 0x3AB ADD MSTORE DUP2 DUP2 PUSH2 0x785 ADD MSTORE PUSH2 0xC83 ADD MSTORE PUSH1 0xA0 MLOAD DUP2 DUP2 DUP2 PUSH2 0x816 ADD MSTORE DUP2 DUP2 PUSH2 0xA7E ADD MSTORE PUSH2 0xCAE ADD MSTORE PUSH1 0xC0 MLOAD DUP2 DUP2 DUP2 PUSH2 0x36A ADD MSTORE DUP2 DUP2 PUSH2 0x84E ADD MSTORE PUSH2 0xCD2 ADD MSTORE RETURN JUMPDEST PUSH4 0x1E4FBDF7 PUSH1 0xE0 SHL DUP2 MSTORE PUSH1 0x0 PUSH1 0x4 DUP3 ADD MSTORE PUSH1 0x24 SWAP1 REVERT JUMPDEST PUSH1 0x0 DUP1 REVERT INVALID PUSH1 0x80 PUSH1 0x40 MSTORE PUSH1 0x4 CALLDATASIZE LT ISZERO PUSH2 0x12 JUMPI PUSH1 0x0 DUP1 REVERT JUMPDEST PUSH1 0x0 DUP1 CALLDATALOAD PUSH1 0xE0 SHR DUP1 PUSH4 0xDE98693 EQ PUSH2 0x2B0 JUMPI DUP1 PUSH4 0x1D2A0561 EQ PUSH2 0xA61 JUMPI DUP1 PUSH4 0x4408F7A6 EQ PUSH2 0x47B JUMPI DUP1 PUSH4 0x715018A6 EQ PUSH2 0x421 JUMPI DUP1 PUSH4 0x8DA5CB5B EQ PUSH2 0x3FA JUMPI DUP1 PUSH4 0x9099CDD4 EQ PUSH2 0x3CF JUMPI DUP1 PUSH4 0x9DD58485 EQ PUSH2 0x38E JUMPI DUP1 PUSH4 0xA2F69A59 EQ PUSH2 0x34D JUMPI DUP1 PUSH4 0xC680BE71 EQ PUSH2 0x313 JUMPI DUP1 PUSH4 0xCBA521E2 EQ PUSH2 0x2B0 JUMPI DUP1 PUSH4 0xCFDBF254 EQ PUSH2 0x294 JUMPI DUP1 PUSH4 0xE3EAF41E EQ PUSH2 0x13A JUMPI PUSH4 0xF2FDE38B EQ PUSH2 0xAC JUMPI PUSH1 0x0 DUP1 REVERT JUMPDEST CALLVALUE PUSH2 0x137 JUMPI PUSH1 0x20 CALLDATASIZE PUSH1 0x3 NOT ADD SLT PUSH2 0x137 JUMPI PUSH1 0x4 CALLDATALOAD PUSH1 0x1 PUSH1 0x1 PUSH1 0xA0 SHL SUB DUP2 DUP2 AND SWAP2 DUP3 SWAP1 SUB PUSH2 0x133 JUMPI PUSH2 0xDB PUSH2 0xD1C JUMP JUMPDEST DUP2 ISZERO PUSH2 0x11A JUMPI DUP3 SLOAD PUSH1 0x1 PUSH1 0x1 PUSH1 0xA0 SHL SUB NOT DUP2 AND DUP4 OR DUP5 SSTORE AND PUSH32 0x8BE0079C531659141344CD1FD0A4F28419497F9722A3DAAFE3B4186F6B6457E0 DUP4 DUP1 LOG3 DUP1 RETURN JUMPDEST PUSH1 0x40 MLOAD PUSH4 0x1E4FBDF7 PUSH1 0xE0 SHL DUP2 MSTORE PUSH1 0x4 DUP2 ADD DUP5 SWAP1 MSTORE PUSH1 0x24 SWAP1 REVERT JUMPDEST DUP3 DUP1 REVERT JUMPDEST DUP1 REVERT JUMPDEST POP CALLVALUE PUSH2 0x137 JUMPI PUSH1 0x20 DUP1 PUSH1 0x3 NOT CALLDATASIZE ADD SLT PUSH2 0x290 JUMPI PUSH1 0x4 CALLDATALOAD PUSH8 0xFFFFFFFFFFFFFFFF DUP2 GT PUSH2 0x133 JUMPI PUSH2 0x16D SWAP1 CALLDATASIZE SWAP1 PUSH1 0x4 ADD PUSH2 0xB64 JUMP JUMPDEST SWAP1 SWAP2 PUSH2 0x180 PUSH2 0x17B DUP4 PUSH2 0xBF0 JUMP JUMPDEST PUSH2 0xAA2 JUMP JUMPDEST SWAP3 DUP3 DUP5 MSTORE PUSH2 0x18D DUP4 PUSH2 0xBF0 JUMP JUMPDEST DUP5 DUP4 ADD SWAP3 SWAP1 PUSH1 0x1F NOT ADD CALLDATASIZE DUP5 CALLDATACOPY PUSH2 0x1A2 DUP5 PUSH2 0xCF4 JUMP JUMPDEST SWAP2 PUSH2 0x1AC DUP6 PUSH2 0xCF4 JUMP JUMPDEST SWAP5 DUP8 JUMPDEST DUP2 DUP2 LT PUSH2 0x222 JUMPI POP POP POP PUSH1 0x40 MLOAD SWAP6 DUP7 SWAP6 PUSH1 0x60 DUP8 ADD SWAP1 PUSH1 0x60 DUP9 MSTORE MLOAD DUP1 SWAP2 MSTORE PUSH1 0x80 DUP8 ADD SWAP5 SWAP2 JUMPDEST DUP2 DUP2 LT PUSH2 0x204 JUMPI POP POP POP DUP5 DUP4 SUB SWAP1 DUP6 ADD MSTORE PUSH2 0x200 SWAP3 SWAP2 PUSH2 0x1F2 SWAP2 PUSH2 0xBB8 JUMP JUMPDEST SWAP1 DUP4 DUP3 SUB PUSH1 0x40 DUP6 ADD MSTORE PUSH2 0xBB8 JUMP JUMPDEST SUB SWAP1 RETURN JUMPDEST DUP3 MLOAD PUSH5 0xFFFFFFFFFF AND DUP7 MSTORE DUP9 SWAP8 POP SWAP5 DUP4 ADD SWAP5 SWAP2 DUP4 ADD SWAP2 PUSH1 0x1 ADD PUSH2 0x1D3 JUMP JUMPDEST DUP1 DUP5 PUSH2 0x237 PUSH1 0x1 SWAP4 DUP6 DUP8 SWAP13 SWAP9 SWAP10 SWAP11 SWAP12 SWAP13 PUSH2 0xC08 JUMP JUMPDEST SWAP2 SWAP1 DUP3 PUSH1 0x40 MLOAD SWAP4 DUP5 SWAP3 DUP4 CALLDATACOPY DUP2 ADD PUSH1 0x2 DUP2 MSTORE SUB ADD SWAP1 KECCAK256 SLOAD PUSH5 0xFFFFFFFFFF DUP2 AND PUSH2 0x25F DUP4 DUP9 PUSH2 0xC60 JUMP JUMPDEST MSTORE PUSH2 0xFFFF SWAP1 DUP2 DUP2 PUSH1 0x28 SHR AND PUSH2 0x274 DUP5 DUP12 PUSH2 0xC60 JUMP JUMPDEST MSTORE PUSH1 0x38 SHR AND PUSH2 0x283 DUP3 DUP12 PUSH2 0xC60 JUMP JUMPDEST MSTORE ADD SWAP7 SWAP6 SWAP5 SWAP4 SWAP3 SWAP7 PUSH2 0x1AF JUMP JUMPDEST POP DUP1 REVERT JUMPDEST POP CALLVALUE PUSH2 0x137 JUMPI DUP1 PUSH1 0x3 NOT CALLDATASIZE ADD SLT PUSH2 0x137 JUMPI PUSH1 0x20 PUSH1 0x40 MLOAD PUSH1 0x64 DUP2 MSTORE RETURN JUMPDEST POP CALLVALUE PUSH2 0x137 JUMPI PUSH2 0x2D7 PUSH1 0x20 PUSH2 0x2C4 CALLDATASIZE PUSH2 0xB25 JUMP JUMPDEST DUP2 PUSH1 0x40 MLOAD SWAP4 DUP3 DUP6 DUP1 SWAP5 MLOAD SWAP4 DUP5 SWAP3 ADD PUSH2 0xB95 JUMP JUMPDEST PUSH1 0x2 SWAP1 DUP3 ADD SWAP1 DUP2 MSTORE SUB ADD SWAP1 KECCAK256 SLOAD PUSH1 0x40 DUP1 MLOAD PUSH5 0xFFFFFFFFFF DUP4 AND DUP2 MSTORE PUSH2 0xFFFF PUSH1 0x28 DUP5 SWAP1 SHR DUP2 AND PUSH1 0x20 DUP4 ADD MSTORE PUSH1 0x38 SWAP4 SWAP1 SWAP4 SHR SWAP1 SWAP3 AND SWAP1 DUP3 ADD MSTORE PUSH1 0x60 SWAP1 RETURN JUMPDEST POP CALLVALUE PUSH2 0x137 JUMPI PUSH1 0x20 CALLDATASIZE PUSH1 0x3 NOT ADD SLT PUSH2 0x137 JUMPI PUSH1 0x4 CALLDATALOAD SWAP1 PUSH2 0xFFFF DUP3 AND DUP3 SUB PUSH2 0x137 JUMPI PUSH1 0x20 PUSH2 0x33F DUP4 PUSH2 0xC74 JUMP JUMPDEST PUSH4 0xFFFFFFFF PUSH1 0x40 MLOAD SWAP2 AND DUP2 MSTORE RETURN JUMPDEST POP CALLVALUE PUSH2 0x137 JUMPI DUP1 PUSH1 0x3 NOT CALLDATASIZE ADD SLT PUSH2 0x137 JUMPI PUSH1 0x20 PUSH1 0x40 MLOAD PUSH4 0xFFFFFFFF PUSH32 0x0 AND DUP2 MSTORE RETURN JUMPDEST POP CALLVALUE PUSH2 0x137 JUMPI DUP1 PUSH1 0x3 NOT CALLDATASIZE ADD SLT PUSH2 0x137 JUMPI PUSH1 0x20 PUSH1 0x40 MLOAD PUSH4 0xFFFFFFFF PUSH32 0x0 AND DUP2 MSTORE RETURN JUMPDEST POP CALLVALUE PUSH2 0x137 JUMPI DUP1 PUSH2 0x3EC PUSH1 0x20 PUSH2 0x3E4 CALLDATASIZE PUSH2 0xB25 JUMP JUMPDEST PUSH2 0x2C4 PUSH2 0xD1C JUMP JUMPDEST DUP2 ADD PUSH1 0x2 DUP2 MSTORE SUB ADD SWAP1 KECCAK256 SSTORE DUP1 RETURN JUMPDEST POP CALLVALUE PUSH2 0x137 JUMPI DUP1 PUSH1 0x3 NOT CALLDATASIZE ADD SLT PUSH2 0x137 JUMPI SLOAD PUSH1 0x40 MLOAD PUSH1 0x1 PUSH1 0x1 PUSH1 0xA0 SHL SUB SWAP1 SWAP2 AND DUP2 MSTORE PUSH1 0x20 SWAP1 RETURN JUMPDEST POP CALLVALUE PUSH2 0x137 JUMPI DUP1 PUSH1 0x3 NOT CALLDATASIZE ADD SLT PUSH2 0x137 JUMPI PUSH2 0x43A PUSH2 0xD1C JUMP JUMPDEST DUP1 SLOAD PUSH1 0x1 PUSH1 0x1 PUSH1 0xA0 SHL SUB NOT DUP2 AND DUP3 SSTORE DUP2 SWAP1 PUSH1 0x1 PUSH1 0x1 PUSH1 0xA0 SHL SUB AND PUSH32 0x8BE0079C531659141344CD1FD0A4F28419497F9722A3DAAFE3B4186F6B6457E0 DUP3 DUP1 LOG3 DUP1 RETURN JUMPDEST POP CALLVALUE PUSH2 0x137 JUMPI PUSH1 0x40 CALLDATASIZE PUSH1 0x3 NOT ADD SLT PUSH2 0x137 JUMPI PUSH1 0x4 CALLDATALOAD PUSH8 0xFFFFFFFFFFFFFFFF DUP2 GT PUSH2 0x290 JUMPI PUSH2 0x4AD SWAP1 CALLDATASIZE SWAP1 PUSH1 0x4 ADD PUSH2 0xB64 JUMP JUMPDEST SWAP1 PUSH1 0x24 CALLDATALOAD PUSH8 0xFFFFFFFFFFFFFFFF DUP2 GT PUSH2 0xA5D JUMPI PUSH2 0x4CE SWAP1 CALLDATASIZE SWAP1 PUSH1 0x4 ADD PUSH2 0xB64 JUMP JUMPDEST PUSH2 0x4D9 SWAP3 SWAP2 SWAP3 PUSH2 0xD1C JUMP JUMPDEST PUSH1 0x2 PUSH1 0x1 SLOAD EQ PUSH2 0xA4B JUMPI PUSH1 0x2 PUSH1 0x1 SSTORE DUP1 DUP5 SUB PUSH2 0xA14 JUMPI DUP4 ISZERO PUSH2 0x9E1 JUMPI PUSH1 0x64 DUP5 GT PUSH2 0x9AA JUMPI PUSH2 0x50B PUSH2 0x17B DUP6 SWAP4 SWAP6 PUSH2 0xBF0 JUMP JUMPDEST SWAP3 DUP3 DUP5 MSTORE PUSH2 0x518 DUP4 PUSH2 0xBF0 JUMP JUMPDEST PUSH1 0x1F NOT ADD CALLDATASIZE PUSH1 0x20 DUP7 ADD CALLDATACOPY DUP6 JUMPDEST DUP4 DUP2 LT PUSH2 0x63D JUMPI POP POP POP PUSH1 0x40 MLOAD SWAP3 DUP2 PUSH1 0x40 DUP6 ADD PUSH1 0x40 DUP7 MSTORE MSTORE PUSH1 0x60 DUP5 ADD SWAP1 PUSH1 0x60 DUP4 PUSH1 0x5 SHL DUP7 ADD ADD SWAP3 DUP2 SWAP3 DUP8 SWAP3 JUMPDEST DUP3 DUP5 LT PUSH2 0x5C4 JUMPI POP POP POP POP POP DUP3 DUP2 SUB PUSH1 0x20 DUP5 ADD MSTORE PUSH1 0x20 DUP1 DUP4 MLOAD SWAP3 DUP4 DUP2 MSTORE ADD SWAP3 ADD SWAP1 DUP5 JUMPDEST DUP2 DUP2 LT PUSH2 0x5A8 JUMPI DUP6 PUSH32 0x8E58B7592D7B692631768AE5D8DEA0E5563F7ED94207710CB07E4717A36EC60D DUP7 DUP7 SUB DUP8 LOG1 PUSH1 0x1 DUP1 SSTORE DUP1 RETURN JUMPDEST DUP3 MLOAD PUSH4 0xFFFFFFFF AND DUP5 MSTORE PUSH1 0x20 SWAP4 DUP5 ADD SWAP4 SWAP1 SWAP3 ADD SWAP2 PUSH1 0x1 ADD PUSH2 0x573 JUMP JUMPDEST SWAP1 SWAP2 SWAP3 SWAP4 SWAP5 PUSH1 0x5F NOT DUP9 DUP3 SUB ADD DUP4 MSTORE DUP6 CALLDATALOAD PUSH1 0x1E NOT DUP4 CALLDATASIZE SUB ADD DUP2 SLT ISZERO PUSH2 0x639 JUMPI DUP3 ADD SWAP1 PUSH1 0x20 DUP3 CALLDATALOAD SWAP3 ADD SWAP2 PUSH8 0xFFFFFFFFFFFFFFFF DUP2 GT PUSH2 0x635 JUMPI DUP1 CALLDATASIZE SUB DUP4 SGT PUSH2 0x635 JUMPI PUSH1 0x20 DUP3 DUP3 DUP1 PUSH1 0x1 SWAP7 DUP5 SWAP7 SWAP6 DUP6 SWAP7 MSTORE DUP5 DUP5 ADD CALLDATACOPY DUP14 DUP4 DUP3 DUP5 ADD ADD MSTORE PUSH1 0x1F DUP1 NOT SWAP2 ADD AND ADD ADD SWAP8 ADD SWAP4 ADD SWAP5 ADD SWAP3 SWAP2 SWAP4 SWAP1 PUSH2 0x550 JUMP JUMPDEST DUP11 DUP1 REVERT JUMPDEST DUP10 DUP1 REVERT JUMPDEST PUSH2 0x654 PUSH2 0x64D DUP3 DUP7 DUP10 SWAP8 SWAP10 PUSH2 0xC08 JUMP JUMPDEST CALLDATASIZE SWAP2 PUSH2 0xADE JUMP JUMPDEST PUSH1 0x40 MLOAD PUSH1 0x20 DUP2 DUP4 MLOAD PUSH2 0x669 DUP2 DUP4 DUP6 DUP9 ADD PUSH2 0xB95 JUMP JUMPDEST DUP2 ADD PUSH1 0x2 DUP2 MSTORE SUB ADD SWAP1 KECCAK256 DUP1 SLOAD PUSH2 0xFFFF DUP2 PUSH1 0x38 SHR AND SWAP1 DUP7 DUP6 LT ISZERO PUSH2 0x996 JUMPI DUP5 PUSH1 0x5 SHL DUP7 ADD CALLDATALOAD PUSH2 0xFFFF DUP2 AND DUP1 SWAP2 SUB PUSH2 0x992 JUMPI DUP3 ADD DUP1 SWAP3 GT PUSH2 0x948 JUMPI PUSH2 0xFFFF DUP3 GT PUSH2 0x95C JUMPI PUSH2 0xFFFF PUSH1 0x38 SHL DUP3 PUSH1 0x38 SHL AND PUSH2 0xFFFF PUSH1 0x38 SHL NOT DUP3 AND OR DUP4 SSTORE PUSH5 0xFFFFFFFFFF PUSH2 0xE10 DUP2 DUP4 AND ADD GT PUSH2 0x948 JUMPI PUSH5 0xFFFFFFFFFF DUP2 DUP2 AND PUSH2 0xE10 ADD AND TIMESTAMP GT ISZERO PUSH2 0x8C7 JUMPI POP POP DUP1 SLOAD PUSH2 0xFFFF DUP1 DUP3 PUSH1 0x28 SHR AND LT ISZERO PUSH2 0x889 JUMPI PUSH2 0xFFFF DUP1 DUP3 PUSH1 0x28 SHR AND EQ PUSH2 0x875 JUMPI PUSH1 0x1 SWAP4 SWAP3 PUSH32 0x5DE4A66F96F22CDA022E4BCABA6D2C64108AA065E631F9765E464524C23DB1E1 SWAP3 PUSH5 0xFFFFFFFFFF SWAP3 DUP4 TIMESTAMP AND SWAP1 PUSH7 0xFFFF0000000000 DUP9 PUSH2 0xFFFF DUP4 PUSH1 0x28 SHR AND ADD PUSH1 0x28 SHL AND SWAP1 PUSH7 0xFFFFFFFFFFFFFF NOT AND OR OR DUP2 SSTORE JUMPDEST SLOAD PUSH2 0xFFFF DUP2 PUSH1 0x28 SHR AND DUP7 DUP2 EQ PUSH1 0x0 EQ PUSH2 0x7FD JUMPI PUSH2 0x77E DUP7 DUP13 PUSH2 0xC60 JUMP JUMPDEST PUSH4 0xFFFFFFFF PUSH32 0x0 AND SWAP1 MSTORE JUMPDEST PUSH1 0x40 MLOAD SWAP4 DUP5 SWAP3 PUSH1 0x80 SWAP3 DUP4 DUP6 MSTORE DUP6 MLOAD DUP1 SWAP5 DUP7 ADD MSTORE PUSH2 0x7CE DUP5 PUSH1 0xA0 SWAP8 PUSH1 0x20 DUP10 DUP10 ADD SWAP2 ADD PUSH2 0xB95 JUMP JUMPDEST PUSH1 0x38 DUP3 SWAP1 SHR PUSH2 0xFFFF AND PUSH1 0x20 DUP7 ADD MSTORE PUSH1 0x40 DUP6 ADD MSTORE AND PUSH1 0x60 DUP4 ADD MSTORE PUSH1 0x1F ADD PUSH1 0x1F NOT AND DUP2 ADD SUB ADD SWAP1 LOG1 ADD SWAP5 SWAP3 SWAP5 PUSH2 0x524 JUMP JUMPDEST PUSH1 0x2 DUP2 SUB PUSH2 0x83D JUMPI PUSH2 0x80F DUP7 DUP13 PUSH2 0xC60 JUMP JUMPDEST PUSH4 0xFFFFFFFF PUSH32 0x0 AND SWAP1 MSTORE PUSH2 0x7A8 JUMP JUMPDEST PUSH2 0x847 DUP7 DUP13 PUSH2 0xC60 JUMP JUMPDEST PUSH4 0xFFFFFFFF PUSH32 0x0 AND SWAP1 MSTORE PUSH2 0x7A8 JUMP JUMPDEST PUSH4 0x4E487B71 PUSH1 0xE0 SHL DUP11 MSTORE PUSH1 0x11 PUSH1 0x4 MSTORE PUSH1 0x24 DUP11 REVERT JUMPDEST PUSH1 0x40 MLOAD PUSH3 0x461BCD PUSH1 0xE5 SHL DUP2 MSTORE PUSH1 0x20 PUSH1 0x4 DUP3 ADD MSTORE PUSH1 0x16 PUSH1 0x24 DUP3 ADD MSTORE PUSH22 0x4F6666656E736520636F756E74206F766572666C6F77 PUSH1 0x50 SHL PUSH1 0x44 DUP3 ADD MSTORE PUSH1 0x64 SWAP1 REVERT JUMPDEST SWAP3 PUSH32 0x5DE4A66F96F22CDA022E4BCABA6D2C64108AA065E631F9765E464524C23DB1E1 SWAP3 DUP3 PUSH1 0x1 SWAP7 SWAP6 PUSH2 0xFFFF PUSH2 0xFFFF PUSH1 0x38 SHL PUSH5 0xFFFFFFFFFF SWAP7 PUSH1 0x38 SHL AND PUSH2 0xFFFF PUSH1 0x38 SHL NOT DUP4 AND OR PUSH1 0x28 SHR AND ISZERO PUSH2 0x91E JUMPI JUMPDEST POP POP PUSH2 0x761 JUMP JUMPDEST PUSH2 0xFFFF PUSH1 0x38 SHL PUSH6 0x10000000000 SWAP3 PUSH1 0x38 SHL AND SWAP1 PUSH9 0xFFFFFFFF0000000000 NOT AND OR OR DUP2 SSTORE CODESIZE DUP1 PUSH2 0x917 JUMP JUMPDEST PUSH4 0x4E487B71 PUSH1 0xE0 SHL DUP12 MSTORE PUSH1 0x11 PUSH1 0x4 MSTORE PUSH1 0x24 DUP12 REVERT JUMPDEST PUSH1 0x40 MLOAD PUSH3 0x461BCD PUSH1 0xE5 SHL DUP2 MSTORE PUSH1 0x20 PUSH1 0x4 DUP3 ADD MSTORE PUSH1 0xE PUSH1 0x24 DUP3 ADD MSTORE PUSH14 0x53636F7265206F766572666C6F77 PUSH1 0x90 SHL PUSH1 0x44 DUP3 ADD MSTORE PUSH1 0x64 SWAP1 REVERT JUMPDEST DUP12 DUP1 REVERT JUMPDEST PUSH4 0x4E487B71 PUSH1 0xE0 SHL DUP12 MSTORE PUSH1 0x32 PUSH1 0x4 MSTORE PUSH1 0x24 DUP12 REVERT JUMPDEST PUSH1 0x40 MLOAD PUSH3 0x461BCD PUSH1 0xE5 SHL DUP2 MSTORE PUSH1 0x20 PUSH1 0x4 DUP3 ADD MSTORE PUSH1 0xF PUSH1 0x24 DUP3 ADD MSTORE PUSH15 0x426174636820746F6F206C61726765 PUSH1 0x88 SHL PUSH1 0x44 DUP3 ADD MSTORE PUSH1 0x64 SWAP1 REVERT JUMPDEST PUSH1 0x40 MLOAD PUSH3 0x461BCD PUSH1 0xE5 SHL DUP2 MSTORE PUSH1 0x20 PUSH1 0x4 DUP3 ADD MSTORE PUSH1 0xB PUSH1 0x24 DUP3 ADD MSTORE PUSH11 0x8ADAE0E8F240C4C2E8C6D PUSH1 0xAB SHL PUSH1 0x44 DUP3 ADD MSTORE PUSH1 0x64 SWAP1 REVERT JUMPDEST PUSH1 0x40 MLOAD PUSH3 0x461BCD PUSH1 0xE5 SHL DUP2 MSTORE PUSH1 0x20 PUSH1 0x4 DUP3 ADD MSTORE PUSH1 0xF PUSH1 0x24 DUP3 ADD MSTORE PUSH15 0x98CADCCEE8D040DAD2E6DAC2E8C6D PUSH1 0x8B SHL PUSH1 0x44 DUP3 ADD MSTORE PUSH1 0x64 SWAP1 REVERT JUMPDEST PUSH1 0x40 MLOAD PUSH4 0x3EE5AEB5 PUSH1 0xE0 SHL DUP2 MSTORE PUSH1 0x4 SWAP1 REVERT JUMPDEST DUP4 DUP1 REVERT JUMPDEST POP CALLVALUE PUSH2 0x137 JUMPI DUP1 PUSH1 0x3 NOT CALLDATASIZE ADD SLT PUSH2 0x137 JUMPI PUSH1 0x20 PUSH1 0x40 MLOAD PUSH4 0xFFFFFFFF PUSH32 0x0 AND DUP2 MSTORE RETURN JUMPDEST PUSH1 0x40 MLOAD SWAP2 SWAP1 PUSH1 0x1F ADD PUSH1 0x1F NOT AND DUP3 ADD PUSH8 0xFFFFFFFFFFFFFFFF DUP2 GT DUP4 DUP3 LT OR PUSH2 0xAC8 JUMPI PUSH1 0x40 MSTORE JUMP JUMPDEST PUSH4 0x4E487B71 PUSH1 0xE0 SHL PUSH1 0x0 MSTORE PUSH1 0x41 PUSH1 0x4 MSTORE PUSH1 0x24 PUSH1 0x0 REVERT JUMPDEST SWAP3 SWAP2 SWAP3 PUSH8 0xFFFFFFFFFFFFFFFF DUP3 GT PUSH2 0xAC8 JUMPI PUSH2 0xB03 PUSH1 0x1F DUP4 ADD PUSH1 0x1F NOT AND PUSH1 0x20 ADD PUSH2 0xAA2 JUMP JUMPDEST SWAP4 DUP3 DUP6 MSTORE DUP3 DUP3 ADD GT PUSH2 0xB20 JUMPI DUP2 PUSH1 0x0 SWAP3 PUSH1 0x20 SWAP3 DUP4 DUP8 ADD CALLDATACOPY DUP5 ADD ADD MSTORE JUMP JUMPDEST PUSH1 0x0 DUP1 REVERT JUMPDEST PUSH1 0x20 PUSH1 0x3 NOT DUP3 ADD SLT PUSH2 0xB20 JUMPI PUSH1 0x4 CALLDATALOAD SWAP1 PUSH8 0xFFFFFFFFFFFFFFFF DUP3 GT PUSH2 0xB20 JUMPI DUP1 PUSH1 0x23 DUP4 ADD SLT ISZERO PUSH2 0xB20 JUMPI DUP2 PUSH1 0x24 PUSH2 0xB61 SWAP4 PUSH1 0x4 ADD CALLDATALOAD SWAP2 ADD PUSH2 0xADE JUMP JUMPDEST SWAP1 JUMP JUMPDEST SWAP2 DUP2 PUSH1 0x1F DUP5 ADD SLT ISZERO PUSH2 0xB20 JUMPI DUP3 CALLDATALOAD SWAP2 PUSH8 0xFFFFFFFFFFFFFFFF DUP4 GT PUSH2 0xB20 JUMPI PUSH1 0x20 DUP1 DUP6 ADD SWAP5 DUP5 PUSH1 0x5 SHL ADD ADD GT PUSH2 0xB20 JUMPI JUMP JUMPDEST PUSH1 0x0 JUMPDEST DUP4 DUP2 LT PUSH2 0xBA8 JUMPI POP POP PUSH1 0x0 SWAP2 ADD MSTORE JUMP JUMPDEST DUP2 DUP2 ADD MLOAD DUP4 DUP3 ADD MSTORE PUSH1 0x20 ADD PUSH2 0xB98 JUMP JUMPDEST SWAP1 DUP2 MLOAD DUP1 DUP3 MSTORE PUSH1 0x20 DUP1 DUP1 SWAP4 ADD SWAP4 ADD SWAP2 PUSH1 0x0 JUMPDEST DUP3 DUP2 LT PUSH2 0xBD8 JUMPI POP POP POP POP SWAP1 JUMP JUMPDEST DUP4 MLOAD PUSH2 0xFFFF AND DUP6 MSTORE SWAP4 DUP2 ADD SWAP4 SWAP3 DUP2 ADD SWAP3 PUSH1 0x1 ADD PUSH2 0xBCA JUMP JUMPDEST PUSH8 0xFFFFFFFFFFFFFFFF DUP2 GT PUSH2 0xAC8 JUMPI PUSH1 0x5 SHL PUSH1 0x20 ADD SWAP1 JUMP JUMPDEST SWAP2 SWAP1 DUP2 LT ISZERO PUSH2 0xC4A JUMPI PUSH1 0x5 SHL DUP2 ADD CALLDATALOAD SWAP1 PUSH1 0x1E NOT DUP2 CALLDATASIZE SUB ADD DUP3 SLT ISZERO PUSH2 0xB20 JUMPI ADD SWAP1 DUP2 CALLDATALOAD SWAP2 PUSH8 0xFFFFFFFFFFFFFFFF DUP4 GT PUSH2 0xB20 JUMPI PUSH1 0x20 ADD DUP3 CALLDATASIZE SUB DUP2 SGT PUSH2 0xB20 JUMPI SWAP2 SWAP1 JUMP JUMPDEST PUSH4 0x4E487B71 PUSH1 0xE0 SHL PUSH1 0x0 MSTORE PUSH1 0x32 PUSH1 0x4 MSTORE PUSH1 0x24 PUSH1 0x0 REVERT JUMPDEST DUP1 MLOAD DUP3 LT ISZERO PUSH2 0xC4A JUMPI PUSH1 0x20 SWAP2 PUSH1 0x5 SHL ADD ADD SWAP1 JUMP JUMPDEST PUSH2 0xFFFF AND PUSH1 0x1 DUP2 SUB PUSH2 0xCA5 JUMPI POP PUSH32 0x0 SWAP1 JUMP JUMPDEST PUSH1 0x2 SUB PUSH2 0xCD0 JUMPI PUSH32 0x0 SWAP1 JUMP JUMPDEST PUSH32 0x0 SWAP1 JUMP JUMPDEST SWAP1 PUSH2 0xD01 PUSH2 0x17B DUP4 PUSH2 0xBF0 JUMP JUMPDEST DUP3 DUP2 MSTORE DUP1 SWAP3 PUSH2 0xD12 PUSH1 0x1F NOT SWAP2 PUSH2 0xBF0 JUMP JUMPDEST ADD SWAP1 PUSH1 0x20 CALLDATASIZE SWAP2 ADD CALLDATACOPY JUMP JUMPDEST PUSH1 0x0 SLOAD PUSH1 0x1 PUSH1 0x1 PUSH1 0xA0 SHL SUB AND CALLER SUB PUSH2 0xD30 JUMPI JUMP JUMPDEST PUSH1 0x40 MLOAD PUSH4 0x118CDAA7 PUSH1 0xE0 SHL DUP2 MSTORE CALLER PUSH1 0x4 DUP3 ADD MSTORE PUSH1 0x24 SWAP1 REVERT INVALID LOG1 PUSH5 0x736F6C6343 STOP ADDMOD XOR STOP EXP "},"methodIdentifiers":{"MAX_BATCH_SIZE()":"cfdbf254","TIER_1()":"9dd58485","TIER_2()":"1d2a0561","TIER_3()":"a2f69a59","emergencyClearProfile(string)":"9099cdd4","getBanDuration(uint16)":"c680be71","getProfile(string)":"0de98693","getProfilesBatch(string[])":"e3eaf41e","owner()":"8da5cb5b","profiles(string)":"cba521e2","renounceOwnership()":"715018a6","reportBatch(string[],uint16[])":"4408f7a6","transferOwnership(address)":"f2fde38b"}}}}}