{"contracts/ThreatStats.sol":{"ThreatStats":{"abi":[{"anonymous":false,"inputs":[{"indexed":false,"internalType":"uint256","name":"total","type":"uint256"},{"indexed":false,"internalType":"string","name":"topIp","type":"string"}],"name":"GlobalStatsUpdated","type":"event"},{"inputs":[{"internalType":"uint8","name":"","type":"uint8"}],"name":"attackTypeCounts","outputs":[{"internalType":"uint256","name":"","type":"uint256"}],"stateMutability":"view","type":"function"},{"inputs":[{"internalType":"uint8","name":"attackType","type":"uint8"}],"name":"getAttackTypeCount","outputs":[{"internalType":"uint256","name":"count","type":"uint256"}],"stateMutability":"view","type":"function"},{"inputs":[],"name":"getDashboardStats","outputs":[{"internalType":"uint256","name":"total","type":"uint256"},{"internalType":"string","name":"mostDangerousIp","type":"string"},{"internalType":"uint256","name":"maxScore","type":"uint256"},{"internalType":"uint256[]","name":"typeDistribution","type":"uint256[]"}],"stateMutability":"view","type":"function"},{"inputs":[],"name":"resetStats","outputs":[],"stateMutability":"nonpayable","type":"function"},{"inputs":[],"name":"topThreatIp","outputs":[{"internalType":"string","name":"","type":"string"}],"stateMutability":"view","type":"function"},{"inputs":[],"name":"topThreatScore","outputs":[{"internalType":"uint256","name":"","type":"uint256"}],"stateMutability":"view","type":"function"},{"inputs":[],"name":"totalThreatsDetected","outputs":[{"internalType":"uint256","name":"","type":"uint256"}],"stateMutability":"view","type":"function"},{"inputs":[{"internalType":"uint8","name":"attackType","type":"uint8"},{"internalType":"string","name":"ip","type":"string"},{"internalType":"uint256","name":"newScore","type":"uint256"}],"name":"updateStats","outputs":[],"stateMutability":"nonpayable","type":"function"}],"evm":{"bytecode":{"linkReferences":{},"object":"6080806040523461001657610791908161001c8239f35b600080fdfe60806040818152600491600436101561001757600080fd5b600090813560e01c9081632c64b846146105c2575080634ee8054a146101bf57806351aed79d146105a35780636d1fccbc146102c9578063724ec8a2146101ef578063772c329e146101bf5780637ee79a30146101865763a2f6805c1461007d57600080fd5b3461018357806003193601126101835781519060e0820182811067ffffffffffffffff82111761016f578352600691600681526020918282019460c0368737815b60ff811686811015610109578084528386528284205490855111156100f657600582901b611fe016850186015260010160ff166100be565b634e487b7160e01b845260328952602484fd5b505090859391600192806001549560035461013a61012561062d565b8651998a526080858b015260808a01906106ff565b94880152868403606088015251928381520195925b82811061015c5785870386f35b835187529581019592810192840161014f565b634e487b7160e01b82526041600452602482fd5b80fd5b5090346101bb57816003193601126101bb576101b7906101a461062d565b90519182916020835260208301906106ff565b0390f35b5080fd5b5090346101bb5760203660031901126101bb578060209260ff6101e06105de565b16815280845220549051908152f35b5090346101bb57816003193601126101bb57600182600155826003556102166002546105f3565b80610254575b5082815b610228578380f35b60ff811690600682101561024f578260ff9181938752866020528686812055011690610220565b508380f35b601f811160011461026b5750826002555b8361021c565b8390601f600080516020610765833981519152910160051c8101837f405787fa12a823e0f2b7631cc41b3ba8828b3321ca811111fa75cd3aa3bb5acf5b8281106102bc575050508160025555610265565b93845586938591016102a8565b50346101835760609160606003193601126101bb576102e66105de565b926024916024359467ffffffffffffffff9081871161059f573660238801121561059f57866004013591821161059f57366024838901011161059f5760ff6044359116865260209486865283872061033e815461073f565b905560019761034d895461073f565b8955600354831161046c575b50505050845492815193845281818501528495600254610378816105f3565b8094870152818116908160001461042457506001146103bc575b857f84da1891eada6b49ca2be47f584d4c372a11d0b0d3e52405fdcdef8885ee26c386890387a180f35b9550600285526000805160206107658339815191529585965b83881061041157505050509281016060019250807f84da1891eada6b49ca2be47f584d4c372a11d0b0d3e52405fdcdef8885ee26c38580610392565b80548689018601529682019681016103d5565b9150507f84da1891eada6b49ca2be47f584d4c372a11d0b0d3e52405fdcdef8885ee26c3959650849350606092915060ff191682840152151560051b82010193928580610392565b839260035561047c6002546105f3565b601f8111610540575b508791601f84116001146104c7575087926104b9575b5050600019600383901b1c191690861b176002555b85808080610359565b60249250010135878061049b565b91899450601f19841660028a52600080516020610765833981519152938a905b8a838310610524575050508411610507575b505050811b016002556104b0565b0160240135600019600384901b60f8161c191690558780806104f9565b84860182013587558d98909601959384019391909101906104e7565b9091925060028852600080516020610765833981519152601f850160051c810191888610610595575b8594939291601f8c920160051c01915b828110610587575050610485565b8a81558695508b9101610579565b9091508190610569565b8580fd5b5090346101bb57816003193601126101bb576020906003549051908152f35b9050346101bb57816003193601126101bb576020906001548152f35b6004359060ff821682036105ee57565b600080fd5b90600182811c92168015610623575b602083101461060d57565b634e487b7160e01b600052602260045260246000fd5b91607f1691610602565b60405190600060025461063f816105f3565b808552906020906001908181169081156106df5750600114610699575b505050829003601f01601f1916820167ffffffffffffffff81118382101761068357604052565b634e487b7160e01b600052604160045260246000fd5b600260009081529293506000805160206107658339815191525b8484106106cc575050506020915083010138808061065c565b80548785018401529282019281016106b3565b925050506020925060ff191682850152151560051b83010138808061065c565b919082519283825260005b84811061072b575050826000602080949584010152601f8019910116010190565b60208183018101518483018201520161070a565b600019811461074e5760010190565b634e487b7160e01b600052601160045260246000fdfe405787fa12a823e0f2b7631cc41b3ba8828b3321ca811111fa75cd3aa3bb5acea164736f6c6343000818000a","opcodes":"PUSH1 0x80 DUP1 PUSH1 0x40 MSTORE CALLVALUE PUSH2 0x16 JUMPI PUSH2 0x791 SWAP1 DUP2 PUSH2 0x1C DUP3 CODECOPY RETURN JUMPDEST PUSH1 0x0 DUP1 REVERT INVALID PUSH1 0x80 PUSH1 0x40 DUP2 DUP2 MSTORE PUSH1 0x4 SWAP2 PUSH1 0x4 CALLDATASIZE LT ISZERO PUSH2 0x17 JUMPI PUSH1 0x0 DUP1 REVERT JUMPDEST PUSH1 0x0 SWAP1 DUP2 CALLDATALOAD PUSH1 0xE0 SHR SWAP1 DUP2 PUSH4 0x2C64B846 EQ PUSH2 0x5C2 JUMPI POP DUP1 PUSH4 0x4EE8054A EQ PUSH2 0x1BF JUMPI DUP1 PUSH4 0x51AED79D EQ PUSH2 0x5A3 JUMPI DUP1 PUSH4 0x6D1FCCBC EQ PUSH2 0x2C9 JUMPI DUP1 PUSH4 0x724EC8A2 EQ PUSH2 0x1EF JUMPI DUP1 PUSH4 0x772C329E EQ PUSH2 0x1BF JUMPI DUP1 PUSH4 0x7EE79A30 EQ PUSH2 0x186 JUMPI PUSH4 0xA2F6805C EQ PUSH2 0x7D JUMPI PUSH1 0x0 DUP1 REVERT JUMPDEST CALLVALUE PUSH2 0x183 JUMPI DUP1 PUSH1 0x3 NOT CALLDATASIZE ADD SLT PUSH2 0x183 JUMPI DUP2 MLOAD SWAP1 PUSH1 0xE0 DUP3 ADD DUP3 DUP2 LT PUSH8 0xFFFFFFFFFFFFFFFF DUP3 GT OR PUSH2 0x16F JUMPI DUP4 MSTORE PUSH1 0x6 SWAP2 PUSH1 0x6 DUP2 MSTORE PUSH1 0x20 SWAP2 DUP3 DUP3 ADD SWAP5 PUSH1 0xC0 CALLDATASIZE DUP8 CALLDATACOPY DUP2 JUMPDEST PUSH1 0xFF DUP2 AND DUP7 DUP2 LT ISZERO PUSH2 0x109 JUMPI DUP1 DUP5 MSTORE DUP4 DUP7 MSTORE DUP3 DUP5 KECCAK256 SLOAD SWAP1 DUP6 MLOAD GT ISZERO PUSH2 0xF6 JUMPI PUSH1 0x5 DUP3 SWAP1 SHL PUSH2 0x1FE0 AND DUP6 ADD DUP7 ADD MSTORE PUSH1 0x1 ADD PUSH1 0xFF AND PUSH2 0xBE JUMP JUMPDEST PUSH4 0x4E487B71 PUSH1 0xE0 SHL DUP5 MSTORE PUSH1 0x32 DUP10 MSTORE PUSH1 0x24 DUP5 REVERT JUMPDEST POP POP SWAP1 DUP6 SWAP4 SWAP2 PUSH1 0x1 SWAP3 DUP1 PUSH1 0x1 SLOAD SWAP6 PUSH1 0x3 SLOAD PUSH2 0x13A PUSH2 0x125 PUSH2 0x62D JUMP JUMPDEST DUP7 MLOAD SWAP10 DUP11 MSTORE PUSH1 0x80 DUP6 DUP12 ADD MSTORE PUSH1 0x80 DUP11 ADD SWAP1 PUSH2 0x6FF JUMP JUMPDEST SWAP5 DUP9 ADD MSTORE DUP7 DUP5 SUB PUSH1 0x60 DUP9 ADD MSTORE MLOAD SWAP3 DUP4 DUP2 MSTORE ADD SWAP6 SWAP3 JUMPDEST DUP3 DUP2 LT PUSH2 0x15C JUMPI DUP6 DUP8 SUB DUP7 RETURN JUMPDEST DUP4 MLOAD DUP8 MSTORE SWAP6 DUP2 ADD SWAP6 SWAP3 DUP2 ADD SWAP3 DUP5 ADD PUSH2 0x14F JUMP JUMPDEST PUSH4 0x4E487B71 PUSH1 0xE0 SHL DUP3 MSTORE PUSH1 0x41 PUSH1 0x4 MSTORE PUSH1 0x24 DUP3 REVERT JUMPDEST DUP1 REVERT JUMPDEST POP SWAP1 CALLVALUE PUSH2 0x1BB JUMPI DUP2 PUSH1 0x3 NOT CALLDATASIZE ADD SLT PUSH2 0x1BB JUMPI PUSH2 0x1B7 SWAP1 PUSH2 0x1A4 PUSH2 0x62D JUMP JUMPDEST SWAP1 MLOAD SWAP2 DUP3 SWAP2 PUSH1 0x20 DUP4 MSTORE PUSH1 0x20 DUP4 ADD SWAP1 PUSH2 0x6FF JUMP JUMPDEST SUB SWAP1 RETURN JUMPDEST POP DUP1 REVERT JUMPDEST POP SWAP1 CALLVALUE PUSH2 0x1BB JUMPI PUSH1 0x20 CALLDATASIZE PUSH1 0x3 NOT ADD SLT PUSH2 0x1BB JUMPI DUP1 PUSH1 0x20 SWAP3 PUSH1 0xFF PUSH2 0x1E0 PUSH2 0x5DE JUMP JUMPDEST AND DUP2 MSTORE DUP1 DUP5 MSTORE KECCAK256 SLOAD SWAP1 MLOAD SWAP1 DUP2 MSTORE RETURN JUMPDEST POP SWAP1 CALLVALUE PUSH2 0x1BB JUMPI DUP2 PUSH1 0x3 NOT CALLDATASIZE ADD SLT PUSH2 0x1BB JUMPI PUSH1 0x1 DUP3 PUSH1 0x1 SSTORE DUP3 PUSH1 0x3 SSTORE PUSH2 0x216 PUSH1 0x2 SLOAD PUSH2 0x5F3 JUMP JUMPDEST DUP1 PUSH2 0x254 JUMPI JUMPDEST POP DUP3 DUP2 JUMPDEST PUSH2 0x228 JUMPI DUP4 DUP1 RETURN JUMPDEST PUSH1 0xFF DUP2 AND SWAP1 PUSH1 0x6 DUP3 LT ISZERO PUSH2 0x24F JUMPI DUP3 PUSH1 0xFF SWAP2 DUP2 SWAP4 DUP8 MSTORE DUP7 PUSH1 0x20 MSTORE DUP7 DUP7 DUP2 KECCAK256 SSTORE ADD AND SWAP1 PUSH2 0x220 JUMP JUMPDEST POP DUP4 DUP1 RETURN JUMPDEST PUSH1 0x1F DUP2 GT PUSH1 0x1 EQ PUSH2 0x26B JUMPI POP DUP3 PUSH1 0x2 SSTORE JUMPDEST DUP4 PUSH2 0x21C JUMP JUMPDEST DUP4 SWAP1 PUSH1 0x1F PUSH1 0x0 DUP1 MLOAD PUSH1 0x20 PUSH2 0x765 DUP4 CODECOPY DUP2 MLOAD SWAP2 MSTORE SWAP2 ADD PUSH1 0x5 SHR DUP2 ADD DUP4 PUSH32 0x405787FA12A823E0F2B7631CC41B3BA8828B3321CA811111FA75CD3AA3BB5ACF JUMPDEST DUP3 DUP2 LT PUSH2 0x2BC JUMPI POP POP POP DUP2 PUSH1 0x2 SSTORE SSTORE PUSH2 0x265 JUMP JUMPDEST SWAP4 DUP5 SSTORE DUP7 SWAP4 DUP6 SWAP2 ADD PUSH2 0x2A8 JUMP JUMPDEST POP CALLVALUE PUSH2 0x183 JUMPI PUSH1 0x60 SWAP2 PUSH1 0x60 PUSH1 0x3 NOT CALLDATASIZE ADD SLT PUSH2 0x1BB JUMPI PUSH2 0x2E6 PUSH2 0x5DE JUMP JUMPDEST SWAP3 PUSH1 0x24 SWAP2 PUSH1 0x24 CALLDATALOAD SWAP5 PUSH8 0xFFFFFFFFFFFFFFFF SWAP1 DUP2 DUP8 GT PUSH2 0x59F JUMPI CALLDATASIZE PUSH1 0x23 DUP9 ADD SLT ISZERO PUSH2 0x59F JUMPI DUP7 PUSH1 0x4 ADD CALLDATALOAD SWAP2 DUP3 GT PUSH2 0x59F JUMPI CALLDATASIZE PUSH1 0x24 DUP4 DUP10 ADD ADD GT PUSH2 0x59F JUMPI PUSH1 0xFF PUSH1 0x44 CALLDATALOAD SWAP2 AND DUP7 MSTORE PUSH1 0x20 SWAP5 DUP7 DUP7 MSTORE DUP4 DUP8 KECCAK256 PUSH2 0x33E DUP2 SLOAD PUSH2 0x73F JUMP JUMPDEST SWAP1 SSTORE PUSH1 0x1 SWAP8 PUSH2 0x34D DUP10 SLOAD PUSH2 0x73F JUMP JUMPDEST DUP10 SSTORE PUSH1 0x3 SLOAD DUP4 GT PUSH2 0x46C JUMPI JUMPDEST POP POP POP POP DUP5 SLOAD SWAP3 DUP2 MLOAD SWAP4 DUP5 MSTORE DUP2 DUP2 DUP6 ADD MSTORE DUP5 SWAP6 PUSH1 0x2 SLOAD PUSH2 0x378 DUP2 PUSH2 0x5F3 JUMP JUMPDEST DUP1 SWAP5 DUP8 ADD MSTORE DUP2 DUP2 AND SWAP1 DUP2 PUSH1 0x0 EQ PUSH2 0x424 JUMPI POP PUSH1 0x1 EQ PUSH2 0x3BC JUMPI JUMPDEST DUP6 PUSH32 0x84DA1891EADA6B49CA2BE47F584D4C372A11D0B0D3E52405FDCDEF8885EE26C3 DUP7 DUP10 SUB DUP8 LOG1 DUP1 RETURN JUMPDEST SWAP6 POP PUSH1 0x2 DUP6 MSTORE PUSH1 0x0 DUP1 MLOAD PUSH1 0x20 PUSH2 0x765 DUP4 CODECOPY DUP2 MLOAD SWAP2 MSTORE SWAP6 DUP6 SWAP7 JUMPDEST DUP4 DUP9 LT PUSH2 0x411 JUMPI POP POP POP POP SWAP3 DUP2 ADD PUSH1 0x60 ADD SWAP3 POP DUP1 PUSH32 0x84DA1891EADA6B49CA2BE47F584D4C372A11D0B0D3E52405FDCDEF8885EE26C3 DUP6 DUP1 PUSH2 0x392 JUMP JUMPDEST DUP1 SLOAD DUP7 DUP10 ADD DUP7 ADD MSTORE SWAP7 DUP3 ADD SWAP7 DUP2 ADD PUSH2 0x3D5 JUMP JUMPDEST SWAP2 POP POP PUSH32 0x84DA1891EADA6B49CA2BE47F584D4C372A11D0B0D3E52405FDCDEF8885EE26C3 SWAP6 SWAP7 POP DUP5 SWAP4 POP PUSH1 0x60 SWAP3 SWAP2 POP PUSH1 0xFF NOT AND DUP3 DUP5 ADD MSTORE ISZERO ISZERO PUSH1 0x5 SHL DUP3 ADD ADD SWAP4 SWAP3 DUP6 DUP1 PUSH2 0x392 JUMP JUMPDEST DUP4 SWAP3 PUSH1 0x3 SSTORE PUSH2 0x47C PUSH1 0x2 SLOAD PUSH2 0x5F3 JUMP JUMPDEST PUSH1 0x1F DUP2 GT PUSH2 0x540 JUMPI JUMPDEST POP DUP8 SWAP2 PUSH1 0x1F DUP5 GT PUSH1 0x1 EQ PUSH2 0x4C7 JUMPI POP DUP8 SWAP3 PUSH2 0x4B9 JUMPI JUMPDEST POP POP PUSH1 0x0 NOT PUSH1 0x3 DUP4 SWAP1 SHL SHR NOT AND SWAP1 DUP7 SHL OR PUSH1 0x2 SSTORE JUMPDEST DUP6 DUP1 DUP1 DUP1 PUSH2 0x359 JUMP JUMPDEST PUSH1 0x24 SWAP3 POP ADD ADD CALLDATALOAD DUP8 DUP1 PUSH2 0x49B JUMP JUMPDEST SWAP2 DUP10 SWAP5 POP PUSH1 0x1F NOT DUP5 AND PUSH1 0x2 DUP11 MSTORE PUSH1 0x0 DUP1 MLOAD PUSH1 0x20 PUSH2 0x765 DUP4 CODECOPY DUP2 MLOAD SWAP2 MSTORE SWAP4 DUP11 SWAP1 JUMPDEST DUP11 DUP4 DUP4 LT PUSH2 0x524 JUMPI POP POP POP DUP5 GT PUSH2 0x507 JUMPI JUMPDEST POP POP POP DUP2 SHL ADD PUSH1 0x2 SSTORE PUSH2 0x4B0 JUMP JUMPDEST ADD PUSH1 0x24 ADD CALLDATALOAD PUSH1 0x0 NOT PUSH1 0x3 DUP5 SWAP1 SHL PUSH1 0xF8 AND SHR NOT AND SWAP1 SSTORE DUP8 DUP1 DUP1 PUSH2 0x4F9 JUMP JUMPDEST DUP5 DUP7 ADD DUP3 ADD CALLDATALOAD DUP8 SSTORE DUP14 SWAP9 SWAP1 SWAP7 ADD SWAP6 SWAP4 DUP5 ADD SWAP4 SWAP2 SWAP1 SWAP2 ADD SWAP1 PUSH2 0x4E7 JUMP JUMPDEST SWAP1 SWAP2 SWAP3 POP PUSH1 0x2 DUP9 MSTORE PUSH1 0x0 DUP1 MLOAD PUSH1 0x20 PUSH2 0x765 DUP4 CODECOPY DUP2 MLOAD SWAP2 MSTORE PUSH1 0x1F DUP6 ADD PUSH1 0x5 SHR DUP2 ADD SWAP2 DUP9 DUP7 LT PUSH2 0x595 JUMPI JUMPDEST DUP6 SWAP5 SWAP4 SWAP3 SWAP2 PUSH1 0x1F DUP13 SWAP3 ADD PUSH1 0x5 SHR ADD SWAP2 JUMPDEST DUP3 DUP2 LT PUSH2 0x587 JUMPI POP POP PUSH2 0x485 JUMP JUMPDEST DUP11 DUP2 SSTORE DUP7 SWAP6 POP DUP12 SWAP2 ADD PUSH2 0x579 JUMP JUMPDEST SWAP1 SWAP2 POP DUP2 SWAP1 PUSH2 0x569 JUMP JUMPDEST DUP6 DUP1 REVERT JUMPDEST POP SWAP1 CALLVALUE PUSH2 0x1BB JUMPI DUP2 PUSH1 0x3 NOT CALLDATASIZE ADD SLT PUSH2 0x1BB JUMPI PUSH1 0x20 SWAP1 PUSH1 0x3 SLOAD SWAP1 MLOAD SWAP1 DUP2 MSTORE RETURN JUMPDEST SWAP1 POP CALLVALUE PUSH2 0x1BB JUMPI DUP2 PUSH1 0x3 NOT CALLDATASIZE ADD SLT PUSH2 0x1BB JUMPI PUSH1 0x20 SWAP1 PUSH1 0x1 SLOAD DUP2 MSTORE RETURN JUMPDEST PUSH1 0x4 CALLDATALOAD SWAP1 PUSH1 0xFF DUP3 AND DUP3 SUB PUSH2 0x5EE JUMPI JUMP JUMPDEST PUSH1 0x0 DUP1 REVERT JUMPDEST SWAP1 PUSH1 0x1 DUP3 DUP2 SHR SWAP3 AND DUP1 ISZERO PUSH2 0x623 JUMPI JUMPDEST PUSH1 0x20 DUP4 LT EQ PUSH2 0x60D JUMPI JUMP JUMPDEST PUSH4 0x4E487B71 PUSH1 0xE0 SHL PUSH1 0x0 MSTORE PUSH1 0x22 PUSH1 0x4 MSTORE PUSH1 0x24 PUSH1 0x0 REVERT JUMPDEST SWAP2 PUSH1 0x7F AND SWAP2 PUSH2 0x602 JUMP JUMPDEST PUSH1 0x40 MLOAD SWAP1 PUSH1 0x0 PUSH1 0x2 SLOAD PUSH2 0x63F DUP2 PUSH2 0x5F3 JUMP JUMPDEST DUP1 DUP6 MSTORE SWAP1 PUSH1 0x20 SWAP1 PUSH1 0x1 SWAP1 DUP2 DUP2 AND SWAP1 DUP2 ISZERO PUSH2 0x6DF JUMPI POP PUSH1 0x1 EQ PUSH2 0x699 JUMPI JUMPDEST POP POP POP DUP3 SWAP1 SUB PUSH1 0x1F ADD PUSH1 0x1F NOT AND DUP3 ADD PUSH8 0xFFFFFFFFFFFFFFFF DUP2 GT DUP4 DUP3 LT OR PUSH2 0x683 JUMPI PUSH1 0x40 MSTORE JUMP JUMPDEST PUSH4 0x4E487B71 PUSH1 0xE0 SHL PUSH1 0x0 MSTORE PUSH1 0x41 PUSH1 0x4 MSTORE PUSH1 0x24 PUSH1 0x0 REVERT JUMPDEST PUSH1 0x2 PUSH1 0x0 SWAP1 DUP2 MSTORE SWAP3 SWAP4 POP PUSH1 0x0 DUP1 MLOAD PUSH1 0x20 PUSH2 0x765 DUP4 CODECOPY DUP2 MLOAD SWAP2 MSTORE JUMPDEST DUP5 DUP5 LT PUSH2 0x6CC JUMPI POP POP POP PUSH1 0x20 SWAP2 POP DUP4 ADD ADD CODESIZE DUP1 DUP1 PUSH2 0x65C JUMP JUMPDEST DUP1 SLOAD DUP8 DUP6 ADD DUP5 ADD MSTORE SWAP3 DUP3 ADD SWAP3 DUP2 ADD PUSH2 0x6B3 JUMP JUMPDEST SWAP3 POP POP POP PUSH1 0x20 SWAP3 POP PUSH1 0xFF NOT AND DUP3 DUP6 ADD MSTORE ISZERO ISZERO PUSH1 0x5 SHL DUP4 ADD ADD CODESIZE DUP1 DUP1 PUSH2 0x65C JUMP JUMPDEST SWAP2 SWAP1 DUP3 MLOAD SWAP3 DUP4 DUP3 MSTORE PUSH1 0x0 JUMPDEST DUP5 DUP2 LT PUSH2 0x72B JUMPI POP POP DUP3 PUSH1 0x0 PUSH1 0x20 DUP1 SWAP5 SWAP6 DUP5 ADD ADD MSTORE PUSH1 0x1F DUP1 NOT SWAP2 ADD AND ADD ADD SWAP1 JUMP JUMPDEST PUSH1 0x20 DUP2 DUP4 ADD DUP2 ADD MLOAD DUP5 DUP4 ADD DUP3 ADD MSTORE ADD PUSH2 0x70A JUMP JUMPDEST PUSH1 0x0 NOT DUP2 EQ PUSH2 0x74E JUMPI PUSH1 0x1 ADD SWAP1 JUMP JUMPDEST PUSH4 0x4E487B71 PUSH1 0xE0 SHL PUSH1 0x0 MSTORE PUSH1 0x11 PUSH1 0x4 MSTORE PUSH1 0x24 PUSH1 0x0 REVERT INVALID BLOCKHASH JUMPI DUP8 STATICCALL SLT 0xA8 0x23 0xE0 CALLCODE 0xB7 PUSH4 0x1CC41B3B 0xA8 DUP3 DUP12 CALLER 0x21 0xCA DUP2 GT GT STATICCALL PUSH22 0xCD3AA3BB5ACEA164736F6C6343000818000A00000000 "},"methodIdentifiers":{"attackTypeCounts(uint8)":"772c329e","getAttackTypeCount(uint8)":"4ee8054a","getDashboardStats()":"a2f6805c","resetStats()":"724ec8a2","topThreatIp()":"7ee79a30","topThreatScore()":"51aed79d","totalThreatsDetected()":"2c64b846","updateStats(uint8,string,uint256)":"6d1fccbc"}}}}}