{"contracts/OraSRSReader.sol":{"OraSRSReader":{"abi":[{"inputs":[{"internalType":"address","name":"_storage","type":"address"},{"internalType":"address","name":"_calc","type":"address"}],"stateMutability":"nonpayable","type":"constructor"},{"inputs":[],"name":"calculatorContract","outputs":[{"internalType":"contract IRiskCalculator","name":"","type":"address"}],"stateMutability":"view","type":"function"},{"inputs":[{"internalType":"string[]","name":"ips","type":"string[]"},{"internalType":"uint256","name":"threshold","type":"uint256"}],"name":"checkMultipleIPs","outputs":[{"components":[{"internalType":"string","name":"ip","type":"string"},{"internalType":"uint256","name":"score","type":"uint256"},{"internalType":"uint8","name":"riskLevel","type":"uint8"},{"internalType":"bool","name":"shouldBlock","type":"bool"}],"internalType":"struct OraSRSReader.BulkResult[]","name":"","type":"tuple[]"}],"stateMutability":"view","type":"function"},{"inputs":[{"internalType":"string[]","name":"ips","type":"string[]"},{"internalType":"uint256","name":"threshold","type":"uint256"}],"name":"checkMultipleIPsFiltered","outputs":[{"components":[{"internalType":"string","name":"ip","type":"string"},{"internalType":"uint256","name":"score","type":"uint256"},{"internalType":"uint8","name":"riskLevel","type":"uint8"},{"internalType":"bool","name":"shouldBlock","type":"bool"}],"internalType":"struct OraSRSReader.BulkResult[]","name":"","type":"tuple[]"}],"stateMutability":"view","type":"function"},{"inputs":[{"internalType":"string","name":"ip","type":"string"},{"internalType":"uint256","name":"threshold","type":"uint256"}],"name":"checkSingleIP","outputs":[{"internalType":"string","name":"ipResult","type":"string"},{"internalType":"uint256","name":"score","type":"uint256"},{"internalType":"uint8","name":"riskLevel","type":"uint8"},{"internalType":"bool","name":"shouldBlock","type":"bool"}],"stateMutability":"view","type":"function"},{"inputs":[{"internalType":"string[]","name":"ips","type":"string[]"}],"name":"getAllThreatInfo","outputs":[{"components":[{"internalType":"string","name":"ip","type":"string"},{"internalType":"uint256","name":"score","type":"uint256"},{"internalType":"uint8","name":"riskLevel","type":"uint8"},{"internalType":"uint8","name":"threatLevel","type":"uint8"},{"internalType":"uint256","name":"timestamp","type":"uint256"},{"internalType":"string","name":"threatType","type":"string"},{"internalType":"bool","name":"isActive","type":"bool"}],"internalType":"struct OraSRSReader.ThreatInfo[]","name":"","type":"tuple[]"}],"stateMutability":"view","type":"function"},{"inputs":[{"internalType":"string[]","name":"ips","type":"string[]"}],"name":"getThreatIPs","outputs":[{"components":[{"internalType":"string","name":"ip","type":"string"},{"internalType":"uint256","name":"score","type":"uint256"},{"internalType":"uint8","name":"riskLevel","type":"uint8"},{"internalType":"uint8","name":"threatLevel","type":"uint8"},{"internalType":"uint256","name":"timestamp","type":"uint256"},{"internalType":"string","name":"threatType","type":"string"},{"internalType":"bool","name":"isActive","type":"bool"}],"internalType":"struct OraSRSReader.ThreatInfo[]","name":"","type":"tuple[]"}],"stateMutability":"view","type":"function"},{"inputs":[],"name":"storageContract","outputs":[{"internalType":"contract IThreatCoordination","name":"","type":"address"}],"stateMutability":"view","type":"function"},{"inputs":[{"internalType":"address","name":"newCalc","type":"address"}],"name":"updateCalculatorContract","outputs":[],"stateMutability":"nonpayable","type":"function"},{"inputs":[{"internalType":"address","name":"newStorage","type":"address"}],"name":"updateStorageContract","outputs":[],"stateMutability":"nonpayable","type":"function"}],"evm":{"bytecode":{"linkReferences":{},"object":"60803461008d57601f61137638819003918201601f19168301916001600160401b0383118484101761009257808492604094855283398101031261008d57610052602061004b836100a8565b92016100a8565b600080546001600160a01b039384166001600160a01b031991821617909155600180549290931691161790556040516112b990816100bd8239f35b600080fd5b634e487b7160e01b600052604160045260246000fd5b51906001600160a01b038216820361008d5756fe608080604052600436101561001357600080fd5b60003560e01c90816311ce026714610cea5750806319a36ea614610b8b5780633ad218d9146108605780635b1c8c3a1461083757806362b4e821146105f257806379563271146102c65780638fb6d99714610278578063ef94e3a8146100d55763f9a0abf61461008257600080fd5b346100d05760203660031901126100d0576004356001600160a01b038116908190036100d0576100b381151561126e565b6bffffffffffffffffffffffff60a01b6001541617600155600080f35b600080fd5b346100d0576100e336610f0a565b91906100ee816111ff565b9160009060018060a01b039485600054169160019660015416935b858110610122576040518061011e8982610f3d565b0390f35b61012d818784611077565b919060405190635c1938bd60e11b825281806101506020968794600484016110dc565b0381895afa90811561023f5760009161024b575b50604051634af30f8d60e01b8152600481018290529083826024818b5afa801561023f578b948a88946000936101ef575b50918360ff926101ab886101c19897968c611077565b9790604051986101ba8a610d40565b3691610d9a565b8752860152166040840152101560608201526101dd828a611104565b526101e88189611104565b5001610109565b945050919450508082813d8311610238575b61020b8183610d5c565b810103126100d0578360ff8a8d9689946101ab8861022b6101c199610fcf565b9697985050509250610195565b503d610201565b6040513d6000823e3d90fd5b90508281813d8311610271575b6102628183610d5c565b810103126100d057518a610164565b503d610258565b346100d05760203660031901126100d0576004356001600160a01b038116908190036100d0576102a981151561126e565b6bffffffffffffffffffffffff60a01b6000541617600055600080f35b346100d05760203660031901126100d05760043567ffffffffffffffff81116100d0576102f7903690600401610e19565b61030081610ff5565b600080549193909290916001600160a01b0316835b82811061036a57858561032781610ff5565b9160005b828110610340576040518061011e8682610e4a565b8061034d60019284611104565b516103588287611104565b526103638186611104565b500161032b565b610396602061037a838688611077565b604051632a592cff60e01b8152938492839290600484016110dc565b0381865afa90811561023f576000916105b8575b506103b8575b600101610315565b936103e560006103c9878688611077565b604051639d55cb2960e01b8152938492839290600484016110dc565b0381865afa90811561023f57600080600092600094610587575b5061042d9060206104118b8a8c611077565b604051635c1938bd60e11b8152948592839290600484016110dc565b03818a5afa801561023f57600090610554575b600154604051634af30f8d60e01b8152600481018390529350602090849060249082906001600160a01b03165afa92831561023f57898b8d926000966104f6575b509261049c6104ee99969360019b9996936104ab9996611077565b9790604051986101ba8a610d0e565b8752602087015260ff8092166040870152166060850152608084015260a0830152151560c08201526104dd828a611104565b526104e88189611104565b506111da565b9490506103b0565b999794989550505050926020873d60201161054c575b8161051960209383610d5c565b810103126100d057896104ee966104ab9561049c8e8d61053a60019d610fcf565b989b509396999b509391949750610481565b3d915061050c565b506020823d60201161057f575b8161056e60209383610d5c565b810103126100d05760249151610440565b3d9150610561565b91505061042d92506105ac91503d806000833e6105a48183610d5c565b81019061115d565b959094509092506103ff565b90506020813d6020116105ea575b816105d360209383610d5c565b810103126100d0576105e4906110cf565b876103aa565b3d91506105c6565b346100d05761060036610f0a565b600080546001600160a01b039492939290851691805b8481106107985750610627906111ff565b9360009160009160019760015416925b86811061064c576040518061011e8a82610f3d565b610657818885611077565b919060405190635c1938bd60e11b8252818061067a6020968794600484016110dc565b03818b5afa90811561023f5760009161076b575b50604051634af30f8d60e01b8152600481018290529083826024818a5afa90811561023f578c948b9360009361072e575b508682101593846106d6575b505050505001610637565b92859a949260ff926106ef610723986106fe978d611077565b9690604051976101ba89610d40565b86528501521660408301526060820152610718828c611104565b526104e8818b611104565b948a8080808b6106cb565b9350915093508082813d8311610764575b6107498183610d5c565b810103126100d0578b9361075d8b93610fcf565b918e6106bf565b503d61073f565b90508281813d8311610791575b6107828183610d5c565b810103126100d057518b61068e565b503d610778565b6107a6818685989798611077565b9060405190635c1938bd60e11b825281806107c86020958694600484016110dc565b0381895afa90811561023f578792600092610806575b505010156107f2575b600101949394610616565b906107fe6001916111da565b9190506107e7565b8193508092503d8311610830575b61081e8183610d5c565b810103126100d05785905189806107de565b503d610814565b346100d05760003660031901126100d0576001546040516001600160a01b039091168152602090f35b346100d05760203660031901126100d05767ffffffffffffffff6004358181116100d057610892903690600401610e19565b909161089d82610ff5565b9160009160018060a01b0380600054169060015416935b8381106108c9576040518061011e8882610e4a565b8060206108da6108f693878b611077565b604051632a592cff60e01b8152948592839290600484016110dc565b0381865afa801561023f57600090610b50575b6109379250602061091b83888c611077565b604051635c1938bd60e11b8152958692839290600484016110dc565b0381875afa92831561023f57600093610b1c575b50604051634af30f8d60e01b8152600481018490529060249060208383818c5afa92831561023f5788918c91600095610adc575b5015610a41576109979250846000926103c992611077565b0381885afa90811561023f578a6109ca93600196600090878c600095600097600099610a0f575b509061049c9291611077565b8752602087015260ff8092166040870152166060850152608084015260a0830152151560c08201526109fc8289611104565b52610a078188611104565b505b016108b4565b919450975061049c9650610a2f9195503d806000833e6105a48183610d5c565b9a9099919892969294509192506109be565b94610a558560ff949593610a649798611077565b9590604051966101ba88610d0e565b85526020850152166040830152600060608301526000608083015260405190602082019082821087831117610ac857509060019392916040526000815260a0820152600060c0820152610ab78289611104565b52610ac28188611104565b50610a09565b634e487b7160e01b60009081526041600452fd5b92509350506020813d602011610b14575b81610afa60209383610d5c565b810103126100d0578a610b0d8992610fcf565b938d61097f565b3d9150610aed565b9092506020813d602011610b48575b81610b3860209383610d5c565b810103126100d05751918961094b565b3d9150610b2b565b506020823d602011610b83575b81610b6a60209383610d5c565b810103126100d057610b7e610937926110cf565b610909565b3d9150610b5d565b346100d05760403660031901126100d05760043567ffffffffffffffff81116100d057366023820112156100d057610bcd903690602481600401359101610d9a565b600054604051635c1938bd60e11b81526020600482018190529092916001600160a01b03908290859083168180610c076024820189610df4565b03915afa93841561023f57600094610cbb575b5092816024946001541660405195868092634af30f8d60e01b82528560048301525afa93841561023f57600094610c80575b5060ff610c689482604051968796608088526080880190610df4565b94860152166040840152602435111560608301520390f35b93508184813d8311610cb4575b610c978183610d5c565b810103126100d05760ff610cad610c6895610fcf565b9450610c4c565b503d610c8d565b93508184813d8311610ce3575b610cd28183610d5c565b810103126100d05792519281610c1a565b503d610cc8565b346100d05760003660031901126100d0576000546001600160a01b03168152602090f35b60e0810190811067ffffffffffffffff821117610d2a57604052565b634e487b7160e01b600052604160045260246000fd5b6080810190811067ffffffffffffffff821117610d2a57604052565b90601f8019910116810190811067ffffffffffffffff821117610d2a57604052565b67ffffffffffffffff8111610d2a57601f01601f191660200190565b929192610da682610d7e565b91610db46040519384610d5c565b8294818452818301116100d0578281602093846000960137010152565b60005b838110610de45750506000910152565b8181015183820152602001610dd4565b90602091610e0d81518092818552858086019101610dd1565b601f01601f1916010190565b9181601f840112156100d05782359167ffffffffffffffff83116100d0576020808501948460051b0101116100d057565b6020808201908083528351809252604092604081018260408560051b8401019601946000925b858410610e81575050505050505090565b909192939495968580600192603f198582030187528a5190610eed610eaf60e0845190808552840190610df4565b84840151858401528884015160ff8091168a8501526060908186015116908401526080808501519084015260a0808501519084830390850152610df4565b9160c0809101511515910152990194019401929594939190610e70565b60406003198201126100d0576004359067ffffffffffffffff82116100d057610f3591600401610e19565b909160243590565b6020808201908083528351809252604092604081018260408560051b8401019601946000925b858410610f74575050505050505090565b909192939495968580600192603f198582030187528a5190610f9f6080835190808452830190610df4565b91838101518483015260ff8882015116888301526060809101511515910152990194019401929594939190610f63565b519060ff821682036100d057565b67ffffffffffffffff8111610d2a5760051b60200190565b90610fff82610fdd565b60409061100f6040519182610d5c565b8381528093611020601f1991610fdd565b019160005b8381106110325750505050565b602090825161104081610d0e565b606080825283906000828401526000868401526000818401526000608084015260a0830152600060c0830152828601015201611025565b91908110156110b95760051b81013590601e19813603018212156100d057019081359167ffffffffffffffff83116100d05760200182360381136100d0579190565b634e487b7160e01b600052603260045260246000fd5b519081151582036100d057565b90918060409360208452816020850152848401376000828201840152601f01601f1916010190565b80518210156110b95760209160051b010190565b81601f820112156100d057805161112e81610d7e565b9261113c6040519485610d5c565b818452602082840101116100d05761115a9160208085019101610dd1565b90565b919060c0838203126100d05782519067ffffffffffffffff918281116100d05781611189918601611118565b9360208101518381116100d057826111a2918301611118565b936111af60408301610fcf565b9360608301519360808401519182116100d0576111d360a09161115a938601611118565b93016110cf565b60001981146111e95760010190565b634e487b7160e01b600052601160045260246000fd5b9061120982610fdd565b6040906112196040519182610d5c565b838152809361122a601f1991610fdd565b019160009160005b848110611240575050505050565b602090835161124e81610d40565b606080825286849181838501528188850152830152828501015201611232565b1561127557565b60405162461bcd60e51b815260206004820152600f60248201526e496e76616c6964206164647265737360881b6044820152606490fdfea164736f6c6343000818000a","opcodes":"PUSH1 0x80 CALLVALUE PUSH2 0x8D JUMPI PUSH1 0x1F PUSH2 0x1376 CODESIZE DUP2 SWAP1 SUB SWAP2 DUP3 ADD PUSH1 0x1F NOT AND DUP4 ADD SWAP2 PUSH1 0x1 PUSH1 0x1 PUSH1 0x40 SHL SUB DUP4 GT DUP5 DUP5 LT OR PUSH2 0x92 JUMPI DUP1 DUP5 SWAP3 PUSH1 0x40 SWAP5 DUP6 MSTORE DUP4 CODECOPY DUP2 ADD SUB SLT PUSH2 0x8D JUMPI PUSH2 0x52 PUSH1 0x20 PUSH2 0x4B DUP4 PUSH2 0xA8 JUMP JUMPDEST SWAP3 ADD PUSH2 0xA8 JUMP JUMPDEST PUSH1 0x0 DUP1 SLOAD PUSH1 0x1 PUSH1 0x1 PUSH1 0xA0 SHL SUB SWAP4 DUP5 AND PUSH1 0x1 PUSH1 0x1 PUSH1 0xA0 SHL SUB NOT SWAP2 DUP3 AND OR SWAP1 SWAP2 SSTORE PUSH1 0x1 DUP1 SLOAD SWAP3 SWAP1 SWAP4 AND SWAP2 AND OR SWAP1 SSTORE PUSH1 0x40 MLOAD PUSH2 0x12B9 SWAP1 DUP2 PUSH2 0xBD DUP3 CODECOPY RETURN JUMPDEST PUSH1 0x0 DUP1 REVERT JUMPDEST PUSH4 0x4E487B71 PUSH1 0xE0 SHL PUSH1 0x0 MSTORE PUSH1 0x41 PUSH1 0x4 MSTORE PUSH1 0x24 PUSH1 0x0 REVERT JUMPDEST MLOAD SWAP1 PUSH1 0x1 PUSH1 0x1 PUSH1 0xA0 SHL SUB DUP3 AND DUP3 SUB PUSH2 0x8D JUMPI JUMP INVALID PUSH1 0x80 DUP1 PUSH1 0x40 MSTORE PUSH1 0x4 CALLDATASIZE LT ISZERO PUSH2 0x13 JUMPI PUSH1 0x0 DUP1 REVERT JUMPDEST PUSH1 0x0 CALLDATALOAD PUSH1 0xE0 SHR SWAP1 DUP2 PUSH4 0x11CE0267 EQ PUSH2 0xCEA JUMPI POP DUP1 PUSH4 0x19A36EA6 EQ PUSH2 0xB8B JUMPI DUP1 PUSH4 0x3AD218D9 EQ PUSH2 0x860 JUMPI DUP1 PUSH4 0x5B1C8C3A EQ PUSH2 0x837 JUMPI DUP1 PUSH4 0x62B4E821 EQ PUSH2 0x5F2 JUMPI DUP1 PUSH4 0x79563271 EQ PUSH2 0x2C6 JUMPI DUP1 PUSH4 0x8FB6D997 EQ PUSH2 0x278 JUMPI DUP1 PUSH4 0xEF94E3A8 EQ PUSH2 0xD5 JUMPI PUSH4 0xF9A0ABF6 EQ PUSH2 0x82 JUMPI PUSH1 0x0 DUP1 REVERT JUMPDEST CALLVALUE PUSH2 0xD0 JUMPI PUSH1 0x20 CALLDATASIZE PUSH1 0x3 NOT ADD SLT PUSH2 0xD0 JUMPI PUSH1 0x4 CALLDATALOAD PUSH1 0x1 PUSH1 0x1 PUSH1 0xA0 SHL SUB DUP2 AND SWAP1 DUP2 SWAP1 SUB PUSH2 0xD0 JUMPI PUSH2 0xB3 DUP2 ISZERO ISZERO PUSH2 0x126E JUMP JUMPDEST PUSH12 0xFFFFFFFFFFFFFFFFFFFFFFFF PUSH1 0xA0 SHL PUSH1 0x1 SLOAD AND OR PUSH1 0x1 SSTORE PUSH1 0x0 DUP1 RETURN JUMPDEST PUSH1 0x0 DUP1 REVERT JUMPDEST CALLVALUE PUSH2 0xD0 JUMPI PUSH2 0xE3 CALLDATASIZE PUSH2 0xF0A JUMP JUMPDEST SWAP2 SWAP1 PUSH2 0xEE DUP2 PUSH2 0x11FF JUMP JUMPDEST SWAP2 PUSH1 0x0 SWAP1 PUSH1 0x1 DUP1 PUSH1 0xA0 SHL SUB SWAP5 DUP6 PUSH1 0x0 SLOAD AND SWAP2 PUSH1 0x1 SWAP7 PUSH1 0x1 SLOAD AND SWAP4 JUMPDEST DUP6 DUP2 LT PUSH2 0x122 JUMPI PUSH1 0x40 MLOAD DUP1 PUSH2 0x11E DUP10 DUP3 PUSH2 0xF3D JUMP JUMPDEST SUB SWAP1 RETURN JUMPDEST PUSH2 0x12D DUP2 DUP8 DUP5 PUSH2 0x1077 JUMP JUMPDEST SWAP2 SWAP1 PUSH1 0x40 MLOAD SWAP1 PUSH4 0x5C1938BD PUSH1 0xE1 SHL DUP3 MSTORE DUP2 DUP1 PUSH2 0x150 PUSH1 0x20 SWAP7 DUP8 SWAP5 PUSH1 0x4 DUP5 ADD PUSH2 0x10DC JUMP JUMPDEST SUB DUP2 DUP10 GAS STATICCALL SWAP1 DUP2 ISZERO PUSH2 0x23F JUMPI PUSH1 0x0 SWAP2 PUSH2 0x24B JUMPI JUMPDEST POP PUSH1 0x40 MLOAD PUSH4 0x4AF30F8D PUSH1 0xE0 SHL DUP2 MSTORE PUSH1 0x4 DUP2 ADD DUP3 SWAP1 MSTORE SWAP1 DUP4 DUP3 PUSH1 0x24 DUP2 DUP12 GAS STATICCALL DUP1 ISZERO PUSH2 0x23F JUMPI DUP12 SWAP5 DUP11 DUP9 SWAP5 PUSH1 0x0 SWAP4 PUSH2 0x1EF JUMPI JUMPDEST POP SWAP2 DUP4 PUSH1 0xFF SWAP3 PUSH2 0x1AB DUP9 PUSH2 0x1C1 SWAP9 SWAP8 SWAP7 DUP13 PUSH2 0x1077 JUMP JUMPDEST SWAP8 SWAP1 PUSH1 0x40 MLOAD SWAP9 PUSH2 0x1BA DUP11 PUSH2 0xD40 JUMP JUMPDEST CALLDATASIZE SWAP2 PUSH2 0xD9A JUMP JUMPDEST DUP8 MSTORE DUP7 ADD MSTORE AND PUSH1 0x40 DUP5 ADD MSTORE LT ISZERO PUSH1 0x60 DUP3 ADD MSTORE PUSH2 0x1DD DUP3 DUP11 PUSH2 0x1104 JUMP JUMPDEST MSTORE PUSH2 0x1E8 DUP2 DUP10 PUSH2 0x1104 JUMP JUMPDEST POP ADD PUSH2 0x109 JUMP JUMPDEST SWAP5 POP POP SWAP2 SWAP5 POP POP DUP1 DUP3 DUP2 RETURNDATASIZE DUP4 GT PUSH2 0x238 JUMPI JUMPDEST PUSH2 0x20B DUP2 DUP4 PUSH2 0xD5C JUMP JUMPDEST DUP2 ADD SUB SLT PUSH2 0xD0 JUMPI DUP4 PUSH1 0xFF DUP11 DUP14 SWAP7 DUP10 SWAP5 PUSH2 0x1AB DUP9 PUSH2 0x22B PUSH2 0x1C1 SWAP10 PUSH2 0xFCF JUMP JUMPDEST SWAP7 SWAP8 SWAP9 POP POP POP SWAP3 POP PUSH2 0x195 JUMP JUMPDEST POP RETURNDATASIZE PUSH2 0x201 JUMP JUMPDEST PUSH1 0x40 MLOAD RETURNDATASIZE PUSH1 0x0 DUP3 RETURNDATACOPY RETURNDATASIZE SWAP1 REVERT JUMPDEST SWAP1 POP DUP3 DUP2 DUP2 RETURNDATASIZE DUP4 GT PUSH2 0x271 JUMPI JUMPDEST PUSH2 0x262 DUP2 DUP4 PUSH2 0xD5C JUMP JUMPDEST DUP2 ADD SUB SLT PUSH2 0xD0 JUMPI MLOAD DUP11 PUSH2 0x164 JUMP JUMPDEST POP RETURNDATASIZE PUSH2 0x258 JUMP JUMPDEST CALLVALUE PUSH2 0xD0 JUMPI PUSH1 0x20 CALLDATASIZE PUSH1 0x3 NOT ADD SLT PUSH2 0xD0 JUMPI PUSH1 0x4 CALLDATALOAD PUSH1 0x1 PUSH1 0x1 PUSH1 0xA0 SHL SUB DUP2 AND SWAP1 DUP2 SWAP1 SUB PUSH2 0xD0 JUMPI PUSH2 0x2A9 DUP2 ISZERO ISZERO PUSH2 0x126E JUMP JUMPDEST PUSH12 0xFFFFFFFFFFFFFFFFFFFFFFFF PUSH1 0xA0 SHL PUSH1 0x0 SLOAD AND OR PUSH1 0x0 SSTORE PUSH1 0x0 DUP1 RETURN JUMPDEST CALLVALUE PUSH2 0xD0 JUMPI PUSH1 0x20 CALLDATASIZE PUSH1 0x3 NOT ADD SLT PUSH2 0xD0 JUMPI PUSH1 0x4 CALLDATALOAD PUSH8 0xFFFFFFFFFFFFFFFF DUP2 GT PUSH2 0xD0 JUMPI PUSH2 0x2F7 SWAP1 CALLDATASIZE SWAP1 PUSH1 0x4 ADD PUSH2 0xE19 JUMP JUMPDEST PUSH2 0x300 DUP2 PUSH2 0xFF5 JUMP JUMPDEST PUSH1 0x0 DUP1 SLOAD SWAP2 SWAP4 SWAP1 SWAP3 SWAP1 SWAP2 PUSH1 0x1 PUSH1 0x1 PUSH1 0xA0 SHL SUB AND DUP4 JUMPDEST DUP3 DUP2 LT PUSH2 0x36A JUMPI DUP6 DUP6 PUSH2 0x327 DUP2 PUSH2 0xFF5 JUMP JUMPDEST SWAP2 PUSH1 0x0 JUMPDEST DUP3 DUP2 LT PUSH2 0x340 JUMPI PUSH1 0x40 MLOAD DUP1 PUSH2 0x11E DUP7 DUP3 PUSH2 0xE4A JUMP JUMPDEST DUP1 PUSH2 0x34D PUSH1 0x1 SWAP3 DUP5 PUSH2 0x1104 JUMP JUMPDEST MLOAD PUSH2 0x358 DUP3 DUP8 PUSH2 0x1104 JUMP JUMPDEST MSTORE PUSH2 0x363 DUP2 DUP7 PUSH2 0x1104 JUMP JUMPDEST POP ADD PUSH2 0x32B JUMP JUMPDEST PUSH2 0x396 PUSH1 0x20 PUSH2 0x37A DUP4 DUP7 DUP9 PUSH2 0x1077 JUMP JUMPDEST PUSH1 0x40 MLOAD PUSH4 0x2A592CFF PUSH1 0xE0 SHL DUP2 MSTORE SWAP4 DUP5 SWAP3 DUP4 SWAP3 SWAP1 PUSH1 0x4 DUP5 ADD PUSH2 0x10DC JUMP JUMPDEST SUB DUP2 DUP7 GAS STATICCALL SWAP1 DUP2 ISZERO PUSH2 0x23F JUMPI PUSH1 0x0 SWAP2 PUSH2 0x5B8 JUMPI JUMPDEST POP PUSH2 0x3B8 JUMPI JUMPDEST PUSH1 0x1 ADD PUSH2 0x315 JUMP JUMPDEST SWAP4 PUSH2 0x3E5 PUSH1 0x0 PUSH2 0x3C9 DUP8 DUP7 DUP9 PUSH2 0x1077 JUMP JUMPDEST PUSH1 0x40 MLOAD PUSH4 0x9D55CB29 PUSH1 0xE0 SHL DUP2 MSTORE SWAP4 DUP5 SWAP3 DUP4 SWAP3 SWAP1 PUSH1 0x4 DUP5 ADD PUSH2 0x10DC JUMP JUMPDEST SUB DUP2 DUP7 GAS STATICCALL SWAP1 DUP2 ISZERO PUSH2 0x23F JUMPI PUSH1 0x0 DUP1 PUSH1 0x0 SWAP3 PUSH1 0x0 SWAP5 PUSH2 0x587 JUMPI JUMPDEST POP PUSH2 0x42D SWAP1 PUSH1 0x20 PUSH2 0x411 DUP12 DUP11 DUP13 PUSH2 0x1077 JUMP JUMPDEST PUSH1 0x40 MLOAD PUSH4 0x5C1938BD PUSH1 0xE1 SHL DUP2 MSTORE SWAP5 DUP6 SWAP3 DUP4 SWAP3 SWAP1 PUSH1 0x4 DUP5 ADD PUSH2 0x10DC JUMP JUMPDEST SUB DUP2 DUP11 GAS STATICCALL DUP1 ISZERO PUSH2 0x23F JUMPI PUSH1 0x0 SWAP1 PUSH2 0x554 JUMPI JUMPDEST PUSH1 0x1 SLOAD PUSH1 0x40 MLOAD PUSH4 0x4AF30F8D PUSH1 0xE0 SHL DUP2 MSTORE PUSH1 0x4 DUP2 ADD DUP4 SWAP1 MSTORE SWAP4 POP PUSH1 0x20 SWAP1 DUP5 SWAP1 PUSH1 0x24 SWAP1 DUP3 SWAP1 PUSH1 0x1 PUSH1 0x1 PUSH1 0xA0 SHL SUB AND GAS STATICCALL SWAP3 DUP4 ISZERO PUSH2 0x23F JUMPI DUP10 DUP12 DUP14 SWAP3 PUSH1 0x0 SWAP7 PUSH2 0x4F6 JUMPI JUMPDEST POP SWAP3 PUSH2 0x49C PUSH2 0x4EE SWAP10 SWAP7 SWAP4 PUSH1 0x1 SWAP12 SWAP10 SWAP7 SWAP4 PUSH2 0x4AB SWAP10 SWAP7 PUSH2 0x1077 JUMP JUMPDEST SWAP8 SWAP1 PUSH1 0x40 MLOAD SWAP9 PUSH2 0x1BA DUP11 PUSH2 0xD0E JUMP JUMPDEST DUP8 MSTORE PUSH1 0x20 DUP8 ADD MSTORE PUSH1 0xFF DUP1 SWAP3 AND PUSH1 0x40 DUP8 ADD MSTORE AND PUSH1 0x60 DUP6 ADD MSTORE PUSH1 0x80 DUP5 ADD MSTORE PUSH1 0xA0 DUP4 ADD MSTORE ISZERO ISZERO PUSH1 0xC0 DUP3 ADD MSTORE PUSH2 0x4DD DUP3 DUP11 PUSH2 0x1104 JUMP JUMPDEST MSTORE PUSH2 0x4E8 DUP2 DUP10 PUSH2 0x1104 JUMP JUMPDEST POP PUSH2 0x11DA JUMP JUMPDEST SWAP5 SWAP1 POP PUSH2 0x3B0 JUMP JUMPDEST SWAP10 SWAP8 SWAP5 SWAP9 SWAP6 POP POP POP POP SWAP3 PUSH1 0x20 DUP8 RETURNDATASIZE PUSH1 0x20 GT PUSH2 0x54C JUMPI JUMPDEST DUP2 PUSH2 0x519 PUSH1 0x20 SWAP4 DUP4 PUSH2 0xD5C JUMP JUMPDEST DUP2 ADD SUB SLT PUSH2 0xD0 JUMPI DUP10 PUSH2 0x4EE SWAP7 PUSH2 0x4AB SWAP6 PUSH2 0x49C DUP15 DUP14 PUSH2 0x53A PUSH1 0x1 SWAP14 PUSH2 0xFCF JUMP JUMPDEST SWAP9 SWAP12 POP SWAP4 SWAP7 SWAP10 SWAP12 POP SWAP4 SWAP2 SWAP5 SWAP8 POP PUSH2 0x481 JUMP JUMPDEST RETURNDATASIZE SWAP2 POP PUSH2 0x50C JUMP JUMPDEST POP PUSH1 0x20 DUP3 RETURNDATASIZE PUSH1 0x20 GT PUSH2 0x57F JUMPI JUMPDEST DUP2 PUSH2 0x56E PUSH1 0x20 SWAP4 DUP4 PUSH2 0xD5C JUMP JUMPDEST DUP2 ADD SUB SLT PUSH2 0xD0 JUMPI PUSH1 0x24 SWAP2 MLOAD PUSH2 0x440 JUMP JUMPDEST RETURNDATASIZE SWAP2 POP PUSH2 0x561 JUMP JUMPDEST SWAP2 POP POP PUSH2 0x42D SWAP3 POP PUSH2 0x5AC SWAP2 POP RETURNDATASIZE DUP1 PUSH1 0x0 DUP4 RETURNDATACOPY PUSH2 0x5A4 DUP2 DUP4 PUSH2 0xD5C JUMP JUMPDEST DUP2 ADD SWAP1 PUSH2 0x115D JUMP JUMPDEST SWAP6 SWAP1 SWAP5 POP SWAP1 SWAP3 POP PUSH2 0x3FF JUMP JUMPDEST SWAP1 POP PUSH1 0x20 DUP2 RETURNDATASIZE PUSH1 0x20 GT PUSH2 0x5EA JUMPI JUMPDEST DUP2 PUSH2 0x5D3 PUSH1 0x20 SWAP4 DUP4 PUSH2 0xD5C JUMP JUMPDEST DUP2 ADD SUB SLT PUSH2 0xD0 JUMPI PUSH2 0x5E4 SWAP1 PUSH2 0x10CF JUMP JUMPDEST DUP8 PUSH2 0x3AA JUMP JUMPDEST RETURNDATASIZE SWAP2 POP PUSH2 0x5C6 JUMP JUMPDEST CALLVALUE PUSH2 0xD0 JUMPI PUSH2 0x600 CALLDATASIZE PUSH2 0xF0A JUMP JUMPDEST PUSH1 0x0 DUP1 SLOAD PUSH1 0x1 PUSH1 0x1 PUSH1 0xA0 SHL SUB SWAP5 SWAP3 SWAP4 SWAP3 SWAP1 DUP6 AND SWAP2 DUP1 JUMPDEST DUP5 DUP2 LT PUSH2 0x798 JUMPI POP PUSH2 0x627 SWAP1 PUSH2 0x11FF JUMP JUMPDEST SWAP4 PUSH1 0x0 SWAP2 PUSH1 0x0 SWAP2 PUSH1 0x1 SWAP8 PUSH1 0x1 SLOAD AND SWAP3 JUMPDEST DUP7 DUP2 LT PUSH2 0x64C JUMPI PUSH1 0x40 MLOAD DUP1 PUSH2 0x11E DUP11 DUP3 PUSH2 0xF3D JUMP JUMPDEST PUSH2 0x657 DUP2 DUP9 DUP6 PUSH2 0x1077 JUMP JUMPDEST SWAP2 SWAP1 PUSH1 0x40 MLOAD SWAP1 PUSH4 0x5C1938BD PUSH1 0xE1 SHL DUP3 MSTORE DUP2 DUP1 PUSH2 0x67A PUSH1 0x20 SWAP7 DUP8 SWAP5 PUSH1 0x4 DUP5 ADD PUSH2 0x10DC JUMP JUMPDEST SUB DUP2 DUP12 GAS STATICCALL SWAP1 DUP2 ISZERO PUSH2 0x23F JUMPI PUSH1 0x0 SWAP2 PUSH2 0x76B JUMPI JUMPDEST POP PUSH1 0x40 MLOAD PUSH4 0x4AF30F8D PUSH1 0xE0 SHL DUP2 MSTORE PUSH1 0x4 DUP2 ADD DUP3 SWAP1 MSTORE SWAP1 DUP4 DUP3 PUSH1 0x24 DUP2 DUP11 GAS STATICCALL SWAP1 DUP2 ISZERO PUSH2 0x23F JUMPI DUP13 SWAP5 DUP12 SWAP4 PUSH1 0x0 SWAP4 PUSH2 0x72E JUMPI JUMPDEST POP DUP7 DUP3 LT ISZERO SWAP4 DUP5 PUSH2 0x6D6 JUMPI JUMPDEST POP POP POP POP POP ADD PUSH2 0x637 JUMP JUMPDEST SWAP3 DUP6 SWAP11 SWAP5 SWAP3 PUSH1 0xFF SWAP3 PUSH2 0x6EF PUSH2 0x723 SWAP9 PUSH2 0x6FE SWAP8 DUP14 PUSH2 0x1077 JUMP JUMPDEST SWAP7 SWAP1 PUSH1 0x40 MLOAD SWAP8 PUSH2 0x1BA DUP10 PUSH2 0xD40 JUMP JUMPDEST DUP7 MSTORE DUP6 ADD MSTORE AND PUSH1 0x40 DUP4 ADD MSTORE PUSH1 0x60 DUP3 ADD MSTORE PUSH2 0x718 DUP3 DUP13 PUSH2 0x1104 JUMP JUMPDEST MSTORE PUSH2 0x4E8 DUP2 DUP12 PUSH2 0x1104 JUMP JUMPDEST SWAP5 DUP11 DUP1 DUP1 DUP1 DUP12 PUSH2 0x6CB JUMP JUMPDEST SWAP4 POP SWAP2 POP SWAP4 POP DUP1 DUP3 DUP2 RETURNDATASIZE DUP4 GT PUSH2 0x764 JUMPI JUMPDEST PUSH2 0x749 DUP2 DUP4 PUSH2 0xD5C JUMP JUMPDEST DUP2 ADD SUB SLT PUSH2 0xD0 JUMPI DUP12 SWAP4 PUSH2 0x75D DUP12 SWAP4 PUSH2 0xFCF JUMP JUMPDEST SWAP2 DUP15 PUSH2 0x6BF JUMP JUMPDEST POP RETURNDATASIZE PUSH2 0x73F JUMP JUMPDEST SWAP1 POP DUP3 DUP2 DUP2 RETURNDATASIZE DUP4 GT PUSH2 0x791 JUMPI JUMPDEST PUSH2 0x782 DUP2 DUP4 PUSH2 0xD5C JUMP JUMPDEST DUP2 ADD SUB SLT PUSH2 0xD0 JUMPI MLOAD DUP12 PUSH2 0x68E JUMP JUMPDEST POP RETURNDATASIZE PUSH2 0x778 JUMP JUMPDEST PUSH2 0x7A6 DUP2 DUP7 DUP6 SWAP9 SWAP8 SWAP9 PUSH2 0x1077 JUMP JUMPDEST SWAP1 PUSH1 0x40 MLOAD SWAP1 PUSH4 0x5C1938BD PUSH1 0xE1 SHL DUP3 MSTORE DUP2 DUP1 PUSH2 0x7C8 PUSH1 0x20 SWAP6 DUP7 SWAP5 PUSH1 0x4 DUP5 ADD PUSH2 0x10DC JUMP JUMPDEST SUB DUP2 DUP10 GAS STATICCALL SWAP1 DUP2 ISZERO PUSH2 0x23F JUMPI DUP8 SWAP3 PUSH1 0x0 SWAP3 PUSH2 0x806 JUMPI JUMPDEST POP POP LT ISZERO PUSH2 0x7F2 JUMPI JUMPDEST PUSH1 0x1 ADD SWAP5 SWAP4 SWAP5 PUSH2 0x616 JUMP JUMPDEST SWAP1 PUSH2 0x7FE PUSH1 0x1 SWAP2 PUSH2 0x11DA JUMP JUMPDEST SWAP2 SWAP1 POP PUSH2 0x7E7 JUMP JUMPDEST DUP2 SWAP4 POP DUP1 SWAP3 POP RETURNDATASIZE DUP4 GT PUSH2 0x830 JUMPI JUMPDEST PUSH2 0x81E DUP2 DUP4 PUSH2 0xD5C JUMP JUMPDEST DUP2 ADD SUB SLT PUSH2 0xD0 JUMPI DUP6 SWAP1 MLOAD DUP10 DUP1 PUSH2 0x7DE JUMP JUMPDEST POP RETURNDATASIZE PUSH2 0x814 JUMP JUMPDEST CALLVALUE PUSH2 0xD0 JUMPI PUSH1 0x0 CALLDATASIZE PUSH1 0x3 NOT ADD SLT PUSH2 0xD0 JUMPI PUSH1 0x1 SLOAD PUSH1 0x40 MLOAD PUSH1 0x1 PUSH1 0x1 PUSH1 0xA0 SHL SUB SWAP1 SWAP2 AND DUP2 MSTORE PUSH1 0x20 SWAP1 RETURN JUMPDEST CALLVALUE PUSH2 0xD0 JUMPI PUSH1 0x20 CALLDATASIZE PUSH1 0x3 NOT ADD SLT PUSH2 0xD0 JUMPI PUSH8 0xFFFFFFFFFFFFFFFF PUSH1 0x4 CALLDATALOAD DUP2 DUP2 GT PUSH2 0xD0 JUMPI PUSH2 0x892 SWAP1 CALLDATASIZE SWAP1 PUSH1 0x4 ADD PUSH2 0xE19 JUMP JUMPDEST SWAP1 SWAP2 PUSH2 0x89D DUP3 PUSH2 0xFF5 JUMP JUMPDEST SWAP2 PUSH1 0x0 SWAP2 PUSH1 0x1 DUP1 PUSH1 0xA0 SHL SUB DUP1 PUSH1 0x0 SLOAD AND SWAP1 PUSH1 0x1 SLOAD AND SWAP4 JUMPDEST DUP4 DUP2 LT PUSH2 0x8C9 JUMPI PUSH1 0x40 MLOAD DUP1 PUSH2 0x11E DUP9 DUP3 PUSH2 0xE4A JUMP JUMPDEST DUP1 PUSH1 0x20 PUSH2 0x8DA PUSH2 0x8F6 SWAP4 DUP8 DUP12 PUSH2 0x1077 JUMP JUMPDEST PUSH1 0x40 MLOAD PUSH4 0x2A592CFF PUSH1 0xE0 SHL DUP2 MSTORE SWAP5 DUP6 SWAP3 DUP4 SWAP3 SWAP1 PUSH1 0x4 DUP5 ADD PUSH2 0x10DC JUMP JUMPDEST SUB DUP2 DUP7 GAS STATICCALL DUP1 ISZERO PUSH2 0x23F JUMPI PUSH1 0x0 SWAP1 PUSH2 0xB50 JUMPI JUMPDEST PUSH2 0x937 SWAP3 POP PUSH1 0x20 PUSH2 0x91B DUP4 DUP9 DUP13 PUSH2 0x1077 JUMP JUMPDEST PUSH1 0x40 MLOAD PUSH4 0x5C1938BD PUSH1 0xE1 SHL DUP2 MSTORE SWAP6 DUP7 SWAP3 DUP4 SWAP3 SWAP1 PUSH1 0x4 DUP5 ADD PUSH2 0x10DC JUMP JUMPDEST SUB DUP2 DUP8 GAS STATICCALL SWAP3 DUP4 ISZERO PUSH2 0x23F JUMPI PUSH1 0x0 SWAP4 PUSH2 0xB1C JUMPI JUMPDEST POP PUSH1 0x40 MLOAD PUSH4 0x4AF30F8D PUSH1 0xE0 SHL DUP2 MSTORE PUSH1 0x4 DUP2 ADD DUP5 SWAP1 MSTORE SWAP1 PUSH1 0x24 SWAP1 PUSH1 0x20 DUP4 DUP4 DUP2 DUP13 GAS STATICCALL SWAP3 DUP4 ISZERO PUSH2 0x23F JUMPI DUP9 SWAP2 DUP13 SWAP2 PUSH1 0x0 SWAP6 PUSH2 0xADC JUMPI JUMPDEST POP ISZERO PUSH2 0xA41 JUMPI PUSH2 0x997 SWAP3 POP DUP5 PUSH1 0x0 SWAP3 PUSH2 0x3C9 SWAP3 PUSH2 0x1077 JUMP JUMPDEST SUB DUP2 DUP9 GAS STATICCALL SWAP1 DUP2 ISZERO PUSH2 0x23F JUMPI DUP11 PUSH2 0x9CA SWAP4 PUSH1 0x1 SWAP7 PUSH1 0x0 SWAP1 DUP8 DUP13 PUSH1 0x0 SWAP6 PUSH1 0x0 SWAP8 PUSH1 0x0 SWAP10 PUSH2 0xA0F JUMPI JUMPDEST POP SWAP1 PUSH2 0x49C SWAP3 SWAP2 PUSH2 0x1077 JUMP JUMPDEST DUP8 MSTORE PUSH1 0x20 DUP8 ADD MSTORE PUSH1 0xFF DUP1 SWAP3 AND PUSH1 0x40 DUP8 ADD MSTORE AND PUSH1 0x60 DUP6 ADD MSTORE PUSH1 0x80 DUP5 ADD MSTORE PUSH1 0xA0 DUP4 ADD MSTORE ISZERO ISZERO PUSH1 0xC0 DUP3 ADD MSTORE PUSH2 0x9FC DUP3 DUP10 PUSH2 0x1104 JUMP JUMPDEST MSTORE PUSH2 0xA07 DUP2 DUP9 PUSH2 0x1104 JUMP JUMPDEST POP JUMPDEST ADD PUSH2 0x8B4 JUMP JUMPDEST SWAP2 SWAP5 POP SWAP8 POP PUSH2 0x49C SWAP7 POP PUSH2 0xA2F SWAP2 SWAP6 POP RETURNDATASIZE DUP1 PUSH1 0x0 DUP4 RETURNDATACOPY PUSH2 0x5A4 DUP2 DUP4 PUSH2 0xD5C JUMP JUMPDEST SWAP11 SWAP1 SWAP10 SWAP2 SWAP9 SWAP3 SWAP7 SWAP3 SWAP5 POP SWAP2 SWAP3 POP PUSH2 0x9BE JUMP JUMPDEST SWAP5 PUSH2 0xA55 DUP6 PUSH1 0xFF SWAP5 SWAP6 SWAP4 PUSH2 0xA64 SWAP8 SWAP9 PUSH2 0x1077 JUMP JUMPDEST SWAP6 SWAP1 PUSH1 0x40 MLOAD SWAP7 PUSH2 0x1BA DUP9 PUSH2 0xD0E JUMP JUMPDEST DUP6 MSTORE PUSH1 0x20 DUP6 ADD MSTORE AND PUSH1 0x40 DUP4 ADD MSTORE PUSH1 0x0 PUSH1 0x60 DUP4 ADD MSTORE PUSH1 0x0 PUSH1 0x80 DUP4 ADD MSTORE PUSH1 0x40 MLOAD SWAP1 PUSH1 0x20 DUP3 ADD SWAP1 DUP3 DUP3 LT DUP8 DUP4 GT OR PUSH2 0xAC8 JUMPI POP SWAP1 PUSH1 0x1 SWAP4 SWAP3 SWAP2 PUSH1 0x40 MSTORE PUSH1 0x0 DUP2 MSTORE PUSH1 0xA0 DUP3 ADD MSTORE PUSH1 0x0 PUSH1 0xC0 DUP3 ADD MSTORE PUSH2 0xAB7 DUP3 DUP10 PUSH2 0x1104 JUMP JUMPDEST MSTORE PUSH2 0xAC2 DUP2 DUP9 PUSH2 0x1104 JUMP JUMPDEST POP PUSH2 0xA09 JUMP JUMPDEST PUSH4 0x4E487B71 PUSH1 0xE0 SHL PUSH1 0x0 SWAP1 DUP2 MSTORE PUSH1 0x41 PUSH1 0x4 MSTORE REVERT JUMPDEST SWAP3 POP SWAP4 POP POP PUSH1 0x20 DUP2 RETURNDATASIZE PUSH1 0x20 GT PUSH2 0xB14 JUMPI JUMPDEST DUP2 PUSH2 0xAFA PUSH1 0x20 SWAP4 DUP4 PUSH2 0xD5C JUMP JUMPDEST DUP2 ADD SUB SLT PUSH2 0xD0 JUMPI DUP11 PUSH2 0xB0D DUP10 SWAP3 PUSH2 0xFCF JUMP JUMPDEST SWAP4 DUP14 PUSH2 0x97F JUMP JUMPDEST RETURNDATASIZE SWAP2 POP PUSH2 0xAED JUMP JUMPDEST SWAP1 SWAP3 POP PUSH1 0x20 DUP2 RETURNDATASIZE PUSH1 0x20 GT PUSH2 0xB48 JUMPI JUMPDEST DUP2 PUSH2 0xB38 PUSH1 0x20 SWAP4 DUP4 PUSH2 0xD5C JUMP JUMPDEST DUP2 ADD SUB SLT PUSH2 0xD0 JUMPI MLOAD SWAP2 DUP10 PUSH2 0x94B JUMP JUMPDEST RETURNDATASIZE SWAP2 POP PUSH2 0xB2B JUMP JUMPDEST POP PUSH1 0x20 DUP3 RETURNDATASIZE PUSH1 0x20 GT PUSH2 0xB83 JUMPI JUMPDEST DUP2 PUSH2 0xB6A PUSH1 0x20 SWAP4 DUP4 PUSH2 0xD5C JUMP JUMPDEST DUP2 ADD SUB SLT PUSH2 0xD0 JUMPI PUSH2 0xB7E PUSH2 0x937 SWAP3 PUSH2 0x10CF JUMP JUMPDEST PUSH2 0x909 JUMP JUMPDEST RETURNDATASIZE SWAP2 POP PUSH2 0xB5D JUMP JUMPDEST CALLVALUE PUSH2 0xD0 JUMPI PUSH1 0x40 CALLDATASIZE PUSH1 0x3 NOT ADD SLT PUSH2 0xD0 JUMPI PUSH1 0x4 CALLDATALOAD PUSH8 0xFFFFFFFFFFFFFFFF DUP2 GT PUSH2 0xD0 JUMPI CALLDATASIZE PUSH1 0x23 DUP3 ADD SLT ISZERO PUSH2 0xD0 JUMPI PUSH2 0xBCD SWAP1 CALLDATASIZE SWAP1 PUSH1 0x24 DUP2 PUSH1 0x4 ADD CALLDATALOAD SWAP2 ADD PUSH2 0xD9A JUMP JUMPDEST PUSH1 0x0 SLOAD PUSH1 0x40 MLOAD PUSH4 0x5C1938BD PUSH1 0xE1 SHL DUP2 MSTORE PUSH1 0x20 PUSH1 0x4 DUP3 ADD DUP2 SWAP1 MSTORE SWAP1 SWAP3 SWAP2 PUSH1 0x1 PUSH1 0x1 PUSH1 0xA0 SHL SUB SWAP1 DUP3 SWAP1 DUP6 SWAP1 DUP4 AND DUP2 DUP1 PUSH2 0xC07 PUSH1 0x24 DUP3 ADD DUP10 PUSH2 0xDF4 JUMP JUMPDEST SUB SWAP2 GAS STATICCALL SWAP4 DUP5 ISZERO PUSH2 0x23F JUMPI PUSH1 0x0 SWAP5 PUSH2 0xCBB JUMPI JUMPDEST POP SWAP3 DUP2 PUSH1 0x24 SWAP5 PUSH1 0x1 SLOAD AND PUSH1 0x40 MLOAD SWAP6 DUP7 DUP1 SWAP3 PUSH4 0x4AF30F8D PUSH1 0xE0 SHL DUP3 MSTORE DUP6 PUSH1 0x4 DUP4 ADD MSTORE GAS STATICCALL SWAP4 DUP5 ISZERO PUSH2 0x23F JUMPI PUSH1 0x0 SWAP5 PUSH2 0xC80 JUMPI JUMPDEST POP PUSH1 0xFF PUSH2 0xC68 SWAP5 DUP3 PUSH1 0x40 MLOAD SWAP7 DUP8 SWAP7 PUSH1 0x80 DUP9 MSTORE PUSH1 0x80 DUP9 ADD SWAP1 PUSH2 0xDF4 JUMP JUMPDEST SWAP5 DUP7 ADD MSTORE AND PUSH1 0x40 DUP5 ADD MSTORE PUSH1 0x24 CALLDATALOAD GT ISZERO PUSH1 0x60 DUP4 ADD MSTORE SUB SWAP1 RETURN JUMPDEST SWAP4 POP DUP2 DUP5 DUP2 RETURNDATASIZE DUP4 GT PUSH2 0xCB4 JUMPI JUMPDEST PUSH2 0xC97 DUP2 DUP4 PUSH2 0xD5C JUMP JUMPDEST DUP2 ADD SUB SLT PUSH2 0xD0 JUMPI PUSH1 0xFF PUSH2 0xCAD PUSH2 0xC68 SWAP6 PUSH2 0xFCF JUMP JUMPDEST SWAP5 POP PUSH2 0xC4C JUMP JUMPDEST POP RETURNDATASIZE PUSH2 0xC8D JUMP JUMPDEST SWAP4 POP DUP2 DUP5 DUP2 RETURNDATASIZE DUP4 GT PUSH2 0xCE3 JUMPI JUMPDEST PUSH2 0xCD2 DUP2 DUP4 PUSH2 0xD5C JUMP JUMPDEST DUP2 ADD SUB SLT PUSH2 0xD0 JUMPI SWAP3 MLOAD SWAP3 DUP2 PUSH2 0xC1A JUMP JUMPDEST POP RETURNDATASIZE PUSH2 0xCC8 JUMP JUMPDEST CALLVALUE PUSH2 0xD0 JUMPI PUSH1 0x0 CALLDATASIZE PUSH1 0x3 NOT ADD SLT PUSH2 0xD0 JUMPI PUSH1 0x0 SLOAD PUSH1 0x1 PUSH1 0x1 PUSH1 0xA0 SHL SUB AND DUP2 MSTORE PUSH1 0x20 SWAP1 RETURN JUMPDEST PUSH1 0xE0 DUP2 ADD SWAP1 DUP2 LT PUSH8 0xFFFFFFFFFFFFFFFF DUP3 GT OR PUSH2 0xD2A JUMPI PUSH1 0x40 MSTORE JUMP JUMPDEST PUSH4 0x4E487B71 PUSH1 0xE0 SHL PUSH1 0x0 MSTORE PUSH1 0x41 PUSH1 0x4 MSTORE PUSH1 0x24 PUSH1 0x0 REVERT JUMPDEST PUSH1 0x80 DUP2 ADD SWAP1 DUP2 LT PUSH8 0xFFFFFFFFFFFFFFFF DUP3 GT OR PUSH2 0xD2A JUMPI PUSH1 0x40 MSTORE JUMP JUMPDEST SWAP1 PUSH1 0x1F DUP1 NOT SWAP2 ADD AND DUP2 ADD SWAP1 DUP2 LT PUSH8 0xFFFFFFFFFFFFFFFF DUP3 GT OR PUSH2 0xD2A JUMPI PUSH1 0x40 MSTORE JUMP JUMPDEST PUSH8 0xFFFFFFFFFFFFFFFF DUP2 GT PUSH2 0xD2A JUMPI PUSH1 0x1F ADD PUSH1 0x1F NOT AND PUSH1 0x20 ADD SWAP1 JUMP JUMPDEST SWAP3 SWAP2 SWAP3 PUSH2 0xDA6 DUP3 PUSH2 0xD7E JUMP JUMPDEST SWAP2 PUSH2 0xDB4 PUSH1 0x40 MLOAD SWAP4 DUP5 PUSH2 0xD5C JUMP JUMPDEST DUP3 SWAP5 DUP2 DUP5 MSTORE DUP2 DUP4 ADD GT PUSH2 0xD0 JUMPI DUP3 DUP2 PUSH1 0x20 SWAP4 DUP5 PUSH1 0x0 SWAP7 ADD CALLDATACOPY ADD ADD MSTORE JUMP JUMPDEST PUSH1 0x0 JUMPDEST DUP4 DUP2 LT PUSH2 0xDE4 JUMPI POP POP PUSH1 0x0 SWAP2 ADD MSTORE JUMP JUMPDEST DUP2 DUP2 ADD MLOAD DUP4 DUP3 ADD MSTORE PUSH1 0x20 ADD PUSH2 0xDD4 JUMP JUMPDEST SWAP1 PUSH1 0x20 SWAP2 PUSH2 0xE0D DUP2 MLOAD DUP1 SWAP3 DUP2 DUP6 MSTORE DUP6 DUP1 DUP7 ADD SWAP2 ADD PUSH2 0xDD1 JUMP JUMPDEST PUSH1 0x1F ADD PUSH1 0x1F NOT AND ADD ADD SWAP1 JUMP JUMPDEST SWAP2 DUP2 PUSH1 0x1F DUP5 ADD SLT ISZERO PUSH2 0xD0 JUMPI DUP3 CALLDATALOAD SWAP2 PUSH8 0xFFFFFFFFFFFFFFFF DUP4 GT PUSH2 0xD0 JUMPI PUSH1 0x20 DUP1 DUP6 ADD SWAP5 DUP5 PUSH1 0x5 SHL ADD ADD GT PUSH2 0xD0 JUMPI JUMP JUMPDEST PUSH1 0x20 DUP1 DUP3 ADD SWAP1 DUP1 DUP4 MSTORE DUP4 MLOAD DUP1 SWAP3 MSTORE PUSH1 0x40 SWAP3 PUSH1 0x40 DUP2 ADD DUP3 PUSH1 0x40 DUP6 PUSH1 0x5 SHL DUP5 ADD ADD SWAP7 ADD SWAP5 PUSH1 0x0 SWAP3 JUMPDEST DUP6 DUP5 LT PUSH2 0xE81 JUMPI POP POP POP POP POP POP POP SWAP1 JUMP JUMPDEST SWAP1 SWAP2 SWAP3 SWAP4 SWAP5 SWAP6 SWAP7 DUP6 DUP1 PUSH1 0x1 SWAP3 PUSH1 0x3F NOT DUP6 DUP3 SUB ADD DUP8 MSTORE DUP11 MLOAD SWAP1 PUSH2 0xEED PUSH2 0xEAF PUSH1 0xE0 DUP5 MLOAD SWAP1 DUP1 DUP6 MSTORE DUP5 ADD SWAP1 PUSH2 0xDF4 JUMP JUMPDEST DUP5 DUP5 ADD MLOAD DUP6 DUP5 ADD MSTORE DUP9 DUP5 ADD MLOAD PUSH1 0xFF DUP1 SWAP2 AND DUP11 DUP6 ADD MSTORE PUSH1 0x60 SWAP1 DUP2 DUP7 ADD MLOAD AND SWAP1 DUP5 ADD MSTORE PUSH1 0x80 DUP1 DUP6 ADD MLOAD SWAP1 DUP5 ADD MSTORE PUSH1 0xA0 DUP1 DUP6 ADD MLOAD SWAP1 DUP5 DUP4 SUB SWAP1 DUP6 ADD MSTORE PUSH2 0xDF4 JUMP JUMPDEST SWAP2 PUSH1 0xC0 DUP1 SWAP2 ADD MLOAD ISZERO ISZERO SWAP2 ADD MSTORE SWAP10 ADD SWAP5 ADD SWAP5 ADD SWAP3 SWAP6 SWAP5 SWAP4 SWAP2 SWAP1 PUSH2 0xE70 JUMP JUMPDEST PUSH1 0x40 PUSH1 0x3 NOT DUP3 ADD SLT PUSH2 0xD0 JUMPI PUSH1 0x4 CALLDATALOAD SWAP1 PUSH8 0xFFFFFFFFFFFFFFFF DUP3 GT PUSH2 0xD0 JUMPI PUSH2 0xF35 SWAP2 PUSH1 0x4 ADD PUSH2 0xE19 JUMP JUMPDEST SWAP1 SWAP2 PUSH1 0x24 CALLDATALOAD SWAP1 JUMP JUMPDEST PUSH1 0x20 DUP1 DUP3 ADD SWAP1 DUP1 DUP4 MSTORE DUP4 MLOAD DUP1 SWAP3 MSTORE PUSH1 0x40 SWAP3 PUSH1 0x40 DUP2 ADD DUP3 PUSH1 0x40 DUP6 PUSH1 0x5 SHL DUP5 ADD ADD SWAP7 ADD SWAP5 PUSH1 0x0 SWAP3 JUMPDEST DUP6 DUP5 LT PUSH2 0xF74 JUMPI POP POP POP POP POP POP POP SWAP1 JUMP JUMPDEST SWAP1 SWAP2 SWAP3 SWAP4 SWAP5 SWAP6 SWAP7 DUP6 DUP1 PUSH1 0x1 SWAP3 PUSH1 0x3F NOT DUP6 DUP3 SUB ADD DUP8 MSTORE DUP11 MLOAD SWAP1 PUSH2 0xF9F PUSH1 0x80 DUP4 MLOAD SWAP1 DUP1 DUP5 MSTORE DUP4 ADD SWAP1 PUSH2 0xDF4 JUMP JUMPDEST SWAP2 DUP4 DUP2 ADD MLOAD DUP5 DUP4 ADD MSTORE PUSH1 0xFF DUP9 DUP3 ADD MLOAD AND DUP9 DUP4 ADD MSTORE PUSH1 0x60 DUP1 SWAP2 ADD MLOAD ISZERO ISZERO SWAP2 ADD MSTORE SWAP10 ADD SWAP5 ADD SWAP5 ADD SWAP3 SWAP6 SWAP5 SWAP4 SWAP2 SWAP1 PUSH2 0xF63 JUMP JUMPDEST MLOAD SWAP1 PUSH1 0xFF DUP3 AND DUP3 SUB PUSH2 0xD0 JUMPI JUMP JUMPDEST PUSH8 0xFFFFFFFFFFFFFFFF DUP2 GT PUSH2 0xD2A JUMPI PUSH1 0x5 SHL PUSH1 0x20 ADD SWAP1 JUMP JUMPDEST SWAP1 PUSH2 0xFFF DUP3 PUSH2 0xFDD JUMP JUMPDEST PUSH1 0x40 SWAP1 PUSH2 0x100F PUSH1 0x40 MLOAD SWAP2 DUP3 PUSH2 0xD5C JUMP JUMPDEST DUP4 DUP2 MSTORE DUP1 SWAP4 PUSH2 0x1020 PUSH1 0x1F NOT SWAP2 PUSH2 0xFDD JUMP JUMPDEST ADD SWAP2 PUSH1 0x0 JUMPDEST DUP4 DUP2 LT PUSH2 0x1032 JUMPI POP POP POP POP JUMP JUMPDEST PUSH1 0x20 SWAP1 DUP3 MLOAD PUSH2 0x1040 DUP2 PUSH2 0xD0E JUMP JUMPDEST PUSH1 0x60 DUP1 DUP3 MSTORE DUP4 SWAP1 PUSH1 0x0 DUP3 DUP5 ADD MSTORE PUSH1 0x0 DUP7 DUP5 ADD MSTORE PUSH1 0x0 DUP2 DUP5 ADD MSTORE PUSH1 0x0 PUSH1 0x80 DUP5 ADD MSTORE PUSH1 0xA0 DUP4 ADD MSTORE PUSH1 0x0 PUSH1 0xC0 DUP4 ADD MSTORE DUP3 DUP7 ADD ADD MSTORE ADD PUSH2 0x1025 JUMP JUMPDEST SWAP2 SWAP1 DUP2 LT ISZERO PUSH2 0x10B9 JUMPI PUSH1 0x5 SHL DUP2 ADD CALLDATALOAD SWAP1 PUSH1 0x1E NOT DUP2 CALLDATASIZE SUB ADD DUP3 SLT ISZERO PUSH2 0xD0 JUMPI ADD SWAP1 DUP2 CALLDATALOAD SWAP2 PUSH8 0xFFFFFFFFFFFFFFFF DUP4 GT PUSH2 0xD0 JUMPI PUSH1 0x20 ADD DUP3 CALLDATASIZE SUB DUP2 SGT PUSH2 0xD0 JUMPI SWAP2 SWAP1 JUMP JUMPDEST PUSH4 0x4E487B71 PUSH1 0xE0 SHL PUSH1 0x0 MSTORE PUSH1 0x32 PUSH1 0x4 MSTORE PUSH1 0x24 PUSH1 0x0 REVERT JUMPDEST MLOAD SWAP1 DUP2 ISZERO ISZERO DUP3 SUB PUSH2 0xD0 JUMPI JUMP JUMPDEST SWAP1 SWAP2 DUP1 PUSH1 0x40 SWAP4 PUSH1 0x20 DUP5 MSTORE DUP2 PUSH1 0x20 DUP6 ADD MSTORE DUP5 DUP5 ADD CALLDATACOPY PUSH1 0x0 DUP3 DUP3 ADD DUP5 ADD MSTORE PUSH1 0x1F ADD PUSH1 0x1F NOT AND ADD ADD SWAP1 JUMP JUMPDEST DUP1 MLOAD DUP3 LT ISZERO PUSH2 0x10B9 JUMPI PUSH1 0x20 SWAP2 PUSH1 0x5 SHL ADD ADD SWAP1 JUMP JUMPDEST DUP2 PUSH1 0x1F DUP3 ADD SLT ISZERO PUSH2 0xD0 JUMPI DUP1 MLOAD PUSH2 0x112E DUP2 PUSH2 0xD7E JUMP JUMPDEST SWAP3 PUSH2 0x113C PUSH1 0x40 MLOAD SWAP5 DUP6 PUSH2 0xD5C JUMP JUMPDEST DUP2 DUP5 MSTORE PUSH1 0x20 DUP3 DUP5 ADD ADD GT PUSH2 0xD0 JUMPI PUSH2 0x115A SWAP2 PUSH1 0x20 DUP1 DUP6 ADD SWAP2 ADD PUSH2 0xDD1 JUMP JUMPDEST SWAP1 JUMP JUMPDEST SWAP2 SWAP1 PUSH1 0xC0 DUP4 DUP3 SUB SLT PUSH2 0xD0 JUMPI DUP3 MLOAD SWAP1 PUSH8 0xFFFFFFFFFFFFFFFF SWAP2 DUP3 DUP2 GT PUSH2 0xD0 JUMPI DUP2 PUSH2 0x1189 SWAP2 DUP7 ADD PUSH2 0x1118 JUMP JUMPDEST SWAP4 PUSH1 0x20 DUP2 ADD MLOAD DUP4 DUP2 GT PUSH2 0xD0 JUMPI DUP3 PUSH2 0x11A2 SWAP2 DUP4 ADD PUSH2 0x1118 JUMP JUMPDEST SWAP4 PUSH2 0x11AF PUSH1 0x40 DUP4 ADD PUSH2 0xFCF JUMP JUMPDEST SWAP4 PUSH1 0x60 DUP4 ADD MLOAD SWAP4 PUSH1 0x80 DUP5 ADD MLOAD SWAP2 DUP3 GT PUSH2 0xD0 JUMPI PUSH2 0x11D3 PUSH1 0xA0 SWAP2 PUSH2 0x115A SWAP4 DUP7 ADD PUSH2 0x1118 JUMP JUMPDEST SWAP4 ADD PUSH2 0x10CF JUMP JUMPDEST PUSH1 0x0 NOT DUP2 EQ PUSH2 0x11E9 JUMPI PUSH1 0x1 ADD SWAP1 JUMP JUMPDEST PUSH4 0x4E487B71 PUSH1 0xE0 SHL PUSH1 0x0 MSTORE PUSH1 0x11 PUSH1 0x4 MSTORE PUSH1 0x24 PUSH1 0x0 REVERT JUMPDEST SWAP1 PUSH2 0x1209 DUP3 PUSH2 0xFDD JUMP JUMPDEST PUSH1 0x40 SWAP1 PUSH2 0x1219 PUSH1 0x40 MLOAD SWAP2 DUP3 PUSH2 0xD5C JUMP JUMPDEST DUP4 DUP2 MSTORE DUP1 SWAP4 PUSH2 0x122A PUSH1 0x1F NOT SWAP2 PUSH2 0xFDD JUMP JUMPDEST ADD SWAP2 PUSH1 0x0 SWAP2 PUSH1 0x0 JUMPDEST DUP5 DUP2 LT PUSH2 0x1240 JUMPI POP POP POP POP POP JUMP JUMPDEST PUSH1 0x20 SWAP1 DUP4 MLOAD PUSH2 0x124E DUP2 PUSH2 0xD40 JUMP JUMPDEST PUSH1 0x60 DUP1 DUP3 MSTORE DUP7 DUP5 SWAP2 DUP2 DUP4 DUP6 ADD MSTORE DUP2 DUP9 DUP6 ADD MSTORE DUP4 ADD MSTORE DUP3 DUP6 ADD ADD MSTORE ADD PUSH2 0x1232 JUMP JUMPDEST ISZERO PUSH2 0x1275 JUMPI JUMP JUMPDEST PUSH1 0x40 MLOAD PUSH3 0x461BCD PUSH1 0xE5 SHL DUP2 MSTORE PUSH1 0x20 PUSH1 0x4 DUP3 ADD MSTORE PUSH1 0xF PUSH1 0x24 DUP3 ADD MSTORE PUSH15 0x496E76616C69642061646472657373 PUSH1 0x88 SHL PUSH1 0x44 DUP3 ADD MSTORE PUSH1 0x64 SWAP1 REVERT INVALID LOG1 PUSH5 0x736F6C6343 STOP ADDMOD XOR STOP EXP "},"methodIdentifiers":{"calculatorContract()":"5b1c8c3a","checkMultipleIPs(string[],uint256)":"ef94e3a8","checkMultipleIPsFiltered(string[],uint256)":"62b4e821","checkSingleIP(string,uint256)":"19a36ea6","getAllThreatInfo(string[])":"3ad218d9","getThreatIPs(string[])":"79563271","storageContract()":"11ce0267","updateCalculatorContract(address)":"f9a0abf6","updateStorageContract(address)":"8fb6d997"}}}}}