{"contracts/ThreatIntelligenceCoordination.sol":{"ThreatIntelligenceCoordination":{"abi":[{"inputs":[],"stateMutability":"nonpayable","type":"constructor"},{"anonymous":false,"inputs":[{"indexed":true,"internalType":"string","name":"ip","type":"string"},{"indexed":false,"internalType":"enum ThreatIntelligenceCoordination.ThreatLevel","name":"level","type":"uint8"},{"indexed":false,"internalType":"string","name":"threatType","type":"string"},{"indexed":false,"internalType":"uint256","name":"timestamp","type":"uint256"}],"name":"ThreatIntelAdded","type":"event"},{"anonymous":false,"inputs":[{"indexed":true,"internalType":"string","name":"ip","type":"string"},{"indexed":false,"internalType":"uint256","name":"timestamp","type":"uint256"}],"name":"ThreatIntelRemoved","type":"event"},{"anonymous":false,"inputs":[{"indexed":true,"internalType":"string","name":"ip","type":"string"},{"indexed":false,"internalType":"uint256","name":"score","type":"uint256"},{"indexed":false,"internalType":"uint256","name":"timestamp","type":"uint256"}],"name":"ThreatScoreUpdated","type":"event"},{"inputs":[{"internalType":"string","name":"_ip","type":"string"},{"internalType":"enum ThreatIntelligenceCoordination.ThreatLevel","name":"_threatLevel","type":"uint8"},{"internalType":"string","name":"_threatType","type":"string"}],"name":"addThreatIntel","outputs":[],"stateMutability":"nonpayable","type":"function"},{"inputs":[{"internalType":"string[]","name":"_ips","type":"string[]"},{"internalType":"uint256[]","name":"_scores","type":"uint256[]"}],"name":"batchUpdateThreatScores","outputs":[],"stateMutability":"nonpayable","type":"function"},{"inputs":[{"internalType":"string","name":"_ip","type":"string"}],"name":"getThreatIntel","outputs":[{"internalType":"string","name":"sourceIP","type":"string"},{"internalType":"string","name":"targetIP","type":"string"},{"internalType":"enum ThreatIntelligenceCoordination.ThreatLevel","name":"threatLevel","type":"uint8"},{"internalType":"uint256","name":"timestamp","type":"uint256"},{"internalType":"string","name":"threatType","type":"string"},{"internalType":"bool","name":"isActive","type":"bool"}],"stateMutability":"view","type":"function"},{"inputs":[{"internalType":"string","name":"_ip","type":"string"}],"name":"getThreatScore","outputs":[{"internalType":"uint256","name":"","type":"uint256"}],"stateMutability":"view","type":"function"},{"inputs":[{"internalType":"string[]","name":"_ips","type":"string[]"}],"name":"getThreatScores","outputs":[{"internalType":"uint256[]","name":"","type":"uint256[]"}],"stateMutability":"view","type":"function"},{"inputs":[{"internalType":"string","name":"","type":"string"}],"name":"isThreatIP","outputs":[{"internalType":"bool","name":"","type":"bool"}],"stateMutability":"view","type":"function"},{"inputs":[{"internalType":"string","name":"_ip","type":"string"}],"name":"isThreatSource","outputs":[{"internalType":"bool","name":"","type":"bool"}],"stateMutability":"view","type":"function"},{"inputs":[{"internalType":"string","name":"_ip","type":"string"}],"name":"removeThreatIntel","outputs":[],"stateMutability":"nonpayable","type":"function"},{"inputs":[{"internalType":"string","name":"","type":"string"}],"name":"threatIntels","outputs":[{"internalType":"string","name":"sourceIP","type":"string"},{"internalType":"string","name":"targetIP","type":"string"},{"internalType":"enum ThreatIntelligenceCoordination.ThreatLevel","name":"threatLevel","type":"uint8"},{"internalType":"uint256","name":"timestamp","type":"uint256"},{"internalType":"string","name":"threatType","type":"string"},{"internalType":"bool","name":"isActive","type":"bool"}],"stateMutability":"view","type":"function"},{"inputs":[{"internalType":"string","name":"","type":"string"}],"name":"threatScores","outputs":[{"internalType":"uint256","name":"","type":"uint256"}],"stateMutability":"view","type":"function"},{"inputs":[{"internalType":"string","name":"_ip","type":"string"},{"internalType":"uint256","name":"_score","type":"uint256"}],"name":"updateThreatScore","outputs":[],"stateMutability":"nonpayable","type":"function"}],"evm":{"bytecode":{"linkReferences":{},"object":"6080806040523461001657610fd2908161001c8239f35b600080fdfe6080604052600436101561001257600080fd5b60003560e01c8063149cdd9914610bcd5780632a592cff14610b325780632ec920c914610ae4578063387d1325146109665780633da195cc146101535780634ee14a8d1461088c57806387e7ff95146107f25780639d55cb2914610714578063b64a71e3146101af578063b832717a146101535763bd1cbfd51461009557600080fd5b3461014e57602036600319011261014e576004356001600160401b03811161014e576100c8610122913690600401610c90565b60405161010d602060058451938281818801966100e681838a610ce6565b81016000815203019020019260ff1993848154169055604051809381928751928391610ce6565b81016001815203019020908154169055610f58565b7f0d06e35fac876e69e0d720d375f7b4d852cee07e4e59c9170cad871f37bf81c96020604051428152a2005b600080fd5b3461014e57602036600319011261014e576004356001600160401b03811161014e5761019c602061018981933690600401610c90565b8160405193828580945193849201610ce6565b8101600281520301902054604051908152f35b3461014e57606036600319011261014e576004356001600160401b03811161014e576101df903690600401610c90565b6004602435101561014e576044356001600160401b03811161014e57610209903690600401610c90565b9061021681511515610f78565b60405161022281610c54565b818152604051602081018181106001600160401b038211176105515760405260008152602082015261025960243560408301610fb9565b426060820152826080820152600160a082015260405160208184516102818183858901610ce6565b8101600081520301902081518051906001600160401b0382116105515781906102aa8454610d2f565b601f81116106c4575b50602090601f83116001146106585760009261064d575b50508160011b916000199060031b1c19161781555b60208201518051906001600160401b0382116105515781906103046001850154610d2f565b601f81116105fa575b50602090601f83116001146105885760009261057d575b50508160011b916000199060031b1c19161760018201555b60028101604083015160048110156105675760ff801983541691161790556060820151600382015560808201518051906001600160401b038211610551576103876004840154610d2f565b601f811161050a575b50602090601f831160011461046c57600561043294847f87bdc31b1bcec98e3bcc912354b27eb9f24fb60e3c33a4995a4dc319640a452b9895610456989560a095600092610461575b50508160011b916000199060031b1c19161760048201555b01910151151560ff8019835416911617905560405160208183516104188183858801610ce6565b81016001815203019020600160ff19825416179055610f58565b9260405191829161044583602435610e33565b606060208401526060830190610e0e565b4260408301520390a2005b015190508b806103d9565b906004840160005260206000209160005b601f19851681106104f2575061043294600185610456989560a0956005957f87bdc31b1bcec98e3bcc912354b27eb9f24fb60e3c33a4995a4dc319640a452b9c99601f198116106104d9575b505050811b0160048201556103f1565b015160001960f88460031b161c191690558b80806104c9565b9192602060018192868501518155019401920161047d565b600484016000526020600020601f840160051c81016020851061054a575b601f830160051c8201811061053e575050610390565b60008155600101610528565b5080610528565b634e487b7160e01b600052604160045260246000fd5b634e487b7160e01b600052602160045260246000fd5b015190508680610324565b9250600184016000526020600020906000935b601f19841685106105df576001945083601f198116106105c6575b505050811b01600182015561033c565b015160001960f88460031b161c191690558680806105b6565b8181015183556020948501946001909301929091019061059b565b909150600184016000526020600020601f840160051c810160208510610646575b90849392915b601f830160051c8201811061063757505061030d565b60008155859450600101610621565b508061061b565b0151905086806102ca565b9250836000526020600020906000935b601f19841685106106a9576001945083601f19811610610690575b505050811b0181556102df565b015160001960f88460031b161c19169055868080610683565b81810151835560209485019460019093019290910190610668565b909150836000526020600020601f840160051c81016020851061070d575b90849392915b601f830160051c820181106106fe5750506102b3565b600081558594506001016106e8565b50806106e2565b3461014e57602036600319011261014e576004356001600160401b03811161014e576020610189610749923690600401610c90565b8101600081520301902060405161075f81610c54565b61076882610d69565b815261077660018301610d69565b906020810191825260ff60028401541692610795604083019485610fb9565b6003810154916060810192835260ff60056107b260048501610d69565b93608084019485520154169060a0810191151582525193519451916004831015610567576107ee93519051915115159260405196879687610e40565b0390f35b3461014e57604036600319011261014e576004356001600160401b03811161014e57610822903690600401610c90565b7f40c5eea1c520c4788adb7b4a4afe6fe8154919b4256274796cca5f0509af8417604061087d6024359361085881511515610f78565b848351602081845161086d8183858901610ce6565b8101600281520301902055610f58565b928151908152426020820152a2005b3461014e5760208060031936011261014e576004356001600160401b03811161014e576108bd903690600401610eaf565b9081516108e26108cc82610e98565b916108da6040519384610c6f565b808352610e98565b8183019290601f190136843760005b8451811015610922578061091061090a60019388610f2e565b51610d09565b5461091b8286610f2e565b52016108f1565b50925090604051928392818401908285525180915260408401929160005b82811061094f57505050500390f35b835185528695509381019392810192600101610940565b3461014e57604036600319011261014e576001600160401b0360043581811161014e57610997903690600401610eaf565b9060243590811161014e573660238201121561014e5780600401356109bb81610e98565b916109c96040519384610c6f565b8183526020916024602085019160051b8301019136831161014e576024849101915b838310610ad457505050508251825103610a7d5760005b8351811015610a7b5780610a1860019285610f2e565b51610a2661090a8388610f2e565b55610a318186610f2e565b517f40c5eea1c520c4788adb7b4a4afe6fe8154919b4256274796cca5f0509af84176040610a69610a628589610f2e565b5193610f58565b9281519081524287820152a201610a02565b005b60405162461bcd60e51b815260206004820152602960248201527f495020616e642073636f726520617272617973206d75737420686176652073616044820152680daca40d8cadccee8d60bb1b6064820152608490fd5b82358152918101918491016109eb565b3461014e57602036600319011261014e576004356001600160401b03811161014e5760ff610b1c602061018981943690600401610c90565b8101600181520301902054166040519015158152f35b3461014e57602036600319011261014e576004356001600160401b03811161014e57610b646020913690600401610c90565b60405160ff825191848181860194610b7d818388610ce6565b8101600181520301902054169182610b9c575b50506040519015158152f35b60ff925083600592610bb992604051938492839251928391610ce6565b810160008152030190200154168280610b90565b3461014e57602036600319011261014e576004356001600160401b03811161014e576020610189610c02923690600401610c90565b81016000815203019020610c1581610d69565b6107ee610c2460018401610d69565b9260ff60028201541690600381015460ff6005610c4360048501610d69565b930154169260405196879687610e40565b60c081019081106001600160401b0382111761055157604052565b90601f801991011681019081106001600160401b0382111761055157604052565b81601f8201121561014e578035906001600160401b0382116105515760405192610cc4601f8401601f191660200185610c6f565b8284526020838301011161014e57816000926020809301838601378301015290565b60005b838110610cf95750506000910152565b8181015183820152602001610ce9565b6020610d22918160405193828580945193849201610ce6565b8101600281520301902090565b90600182811c92168015610d5f575b6020831014610d4957565b634e487b7160e01b600052602260045260246000fd5b91607f1691610d3e565b90604051918260008254610d7c81610d2f565b90818452602094600191600181169081600014610dec5750600114610dad575b505050610dab92500383610c6f565b565b600090815285812095935091905b818310610dd4575050610dab9350820101388080610d9c565b85548884018501529485019487945091830191610dbb565b92505050610dab94925060ff191682840152151560051b820101388080610d9c565b90602091610e2781518092818552858086019101610ce6565b601f01601f1916010190565b9060048210156105675752565b949093610e7e610e73610e909594610e6560a0989b9a9b60c08b5260c08b0190610e0e565b9089820360208b0152610e0e565b936040880190610e33565b60608601528482036080860152610e0e565b931515910152565b6001600160401b0381116105515760051b60200190565b81601f8201121561014e57803591602091610ec984610e98565b93610ed76040519586610c6f565b808552838086019160051b8301019280841161014e57848301915b848310610f025750505050505090565b82356001600160401b03811161014e578691610f2384848094890101610c90565b815201920191610ef2565b8051821015610f425760209160051b010190565b634e487b7160e01b600052603260045260246000fd5b610f7090602060405192828480945193849201610ce6565b810103902090565b15610f7f57565b60405162461bcd60e51b815260206004820152601260248201527149502063616e6e6f7420626520656d70747960701b6044820152606490fd5b6004821015610567575256fea164736f6c6343000818000a","opcodes":"PUSH1 0x80 DUP1 PUSH1 0x40 MSTORE CALLVALUE PUSH2 0x16 JUMPI PUSH2 0xFD2 SWAP1 DUP2 PUSH2 0x1C DUP3 CODECOPY RETURN JUMPDEST PUSH1 0x0 DUP1 REVERT INVALID PUSH1 0x80 PUSH1 0x40 MSTORE PUSH1 0x4 CALLDATASIZE LT ISZERO PUSH2 0x12 JUMPI PUSH1 0x0 DUP1 REVERT JUMPDEST PUSH1 0x0 CALLDATALOAD PUSH1 0xE0 SHR DUP1 PUSH4 0x149CDD99 EQ PUSH2 0xBCD JUMPI DUP1 PUSH4 0x2A592CFF EQ PUSH2 0xB32 JUMPI DUP1 PUSH4 0x2EC920C9 EQ PUSH2 0xAE4 JUMPI DUP1 PUSH4 0x387D1325 EQ PUSH2 0x966 JUMPI DUP1 PUSH4 0x3DA195CC EQ PUSH2 0x153 JUMPI DUP1 PUSH4 0x4EE14A8D EQ PUSH2 0x88C JUMPI DUP1 PUSH4 0x87E7FF95 EQ PUSH2 0x7F2 JUMPI DUP1 PUSH4 0x9D55CB29 EQ PUSH2 0x714 JUMPI DUP1 PUSH4 0xB64A71E3 EQ PUSH2 0x1AF JUMPI DUP1 PUSH4 0xB832717A EQ PUSH2 0x153 JUMPI PUSH4 0xBD1CBFD5 EQ PUSH2 0x95 JUMPI PUSH1 0x0 DUP1 REVERT JUMPDEST CALLVALUE PUSH2 0x14E JUMPI PUSH1 0x20 CALLDATASIZE PUSH1 0x3 NOT ADD SLT PUSH2 0x14E JUMPI PUSH1 0x4 CALLDATALOAD PUSH1 0x1 PUSH1 0x1 PUSH1 0x40 SHL SUB DUP2 GT PUSH2 0x14E JUMPI PUSH2 0xC8 PUSH2 0x122 SWAP2 CALLDATASIZE SWAP1 PUSH1 0x4 ADD PUSH2 0xC90 JUMP JUMPDEST PUSH1 0x40 MLOAD PUSH2 0x10D PUSH1 0x20 PUSH1 0x5 DUP5 MLOAD SWAP4 DUP3 DUP2 DUP2 DUP9 ADD SWAP7 PUSH2 0xE6 DUP2 DUP4 DUP11 PUSH2 0xCE6 JUMP JUMPDEST DUP2 ADD PUSH1 0x0 DUP2 MSTORE SUB ADD SWAP1 KECCAK256 ADD SWAP3 PUSH1 0xFF NOT SWAP4 DUP5 DUP2 SLOAD AND SWAP1 SSTORE PUSH1 0x40 MLOAD DUP1 SWAP4 DUP2 SWAP3 DUP8 MLOAD SWAP3 DUP4 SWAP2 PUSH2 0xCE6 JUMP JUMPDEST DUP2 ADD PUSH1 0x1 DUP2 MSTORE SUB ADD SWAP1 KECCAK256 SWAP1 DUP2 SLOAD AND SWAP1 SSTORE PUSH2 0xF58 JUMP JUMPDEST PUSH32 0xD06E35FAC876E69E0D720D375F7B4D852CEE07E4E59C9170CAD871F37BF81C9 PUSH1 0x20 PUSH1 0x40 MLOAD TIMESTAMP DUP2 MSTORE LOG2 STOP JUMPDEST PUSH1 0x0 DUP1 REVERT JUMPDEST CALLVALUE PUSH2 0x14E JUMPI PUSH1 0x20 CALLDATASIZE PUSH1 0x3 NOT ADD SLT PUSH2 0x14E JUMPI PUSH1 0x4 CALLDATALOAD PUSH1 0x1 PUSH1 0x1 PUSH1 0x40 SHL SUB DUP2 GT PUSH2 0x14E JUMPI PUSH2 0x19C PUSH1 0x20 PUSH2 0x189 DUP2 SWAP4 CALLDATASIZE SWAP1 PUSH1 0x4 ADD PUSH2 0xC90 JUMP JUMPDEST DUP2 PUSH1 0x40 MLOAD SWAP4 DUP3 DUP6 DUP1 SWAP5 MLOAD SWAP4 DUP5 SWAP3 ADD PUSH2 0xCE6 JUMP JUMPDEST DUP2 ADD PUSH1 0x2 DUP2 MSTORE SUB ADD SWAP1 KECCAK256 SLOAD PUSH1 0x40 MLOAD SWAP1 DUP2 MSTORE RETURN JUMPDEST CALLVALUE PUSH2 0x14E JUMPI PUSH1 0x60 CALLDATASIZE PUSH1 0x3 NOT ADD SLT PUSH2 0x14E JUMPI PUSH1 0x4 CALLDATALOAD PUSH1 0x1 PUSH1 0x1 PUSH1 0x40 SHL SUB DUP2 GT PUSH2 0x14E JUMPI PUSH2 0x1DF SWAP1 CALLDATASIZE SWAP1 PUSH1 0x4 ADD PUSH2 0xC90 JUMP JUMPDEST PUSH1 0x4 PUSH1 0x24 CALLDATALOAD LT ISZERO PUSH2 0x14E JUMPI PUSH1 0x44 CALLDATALOAD PUSH1 0x1 PUSH1 0x1 PUSH1 0x40 SHL SUB DUP2 GT PUSH2 0x14E JUMPI PUSH2 0x209 SWAP1 CALLDATASIZE SWAP1 PUSH1 0x4 ADD PUSH2 0xC90 JUMP JUMPDEST SWAP1 PUSH2 0x216 DUP2 MLOAD ISZERO ISZERO PUSH2 0xF78 JUMP JUMPDEST PUSH1 0x40 MLOAD PUSH2 0x222 DUP2 PUSH2 0xC54 JUMP JUMPDEST DUP2 DUP2 MSTORE PUSH1 0x40 MLOAD PUSH1 0x20 DUP2 ADD DUP2 DUP2 LT PUSH1 0x1 PUSH1 0x1 PUSH1 0x40 SHL SUB DUP3 GT OR PUSH2 0x551 JUMPI PUSH1 0x40 MSTORE PUSH1 0x0 DUP2 MSTORE PUSH1 0x20 DUP3 ADD MSTORE PUSH2 0x259 PUSH1 0x24 CALLDATALOAD PUSH1 0x40 DUP4 ADD PUSH2 0xFB9 JUMP JUMPDEST TIMESTAMP PUSH1 0x60 DUP3 ADD MSTORE DUP3 PUSH1 0x80 DUP3 ADD MSTORE PUSH1 0x1 PUSH1 0xA0 DUP3 ADD MSTORE PUSH1 0x40 MLOAD PUSH1 0x20 DUP2 DUP5 MLOAD PUSH2 0x281 DUP2 DUP4 DUP6 DUP10 ADD PUSH2 0xCE6 JUMP JUMPDEST DUP2 ADD PUSH1 0x0 DUP2 MSTORE SUB ADD SWAP1 KECCAK256 DUP2 MLOAD DUP1 MLOAD SWAP1 PUSH1 0x1 PUSH1 0x1 PUSH1 0x40 SHL SUB DUP3 GT PUSH2 0x551 JUMPI DUP2 SWAP1 PUSH2 0x2AA DUP5 SLOAD PUSH2 0xD2F JUMP JUMPDEST PUSH1 0x1F DUP2 GT PUSH2 0x6C4 JUMPI JUMPDEST POP PUSH1 0x20 SWAP1 PUSH1 0x1F DUP4 GT PUSH1 0x1 EQ PUSH2 0x658 JUMPI PUSH1 0x0 SWAP3 PUSH2 0x64D JUMPI JUMPDEST POP POP DUP2 PUSH1 0x1 SHL SWAP2 PUSH1 0x0 NOT SWAP1 PUSH1 0x3 SHL SHR NOT AND OR DUP2 SSTORE JUMPDEST PUSH1 0x20 DUP3 ADD MLOAD DUP1 MLOAD SWAP1 PUSH1 0x1 PUSH1 0x1 PUSH1 0x40 SHL SUB DUP3 GT PUSH2 0x551 JUMPI DUP2 SWAP1 PUSH2 0x304 PUSH1 0x1 DUP6 ADD SLOAD PUSH2 0xD2F JUMP JUMPDEST PUSH1 0x1F DUP2 GT PUSH2 0x5FA JUMPI JUMPDEST POP PUSH1 0x20 SWAP1 PUSH1 0x1F DUP4 GT PUSH1 0x1 EQ PUSH2 0x588 JUMPI PUSH1 0x0 SWAP3 PUSH2 0x57D JUMPI JUMPDEST POP POP DUP2 PUSH1 0x1 SHL SWAP2 PUSH1 0x0 NOT SWAP1 PUSH1 0x3 SHL SHR NOT AND OR PUSH1 0x1 DUP3 ADD SSTORE JUMPDEST PUSH1 0x2 DUP2 ADD PUSH1 0x40 DUP4 ADD MLOAD PUSH1 0x4 DUP2 LT ISZERO PUSH2 0x567 JUMPI PUSH1 0xFF DUP1 NOT DUP4 SLOAD AND SWAP2 AND OR SWAP1 SSTORE PUSH1 0x60 DUP3 ADD MLOAD PUSH1 0x3 DUP3 ADD SSTORE PUSH1 0x80 DUP3 ADD MLOAD DUP1 MLOAD SWAP1 PUSH1 0x1 PUSH1 0x1 PUSH1 0x40 SHL SUB DUP3 GT PUSH2 0x551 JUMPI PUSH2 0x387 PUSH1 0x4 DUP5 ADD SLOAD PUSH2 0xD2F JUMP JUMPDEST PUSH1 0x1F DUP2 GT PUSH2 0x50A JUMPI JUMPDEST POP PUSH1 0x20 SWAP1 PUSH1 0x1F DUP4 GT PUSH1 0x1 EQ PUSH2 0x46C JUMPI PUSH1 0x5 PUSH2 0x432 SWAP5 DUP5 PUSH32 0x87BDC31B1BCEC98E3BCC912354B27EB9F24FB60E3C33A4995A4DC319640A452B SWAP9 SWAP6 PUSH2 0x456 SWAP9 SWAP6 PUSH1 0xA0 SWAP6 PUSH1 0x0 SWAP3 PUSH2 0x461 JUMPI JUMPDEST POP POP DUP2 PUSH1 0x1 SHL SWAP2 PUSH1 0x0 NOT SWAP1 PUSH1 0x3 SHL SHR NOT AND OR PUSH1 0x4 DUP3 ADD SSTORE JUMPDEST ADD SWAP2 ADD MLOAD ISZERO ISZERO PUSH1 0xFF DUP1 NOT DUP4 SLOAD AND SWAP2 AND OR SWAP1 SSTORE PUSH1 0x40 MLOAD PUSH1 0x20 DUP2 DUP4 MLOAD PUSH2 0x418 DUP2 DUP4 DUP6 DUP9 ADD PUSH2 0xCE6 JUMP JUMPDEST DUP2 ADD PUSH1 0x1 DUP2 MSTORE SUB ADD SWAP1 KECCAK256 PUSH1 0x1 PUSH1 0xFF NOT DUP3 SLOAD AND OR SWAP1 SSTORE PUSH2 0xF58 JUMP JUMPDEST SWAP3 PUSH1 0x40 MLOAD SWAP2 DUP3 SWAP2 PUSH2 0x445 DUP4 PUSH1 0x24 CALLDATALOAD PUSH2 0xE33 JUMP JUMPDEST PUSH1 0x60 PUSH1 0x20 DUP5 ADD MSTORE PUSH1 0x60 DUP4 ADD SWAP1 PUSH2 0xE0E JUMP JUMPDEST TIMESTAMP PUSH1 0x40 DUP4 ADD MSTORE SUB SWAP1 LOG2 STOP JUMPDEST ADD MLOAD SWAP1 POP DUP12 DUP1 PUSH2 0x3D9 JUMP JUMPDEST SWAP1 PUSH1 0x4 DUP5 ADD PUSH1 0x0 MSTORE PUSH1 0x20 PUSH1 0x0 KECCAK256 SWAP2 PUSH1 0x0 JUMPDEST PUSH1 0x1F NOT DUP6 AND DUP2 LT PUSH2 0x4F2 JUMPI POP PUSH2 0x432 SWAP5 PUSH1 0x1 DUP6 PUSH2 0x456 SWAP9 SWAP6 PUSH1 0xA0 SWAP6 PUSH1 0x5 SWAP6 PUSH32 0x87BDC31B1BCEC98E3BCC912354B27EB9F24FB60E3C33A4995A4DC319640A452B SWAP13 SWAP10 PUSH1 0x1F NOT DUP2 AND LT PUSH2 0x4D9 JUMPI JUMPDEST POP POP POP DUP2 SHL ADD PUSH1 0x4 DUP3 ADD SSTORE PUSH2 0x3F1 JUMP JUMPDEST ADD MLOAD PUSH1 0x0 NOT PUSH1 0xF8 DUP5 PUSH1 0x3 SHL AND SHR NOT AND SWAP1 SSTORE DUP12 DUP1 DUP1 PUSH2 0x4C9 JUMP JUMPDEST SWAP2 SWAP3 PUSH1 0x20 PUSH1 0x1 DUP2 SWAP3 DUP7 DUP6 ADD MLOAD DUP2 SSTORE ADD SWAP5 ADD SWAP3 ADD PUSH2 0x47D JUMP JUMPDEST PUSH1 0x4 DUP5 ADD PUSH1 0x0 MSTORE PUSH1 0x20 PUSH1 0x0 KECCAK256 PUSH1 0x1F DUP5 ADD PUSH1 0x5 SHR DUP2 ADD PUSH1 0x20 DUP6 LT PUSH2 0x54A JUMPI JUMPDEST PUSH1 0x1F DUP4 ADD PUSH1 0x5 SHR DUP3 ADD DUP2 LT PUSH2 0x53E JUMPI POP POP PUSH2 0x390 JUMP JUMPDEST PUSH1 0x0 DUP2 SSTORE PUSH1 0x1 ADD PUSH2 0x528 JUMP JUMPDEST POP DUP1 PUSH2 0x528 JUMP JUMPDEST PUSH4 0x4E487B71 PUSH1 0xE0 SHL PUSH1 0x0 MSTORE PUSH1 0x41 PUSH1 0x4 MSTORE PUSH1 0x24 PUSH1 0x0 REVERT JUMPDEST PUSH4 0x4E487B71 PUSH1 0xE0 SHL PUSH1 0x0 MSTORE PUSH1 0x21 PUSH1 0x4 MSTORE PUSH1 0x24 PUSH1 0x0 REVERT JUMPDEST ADD MLOAD SWAP1 POP DUP7 DUP1 PUSH2 0x324 JUMP JUMPDEST SWAP3 POP PUSH1 0x1 DUP5 ADD PUSH1 0x0 MSTORE PUSH1 0x20 PUSH1 0x0 KECCAK256 SWAP1 PUSH1 0x0 SWAP4 JUMPDEST PUSH1 0x1F NOT DUP5 AND DUP6 LT PUSH2 0x5DF JUMPI PUSH1 0x1 SWAP5 POP DUP4 PUSH1 0x1F NOT DUP2 AND LT PUSH2 0x5C6 JUMPI JUMPDEST POP POP POP DUP2 SHL ADD PUSH1 0x1 DUP3 ADD SSTORE PUSH2 0x33C JUMP JUMPDEST ADD MLOAD PUSH1 0x0 NOT PUSH1 0xF8 DUP5 PUSH1 0x3 SHL AND SHR NOT AND SWAP1 SSTORE DUP7 DUP1 DUP1 PUSH2 0x5B6 JUMP JUMPDEST DUP2 DUP2 ADD MLOAD DUP4 SSTORE PUSH1 0x20 SWAP5 DUP6 ADD SWAP5 PUSH1 0x1 SWAP1 SWAP4 ADD SWAP3 SWAP1 SWAP2 ADD SWAP1 PUSH2 0x59B JUMP JUMPDEST SWAP1 SWAP2 POP PUSH1 0x1 DUP5 ADD PUSH1 0x0 MSTORE PUSH1 0x20 PUSH1 0x0 KECCAK256 PUSH1 0x1F DUP5 ADD PUSH1 0x5 SHR DUP2 ADD PUSH1 0x20 DUP6 LT PUSH2 0x646 JUMPI JUMPDEST SWAP1 DUP5 SWAP4 SWAP3 SWAP2 JUMPDEST PUSH1 0x1F DUP4 ADD PUSH1 0x5 SHR DUP3 ADD DUP2 LT PUSH2 0x637 JUMPI POP POP PUSH2 0x30D JUMP JUMPDEST PUSH1 0x0 DUP2 SSTORE DUP6 SWAP5 POP PUSH1 0x1 ADD PUSH2 0x621 JUMP JUMPDEST POP DUP1 PUSH2 0x61B JUMP JUMPDEST ADD MLOAD SWAP1 POP DUP7 DUP1 PUSH2 0x2CA JUMP JUMPDEST SWAP3 POP DUP4 PUSH1 0x0 MSTORE PUSH1 0x20 PUSH1 0x0 KECCAK256 SWAP1 PUSH1 0x0 SWAP4 JUMPDEST PUSH1 0x1F NOT DUP5 AND DUP6 LT PUSH2 0x6A9 JUMPI PUSH1 0x1 SWAP5 POP DUP4 PUSH1 0x1F NOT DUP2 AND LT PUSH2 0x690 JUMPI JUMPDEST POP POP POP DUP2 SHL ADD DUP2 SSTORE PUSH2 0x2DF JUMP JUMPDEST ADD MLOAD PUSH1 0x0 NOT PUSH1 0xF8 DUP5 PUSH1 0x3 SHL AND SHR NOT AND SWAP1 SSTORE DUP7 DUP1 DUP1 PUSH2 0x683 JUMP JUMPDEST DUP2 DUP2 ADD MLOAD DUP4 SSTORE PUSH1 0x20 SWAP5 DUP6 ADD SWAP5 PUSH1 0x1 SWAP1 SWAP4 ADD SWAP3 SWAP1 SWAP2 ADD SWAP1 PUSH2 0x668 JUMP JUMPDEST SWAP1 SWAP2 POP DUP4 PUSH1 0x0 MSTORE PUSH1 0x20 PUSH1 0x0 KECCAK256 PUSH1 0x1F DUP5 ADD PUSH1 0x5 SHR DUP2 ADD PUSH1 0x20 DUP6 LT PUSH2 0x70D JUMPI JUMPDEST SWAP1 DUP5 SWAP4 SWAP3 SWAP2 JUMPDEST PUSH1 0x1F DUP4 ADD PUSH1 0x5 SHR DUP3 ADD DUP2 LT PUSH2 0x6FE JUMPI POP POP PUSH2 0x2B3 JUMP JUMPDEST PUSH1 0x0 DUP2 SSTORE DUP6 SWAP5 POP PUSH1 0x1 ADD PUSH2 0x6E8 JUMP JUMPDEST POP DUP1 PUSH2 0x6E2 JUMP JUMPDEST CALLVALUE PUSH2 0x14E JUMPI PUSH1 0x20 CALLDATASIZE PUSH1 0x3 NOT ADD SLT PUSH2 0x14E JUMPI PUSH1 0x4 CALLDATALOAD PUSH1 0x1 PUSH1 0x1 PUSH1 0x40 SHL SUB DUP2 GT PUSH2 0x14E JUMPI PUSH1 0x20 PUSH2 0x189 PUSH2 0x749 SWAP3 CALLDATASIZE SWAP1 PUSH1 0x4 ADD PUSH2 0xC90 JUMP JUMPDEST DUP2 ADD PUSH1 0x0 DUP2 MSTORE SUB ADD SWAP1 KECCAK256 PUSH1 0x40 MLOAD PUSH2 0x75F DUP2 PUSH2 0xC54 JUMP JUMPDEST PUSH2 0x768 DUP3 PUSH2 0xD69 JUMP JUMPDEST DUP2 MSTORE PUSH2 0x776 PUSH1 0x1 DUP4 ADD PUSH2 0xD69 JUMP JUMPDEST SWAP1 PUSH1 0x20 DUP2 ADD SWAP2 DUP3 MSTORE PUSH1 0xFF PUSH1 0x2 DUP5 ADD SLOAD AND SWAP3 PUSH2 0x795 PUSH1 0x40 DUP4 ADD SWAP5 DUP6 PUSH2 0xFB9 JUMP JUMPDEST PUSH1 0x3 DUP2 ADD SLOAD SWAP2 PUSH1 0x60 DUP2 ADD SWAP3 DUP4 MSTORE PUSH1 0xFF PUSH1 0x5 PUSH2 0x7B2 PUSH1 0x4 DUP6 ADD PUSH2 0xD69 JUMP JUMPDEST SWAP4 PUSH1 0x80 DUP5 ADD SWAP5 DUP6 MSTORE ADD SLOAD AND SWAP1 PUSH1 0xA0 DUP2 ADD SWAP2 ISZERO ISZERO DUP3 MSTORE MLOAD SWAP4 MLOAD SWAP5 MLOAD SWAP2 PUSH1 0x4 DUP4 LT ISZERO PUSH2 0x567 JUMPI PUSH2 0x7EE SWAP4 MLOAD SWAP1 MLOAD SWAP2 MLOAD ISZERO ISZERO SWAP3 PUSH1 0x40 MLOAD SWAP7 DUP8 SWAP7 DUP8 PUSH2 0xE40 JUMP JUMPDEST SUB SWAP1 RETURN JUMPDEST CALLVALUE PUSH2 0x14E JUMPI PUSH1 0x40 CALLDATASIZE PUSH1 0x3 NOT ADD SLT PUSH2 0x14E JUMPI PUSH1 0x4 CALLDATALOAD PUSH1 0x1 PUSH1 0x1 PUSH1 0x40 SHL SUB DUP2 GT PUSH2 0x14E JUMPI PUSH2 0x822 SWAP1 CALLDATASIZE SWAP1 PUSH1 0x4 ADD PUSH2 0xC90 JUMP JUMPDEST PUSH32 0x40C5EEA1C520C4788ADB7B4A4AFE6FE8154919B4256274796CCA5F0509AF8417 PUSH1 0x40 PUSH2 0x87D PUSH1 0x24 CALLDATALOAD SWAP4 PUSH2 0x858 DUP2 MLOAD ISZERO ISZERO PUSH2 0xF78 JUMP JUMPDEST DUP5 DUP4 MLOAD PUSH1 0x20 DUP2 DUP5 MLOAD PUSH2 0x86D DUP2 DUP4 DUP6 DUP10 ADD PUSH2 0xCE6 JUMP JUMPDEST DUP2 ADD PUSH1 0x2 DUP2 MSTORE SUB ADD SWAP1 KECCAK256 SSTORE PUSH2 0xF58 JUMP JUMPDEST SWAP3 DUP2 MLOAD SWAP1 DUP2 MSTORE TIMESTAMP PUSH1 0x20 DUP3 ADD MSTORE LOG2 STOP JUMPDEST CALLVALUE PUSH2 0x14E JUMPI PUSH1 0x20 DUP1 PUSH1 0x3 NOT CALLDATASIZE ADD SLT PUSH2 0x14E JUMPI PUSH1 0x4 CALLDATALOAD PUSH1 0x1 PUSH1 0x1 PUSH1 0x40 SHL SUB DUP2 GT PUSH2 0x14E JUMPI PUSH2 0x8BD SWAP1 CALLDATASIZE SWAP1 PUSH1 0x4 ADD PUSH2 0xEAF JUMP JUMPDEST SWAP1 DUP2 MLOAD PUSH2 0x8E2 PUSH2 0x8CC DUP3 PUSH2 0xE98 JUMP JUMPDEST SWAP2 PUSH2 0x8DA PUSH1 0x40 MLOAD SWAP4 DUP5 PUSH2 0xC6F JUMP JUMPDEST DUP1 DUP4 MSTORE PUSH2 0xE98 JUMP JUMPDEST DUP2 DUP4 ADD SWAP3 SWAP1 PUSH1 0x1F NOT ADD CALLDATASIZE DUP5 CALLDATACOPY PUSH1 0x0 JUMPDEST DUP5 MLOAD DUP2 LT ISZERO PUSH2 0x922 JUMPI DUP1 PUSH2 0x910 PUSH2 0x90A PUSH1 0x1 SWAP4 DUP9 PUSH2 0xF2E JUMP JUMPDEST MLOAD PUSH2 0xD09 JUMP JUMPDEST SLOAD PUSH2 0x91B DUP3 DUP7 PUSH2 0xF2E JUMP JUMPDEST MSTORE ADD PUSH2 0x8F1 JUMP JUMPDEST POP SWAP3 POP SWAP1 PUSH1 0x40 MLOAD SWAP3 DUP4 SWAP3 DUP2 DUP5 ADD SWAP1 DUP3 DUP6 MSTORE MLOAD DUP1 SWAP2 MSTORE PUSH1 0x40 DUP5 ADD SWAP3 SWAP2 PUSH1 0x0 JUMPDEST DUP3 DUP2 LT PUSH2 0x94F JUMPI POP POP POP POP SUB SWAP1 RETURN JUMPDEST DUP4 MLOAD DUP6 MSTORE DUP7 SWAP6 POP SWAP4 DUP2 ADD SWAP4 SWAP3 DUP2 ADD SWAP3 PUSH1 0x1 ADD PUSH2 0x940 JUMP JUMPDEST CALLVALUE PUSH2 0x14E JUMPI PUSH1 0x40 CALLDATASIZE PUSH1 0x3 NOT ADD SLT PUSH2 0x14E JUMPI PUSH1 0x1 PUSH1 0x1 PUSH1 0x40 SHL SUB PUSH1 0x4 CALLDATALOAD DUP2 DUP2 GT PUSH2 0x14E JUMPI PUSH2 0x997 SWAP1 CALLDATASIZE SWAP1 PUSH1 0x4 ADD PUSH2 0xEAF JUMP JUMPDEST SWAP1 PUSH1 0x24 CALLDATALOAD SWAP1 DUP2 GT PUSH2 0x14E JUMPI CALLDATASIZE PUSH1 0x23 DUP3 ADD SLT ISZERO PUSH2 0x14E JUMPI DUP1 PUSH1 0x4 ADD CALLDATALOAD PUSH2 0x9BB DUP2 PUSH2 0xE98 JUMP JUMPDEST SWAP2 PUSH2 0x9C9 PUSH1 0x40 MLOAD SWAP4 DUP5 PUSH2 0xC6F JUMP JUMPDEST DUP2 DUP4 MSTORE PUSH1 0x20 SWAP2 PUSH1 0x24 PUSH1 0x20 DUP6 ADD SWAP2 PUSH1 0x5 SHL DUP4 ADD ADD SWAP2 CALLDATASIZE DUP4 GT PUSH2 0x14E JUMPI PUSH1 0x24 DUP5 SWAP2 ADD SWAP2 JUMPDEST DUP4 DUP4 LT PUSH2 0xAD4 JUMPI POP POP POP POP DUP3 MLOAD DUP3 MLOAD SUB PUSH2 0xA7D JUMPI PUSH1 0x0 JUMPDEST DUP4 MLOAD DUP2 LT ISZERO PUSH2 0xA7B JUMPI DUP1 PUSH2 0xA18 PUSH1 0x1 SWAP3 DUP6 PUSH2 0xF2E JUMP JUMPDEST MLOAD PUSH2 0xA26 PUSH2 0x90A DUP4 DUP9 PUSH2 0xF2E JUMP JUMPDEST SSTORE PUSH2 0xA31 DUP2 DUP7 PUSH2 0xF2E JUMP JUMPDEST MLOAD PUSH32 0x40C5EEA1C520C4788ADB7B4A4AFE6FE8154919B4256274796CCA5F0509AF8417 PUSH1 0x40 PUSH2 0xA69 PUSH2 0xA62 DUP6 DUP10 PUSH2 0xF2E JUMP JUMPDEST MLOAD SWAP4 PUSH2 0xF58 JUMP JUMPDEST SWAP3 DUP2 MLOAD SWAP1 DUP2 MSTORE TIMESTAMP DUP8 DUP3 ADD MSTORE LOG2 ADD PUSH2 0xA02 JUMP JUMPDEST STOP JUMPDEST PUSH1 0x40 MLOAD PUSH3 0x461BCD PUSH1 0xE5 SHL DUP2 MSTORE PUSH1 0x20 PUSH1 0x4 DUP3 ADD MSTORE PUSH1 0x29 PUSH1 0x24 DUP3 ADD MSTORE PUSH32 0x495020616E642073636F726520617272617973206D7573742068617665207361 PUSH1 0x44 DUP3 ADD MSTORE PUSH9 0xDACA40D8CADCCEE8D PUSH1 0xBB SHL PUSH1 0x64 DUP3 ADD MSTORE PUSH1 0x84 SWAP1 REVERT JUMPDEST DUP3 CALLDATALOAD DUP2 MSTORE SWAP2 DUP2 ADD SWAP2 DUP5 SWAP2 ADD PUSH2 0x9EB JUMP JUMPDEST CALLVALUE PUSH2 0x14E JUMPI PUSH1 0x20 CALLDATASIZE PUSH1 0x3 NOT ADD SLT PUSH2 0x14E JUMPI PUSH1 0x4 CALLDATALOAD PUSH1 0x1 PUSH1 0x1 PUSH1 0x40 SHL SUB DUP2 GT PUSH2 0x14E JUMPI PUSH1 0xFF PUSH2 0xB1C PUSH1 0x20 PUSH2 0x189 DUP2 SWAP5 CALLDATASIZE SWAP1 PUSH1 0x4 ADD PUSH2 0xC90 JUMP JUMPDEST DUP2 ADD PUSH1 0x1 DUP2 MSTORE SUB ADD SWAP1 KECCAK256 SLOAD AND PUSH1 0x40 MLOAD SWAP1 ISZERO ISZERO DUP2 MSTORE RETURN JUMPDEST CALLVALUE PUSH2 0x14E JUMPI PUSH1 0x20 CALLDATASIZE PUSH1 0x3 NOT ADD SLT PUSH2 0x14E JUMPI PUSH1 0x4 CALLDATALOAD PUSH1 0x1 PUSH1 0x1 PUSH1 0x40 SHL SUB DUP2 GT PUSH2 0x14E JUMPI PUSH2 0xB64 PUSH1 0x20 SWAP2 CALLDATASIZE SWAP1 PUSH1 0x4 ADD PUSH2 0xC90 JUMP JUMPDEST PUSH1 0x40 MLOAD PUSH1 0xFF DUP3 MLOAD SWAP2 DUP5 DUP2 DUP2 DUP7 ADD SWAP5 PUSH2 0xB7D DUP2 DUP4 DUP9 PUSH2 0xCE6 JUMP JUMPDEST DUP2 ADD PUSH1 0x1 DUP2 MSTORE SUB ADD SWAP1 KECCAK256 SLOAD AND SWAP2 DUP3 PUSH2 0xB9C JUMPI JUMPDEST POP POP PUSH1 0x40 MLOAD SWAP1 ISZERO ISZERO DUP2 MSTORE RETURN JUMPDEST PUSH1 0xFF SWAP3 POP DUP4 PUSH1 0x5 SWAP3 PUSH2 0xBB9 SWAP3 PUSH1 0x40 MLOAD SWAP4 DUP5 SWAP3 DUP4 SWAP3 MLOAD SWAP3 DUP4 SWAP2 PUSH2 0xCE6 JUMP JUMPDEST DUP2 ADD PUSH1 0x0 DUP2 MSTORE SUB ADD SWAP1 KECCAK256 ADD SLOAD AND DUP3 DUP1 PUSH2 0xB90 JUMP JUMPDEST CALLVALUE PUSH2 0x14E JUMPI PUSH1 0x20 CALLDATASIZE PUSH1 0x3 NOT ADD SLT PUSH2 0x14E JUMPI PUSH1 0x4 CALLDATALOAD PUSH1 0x1 PUSH1 0x1 PUSH1 0x40 SHL SUB DUP2 GT PUSH2 0x14E JUMPI PUSH1 0x20 PUSH2 0x189 PUSH2 0xC02 SWAP3 CALLDATASIZE SWAP1 PUSH1 0x4 ADD PUSH2 0xC90 JUMP JUMPDEST DUP2 ADD PUSH1 0x0 DUP2 MSTORE SUB ADD SWAP1 KECCAK256 PUSH2 0xC15 DUP2 PUSH2 0xD69 JUMP JUMPDEST PUSH2 0x7EE PUSH2 0xC24 PUSH1 0x1 DUP5 ADD PUSH2 0xD69 JUMP JUMPDEST SWAP3 PUSH1 0xFF PUSH1 0x2 DUP3 ADD SLOAD AND SWAP1 PUSH1 0x3 DUP2 ADD SLOAD PUSH1 0xFF PUSH1 0x5 PUSH2 0xC43 PUSH1 0x4 DUP6 ADD PUSH2 0xD69 JUMP JUMPDEST SWAP4 ADD SLOAD AND SWAP3 PUSH1 0x40 MLOAD SWAP7 DUP8 SWAP7 DUP8 PUSH2 0xE40 JUMP JUMPDEST PUSH1 0xC0 DUP2 ADD SWAP1 DUP2 LT PUSH1 0x1 PUSH1 0x1 PUSH1 0x40 SHL SUB DUP3 GT OR PUSH2 0x551 JUMPI PUSH1 0x40 MSTORE JUMP JUMPDEST SWAP1 PUSH1 0x1F DUP1 NOT SWAP2 ADD AND DUP2 ADD SWAP1 DUP2 LT PUSH1 0x1 PUSH1 0x1 PUSH1 0x40 SHL SUB DUP3 GT OR PUSH2 0x551 JUMPI PUSH1 0x40 MSTORE JUMP JUMPDEST DUP2 PUSH1 0x1F DUP3 ADD SLT ISZERO PUSH2 0x14E JUMPI DUP1 CALLDATALOAD SWAP1 PUSH1 0x1 PUSH1 0x1 PUSH1 0x40 SHL SUB DUP3 GT PUSH2 0x551 JUMPI PUSH1 0x40 MLOAD SWAP3 PUSH2 0xCC4 PUSH1 0x1F DUP5 ADD PUSH1 0x1F NOT AND PUSH1 0x20 ADD DUP6 PUSH2 0xC6F JUMP JUMPDEST DUP3 DUP5 MSTORE PUSH1 0x20 DUP4 DUP4 ADD ADD GT PUSH2 0x14E JUMPI DUP2 PUSH1 0x0 SWAP3 PUSH1 0x20 DUP1 SWAP4 ADD DUP4 DUP7 ADD CALLDATACOPY DUP4 ADD ADD MSTORE SWAP1 JUMP JUMPDEST PUSH1 0x0 JUMPDEST DUP4 DUP2 LT PUSH2 0xCF9 JUMPI POP POP PUSH1 0x0 SWAP2 ADD MSTORE JUMP JUMPDEST DUP2 DUP2 ADD MLOAD DUP4 DUP3 ADD MSTORE PUSH1 0x20 ADD PUSH2 0xCE9 JUMP JUMPDEST PUSH1 0x20 PUSH2 0xD22 SWAP2 DUP2 PUSH1 0x40 MLOAD SWAP4 DUP3 DUP6 DUP1 SWAP5 MLOAD SWAP4 DUP5 SWAP3 ADD PUSH2 0xCE6 JUMP JUMPDEST DUP2 ADD PUSH1 0x2 DUP2 MSTORE SUB ADD SWAP1 KECCAK256 SWAP1 JUMP JUMPDEST SWAP1 PUSH1 0x1 DUP3 DUP2 SHR SWAP3 AND DUP1 ISZERO PUSH2 0xD5F JUMPI JUMPDEST PUSH1 0x20 DUP4 LT EQ PUSH2 0xD49 JUMPI JUMP JUMPDEST PUSH4 0x4E487B71 PUSH1 0xE0 SHL PUSH1 0x0 MSTORE PUSH1 0x22 PUSH1 0x4 MSTORE PUSH1 0x24 PUSH1 0x0 REVERT JUMPDEST SWAP2 PUSH1 0x7F AND SWAP2 PUSH2 0xD3E JUMP JUMPDEST SWAP1 PUSH1 0x40 MLOAD SWAP2 DUP3 PUSH1 0x0 DUP3 SLOAD PUSH2 0xD7C DUP2 PUSH2 0xD2F JUMP JUMPDEST SWAP1 DUP2 DUP5 MSTORE PUSH1 0x20 SWAP5 PUSH1 0x1 SWAP2 PUSH1 0x1 DUP2 AND SWAP1 DUP2 PUSH1 0x0 EQ PUSH2 0xDEC JUMPI POP PUSH1 0x1 EQ PUSH2 0xDAD JUMPI JUMPDEST POP POP POP PUSH2 0xDAB SWAP3 POP SUB DUP4 PUSH2 0xC6F JUMP JUMPDEST JUMP JUMPDEST PUSH1 0x0 SWAP1 DUP2 MSTORE DUP6 DUP2 KECCAK256 SWAP6 SWAP4 POP SWAP2 SWAP1 JUMPDEST DUP2 DUP4 LT PUSH2 0xDD4 JUMPI POP POP PUSH2 0xDAB SWAP4 POP DUP3 ADD ADD CODESIZE DUP1 DUP1 PUSH2 0xD9C JUMP JUMPDEST DUP6 SLOAD DUP9 DUP5 ADD DUP6 ADD MSTORE SWAP5 DUP6 ADD SWAP5 DUP8 SWAP5 POP SWAP2 DUP4 ADD SWAP2 PUSH2 0xDBB JUMP JUMPDEST SWAP3 POP POP POP PUSH2 0xDAB SWAP5 SWAP3 POP PUSH1 0xFF NOT AND DUP3 DUP5 ADD MSTORE ISZERO ISZERO PUSH1 0x5 SHL DUP3 ADD ADD CODESIZE DUP1 DUP1 PUSH2 0xD9C JUMP JUMPDEST SWAP1 PUSH1 0x20 SWAP2 PUSH2 0xE27 DUP2 MLOAD DUP1 SWAP3 DUP2 DUP6 MSTORE DUP6 DUP1 DUP7 ADD SWAP2 ADD PUSH2 0xCE6 JUMP JUMPDEST PUSH1 0x1F ADD PUSH1 0x1F NOT AND ADD ADD SWAP1 JUMP JUMPDEST SWAP1 PUSH1 0x4 DUP3 LT ISZERO PUSH2 0x567 JUMPI MSTORE JUMP JUMPDEST SWAP5 SWAP1 SWAP4 PUSH2 0xE7E PUSH2 0xE73 PUSH2 0xE90 SWAP6 SWAP5 PUSH2 0xE65 PUSH1 0xA0 SWAP9 SWAP12 SWAP11 SWAP12 PUSH1 0xC0 DUP12 MSTORE PUSH1 0xC0 DUP12 ADD SWAP1 PUSH2 0xE0E JUMP JUMPDEST SWAP1 DUP10 DUP3 SUB PUSH1 0x20 DUP12 ADD MSTORE PUSH2 0xE0E JUMP JUMPDEST SWAP4 PUSH1 0x40 DUP9 ADD SWAP1 PUSH2 0xE33 JUMP JUMPDEST PUSH1 0x60 DUP7 ADD MSTORE DUP5 DUP3 SUB PUSH1 0x80 DUP7 ADD MSTORE PUSH2 0xE0E JUMP JUMPDEST SWAP4 ISZERO ISZERO SWAP2 ADD MSTORE JUMP JUMPDEST PUSH1 0x1 PUSH1 0x1 PUSH1 0x40 SHL SUB DUP2 GT PUSH2 0x551 JUMPI PUSH1 0x5 SHL PUSH1 0x20 ADD SWAP1 JUMP JUMPDEST DUP2 PUSH1 0x1F DUP3 ADD SLT ISZERO PUSH2 0x14E JUMPI DUP1 CALLDATALOAD SWAP2 PUSH1 0x20 SWAP2 PUSH2 0xEC9 DUP5 PUSH2 0xE98 JUMP JUMPDEST SWAP4 PUSH2 0xED7 PUSH1 0x40 MLOAD SWAP6 DUP7 PUSH2 0xC6F JUMP JUMPDEST DUP1 DUP6 MSTORE DUP4 DUP1 DUP7 ADD SWAP2 PUSH1 0x5 SHL DUP4 ADD ADD SWAP3 DUP1 DUP5 GT PUSH2 0x14E JUMPI DUP5 DUP4 ADD SWAP2 JUMPDEST DUP5 DUP4 LT PUSH2 0xF02 JUMPI POP POP POP POP POP POP SWAP1 JUMP JUMPDEST DUP3 CALLDATALOAD PUSH1 0x1 PUSH1 0x1 PUSH1 0x40 SHL SUB DUP2 GT PUSH2 0x14E JUMPI DUP7 SWAP2 PUSH2 0xF23 DUP5 DUP5 DUP1 SWAP5 DUP10 ADD ADD PUSH2 0xC90 JUMP JUMPDEST DUP2 MSTORE ADD SWAP3 ADD SWAP2 PUSH2 0xEF2 JUMP JUMPDEST DUP1 MLOAD DUP3 LT ISZERO PUSH2 0xF42 JUMPI PUSH1 0x20 SWAP2 PUSH1 0x5 SHL ADD ADD SWAP1 JUMP JUMPDEST PUSH4 0x4E487B71 PUSH1 0xE0 SHL PUSH1 0x0 MSTORE PUSH1 0x32 PUSH1 0x4 MSTORE PUSH1 0x24 PUSH1 0x0 REVERT JUMPDEST PUSH2 0xF70 SWAP1 PUSH1 0x20 PUSH1 0x40 MLOAD SWAP3 DUP3 DUP5 DUP1 SWAP5 MLOAD SWAP4 DUP5 SWAP3 ADD PUSH2 0xCE6 JUMP JUMPDEST DUP2 ADD SUB SWAP1 KECCAK256 SWAP1 JUMP JUMPDEST ISZERO PUSH2 0xF7F JUMPI JUMP JUMPDEST PUSH1 0x40 MLOAD PUSH3 0x461BCD PUSH1 0xE5 SHL DUP2 MSTORE PUSH1 0x20 PUSH1 0x4 DUP3 ADD MSTORE PUSH1 0x12 PUSH1 0x24 DUP3 ADD MSTORE PUSH18 0x49502063616E6E6F7420626520656D707479 PUSH1 0x70 SHL PUSH1 0x44 DUP3 ADD MSTORE PUSH1 0x64 SWAP1 REVERT JUMPDEST PUSH1 0x4 DUP3 LT ISZERO PUSH2 0x567 JUMPI MSTORE JUMP INVALID LOG1 PUSH5 0x736F6C6343 STOP ADDMOD XOR STOP EXP "},"methodIdentifiers":{"addThreatIntel(string,uint8,string)":"b64a71e3","batchUpdateThreatScores(string[],uint256[])":"387d1325","getThreatIntel(string)":"9d55cb29","getThreatScore(string)":"b832717a","getThreatScores(string[])":"4ee14a8d","isThreatIP(string)":"2ec920c9","isThreatSource(string)":"2a592cff","removeThreatIntel(string)":"bd1cbfd5","threatIntels(string)":"149cdd99","threatScores(string)":"3da195cc","updateThreatScore(string,uint256)":"87e7ff95"}}}}}