{"contracts/ThreatConsensus.sol":{"ThreatConsensus":{"abi":[{"inputs":[{"internalType":"address","name":"tokenAddress","type":"address"}],"stateMutability":"nonpayable","type":"constructor"},{"inputs":[{"internalType":"address","name":"owner","type":"address"}],"name":"OwnableInvalidOwner","type":"error"},{"inputs":[{"internalType":"address","name":"account","type":"address"}],"name":"OwnableUnauthorizedAccount","type":"error"},{"inputs":[],"name":"ReentrancyGuardReentrantCall","type":"error"},{"anonymous":false,"inputs":[{"indexed":true,"internalType":"string","name":"ip","type":"string"},{"indexed":false,"internalType":"string","name":"reason","type":"string"}],"name":"GlobalThreatConfirmed","type":"event"},{"anonymous":false,"inputs":[{"indexed":true,"internalType":"string","name":"ip","type":"string"},{"indexed":true,"internalType":"address","name":"reporter","type":"address"}],"name":"LocalDefenseActive","type":"event"},{"anonymous":false,"inputs":[{"indexed":true,"internalType":"address","name":"previousOwner","type":"address"},{"indexed":true,"internalType":"address","name":"newOwner","type":"address"}],"name":"OwnershipTransferred","type":"event"},{"anonymous":false,"inputs":[{"indexed":true,"internalType":"bytes32","name":"commitment","type":"bytes32"},{"indexed":true,"internalType":"address","name":"reporter","type":"address"},{"indexed":false,"internalType":"uint256","name":"commitBlock","type":"uint256"}],"name":"ThreatCommitted","type":"event"},{"anonymous":false,"inputs":[{"indexed":true,"internalType":"string","name":"ip","type":"string"},{"indexed":true,"internalType":"address","name":"reporter","type":"address"}],"name":"ThreatReportRevoked","type":"event"},{"anonymous":false,"inputs":[{"indexed":true,"internalType":"string","name":"ip","type":"string"},{"indexed":true,"internalType":"address","name":"reporter","type":"address"},{"indexed":true,"internalType":"string","name":"salt","type":"string"}],"name":"ThreatRevealed","type":"event"},{"anonymous":false,"inputs":[{"indexed":true,"internalType":"string","name":"ip","type":"string"},{"indexed":false,"internalType":"bool","name":"isWhitelisted","type":"bool"}],"name":"WhitelistUpdated","type":"event"},{"inputs":[],"name":"CONSENSUS_THRESHOLD","outputs":[{"internalType":"uint256","name":"","type":"uint256"}],"stateMutability":"view","type":"function"},{"inputs":[],"name":"MAX_CPULOAD","outputs":[{"internalType":"uint256","name":"","type":"uint256"}],"stateMutability":"view","type":"function"},{"inputs":[],"name":"MIN_TOKEN_BALANCE","outputs":[{"internalType":"uint256","name":"","type":"uint256"}],"stateMutability":"view","type":"function"},{"inputs":[],"name":"REVEAL_DELAY","outputs":[{"internalType":"uint256","name":"","type":"uint256"}],"stateMutability":"view","type":"function"},{"inputs":[{"internalType":"string","name":"ip","type":"string"}],"name":"addToWhitelist","outputs":[],"stateMutability":"nonpayable","type":"function"},{"inputs":[{"internalType":"bytes32","name":"ipHash","type":"bytes32"},{"internalType":"string","name":"salt","type":"string"}],"name":"commitThreatEvidence","outputs":[],"stateMutability":"nonpayable","type":"function"},{"inputs":[{"internalType":"bytes32","name":"","type":"bytes32"}],"name":"commitments","outputs":[{"internalType":"bytes32","name":"hash","type":"bytes32"},{"internalType":"uint256","name":"commitBlock","type":"uint256"},{"internalType":"bool","name":"revealed","type":"bool"}],"stateMutability":"view","type":"function"},{"inputs":[{"internalType":"string","name":"","type":"string"},{"internalType":"uint256","name":"","type":"uint256"}],"name":"evidenceHistory","outputs":[{"internalType":"address","name":"reporter","type":"address"},{"internalType":"uint64","name":"timestamp","type":"uint64"},{"internalType":"uint8","name":"cpuLoad","type":"uint8"},{"internalType":"string","name":"logHash","type":"string"},{"internalType":"string","name":"attackType","type":"string"}],"stateMutability":"view","type":"function"},{"inputs":[{"internalType":"string","name":"ip","type":"string"}],"name":"forceConfirm","outputs":[],"stateMutability":"nonpayable","type":"function"},{"inputs":[{"internalType":"string","name":"ip","type":"string"}],"name":"forceRevoke","outputs":[],"stateMutability":"nonpayable","type":"function"},{"inputs":[{"internalType":"string","name":"ip","type":"string"}],"name":"getEvidenceCount","outputs":[{"internalType":"uint256","name":"","type":"uint256"}],"stateMutability":"view","type":"function"},{"inputs":[{"internalType":"string","name":"ip","type":"string"}],"name":"getThreatStatus","outputs":[{"internalType":"bool","name":"","type":"bool"},{"internalType":"uint256","name":"","type":"uint256"},{"internalType":"uint256","name":"","type":"uint256"},{"internalType":"uint256","name":"","type":"uint256"}],"stateMutability":"view","type":"function"},{"inputs":[{"internalType":"address","name":"reporter","type":"address"},{"internalType":"string","name":"ip","type":"string"}],"name":"hasAddressReported","outputs":[{"internalType":"bool","name":"","type":"bool"}],"stateMutability":"view","type":"function"},{"inputs":[{"internalType":"address","name":"","type":"address"},{"internalType":"string","name":"","type":"string"}],"name":"hasReported","outputs":[{"internalType":"bool","name":"","type":"bool"}],"stateMutability":"view","type":"function"},{"inputs":[{"internalType":"bytes32","name":"commitment","type":"bytes32"}],"name":"isCommitmentRevealed","outputs":[{"internalType":"bool","name":"","type":"bool"}],"stateMutability":"view","type":"function"},{"inputs":[{"internalType":"bytes32","name":"commitment","type":"bytes32"}],"name":"isValidCommitment","outputs":[{"internalType":"bool","name":"","type":"bool"}],"stateMutability":"view","type":"function"},{"inputs":[{"internalType":"string","name":"ip","type":"string"}],"name":"isWhitelisted","outputs":[{"internalType":"bool","name":"","type":"bool"}],"stateMutability":"view","type":"function"},{"inputs":[],"name":"orasrsToken","outputs":[{"internalType":"contract IERC20","name":"","type":"address"}],"stateMutability":"view","type":"function"},{"inputs":[],"name":"owner","outputs":[{"internalType":"address","name":"","type":"address"}],"stateMutability":"view","type":"function"},{"inputs":[{"internalType":"string","name":"ip","type":"string"}],"name":"removeFromWhitelist","outputs":[],"stateMutability":"nonpayable","type":"function"},{"inputs":[],"name":"renounceOwnership","outputs":[],"stateMutability":"nonpayable","type":"function"},{"inputs":[{"internalType":"string","name":"ip","type":"string"},{"internalType":"string","name":"salt","type":"string"},{"internalType":"uint8","name":"cpuLoad","type":"uint8"},{"internalType":"string","name":"logHash","type":"string"},{"internalType":"string","name":"attackType","type":"string"},{"internalType":"uint256","name":"riskScore","type":"uint256"}],"name":"revealThreatEvidence","outputs":[],"stateMutability":"nonpayable","type":"function"},{"inputs":[{"internalType":"string","name":"ip","type":"string"}],"name":"revokeThreatReport","outputs":[],"stateMutability":"nonpayable","type":"function"},{"inputs":[{"internalType":"string","name":"","type":"string"}],"name":"threatStatus","outputs":[{"internalType":"bool","name":"isConfirmed","type":"bool"},{"internalType":"uint256","name":"reportCount","type":"uint256"},{"internalType":"uint256","name":"totalRiskScore","type":"uint256"},{"internalType":"uint256","name":"confirmedAt","type":"uint256"}],"stateMutability":"view","type":"function"},{"inputs":[{"internalType":"address","name":"newOwner","type":"address"}],"name":"transferOwnership","outputs":[],"stateMutability":"nonpayable","type":"function"},{"inputs":[{"internalType":"string","name":"","type":"string"}],"name":"whitelist","outputs":[{"internalType":"bool","name":"","type":"bool"}],"stateMutability":"view","type":"function"}],"evm":{"bytecode":{"linkReferences":{},"object":"60803461015057601f611b2938819003918201601f191683019291906001600160401b0384118385101761015557816020928492604096875283398101031261015057516001600160a01b039081811690819003610150573315610138576027806000549360018060a01b03199433868216176000558651913391167f8be0079c531659141344cd1fd0a4f28419497f9722a3daafe3b4186f6b6457e0600080a3600193848055600795865416178555660705c705c705c760cb1b8152600685820152209260ff19938385825416179055818551660e0b8e0b8d0b8d60ca1b815260068382015220838582541617905581855166312e312e312e3160c81b8152600683820152208385825416179055600685519166312e302e302e3160c81b83528201522091825416179055516119bd908161016c8239f35b8251631e4fbdf760e01b815260006004820152602490fd5b600080fd5b634e487b7160e01b600052604160045260246000fdfe6080604052600436101561001257600080fd5b60003560e01c806307ff46851461168e5780630d80bf6414611640578063113f51001461161c578063199008ec146114f657806325d4d0811461147157806337b8710b14610bd55780633dc3ecef14610b45578063646986fb14610af45780636ee2cfb514610a1d578063715018a6146109c457806373e08a471461092c57806374a0ee31146107c5578063839df9451461077d5780638cbab21f146106e85780638da5cb5b146106bf578063a7bc4e30146106a3578063b48eea441461064d578063b5e1644414610631578063b825fceb1461058b578063bca125f01461056f578063d21ee54c14610546578063e122352e146104c6578063e51abf191461027f578063f0f041f31461024b578063f2fde38b146101bd5763fd88aa411461013a57600080fd5b346101b85760403660031901126101b8576101536116fa565b6024356001600160401b0381116101b8576101a36020809361017b60ff9436906004016117a4565b9060018060a01b031660005260048252604060002082604051948386809551938492016117c2565b82019081520301902054166040519015158152f35b600080fd5b346101b85760203660031901126101b8576101d66116fa565b6101de611961565b6001600160a01b0390811690811561023257600054826bffffffffffffffffffffffff60a01b821617600055167f8be0079c531659141344cd1fd0a4f28419497f9722a3daafe3b4186f6b6457e0600080a3005b604051631e4fbdf760e01b815260006004820152602490fd5b346101b85760203660031901126101b8576004356000526005602052602060ff600260406000200154166040519015158152f35b346101b85760403660031901126101b8576001600160401b036004356024358281116101b8576102b3903690600401611710565b6102be93919361198d565b6007546040516370a0823160e01b8152336004820152602095918690829060249082906001600160a01b03165afa80156104ba57600090610484575b683635c9adc5dea0000091501061042757610333610325916040519283918883019533918988611934565b03601f19810183528261173d565b5190209182600052600584526040600020546103e2576040519160608301908111838210176103cc5760405281526002838201914383526040810192600084528460005260058652604060002091518255516001820155019051151560ff801983541691161790557f71a5c7b15b05487c69f637cb029d1afed660993b500f1a407ece0e17a891b388604051924384523393a360018055005b634e487b7160e01b600052604160045260246000fd5b60405162461bcd60e51b815260048101859052601960248201527f436f6d6d69746d656e7420616c726561647920657869737473000000000000006044820152606490fd5b60405162461bcd60e51b815260048101869052602f60248201527f496e73756666696369656e7420746f6b656e2062616c616e636520666f72207460448201526e6872656174207265706f7274696e6760881b6064820152608490fd5b508581813d83116104b3575b61049a818361173d565b810103126101b857683635c9adc5dea0000090516102fa565b503d610490565b6040513d6000823e3d90fd5b346101b85760203660031901126101b85760043560005260056020526040600020805415159081610536575b81610505575b6020826040519015158152f35b600191500154600a81018091116105205743101560206104f8565b634e487b7160e01b600052601160045260246000fd5b600281015460ff161591506104f2565b346101b85760003660031901126101b8576007546040516001600160a01b039091168152602090f35b346101b85760003660031901126101b857602060405160038152f35b346101b85760203660031901126101b8576004356001600160401b0381116101b8576105bd6020913690600401611710565b91906105c7611961565b82604051938492833781016002815203019020805460ff8116156105f55760ff191681556000600390910155005b60405162461bcd60e51b8152602060048201526014602482015273151a1c99585d081b9bdd0818dbdb999a5c9b595960621b6044820152606490fd5b346101b85760003660031901126101b857602060405160648152f35b346101b85760203660031901126101b8576004356001600160401b0381116101b85760ff602061068281933690600401611710565b91908260405193849283378101600681520301902054166040519015158152f35b346101b85760003660031901126101b8576020604051600a8152f35b346101b85760003660031901126101b8576000546040516001600160a01b039091168152602090f35b346101b85760203660031901126101b8576004356001600160401b0381116101b857610718903690600401611710565b90610721611961565b60405182828237602081848101600681520301902060ff1981541690558160405192839283378101600081520390207f938bd9e1ba5482c8b35a66c1b5454438ea3cac2fa4bd57a7d3f6194bc9f7b8b5602060405160008152a2005b346101b85760203660031901126101b85760043560005260056020526060604060002080549060ff600260018301549201541690604051928352602083015215156040820152f35b346101b8576020806003193601126101b8576004356001600160401b0381116101b8576107f6903690600401611710565b9091604051828482378181848101600281520301902060ff8154166108e757336000526004825260ff61082e6040600020858761191b565b5416156108a25760010190815491821561052057600492600019019055336000525261085f6040600020828461191b565b60ff19815416905580604051928337810190600082528033920390207f7b5435de93dbc462c76a81300843964fc8533b062126c250e72909ba19b7221f600080a3005b60405162461bcd60e51b815260048101839052601c60248201527f596f7520686176656e2774207265706f727465642074686973204950000000006044820152606490fd5b60405162461bcd60e51b815260048101839052601860248201527f54687265617420616c726561647920636f6e6669726d656400000000000000006044820152606490fd5b346101b85760203660031901126101b8576004356001600160401b0381116101b85761095c903690600401611710565b90610965611961565b604051828282376020818481016006815203019020600160ff198254161790558160405192839283378101600081520390207f938bd9e1ba5482c8b35a66c1b5454438ea3cac2fa4bd57a7d3f6194bc9f7b8b5602060405160018152a2005b346101b85760003660031901126101b8576109dd611961565b600080546001600160a01b0319811682556001600160a01b03167f8be0079c531659141344cd1fd0a4f28419497f9722a3daafe3b4186f6b6457e08280a3005b346101b85760403660031901126101b8576001600160401b036004358181116101b857610a4e9036906004016117a4565b610a6a60206024359281604051938285809451938492016117c2565b810160038152030190209081548110156101b857610a87916117e5565b5090610af0825492610ae2610aaa6002610aa360018501611851565b9301611851565b9160ff60405196879660018060a01b03821688528160a01c16602088015260e01c16604086015260a0606086015260a08501906118f6565b9083820360808501526118f6565b0390f35b346101b85760203660031901126101b8576004356001600160401b0381116101b8576020610b2781923690600401611710565b91908260405193849283378101600381520301902054604051908152f35b346101b85760203660031901126101b8576004356001600160401b0381116101b8576020610b7a610b8d9236906004016117a4565b81604051938285809451938492016117c2565b8101600281520301902060ff815416610af060018301549260036002820154910154906040519485948590949392606092608083019615158352602083015260408201520152565b346101b85760c03660031901126101b8576004356001600160401b0381116101b857610c05903690600401611710565b6024356001600160401b0381116101b857610c24903690600401611710565b926044359260ff841684036101b8576064356001600160401b0381116101b857610c52903690600401611710565b9390956084356001600160401b0381116101b857610c74903690600401611710565b959097610c7f61198d565b604051602081019086888337610ca560208289810160008382015203808452018261173d565b519020604051610cbf8161032533888a8760208601611934565b60208151910120600052600560205260406000209081549081156114375760028301549160ff83166113f2576001840154600a81018091116105205743106113ad570361137857600160029160ff19161791015560ff604051868882376020818881016006815203019020541661133e57606460ff8916116113015784156112c7578115611282576040518587823760208187810160028152030190209733600052600460205260ff610d776040600020888a61191b565b541661123d5760405186888237602081888101600381520301902091604051938460a08101106001600160401b0360a0870111176103cc5760ff610ddb9360a087016040523387526001600160401b0342166020880152166040860152369161175e565b6060830152610deb36888b61175e565b60808301528054680100000000000000008110156103cc57610e12916001820181556117e5565b9190916112275780518254602083015160408401516001600160e81b03199092166001600160a01b03939093169290921760a09290921b67ffffffffffffffff60a01b169190911760e09190911b60ff60e01b1617825560608101518051906001600160401b0382116103cc57610e8c6001850154611817565b601f81116111e0575b50602090601f831160011461116d57608093929160009183611162575b50508160011b916000199060031b1c19161760018401555b01518051906001600160401b0382116103cc57610eea6002840154611817565b601f811161111b575b50602090601f83116001146110ab5760029291600091836110a0575b50508160011b916000199060031b1c1916179101555b60018601546000198114610520576001016001870155600286015460a435810181116105205760a435016002870155336000526004602052610f6c6040600020848661191b565b805460ff19166001179055604051838582378084810160008152039020918160405192839283378101600081520390209033907f6af06155ad45086a03422080edb53a9699504a58687c94dbc760162e14a03d39600080a46040518183823781810190600082528033920390207f98c490d5a37f962ca3695fa9e919347e3467f30f0f78c3be4f9415c7315122c3600080a383549160ff83161580611091575b611017575b60018055005b7f96515b5ce7946c8549790b0152ee3a0c7b388c40a8115ac999a5f919ab4b240c94600160409460ff191617815560034291015581835192839283378101600081520390209382825193849260208452816020850152848401376000828201840152601f01601f19168101030190a2808080808080611011565b5060036001860154101561100c565b015190508b80610f0f565b906002840160005260206000209160005b601f19851681106111035750918391600193600295601f198116106110ea575b505050811b01910155610f25565b015160001960f88460031b161c191690558b80806110dc565b919260206001819286850151815501940192016110bc565b600284016000526020600020601f840160051c81016020851061115b575b601f830160051c8201811061114f575050610ef3565b60008155600101611139565b5080611139565b015190508c80610eb2565b906001850160005260206000209160005b601f19851681106111c8575091839160019360809695601f198116106111af575b505050811b016001840155610eca565b015160001960f88460031b161c191690558c808061119f565b9192602060018192868501518155019401920161117e565b600185016000526020600020601f840160051c810160208510611220575b601f830160051c82018110611214575050610e95565b600081556001016111fe565b50806111fe565b634e487b7160e01b600052600060045260246000fd5b60405162461bcd60e51b815260206004820152601860248201527f416c7265616479207265706f72746564207468697320495000000000000000006044820152606490fd5b60405162461bcd60e51b815260206004820152601860248201527f4c6f6720686173682063616e6e6f7420626520656d70747900000000000000006044820152606490fd5b60405162461bcd60e51b815260206004820152601260248201527149502063616e6e6f7420626520656d70747960701b6044820152606490fd5b60405162461bcd60e51b8152602060048201526015602482015274435055206c6f6164206f7574206f662072616e676560581b6044820152606490fd5b60405162461bcd60e51b81526020600482015260126024820152711254081a5cc81a5b881dda1a5d195b1a5cdd60721b6044820152606490fd5b60405162461bcd60e51b815260206004820152600d60248201526c090c2e6d040dad2e6dac2e8c6d609b1b6044820152606490fd5b60405162461bcd60e51b815260206004820152601860248201527f52657665616c2064656c6179206e6f74207265616368656400000000000000006044820152606490fd5b60405162461bcd60e51b815260206004820152601b60248201527f436f6d6d69746d656e7420616c72656164792072657665616c656400000000006044820152606490fd5b60405162461bcd60e51b8152602060048201526012602482015271139bc81cdd58da0818dbdb5b5a5d1b595b9d60721b6044820152606490fd5b346101b85760203660031901126101b8576004356001600160401b0381116101b8576114a36020913690600401611710565b91908260405193849283378101600281520301902060ff815416610af060018301549260036002820154910154906040519485948590949392606092608083019615158352602083015260408201520152565b346101b8576020806003193601126101b8576004356001600160401b0381116101b857611527903690600401611710565b90611530611961565b60ff604051838382378481858101600681520301902054166115d7577f96515b5ce7946c8549790b0152ee3a0c7b388c40a8115ac999a5f919ab4b240c916060916040518282823785818481016002815203019020600160ff198254161781556003429101558160405192839283378101600081520390209260166040519180835282015275476f7665726e616e636520466f72636520426c6f636b60501b6040820152a2005b60405162461bcd60e51b815260048101849052601d60248201527f43616e6e6f7420636f6e6669726d2077686974656c69737465642049500000006044820152606490fd5b346101b85760003660031901126101b8576020604051683635c9adc5dea000008152f35b346101b85760203660031901126101b8576004356001600160401b0381116101b85760ff6116786020610b7a819436906004016117a4565b8101600681520301902054166040519015158152f35b346101b85760403660031901126101b8576116a76116fa565b602435906001600160401b0382116101b8576116ee60ff916116cf6020943690600401611710565b6001600160a01b0390921660009081526004865260409020919061191b565b54166040519015158152f35b600435906001600160a01b03821682036101b857565b9181601f840112156101b8578235916001600160401b0383116101b857602083818601950101116101b857565b90601f801991011681019081106001600160401b038211176103cc57604052565b9291926001600160401b0382116103cc5760405191611787601f8201601f19166020018461173d565b8294818452818301116101b8578281602093846000960137010152565b9080601f830112156101b8578160206117bf9335910161175e565b90565b60005b8381106117d55750506000910152565b81810151838201526020016117c5565b8054821015611801576000526003602060002091020190600090565b634e487b7160e01b600052603260045260246000fd5b90600182811c92168015611847575b602083101461183157565b634e487b7160e01b600052602260045260246000fd5b91607f1691611826565b9060405191826000825461186481611817565b908184526020946001916001811690816000146118d45750600114611895575b5050506118939250038361173d565b565b600090815285812095935091905b8183106118bc5750506118939350820101388080611884565b855488840185015294850194879450918301916118a3565b9250505061189394925060ff191682840152151560051b820101388080611884565b9060209161190f815180928185528580860191016117c2565b601f01601f1916010190565b6020919283604051948593843782019081520301902090565b90928092603495948352602083013701906bffffffffffffffffffffffff199060601b1660208201520190565b6000546001600160a01b0316330361197557565b60405163118cdaa760e01b8152336004820152602490fd5b60026001541461199e576002600155565b604051633ee5aeb560e01b8152600490fdfea164736f6c6343000818000a","opcodes":"PUSH1 0x80 CALLVALUE PUSH2 0x150 JUMPI PUSH1 0x1F PUSH2 0x1B29 CODESIZE DUP2 SWAP1 SUB SWAP2 DUP3 ADD PUSH1 0x1F NOT AND DUP4 ADD SWAP3 SWAP2 SWAP1 PUSH1 0x1 PUSH1 0x1 PUSH1 0x40 SHL SUB DUP5 GT DUP4 DUP6 LT OR PUSH2 0x155 JUMPI DUP2 PUSH1 0x20 SWAP3 DUP5 SWAP3 PUSH1 0x40 SWAP7 DUP8 MSTORE DUP4 CODECOPY DUP2 ADD SUB SLT PUSH2 0x150 JUMPI MLOAD PUSH1 0x1 PUSH1 0x1 PUSH1 0xA0 SHL SUB SWAP1 DUP2 DUP2 AND SWAP1 DUP2 SWAP1 SUB PUSH2 0x150 JUMPI CALLER ISZERO PUSH2 0x138 JUMPI PUSH1 0x27 DUP1 PUSH1 0x0 SLOAD SWAP4 PUSH1 0x1 DUP1 PUSH1 0xA0 SHL SUB NOT SWAP5 CALLER DUP7 DUP3 AND OR PUSH1 0x0 SSTORE DUP7 MLOAD SWAP2 CALLER SWAP2 AND PUSH32 0x8BE0079C531659141344CD1FD0A4F28419497F9722A3DAAFE3B4186F6B6457E0 PUSH1 0x0 DUP1 LOG3 PUSH1 0x1 SWAP4 DUP5 DUP1 SSTORE PUSH1 0x7 SWAP6 DUP7 SLOAD AND OR DUP6 SSTORE PUSH7 0x705C705C705C7 PUSH1 0xCB SHL DUP2 MSTORE PUSH1 0x6 DUP6 DUP3 ADD MSTORE KECCAK256 SWAP3 PUSH1 0xFF NOT SWAP4 DUP4 DUP6 DUP3 SLOAD AND OR SWAP1 SSTORE DUP2 DUP6 MLOAD PUSH7 0xE0B8E0B8D0B8D PUSH1 0xCA SHL DUP2 MSTORE PUSH1 0x6 DUP4 DUP3 ADD MSTORE KECCAK256 DUP4 DUP6 DUP3 SLOAD AND OR SWAP1 SSTORE DUP2 DUP6 MLOAD PUSH7 0x312E312E312E31 PUSH1 0xC8 SHL DUP2 MSTORE PUSH1 0x6 DUP4 DUP3 ADD MSTORE KECCAK256 DUP4 DUP6 DUP3 SLOAD AND OR SWAP1 SSTORE PUSH1 0x6 DUP6 MLOAD SWAP2 PUSH7 0x312E302E302E31 PUSH1 0xC8 SHL DUP4 MSTORE DUP3 ADD MSTORE KECCAK256 SWAP2 DUP3 SLOAD AND OR SWAP1 SSTORE MLOAD PUSH2 0x19BD SWAP1 DUP2 PUSH2 0x16C DUP3 CODECOPY RETURN JUMPDEST DUP3 MLOAD PUSH4 0x1E4FBDF7 PUSH1 0xE0 SHL DUP2 MSTORE PUSH1 0x0 PUSH1 0x4 DUP3 ADD MSTORE PUSH1 0x24 SWAP1 REVERT JUMPDEST PUSH1 0x0 DUP1 REVERT JUMPDEST PUSH4 0x4E487B71 PUSH1 0xE0 SHL PUSH1 0x0 MSTORE PUSH1 0x41 PUSH1 0x4 MSTORE PUSH1 0x24 PUSH1 0x0 REVERT INVALID PUSH1 0x80 PUSH1 0x40 MSTORE PUSH1 0x4 CALLDATASIZE LT ISZERO PUSH2 0x12 JUMPI PUSH1 0x0 DUP1 REVERT JUMPDEST PUSH1 0x0 CALLDATALOAD PUSH1 0xE0 SHR DUP1 PUSH4 0x7FF4685 EQ PUSH2 0x168E JUMPI DUP1 PUSH4 0xD80BF64 EQ PUSH2 0x1640 JUMPI DUP1 PUSH4 0x113F5100 EQ PUSH2 0x161C JUMPI DUP1 PUSH4 0x199008EC EQ PUSH2 0x14F6 JUMPI DUP1 PUSH4 0x25D4D081 EQ PUSH2 0x1471 JUMPI DUP1 PUSH4 0x37B8710B EQ PUSH2 0xBD5 JUMPI DUP1 PUSH4 0x3DC3ECEF EQ PUSH2 0xB45 JUMPI DUP1 PUSH4 0x646986FB EQ PUSH2 0xAF4 JUMPI DUP1 PUSH4 0x6EE2CFB5 EQ PUSH2 0xA1D JUMPI DUP1 PUSH4 0x715018A6 EQ PUSH2 0x9C4 JUMPI DUP1 PUSH4 0x73E08A47 EQ PUSH2 0x92C JUMPI DUP1 PUSH4 0x74A0EE31 EQ PUSH2 0x7C5 JUMPI DUP1 PUSH4 0x839DF945 EQ PUSH2 0x77D JUMPI DUP1 PUSH4 0x8CBAB21F EQ PUSH2 0x6E8 JUMPI DUP1 PUSH4 0x8DA5CB5B EQ PUSH2 0x6BF JUMPI DUP1 PUSH4 0xA7BC4E30 EQ PUSH2 0x6A3 JUMPI DUP1 PUSH4 0xB48EEA44 EQ PUSH2 0x64D JUMPI DUP1 PUSH4 0xB5E16444 EQ PUSH2 0x631 JUMPI DUP1 PUSH4 0xB825FCEB EQ PUSH2 0x58B JUMPI DUP1 PUSH4 0xBCA125F0 EQ PUSH2 0x56F JUMPI DUP1 PUSH4 0xD21EE54C EQ PUSH2 0x546 JUMPI DUP1 PUSH4 0xE122352E EQ PUSH2 0x4C6 JUMPI DUP1 PUSH4 0xE51ABF19 EQ PUSH2 0x27F JUMPI DUP1 PUSH4 0xF0F041F3 EQ PUSH2 0x24B JUMPI DUP1 PUSH4 0xF2FDE38B EQ PUSH2 0x1BD JUMPI PUSH4 0xFD88AA41 EQ PUSH2 0x13A JUMPI PUSH1 0x0 DUP1 REVERT JUMPDEST CALLVALUE PUSH2 0x1B8 JUMPI PUSH1 0x40 CALLDATASIZE PUSH1 0x3 NOT ADD SLT PUSH2 0x1B8 JUMPI PUSH2 0x153 PUSH2 0x16FA JUMP JUMPDEST PUSH1 0x24 CALLDATALOAD PUSH1 0x1 PUSH1 0x1 PUSH1 0x40 SHL SUB DUP2 GT PUSH2 0x1B8 JUMPI PUSH2 0x1A3 PUSH1 0x20 DUP1 SWAP4 PUSH2 0x17B PUSH1 0xFF SWAP5 CALLDATASIZE SWAP1 PUSH1 0x4 ADD PUSH2 0x17A4 JUMP JUMPDEST SWAP1 PUSH1 0x1 DUP1 PUSH1 0xA0 SHL SUB AND PUSH1 0x0 MSTORE PUSH1 0x4 DUP3 MSTORE PUSH1 0x40 PUSH1 0x0 KECCAK256 DUP3 PUSH1 0x40 MLOAD SWAP5 DUP4 DUP7 DUP1 SWAP6 MLOAD SWAP4 DUP5 SWAP3 ADD PUSH2 0x17C2 JUMP JUMPDEST DUP3 ADD SWAP1 DUP2 MSTORE SUB ADD SWAP1 KECCAK256 SLOAD AND PUSH1 0x40 MLOAD SWAP1 ISZERO ISZERO DUP2 MSTORE RETURN JUMPDEST PUSH1 0x0 DUP1 REVERT JUMPDEST CALLVALUE PUSH2 0x1B8 JUMPI PUSH1 0x20 CALLDATASIZE PUSH1 0x3 NOT ADD SLT PUSH2 0x1B8 JUMPI PUSH2 0x1D6 PUSH2 0x16FA JUMP JUMPDEST PUSH2 0x1DE PUSH2 0x1961 JUMP JUMPDEST PUSH1 0x1 PUSH1 0x1 PUSH1 0xA0 SHL SUB SWAP1 DUP2 AND SWAP1 DUP2 ISZERO PUSH2 0x232 JUMPI PUSH1 0x0 SLOAD DUP3 PUSH12 0xFFFFFFFFFFFFFFFFFFFFFFFF PUSH1 0xA0 SHL DUP3 AND OR PUSH1 0x0 SSTORE AND PUSH32 0x8BE0079C531659141344CD1FD0A4F28419497F9722A3DAAFE3B4186F6B6457E0 PUSH1 0x0 DUP1 LOG3 STOP JUMPDEST PUSH1 0x40 MLOAD PUSH4 0x1E4FBDF7 PUSH1 0xE0 SHL DUP2 MSTORE PUSH1 0x0 PUSH1 0x4 DUP3 ADD MSTORE PUSH1 0x24 SWAP1 REVERT JUMPDEST CALLVALUE PUSH2 0x1B8 JUMPI PUSH1 0x20 CALLDATASIZE PUSH1 0x3 NOT ADD SLT PUSH2 0x1B8 JUMPI PUSH1 0x4 CALLDATALOAD PUSH1 0x0 MSTORE PUSH1 0x5 PUSH1 0x20 MSTORE PUSH1 0x20 PUSH1 0xFF PUSH1 0x2 PUSH1 0x40 PUSH1 0x0 KECCAK256 ADD SLOAD AND PUSH1 0x40 MLOAD SWAP1 ISZERO ISZERO DUP2 MSTORE RETURN JUMPDEST CALLVALUE PUSH2 0x1B8 JUMPI PUSH1 0x40 CALLDATASIZE PUSH1 0x3 NOT ADD SLT PUSH2 0x1B8 JUMPI PUSH1 0x1 PUSH1 0x1 PUSH1 0x40 SHL SUB PUSH1 0x4 CALLDATALOAD PUSH1 0x24 CALLDATALOAD DUP3 DUP2 GT PUSH2 0x1B8 JUMPI PUSH2 0x2B3 SWAP1 CALLDATASIZE SWAP1 PUSH1 0x4 ADD PUSH2 0x1710 JUMP JUMPDEST PUSH2 0x2BE SWAP4 SWAP2 SWAP4 PUSH2 0x198D JUMP JUMPDEST PUSH1 0x7 SLOAD PUSH1 0x40 MLOAD PUSH4 0x70A08231 PUSH1 0xE0 SHL DUP2 MSTORE CALLER PUSH1 0x4 DUP3 ADD MSTORE PUSH1 0x20 SWAP6 SWAP2 DUP7 SWAP1 DUP3 SWAP1 PUSH1 0x24 SWAP1 DUP3 SWAP1 PUSH1 0x1 PUSH1 0x1 PUSH1 0xA0 SHL SUB AND GAS STATICCALL DUP1 ISZERO PUSH2 0x4BA JUMPI PUSH1 0x0 SWAP1 PUSH2 0x484 JUMPI JUMPDEST PUSH9 0x3635C9ADC5DEA00000 SWAP2 POP LT PUSH2 0x427 JUMPI PUSH2 0x333 PUSH2 0x325 SWAP2 PUSH1 0x40 MLOAD SWAP3 DUP4 SWAP2 DUP9 DUP4 ADD SWAP6 CALLER SWAP2 DUP10 DUP9 PUSH2 0x1934 JUMP JUMPDEST SUB PUSH1 0x1F NOT DUP2 ADD DUP4 MSTORE DUP3 PUSH2 0x173D JUMP JUMPDEST MLOAD SWAP1 KECCAK256 SWAP2 DUP3 PUSH1 0x0 MSTORE PUSH1 0x5 DUP5 MSTORE PUSH1 0x40 PUSH1 0x0 KECCAK256 SLOAD PUSH2 0x3E2 JUMPI PUSH1 0x40 MLOAD SWAP2 PUSH1 0x60 DUP4 ADD SWAP1 DUP2 GT DUP4 DUP3 LT OR PUSH2 0x3CC JUMPI PUSH1 0x40 MSTORE DUP2 MSTORE PUSH1 0x2 DUP4 DUP3 ADD SWAP2 NUMBER DUP4 MSTORE PUSH1 0x40 DUP2 ADD SWAP3 PUSH1 0x0 DUP5 MSTORE DUP5 PUSH1 0x0 MSTORE PUSH1 0x5 DUP7 MSTORE PUSH1 0x40 PUSH1 0x0 KECCAK256 SWAP2 MLOAD DUP3 SSTORE MLOAD PUSH1 0x1 DUP3 ADD SSTORE ADD SWAP1 MLOAD ISZERO ISZERO PUSH1 0xFF DUP1 NOT DUP4 SLOAD AND SWAP2 AND OR SWAP1 SSTORE PUSH32 0x71A5C7B15B05487C69F637CB029D1AFED660993B500F1A407ECE0E17A891B388 PUSH1 0x40 MLOAD SWAP3 NUMBER DUP5 MSTORE CALLER SWAP4 LOG3 PUSH1 0x1 DUP1 SSTORE STOP JUMPDEST PUSH4 0x4E487B71 PUSH1 0xE0 SHL PUSH1 0x0 MSTORE PUSH1 0x41 PUSH1 0x4 MSTORE PUSH1 0x24 PUSH1 0x0 REVERT JUMPDEST PUSH1 0x40 MLOAD PUSH3 0x461BCD PUSH1 0xE5 SHL DUP2 MSTORE PUSH1 0x4 DUP2 ADD DUP6 SWAP1 MSTORE PUSH1 0x19 PUSH1 0x24 DUP3 ADD MSTORE PUSH32 0x436F6D6D69746D656E7420616C72656164792065786973747300000000000000 PUSH1 0x44 DUP3 ADD MSTORE PUSH1 0x64 SWAP1 REVERT JUMPDEST PUSH1 0x40 MLOAD PUSH3 0x461BCD PUSH1 0xE5 SHL DUP2 MSTORE PUSH1 0x4 DUP2 ADD DUP7 SWAP1 MSTORE PUSH1 0x2F PUSH1 0x24 DUP3 ADD MSTORE PUSH32 0x496E73756666696369656E7420746F6B656E2062616C616E636520666F722074 PUSH1 0x44 DUP3 ADD MSTORE PUSH15 0x6872656174207265706F7274696E67 PUSH1 0x88 SHL PUSH1 0x64 DUP3 ADD MSTORE PUSH1 0x84 SWAP1 REVERT JUMPDEST POP DUP6 DUP2 DUP2 RETURNDATASIZE DUP4 GT PUSH2 0x4B3 JUMPI JUMPDEST PUSH2 0x49A DUP2 DUP4 PUSH2 0x173D JUMP JUMPDEST DUP2 ADD SUB SLT PUSH2 0x1B8 JUMPI PUSH9 0x3635C9ADC5DEA00000 SWAP1 MLOAD PUSH2 0x2FA JUMP JUMPDEST POP RETURNDATASIZE PUSH2 0x490 JUMP JUMPDEST PUSH1 0x40 MLOAD RETURNDATASIZE PUSH1 0x0 DUP3 RETURNDATACOPY RETURNDATASIZE SWAP1 REVERT JUMPDEST CALLVALUE PUSH2 0x1B8 JUMPI PUSH1 0x20 CALLDATASIZE PUSH1 0x3 NOT ADD SLT PUSH2 0x1B8 JUMPI PUSH1 0x4 CALLDATALOAD PUSH1 0x0 MSTORE PUSH1 0x5 PUSH1 0x20 MSTORE PUSH1 0x40 PUSH1 0x0 KECCAK256 DUP1 SLOAD ISZERO ISZERO SWAP1 DUP2 PUSH2 0x536 JUMPI JUMPDEST DUP2 PUSH2 0x505 JUMPI JUMPDEST PUSH1 0x20 DUP3 PUSH1 0x40 MLOAD SWAP1 ISZERO ISZERO DUP2 MSTORE RETURN JUMPDEST PUSH1 0x1 SWAP2 POP ADD SLOAD PUSH1 0xA DUP2 ADD DUP1 SWAP2 GT PUSH2 0x520 JUMPI NUMBER LT ISZERO PUSH1 0x20 PUSH2 0x4F8 JUMP JUMPDEST PUSH4 0x4E487B71 PUSH1 0xE0 SHL PUSH1 0x0 MSTORE PUSH1 0x11 PUSH1 0x4 MSTORE PUSH1 0x24 PUSH1 0x0 REVERT JUMPDEST PUSH1 0x2 DUP2 ADD SLOAD PUSH1 0xFF AND ISZERO SWAP2 POP PUSH2 0x4F2 JUMP JUMPDEST CALLVALUE PUSH2 0x1B8 JUMPI PUSH1 0x0 CALLDATASIZE PUSH1 0x3 NOT ADD SLT PUSH2 0x1B8 JUMPI PUSH1 0x7 SLOAD PUSH1 0x40 MLOAD PUSH1 0x1 PUSH1 0x1 PUSH1 0xA0 SHL SUB SWAP1 SWAP2 AND DUP2 MSTORE PUSH1 0x20 SWAP1 RETURN JUMPDEST CALLVALUE PUSH2 0x1B8 JUMPI PUSH1 0x0 CALLDATASIZE PUSH1 0x3 NOT ADD SLT PUSH2 0x1B8 JUMPI PUSH1 0x20 PUSH1 0x40 MLOAD PUSH1 0x3 DUP2 MSTORE RETURN JUMPDEST CALLVALUE PUSH2 0x1B8 JUMPI PUSH1 0x20 CALLDATASIZE PUSH1 0x3 NOT ADD SLT PUSH2 0x1B8 JUMPI PUSH1 0x4 CALLDATALOAD PUSH1 0x1 PUSH1 0x1 PUSH1 0x40 SHL SUB DUP2 GT PUSH2 0x1B8 JUMPI PUSH2 0x5BD PUSH1 0x20 SWAP2 CALLDATASIZE SWAP1 PUSH1 0x4 ADD PUSH2 0x1710 JUMP JUMPDEST SWAP2 SWAP1 PUSH2 0x5C7 PUSH2 0x1961 JUMP JUMPDEST DUP3 PUSH1 0x40 MLOAD SWAP4 DUP5 SWAP3 DUP4 CALLDATACOPY DUP2 ADD PUSH1 0x2 DUP2 MSTORE SUB ADD SWAP1 KECCAK256 DUP1 SLOAD PUSH1 0xFF DUP2 AND ISZERO PUSH2 0x5F5 JUMPI PUSH1 0xFF NOT AND DUP2 SSTORE PUSH1 0x0 PUSH1 0x3 SWAP1 SWAP2 ADD SSTORE STOP JUMPDEST PUSH1 0x40 MLOAD PUSH3 0x461BCD PUSH1 0xE5 SHL DUP2 MSTORE PUSH1 0x20 PUSH1 0x4 DUP3 ADD MSTORE PUSH1 0x14 PUSH1 0x24 DUP3 ADD MSTORE PUSH20 0x151A1C99585D081B9BDD0818DBDB999A5C9B5959 PUSH1 0x62 SHL PUSH1 0x44 DUP3 ADD MSTORE PUSH1 0x64 SWAP1 REVERT JUMPDEST CALLVALUE PUSH2 0x1B8 JUMPI PUSH1 0x0 CALLDATASIZE PUSH1 0x3 NOT ADD SLT PUSH2 0x1B8 JUMPI PUSH1 0x20 PUSH1 0x40 MLOAD PUSH1 0x64 DUP2 MSTORE RETURN JUMPDEST CALLVALUE PUSH2 0x1B8 JUMPI PUSH1 0x20 CALLDATASIZE PUSH1 0x3 NOT ADD SLT PUSH2 0x1B8 JUMPI PUSH1 0x4 CALLDATALOAD PUSH1 0x1 PUSH1 0x1 PUSH1 0x40 SHL SUB DUP2 GT PUSH2 0x1B8 JUMPI PUSH1 0xFF PUSH1 0x20 PUSH2 0x682 DUP2 SWAP4 CALLDATASIZE SWAP1 PUSH1 0x4 ADD PUSH2 0x1710 JUMP JUMPDEST SWAP2 SWAP1 DUP3 PUSH1 0x40 MLOAD SWAP4 DUP5 SWAP3 DUP4 CALLDATACOPY DUP2 ADD PUSH1 0x6 DUP2 MSTORE SUB ADD SWAP1 KECCAK256 SLOAD AND PUSH1 0x40 MLOAD SWAP1 ISZERO ISZERO DUP2 MSTORE RETURN JUMPDEST CALLVALUE PUSH2 0x1B8 JUMPI PUSH1 0x0 CALLDATASIZE PUSH1 0x3 NOT ADD SLT PUSH2 0x1B8 JUMPI PUSH1 0x20 PUSH1 0x40 MLOAD PUSH1 0xA DUP2 MSTORE RETURN JUMPDEST CALLVALUE PUSH2 0x1B8 JUMPI PUSH1 0x0 CALLDATASIZE PUSH1 0x3 NOT ADD SLT PUSH2 0x1B8 JUMPI PUSH1 0x0 SLOAD PUSH1 0x40 MLOAD PUSH1 0x1 PUSH1 0x1 PUSH1 0xA0 SHL SUB SWAP1 SWAP2 AND DUP2 MSTORE PUSH1 0x20 SWAP1 RETURN JUMPDEST CALLVALUE PUSH2 0x1B8 JUMPI PUSH1 0x20 CALLDATASIZE PUSH1 0x3 NOT ADD SLT PUSH2 0x1B8 JUMPI PUSH1 0x4 CALLDATALOAD PUSH1 0x1 PUSH1 0x1 PUSH1 0x40 SHL SUB DUP2 GT PUSH2 0x1B8 JUMPI PUSH2 0x718 SWAP1 CALLDATASIZE SWAP1 PUSH1 0x4 ADD PUSH2 0x1710 JUMP JUMPDEST SWAP1 PUSH2 0x721 PUSH2 0x1961 JUMP JUMPDEST PUSH1 0x40 MLOAD DUP3 DUP3 DUP3 CALLDATACOPY PUSH1 0x20 DUP2 DUP5 DUP2 ADD PUSH1 0x6 DUP2 MSTORE SUB ADD SWAP1 KECCAK256 PUSH1 0xFF NOT DUP2 SLOAD AND SWAP1 SSTORE DUP2 PUSH1 0x40 MLOAD SWAP3 DUP4 SWAP3 DUP4 CALLDATACOPY DUP2 ADD PUSH1 0x0 DUP2 MSTORE SUB SWAP1 KECCAK256 PUSH32 0x938BD9E1BA5482C8B35A66C1B5454438EA3CAC2FA4BD57A7D3F6194BC9F7B8B5 PUSH1 0x20 PUSH1 0x40 MLOAD PUSH1 0x0 DUP2 MSTORE LOG2 STOP JUMPDEST CALLVALUE PUSH2 0x1B8 JUMPI PUSH1 0x20 CALLDATASIZE PUSH1 0x3 NOT ADD SLT PUSH2 0x1B8 JUMPI PUSH1 0x4 CALLDATALOAD PUSH1 0x0 MSTORE PUSH1 0x5 PUSH1 0x20 MSTORE PUSH1 0x60 PUSH1 0x40 PUSH1 0x0 KECCAK256 DUP1 SLOAD SWAP1 PUSH1 0xFF PUSH1 0x2 PUSH1 0x1 DUP4 ADD SLOAD SWAP3 ADD SLOAD AND SWAP1 PUSH1 0x40 MLOAD SWAP3 DUP4 MSTORE PUSH1 0x20 DUP4 ADD MSTORE ISZERO ISZERO PUSH1 0x40 DUP3 ADD MSTORE RETURN JUMPDEST CALLVALUE PUSH2 0x1B8 JUMPI PUSH1 0x20 DUP1 PUSH1 0x3 NOT CALLDATASIZE ADD SLT PUSH2 0x1B8 JUMPI PUSH1 0x4 CALLDATALOAD PUSH1 0x1 PUSH1 0x1 PUSH1 0x40 SHL SUB DUP2 GT PUSH2 0x1B8 JUMPI PUSH2 0x7F6 SWAP1 CALLDATASIZE SWAP1 PUSH1 0x4 ADD PUSH2 0x1710 JUMP JUMPDEST SWAP1 SWAP2 PUSH1 0x40 MLOAD DUP3 DUP5 DUP3 CALLDATACOPY DUP2 DUP2 DUP5 DUP2 ADD PUSH1 0x2 DUP2 MSTORE SUB ADD SWAP1 KECCAK256 PUSH1 0xFF DUP2 SLOAD AND PUSH2 0x8E7 JUMPI CALLER PUSH1 0x0 MSTORE PUSH1 0x4 DUP3 MSTORE PUSH1 0xFF PUSH2 0x82E PUSH1 0x40 PUSH1 0x0 KECCAK256 DUP6 DUP8 PUSH2 0x191B JUMP JUMPDEST SLOAD AND ISZERO PUSH2 0x8A2 JUMPI PUSH1 0x1 ADD SWAP1 DUP2 SLOAD SWAP2 DUP3 ISZERO PUSH2 0x520 JUMPI PUSH1 0x4 SWAP3 PUSH1 0x0 NOT ADD SWAP1 SSTORE CALLER PUSH1 0x0 MSTORE MSTORE PUSH2 0x85F PUSH1 0x40 PUSH1 0x0 KECCAK256 DUP3 DUP5 PUSH2 0x191B JUMP JUMPDEST PUSH1 0xFF NOT DUP2 SLOAD AND SWAP1 SSTORE DUP1 PUSH1 0x40 MLOAD SWAP3 DUP4 CALLDATACOPY DUP2 ADD SWAP1 PUSH1 0x0 DUP3 MSTORE DUP1 CALLER SWAP3 SUB SWAP1 KECCAK256 PUSH32 0x7B5435DE93DBC462C76A81300843964FC8533B062126C250E72909BA19B7221F PUSH1 0x0 DUP1 LOG3 STOP JUMPDEST PUSH1 0x40 MLOAD PUSH3 0x461BCD PUSH1 0xE5 SHL DUP2 MSTORE PUSH1 0x4 DUP2 ADD DUP4 SWAP1 MSTORE PUSH1 0x1C PUSH1 0x24 DUP3 ADD MSTORE PUSH32 0x596F7520686176656E2774207265706F72746564207468697320495000000000 PUSH1 0x44 DUP3 ADD MSTORE PUSH1 0x64 SWAP1 REVERT JUMPDEST PUSH1 0x40 MLOAD PUSH3 0x461BCD PUSH1 0xE5 SHL DUP2 MSTORE PUSH1 0x4 DUP2 ADD DUP4 SWAP1 MSTORE PUSH1 0x18 PUSH1 0x24 DUP3 ADD MSTORE PUSH32 0x54687265617420616C726561647920636F6E6669726D65640000000000000000 PUSH1 0x44 DUP3 ADD MSTORE PUSH1 0x64 SWAP1 REVERT JUMPDEST CALLVALUE PUSH2 0x1B8 JUMPI PUSH1 0x20 CALLDATASIZE PUSH1 0x3 NOT ADD SLT PUSH2 0x1B8 JUMPI PUSH1 0x4 CALLDATALOAD PUSH1 0x1 PUSH1 0x1 PUSH1 0x40 SHL SUB DUP2 GT PUSH2 0x1B8 JUMPI PUSH2 0x95C SWAP1 CALLDATASIZE SWAP1 PUSH1 0x4 ADD PUSH2 0x1710 JUMP JUMPDEST SWAP1 PUSH2 0x965 PUSH2 0x1961 JUMP JUMPDEST PUSH1 0x40 MLOAD DUP3 DUP3 DUP3 CALLDATACOPY PUSH1 0x20 DUP2 DUP5 DUP2 ADD PUSH1 0x6 DUP2 MSTORE SUB ADD SWAP1 KECCAK256 PUSH1 0x1 PUSH1 0xFF NOT DUP3 SLOAD AND OR SWAP1 SSTORE DUP2 PUSH1 0x40 MLOAD SWAP3 DUP4 SWAP3 DUP4 CALLDATACOPY DUP2 ADD PUSH1 0x0 DUP2 MSTORE SUB SWAP1 KECCAK256 PUSH32 0x938BD9E1BA5482C8B35A66C1B5454438EA3CAC2FA4BD57A7D3F6194BC9F7B8B5 PUSH1 0x20 PUSH1 0x40 MLOAD PUSH1 0x1 DUP2 MSTORE LOG2 STOP JUMPDEST CALLVALUE PUSH2 0x1B8 JUMPI PUSH1 0x0 CALLDATASIZE PUSH1 0x3 NOT ADD SLT PUSH2 0x1B8 JUMPI PUSH2 0x9DD PUSH2 0x1961 JUMP JUMPDEST PUSH1 0x0 DUP1 SLOAD PUSH1 0x1 PUSH1 0x1 PUSH1 0xA0 SHL SUB NOT DUP2 AND DUP3 SSTORE PUSH1 0x1 PUSH1 0x1 PUSH1 0xA0 SHL SUB AND PUSH32 0x8BE0079C531659141344CD1FD0A4F28419497F9722A3DAAFE3B4186F6B6457E0 DUP3 DUP1 LOG3 STOP JUMPDEST CALLVALUE PUSH2 0x1B8 JUMPI PUSH1 0x40 CALLDATASIZE PUSH1 0x3 NOT ADD SLT PUSH2 0x1B8 JUMPI PUSH1 0x1 PUSH1 0x1 PUSH1 0x40 SHL SUB PUSH1 0x4 CALLDATALOAD DUP2 DUP2 GT PUSH2 0x1B8 JUMPI PUSH2 0xA4E SWAP1 CALLDATASIZE SWAP1 PUSH1 0x4 ADD PUSH2 0x17A4 JUMP JUMPDEST PUSH2 0xA6A PUSH1 0x20 PUSH1 0x24 CALLDATALOAD SWAP3 DUP2 PUSH1 0x40 MLOAD SWAP4 DUP3 DUP6 DUP1 SWAP5 MLOAD SWAP4 DUP5 SWAP3 ADD PUSH2 0x17C2 JUMP JUMPDEST DUP2 ADD PUSH1 0x3 DUP2 MSTORE SUB ADD SWAP1 KECCAK256 SWAP1 DUP2 SLOAD DUP2 LT ISZERO PUSH2 0x1B8 JUMPI PUSH2 0xA87 SWAP2 PUSH2 0x17E5 JUMP JUMPDEST POP SWAP1 PUSH2 0xAF0 DUP3 SLOAD SWAP3 PUSH2 0xAE2 PUSH2 0xAAA PUSH1 0x2 PUSH2 0xAA3 PUSH1 0x1 DUP6 ADD PUSH2 0x1851 JUMP JUMPDEST SWAP4 ADD PUSH2 0x1851 JUMP JUMPDEST SWAP2 PUSH1 0xFF PUSH1 0x40 MLOAD SWAP7 DUP8 SWAP7 PUSH1 0x1 DUP1 PUSH1 0xA0 SHL SUB DUP3 AND DUP9 MSTORE DUP2 PUSH1 0xA0 SHR AND PUSH1 0x20 DUP9 ADD MSTORE PUSH1 0xE0 SHR AND PUSH1 0x40 DUP7 ADD MSTORE PUSH1 0xA0 PUSH1 0x60 DUP7 ADD MSTORE PUSH1 0xA0 DUP6 ADD SWAP1 PUSH2 0x18F6 JUMP JUMPDEST SWAP1 DUP4 DUP3 SUB PUSH1 0x80 DUP6 ADD MSTORE PUSH2 0x18F6 JUMP JUMPDEST SUB SWAP1 RETURN JUMPDEST CALLVALUE PUSH2 0x1B8 JUMPI PUSH1 0x20 CALLDATASIZE PUSH1 0x3 NOT ADD SLT PUSH2 0x1B8 JUMPI PUSH1 0x4 CALLDATALOAD PUSH1 0x1 PUSH1 0x1 PUSH1 0x40 SHL SUB DUP2 GT PUSH2 0x1B8 JUMPI PUSH1 0x20 PUSH2 0xB27 DUP2 SWAP3 CALLDATASIZE SWAP1 PUSH1 0x4 ADD PUSH2 0x1710 JUMP JUMPDEST SWAP2 SWAP1 DUP3 PUSH1 0x40 MLOAD SWAP4 DUP5 SWAP3 DUP4 CALLDATACOPY DUP2 ADD PUSH1 0x3 DUP2 MSTORE SUB ADD SWAP1 KECCAK256 SLOAD PUSH1 0x40 MLOAD SWAP1 DUP2 MSTORE RETURN JUMPDEST CALLVALUE PUSH2 0x1B8 JUMPI PUSH1 0x20 CALLDATASIZE PUSH1 0x3 NOT ADD SLT PUSH2 0x1B8 JUMPI PUSH1 0x4 CALLDATALOAD PUSH1 0x1 PUSH1 0x1 PUSH1 0x40 SHL SUB DUP2 GT PUSH2 0x1B8 JUMPI PUSH1 0x20 PUSH2 0xB7A PUSH2 0xB8D SWAP3 CALLDATASIZE SWAP1 PUSH1 0x4 ADD PUSH2 0x17A4 JUMP JUMPDEST DUP2 PUSH1 0x40 MLOAD SWAP4 DUP3 DUP6 DUP1 SWAP5 MLOAD SWAP4 DUP5 SWAP3 ADD PUSH2 0x17C2 JUMP JUMPDEST DUP2 ADD PUSH1 0x2 DUP2 MSTORE SUB ADD SWAP1 KECCAK256 PUSH1 0xFF DUP2 SLOAD AND PUSH2 0xAF0 PUSH1 0x1 DUP4 ADD SLOAD SWAP3 PUSH1 0x3 PUSH1 0x2 DUP3 ADD SLOAD SWAP2 ADD SLOAD SWAP1 PUSH1 0x40 MLOAD SWAP5 DUP6 SWAP5 DUP6 SWAP1 SWAP5 SWAP4 SWAP3 PUSH1 0x60 SWAP3 PUSH1 0x80 DUP4 ADD SWAP7 ISZERO ISZERO DUP4 MSTORE PUSH1 0x20 DUP4 ADD MSTORE PUSH1 0x40 DUP3 ADD MSTORE ADD MSTORE JUMP JUMPDEST CALLVALUE PUSH2 0x1B8 JUMPI PUSH1 0xC0 CALLDATASIZE PUSH1 0x3 NOT ADD SLT PUSH2 0x1B8 JUMPI PUSH1 0x4 CALLDATALOAD PUSH1 0x1 PUSH1 0x1 PUSH1 0x40 SHL SUB DUP2 GT PUSH2 0x1B8 JUMPI PUSH2 0xC05 SWAP1 CALLDATASIZE SWAP1 PUSH1 0x4 ADD PUSH2 0x1710 JUMP JUMPDEST PUSH1 0x24 CALLDATALOAD PUSH1 0x1 PUSH1 0x1 PUSH1 0x40 SHL SUB DUP2 GT PUSH2 0x1B8 JUMPI PUSH2 0xC24 SWAP1 CALLDATASIZE SWAP1 PUSH1 0x4 ADD PUSH2 0x1710 JUMP JUMPDEST SWAP3 PUSH1 0x44 CALLDATALOAD SWAP3 PUSH1 0xFF DUP5 AND DUP5 SUB PUSH2 0x1B8 JUMPI PUSH1 0x64 CALLDATALOAD PUSH1 0x1 PUSH1 0x1 PUSH1 0x40 SHL SUB DUP2 GT PUSH2 0x1B8 JUMPI PUSH2 0xC52 SWAP1 CALLDATASIZE SWAP1 PUSH1 0x4 ADD PUSH2 0x1710 JUMP JUMPDEST SWAP4 SWAP1 SWAP6 PUSH1 0x84 CALLDATALOAD PUSH1 0x1 PUSH1 0x1 PUSH1 0x40 SHL SUB DUP2 GT PUSH2 0x1B8 JUMPI PUSH2 0xC74 SWAP1 CALLDATASIZE SWAP1 PUSH1 0x4 ADD PUSH2 0x1710 JUMP JUMPDEST SWAP6 SWAP1 SWAP8 PUSH2 0xC7F PUSH2 0x198D JUMP JUMPDEST PUSH1 0x40 MLOAD PUSH1 0x20 DUP2 ADD SWAP1 DUP7 DUP9 DUP4 CALLDATACOPY PUSH2 0xCA5 PUSH1 0x20 DUP3 DUP10 DUP2 ADD PUSH1 0x0 DUP4 DUP3 ADD MSTORE SUB DUP1 DUP5 MSTORE ADD DUP3 PUSH2 0x173D JUMP JUMPDEST MLOAD SWAP1 KECCAK256 PUSH1 0x40 MLOAD PUSH2 0xCBF DUP2 PUSH2 0x325 CALLER DUP9 DUP11 DUP8 PUSH1 0x20 DUP7 ADD PUSH2 0x1934 JUMP JUMPDEST PUSH1 0x20 DUP2 MLOAD SWAP2 ADD KECCAK256 PUSH1 0x0 MSTORE PUSH1 0x5 PUSH1 0x20 MSTORE PUSH1 0x40 PUSH1 0x0 KECCAK256 SWAP1 DUP2 SLOAD SWAP1 DUP2 ISZERO PUSH2 0x1437 JUMPI PUSH1 0x2 DUP4 ADD SLOAD SWAP2 PUSH1 0xFF DUP4 AND PUSH2 0x13F2 JUMPI PUSH1 0x1 DUP5 ADD SLOAD PUSH1 0xA DUP2 ADD DUP1 SWAP2 GT PUSH2 0x520 JUMPI NUMBER LT PUSH2 0x13AD JUMPI SUB PUSH2 0x1378 JUMPI PUSH1 0x1 PUSH1 0x2 SWAP2 PUSH1 0xFF NOT AND OR SWAP2 ADD SSTORE PUSH1 0xFF PUSH1 0x40 MLOAD DUP7 DUP9 DUP3 CALLDATACOPY PUSH1 0x20 DUP2 DUP9 DUP2 ADD PUSH1 0x6 DUP2 MSTORE SUB ADD SWAP1 KECCAK256 SLOAD AND PUSH2 0x133E JUMPI PUSH1 0x64 PUSH1 0xFF DUP10 AND GT PUSH2 0x1301 JUMPI DUP5 ISZERO PUSH2 0x12C7 JUMPI DUP2 ISZERO PUSH2 0x1282 JUMPI PUSH1 0x40 MLOAD DUP6 DUP8 DUP3 CALLDATACOPY PUSH1 0x20 DUP2 DUP8 DUP2 ADD PUSH1 0x2 DUP2 MSTORE SUB ADD SWAP1 KECCAK256 SWAP8 CALLER PUSH1 0x0 MSTORE PUSH1 0x4 PUSH1 0x20 MSTORE PUSH1 0xFF PUSH2 0xD77 PUSH1 0x40 PUSH1 0x0 KECCAK256 DUP9 DUP11 PUSH2 0x191B JUMP JUMPDEST SLOAD AND PUSH2 0x123D JUMPI PUSH1 0x40 MLOAD DUP7 DUP9 DUP3 CALLDATACOPY PUSH1 0x20 DUP2 DUP9 DUP2 ADD PUSH1 0x3 DUP2 MSTORE SUB ADD SWAP1 KECCAK256 SWAP2 PUSH1 0x40 MLOAD SWAP4 DUP5 PUSH1 0xA0 DUP2 ADD LT PUSH1 0x1 PUSH1 0x1 PUSH1 0x40 SHL SUB PUSH1 0xA0 DUP8 ADD GT OR PUSH2 0x3CC JUMPI PUSH1 0xFF PUSH2 0xDDB SWAP4 PUSH1 0xA0 DUP8 ADD PUSH1 0x40 MSTORE CALLER DUP8 MSTORE PUSH1 0x1 PUSH1 0x1 PUSH1 0x40 SHL SUB TIMESTAMP AND PUSH1 0x20 DUP9 ADD MSTORE AND PUSH1 0x40 DUP7 ADD MSTORE CALLDATASIZE SWAP2 PUSH2 0x175E JUMP JUMPDEST PUSH1 0x60 DUP4 ADD MSTORE PUSH2 0xDEB CALLDATASIZE DUP9 DUP12 PUSH2 0x175E JUMP JUMPDEST PUSH1 0x80 DUP4 ADD MSTORE DUP1 SLOAD PUSH9 0x10000000000000000 DUP2 LT ISZERO PUSH2 0x3CC JUMPI PUSH2 0xE12 SWAP2 PUSH1 0x1 DUP3 ADD DUP2 SSTORE PUSH2 0x17E5 JUMP JUMPDEST SWAP2 SWAP1 SWAP2 PUSH2 0x1227 JUMPI DUP1 MLOAD DUP3 SLOAD PUSH1 0x20 DUP4 ADD MLOAD PUSH1 0x40 DUP5 ADD MLOAD PUSH1 0x1 PUSH1 0x1 PUSH1 0xE8 SHL SUB NOT SWAP1 SWAP3 AND PUSH1 0x1 PUSH1 0x1 PUSH1 0xA0 SHL SUB SWAP4 SWAP1 SWAP4 AND SWAP3 SWAP1 SWAP3 OR PUSH1 0xA0 SWAP3 SWAP1 SWAP3 SHL PUSH8 0xFFFFFFFFFFFFFFFF PUSH1 0xA0 SHL AND SWAP2 SWAP1 SWAP2 OR PUSH1 0xE0 SWAP2 SWAP1 SWAP2 SHL PUSH1 0xFF PUSH1 0xE0 SHL AND OR DUP3 SSTORE PUSH1 0x60 DUP2 ADD MLOAD DUP1 MLOAD SWAP1 PUSH1 0x1 PUSH1 0x1 PUSH1 0x40 SHL SUB DUP3 GT PUSH2 0x3CC JUMPI PUSH2 0xE8C PUSH1 0x1 DUP6 ADD SLOAD PUSH2 0x1817 JUMP JUMPDEST PUSH1 0x1F DUP2 GT PUSH2 0x11E0 JUMPI JUMPDEST POP PUSH1 0x20 SWAP1 PUSH1 0x1F DUP4 GT PUSH1 0x1 EQ PUSH2 0x116D JUMPI PUSH1 0x80 SWAP4 SWAP3 SWAP2 PUSH1 0x0 SWAP2 DUP4 PUSH2 0x1162 JUMPI JUMPDEST POP POP DUP2 PUSH1 0x1 SHL SWAP2 PUSH1 0x0 NOT SWAP1 PUSH1 0x3 SHL SHR NOT AND OR PUSH1 0x1 DUP5 ADD SSTORE JUMPDEST ADD MLOAD DUP1 MLOAD SWAP1 PUSH1 0x1 PUSH1 0x1 PUSH1 0x40 SHL SUB DUP3 GT PUSH2 0x3CC JUMPI PUSH2 0xEEA PUSH1 0x2 DUP5 ADD SLOAD PUSH2 0x1817 JUMP JUMPDEST PUSH1 0x1F DUP2 GT PUSH2 0x111B JUMPI JUMPDEST POP PUSH1 0x20 SWAP1 PUSH1 0x1F DUP4 GT PUSH1 0x1 EQ PUSH2 0x10AB JUMPI PUSH1 0x2 SWAP3 SWAP2 PUSH1 0x0 SWAP2 DUP4 PUSH2 0x10A0 JUMPI JUMPDEST POP POP DUP2 PUSH1 0x1 SHL SWAP2 PUSH1 0x0 NOT SWAP1 PUSH1 0x3 SHL SHR NOT AND OR SWAP2 ADD SSTORE JUMPDEST PUSH1 0x1 DUP7 ADD SLOAD PUSH1 0x0 NOT DUP2 EQ PUSH2 0x520 JUMPI PUSH1 0x1 ADD PUSH1 0x1 DUP8 ADD SSTORE PUSH1 0x2 DUP7 ADD SLOAD PUSH1 0xA4 CALLDATALOAD DUP2 ADD DUP2 GT PUSH2 0x520 JUMPI PUSH1 0xA4 CALLDATALOAD ADD PUSH1 0x2 DUP8 ADD SSTORE CALLER PUSH1 0x0 MSTORE PUSH1 0x4 PUSH1 0x20 MSTORE PUSH2 0xF6C PUSH1 0x40 PUSH1 0x0 KECCAK256 DUP5 DUP7 PUSH2 0x191B JUMP JUMPDEST DUP1 SLOAD PUSH1 0xFF NOT AND PUSH1 0x1 OR SWAP1 SSTORE PUSH1 0x40 MLOAD DUP4 DUP6 DUP3 CALLDATACOPY DUP1 DUP5 DUP2 ADD PUSH1 0x0 DUP2 MSTORE SUB SWAP1 KECCAK256 SWAP2 DUP2 PUSH1 0x40 MLOAD SWAP3 DUP4 SWAP3 DUP4 CALLDATACOPY DUP2 ADD PUSH1 0x0 DUP2 MSTORE SUB SWAP1 KECCAK256 SWAP1 CALLER SWAP1 PUSH32 0x6AF06155AD45086A03422080EDB53A9699504A58687C94DBC760162E14A03D39 PUSH1 0x0 DUP1 LOG4 PUSH1 0x40 MLOAD DUP2 DUP4 DUP3 CALLDATACOPY DUP2 DUP2 ADD SWAP1 PUSH1 0x0 DUP3 MSTORE DUP1 CALLER SWAP3 SUB SWAP1 KECCAK256 PUSH32 0x98C490D5A37F962CA3695FA9E919347E3467F30F0F78C3BE4F9415C7315122C3 PUSH1 0x0 DUP1 LOG3 DUP4 SLOAD SWAP2 PUSH1 0xFF DUP4 AND ISZERO DUP1 PUSH2 0x1091 JUMPI JUMPDEST PUSH2 0x1017 JUMPI JUMPDEST PUSH1 0x1 DUP1 SSTORE STOP JUMPDEST PUSH32 0x96515B5CE7946C8549790B0152EE3A0C7B388C40A8115AC999A5F919AB4B240C SWAP5 PUSH1 0x1 PUSH1 0x40 SWAP5 PUSH1 0xFF NOT AND OR DUP2 SSTORE PUSH1 0x3 TIMESTAMP SWAP2 ADD SSTORE DUP2 DUP4 MLOAD SWAP3 DUP4 SWAP3 DUP4 CALLDATACOPY DUP2 ADD PUSH1 0x0 DUP2 MSTORE SUB SWAP1 KECCAK256 SWAP4 DUP3 DUP3 MLOAD SWAP4 DUP5 SWAP3 PUSH1 0x20 DUP5 MSTORE DUP2 PUSH1 0x20 DUP6 ADD MSTORE DUP5 DUP5 ADD CALLDATACOPY PUSH1 0x0 DUP3 DUP3 ADD DUP5 ADD MSTORE PUSH1 0x1F ADD PUSH1 0x1F NOT AND DUP2 ADD SUB ADD SWAP1 LOG2 DUP1 DUP1 DUP1 DUP1 DUP1 DUP1 PUSH2 0x1011 JUMP JUMPDEST POP PUSH1 0x3 PUSH1 0x1 DUP7 ADD SLOAD LT ISZERO PUSH2 0x100C JUMP JUMPDEST ADD MLOAD SWAP1 POP DUP12 DUP1 PUSH2 0xF0F JUMP JUMPDEST SWAP1 PUSH1 0x2 DUP5 ADD PUSH1 0x0 MSTORE PUSH1 0x20 PUSH1 0x0 KECCAK256 SWAP2 PUSH1 0x0 JUMPDEST PUSH1 0x1F NOT DUP6 AND DUP2 LT PUSH2 0x1103 JUMPI POP SWAP2 DUP4 SWAP2 PUSH1 0x1 SWAP4 PUSH1 0x2 SWAP6 PUSH1 0x1F NOT DUP2 AND LT PUSH2 0x10EA JUMPI JUMPDEST POP POP POP DUP2 SHL ADD SWAP2 ADD SSTORE PUSH2 0xF25 JUMP JUMPDEST ADD MLOAD PUSH1 0x0 NOT PUSH1 0xF8 DUP5 PUSH1 0x3 SHL AND SHR NOT AND SWAP1 SSTORE DUP12 DUP1 DUP1 PUSH2 0x10DC JUMP JUMPDEST SWAP2 SWAP3 PUSH1 0x20 PUSH1 0x1 DUP2 SWAP3 DUP7 DUP6 ADD MLOAD DUP2 SSTORE ADD SWAP5 ADD SWAP3 ADD PUSH2 0x10BC JUMP JUMPDEST PUSH1 0x2 DUP5 ADD PUSH1 0x0 MSTORE PUSH1 0x20 PUSH1 0x0 KECCAK256 PUSH1 0x1F DUP5 ADD PUSH1 0x5 SHR DUP2 ADD PUSH1 0x20 DUP6 LT PUSH2 0x115B JUMPI JUMPDEST PUSH1 0x1F DUP4 ADD PUSH1 0x5 SHR DUP3 ADD DUP2 LT PUSH2 0x114F JUMPI POP POP PUSH2 0xEF3 JUMP JUMPDEST PUSH1 0x0 DUP2 SSTORE PUSH1 0x1 ADD PUSH2 0x1139 JUMP JUMPDEST POP DUP1 PUSH2 0x1139 JUMP JUMPDEST ADD MLOAD SWAP1 POP DUP13 DUP1 PUSH2 0xEB2 JUMP JUMPDEST SWAP1 PUSH1 0x1 DUP6 ADD PUSH1 0x0 MSTORE PUSH1 0x20 PUSH1 0x0 KECCAK256 SWAP2 PUSH1 0x0 JUMPDEST PUSH1 0x1F NOT DUP6 AND DUP2 LT PUSH2 0x11C8 JUMPI POP SWAP2 DUP4 SWAP2 PUSH1 0x1 SWAP4 PUSH1 0x80 SWAP7 SWAP6 PUSH1 0x1F NOT DUP2 AND LT PUSH2 0x11AF JUMPI JUMPDEST POP POP POP DUP2 SHL ADD PUSH1 0x1 DUP5 ADD SSTORE PUSH2 0xECA JUMP JUMPDEST ADD MLOAD PUSH1 0x0 NOT PUSH1 0xF8 DUP5 PUSH1 0x3 SHL AND SHR NOT AND SWAP1 SSTORE DUP13 DUP1 DUP1 PUSH2 0x119F JUMP JUMPDEST SWAP2 SWAP3 PUSH1 0x20 PUSH1 0x1 DUP2 SWAP3 DUP7 DUP6 ADD MLOAD DUP2 SSTORE ADD SWAP5 ADD SWAP3 ADD PUSH2 0x117E JUMP JUMPDEST PUSH1 0x1 DUP6 ADD PUSH1 0x0 MSTORE PUSH1 0x20 PUSH1 0x0 KECCAK256 PUSH1 0x1F DUP5 ADD PUSH1 0x5 SHR DUP2 ADD PUSH1 0x20 DUP6 LT PUSH2 0x1220 JUMPI JUMPDEST PUSH1 0x1F DUP4 ADD PUSH1 0x5 SHR DUP3 ADD DUP2 LT PUSH2 0x1214 JUMPI POP POP PUSH2 0xE95 JUMP JUMPDEST PUSH1 0x0 DUP2 SSTORE PUSH1 0x1 ADD PUSH2 0x11FE JUMP JUMPDEST POP DUP1 PUSH2 0x11FE JUMP JUMPDEST PUSH4 0x4E487B71 PUSH1 0xE0 SHL PUSH1 0x0 MSTORE PUSH1 0x0 PUSH1 0x4 MSTORE PUSH1 0x24 PUSH1 0x0 REVERT JUMPDEST PUSH1 0x40 MLOAD PUSH3 0x461BCD PUSH1 0xE5 SHL DUP2 MSTORE PUSH1 0x20 PUSH1 0x4 DUP3 ADD MSTORE PUSH1 0x18 PUSH1 0x24 DUP3 ADD MSTORE PUSH32 0x416C7265616479207265706F7274656420746869732049500000000000000000 PUSH1 0x44 DUP3 ADD MSTORE PUSH1 0x64 SWAP1 REVERT JUMPDEST PUSH1 0x40 MLOAD PUSH3 0x461BCD PUSH1 0xE5 SHL DUP2 MSTORE PUSH1 0x20 PUSH1 0x4 DUP3 ADD MSTORE PUSH1 0x18 PUSH1 0x24 DUP3 ADD MSTORE PUSH32 0x4C6F6720686173682063616E6E6F7420626520656D7074790000000000000000 PUSH1 0x44 DUP3 ADD MSTORE PUSH1 0x64 SWAP1 REVERT JUMPDEST PUSH1 0x40 MLOAD PUSH3 0x461BCD PUSH1 0xE5 SHL DUP2 MSTORE PUSH1 0x20 PUSH1 0x4 DUP3 ADD MSTORE PUSH1 0x12 PUSH1 0x24 DUP3 ADD MSTORE PUSH18 0x49502063616E6E6F7420626520656D707479 PUSH1 0x70 SHL PUSH1 0x44 DUP3 ADD MSTORE PUSH1 0x64 SWAP1 REVERT JUMPDEST PUSH1 0x40 MLOAD PUSH3 0x461BCD PUSH1 0xE5 SHL DUP2 MSTORE PUSH1 0x20 PUSH1 0x4 DUP3 ADD MSTORE PUSH1 0x15 PUSH1 0x24 DUP3 ADD MSTORE PUSH21 0x435055206C6F6164206F7574206F662072616E6765 PUSH1 0x58 SHL PUSH1 0x44 DUP3 ADD MSTORE PUSH1 0x64 SWAP1 REVERT JUMPDEST PUSH1 0x40 MLOAD PUSH3 0x461BCD PUSH1 0xE5 SHL DUP2 MSTORE PUSH1 0x20 PUSH1 0x4 DUP3 ADD MSTORE PUSH1 0x12 PUSH1 0x24 DUP3 ADD MSTORE PUSH18 0x1254081A5CC81A5B881DDA1A5D195B1A5CDD PUSH1 0x72 SHL PUSH1 0x44 DUP3 ADD MSTORE PUSH1 0x64 SWAP1 REVERT JUMPDEST PUSH1 0x40 MLOAD PUSH3 0x461BCD PUSH1 0xE5 SHL DUP2 MSTORE PUSH1 0x20 PUSH1 0x4 DUP3 ADD MSTORE PUSH1 0xD PUSH1 0x24 DUP3 ADD MSTORE PUSH13 0x90C2E6D040DAD2E6DAC2E8C6D PUSH1 0x9B SHL PUSH1 0x44 DUP3 ADD MSTORE PUSH1 0x64 SWAP1 REVERT JUMPDEST PUSH1 0x40 MLOAD PUSH3 0x461BCD PUSH1 0xE5 SHL DUP2 MSTORE PUSH1 0x20 PUSH1 0x4 DUP3 ADD MSTORE PUSH1 0x18 PUSH1 0x24 DUP3 ADD MSTORE PUSH32 0x52657665616C2064656C6179206E6F7420726561636865640000000000000000 PUSH1 0x44 DUP3 ADD MSTORE PUSH1 0x64 SWAP1 REVERT JUMPDEST PUSH1 0x40 MLOAD PUSH3 0x461BCD PUSH1 0xE5 SHL DUP2 MSTORE PUSH1 0x20 PUSH1 0x4 DUP3 ADD MSTORE PUSH1 0x1B PUSH1 0x24 DUP3 ADD MSTORE PUSH32 0x436F6D6D69746D656E7420616C72656164792072657665616C65640000000000 PUSH1 0x44 DUP3 ADD MSTORE PUSH1 0x64 SWAP1 REVERT JUMPDEST PUSH1 0x40 MLOAD PUSH3 0x461BCD PUSH1 0xE5 SHL DUP2 MSTORE PUSH1 0x20 PUSH1 0x4 DUP3 ADD MSTORE PUSH1 0x12 PUSH1 0x24 DUP3 ADD MSTORE PUSH18 0x139BC81CDD58DA0818DBDB5B5A5D1B595B9D PUSH1 0x72 SHL PUSH1 0x44 DUP3 ADD MSTORE PUSH1 0x64 SWAP1 REVERT JUMPDEST CALLVALUE PUSH2 0x1B8 JUMPI PUSH1 0x20 CALLDATASIZE PUSH1 0x3 NOT ADD SLT PUSH2 0x1B8 JUMPI PUSH1 0x4 CALLDATALOAD PUSH1 0x1 PUSH1 0x1 PUSH1 0x40 SHL SUB DUP2 GT PUSH2 0x1B8 JUMPI PUSH2 0x14A3 PUSH1 0x20 SWAP2 CALLDATASIZE SWAP1 PUSH1 0x4 ADD PUSH2 0x1710 JUMP JUMPDEST SWAP2 SWAP1 DUP3 PUSH1 0x40 MLOAD SWAP4 DUP5 SWAP3 DUP4 CALLDATACOPY DUP2 ADD PUSH1 0x2 DUP2 MSTORE SUB ADD SWAP1 KECCAK256 PUSH1 0xFF DUP2 SLOAD AND PUSH2 0xAF0 PUSH1 0x1 DUP4 ADD SLOAD SWAP3 PUSH1 0x3 PUSH1 0x2 DUP3 ADD SLOAD SWAP2 ADD SLOAD SWAP1 PUSH1 0x40 MLOAD SWAP5 DUP6 SWAP5 DUP6 SWAP1 SWAP5 SWAP4 SWAP3 PUSH1 0x60 SWAP3 PUSH1 0x80 DUP4 ADD SWAP7 ISZERO ISZERO DUP4 MSTORE PUSH1 0x20 DUP4 ADD MSTORE PUSH1 0x40 DUP3 ADD MSTORE ADD MSTORE JUMP JUMPDEST CALLVALUE PUSH2 0x1B8 JUMPI PUSH1 0x20 DUP1 PUSH1 0x3 NOT CALLDATASIZE ADD SLT PUSH2 0x1B8 JUMPI PUSH1 0x4 CALLDATALOAD PUSH1 0x1 PUSH1 0x1 PUSH1 0x40 SHL SUB DUP2 GT PUSH2 0x1B8 JUMPI PUSH2 0x1527 SWAP1 CALLDATASIZE SWAP1 PUSH1 0x4 ADD PUSH2 0x1710 JUMP JUMPDEST SWAP1 PUSH2 0x1530 PUSH2 0x1961 JUMP JUMPDEST PUSH1 0xFF PUSH1 0x40 MLOAD DUP4 DUP4 DUP3 CALLDATACOPY DUP5 DUP2 DUP6 DUP2 ADD PUSH1 0x6 DUP2 MSTORE SUB ADD SWAP1 KECCAK256 SLOAD AND PUSH2 0x15D7 JUMPI PUSH32 0x96515B5CE7946C8549790B0152EE3A0C7B388C40A8115AC999A5F919AB4B240C SWAP2 PUSH1 0x60 SWAP2 PUSH1 0x40 MLOAD DUP3 DUP3 DUP3 CALLDATACOPY DUP6 DUP2 DUP5 DUP2 ADD PUSH1 0x2 DUP2 MSTORE SUB ADD SWAP1 KECCAK256 PUSH1 0x1 PUSH1 0xFF NOT DUP3 SLOAD AND OR DUP2 SSTORE PUSH1 0x3 TIMESTAMP SWAP2 ADD SSTORE DUP2 PUSH1 0x40 MLOAD SWAP3 DUP4 SWAP3 DUP4 CALLDATACOPY DUP2 ADD PUSH1 0x0 DUP2 MSTORE SUB SWAP1 KECCAK256 SWAP3 PUSH1 0x16 PUSH1 0x40 MLOAD SWAP2 DUP1 DUP4 MSTORE DUP3 ADD MSTORE PUSH22 0x476F7665726E616E636520466F72636520426C6F636B PUSH1 0x50 SHL PUSH1 0x40 DUP3 ADD MSTORE LOG2 STOP JUMPDEST PUSH1 0x40 MLOAD PUSH3 0x461BCD PUSH1 0xE5 SHL DUP2 MSTORE PUSH1 0x4 DUP2 ADD DUP5 SWAP1 MSTORE PUSH1 0x1D PUSH1 0x24 DUP3 ADD MSTORE PUSH32 0x43616E6E6F7420636F6E6669726D2077686974656C6973746564204950000000 PUSH1 0x44 DUP3 ADD MSTORE PUSH1 0x64 SWAP1 REVERT JUMPDEST CALLVALUE PUSH2 0x1B8 JUMPI PUSH1 0x0 CALLDATASIZE PUSH1 0x3 NOT ADD SLT PUSH2 0x1B8 JUMPI PUSH1 0x20 PUSH1 0x40 MLOAD PUSH9 0x3635C9ADC5DEA00000 DUP2 MSTORE RETURN JUMPDEST CALLVALUE PUSH2 0x1B8 JUMPI PUSH1 0x20 CALLDATASIZE PUSH1 0x3 NOT ADD SLT PUSH2 0x1B8 JUMPI PUSH1 0x4 CALLDATALOAD PUSH1 0x1 PUSH1 0x1 PUSH1 0x40 SHL SUB DUP2 GT PUSH2 0x1B8 JUMPI PUSH1 0xFF PUSH2 0x1678 PUSH1 0x20 PUSH2 0xB7A DUP2 SWAP5 CALLDATASIZE SWAP1 PUSH1 0x4 ADD PUSH2 0x17A4 JUMP JUMPDEST DUP2 ADD PUSH1 0x6 DUP2 MSTORE SUB ADD SWAP1 KECCAK256 SLOAD AND PUSH1 0x40 MLOAD SWAP1 ISZERO ISZERO DUP2 MSTORE RETURN JUMPDEST CALLVALUE PUSH2 0x1B8 JUMPI PUSH1 0x40 CALLDATASIZE PUSH1 0x3 NOT ADD SLT PUSH2 0x1B8 JUMPI PUSH2 0x16A7 PUSH2 0x16FA JUMP JUMPDEST PUSH1 0x24 CALLDATALOAD SWAP1 PUSH1 0x1 PUSH1 0x1 PUSH1 0x40 SHL SUB DUP3 GT PUSH2 0x1B8 JUMPI PUSH2 0x16EE PUSH1 0xFF SWAP2 PUSH2 0x16CF PUSH1 0x20 SWAP5 CALLDATASIZE SWAP1 PUSH1 0x4 ADD PUSH2 0x1710 JUMP JUMPDEST PUSH1 0x1 PUSH1 0x1 PUSH1 0xA0 SHL SUB SWAP1 SWAP3 AND PUSH1 0x0 SWAP1 DUP2 MSTORE PUSH1 0x4 DUP7 MSTORE PUSH1 0x40 SWAP1 KECCAK256 SWAP2 SWAP1 PUSH2 0x191B JUMP JUMPDEST SLOAD AND PUSH1 0x40 MLOAD SWAP1 ISZERO ISZERO DUP2 MSTORE RETURN JUMPDEST PUSH1 0x4 CALLDATALOAD SWAP1 PUSH1 0x1 PUSH1 0x1 PUSH1 0xA0 SHL SUB DUP3 AND DUP3 SUB PUSH2 0x1B8 JUMPI JUMP JUMPDEST SWAP2 DUP2 PUSH1 0x1F DUP5 ADD SLT ISZERO PUSH2 0x1B8 JUMPI DUP3 CALLDATALOAD SWAP2 PUSH1 0x1 PUSH1 0x1 PUSH1 0x40 SHL SUB DUP4 GT PUSH2 0x1B8 JUMPI PUSH1 0x20 DUP4 DUP2 DUP7 ADD SWAP6 ADD ADD GT PUSH2 0x1B8 JUMPI JUMP JUMPDEST SWAP1 PUSH1 0x1F DUP1 NOT SWAP2 ADD AND DUP2 ADD SWAP1 DUP2 LT PUSH1 0x1 PUSH1 0x1 PUSH1 0x40 SHL SUB DUP3 GT OR PUSH2 0x3CC JUMPI PUSH1 0x40 MSTORE JUMP JUMPDEST SWAP3 SWAP2 SWAP3 PUSH1 0x1 PUSH1 0x1 PUSH1 0x40 SHL SUB DUP3 GT PUSH2 0x3CC JUMPI PUSH1 0x40 MLOAD SWAP2 PUSH2 0x1787 PUSH1 0x1F DUP3 ADD PUSH1 0x1F NOT AND PUSH1 0x20 ADD DUP5 PUSH2 0x173D JUMP JUMPDEST DUP3 SWAP5 DUP2 DUP5 MSTORE DUP2 DUP4 ADD GT PUSH2 0x1B8 JUMPI DUP3 DUP2 PUSH1 0x20 SWAP4 DUP5 PUSH1 0x0 SWAP7 ADD CALLDATACOPY ADD ADD MSTORE JUMP JUMPDEST SWAP1 DUP1 PUSH1 0x1F DUP4 ADD SLT ISZERO PUSH2 0x1B8 JUMPI DUP2 PUSH1 0x20 PUSH2 0x17BF SWAP4 CALLDATALOAD SWAP2 ADD PUSH2 0x175E JUMP JUMPDEST SWAP1 JUMP JUMPDEST PUSH1 0x0 JUMPDEST DUP4 DUP2 LT PUSH2 0x17D5 JUMPI POP POP PUSH1 0x0 SWAP2 ADD MSTORE JUMP JUMPDEST DUP2 DUP2 ADD MLOAD DUP4 DUP3 ADD MSTORE PUSH1 0x20 ADD PUSH2 0x17C5 JUMP JUMPDEST DUP1 SLOAD DUP3 LT ISZERO PUSH2 0x1801 JUMPI PUSH1 0x0 MSTORE PUSH1 0x3 PUSH1 0x20 PUSH1 0x0 KECCAK256 SWAP2 MUL ADD SWAP1 PUSH1 0x0 SWAP1 JUMP JUMPDEST PUSH4 0x4E487B71 PUSH1 0xE0 SHL PUSH1 0x0 MSTORE PUSH1 0x32 PUSH1 0x4 MSTORE PUSH1 0x24 PUSH1 0x0 REVERT JUMPDEST SWAP1 PUSH1 0x1 DUP3 DUP2 SHR SWAP3 AND DUP1 ISZERO PUSH2 0x1847 JUMPI JUMPDEST PUSH1 0x20 DUP4 LT EQ PUSH2 0x1831 JUMPI JUMP JUMPDEST PUSH4 0x4E487B71 PUSH1 0xE0 SHL PUSH1 0x0 MSTORE PUSH1 0x22 PUSH1 0x4 MSTORE PUSH1 0x24 PUSH1 0x0 REVERT JUMPDEST SWAP2 PUSH1 0x7F AND SWAP2 PUSH2 0x1826 JUMP JUMPDEST SWAP1 PUSH1 0x40 MLOAD SWAP2 DUP3 PUSH1 0x0 DUP3 SLOAD PUSH2 0x1864 DUP2 PUSH2 0x1817 JUMP JUMPDEST SWAP1 DUP2 DUP5 MSTORE PUSH1 0x20 SWAP5 PUSH1 0x1 SWAP2 PUSH1 0x1 DUP2 AND SWAP1 DUP2 PUSH1 0x0 EQ PUSH2 0x18D4 JUMPI POP PUSH1 0x1 EQ PUSH2 0x1895 JUMPI JUMPDEST POP POP POP PUSH2 0x1893 SWAP3 POP SUB DUP4 PUSH2 0x173D JUMP JUMPDEST JUMP JUMPDEST PUSH1 0x0 SWAP1 DUP2 MSTORE DUP6 DUP2 KECCAK256 SWAP6 SWAP4 POP SWAP2 SWAP1 JUMPDEST DUP2 DUP4 LT PUSH2 0x18BC JUMPI POP POP PUSH2 0x1893 SWAP4 POP DUP3 ADD ADD CODESIZE DUP1 DUP1 PUSH2 0x1884 JUMP JUMPDEST DUP6 SLOAD DUP9 DUP5 ADD DUP6 ADD MSTORE SWAP5 DUP6 ADD SWAP5 DUP8 SWAP5 POP SWAP2 DUP4 ADD SWAP2 PUSH2 0x18A3 JUMP JUMPDEST SWAP3 POP POP POP PUSH2 0x1893 SWAP5 SWAP3 POP PUSH1 0xFF NOT AND DUP3 DUP5 ADD MSTORE ISZERO ISZERO PUSH1 0x5 SHL DUP3 ADD ADD CODESIZE DUP1 DUP1 PUSH2 0x1884 JUMP JUMPDEST SWAP1 PUSH1 0x20 SWAP2 PUSH2 0x190F DUP2 MLOAD DUP1 SWAP3 DUP2 DUP6 MSTORE DUP6 DUP1 DUP7 ADD SWAP2 ADD PUSH2 0x17C2 JUMP JUMPDEST PUSH1 0x1F ADD PUSH1 0x1F NOT AND ADD ADD SWAP1 JUMP JUMPDEST PUSH1 0x20 SWAP2 SWAP3 DUP4 PUSH1 0x40 MLOAD SWAP5 DUP6 SWAP4 DUP5 CALLDATACOPY DUP3 ADD SWAP1 DUP2 MSTORE SUB ADD SWAP1 KECCAK256 SWAP1 JUMP JUMPDEST SWAP1 SWAP3 DUP1 SWAP3 PUSH1 0x34 SWAP6 SWAP5 DUP4 MSTORE PUSH1 0x20 DUP4 ADD CALLDATACOPY ADD SWAP1 PUSH12 0xFFFFFFFFFFFFFFFFFFFFFFFF NOT SWAP1 PUSH1 0x60 SHL AND PUSH1 0x20 DUP3 ADD MSTORE ADD SWAP1 JUMP JUMPDEST PUSH1 0x0 SLOAD PUSH1 0x1 PUSH1 0x1 PUSH1 0xA0 SHL SUB AND CALLER SUB PUSH2 0x1975 JUMPI JUMP JUMPDEST PUSH1 0x40 MLOAD PUSH4 0x118CDAA7 PUSH1 0xE0 SHL DUP2 MSTORE CALLER PUSH1 0x4 DUP3 ADD MSTORE PUSH1 0x24 SWAP1 REVERT JUMPDEST PUSH1 0x2 PUSH1 0x1 SLOAD EQ PUSH2 0x199E JUMPI PUSH1 0x2 PUSH1 0x1 SSTORE JUMP JUMPDEST PUSH1 0x40 MLOAD PUSH4 0x3EE5AEB5 PUSH1 0xE0 SHL DUP2 MSTORE PUSH1 0x4 SWAP1 REVERT INVALID LOG1 PUSH5 0x736F6C6343 STOP ADDMOD XOR STOP EXP "},"methodIdentifiers":{"CONSENSUS_THRESHOLD()":"bca125f0","MAX_CPULOAD()":"b5e16444","MIN_TOKEN_BALANCE()":"113f5100","REVEAL_DELAY()":"a7bc4e30","addToWhitelist(string)":"73e08a47","commitThreatEvidence(bytes32,string)":"e51abf19","commitments(bytes32)":"839df945","evidenceHistory(string,uint256)":"6ee2cfb5","forceConfirm(string)":"199008ec","forceRevoke(string)":"b825fceb","getEvidenceCount(string)":"646986fb","getThreatStatus(string)":"25d4d081","hasAddressReported(address,string)":"07ff4685","hasReported(address,string)":"fd88aa41","isCommitmentRevealed(bytes32)":"f0f041f3","isValidCommitment(bytes32)":"e122352e","isWhitelisted(string)":"b48eea44","orasrsToken()":"d21ee54c","owner()":"8da5cb5b","removeFromWhitelist(string)":"8cbab21f","renounceOwnership()":"715018a6","revealThreatEvidence(string,string,uint8,string,string,uint256)":"37b8710b","revokeThreatReport(string)":"74a0ee31","threatStatus(string)":"3dc3ecef","transferOwnership(address)":"f2fde38b","whitelist(string)":"0d80bf64"}}}}}