{"contracts/IPRiskCalculator.sol":{"IPRiskCalculator":{"abi":[{"inputs":[],"stateMutability":"nonpayable","type":"constructor"},{"inputs":[{"internalType":"enum IPRiskCalculator.AttackType","name":"","type":"uint8"}],"name":"baseScores","outputs":[{"internalType":"uint256","name":"","type":"uint256"}],"stateMutability":"view","type":"function"},{"inputs":[{"internalType":"uint256","name":"currentScore","type":"uint256"},{"internalType":"uint8","name":"attackType","type":"uint8"},{"internalType":"uint256","name":"frequency","type":"uint256"}],"name":"calculateRisk","outputs":[{"internalType":"uint256","name":"newScore","type":"uint256"}],"stateMutability":"view","type":"function"},{"inputs":[{"internalType":"uint256","name":"score","type":"uint256"}],"name":"evaluateRiskLevel","outputs":[{"internalType":"uint8","name":"level","type":"uint8"}],"stateMutability":"pure","type":"function"},{"inputs":[{"internalType":"enum IPRiskCalculator.AttackType","name":"attackType","type":"uint8"},{"internalType":"uint256","name":"newScore","type":"uint256"}],"name":"updateBaseScore","outputs":[],"stateMutability":"nonpayable","type":"function"}],"evm":{"bytecode":{"linkReferences":{},"object":"608060408181523461004e57603c9060006001815280602052601482822055600281526032828220556003815260508282205560048152600a8282205560058152205561026090816100548239f35b600080fdfe6040608081526004908136101561001557600080fd5b600091823560e01c80630f56a16b1461012d5780634af30f8d1461010357806383a429b1146100845763ad3846ae1461004d57600080fd5b34610080576020366003190112610080573591600683101561007d5750610075602092610167565b549051908152f35b80fd5b8280fd5b503461008057816003193601126100805780359060068210156100ff5760243592606484116100bc5750506100b890610167565b5580f35b906020606492519162461bcd60e51b8352820152601760248201527f53636f72652063616e6e6f7420657863656564203130300000000000000000006044820152fd5b8380fd5b50913461007d57602036600319011261007d575060ff61012560209335610225565b915191168152f35b50913461007d57606036600319011261007d576024359060ff8216820361007d5750602092610160916044359135610196565b9051908152f35b6006811015610180576000526000602052604060002090565b634e487b7160e01b600052602160045260246000fd5b919060ff166006811015610180576101ad90610167565b54801561021d575b600191600a8111610214575b60641061020b575b8181029181830414901517156101f55781018091116101f5576103e88082116101f0575090565b905090565b634e487b7160e01b600052601160045260246000fd5b600591506101c9565b600292506101c1565b50600a6101b5565b6032811061024d5760c88110610247576102581161024257600390565b600290565b50600190565b5060009056fea164736f6c6343000818000a","opcodes":"PUSH1 0x80 PUSH1 0x40 DUP2 DUP2 MSTORE CALLVALUE PUSH2 0x4E JUMPI PUSH1 0x3C SWAP1 PUSH1 0x0 PUSH1 0x1 DUP2 MSTORE DUP1 PUSH1 0x20 MSTORE PUSH1 0x14 DUP3 DUP3 KECCAK256 SSTORE PUSH1 0x2 DUP2 MSTORE PUSH1 0x32 DUP3 DUP3 KECCAK256 SSTORE PUSH1 0x3 DUP2 MSTORE PUSH1 0x50 DUP3 DUP3 KECCAK256 SSTORE PUSH1 0x4 DUP2 MSTORE PUSH1 0xA DUP3 DUP3 KECCAK256 SSTORE PUSH1 0x5 DUP2 MSTORE KECCAK256 SSTORE PUSH2 0x260 SWAP1 DUP2 PUSH2 0x54 DUP3 CODECOPY RETURN JUMPDEST PUSH1 0x0 DUP1 REVERT INVALID PUSH1 0x40 PUSH1 0x80 DUP2 MSTORE PUSH1 0x4 SWAP1 DUP2 CALLDATASIZE LT ISZERO PUSH2 0x15 JUMPI PUSH1 0x0 DUP1 REVERT JUMPDEST PUSH1 0x0 SWAP2 DUP3 CALLDATALOAD PUSH1 0xE0 SHR DUP1 PUSH4 0xF56A16B EQ PUSH2 0x12D JUMPI DUP1 PUSH4 0x4AF30F8D EQ PUSH2 0x103 JUMPI DUP1 PUSH4 0x83A429B1 EQ PUSH2 0x84 JUMPI PUSH4 0xAD3846AE EQ PUSH2 0x4D JUMPI PUSH1 0x0 DUP1 REVERT JUMPDEST CALLVALUE PUSH2 0x80 JUMPI PUSH1 0x20 CALLDATASIZE PUSH1 0x3 NOT ADD SLT PUSH2 0x80 JUMPI CALLDATALOAD SWAP2 PUSH1 0x6 DUP4 LT ISZERO PUSH2 0x7D JUMPI POP PUSH2 0x75 PUSH1 0x20 SWAP3 PUSH2 0x167 JUMP JUMPDEST SLOAD SWAP1 MLOAD SWAP1 DUP2 MSTORE RETURN JUMPDEST DUP1 REVERT JUMPDEST DUP3 DUP1 REVERT JUMPDEST POP CALLVALUE PUSH2 0x80 JUMPI DUP2 PUSH1 0x3 NOT CALLDATASIZE ADD SLT PUSH2 0x80 JUMPI DUP1 CALLDATALOAD SWAP1 PUSH1 0x6 DUP3 LT ISZERO PUSH2 0xFF JUMPI PUSH1 0x24 CALLDATALOAD SWAP3 PUSH1 0x64 DUP5 GT PUSH2 0xBC JUMPI POP POP PUSH2 0xB8 SWAP1 PUSH2 0x167 JUMP JUMPDEST SSTORE DUP1 RETURN JUMPDEST SWAP1 PUSH1 0x20 PUSH1 0x64 SWAP3 MLOAD SWAP2 PUSH3 0x461BCD PUSH1 0xE5 SHL DUP4 MSTORE DUP3 ADD MSTORE PUSH1 0x17 PUSH1 0x24 DUP3 ADD MSTORE PUSH32 0x53636F72652063616E6E6F742065786365656420313030000000000000000000 PUSH1 0x44 DUP3 ADD MSTORE REVERT JUMPDEST DUP4 DUP1 REVERT JUMPDEST POP SWAP2 CALLVALUE PUSH2 0x7D JUMPI PUSH1 0x20 CALLDATASIZE PUSH1 0x3 NOT ADD SLT PUSH2 0x7D JUMPI POP PUSH1 0xFF PUSH2 0x125 PUSH1 0x20 SWAP4 CALLDATALOAD PUSH2 0x225 JUMP JUMPDEST SWAP2 MLOAD SWAP2 AND DUP2 MSTORE RETURN JUMPDEST POP SWAP2 CALLVALUE PUSH2 0x7D JUMPI PUSH1 0x60 CALLDATASIZE PUSH1 0x3 NOT ADD SLT PUSH2 0x7D JUMPI PUSH1 0x24 CALLDATALOAD SWAP1 PUSH1 0xFF DUP3 AND DUP3 SUB PUSH2 0x7D JUMPI POP PUSH1 0x20 SWAP3 PUSH2 0x160 SWAP2 PUSH1 0x44 CALLDATALOAD SWAP2 CALLDATALOAD PUSH2 0x196 JUMP JUMPDEST SWAP1 MLOAD SWAP1 DUP2 MSTORE RETURN JUMPDEST PUSH1 0x6 DUP2 LT ISZERO PUSH2 0x180 JUMPI PUSH1 0x0 MSTORE PUSH1 0x0 PUSH1 0x20 MSTORE PUSH1 0x40 PUSH1 0x0 KECCAK256 SWAP1 JUMP JUMPDEST PUSH4 0x4E487B71 PUSH1 0xE0 SHL PUSH1 0x0 MSTORE PUSH1 0x21 PUSH1 0x4 MSTORE PUSH1 0x24 PUSH1 0x0 REVERT JUMPDEST SWAP2 SWAP1 PUSH1 0xFF AND PUSH1 0x6 DUP2 LT ISZERO PUSH2 0x180 JUMPI PUSH2 0x1AD SWAP1 PUSH2 0x167 JUMP JUMPDEST SLOAD DUP1 ISZERO PUSH2 0x21D JUMPI JUMPDEST PUSH1 0x1 SWAP2 PUSH1 0xA DUP2 GT PUSH2 0x214 JUMPI JUMPDEST PUSH1 0x64 LT PUSH2 0x20B JUMPI JUMPDEST DUP2 DUP2 MUL SWAP2 DUP2 DUP4 DIV EQ SWAP1 ISZERO OR ISZERO PUSH2 0x1F5 JUMPI DUP2 ADD DUP1 SWAP2 GT PUSH2 0x1F5 JUMPI PUSH2 0x3E8 DUP1 DUP3 GT PUSH2 0x1F0 JUMPI POP SWAP1 JUMP JUMPDEST SWAP1 POP SWAP1 JUMP JUMPDEST PUSH4 0x4E487B71 PUSH1 0xE0 SHL PUSH1 0x0 MSTORE PUSH1 0x11 PUSH1 0x4 MSTORE PUSH1 0x24 PUSH1 0x0 REVERT JUMPDEST PUSH1 0x5 SWAP2 POP PUSH2 0x1C9 JUMP JUMPDEST PUSH1 0x2 SWAP3 POP PUSH2 0x1C1 JUMP JUMPDEST POP PUSH1 0xA PUSH2 0x1B5 JUMP JUMPDEST PUSH1 0x32 DUP2 LT PUSH2 0x24D JUMPI PUSH1 0xC8 DUP2 LT PUSH2 0x247 JUMPI PUSH2 0x258 GT PUSH2 0x242 JUMPI PUSH1 0x3 SWAP1 JUMP JUMPDEST PUSH1 0x2 SWAP1 JUMP JUMPDEST POP PUSH1 0x1 SWAP1 JUMP JUMPDEST POP PUSH1 0x0 SWAP1 JUMP INVALID LOG1 PUSH5 0x736F6C6343 STOP ADDMOD XOR STOP EXP "},"methodIdentifiers":{"baseScores(uint8)":"ad3846ae","calculateRisk(uint256,uint8,uint256)":"0f56a16b","evaluateRiskLevel(uint256)":"4af30f8d","updateBaseScore(uint8,uint256)":"83a429b1"}}}}}