{"contracts/OnboardingContracts.sol":{"GasSubsidy":{"abi":[{"inputs":[],"stateMutability":"payable","type":"constructor"},{"anonymous":false,"inputs":[{"indexed":true,"internalType":"address","name":"user","type":"address"},{"indexed":false,"internalType":"uint256","name":"amount","type":"uint256"}],"name":"SubsidyRequested","type":"event"},{"inputs":[],"name":"SUBSIDY_AMOUNT","outputs":[{"internalType":"uint256","name":"","type":"uint256"}],"stateMutability":"view","type":"function"},{"inputs":[],"name":"fund","outputs":[],"stateMutability":"payable","type":"function"},{"inputs":[],"name":"getBalance","outputs":[{"internalType":"uint256","name":"","type":"uint256"}],"stateMutability":"view","type":"function"},{"inputs":[{"internalType":"address","name":"","type":"address"}],"name":"hasReceivedSubsidy","outputs":[{"internalType":"bool","name":"","type":"bool"}],"stateMutability":"view","type":"function"},{"inputs":[],"name":"owner","outputs":[{"internalType":"address","name":"","type":"address"}],"stateMutability":"view","type":"function"},{"inputs":[],"name":"requestSubsidy","outputs":[],"stateMutability":"nonpayable","type":"function"},{"inputs":[{"internalType":"address","name":"user","type":"address"}],"name":"requestSubsidyFor","outputs":[],"stateMutability":"nonpayable","type":"function"},{"stateMutability":"payable","type":"receive"}],"evm":{"bytecode":{"linkReferences":{},"object":"60806040819052600180546001600160a01b031916331790556103ef90816100258239f3fe60806040818152600436101561001f575b5050361561001d57600080fd5b005b600091823560e01c9081630511f4b5146102895750806312065fe01461026f57806344c0ccd81461022c5780635713cb89146101825780638da5cb5b1461015a578063b60d4288146101115763d223ebf203610010573461010d578160031936011261010d573382528160205261009c60ff8284205416156102ab565b670de0b6b3a7640000906100b2824710156102f7565b33835282602052808320600160ff198254161790556100e08380808086335af16100da610343565b506103a4565b519081527f9749136d4df99fff40acc624e96e08517a71b78d80f9b4977672f3353e7fbbd360203392a280f35b5080fd5b508160031936011261010d573415610127575080f35b5162461bcd60e51b815260206004820152600d60248201526c4d7573742073656e64204f524160981b6044820152606490fd5b503461010d578160031936011261010d5760015490516001600160a01b039091168152602090f35b503461010d57602036600319011261010d576004356001600160a01b03811691828203610228577f9749136d4df99fff40acc624e96e08517a71b78d80f9b4977672f3353e7fbbd3916020918486528583526101e460ff8288205416156102ab565b61022086808080670de0b6b3a76400008097610202824710156102f7565b8b8352828a52878320805460ff191660011790555af16100da610343565b51908152a280f35b8380fd5b503461010d57602036600319011261010d576004356001600160a01b0381169081900361026b57818360ff926020955280855220541690519015158152f35b8280fd5b503461010d578160031936011261010d5751478152602090f35b83903461010d578160031936011261010d5780670de0b6b3a764000060209252f35b156102b257565b60405162461bcd60e51b815260206004820152601860248201527f416c7265616479207265636569766564207375627369647900000000000000006044820152606490fd5b156102fe57565b60405162461bcd60e51b815260206004820152601d60248201527f496e73756666696369656e7420636f6e74726163742062616c616e63650000006044820152606490fd5b3d1561039f5767ffffffffffffffff903d8281116103895760405192601f8201601f19908116603f01168401908111848210176103895760405282523d6000602084013e565b634e487b7160e01b600052604160045260246000fd5b606090565b156103ab57565b60405162461bcd60e51b815260206004820152600f60248201526e151c985b9cd9995c8819985a5b1959608a1b6044820152606490fdfea164736f6c6343000818000a","opcodes":"PUSH1 0x80 PUSH1 0x40 DUP2 SWAP1 MSTORE PUSH1 0x1 DUP1 SLOAD PUSH1 0x1 PUSH1 0x1 PUSH1 0xA0 SHL SUB NOT AND CALLER OR SWAP1 SSTORE PUSH2 0x3EF SWAP1 DUP2 PUSH2 0x25 DUP3 CODECOPY RETURN INVALID PUSH1 0x80 PUSH1 0x40 DUP2 DUP2 MSTORE PUSH1 0x4 CALLDATASIZE LT ISZERO PUSH2 0x1F JUMPI JUMPDEST POP POP CALLDATASIZE ISZERO PUSH2 0x1D JUMPI PUSH1 0x0 DUP1 REVERT JUMPDEST STOP JUMPDEST PUSH1 0x0 SWAP2 DUP3 CALLDATALOAD PUSH1 0xE0 SHR SWAP1 DUP2 PUSH4 0x511F4B5 EQ PUSH2 0x289 JUMPI POP DUP1 PUSH4 0x12065FE0 EQ PUSH2 0x26F JUMPI DUP1 PUSH4 0x44C0CCD8 EQ PUSH2 0x22C JUMPI DUP1 PUSH4 0x5713CB89 EQ PUSH2 0x182 JUMPI DUP1 PUSH4 0x8DA5CB5B EQ PUSH2 0x15A JUMPI DUP1 PUSH4 0xB60D4288 EQ PUSH2 0x111 JUMPI PUSH4 0xD223EBF2 SUB PUSH2 0x10 JUMPI CALLVALUE PUSH2 0x10D JUMPI DUP2 PUSH1 0x3 NOT CALLDATASIZE ADD SLT PUSH2 0x10D JUMPI CALLER DUP3 MSTORE DUP2 PUSH1 0x20 MSTORE PUSH2 0x9C PUSH1 0xFF DUP3 DUP5 KECCAK256 SLOAD AND ISZERO PUSH2 0x2AB JUMP JUMPDEST PUSH8 0xDE0B6B3A7640000 SWAP1 PUSH2 0xB2 DUP3 SELFBALANCE LT ISZERO PUSH2 0x2F7 JUMP JUMPDEST CALLER DUP4 MSTORE DUP3 PUSH1 0x20 MSTORE DUP1 DUP4 KECCAK256 PUSH1 0x1 PUSH1 0xFF NOT DUP3 SLOAD AND OR SWAP1 SSTORE PUSH2 0xE0 DUP4 DUP1 DUP1 DUP1 DUP7 CALLER GAS CALL PUSH2 0xDA PUSH2 0x343 JUMP JUMPDEST POP PUSH2 0x3A4 JUMP JUMPDEST MLOAD SWAP1 DUP2 MSTORE PUSH32 0x9749136D4DF99FFF40ACC624E96E08517A71B78D80F9B4977672F3353E7FBBD3 PUSH1 0x20 CALLER SWAP3 LOG2 DUP1 RETURN JUMPDEST POP DUP1 REVERT JUMPDEST POP DUP2 PUSH1 0x3 NOT CALLDATASIZE ADD SLT PUSH2 0x10D JUMPI CALLVALUE ISZERO PUSH2 0x127 JUMPI POP DUP1 RETURN JUMPDEST MLOAD PUSH3 0x461BCD PUSH1 0xE5 SHL DUP2 MSTORE PUSH1 0x20 PUSH1 0x4 DUP3 ADD MSTORE PUSH1 0xD PUSH1 0x24 DUP3 ADD MSTORE PUSH13 0x4D7573742073656E64204F5241 PUSH1 0x98 SHL PUSH1 0x44 DUP3 ADD MSTORE PUSH1 0x64 SWAP1 REVERT JUMPDEST POP CALLVALUE PUSH2 0x10D JUMPI DUP2 PUSH1 0x3 NOT CALLDATASIZE ADD SLT PUSH2 0x10D JUMPI PUSH1 0x1 SLOAD SWAP1 MLOAD PUSH1 0x1 PUSH1 0x1 PUSH1 0xA0 SHL SUB SWAP1 SWAP2 AND DUP2 MSTORE PUSH1 0x20 SWAP1 RETURN JUMPDEST POP CALLVALUE PUSH2 0x10D JUMPI PUSH1 0x20 CALLDATASIZE PUSH1 0x3 NOT ADD SLT PUSH2 0x10D JUMPI PUSH1 0x4 CALLDATALOAD PUSH1 0x1 PUSH1 0x1 PUSH1 0xA0 SHL SUB DUP2 AND SWAP2 DUP3 DUP3 SUB PUSH2 0x228 JUMPI PUSH32 0x9749136D4DF99FFF40ACC624E96E08517A71B78D80F9B4977672F3353E7FBBD3 SWAP2 PUSH1 0x20 SWAP2 DUP5 DUP7 MSTORE DUP6 DUP4 MSTORE PUSH2 0x1E4 PUSH1 0xFF DUP3 DUP9 KECCAK256 SLOAD AND ISZERO PUSH2 0x2AB JUMP JUMPDEST PUSH2 0x220 DUP7 DUP1 DUP1 DUP1 PUSH8 0xDE0B6B3A7640000 DUP1 SWAP8 PUSH2 0x202 DUP3 SELFBALANCE LT ISZERO PUSH2 0x2F7 JUMP JUMPDEST DUP12 DUP4 MSTORE DUP3 DUP11 MSTORE DUP8 DUP4 KECCAK256 DUP1 SLOAD PUSH1 0xFF NOT AND PUSH1 0x1 OR SWAP1 SSTORE GAS CALL PUSH2 0xDA PUSH2 0x343 JUMP JUMPDEST MLOAD SWAP1 DUP2 MSTORE LOG2 DUP1 RETURN JUMPDEST DUP4 DUP1 REVERT JUMPDEST POP CALLVALUE PUSH2 0x10D JUMPI PUSH1 0x20 CALLDATASIZE PUSH1 0x3 NOT ADD SLT PUSH2 0x10D JUMPI PUSH1 0x4 CALLDATALOAD PUSH1 0x1 PUSH1 0x1 PUSH1 0xA0 SHL SUB DUP2 AND SWAP1 DUP2 SWAP1 SUB PUSH2 0x26B JUMPI DUP2 DUP4 PUSH1 0xFF SWAP3 PUSH1 0x20 SWAP6 MSTORE DUP1 DUP6 MSTORE KECCAK256 SLOAD AND SWAP1 MLOAD SWAP1 ISZERO ISZERO DUP2 MSTORE RETURN JUMPDEST DUP3 DUP1 REVERT JUMPDEST POP CALLVALUE PUSH2 0x10D JUMPI DUP2 PUSH1 0x3 NOT CALLDATASIZE ADD SLT PUSH2 0x10D JUMPI MLOAD SELFBALANCE DUP2 MSTORE PUSH1 0x20 SWAP1 RETURN JUMPDEST DUP4 SWAP1 CALLVALUE PUSH2 0x10D JUMPI DUP2 PUSH1 0x3 NOT CALLDATASIZE ADD SLT PUSH2 0x10D JUMPI DUP1 PUSH8 0xDE0B6B3A7640000 PUSH1 0x20 SWAP3 MSTORE RETURN JUMPDEST ISZERO PUSH2 0x2B2 JUMPI JUMP JUMPDEST PUSH1 0x40 MLOAD PUSH3 0x461BCD PUSH1 0xE5 SHL DUP2 MSTORE PUSH1 0x20 PUSH1 0x4 DUP3 ADD MSTORE PUSH1 0x18 PUSH1 0x24 DUP3 ADD MSTORE PUSH32 0x416C726561647920726563656976656420737562736964790000000000000000 PUSH1 0x44 DUP3 ADD MSTORE PUSH1 0x64 SWAP1 REVERT JUMPDEST ISZERO PUSH2 0x2FE JUMPI JUMP JUMPDEST PUSH1 0x40 MLOAD PUSH3 0x461BCD PUSH1 0xE5 SHL DUP2 MSTORE PUSH1 0x20 PUSH1 0x4 DUP3 ADD MSTORE PUSH1 0x1D PUSH1 0x24 DUP3 ADD MSTORE PUSH32 0x496E73756666696369656E7420636F6E74726163742062616C616E6365000000 PUSH1 0x44 DUP3 ADD MSTORE PUSH1 0x64 SWAP1 REVERT JUMPDEST RETURNDATASIZE ISZERO PUSH2 0x39F JUMPI PUSH8 0xFFFFFFFFFFFFFFFF SWAP1 RETURNDATASIZE DUP3 DUP2 GT PUSH2 0x389 JUMPI PUSH1 0x40 MLOAD SWAP3 PUSH1 0x1F DUP3 ADD PUSH1 0x1F NOT SWAP1 DUP2 AND PUSH1 0x3F ADD AND DUP5 ADD SWAP1 DUP2 GT DUP5 DUP3 LT OR PUSH2 0x389 JUMPI PUSH1 0x40 MSTORE DUP3 MSTORE RETURNDATASIZE PUSH1 0x0 PUSH1 0x20 DUP5 ADD RETURNDATACOPY JUMP JUMPDEST PUSH4 0x4E487B71 PUSH1 0xE0 SHL PUSH1 0x0 MSTORE PUSH1 0x41 PUSH1 0x4 MSTORE PUSH1 0x24 PUSH1 0x0 REVERT JUMPDEST PUSH1 0x60 SWAP1 JUMP JUMPDEST ISZERO PUSH2 0x3AB JUMPI JUMP JUMPDEST PUSH1 0x40 MLOAD PUSH3 0x461BCD PUSH1 0xE5 SHL DUP2 MSTORE PUSH1 0x20 PUSH1 0x4 DUP3 ADD MSTORE PUSH1 0xF PUSH1 0x24 DUP3 ADD MSTORE PUSH15 0x151C985B9CD9995C8819985A5B1959 PUSH1 0x8A SHL PUSH1 0x44 DUP3 ADD MSTORE PUSH1 0x64 SWAP1 REVERT INVALID LOG1 PUSH5 0x736F6C6343 STOP ADDMOD XOR STOP EXP "},"methodIdentifiers":{"SUBSIDY_AMOUNT()":"0511f4b5","fund()":"b60d4288","getBalance()":"12065fe0","hasReceivedSubsidy(address)":"44c0ccd8","owner()":"8da5cb5b","requestSubsidy()":"d223ebf2","requestSubsidyFor(address)":"5713cb89"}}}}}