{"contracts/OnboardingContracts.sol":{"NodeRegistry":{"abi":[{"anonymous":false,"inputs":[{"indexed":true,"internalType":"address","name":"nodeAddress","type":"address"}],"name":"NodeDeactivated","type":"event"},{"anonymous":false,"inputs":[{"indexed":true,"internalType":"address","name":"nodeAddress","type":"address"},{"indexed":false,"internalType":"string","name":"nodeId","type":"string"},{"indexed":false,"internalType":"string","name":"endpoint","type":"string"}],"name":"NodeRegistered","type":"event"},{"anonymous":false,"inputs":[{"indexed":true,"internalType":"address","name":"nodeAddress","type":"address"},{"indexed":false,"internalType":"string","name":"endpoint","type":"string"}],"name":"NodeUpdated","type":"event"},{"anonymous":false,"inputs":[{"indexed":true,"internalType":"address","name":"nodeAddress","type":"address"},{"indexed":false,"internalType":"uint256","name":"newReputation","type":"uint256"}],"name":"ReputationUpdated","type":"event"},{"inputs":[],"name":"deactivateNode","outputs":[],"stateMutability":"nonpayable","type":"function"},{"inputs":[],"name":"getActiveNodeCount","outputs":[{"internalType":"uint256","name":"","type":"uint256"}],"stateMutability":"view","type":"function"},{"inputs":[],"name":"getActiveNodes","outputs":[{"internalType":"address[]","name":"","type":"address[]"}],"stateMutability":"view","type":"function"},{"inputs":[{"internalType":"address","name":"nodeAddress","type":"address"}],"name":"getNodeInfo","outputs":[{"internalType":"string","name":"nodeId","type":"string"},{"internalType":"string","name":"endpoint","type":"string"},{"internalType":"uint256","name":"registeredAt","type":"uint256"},{"internalType":"bool","name":"active","type":"bool"}],"stateMutability":"view","type":"function"},{"inputs":[{"internalType":"address","name":"nodeAddress","type":"address"}],"name":"isNodeRegistered","outputs":[{"internalType":"bool","name":"","type":"bool"}],"stateMutability":"view","type":"function"},{"inputs":[{"internalType":"string","name":"","type":"string"}],"name":"nodeIdToAddress","outputs":[{"internalType":"address","name":"","type":"address"}],"stateMutability":"view","type":"function"},{"inputs":[{"internalType":"uint256","name":"","type":"uint256"}],"name":"nodeList","outputs":[{"internalType":"address","name":"","type":"address"}],"stateMutability":"view","type":"function"},{"inputs":[{"internalType":"address","name":"","type":"address"}],"name":"nodes","outputs":[{"internalType":"string","name":"nodeId","type":"string"},{"internalType":"string","name":"endpoint","type":"string"},{"internalType":"uint256","name":"registeredAt","type":"uint256"},{"internalType":"bool","name":"active","type":"bool"},{"internalType":"uint256","name":"reputation","type":"uint256"},{"internalType":"uint256","name":"uptime","type":"uint256"}],"stateMutability":"view","type":"function"},{"inputs":[{"internalType":"string","name":"nodeId","type":"string"},{"internalType":"string","name":"endpoint","type":"string"}],"name":"registerNode","outputs":[],"stateMutability":"nonpayable","type":"function"},{"inputs":[],"name":"totalNodes","outputs":[{"internalType":"uint256","name":"","type":"uint256"}],"stateMutability":"view","type":"function"},{"inputs":[{"internalType":"string","name":"newEndpoint","type":"string"}],"name":"updateEndpoint","outputs":[],"stateMutability":"nonpayable","type":"function"},{"inputs":[{"internalType":"address","name":"nodeAddress","type":"address"},{"internalType":"uint256","name":"newReputation","type":"uint256"}],"name":"updateReputation","outputs":[],"stateMutability":"nonpayable","type":"function"},{"inputs":[{"internalType":"address","name":"nodeAddress","type":"address"},{"internalType":"uint256","name":"uptimeSeconds","type":"uint256"}],"name":"updateUptime","outputs":[],"stateMutability":"nonpayable","type":"function"}],"evm":{"bytecode":{"linkReferences":{},"object":"608080604052346100165761106c908161001c8239f35b600080fdfe6080604052600436101561001257600080fd5b60003560e01c8063189a5a1714610cf6578063208f2a3114610cb4578063582115fb14610bf25780635c019d2e14610a285780636b51e919146108aa5780638cc0ebb5146108625780639592d4241461084457806396ef592e146107d4578063c27f66a61461076b578063c5ea2b87146106f2578063d3983524146101ed578063e62a00bf1461018c5763f5c91a08146100ab57600080fd5b34610187576040366003190112610187576100c4610d97565b602435906100f26100ed8260018060a01b03166000526000602052600260406000200154151590565b610fa0565b606482116101425760207ffc577563f1b9a0461e24abef1e1fcc0d33d3d881f20b5df6dda59de4aae2c8219160018060a01b031692836000526000825280600460406000200155604051908152a2005b60405162461bcd60e51b815260206004820152601860248201527f52657075746174696f6e206d75737420626520302d31303000000000000000006044820152606490fd5b600080fd5b34610187576040366003190112610187576101a5610d97565b6001600160a01b0381166000908152602081905260409020600201546101cc901515610fa0565b60018060a01b03166000526000602052602435600560406000200155600080f35b346101875760403660031901126101875760043567ffffffffffffffff81116101875761021e903690600401610f49565b60243567ffffffffffffffff81116101875761023e903690600401610f49565b336000908152602081905260409020600201549091906106ad57604051815161026b818360208601610eca565b60019082019081528190036020019020546001600160a01b0316610670578051156106385761029c82511515610fe2565b6040516102a881610de7565b8181528260208201524260408201526001606082015260326080820152600060a0820152336000526000602052604060002090805180519067ffffffffffffffff82116104965781906102fb8554610dad565b601f81116105e8575b50602090601f831160011461057c57600092610571575b50508160011b916000199060031b1c19161782555b602081015180519067ffffffffffffffff8211610496576103546001850154610dad565b601f811161052a575b50602090601f83116001146104b75791806005949260a0946000926104ac575b50508160011b916000199060031b1c19161760018501555b60408101516002850155600384016060820151151560ff8019835416911617905560808101516004850155015191015560405160208183516103da8183858801610eca565b81016001815203019020336bffffffffffffffffffffffff60a01b82541617905560025468010000000000000000811015610496577f46406905bae74cf0ddefdf7faf9043b12cf891a01d9c85b17d88c6447fd9cd34916104448260016104829401600255610f12565b81549060031b9033821b9160018060a01b03901b1916179055610468600354611022565b600355610491604051928392604084526040840190610eed565b82810360208401523395610eed565b0390a2005b634e487b7160e01b600052604160045260246000fd5b01519050888061037d565b90601f198316916001860160005260206000209260005b818110610512575092600192859260a09660059896106104f9575b505050811b016001850155610395565b015160001960f88460031b161c191690558880806104e9565b929360206001819287860151815501950193016104ce565b600185016000526020600020601f840160051c81016020851061056a575b601f830160051c8201811061055e57505061035d565b60008155600101610548565b5080610548565b01519050868061031b565b9250846000526020600020906000935b601f19841685106105cd576001945083601f198116106105b4575b505050811b018255610330565b015160001960f88460031b161c191690558680806105a7565b8181015183556020948501946001909301929091019061058c565b909150846000526020600020601f840160051c810160208510610631575b90849392915b601f830160051c82018110610622575050610304565b6000815585945060010161060c565b5080610606565b60405162461bcd60e51b815260206004820152601060248201526f139bd919481251081c995c5d5a5c995960821b6044820152606490fd5b60405162461bcd60e51b81526020600482015260156024820152742737b2329024a21030b63932b0b23c903a30b5b2b760591b6044820152606490fd5b60405162461bcd60e51b815260206004820152601760248201527f4e6f646520616c726561647920726567697374657265640000000000000000006044820152606490fd5b3461018757600036600319011261018757600080600254905b81811061071d57602083604051908152f35b60ff61072882610f12565b9054600391821b1c6001600160a01b03166000908152602081905260409020015416610757575b60010161070b565b91610763600191611022565b92905061074f565b346101875760203660031901126101875760043567ffffffffffffffff81116101875761079e6020913690600401610f49565b816107b26040519283815193849201610eca565b600190820190815281900382019020546040516001600160a01b039091168152f35b346101875760003660031901126101875733600090815260208190526040902060020154610803901515610fa0565b336000526000602052600360406000200160ff198154169055337fd9957750e6343405c319eb99a4ec67fa11cfd66969318cbc71aa2d45fa53a349600080a2005b34610187576000366003190112610187576020600354604051908152f35b346101875760203660031901126101875760206108a0610880610d97565b6001600160a01b0316600090815260208190526040902060020154151590565b6040519015158152f35b34610187576000366003190112610187576002546000805b8281106109da57506108ec6108d682611047565b916108e46040519384610e03565b808352611047565b6020928383019291601f19013684376000805b8282106109535750505090604051928392818401908285525180915260408401929160005b82811061093357505050500390f35b83516001600160a01b031685528695509381019392810192600101610924565b61095c82610f12565b60018060a01b03809254600392831b1c166000526000885260ff816040600020015416610990575b505090600101906108ff565b61099984610f12565b9054911b1c1684518210156109c457816109bd918860019460051b88010152611022565b9087610984565b634e487b7160e01b600052603260045260246000fd5b60ff6109e582610f12565b9054600391821b1c6001600160a01b03166000908152602081905260409020015416610a14575b6001016108c2565b90610a20600191611022565b919050610a0c565b34610187576020806003193601126101875767ffffffffffffffff60043581811161018757610a5b903690600401610f49565b33600090815260208190526040902060020154610a79901515610fa0565b610a8581511515610fe2565b336000526000835260018060406000200190825193841161049657610aaa8254610dad565b601f8111610ba9575b5084601f8511600114610b22579380806104919594937f5f9fcbc17fba60677ae056851409ca727b54b90cb63be975f68684d06613b07897600093610b17575b501b916000199060031b1c19161790555b6040519182918583523395830190610eed565b860151925089610af3565b601f1985169083600052866000209160005b88828210610b955750509186917f5f9fcbc17fba60677ae056851409ca727b54b90cb63be975f68684d06613b078976104919796959410610b7c575b5050811b019055610b04565b85015160001960f88460031b161c191690558780610b70565b878401518555938501939283019201610b34565b8260005285600020601f860160051c810191878710610be8575b601f0160051c019082905b828110610bdc575050610ab3565b60008155018290610bce565b9091508190610bc3565b34610187576020366003190112610187576001600160a01b03610c13610d97565b166000526000602052610c976040600020604051610c3081610de7565b610c3982610e25565b8152610c4760018301610e25565b91826020830152610ca5600282015492836040820152600560ff60038501541615159384606084015260048101546080840152015460a08201525193604051958695608087526080870190610eed565b908582036020870152610eed565b91604084015260608301520390f35b346101875760203660031901126101875760043560025481101561018757610cdd602091610f12565b905460405160039290921b1c6001600160a01b03168152f35b34610187576020366003190112610187576001600160a01b03610d17610d97565b166000526000602052610d6e6040600020610d3181610e25565b90610d3e60018201610e25565b60028201549160ff600382015416610d7c600560048401549301549360405197889760c0895260c0890190610eed565b908782036020890152610eed565b93604086015215156060850152608084015260a08301520390f35b600435906001600160a01b038216820361018757565b90600182811c92168015610ddd575b6020831014610dc757565b634e487b7160e01b600052602260045260246000fd5b91607f1691610dbc565b60c0810190811067ffffffffffffffff82111761049657604052565b90601f8019910116810190811067ffffffffffffffff82111761049657604052565b90604051918260008254610e3881610dad565b90818452602094600191600181169081600014610ea85750600114610e69575b505050610e6792500383610e03565b565b600090815285812095935091905b818310610e90575050610e679350820101388080610e58565b85548884018501529485019487945091830191610e77565b92505050610e6794925060ff191682840152151560051b820101388080610e58565b60005b838110610edd5750506000910152565b8181015183820152602001610ecd565b90602091610f0681518092818552858086019101610eca565b601f01601f1916010190565b6002548110156109c45760026000527f405787fa12a823e0f2b7631cc41b3ba8828b3321ca811111fa75cd3aa3bb5ace0190600090565b81601f820112156101875780359067ffffffffffffffff82116104965760405192610f7e601f8401601f191660200185610e03565b8284526020838301011161018757816000926020809301838601378301015290565b15610fa757565b60405162461bcd60e51b8152602060048201526013602482015272139bd919481b9bdd081c9959da5cdd195c9959606a1b6044820152606490fd5b15610fe957565b60405162461bcd60e51b8152602060048201526011602482015270115b991c1bda5b9d081c995c5d5a5c9959607a1b6044820152606490fd5b60001981146110315760010190565b634e487b7160e01b600052601160045260246000fd5b67ffffffffffffffff81116104965760051b6020019056fea164736f6c6343000818000a","opcodes":"PUSH1 0x80 DUP1 PUSH1 0x40 MSTORE CALLVALUE PUSH2 0x16 JUMPI PUSH2 0x106C SWAP1 DUP2 PUSH2 0x1C DUP3 CODECOPY RETURN JUMPDEST PUSH1 0x0 DUP1 REVERT INVALID PUSH1 0x80 PUSH1 0x40 MSTORE PUSH1 0x4 CALLDATASIZE LT ISZERO PUSH2 0x12 JUMPI PUSH1 0x0 DUP1 REVERT JUMPDEST PUSH1 0x0 CALLDATALOAD PUSH1 0xE0 SHR DUP1 PUSH4 0x189A5A17 EQ PUSH2 0xCF6 JUMPI DUP1 PUSH4 0x208F2A31 EQ PUSH2 0xCB4 JUMPI DUP1 PUSH4 0x582115FB EQ PUSH2 0xBF2 JUMPI DUP1 PUSH4 0x5C019D2E EQ PUSH2 0xA28 JUMPI DUP1 PUSH4 0x6B51E919 EQ PUSH2 0x8AA JUMPI DUP1 PUSH4 0x8CC0EBB5 EQ PUSH2 0x862 JUMPI DUP1 PUSH4 0x9592D424 EQ PUSH2 0x844 JUMPI DUP1 PUSH4 0x96EF592E EQ PUSH2 0x7D4 JUMPI DUP1 PUSH4 0xC27F66A6 EQ PUSH2 0x76B JUMPI DUP1 PUSH4 0xC5EA2B87 EQ PUSH2 0x6F2 JUMPI DUP1 PUSH4 0xD3983524 EQ PUSH2 0x1ED JUMPI DUP1 PUSH4 0xE62A00BF EQ PUSH2 0x18C JUMPI PUSH4 0xF5C91A08 EQ PUSH2 0xAB JUMPI PUSH1 0x0 DUP1 REVERT JUMPDEST CALLVALUE PUSH2 0x187 JUMPI PUSH1 0x40 CALLDATASIZE PUSH1 0x3 NOT ADD SLT PUSH2 0x187 JUMPI PUSH2 0xC4 PUSH2 0xD97 JUMP JUMPDEST PUSH1 0x24 CALLDATALOAD SWAP1 PUSH2 0xF2 PUSH2 0xED DUP3 PUSH1 0x1 DUP1 PUSH1 0xA0 SHL SUB AND PUSH1 0x0 MSTORE PUSH1 0x0 PUSH1 0x20 MSTORE PUSH1 0x2 PUSH1 0x40 PUSH1 0x0 KECCAK256 ADD SLOAD ISZERO ISZERO SWAP1 JUMP JUMPDEST PUSH2 0xFA0 JUMP JUMPDEST PUSH1 0x64 DUP3 GT PUSH2 0x142 JUMPI PUSH1 0x20 PUSH32 0xFC577563F1B9A0461E24ABEF1E1FCC0D33D3D881F20B5DF6DDA59DE4AAE2C821 SWAP2 PUSH1 0x1 DUP1 PUSH1 0xA0 SHL SUB AND SWAP3 DUP4 PUSH1 0x0 MSTORE PUSH1 0x0 DUP3 MSTORE DUP1 PUSH1 0x4 PUSH1 0x40 PUSH1 0x0 KECCAK256 ADD SSTORE PUSH1 0x40 MLOAD SWAP1 DUP2 MSTORE LOG2 STOP JUMPDEST PUSH1 0x40 MLOAD PUSH3 0x461BCD PUSH1 0xE5 SHL DUP2 MSTORE PUSH1 0x20 PUSH1 0x4 DUP3 ADD MSTORE PUSH1 0x18 PUSH1 0x24 DUP3 ADD MSTORE PUSH32 0x52657075746174696F6E206D75737420626520302D3130300000000000000000 PUSH1 0x44 DUP3 ADD MSTORE PUSH1 0x64 SWAP1 REVERT JUMPDEST PUSH1 0x0 DUP1 REVERT JUMPDEST CALLVALUE PUSH2 0x187 JUMPI PUSH1 0x40 CALLDATASIZE PUSH1 0x3 NOT ADD SLT PUSH2 0x187 JUMPI PUSH2 0x1A5 PUSH2 0xD97 JUMP JUMPDEST PUSH1 0x1 PUSH1 0x1 PUSH1 0xA0 SHL SUB DUP2 AND PUSH1 0x0 SWAP1 DUP2 MSTORE PUSH1 0x20 DUP2 SWAP1 MSTORE PUSH1 0x40 SWAP1 KECCAK256 PUSH1 0x2 ADD SLOAD PUSH2 0x1CC SWAP1 ISZERO ISZERO PUSH2 0xFA0 JUMP JUMPDEST PUSH1 0x1 DUP1 PUSH1 0xA0 SHL SUB AND PUSH1 0x0 MSTORE PUSH1 0x0 PUSH1 0x20 MSTORE PUSH1 0x24 CALLDATALOAD PUSH1 0x5 PUSH1 0x40 PUSH1 0x0 KECCAK256 ADD SSTORE PUSH1 0x0 DUP1 RETURN JUMPDEST CALLVALUE PUSH2 0x187 JUMPI PUSH1 0x40 CALLDATASIZE PUSH1 0x3 NOT ADD SLT PUSH2 0x187 JUMPI PUSH1 0x4 CALLDATALOAD PUSH8 0xFFFFFFFFFFFFFFFF DUP2 GT PUSH2 0x187 JUMPI PUSH2 0x21E SWAP1 CALLDATASIZE SWAP1 PUSH1 0x4 ADD PUSH2 0xF49 JUMP JUMPDEST PUSH1 0x24 CALLDATALOAD PUSH8 0xFFFFFFFFFFFFFFFF DUP2 GT PUSH2 0x187 JUMPI PUSH2 0x23E SWAP1 CALLDATASIZE SWAP1 PUSH1 0x4 ADD PUSH2 0xF49 JUMP JUMPDEST CALLER PUSH1 0x0 SWAP1 DUP2 MSTORE PUSH1 0x20 DUP2 SWAP1 MSTORE PUSH1 0x40 SWAP1 KECCAK256 PUSH1 0x2 ADD SLOAD SWAP1 SWAP2 SWAP1 PUSH2 0x6AD JUMPI PUSH1 0x40 MLOAD DUP2 MLOAD PUSH2 0x26B DUP2 DUP4 PUSH1 0x20 DUP7 ADD PUSH2 0xECA JUMP JUMPDEST PUSH1 0x1 SWAP1 DUP3 ADD SWAP1 DUP2 MSTORE DUP2 SWAP1 SUB PUSH1 0x20 ADD SWAP1 KECCAK256 SLOAD PUSH1 0x1 PUSH1 0x1 PUSH1 0xA0 SHL SUB AND PUSH2 0x670 JUMPI DUP1 MLOAD ISZERO PUSH2 0x638 JUMPI PUSH2 0x29C DUP3 MLOAD ISZERO ISZERO PUSH2 0xFE2 JUMP JUMPDEST PUSH1 0x40 MLOAD PUSH2 0x2A8 DUP2 PUSH2 0xDE7 JUMP JUMPDEST DUP2 DUP2 MSTORE DUP3 PUSH1 0x20 DUP3 ADD MSTORE TIMESTAMP PUSH1 0x40 DUP3 ADD MSTORE PUSH1 0x1 PUSH1 0x60 DUP3 ADD MSTORE PUSH1 0x32 PUSH1 0x80 DUP3 ADD MSTORE PUSH1 0x0 PUSH1 0xA0 DUP3 ADD MSTORE CALLER PUSH1 0x0 MSTORE PUSH1 0x0 PUSH1 0x20 MSTORE PUSH1 0x40 PUSH1 0x0 KECCAK256 SWAP1 DUP1 MLOAD DUP1 MLOAD SWAP1 PUSH8 0xFFFFFFFFFFFFFFFF DUP3 GT PUSH2 0x496 JUMPI DUP2 SWAP1 PUSH2 0x2FB DUP6 SLOAD PUSH2 0xDAD JUMP JUMPDEST PUSH1 0x1F DUP2 GT PUSH2 0x5E8 JUMPI JUMPDEST POP PUSH1 0x20 SWAP1 PUSH1 0x1F DUP4 GT PUSH1 0x1 EQ PUSH2 0x57C JUMPI PUSH1 0x0 SWAP3 PUSH2 0x571 JUMPI JUMPDEST POP POP DUP2 PUSH1 0x1 SHL SWAP2 PUSH1 0x0 NOT SWAP1 PUSH1 0x3 SHL SHR NOT AND OR DUP3 SSTORE JUMPDEST PUSH1 0x20 DUP2 ADD MLOAD DUP1 MLOAD SWAP1 PUSH8 0xFFFFFFFFFFFFFFFF DUP3 GT PUSH2 0x496 JUMPI PUSH2 0x354 PUSH1 0x1 DUP6 ADD SLOAD PUSH2 0xDAD JUMP JUMPDEST PUSH1 0x1F DUP2 GT PUSH2 0x52A JUMPI JUMPDEST POP PUSH1 0x20 SWAP1 PUSH1 0x1F DUP4 GT PUSH1 0x1 EQ PUSH2 0x4B7 JUMPI SWAP2 DUP1 PUSH1 0x5 SWAP5 SWAP3 PUSH1 0xA0 SWAP5 PUSH1 0x0 SWAP3 PUSH2 0x4AC JUMPI JUMPDEST POP POP DUP2 PUSH1 0x1 SHL SWAP2 PUSH1 0x0 NOT SWAP1 PUSH1 0x3 SHL SHR NOT AND OR PUSH1 0x1 DUP6 ADD SSTORE JUMPDEST PUSH1 0x40 DUP2 ADD MLOAD PUSH1 0x2 DUP6 ADD SSTORE PUSH1 0x3 DUP5 ADD PUSH1 0x60 DUP3 ADD MLOAD ISZERO ISZERO PUSH1 0xFF DUP1 NOT DUP4 SLOAD AND SWAP2 AND OR SWAP1 SSTORE PUSH1 0x80 DUP2 ADD MLOAD PUSH1 0x4 DUP6 ADD SSTORE ADD MLOAD SWAP2 ADD SSTORE PUSH1 0x40 MLOAD PUSH1 0x20 DUP2 DUP4 MLOAD PUSH2 0x3DA DUP2 DUP4 DUP6 DUP9 ADD PUSH2 0xECA JUMP JUMPDEST DUP2 ADD PUSH1 0x1 DUP2 MSTORE SUB ADD SWAP1 KECCAK256 CALLER PUSH12 0xFFFFFFFFFFFFFFFFFFFFFFFF PUSH1 0xA0 SHL DUP3 SLOAD AND OR SWAP1 SSTORE PUSH1 0x2 SLOAD PUSH9 0x10000000000000000 DUP2 LT ISZERO PUSH2 0x496 JUMPI PUSH32 0x46406905BAE74CF0DDEFDF7FAF9043B12CF891A01D9C85B17D88C6447FD9CD34 SWAP2 PUSH2 0x444 DUP3 PUSH1 0x1 PUSH2 0x482 SWAP5 ADD PUSH1 0x2 SSTORE PUSH2 0xF12 JUMP JUMPDEST DUP2 SLOAD SWAP1 PUSH1 0x3 SHL SWAP1 CALLER DUP3 SHL SWAP2 PUSH1 0x1 DUP1 PUSH1 0xA0 SHL SUB SWAP1 SHL NOT AND OR SWAP1 SSTORE PUSH2 0x468 PUSH1 0x3 SLOAD PUSH2 0x1022 JUMP JUMPDEST PUSH1 0x3 SSTORE PUSH2 0x491 PUSH1 0x40 MLOAD SWAP3 DUP4 SWAP3 PUSH1 0x40 DUP5 MSTORE PUSH1 0x40 DUP5 ADD SWAP1 PUSH2 0xEED JUMP JUMPDEST DUP3 DUP2 SUB PUSH1 0x20 DUP5 ADD MSTORE CALLER SWAP6 PUSH2 0xEED JUMP JUMPDEST SUB SWAP1 LOG2 STOP JUMPDEST PUSH4 0x4E487B71 PUSH1 0xE0 SHL PUSH1 0x0 MSTORE PUSH1 0x41 PUSH1 0x4 MSTORE PUSH1 0x24 PUSH1 0x0 REVERT JUMPDEST ADD MLOAD SWAP1 POP DUP9 DUP1 PUSH2 0x37D JUMP JUMPDEST SWAP1 PUSH1 0x1F NOT DUP4 AND SWAP2 PUSH1 0x1 DUP7 ADD PUSH1 0x0 MSTORE PUSH1 0x20 PUSH1 0x0 KECCAK256 SWAP3 PUSH1 0x0 JUMPDEST DUP2 DUP2 LT PUSH2 0x512 JUMPI POP SWAP3 PUSH1 0x1 SWAP3 DUP6 SWAP3 PUSH1 0xA0 SWAP7 PUSH1 0x5 SWAP9 SWAP7 LT PUSH2 0x4F9 JUMPI JUMPDEST POP POP POP DUP2 SHL ADD PUSH1 0x1 DUP6 ADD SSTORE PUSH2 0x395 JUMP JUMPDEST ADD MLOAD PUSH1 0x0 NOT PUSH1 0xF8 DUP5 PUSH1 0x3 SHL AND SHR NOT AND SWAP1 SSTORE DUP9 DUP1 DUP1 PUSH2 0x4E9 JUMP JUMPDEST SWAP3 SWAP4 PUSH1 0x20 PUSH1 0x1 DUP2 SWAP3 DUP8 DUP7 ADD MLOAD DUP2 SSTORE ADD SWAP6 ADD SWAP4 ADD PUSH2 0x4CE JUMP JUMPDEST PUSH1 0x1 DUP6 ADD PUSH1 0x0 MSTORE PUSH1 0x20 PUSH1 0x0 KECCAK256 PUSH1 0x1F DUP5 ADD PUSH1 0x5 SHR DUP2 ADD PUSH1 0x20 DUP6 LT PUSH2 0x56A JUMPI JUMPDEST PUSH1 0x1F DUP4 ADD PUSH1 0x5 SHR DUP3 ADD DUP2 LT PUSH2 0x55E JUMPI POP POP PUSH2 0x35D JUMP JUMPDEST PUSH1 0x0 DUP2 SSTORE PUSH1 0x1 ADD PUSH2 0x548 JUMP JUMPDEST POP DUP1 PUSH2 0x548 JUMP JUMPDEST ADD MLOAD SWAP1 POP DUP7 DUP1 PUSH2 0x31B JUMP JUMPDEST SWAP3 POP DUP5 PUSH1 0x0 MSTORE PUSH1 0x20 PUSH1 0x0 KECCAK256 SWAP1 PUSH1 0x0 SWAP4 JUMPDEST PUSH1 0x1F NOT DUP5 AND DUP6 LT PUSH2 0x5CD JUMPI PUSH1 0x1 SWAP5 POP DUP4 PUSH1 0x1F NOT DUP2 AND LT PUSH2 0x5B4 JUMPI JUMPDEST POP POP POP DUP2 SHL ADD DUP3 SSTORE PUSH2 0x330 JUMP JUMPDEST ADD MLOAD PUSH1 0x0 NOT PUSH1 0xF8 DUP5 PUSH1 0x3 SHL AND SHR NOT AND SWAP1 SSTORE DUP7 DUP1 DUP1 PUSH2 0x5A7 JUMP JUMPDEST DUP2 DUP2 ADD MLOAD DUP4 SSTORE PUSH1 0x20 SWAP5 DUP6 ADD SWAP5 PUSH1 0x1 SWAP1 SWAP4 ADD SWAP3 SWAP1 SWAP2 ADD SWAP1 PUSH2 0x58C JUMP JUMPDEST SWAP1 SWAP2 POP DUP5 PUSH1 0x0 MSTORE PUSH1 0x20 PUSH1 0x0 KECCAK256 PUSH1 0x1F DUP5 ADD PUSH1 0x5 SHR DUP2 ADD PUSH1 0x20 DUP6 LT PUSH2 0x631 JUMPI JUMPDEST SWAP1 DUP5 SWAP4 SWAP3 SWAP2 JUMPDEST PUSH1 0x1F DUP4 ADD PUSH1 0x5 SHR DUP3 ADD DUP2 LT PUSH2 0x622 JUMPI POP POP PUSH2 0x304 JUMP JUMPDEST PUSH1 0x0 DUP2 SSTORE DUP6 SWAP5 POP PUSH1 0x1 ADD PUSH2 0x60C JUMP JUMPDEST POP DUP1 PUSH2 0x606 JUMP JUMPDEST PUSH1 0x40 MLOAD PUSH3 0x461BCD PUSH1 0xE5 SHL DUP2 MSTORE PUSH1 0x20 PUSH1 0x4 DUP3 ADD MSTORE PUSH1 0x10 PUSH1 0x24 DUP3 ADD MSTORE PUSH16 0x139BD919481251081C995C5D5A5C9959 PUSH1 0x82 SHL PUSH1 0x44 DUP3 ADD MSTORE PUSH1 0x64 SWAP1 REVERT JUMPDEST PUSH1 0x40 MLOAD PUSH3 0x461BCD PUSH1 0xE5 SHL DUP2 MSTORE PUSH1 0x20 PUSH1 0x4 DUP3 ADD MSTORE PUSH1 0x15 PUSH1 0x24 DUP3 ADD MSTORE PUSH21 0x2737B2329024A21030B63932B0B23C903A30B5B2B7 PUSH1 0x59 SHL PUSH1 0x44 DUP3 ADD MSTORE PUSH1 0x64 SWAP1 REVERT JUMPDEST PUSH1 0x40 MLOAD PUSH3 0x461BCD PUSH1 0xE5 SHL DUP2 MSTORE PUSH1 0x20 PUSH1 0x4 DUP3 ADD MSTORE PUSH1 0x17 PUSH1 0x24 DUP3 ADD MSTORE PUSH32 0x4E6F646520616C72656164792072656769737465726564000000000000000000 PUSH1 0x44 DUP3 ADD MSTORE PUSH1 0x64 SWAP1 REVERT JUMPDEST CALLVALUE PUSH2 0x187 JUMPI PUSH1 0x0 CALLDATASIZE PUSH1 0x3 NOT ADD SLT PUSH2 0x187 JUMPI PUSH1 0x0 DUP1 PUSH1 0x2 SLOAD SWAP1 JUMPDEST DUP2 DUP2 LT PUSH2 0x71D JUMPI PUSH1 0x20 DUP4 PUSH1 0x40 MLOAD SWAP1 DUP2 MSTORE RETURN JUMPDEST PUSH1 0xFF PUSH2 0x728 DUP3 PUSH2 0xF12 JUMP JUMPDEST SWAP1 SLOAD PUSH1 0x3 SWAP2 DUP3 SHL SHR PUSH1 0x1 PUSH1 0x1 PUSH1 0xA0 SHL SUB AND PUSH1 0x0 SWAP1 DUP2 MSTORE PUSH1 0x20 DUP2 SWAP1 MSTORE PUSH1 0x40 SWAP1 KECCAK256 ADD SLOAD AND PUSH2 0x757 JUMPI JUMPDEST PUSH1 0x1 ADD PUSH2 0x70B JUMP JUMPDEST SWAP2 PUSH2 0x763 PUSH1 0x1 SWAP2 PUSH2 0x1022 JUMP JUMPDEST SWAP3 SWAP1 POP PUSH2 0x74F JUMP JUMPDEST CALLVALUE PUSH2 0x187 JUMPI PUSH1 0x20 CALLDATASIZE PUSH1 0x3 NOT ADD SLT PUSH2 0x187 JUMPI PUSH1 0x4 CALLDATALOAD PUSH8 0xFFFFFFFFFFFFFFFF DUP2 GT PUSH2 0x187 JUMPI PUSH2 0x79E PUSH1 0x20 SWAP2 CALLDATASIZE SWAP1 PUSH1 0x4 ADD PUSH2 0xF49 JUMP JUMPDEST DUP2 PUSH2 0x7B2 PUSH1 0x40 MLOAD SWAP3 DUP4 DUP2 MLOAD SWAP4 DUP5 SWAP3 ADD PUSH2 0xECA JUMP JUMPDEST PUSH1 0x1 SWAP1 DUP3 ADD SWAP1 DUP2 MSTORE DUP2 SWAP1 SUB DUP3 ADD SWAP1 KECCAK256 SLOAD PUSH1 0x40 MLOAD PUSH1 0x1 PUSH1 0x1 PUSH1 0xA0 SHL SUB SWAP1 SWAP2 AND DUP2 MSTORE RETURN JUMPDEST CALLVALUE PUSH2 0x187 JUMPI PUSH1 0x0 CALLDATASIZE PUSH1 0x3 NOT ADD SLT PUSH2 0x187 JUMPI CALLER PUSH1 0x0 SWAP1 DUP2 MSTORE PUSH1 0x20 DUP2 SWAP1 MSTORE PUSH1 0x40 SWAP1 KECCAK256 PUSH1 0x2 ADD SLOAD PUSH2 0x803 SWAP1 ISZERO ISZERO PUSH2 0xFA0 JUMP JUMPDEST CALLER PUSH1 0x0 MSTORE PUSH1 0x0 PUSH1 0x20 MSTORE PUSH1 0x3 PUSH1 0x40 PUSH1 0x0 KECCAK256 ADD PUSH1 0xFF NOT DUP2 SLOAD AND SWAP1 SSTORE CALLER PUSH32 0xD9957750E6343405C319EB99A4EC67FA11CFD66969318CBC71AA2D45FA53A349 PUSH1 0x0 DUP1 LOG2 STOP JUMPDEST CALLVALUE PUSH2 0x187 JUMPI PUSH1 0x0 CALLDATASIZE PUSH1 0x3 NOT ADD SLT PUSH2 0x187 JUMPI PUSH1 0x20 PUSH1 0x3 SLOAD PUSH1 0x40 MLOAD SWAP1 DUP2 MSTORE RETURN JUMPDEST CALLVALUE PUSH2 0x187 JUMPI PUSH1 0x20 CALLDATASIZE PUSH1 0x3 NOT ADD SLT PUSH2 0x187 JUMPI PUSH1 0x20 PUSH2 0x8A0 PUSH2 0x880 PUSH2 0xD97 JUMP JUMPDEST PUSH1 0x1 PUSH1 0x1 PUSH1 0xA0 SHL SUB AND PUSH1 0x0 SWAP1 DUP2 MSTORE PUSH1 0x20 DUP2 SWAP1 MSTORE PUSH1 0x40 SWAP1 KECCAK256 PUSH1 0x2 ADD SLOAD ISZERO ISZERO SWAP1 JUMP JUMPDEST PUSH1 0x40 MLOAD SWAP1 ISZERO ISZERO DUP2 MSTORE RETURN JUMPDEST CALLVALUE PUSH2 0x187 JUMPI PUSH1 0x0 CALLDATASIZE PUSH1 0x3 NOT ADD SLT PUSH2 0x187 JUMPI PUSH1 0x2 SLOAD PUSH1 0x0 DUP1 JUMPDEST DUP3 DUP2 LT PUSH2 0x9DA JUMPI POP PUSH2 0x8EC PUSH2 0x8D6 DUP3 PUSH2 0x1047 JUMP JUMPDEST SWAP2 PUSH2 0x8E4 PUSH1 0x40 MLOAD SWAP4 DUP5 PUSH2 0xE03 JUMP JUMPDEST DUP1 DUP4 MSTORE PUSH2 0x1047 JUMP JUMPDEST PUSH1 0x20 SWAP3 DUP4 DUP4 ADD SWAP3 SWAP2 PUSH1 0x1F NOT ADD CALLDATASIZE DUP5 CALLDATACOPY PUSH1 0x0 DUP1 JUMPDEST DUP3 DUP3 LT PUSH2 0x953 JUMPI POP POP POP SWAP1 PUSH1 0x40 MLOAD SWAP3 DUP4 SWAP3 DUP2 DUP5 ADD SWAP1 DUP3 DUP6 MSTORE MLOAD DUP1 SWAP2 MSTORE PUSH1 0x40 DUP5 ADD SWAP3 SWAP2 PUSH1 0x0 JUMPDEST DUP3 DUP2 LT PUSH2 0x933 JUMPI POP POP POP POP SUB SWAP1 RETURN JUMPDEST DUP4 MLOAD PUSH1 0x1 PUSH1 0x1 PUSH1 0xA0 SHL SUB AND DUP6 MSTORE DUP7 SWAP6 POP SWAP4 DUP2 ADD SWAP4 SWAP3 DUP2 ADD SWAP3 PUSH1 0x1 ADD PUSH2 0x924 JUMP JUMPDEST PUSH2 0x95C DUP3 PUSH2 0xF12 JUMP JUMPDEST PUSH1 0x1 DUP1 PUSH1 0xA0 SHL SUB DUP1 SWAP3 SLOAD PUSH1 0x3 SWAP3 DUP4 SHL SHR AND PUSH1 0x0 MSTORE PUSH1 0x0 DUP9 MSTORE PUSH1 0xFF DUP2 PUSH1 0x40 PUSH1 0x0 KECCAK256 ADD SLOAD AND PUSH2 0x990 JUMPI JUMPDEST POP POP SWAP1 PUSH1 0x1 ADD SWAP1 PUSH2 0x8FF JUMP JUMPDEST PUSH2 0x999 DUP5 PUSH2 0xF12 JUMP JUMPDEST SWAP1 SLOAD SWAP2 SHL SHR AND DUP5 MLOAD DUP3 LT ISZERO PUSH2 0x9C4 JUMPI DUP2 PUSH2 0x9BD SWAP2 DUP9 PUSH1 0x1 SWAP5 PUSH1 0x5 SHL DUP9 ADD ADD MSTORE PUSH2 0x1022 JUMP JUMPDEST SWAP1 DUP8 PUSH2 0x984 JUMP JUMPDEST PUSH4 0x4E487B71 PUSH1 0xE0 SHL PUSH1 0x0 MSTORE PUSH1 0x32 PUSH1 0x4 MSTORE PUSH1 0x24 PUSH1 0x0 REVERT JUMPDEST PUSH1 0xFF PUSH2 0x9E5 DUP3 PUSH2 0xF12 JUMP JUMPDEST SWAP1 SLOAD PUSH1 0x3 SWAP2 DUP3 SHL SHR PUSH1 0x1 PUSH1 0x1 PUSH1 0xA0 SHL SUB AND PUSH1 0x0 SWAP1 DUP2 MSTORE PUSH1 0x20 DUP2 SWAP1 MSTORE PUSH1 0x40 SWAP1 KECCAK256 ADD SLOAD AND PUSH2 0xA14 JUMPI JUMPDEST PUSH1 0x1 ADD PUSH2 0x8C2 JUMP JUMPDEST SWAP1 PUSH2 0xA20 PUSH1 0x1 SWAP2 PUSH2 0x1022 JUMP JUMPDEST SWAP2 SWAP1 POP PUSH2 0xA0C JUMP JUMPDEST CALLVALUE PUSH2 0x187 JUMPI PUSH1 0x20 DUP1 PUSH1 0x3 NOT CALLDATASIZE ADD SLT PUSH2 0x187 JUMPI PUSH8 0xFFFFFFFFFFFFFFFF PUSH1 0x4 CALLDATALOAD DUP2 DUP2 GT PUSH2 0x187 JUMPI PUSH2 0xA5B SWAP1 CALLDATASIZE SWAP1 PUSH1 0x4 ADD PUSH2 0xF49 JUMP JUMPDEST CALLER PUSH1 0x0 SWAP1 DUP2 MSTORE PUSH1 0x20 DUP2 SWAP1 MSTORE PUSH1 0x40 SWAP1 KECCAK256 PUSH1 0x2 ADD SLOAD PUSH2 0xA79 SWAP1 ISZERO ISZERO PUSH2 0xFA0 JUMP JUMPDEST PUSH2 0xA85 DUP2 MLOAD ISZERO ISZERO PUSH2 0xFE2 JUMP JUMPDEST CALLER PUSH1 0x0 MSTORE PUSH1 0x0 DUP4 MSTORE PUSH1 0x1 DUP1 PUSH1 0x40 PUSH1 0x0 KECCAK256 ADD SWAP1 DUP3 MLOAD SWAP4 DUP5 GT PUSH2 0x496 JUMPI PUSH2 0xAAA DUP3 SLOAD PUSH2 0xDAD JUMP JUMPDEST PUSH1 0x1F DUP2 GT PUSH2 0xBA9 JUMPI JUMPDEST POP DUP5 PUSH1 0x1F DUP6 GT PUSH1 0x1 EQ PUSH2 0xB22 JUMPI SWAP4 DUP1 DUP1 PUSH2 0x491 SWAP6 SWAP5 SWAP4 PUSH32 0x5F9FCBC17FBA60677AE056851409CA727B54B90CB63BE975F68684D06613B078 SWAP8 PUSH1 0x0 SWAP4 PUSH2 0xB17 JUMPI JUMPDEST POP SHL SWAP2 PUSH1 0x0 NOT SWAP1 PUSH1 0x3 SHL SHR NOT AND OR SWAP1 SSTORE JUMPDEST PUSH1 0x40 MLOAD SWAP2 DUP3 SWAP2 DUP6 DUP4 MSTORE CALLER SWAP6 DUP4 ADD SWAP1 PUSH2 0xEED JUMP JUMPDEST DUP7 ADD MLOAD SWAP3 POP DUP10 PUSH2 0xAF3 JUMP JUMPDEST PUSH1 0x1F NOT DUP6 AND SWAP1 DUP4 PUSH1 0x0 MSTORE DUP7 PUSH1 0x0 KECCAK256 SWAP2 PUSH1 0x0 JUMPDEST DUP9 DUP3 DUP3 LT PUSH2 0xB95 JUMPI POP POP SWAP2 DUP7 SWAP2 PUSH32 0x5F9FCBC17FBA60677AE056851409CA727B54B90CB63BE975F68684D06613B078 SWAP8 PUSH2 0x491 SWAP8 SWAP7 SWAP6 SWAP5 LT PUSH2 0xB7C JUMPI JUMPDEST POP POP DUP2 SHL ADD SWAP1 SSTORE PUSH2 0xB04 JUMP JUMPDEST DUP6 ADD MLOAD PUSH1 0x0 NOT PUSH1 0xF8 DUP5 PUSH1 0x3 SHL AND SHR NOT AND SWAP1 SSTORE DUP8 DUP1 PUSH2 0xB70 JUMP JUMPDEST DUP8 DUP5 ADD MLOAD DUP6 SSTORE SWAP4 DUP6 ADD SWAP4 SWAP3 DUP4 ADD SWAP3 ADD PUSH2 0xB34 JUMP JUMPDEST DUP3 PUSH1 0x0 MSTORE DUP6 PUSH1 0x0 KECCAK256 PUSH1 0x1F DUP7 ADD PUSH1 0x5 SHR DUP2 ADD SWAP2 DUP8 DUP8 LT PUSH2 0xBE8 JUMPI JUMPDEST PUSH1 0x1F ADD PUSH1 0x5 SHR ADD SWAP1 DUP3 SWAP1 JUMPDEST DUP3 DUP2 LT PUSH2 0xBDC JUMPI POP POP PUSH2 0xAB3 JUMP JUMPDEST PUSH1 0x0 DUP2 SSTORE ADD DUP3 SWAP1 PUSH2 0xBCE JUMP JUMPDEST SWAP1 SWAP2 POP DUP2 SWAP1 PUSH2 0xBC3 JUMP JUMPDEST CALLVALUE PUSH2 0x187 JUMPI PUSH1 0x20 CALLDATASIZE PUSH1 0x3 NOT ADD SLT PUSH2 0x187 JUMPI PUSH1 0x1 PUSH1 0x1 PUSH1 0xA0 SHL SUB PUSH2 0xC13 PUSH2 0xD97 JUMP JUMPDEST AND PUSH1 0x0 MSTORE PUSH1 0x0 PUSH1 0x20 MSTORE PUSH2 0xC97 PUSH1 0x40 PUSH1 0x0 KECCAK256 PUSH1 0x40 MLOAD PUSH2 0xC30 DUP2 PUSH2 0xDE7 JUMP JUMPDEST PUSH2 0xC39 DUP3 PUSH2 0xE25 JUMP JUMPDEST DUP2 MSTORE PUSH2 0xC47 PUSH1 0x1 DUP4 ADD PUSH2 0xE25 JUMP JUMPDEST SWAP2 DUP3 PUSH1 0x20 DUP4 ADD MSTORE PUSH2 0xCA5 PUSH1 0x2 DUP3 ADD SLOAD SWAP3 DUP4 PUSH1 0x40 DUP3 ADD MSTORE PUSH1 0x5 PUSH1 0xFF PUSH1 0x3 DUP6 ADD SLOAD AND ISZERO ISZERO SWAP4 DUP5 PUSH1 0x60 DUP5 ADD MSTORE PUSH1 0x4 DUP2 ADD SLOAD PUSH1 0x80 DUP5 ADD MSTORE ADD SLOAD PUSH1 0xA0 DUP3 ADD MSTORE MLOAD SWAP4 PUSH1 0x40 MLOAD SWAP6 DUP7 SWAP6 PUSH1 0x80 DUP8 MSTORE PUSH1 0x80 DUP8 ADD SWAP1 PUSH2 0xEED JUMP JUMPDEST SWAP1 DUP6 DUP3 SUB PUSH1 0x20 DUP8 ADD MSTORE PUSH2 0xEED JUMP JUMPDEST SWAP2 PUSH1 0x40 DUP5 ADD MSTORE PUSH1 0x60 DUP4 ADD MSTORE SUB SWAP1 RETURN JUMPDEST CALLVALUE PUSH2 0x187 JUMPI PUSH1 0x20 CALLDATASIZE PUSH1 0x3 NOT ADD SLT PUSH2 0x187 JUMPI PUSH1 0x4 CALLDATALOAD PUSH1 0x2 SLOAD DUP2 LT ISZERO PUSH2 0x187 JUMPI PUSH2 0xCDD PUSH1 0x20 SWAP2 PUSH2 0xF12 JUMP JUMPDEST SWAP1 SLOAD PUSH1 0x40 MLOAD PUSH1 0x3 SWAP3 SWAP1 SWAP3 SHL SHR PUSH1 0x1 PUSH1 0x1 PUSH1 0xA0 SHL SUB AND DUP2 MSTORE RETURN JUMPDEST CALLVALUE PUSH2 0x187 JUMPI PUSH1 0x20 CALLDATASIZE PUSH1 0x3 NOT ADD SLT PUSH2 0x187 JUMPI PUSH1 0x1 PUSH1 0x1 PUSH1 0xA0 SHL SUB PUSH2 0xD17 PUSH2 0xD97 JUMP JUMPDEST AND PUSH1 0x0 MSTORE PUSH1 0x0 PUSH1 0x20 MSTORE PUSH2 0xD6E PUSH1 0x40 PUSH1 0x0 KECCAK256 PUSH2 0xD31 DUP2 PUSH2 0xE25 JUMP JUMPDEST SWAP1 PUSH2 0xD3E PUSH1 0x1 DUP3 ADD PUSH2 0xE25 JUMP JUMPDEST PUSH1 0x2 DUP3 ADD SLOAD SWAP2 PUSH1 0xFF PUSH1 0x3 DUP3 ADD SLOAD AND PUSH2 0xD7C PUSH1 0x5 PUSH1 0x4 DUP5 ADD SLOAD SWAP4 ADD SLOAD SWAP4 PUSH1 0x40 MLOAD SWAP8 DUP9 SWAP8 PUSH1 0xC0 DUP10 MSTORE PUSH1 0xC0 DUP10 ADD SWAP1 PUSH2 0xEED JUMP JUMPDEST SWAP1 DUP8 DUP3 SUB PUSH1 0x20 DUP10 ADD MSTORE PUSH2 0xEED JUMP JUMPDEST SWAP4 PUSH1 0x40 DUP7 ADD MSTORE ISZERO ISZERO PUSH1 0x60 DUP6 ADD MSTORE PUSH1 0x80 DUP5 ADD MSTORE PUSH1 0xA0 DUP4 ADD MSTORE SUB SWAP1 RETURN JUMPDEST PUSH1 0x4 CALLDATALOAD SWAP1 PUSH1 0x1 PUSH1 0x1 PUSH1 0xA0 SHL SUB DUP3 AND DUP3 SUB PUSH2 0x187 JUMPI JUMP JUMPDEST SWAP1 PUSH1 0x1 DUP3 DUP2 SHR SWAP3 AND DUP1 ISZERO PUSH2 0xDDD JUMPI JUMPDEST PUSH1 0x20 DUP4 LT EQ PUSH2 0xDC7 JUMPI JUMP JUMPDEST PUSH4 0x4E487B71 PUSH1 0xE0 SHL PUSH1 0x0 MSTORE PUSH1 0x22 PUSH1 0x4 MSTORE PUSH1 0x24 PUSH1 0x0 REVERT JUMPDEST SWAP2 PUSH1 0x7F AND SWAP2 PUSH2 0xDBC JUMP JUMPDEST PUSH1 0xC0 DUP2 ADD SWAP1 DUP2 LT PUSH8 0xFFFFFFFFFFFFFFFF DUP3 GT OR PUSH2 0x496 JUMPI PUSH1 0x40 MSTORE JUMP JUMPDEST SWAP1 PUSH1 0x1F DUP1 NOT SWAP2 ADD AND DUP2 ADD SWAP1 DUP2 LT PUSH8 0xFFFFFFFFFFFFFFFF DUP3 GT OR PUSH2 0x496 JUMPI PUSH1 0x40 MSTORE JUMP JUMPDEST SWAP1 PUSH1 0x40 MLOAD SWAP2 DUP3 PUSH1 0x0 DUP3 SLOAD PUSH2 0xE38 DUP2 PUSH2 0xDAD JUMP JUMPDEST SWAP1 DUP2 DUP5 MSTORE PUSH1 0x20 SWAP5 PUSH1 0x1 SWAP2 PUSH1 0x1 DUP2 AND SWAP1 DUP2 PUSH1 0x0 EQ PUSH2 0xEA8 JUMPI POP PUSH1 0x1 EQ PUSH2 0xE69 JUMPI JUMPDEST POP POP POP PUSH2 0xE67 SWAP3 POP SUB DUP4 PUSH2 0xE03 JUMP JUMPDEST JUMP JUMPDEST PUSH1 0x0 SWAP1 DUP2 MSTORE DUP6 DUP2 KECCAK256 SWAP6 SWAP4 POP SWAP2 SWAP1 JUMPDEST DUP2 DUP4 LT PUSH2 0xE90 JUMPI POP POP PUSH2 0xE67 SWAP4 POP DUP3 ADD ADD CODESIZE DUP1 DUP1 PUSH2 0xE58 JUMP JUMPDEST DUP6 SLOAD DUP9 DUP5 ADD DUP6 ADD MSTORE SWAP5 DUP6 ADD SWAP5 DUP8 SWAP5 POP SWAP2 DUP4 ADD SWAP2 PUSH2 0xE77 JUMP JUMPDEST SWAP3 POP POP POP PUSH2 0xE67 SWAP5 SWAP3 POP PUSH1 0xFF NOT AND DUP3 DUP5 ADD MSTORE ISZERO ISZERO PUSH1 0x5 SHL DUP3 ADD ADD CODESIZE DUP1 DUP1 PUSH2 0xE58 JUMP JUMPDEST PUSH1 0x0 JUMPDEST DUP4 DUP2 LT PUSH2 0xEDD JUMPI POP POP PUSH1 0x0 SWAP2 ADD MSTORE JUMP JUMPDEST DUP2 DUP2 ADD MLOAD DUP4 DUP3 ADD MSTORE PUSH1 0x20 ADD PUSH2 0xECD JUMP JUMPDEST SWAP1 PUSH1 0x20 SWAP2 PUSH2 0xF06 DUP2 MLOAD DUP1 SWAP3 DUP2 DUP6 MSTORE DUP6 DUP1 DUP7 ADD SWAP2 ADD PUSH2 0xECA JUMP JUMPDEST PUSH1 0x1F ADD PUSH1 0x1F NOT AND ADD ADD SWAP1 JUMP JUMPDEST PUSH1 0x2 SLOAD DUP2 LT ISZERO PUSH2 0x9C4 JUMPI PUSH1 0x2 PUSH1 0x0 MSTORE PUSH32 0x405787FA12A823E0F2B7631CC41B3BA8828B3321CA811111FA75CD3AA3BB5ACE ADD SWAP1 PUSH1 0x0 SWAP1 JUMP JUMPDEST DUP2 PUSH1 0x1F DUP3 ADD SLT ISZERO PUSH2 0x187 JUMPI DUP1 CALLDATALOAD SWAP1 PUSH8 0xFFFFFFFFFFFFFFFF DUP3 GT PUSH2 0x496 JUMPI PUSH1 0x40 MLOAD SWAP3 PUSH2 0xF7E PUSH1 0x1F DUP5 ADD PUSH1 0x1F NOT AND PUSH1 0x20 ADD DUP6 PUSH2 0xE03 JUMP JUMPDEST DUP3 DUP5 MSTORE PUSH1 0x20 DUP4 DUP4 ADD ADD GT PUSH2 0x187 JUMPI DUP2 PUSH1 0x0 SWAP3 PUSH1 0x20 DUP1 SWAP4 ADD DUP4 DUP7 ADD CALLDATACOPY DUP4 ADD ADD MSTORE SWAP1 JUMP JUMPDEST ISZERO PUSH2 0xFA7 JUMPI JUMP JUMPDEST PUSH1 0x40 MLOAD PUSH3 0x461BCD PUSH1 0xE5 SHL DUP2 MSTORE PUSH1 0x20 PUSH1 0x4 DUP3 ADD MSTORE PUSH1 0x13 PUSH1 0x24 DUP3 ADD MSTORE PUSH19 0x139BD919481B9BDD081C9959DA5CDD195C9959 PUSH1 0x6A SHL PUSH1 0x44 DUP3 ADD MSTORE PUSH1 0x64 SWAP1 REVERT JUMPDEST ISZERO PUSH2 0xFE9 JUMPI JUMP JUMPDEST PUSH1 0x40 MLOAD PUSH3 0x461BCD PUSH1 0xE5 SHL DUP2 MSTORE PUSH1 0x20 PUSH1 0x4 DUP3 ADD MSTORE PUSH1 0x11 PUSH1 0x24 DUP3 ADD MSTORE PUSH17 0x115B991C1BDA5B9D081C995C5D5A5C9959 PUSH1 0x7A SHL PUSH1 0x44 DUP3 ADD MSTORE PUSH1 0x64 SWAP1 REVERT JUMPDEST PUSH1 0x0 NOT DUP2 EQ PUSH2 0x1031 JUMPI PUSH1 0x1 ADD SWAP1 JUMP JUMPDEST PUSH4 0x4E487B71 PUSH1 0xE0 SHL PUSH1 0x0 MSTORE PUSH1 0x11 PUSH1 0x4 MSTORE PUSH1 0x24 PUSH1 0x0 REVERT JUMPDEST PUSH8 0xFFFFFFFFFFFFFFFF DUP2 GT PUSH2 0x496 JUMPI PUSH1 0x5 SHL PUSH1 0x20 ADD SWAP1 JUMP INVALID LOG1 PUSH5 0x736F6C6343 STOP ADDMOD XOR STOP EXP "},"methodIdentifiers":{"deactivateNode()":"96ef592e","getActiveNodeCount()":"c5ea2b87","getActiveNodes()":"6b51e919","getNodeInfo(address)":"582115fb","isNodeRegistered(address)":"8cc0ebb5","nodeIdToAddress(string)":"c27f66a6","nodeList(uint256)":"208f2a31","nodes(address)":"189a5a17","registerNode(string,string)":"d3983524","totalNodes()":"9592d424","updateEndpoint(string)":"5c019d2e","updateReputation(address,uint256)":"f5c91a08","updateUptime(address,uint256)":"e62a00bf"}}}}}