{"contracts/OnboardingContracts.sol":{"TokenFaucet":{"abi":[{"inputs":[],"stateMutability":"nonpayable","type":"constructor"},{"anonymous":false,"inputs":[{"indexed":true,"internalType":"address","name":"user","type":"address"},{"indexed":false,"internalType":"uint256","name":"amount","type":"uint256"}],"name":"Claimed","type":"event"},{"anonymous":false,"inputs":[{"indexed":true,"internalType":"address","name":"from","type":"address"},{"indexed":true,"internalType":"address","name":"to","type":"address"},{"indexed":false,"internalType":"uint256","name":"value","type":"uint256"}],"name":"Transfer","type":"event"},{"inputs":[],"name":"FAUCET_AMOUNT","outputs":[{"internalType":"uint256","name":"","type":"uint256"}],"stateMutability":"view","type":"function"},{"inputs":[{"internalType":"address","name":"account","type":"address"}],"name":"balanceOf","outputs":[{"internalType":"uint256","name":"","type":"uint256"}],"stateMutability":"view","type":"function"},{"inputs":[{"internalType":"address","name":"","type":"address"}],"name":"balances","outputs":[{"internalType":"uint256","name":"","type":"uint256"}],"stateMutability":"view","type":"function"},{"inputs":[],"name":"claim","outputs":[],"stateMutability":"nonpayable","type":"function"},{"inputs":[],"name":"decimals","outputs":[{"internalType":"uint8","name":"","type":"uint8"}],"stateMutability":"view","type":"function"},{"inputs":[{"internalType":"address","name":"","type":"address"}],"name":"hasClaimed","outputs":[{"internalType":"bool","name":"","type":"bool"}],"stateMutability":"view","type":"function"},{"inputs":[],"name":"name","outputs":[{"internalType":"string","name":"","type":"string"}],"stateMutability":"view","type":"function"},{"inputs":[],"name":"symbol","outputs":[{"internalType":"string","name":"","type":"string"}],"stateMutability":"view","type":"function"},{"inputs":[],"name":"totalSupply","outputs":[{"internalType":"uint256","name":"","type":"uint256"}],"stateMutability":"view","type":"function"},{"inputs":[{"internalType":"address","name":"to","type":"address"},{"internalType":"uint256","name":"amount","type":"uint256"}],"name":"transfer","outputs":[{"internalType":"bool","name":"","type":"bool"}],"stateMutability":"nonpayable","type":"function"}],"evm":{"bytecode":{"linkReferences":{},"object":"6080604052346101385761001460035461013d565b601f81116100eb575b507f4f7261535253205465737420546f6b656e00000000000000000000000000002260035560045461004e9061013d565b601f811161009e575b6006624f524160e81b01600455601260ff19600554161760055569d3c21bcecceda10000008060025530600052600160205260406000205560405161065390816101788239f35b6004600090815290601f0160051c7f8a35acfbc15ff81a39ae7d344fd709f28e8600b4aa8c65c6b64bfe7fe36bd19b908101905b8181106100e0575050610057565b8281556001016100d2565b6003600090815290601f0160051c7fc2575a0e9e593c00f959f8c92f12db2869c3395a3b0502d05e2516446f71f85b908101905b81811061012d57505061001d565b82815560010161011f565b600080fd5b90600182811c9216801561016d575b602083101461015757565b634e487b7160e01b600052602260045260246000fd5b91607f169161014c56fe608060408181526004918236101561001657600080fd5b600090813560e01c90816306fdde03146105075750806318160ddd146104e857806327e235e314610319578063313ce567146104c65780634e71d92d1461035157806370a082311461031957806373b2e80e146102dc57806376697640146102b857806395d89b41146101935763a9059cbb1461009257600080fd5b346101905781600319360112610190576100aa61062b565b9260243590338352602094600186528285852054106101565733845260018652848420805490848203918211610143575560018060a01b03169283815260018652848120908154928484018094116101305750505582519081527fddf252ad1be2c89b69c2b068fc378daa952ba7f163c4a11628f55a4df523b3ef843392a35160018152f35b634e487b7160e01b825260119052602490fd5b634e487b7160e01b865260118452602486fd5b845162461bcd60e51b81528083018790526014602482015273496e73756666696369656e742062616c616e636560601b6044820152606490fd5b80fd5b5090346102b457816003193601126102b45780519082845460018160011c90600183169283156102aa575b60209384841081146102975783885290811561027b5750600114610226575b505050829003601f01601f191682019267ffffffffffffffff841183851017610213575082918261020f9252826105e2565b0390f35b634e487b7160e01b815260418552602490fd5b8787529192508591837f8a35acfbc15ff81a39ae7d344fd709f28e8600b4aa8c65c6b64bfe7fe36bd19b5b83851061026757505050508301013880806101dd565b805488860183015293019284908201610251565b60ff1916878501525050151560051b84010190503880806101dd565b634e487b7160e01b895260228a52602489fd5b91607f16916101be565b5080fd5b5090346102b457816003193601126102b45760209051683635c9adc5dea000008152f35b5090346102b45760203660031901126102b45760209160ff9082906001600160a01b0361030761062b565b16815280855220541690519015158152f35b5090346102b45760203660031901126102b45760209181906001600160a01b0361034161062b565b1681526001845220549051908152f35b5091346104c257826003193601126104c25733835260209183835260ff818520541661048f5730845260018352683635c9adc5dea000009182828620541061045f57338552848452818520600160ff1982541617905530855260018452818520805490683635c9adc5de9fffff19820191821161044c57553385526001845281852080549184830180931161043957505580518281527fd8138f8a3f377c5259ca548e70e4c2de94f129f5a11036a15b69513cba2b426a843392a2519081527fddf252ad1be2c89b69c2b068fc378daa952ba7f163c4a11628f55a4df523b3ef33923092a380f35b634e487b7160e01b875260119052602486fd5b634e487b7160e01b875260118352602487fd5b83606492519162461bcd60e51b8352820152600c60248201526b46617563657420656d70747960a01b6044820152fd5b91606492519162461bcd60e51b8352820152600f60248201526e105b1c9958591e4818db185a5b5959608a1b6044820152fd5b8280fd5b5090346102b457816003193601126102b45760209060ff600554169051908152f35b5090346102b457816003193601126102b4576020906002549051908152f35b91929050346104c257826003193601126104c2578260035460018160011c90600183169283156105d8575b60209384841081146102975783885290811561027b575060011461058257505050829003601f01601f191682019267ffffffffffffffff841183851017610213575082918261020f9252826105e2565b600387529192508591837fc2575a0e9e593c00f959f8c92f12db2869c3395a3b0502d05e2516446f71f85b5b8385106105c457505050508301013880806101dd565b8054888601830152930192849082016105ae565b91607f1691610532565b6020808252825181830181905290939260005b82811061061757505060409293506000838284010152601f8019910116010190565b8181018601518482016040015285016105f5565b600435906001600160a01b038216820361064157565b600080fdfea164736f6c6343000818000a","opcodes":"PUSH1 0x80 PUSH1 0x40 MSTORE CALLVALUE PUSH2 0x138 JUMPI PUSH2 0x14 PUSH1 0x3 SLOAD PUSH2 0x13D JUMP JUMPDEST PUSH1 0x1F DUP2 GT PUSH2 0xEB JUMPI JUMPDEST POP PUSH32 0x4F7261535253205465737420546F6B656E000000000000000000000000000022 PUSH1 0x3 SSTORE PUSH1 0x4 SLOAD PUSH2 0x4E SWAP1 PUSH2 0x13D JUMP JUMPDEST PUSH1 0x1F DUP2 GT PUSH2 0x9E JUMPI JUMPDEST PUSH1 0x6 PUSH3 0x4F5241 PUSH1 0xE8 SHL ADD PUSH1 0x4 SSTORE PUSH1 0x12 PUSH1 0xFF NOT PUSH1 0x5 SLOAD AND OR PUSH1 0x5 SSTORE PUSH10 0xD3C21BCECCEDA1000000 DUP1 PUSH1 0x2 SSTORE ADDRESS PUSH1 0x0 MSTORE PUSH1 0x1 PUSH1 0x20 MSTORE PUSH1 0x40 PUSH1 0x0 KECCAK256 SSTORE PUSH1 0x40 MLOAD PUSH2 0x653 SWAP1 DUP2 PUSH2 0x178 DUP3 CODECOPY RETURN JUMPDEST PUSH1 0x4 PUSH1 0x0 SWAP1 DUP2 MSTORE SWAP1 PUSH1 0x1F ADD PUSH1 0x5 SHR PUSH32 0x8A35ACFBC15FF81A39AE7D344FD709F28E8600B4AA8C65C6B64BFE7FE36BD19B SWAP1 DUP2 ADD SWAP1 JUMPDEST DUP2 DUP2 LT PUSH2 0xE0 JUMPI POP POP PUSH2 0x57 JUMP JUMPDEST DUP3 DUP2 SSTORE PUSH1 0x1 ADD PUSH2 0xD2 JUMP JUMPDEST PUSH1 0x3 PUSH1 0x0 SWAP1 DUP2 MSTORE SWAP1 PUSH1 0x1F ADD PUSH1 0x5 SHR PUSH32 0xC2575A0E9E593C00F959F8C92F12DB2869C3395A3B0502D05E2516446F71F85B SWAP1 DUP2 ADD SWAP1 JUMPDEST DUP2 DUP2 LT PUSH2 0x12D JUMPI POP POP PUSH2 0x1D JUMP JUMPDEST DUP3 DUP2 SSTORE PUSH1 0x1 ADD PUSH2 0x11F JUMP JUMPDEST PUSH1 0x0 DUP1 REVERT JUMPDEST SWAP1 PUSH1 0x1 DUP3 DUP2 SHR SWAP3 AND DUP1 ISZERO PUSH2 0x16D JUMPI JUMPDEST PUSH1 0x20 DUP4 LT EQ PUSH2 0x157 JUMPI JUMP JUMPDEST PUSH4 0x4E487B71 PUSH1 0xE0 SHL PUSH1 0x0 MSTORE PUSH1 0x22 PUSH1 0x4 MSTORE PUSH1 0x24 PUSH1 0x0 REVERT JUMPDEST SWAP2 PUSH1 0x7F AND SWAP2 PUSH2 0x14C JUMP INVALID PUSH1 0x80 PUSH1 0x40 DUP2 DUP2 MSTORE PUSH1 0x4 SWAP2 DUP3 CALLDATASIZE LT ISZERO PUSH2 0x16 JUMPI PUSH1 0x0 DUP1 REVERT JUMPDEST PUSH1 0x0 SWAP1 DUP2 CALLDATALOAD PUSH1 0xE0 SHR SWAP1 DUP2 PUSH4 0x6FDDE03 EQ PUSH2 0x507 JUMPI POP DUP1 PUSH4 0x18160DDD EQ PUSH2 0x4E8 JUMPI DUP1 PUSH4 0x27E235E3 EQ PUSH2 0x319 JUMPI DUP1 PUSH4 0x313CE567 EQ PUSH2 0x4C6 JUMPI DUP1 PUSH4 0x4E71D92D EQ PUSH2 0x351 JUMPI DUP1 PUSH4 0x70A08231 EQ PUSH2 0x319 JUMPI DUP1 PUSH4 0x73B2E80E EQ PUSH2 0x2DC JUMPI DUP1 PUSH4 0x76697640 EQ PUSH2 0x2B8 JUMPI DUP1 PUSH4 0x95D89B41 EQ PUSH2 0x193 JUMPI PUSH4 0xA9059CBB EQ PUSH2 0x92 JUMPI PUSH1 0x0 DUP1 REVERT JUMPDEST CALLVALUE PUSH2 0x190 JUMPI DUP2 PUSH1 0x3 NOT CALLDATASIZE ADD SLT PUSH2 0x190 JUMPI PUSH2 0xAA PUSH2 0x62B JUMP JUMPDEST SWAP3 PUSH1 0x24 CALLDATALOAD SWAP1 CALLER DUP4 MSTORE PUSH1 0x20 SWAP5 PUSH1 0x1 DUP7 MSTORE DUP3 DUP6 DUP6 KECCAK256 SLOAD LT PUSH2 0x156 JUMPI CALLER DUP5 MSTORE PUSH1 0x1 DUP7 MSTORE DUP5 DUP5 KECCAK256 DUP1 SLOAD SWAP1 DUP5 DUP3 SUB SWAP2 DUP3 GT PUSH2 0x143 JUMPI SSTORE PUSH1 0x1 DUP1 PUSH1 0xA0 SHL SUB AND SWAP3 DUP4 DUP2 MSTORE PUSH1 0x1 DUP7 MSTORE DUP5 DUP2 KECCAK256 SWAP1 DUP2 SLOAD SWAP3 DUP5 DUP5 ADD DUP1 SWAP5 GT PUSH2 0x130 JUMPI POP POP SSTORE DUP3 MLOAD SWAP1 DUP2 MSTORE PUSH32 0xDDF252AD1BE2C89B69C2B068FC378DAA952BA7F163C4A11628F55A4DF523B3EF DUP5 CALLER SWAP3 LOG3 MLOAD PUSH1 0x1 DUP2 MSTORE RETURN JUMPDEST PUSH4 0x4E487B71 PUSH1 0xE0 SHL DUP3 MSTORE PUSH1 0x11 SWAP1 MSTORE PUSH1 0x24 SWAP1 REVERT JUMPDEST PUSH4 0x4E487B71 PUSH1 0xE0 SHL DUP7 MSTORE PUSH1 0x11 DUP5 MSTORE PUSH1 0x24 DUP7 REVERT JUMPDEST DUP5 MLOAD PUSH3 0x461BCD PUSH1 0xE5 SHL DUP2 MSTORE DUP1 DUP4 ADD DUP8 SWAP1 MSTORE PUSH1 0x14 PUSH1 0x24 DUP3 ADD MSTORE PUSH20 0x496E73756666696369656E742062616C616E6365 PUSH1 0x60 SHL PUSH1 0x44 DUP3 ADD MSTORE PUSH1 0x64 SWAP1 REVERT JUMPDEST DUP1 REVERT JUMPDEST POP SWAP1 CALLVALUE PUSH2 0x2B4 JUMPI DUP2 PUSH1 0x3 NOT CALLDATASIZE ADD SLT PUSH2 0x2B4 JUMPI DUP1 MLOAD SWAP1 DUP3 DUP5 SLOAD PUSH1 0x1 DUP2 PUSH1 0x1 SHR SWAP1 PUSH1 0x1 DUP4 AND SWAP3 DUP4 ISZERO PUSH2 0x2AA JUMPI JUMPDEST PUSH1 0x20 SWAP4 DUP5 DUP5 LT DUP2 EQ PUSH2 0x297 JUMPI DUP4 DUP9 MSTORE SWAP1 DUP2 ISZERO PUSH2 0x27B JUMPI POP PUSH1 0x1 EQ PUSH2 0x226 JUMPI JUMPDEST POP POP POP DUP3 SWAP1 SUB PUSH1 0x1F ADD PUSH1 0x1F NOT AND DUP3 ADD SWAP3 PUSH8 0xFFFFFFFFFFFFFFFF DUP5 GT DUP4 DUP6 LT OR PUSH2 0x213 JUMPI POP DUP3 SWAP2 DUP3 PUSH2 0x20F SWAP3 MSTORE DUP3 PUSH2 0x5E2 JUMP JUMPDEST SUB SWAP1 RETURN JUMPDEST PUSH4 0x4E487B71 PUSH1 0xE0 SHL DUP2 MSTORE PUSH1 0x41 DUP6 MSTORE PUSH1 0x24 SWAP1 REVERT JUMPDEST DUP8 DUP8 MSTORE SWAP2 SWAP3 POP DUP6 SWAP2 DUP4 PUSH32 0x8A35ACFBC15FF81A39AE7D344FD709F28E8600B4AA8C65C6B64BFE7FE36BD19B JUMPDEST DUP4 DUP6 LT PUSH2 0x267 JUMPI POP POP POP POP DUP4 ADD ADD CODESIZE DUP1 DUP1 PUSH2 0x1DD JUMP JUMPDEST DUP1 SLOAD DUP9 DUP7 ADD DUP4 ADD MSTORE SWAP4 ADD SWAP3 DUP5 SWAP1 DUP3 ADD PUSH2 0x251 JUMP JUMPDEST PUSH1 0xFF NOT AND DUP8 DUP6 ADD MSTORE POP POP ISZERO ISZERO PUSH1 0x5 SHL DUP5 ADD ADD SWAP1 POP CODESIZE DUP1 DUP1 PUSH2 0x1DD JUMP JUMPDEST PUSH4 0x4E487B71 PUSH1 0xE0 SHL DUP10 MSTORE PUSH1 0x22 DUP11 MSTORE PUSH1 0x24 DUP10 REVERT JUMPDEST SWAP2 PUSH1 0x7F AND SWAP2 PUSH2 0x1BE JUMP JUMPDEST POP DUP1 REVERT JUMPDEST POP SWAP1 CALLVALUE PUSH2 0x2B4 JUMPI DUP2 PUSH1 0x3 NOT CALLDATASIZE ADD SLT PUSH2 0x2B4 JUMPI PUSH1 0x20 SWAP1 MLOAD PUSH9 0x3635C9ADC5DEA00000 DUP2 MSTORE RETURN JUMPDEST POP SWAP1 CALLVALUE PUSH2 0x2B4 JUMPI PUSH1 0x20 CALLDATASIZE PUSH1 0x3 NOT ADD SLT PUSH2 0x2B4 JUMPI PUSH1 0x20 SWAP2 PUSH1 0xFF SWAP1 DUP3 SWAP1 PUSH1 0x1 PUSH1 0x1 PUSH1 0xA0 SHL SUB PUSH2 0x307 PUSH2 0x62B JUMP JUMPDEST AND DUP2 MSTORE DUP1 DUP6 MSTORE KECCAK256 SLOAD AND SWAP1 MLOAD SWAP1 ISZERO ISZERO DUP2 MSTORE RETURN JUMPDEST POP SWAP1 CALLVALUE PUSH2 0x2B4 JUMPI PUSH1 0x20 CALLDATASIZE PUSH1 0x3 NOT ADD SLT PUSH2 0x2B4 JUMPI PUSH1 0x20 SWAP2 DUP2 SWAP1 PUSH1 0x1 PUSH1 0x1 PUSH1 0xA0 SHL SUB PUSH2 0x341 PUSH2 0x62B JUMP JUMPDEST AND DUP2 MSTORE PUSH1 0x1 DUP5 MSTORE KECCAK256 SLOAD SWAP1 MLOAD SWAP1 DUP2 MSTORE RETURN JUMPDEST POP SWAP2 CALLVALUE PUSH2 0x4C2 JUMPI DUP3 PUSH1 0x3 NOT CALLDATASIZE ADD SLT PUSH2 0x4C2 JUMPI CALLER DUP4 MSTORE PUSH1 0x20 SWAP2 DUP4 DUP4 MSTORE PUSH1 0xFF DUP2 DUP6 KECCAK256 SLOAD AND PUSH2 0x48F JUMPI ADDRESS DUP5 MSTORE PUSH1 0x1 DUP4 MSTORE PUSH9 0x3635C9ADC5DEA00000 SWAP2 DUP3 DUP3 DUP7 KECCAK256 SLOAD LT PUSH2 0x45F JUMPI CALLER DUP6 MSTORE DUP5 DUP5 MSTORE DUP2 DUP6 KECCAK256 PUSH1 0x1 PUSH1 0xFF NOT DUP3 SLOAD AND OR SWAP1 SSTORE ADDRESS DUP6 MSTORE PUSH1 0x1 DUP5 MSTORE DUP2 DUP6 KECCAK256 DUP1 SLOAD SWAP1 PUSH9 0x3635C9ADC5DE9FFFFF NOT DUP3 ADD SWAP2 DUP3 GT PUSH2 0x44C JUMPI SSTORE CALLER DUP6 MSTORE PUSH1 0x1 DUP5 MSTORE DUP2 DUP6 KECCAK256 DUP1 SLOAD SWAP2 DUP5 DUP4 ADD DUP1 SWAP4 GT PUSH2 0x439 JUMPI POP SSTORE DUP1 MLOAD DUP3 DUP2 MSTORE PUSH32 0xD8138F8A3F377C5259CA548E70E4C2DE94F129F5A11036A15B69513CBA2B426A DUP5 CALLER SWAP3 LOG2 MLOAD SWAP1 DUP2 MSTORE PUSH32 0xDDF252AD1BE2C89B69C2B068FC378DAA952BA7F163C4A11628F55A4DF523B3EF CALLER SWAP3 ADDRESS SWAP3 LOG3 DUP1 RETURN JUMPDEST PUSH4 0x4E487B71 PUSH1 0xE0 SHL DUP8 MSTORE PUSH1 0x11 SWAP1 MSTORE PUSH1 0x24 DUP7 REVERT JUMPDEST PUSH4 0x4E487B71 PUSH1 0xE0 SHL DUP8 MSTORE PUSH1 0x11 DUP4 MSTORE PUSH1 0x24 DUP8 REVERT JUMPDEST DUP4 PUSH1 0x64 SWAP3 MLOAD SWAP2 PUSH3 0x461BCD PUSH1 0xE5 SHL DUP4 MSTORE DUP3 ADD MSTORE PUSH1 0xC PUSH1 0x24 DUP3 ADD MSTORE PUSH12 0x46617563657420656D707479 PUSH1 0xA0 SHL PUSH1 0x44 DUP3 ADD MSTORE REVERT JUMPDEST SWAP2 PUSH1 0x64 SWAP3 MLOAD SWAP2 PUSH3 0x461BCD PUSH1 0xE5 SHL DUP4 MSTORE DUP3 ADD MSTORE PUSH1 0xF PUSH1 0x24 DUP3 ADD MSTORE PUSH15 0x105B1C9958591E4818DB185A5B5959 PUSH1 0x8A SHL PUSH1 0x44 DUP3 ADD MSTORE REVERT JUMPDEST DUP3 DUP1 REVERT JUMPDEST POP SWAP1 CALLVALUE PUSH2 0x2B4 JUMPI DUP2 PUSH1 0x3 NOT CALLDATASIZE ADD SLT PUSH2 0x2B4 JUMPI PUSH1 0x20 SWAP1 PUSH1 0xFF PUSH1 0x5 SLOAD AND SWAP1 MLOAD SWAP1 DUP2 MSTORE RETURN JUMPDEST POP SWAP1 CALLVALUE PUSH2 0x2B4 JUMPI DUP2 PUSH1 0x3 NOT CALLDATASIZE ADD SLT PUSH2 0x2B4 JUMPI PUSH1 0x20 SWAP1 PUSH1 0x2 SLOAD SWAP1 MLOAD SWAP1 DUP2 MSTORE RETURN JUMPDEST SWAP2 SWAP3 SWAP1 POP CALLVALUE PUSH2 0x4C2 JUMPI DUP3 PUSH1 0x3 NOT CALLDATASIZE ADD SLT PUSH2 0x4C2 JUMPI DUP3 PUSH1 0x3 SLOAD PUSH1 0x1 DUP2 PUSH1 0x1 SHR SWAP1 PUSH1 0x1 DUP4 AND SWAP3 DUP4 ISZERO PUSH2 0x5D8 JUMPI JUMPDEST PUSH1 0x20 SWAP4 DUP5 DUP5 LT DUP2 EQ PUSH2 0x297 JUMPI DUP4 DUP9 MSTORE SWAP1 DUP2 ISZERO PUSH2 0x27B JUMPI POP PUSH1 0x1 EQ PUSH2 0x582 JUMPI POP POP POP DUP3 SWAP1 SUB PUSH1 0x1F ADD PUSH1 0x1F NOT AND DUP3 ADD SWAP3 PUSH8 0xFFFFFFFFFFFFFFFF DUP5 GT DUP4 DUP6 LT OR PUSH2 0x213 JUMPI POP DUP3 SWAP2 DUP3 PUSH2 0x20F SWAP3 MSTORE DUP3 PUSH2 0x5E2 JUMP JUMPDEST PUSH1 0x3 DUP8 MSTORE SWAP2 SWAP3 POP DUP6 SWAP2 DUP4 PUSH32 0xC2575A0E9E593C00F959F8C92F12DB2869C3395A3B0502D05E2516446F71F85B JUMPDEST DUP4 DUP6 LT PUSH2 0x5C4 JUMPI POP POP POP POP DUP4 ADD ADD CODESIZE DUP1 DUP1 PUSH2 0x1DD JUMP JUMPDEST DUP1 SLOAD DUP9 DUP7 ADD DUP4 ADD MSTORE SWAP4 ADD SWAP3 DUP5 SWAP1 DUP3 ADD PUSH2 0x5AE JUMP JUMPDEST SWAP2 PUSH1 0x7F AND SWAP2 PUSH2 0x532 JUMP JUMPDEST PUSH1 0x20 DUP1 DUP3 MSTORE DUP3 MLOAD DUP2 DUP4 ADD DUP2 SWAP1 MSTORE SWAP1 SWAP4 SWAP3 PUSH1 0x0 JUMPDEST DUP3 DUP2 LT PUSH2 0x617 JUMPI POP POP PUSH1 0x40 SWAP3 SWAP4 POP PUSH1 0x0 DUP4 DUP3 DUP5 ADD ADD MSTORE PUSH1 0x1F DUP1 NOT SWAP2 ADD AND ADD ADD SWAP1 JUMP JUMPDEST DUP2 DUP2 ADD DUP7 ADD MLOAD DUP5 DUP3 ADD PUSH1 0x40 ADD MSTORE DUP6 ADD PUSH2 0x5F5 JUMP JUMPDEST PUSH1 0x4 CALLDATALOAD SWAP1 PUSH1 0x1 PUSH1 0x1 PUSH1 0xA0 SHL SUB DUP3 AND DUP3 SUB PUSH2 0x641 JUMPI JUMP JUMPDEST PUSH1 0x0 DUP1 REVERT INVALID LOG1 PUSH5 0x736F6C6343 STOP ADDMOD XOR STOP EXP "},"methodIdentifiers":{"FAUCET_AMOUNT()":"76697640","balanceOf(address)":"70a08231","balances(address)":"27e235e3","claim()":"4e71d92d","decimals()":"313ce567","hasClaimed(address)":"73b2e80e","name()":"06fdde03","symbol()":"95d89b41","totalSupply()":"18160ddd","transfer(address,uint256)":"a9059cbb"}}}}}