{"contracts/ThreatReport.sol":{"ThreatReport":{"abi":[{"anonymous":false,"inputs":[{"indexed":true,"internalType":"address","name":"reporter","type":"address"},{"indexed":false,"internalType":"string","name":"ip","type":"string"},{"indexed":false,"internalType":"string","name":"reason","type":"string"},{"indexed":false,"internalType":"uint256","name":"timestamp","type":"uint256"}],"name":"ThreatReported","type":"event"},{"inputs":[{"internalType":"string","name":"ip","type":"string"}],"name":"getReportCount","outputs":[{"internalType":"uint256","name":"","type":"uint256"}],"stateMutability":"view","type":"function"},{"inputs":[{"internalType":"string","name":"ip","type":"string"}],"name":"getReports","outputs":[{"components":[{"internalType":"address","name":"reporter","type":"address"},{"internalType":"uint256","name":"timestamp","type":"uint256"},{"internalType":"string","name":"reason","type":"string"},{"internalType":"bytes","name":"signature","type":"bytes"}],"internalType":"struct ThreatReport.Report[]","name":"","type":"tuple[]"}],"stateMutability":"view","type":"function"},{"inputs":[{"internalType":"string","name":"","type":"string"},{"internalType":"address","name":"","type":"address"}],"name":"hasReported","outputs":[{"internalType":"bool","name":"","type":"bool"}],"stateMutability":"view","type":"function"},{"inputs":[{"internalType":"string","name":"ip","type":"string"},{"internalType":"string","name":"reason","type":"string"},{"internalType":"bytes","name":"signature","type":"bytes"}],"name":"reportThreat","outputs":[],"stateMutability":"nonpayable","type":"function"},{"inputs":[{"internalType":"string","name":"","type":"string"},{"internalType":"uint256","name":"","type":"uint256"}],"name":"reports","outputs":[{"internalType":"address","name":"reporter","type":"address"},{"internalType":"uint256","name":"timestamp","type":"uint256"},{"internalType":"string","name":"reason","type":"string"},{"internalType":"bytes","name":"signature","type":"bytes"}],"stateMutability":"view","type":"function"}],"evm":{"bytecode":{"linkReferences":{},"object":"6080806040523461001657610a85908161001c8239f35b600080fdfe6040608081526004908136101561001557600080fd5b600091823560e01c80631a68638a1461066c57806327ec324a146102125780637c96e08e146101b7578063db0cc2c0146101395763f9158e991461005857600080fd5b3461013557816003193601126101355780359067ffffffffffffffff821161013157610086913691016108ba565b6100a1602060243592818551938285809451938492016108d8565b810186815203019020805482101561013157906100bd91610920565b5061012d600361011f60018060a01b038454169360806001820154966101068151936100f7856100f0816002850161098c565b038661084c565b6100f08351809881930161098c565b80519788978852602088015286015260808501906108fb565b9083820360608501526108fb565b0390f35b8380fd5b8280fd5b503461013557816003193601126101355780359067ffffffffffffffff821161013157610168913691016108ba565b6024356001600160a01b03811691908290036101315760209360ff9261019c868694818651938285809451938492016108d8565b81016001815203019020908252855220541690519015158152f35b503461013557602036600319011261013557803567ffffffffffffffff8111610131576020936101ee6102019386933691016108ba565b90828551948386809551938492016108d8565b820190815203019020549051908152f35b50346101355760603660031901126101355767ffffffffffffffff81358181116106685761024390369084016108ba565b9160249182358181116106645761025d90369084016108ba565b916044358281116106605736602382011215610660576102859036908681850135910161086e565b8651928651926020968789019461029d8188886108d8565b860195888160019889815203019020338c52885260ff8a8c205416610614578851156105dd57895188818d8c516102d581848c6108d8565b8201908152030190208a51906102ea8261081a565b3382528982014281528c8301918a835260608401978852805490680100000000000000008210156105ca5790610324918b82018155610920565b9390936105b9575183546001600160a01b0319166001600160a01b0391909116178355518883015551805160028301918682116105a7578e906103718361036b8654610952565b86610a22565b8c91601f84116001146105325760039594936103a493909283610487575b50508160011b916000199060031b1c19161790565b90555b0193519182519384116105215750506103ca826103c48554610952565b85610a22565b86908a601f841160011461049257936104298461043c958b9997956104789b99957fd12664356d7f55a0cce98c3b14a9b04ff21949b9c2cb7dab401b4a9e3e64f70d9e9d97926104875750508160011b916000199060031b1c19161790565b90555b8951809381928a519283916108d8565b81018481520301902033895283528688209060ff1982541617905561046b8651946060865260608601906108fb565b91848303908501526108fb565b9242908201528033930390a280f35b01519050388061038f565b50838b52878b209190601f1984168c5b81811061050c575096848a98946104789a989483989461043c987fd12664356d7f55a0cce98c3b14a9b04ff21949b9c2cb7dab401b4a9e3e64f70d9f9e98106104f3575b505050811b01905561042c565b015160001960f88460031b161c191690553880806104e6565b82840151855593880193928a01928a016104a2565b634e487b7160e01b8c52604190528afd5b8b928e601f97969593971984169086845280842093905b82821061058257505096836003981061056a575b505050811b0190556103a7565b015160001983881b60f8161c1916905538808061055d565b919295899487849397999a9b015181550195019301908f918e95939897969492610549565b634e487b7160e01b8f5260418652848ffd5b634e487b7160e01b8f528e8652848ffd5b50634e487b7160e01b8f5260418652848ffd5b895162461bcd60e51b81529182018890526012908201527149502063616e6e6f7420626520656d70747960701b6044820152606490fd5b895162461bcd60e51b81529182018890526021908201527f596f75206861766520616c7265616479207265706f72746564207468697320496044820152600560fc1b6064820152608490fd5b8780fd5b8680fd5b8480fd5b5082903461081657602090816003193601126101355767ffffffffffffffff91813583811161066857816106a66106b892369086016108ba565b818851938285809451938492016108d8565b8101878152030190209283549081116108035785519194926106e0600583901b87018461084c565b8183528583018095855286852085915b84831061078c5750505050508451938085019181865251809252858501868360051b8701019493965b8388106107265786860387f35b9091929394838061077b600193603f198b820301875289516107686080878060a01b03835116845285830151868501528883015190808a8601528401906108fb565b91606080920151918184039101526108fb565b970193019701969093929193610719565b83896001928c9b98999b516107a08161081a565b848060a01b03865416815284860154838201528d8051906107cf826107c88160028c0161098c565b038361084c565b8201528d516107ec816107e58160038b0161098c565b038261084c565b6060820152815201920192019190979594976106f0565b634e487b7160e01b855260418352602485fd5b5080fd5b6080810190811067ffffffffffffffff82111761083657604052565b634e487b7160e01b600052604160045260246000fd5b90601f8019910116810190811067ffffffffffffffff82111761083657604052565b92919267ffffffffffffffff82116108365760405191610898601f8201601f19166020018461084c565b8294818452818301116108b5578281602093846000960137010152565b600080fd5b9080601f830112156108b5578160206108d59335910161086e565b90565b60005b8381106108eb5750506000910152565b81810151838201526020016108db565b90602091610914815180928185528580860191016108d8565b601f01601f1916010190565b805482101561093c5760005260206000209060021b0190600090565b634e487b7160e01b600052603260045260246000fd5b90600182811c92168015610982575b602083101461096c57565b634e487b7160e01b600052602260045260246000fd5b91607f1691610961565b80546000939261099b82610952565b91828252602093600191600181169081600014610a0357506001146109c2575b5050505050565b90939495506000929192528360002092846000945b8386106109ef575050505001019038808080806109bb565b8054858701830152940193859082016109d7565b60ff19168685015250505090151560051b0101915038808080806109bb565b90601f8111610a3057505050565b6000916000526020600020906020601f850160051c83019410610a6e575b601f0160051c01915b828110610a6357505050565b818155600101610a57565b9092508290610a4e56fea164736f6c6343000818000a","opcodes":"PUSH1 0x80 DUP1 PUSH1 0x40 MSTORE CALLVALUE PUSH2 0x16 JUMPI PUSH2 0xA85 SWAP1 DUP2 PUSH2 0x1C DUP3 CODECOPY RETURN JUMPDEST PUSH1 0x0 DUP1 REVERT INVALID PUSH1 0x40 PUSH1 0x80 DUP2 MSTORE PUSH1 0x4 SWAP1 DUP2 CALLDATASIZE LT ISZERO PUSH2 0x15 JUMPI PUSH1 0x0 DUP1 REVERT JUMPDEST PUSH1 0x0 SWAP2 DUP3 CALLDATALOAD PUSH1 0xE0 SHR DUP1 PUSH4 0x1A68638A EQ PUSH2 0x66C JUMPI DUP1 PUSH4 0x27EC324A EQ PUSH2 0x212 JUMPI DUP1 PUSH4 0x7C96E08E EQ PUSH2 0x1B7 JUMPI DUP1 PUSH4 0xDB0CC2C0 EQ PUSH2 0x139 JUMPI PUSH4 0xF9158E99 EQ PUSH2 0x58 JUMPI PUSH1 0x0 DUP1 REVERT JUMPDEST CALLVALUE PUSH2 0x135 JUMPI DUP2 PUSH1 0x3 NOT CALLDATASIZE ADD SLT PUSH2 0x135 JUMPI DUP1 CALLDATALOAD SWAP1 PUSH8 0xFFFFFFFFFFFFFFFF DUP3 GT PUSH2 0x131 JUMPI PUSH2 0x86 SWAP2 CALLDATASIZE SWAP2 ADD PUSH2 0x8BA JUMP JUMPDEST PUSH2 0xA1 PUSH1 0x20 PUSH1 0x24 CALLDATALOAD SWAP3 DUP2 DUP6 MLOAD SWAP4 DUP3 DUP6 DUP1 SWAP5 MLOAD SWAP4 DUP5 SWAP3 ADD PUSH2 0x8D8 JUMP JUMPDEST DUP2 ADD DUP7 DUP2 MSTORE SUB ADD SWAP1 KECCAK256 DUP1 SLOAD DUP3 LT ISZERO PUSH2 0x131 JUMPI SWAP1 PUSH2 0xBD SWAP2 PUSH2 0x920 JUMP JUMPDEST POP PUSH2 0x12D PUSH1 0x3 PUSH2 0x11F PUSH1 0x1 DUP1 PUSH1 0xA0 SHL SUB DUP5 SLOAD AND SWAP4 PUSH1 0x80 PUSH1 0x1 DUP3 ADD SLOAD SWAP7 PUSH2 0x106 DUP2 MLOAD SWAP4 PUSH2 0xF7 DUP6 PUSH2 0xF0 DUP2 PUSH1 0x2 DUP6 ADD PUSH2 0x98C JUMP JUMPDEST SUB DUP7 PUSH2 0x84C JUMP JUMPDEST PUSH2 0xF0 DUP4 MLOAD DUP1 SWAP9 DUP2 SWAP4 ADD PUSH2 0x98C JUMP JUMPDEST DUP1 MLOAD SWAP8 DUP9 SWAP8 DUP9 MSTORE PUSH1 0x20 DUP9 ADD MSTORE DUP7 ADD MSTORE PUSH1 0x80 DUP6 ADD SWAP1 PUSH2 0x8FB JUMP JUMPDEST SWAP1 DUP4 DUP3 SUB PUSH1 0x60 DUP6 ADD MSTORE PUSH2 0x8FB JUMP JUMPDEST SUB SWAP1 RETURN JUMPDEST DUP4 DUP1 REVERT JUMPDEST DUP3 DUP1 REVERT JUMPDEST POP CALLVALUE PUSH2 0x135 JUMPI DUP2 PUSH1 0x3 NOT CALLDATASIZE ADD SLT PUSH2 0x135 JUMPI DUP1 CALLDATALOAD SWAP1 PUSH8 0xFFFFFFFFFFFFFFFF DUP3 GT PUSH2 0x131 JUMPI PUSH2 0x168 SWAP2 CALLDATASIZE SWAP2 ADD PUSH2 0x8BA JUMP JUMPDEST PUSH1 0x24 CALLDATALOAD PUSH1 0x1 PUSH1 0x1 PUSH1 0xA0 SHL SUB DUP2 AND SWAP2 SWAP1 DUP3 SWAP1 SUB PUSH2 0x131 JUMPI PUSH1 0x20 SWAP4 PUSH1 0xFF SWAP3 PUSH2 0x19C DUP7 DUP7 SWAP5 DUP2 DUP7 MLOAD SWAP4 DUP3 DUP6 DUP1 SWAP5 MLOAD SWAP4 DUP5 SWAP3 ADD PUSH2 0x8D8 JUMP JUMPDEST DUP2 ADD PUSH1 0x1 DUP2 MSTORE SUB ADD SWAP1 KECCAK256 SWAP1 DUP3 MSTORE DUP6 MSTORE KECCAK256 SLOAD AND SWAP1 MLOAD SWAP1 ISZERO ISZERO DUP2 MSTORE RETURN JUMPDEST POP CALLVALUE PUSH2 0x135 JUMPI PUSH1 0x20 CALLDATASIZE PUSH1 0x3 NOT ADD SLT PUSH2 0x135 JUMPI DUP1 CALLDATALOAD PUSH8 0xFFFFFFFFFFFFFFFF DUP2 GT PUSH2 0x131 JUMPI PUSH1 0x20 SWAP4 PUSH2 0x1EE PUSH2 0x201 SWAP4 DUP7 SWAP4 CALLDATASIZE SWAP2 ADD PUSH2 0x8BA JUMP JUMPDEST SWAP1 DUP3 DUP6 MLOAD SWAP5 DUP4 DUP7 DUP1 SWAP6 MLOAD SWAP4 DUP5 SWAP3 ADD PUSH2 0x8D8 JUMP JUMPDEST DUP3 ADD SWAP1 DUP2 MSTORE SUB ADD SWAP1 KECCAK256 SLOAD SWAP1 MLOAD SWAP1 DUP2 MSTORE RETURN JUMPDEST POP CALLVALUE PUSH2 0x135 JUMPI PUSH1 0x60 CALLDATASIZE PUSH1 0x3 NOT ADD SLT PUSH2 0x135 JUMPI PUSH8 0xFFFFFFFFFFFFFFFF DUP2 CALLDATALOAD DUP2 DUP2 GT PUSH2 0x668 JUMPI PUSH2 0x243 SWAP1 CALLDATASIZE SWAP1 DUP5 ADD PUSH2 0x8BA JUMP JUMPDEST SWAP2 PUSH1 0x24 SWAP2 DUP3 CALLDATALOAD DUP2 DUP2 GT PUSH2 0x664 JUMPI PUSH2 0x25D SWAP1 CALLDATASIZE SWAP1 DUP5 ADD PUSH2 0x8BA JUMP JUMPDEST SWAP2 PUSH1 0x44 CALLDATALOAD DUP3 DUP2 GT PUSH2 0x660 JUMPI CALLDATASIZE PUSH1 0x23 DUP3 ADD SLT ISZERO PUSH2 0x660 JUMPI PUSH2 0x285 SWAP1 CALLDATASIZE SWAP1 DUP7 DUP2 DUP6 ADD CALLDATALOAD SWAP2 ADD PUSH2 0x86E JUMP JUMPDEST DUP7 MLOAD SWAP3 DUP7 MLOAD SWAP3 PUSH1 0x20 SWAP7 DUP8 DUP10 ADD SWAP5 PUSH2 0x29D DUP2 DUP9 DUP9 PUSH2 0x8D8 JUMP JUMPDEST DUP7 ADD SWAP6 DUP9 DUP2 PUSH1 0x1 SWAP9 DUP10 DUP2 MSTORE SUB ADD SWAP1 KECCAK256 CALLER DUP13 MSTORE DUP9 MSTORE PUSH1 0xFF DUP11 DUP13 KECCAK256 SLOAD AND PUSH2 0x614 JUMPI DUP9 MLOAD ISZERO PUSH2 0x5DD JUMPI DUP10 MLOAD DUP9 DUP2 DUP14 DUP13 MLOAD PUSH2 0x2D5 DUP2 DUP5 DUP13 PUSH2 0x8D8 JUMP JUMPDEST DUP3 ADD SWAP1 DUP2 MSTORE SUB ADD SWAP1 KECCAK256 DUP11 MLOAD SWAP1 PUSH2 0x2EA DUP3 PUSH2 0x81A JUMP JUMPDEST CALLER DUP3 MSTORE DUP10 DUP3 ADD TIMESTAMP DUP2 MSTORE DUP13 DUP4 ADD SWAP2 DUP11 DUP4 MSTORE PUSH1 0x60 DUP5 ADD SWAP8 DUP9 MSTORE DUP1 SLOAD SWAP1 PUSH9 0x10000000000000000 DUP3 LT ISZERO PUSH2 0x5CA JUMPI SWAP1 PUSH2 0x324 SWAP2 DUP12 DUP3 ADD DUP2 SSTORE PUSH2 0x920 JUMP JUMPDEST SWAP4 SWAP1 SWAP4 PUSH2 0x5B9 JUMPI MLOAD DUP4 SLOAD PUSH1 0x1 PUSH1 0x1 PUSH1 0xA0 SHL SUB NOT AND PUSH1 0x1 PUSH1 0x1 PUSH1 0xA0 SHL SUB SWAP2 SWAP1 SWAP2 AND OR DUP4 SSTORE MLOAD DUP9 DUP4 ADD SSTORE MLOAD DUP1 MLOAD PUSH1 0x2 DUP4 ADD SWAP2 DUP7 DUP3 GT PUSH2 0x5A7 JUMPI DUP15 SWAP1 PUSH2 0x371 DUP4 PUSH2 0x36B DUP7 SLOAD PUSH2 0x952 JUMP JUMPDEST DUP7 PUSH2 0xA22 JUMP JUMPDEST DUP13 SWAP2 PUSH1 0x1F DUP5 GT PUSH1 0x1 EQ PUSH2 0x532 JUMPI PUSH1 0x3 SWAP6 SWAP5 SWAP4 PUSH2 0x3A4 SWAP4 SWAP1 SWAP3 DUP4 PUSH2 0x487 JUMPI JUMPDEST POP POP DUP2 PUSH1 0x1 SHL SWAP2 PUSH1 0x0 NOT SWAP1 PUSH1 0x3 SHL SHR NOT AND OR SWAP1 JUMP JUMPDEST SWAP1 SSTORE JUMPDEST ADD SWAP4 MLOAD SWAP2 DUP3 MLOAD SWAP4 DUP5 GT PUSH2 0x521 JUMPI POP POP PUSH2 0x3CA DUP3 PUSH2 0x3C4 DUP6 SLOAD PUSH2 0x952 JUMP JUMPDEST DUP6 PUSH2 0xA22 JUMP JUMPDEST DUP7 SWAP1 DUP11 PUSH1 0x1F DUP5 GT PUSH1 0x1 EQ PUSH2 0x492 JUMPI SWAP4 PUSH2 0x429 DUP5 PUSH2 0x43C SWAP6 DUP12 SWAP10 SWAP8 SWAP6 PUSH2 0x478 SWAP12 SWAP10 SWAP6 PUSH32 0xD12664356D7F55A0CCE98C3B14A9B04FF21949B9C2CB7DAB401B4A9E3E64F70D SWAP15 SWAP14 SWAP8 SWAP3 PUSH2 0x487 JUMPI POP POP DUP2 PUSH1 0x1 SHL SWAP2 PUSH1 0x0 NOT SWAP1 PUSH1 0x3 SHL SHR NOT AND OR SWAP1 JUMP JUMPDEST SWAP1 SSTORE JUMPDEST DUP10 MLOAD DUP1 SWAP4 DUP2 SWAP3 DUP11 MLOAD SWAP3 DUP4 SWAP2 PUSH2 0x8D8 JUMP JUMPDEST DUP2 ADD DUP5 DUP2 MSTORE SUB ADD SWAP1 KECCAK256 CALLER DUP10 MSTORE DUP4 MSTORE DUP7 DUP9 KECCAK256 SWAP1 PUSH1 0xFF NOT DUP3 SLOAD AND OR SWAP1 SSTORE PUSH2 0x46B DUP7 MLOAD SWAP5 PUSH1 0x60 DUP7 MSTORE PUSH1 0x60 DUP7 ADD SWAP1 PUSH2 0x8FB JUMP JUMPDEST SWAP2 DUP5 DUP4 SUB SWAP1 DUP6 ADD MSTORE PUSH2 0x8FB JUMP JUMPDEST SWAP3 TIMESTAMP SWAP1 DUP3 ADD MSTORE DUP1 CALLER SWAP4 SUB SWAP1 LOG2 DUP1 RETURN JUMPDEST ADD MLOAD SWAP1 POP CODESIZE DUP1 PUSH2 0x38F JUMP JUMPDEST POP DUP4 DUP12 MSTORE DUP8 DUP12 KECCAK256 SWAP2 SWAP1 PUSH1 0x1F NOT DUP5 AND DUP13 JUMPDEST DUP2 DUP2 LT PUSH2 0x50C JUMPI POP SWAP7 DUP5 DUP11 SWAP9 SWAP5 PUSH2 0x478 SWAP11 SWAP9 SWAP5 DUP4 SWAP9 SWAP5 PUSH2 0x43C SWAP9 PUSH32 0xD12664356D7F55A0CCE98C3B14A9B04FF21949B9C2CB7DAB401B4A9E3E64F70D SWAP16 SWAP15 SWAP9 LT PUSH2 0x4F3 JUMPI JUMPDEST POP POP POP DUP2 SHL ADD SWAP1 SSTORE PUSH2 0x42C JUMP JUMPDEST ADD MLOAD PUSH1 0x0 NOT PUSH1 0xF8 DUP5 PUSH1 0x3 SHL AND SHR NOT AND SWAP1 SSTORE CODESIZE DUP1 DUP1 PUSH2 0x4E6 JUMP JUMPDEST DUP3 DUP5 ADD MLOAD DUP6 SSTORE SWAP4 DUP9 ADD SWAP4 SWAP3 DUP11 ADD SWAP3 DUP11 ADD PUSH2 0x4A2 JUMP JUMPDEST PUSH4 0x4E487B71 PUSH1 0xE0 SHL DUP13 MSTORE PUSH1 0x41 SWAP1 MSTORE DUP11 REVERT JUMPDEST DUP12 SWAP3 DUP15 PUSH1 0x1F SWAP8 SWAP7 SWAP6 SWAP4 SWAP8 NOT DUP5 AND SWAP1 DUP7 DUP5 MSTORE DUP1 DUP5 KECCAK256 SWAP4 SWAP1 JUMPDEST DUP3 DUP3 LT PUSH2 0x582 JUMPI POP POP SWAP7 DUP4 PUSH1 0x3 SWAP9 LT PUSH2 0x56A JUMPI JUMPDEST POP POP POP DUP2 SHL ADD SWAP1 SSTORE PUSH2 0x3A7 JUMP JUMPDEST ADD MLOAD PUSH1 0x0 NOT DUP4 DUP9 SHL PUSH1 0xF8 AND SHR NOT AND SWAP1 SSTORE CODESIZE DUP1 DUP1 PUSH2 0x55D JUMP JUMPDEST SWAP2 SWAP3 SWAP6 DUP10 SWAP5 DUP8 DUP5 SWAP4 SWAP8 SWAP10 SWAP11 SWAP12 ADD MLOAD DUP2 SSTORE ADD SWAP6 ADD SWAP4 ADD SWAP1 DUP16 SWAP2 DUP15 SWAP6 SWAP4 SWAP9 SWAP8 SWAP7 SWAP5 SWAP3 PUSH2 0x549 JUMP JUMPDEST PUSH4 0x4E487B71 PUSH1 0xE0 SHL DUP16 MSTORE PUSH1 0x41 DUP7 MSTORE DUP5 DUP16 REVERT JUMPDEST PUSH4 0x4E487B71 PUSH1 0xE0 SHL DUP16 MSTORE DUP15 DUP7 MSTORE DUP5 DUP16 REVERT JUMPDEST POP PUSH4 0x4E487B71 PUSH1 0xE0 SHL DUP16 MSTORE PUSH1 0x41 DUP7 MSTORE DUP5 DUP16 REVERT JUMPDEST DUP10 MLOAD PUSH3 0x461BCD PUSH1 0xE5 SHL DUP2 MSTORE SWAP2 DUP3 ADD DUP9 SWAP1 MSTORE PUSH1 0x12 SWAP1 DUP3 ADD MSTORE PUSH18 0x49502063616E6E6F7420626520656D707479 PUSH1 0x70 SHL PUSH1 0x44 DUP3 ADD MSTORE PUSH1 0x64 SWAP1 REVERT JUMPDEST DUP10 MLOAD PUSH3 0x461BCD PUSH1 0xE5 SHL DUP2 MSTORE SWAP2 DUP3 ADD DUP9 SWAP1 MSTORE PUSH1 0x21 SWAP1 DUP3 ADD MSTORE PUSH32 0x596F75206861766520616C7265616479207265706F7274656420746869732049 PUSH1 0x44 DUP3 ADD MSTORE PUSH1 0x5 PUSH1 0xFC SHL PUSH1 0x64 DUP3 ADD MSTORE PUSH1 0x84 SWAP1 REVERT JUMPDEST DUP8 DUP1 REVERT JUMPDEST DUP7 DUP1 REVERT JUMPDEST DUP5 DUP1 REVERT JUMPDEST POP DUP3 SWAP1 CALLVALUE PUSH2 0x816 JUMPI PUSH1 0x20 SWAP1 DUP2 PUSH1 0x3 NOT CALLDATASIZE ADD SLT PUSH2 0x135 JUMPI PUSH8 0xFFFFFFFFFFFFFFFF SWAP2 DUP2 CALLDATALOAD DUP4 DUP2 GT PUSH2 0x668 JUMPI DUP2 PUSH2 0x6A6 PUSH2 0x6B8 SWAP3 CALLDATASIZE SWAP1 DUP7 ADD PUSH2 0x8BA JUMP JUMPDEST DUP2 DUP9 MLOAD SWAP4 DUP3 DUP6 DUP1 SWAP5 MLOAD SWAP4 DUP5 SWAP3 ADD PUSH2 0x8D8 JUMP JUMPDEST DUP2 ADD DUP8 DUP2 MSTORE SUB ADD SWAP1 KECCAK256 SWAP3 DUP4 SLOAD SWAP1 DUP2 GT PUSH2 0x803 JUMPI DUP6 MLOAD SWAP2 SWAP5 SWAP3 PUSH2 0x6E0 PUSH1 0x5 DUP4 SWAP1 SHL DUP8 ADD DUP5 PUSH2 0x84C JUMP JUMPDEST DUP2 DUP4 MSTORE DUP6 DUP4 ADD DUP1 SWAP6 DUP6 MSTORE DUP7 DUP6 KECCAK256 DUP6 SWAP2 JUMPDEST DUP5 DUP4 LT PUSH2 0x78C JUMPI POP POP POP POP POP DUP5 MLOAD SWAP4 DUP1 DUP6 ADD SWAP2 DUP2 DUP7 MSTORE MLOAD DUP1 SWAP3 MSTORE DUP6 DUP6 ADD DUP7 DUP4 PUSH1 0x5 SHL DUP8 ADD ADD SWAP5 SWAP4 SWAP7 JUMPDEST DUP4 DUP9 LT PUSH2 0x726 JUMPI DUP7 DUP7 SUB DUP8 RETURN JUMPDEST SWAP1 SWAP2 SWAP3 SWAP4 SWAP5 DUP4 DUP1 PUSH2 0x77B PUSH1 0x1 SWAP4 PUSH1 0x3F NOT DUP12 DUP3 SUB ADD DUP8 MSTORE DUP10 MLOAD PUSH2 0x768 PUSH1 0x80 DUP8 DUP1 PUSH1 0xA0 SHL SUB DUP4 MLOAD AND DUP5 MSTORE DUP6 DUP4 ADD MLOAD DUP7 DUP6 ADD MSTORE DUP9 DUP4 ADD MLOAD SWAP1 DUP1 DUP11 DUP7 ADD MSTORE DUP5 ADD SWAP1 PUSH2 0x8FB JUMP JUMPDEST SWAP2 PUSH1 0x60 DUP1 SWAP3 ADD MLOAD SWAP2 DUP2 DUP5 SUB SWAP2 ADD MSTORE PUSH2 0x8FB JUMP JUMPDEST SWAP8 ADD SWAP4 ADD SWAP8 ADD SWAP7 SWAP1 SWAP4 SWAP3 SWAP2 SWAP4 PUSH2 0x719 JUMP JUMPDEST DUP4 DUP10 PUSH1 0x1 SWAP3 DUP13 SWAP12 SWAP9 SWAP10 SWAP12 MLOAD PUSH2 0x7A0 DUP2 PUSH2 0x81A JUMP JUMPDEST DUP5 DUP1 PUSH1 0xA0 SHL SUB DUP7 SLOAD AND DUP2 MSTORE DUP5 DUP7 ADD SLOAD DUP4 DUP3 ADD MSTORE DUP14 DUP1 MLOAD SWAP1 PUSH2 0x7CF DUP3 PUSH2 0x7C8 DUP2 PUSH1 0x2 DUP13 ADD PUSH2 0x98C JUMP JUMPDEST SUB DUP4 PUSH2 0x84C JUMP JUMPDEST DUP3 ADD MSTORE DUP14 MLOAD PUSH2 0x7EC DUP2 PUSH2 0x7E5 DUP2 PUSH1 0x3 DUP12 ADD PUSH2 0x98C JUMP JUMPDEST SUB DUP3 PUSH2 0x84C JUMP JUMPDEST PUSH1 0x60 DUP3 ADD MSTORE DUP2 MSTORE ADD SWAP3 ADD SWAP3 ADD SWAP2 SWAP1 SWAP8 SWAP6 SWAP5 SWAP8 PUSH2 0x6F0 JUMP JUMPDEST PUSH4 0x4E487B71 PUSH1 0xE0 SHL DUP6 MSTORE PUSH1 0x41 DUP4 MSTORE PUSH1 0x24 DUP6 REVERT JUMPDEST POP DUP1 REVERT JUMPDEST PUSH1 0x80 DUP2 ADD SWAP1 DUP2 LT PUSH8 0xFFFFFFFFFFFFFFFF DUP3 GT OR PUSH2 0x836 JUMPI PUSH1 0x40 MSTORE JUMP JUMPDEST PUSH4 0x4E487B71 PUSH1 0xE0 SHL PUSH1 0x0 MSTORE PUSH1 0x41 PUSH1 0x4 MSTORE PUSH1 0x24 PUSH1 0x0 REVERT JUMPDEST SWAP1 PUSH1 0x1F DUP1 NOT SWAP2 ADD AND DUP2 ADD SWAP1 DUP2 LT PUSH8 0xFFFFFFFFFFFFFFFF DUP3 GT OR PUSH2 0x836 JUMPI PUSH1 0x40 MSTORE JUMP JUMPDEST SWAP3 SWAP2 SWAP3 PUSH8 0xFFFFFFFFFFFFFFFF DUP3 GT PUSH2 0x836 JUMPI PUSH1 0x40 MLOAD SWAP2 PUSH2 0x898 PUSH1 0x1F DUP3 ADD PUSH1 0x1F NOT AND PUSH1 0x20 ADD DUP5 PUSH2 0x84C JUMP JUMPDEST DUP3 SWAP5 DUP2 DUP5 MSTORE DUP2 DUP4 ADD GT PUSH2 0x8B5 JUMPI DUP3 DUP2 PUSH1 0x20 SWAP4 DUP5 PUSH1 0x0 SWAP7 ADD CALLDATACOPY ADD ADD MSTORE JUMP JUMPDEST PUSH1 0x0 DUP1 REVERT JUMPDEST SWAP1 DUP1 PUSH1 0x1F DUP4 ADD SLT ISZERO PUSH2 0x8B5 JUMPI DUP2 PUSH1 0x20 PUSH2 0x8D5 SWAP4 CALLDATALOAD SWAP2 ADD PUSH2 0x86E JUMP JUMPDEST SWAP1 JUMP JUMPDEST PUSH1 0x0 JUMPDEST DUP4 DUP2 LT PUSH2 0x8EB JUMPI POP POP PUSH1 0x0 SWAP2 ADD MSTORE JUMP JUMPDEST DUP2 DUP2 ADD MLOAD DUP4 DUP3 ADD MSTORE PUSH1 0x20 ADD PUSH2 0x8DB JUMP JUMPDEST SWAP1 PUSH1 0x20 SWAP2 PUSH2 0x914 DUP2 MLOAD DUP1 SWAP3 DUP2 DUP6 MSTORE DUP6 DUP1 DUP7 ADD SWAP2 ADD PUSH2 0x8D8 JUMP JUMPDEST PUSH1 0x1F ADD PUSH1 0x1F NOT AND ADD ADD SWAP1 JUMP JUMPDEST DUP1 SLOAD DUP3 LT ISZERO PUSH2 0x93C JUMPI PUSH1 0x0 MSTORE PUSH1 0x20 PUSH1 0x0 KECCAK256 SWAP1 PUSH1 0x2 SHL ADD SWAP1 PUSH1 0x0 SWAP1 JUMP JUMPDEST PUSH4 0x4E487B71 PUSH1 0xE0 SHL PUSH1 0x0 MSTORE PUSH1 0x32 PUSH1 0x4 MSTORE PUSH1 0x24 PUSH1 0x0 REVERT JUMPDEST SWAP1 PUSH1 0x1 DUP3 DUP2 SHR SWAP3 AND DUP1 ISZERO PUSH2 0x982 JUMPI JUMPDEST PUSH1 0x20 DUP4 LT EQ PUSH2 0x96C JUMPI JUMP JUMPDEST PUSH4 0x4E487B71 PUSH1 0xE0 SHL PUSH1 0x0 MSTORE PUSH1 0x22 PUSH1 0x4 MSTORE PUSH1 0x24 PUSH1 0x0 REVERT JUMPDEST SWAP2 PUSH1 0x7F AND SWAP2 PUSH2 0x961 JUMP JUMPDEST DUP1 SLOAD PUSH1 0x0 SWAP4 SWAP3 PUSH2 0x99B DUP3 PUSH2 0x952 JUMP JUMPDEST SWAP2 DUP3 DUP3 MSTORE PUSH1 0x20 SWAP4 PUSH1 0x1 SWAP2 PUSH1 0x1 DUP2 AND SWAP1 DUP2 PUSH1 0x0 EQ PUSH2 0xA03 JUMPI POP PUSH1 0x1 EQ PUSH2 0x9C2 JUMPI JUMPDEST POP POP POP POP POP JUMP JUMPDEST SWAP1 SWAP4 SWAP5 SWAP6 POP PUSH1 0x0 SWAP3 SWAP2 SWAP3 MSTORE DUP4 PUSH1 0x0 KECCAK256 SWAP3 DUP5 PUSH1 0x0 SWAP5 JUMPDEST DUP4 DUP7 LT PUSH2 0x9EF JUMPI POP POP POP POP ADD ADD SWAP1 CODESIZE DUP1 DUP1 DUP1 DUP1 PUSH2 0x9BB JUMP JUMPDEST DUP1 SLOAD DUP6 DUP8 ADD DUP4 ADD MSTORE SWAP5 ADD SWAP4 DUP6 SWAP1 DUP3 ADD PUSH2 0x9D7 JUMP JUMPDEST PUSH1 0xFF NOT AND DUP7 DUP6 ADD MSTORE POP POP POP SWAP1 ISZERO ISZERO PUSH1 0x5 SHL ADD ADD SWAP2 POP CODESIZE DUP1 DUP1 DUP1 DUP1 PUSH2 0x9BB JUMP JUMPDEST SWAP1 PUSH1 0x1F DUP2 GT PUSH2 0xA30 JUMPI POP POP POP JUMP JUMPDEST PUSH1 0x0 SWAP2 PUSH1 0x0 MSTORE PUSH1 0x20 PUSH1 0x0 KECCAK256 SWAP1 PUSH1 0x20 PUSH1 0x1F DUP6 ADD PUSH1 0x5 SHR DUP4 ADD SWAP5 LT PUSH2 0xA6E JUMPI JUMPDEST PUSH1 0x1F ADD PUSH1 0x5 SHR ADD SWAP2 JUMPDEST DUP3 DUP2 LT PUSH2 0xA63 JUMPI POP POP POP JUMP JUMPDEST DUP2 DUP2 SSTORE PUSH1 0x1 ADD PUSH2 0xA57 JUMP JUMPDEST SWAP1 SWAP3 POP DUP3 SWAP1 PUSH2 0xA4E JUMP INVALID LOG1 PUSH5 0x736F6C6343 STOP ADDMOD XOR STOP EXP "},"methodIdentifiers":{"getReportCount(string)":"7c96e08e","getReports(string)":"1a68638a","hasReported(string,address)":"db0cc2c0","reportThreat(string,string,bytes)":"27ec324a","reports(string,uint256)":"f9158e99"}}}}}