{"contracts/OraSRSGovernance.sol":{"OraSRSGovernance":{"abi":[{"inputs":[],"stateMutability":"nonpayable","type":"constructor"},{"anonymous":false,"inputs":[{"indexed":true,"internalType":"bytes32","name":"actionHash","type":"bytes32"}],"name":"ActionCancelled","type":"event"},{"anonymous":false,"inputs":[{"indexed":true,"internalType":"bytes32","name":"actionHash","type":"bytes32"}],"name":"ActionExecuted","type":"event"},{"anonymous":false,"inputs":[{"indexed":true,"internalType":"bytes32","name":"actionHash","type":"bytes32"},{"indexed":false,"internalType":"uint256","name":"executeTime","type":"uint256"},{"indexed":false,"internalType":"string","name":"description","type":"string"}],"name":"ActionProposed","type":"event"},{"anonymous":false,"inputs":[{"indexed":true,"internalType":"uint256","name":"appealID","type":"uint256"},{"indexed":false,"internalType":"bool","name":"approved","type":"bool"}],"name":"AppealResolved","type":"event"},{"anonymous":false,"inputs":[{"indexed":true,"internalType":"uint256","name":"appealID","type":"uint256"},{"indexed":true,"internalType":"address","name":"appellant","type":"address"},{"indexed":false,"internalType":"string","name":"targetIP","type":"string"},{"indexed":false,"internalType":"string","name":"evidenceHash","type":"string"}],"name":"AppealSubmitted","type":"event"},{"anonymous":false,"inputs":[{"indexed":true,"internalType":"address","name":"by","type":"address"}],"name":"EmergencyPause","type":"event"},{"anonymous":false,"inputs":[{"indexed":true,"internalType":"address","name":"by","type":"address"}],"name":"EmergencyUnpause","type":"event"},{"anonymous":false,"inputs":[{"indexed":true,"internalType":"address","name":"node","type":"address"}],"name":"NodeDisqualified","type":"event"},{"anonymous":false,"inputs":[{"indexed":true,"internalType":"address","name":"node","type":"address"}],"name":"NodeQualified","type":"event"},{"anonymous":false,"inputs":[{"indexed":true,"internalType":"uint256","name":"appealID","type":"uint256"},{"indexed":true,"internalType":"address","name":"voter","type":"address"},{"indexed":false,"internalType":"bool","name":"support","type":"bool"}],"name":"VoteCast","type":"event"},{"inputs":[],"name":"EMERGENCY_DELAY","outputs":[{"internalType":"uint256","name":"","type":"uint256"}],"stateMutability":"view","type":"function"},{"inputs":[],"name":"TIMELOCK_DELAY","outputs":[{"internalType":"uint256","name":"","type":"uint256"}],"stateMutability":"view","type":"function"},{"inputs":[],"name":"appealCount","outputs":[{"internalType":"uint256","name":"","type":"uint256"}],"stateMutability":"view","type":"function"},{"inputs":[{"internalType":"uint256","name":"","type":"uint256"}],"name":"appeals","outputs":[{"internalType":"address","name":"appellant","type":"address"},{"internalType":"string","name":"targetIP","type":"string"},{"internalType":"string","name":"evidenceHash","type":"string"},{"internalType":"uint256","name":"timestamp","type":"uint256"},{"internalType":"uint256","name":"supportVotes","type":"uint256"},{"internalType":"uint256","name":"rejectVotes","type":"uint256"},{"internalType":"bool","name":"resolved","type":"bool"},{"internalType":"bool","name":"approved","type":"bool"}],"stateMutability":"view","type":"function"},{"inputs":[{"internalType":"bytes32","name":"actionHash","type":"bytes32"}],"name":"cancelAction","outputs":[],"stateMutability":"nonpayable","type":"function"},{"inputs":[{"internalType":"uint256","name":"appealID","type":"uint256"},{"internalType":"bool","name":"support","type":"bool"}],"name":"castVote","outputs":[],"stateMutability":"nonpayable","type":"function"},{"inputs":[],"name":"developer","outputs":[{"internalType":"address","name":"","type":"address"}],"stateMutability":"view","type":"function"},{"inputs":[],"name":"emergencyPause","outputs":[],"stateMutability":"nonpayable","type":"function"},{"inputs":[],"name":"emergencyUnpause","outputs":[],"stateMutability":"nonpayable","type":"function"},{"inputs":[{"internalType":"bytes","name":"action","type":"bytes"}],"name":"executeAction","outputs":[],"stateMutability":"nonpayable","type":"function"},{"inputs":[{"internalType":"uint256","name":"appealID","type":"uint256"}],"name":"getAppeal","outputs":[{"internalType":"address","name":"appellant","type":"address"},{"internalType":"string","name":"targetIP","type":"string"},{"internalType":"string","name":"evidenceHash","type":"string"},{"internalType":"uint256","name":"timestamp","type":"uint256"},{"internalType":"uint256","name":"supportVotes","type":"uint256"},{"internalType":"uint256","name":"rejectVotes","type":"uint256"},{"internalType":"bool","name":"resolved","type":"bool"},{"internalType":"bool","name":"approved","type":"bool"}],"stateMutability":"view","type":"function"},{"inputs":[{"internalType":"uint256","name":"appealID","type":"uint256"},{"internalType":"address","name":"voter","type":"address"}],"name":"hasVoted","outputs":[{"internalType":"bool","name":"","type":"bool"}],"stateMutability":"view","type":"function"},{"inputs":[{"internalType":"address","name":"node","type":"address"}],"name":"isNodeQualified","outputs":[{"internalType":"bool","name":"","type":"bool"}],"stateMutability":"view","type":"function"},{"inputs":[{"internalType":"address","name":"","type":"address"}],"name":"nodes","outputs":[{"internalType":"uint256","name":"riskScore","type":"uint256"},{"internalType":"uint256","name":"uptime","type":"uint256"},{"internalType":"uint256","name":"reputation","type":"uint256"},{"internalType":"bool","name":"qualified","type":"bool"}],"stateMutability":"view","type":"function"},{"inputs":[],"name":"paused","outputs":[{"internalType":"bool","name":"","type":"bool"}],"stateMutability":"view","type":"function"},{"inputs":[{"internalType":"bytes","name":"action","type":"bytes"},{"internalType":"string","name":"description","type":"string"}],"name":"proposeAction","outputs":[{"internalType":"bytes32","name":"","type":"bytes32"}],"stateMutability":"nonpayable","type":"function"},{"inputs":[{"internalType":"bytes32","name":"","type":"bytes32"}],"name":"proposedActions","outputs":[{"internalType":"bytes32","name":"actionHash","type":"bytes32"},{"internalType":"uint256","name":"executeTime","type":"uint256"},{"internalType":"bool","name":"executed","type":"bool"},{"internalType":"bool","name":"cancelled","type":"bool"},{"internalType":"string","name":"description","type":"string"}],"stateMutability":"view","type":"function"},{"inputs":[{"internalType":"uint256","name":"appealID","type":"uint256"}],"name":"resolveAppeal","outputs":[],"stateMutability":"nonpayable","type":"function"},{"inputs":[{"internalType":"string","name":"targetIP","type":"string"},{"internalType":"string","name":"evidenceHash","type":"string"}],"name":"submitAppeal","outputs":[{"internalType":"uint256","name":"","type":"uint256"}],"stateMutability":"nonpayable","type":"function"},{"inputs":[{"internalType":"address","name":"node","type":"address"},{"internalType":"uint256","name":"riskScore","type":"uint256"},{"internalType":"uint256","name":"uptime","type":"uint256"},{"internalType":"uint256","name":"reputation","type":"uint256"}],"name":"updateNodeQualification","outputs":[],"stateMutability":"nonpayable","type":"function"}],"evm":{"bytecode":{"linkReferences":{},"object":"6080806040523461002f57600080546001600160a81b0319163360ff60a01b191617905561131e90816100358239f35b600080fdfe60406080815260048036101561001457600080fd5b600091823560e01c90816315373e3d14610d6a578163189a5a1714610d0b5781634385963214610cbc5781634a4e3bd514610c6457816351858e2714610c065781635ba1c1a914610be85781635c975abb14610bc35781635fb032471461089657816364dbadca1461085557816369d2529d146107e3578163781cc3d31461075c5781637f52479a1461073d57816382944e2d146107225781638550ea2a146106b2578163a129568d1461057e578163acff868714610505578163ad2f85dc146103ed578163ca4b208b146103c5578163e38b0e5414610134575063fb237d41146100fe57600080fd5b346101305760203660031901126101305761012d9061012760018060a01b0384541633146111d0565b3561129b565b80f35b5080fd5b8391503461013057806003193601126101305767ffffffffffffffff9083358281116103c1576101679036908601610f4e565b926024358381116101305761017f9036908701610f4e565b61019360018060a01b0383541633146111d0565b8451602080960120938483526002865260019283858220015461037e5785815260028752848120918683556201518042019283421161036b578086600392019485556002810161ffff19815416905501918451918211610358579082916101fd8996959454610fa5565b601f8111610300575b508990601f831160011461027f577f1107c3351390e351f7859a17b5fff4b12bbb9353072b11ad8a593938fffff93e96978392839293610274575b501b916000199060031b1c19161790555b5461026b85519283928352868984015286830190611084565b0390a251908152f35b87015192508c610241565b8381528a8120601f19841698939290915b8c8a82106102e9575050827f1107c3351390e351f7859a17b5fff4b12bbb9353072b11ad8a593938fffff93e9899106102d0575b5050811b019055610252565b86015160001960f88460031b161c191690558a806102c4565b8883015184558c9950928501929182019101610290565b90919280949596508252898220601f840160051c8101918b851061034e575b8a97969594939291601f8a920160051c01915b828110610340575050610206565b8381558b9850899101610332565b909150819061031f565b634e487b7160e01b815260418a52602490fd5b634e487b7160e01b835260118a52602483fd5b845162461bcd60e51b8152808901889052601760248201527f416374696f6e20616c72656164792070726f706f7365640000000000000000006044820152606490fd5b8380fd5b839034610130578160031936011261013057905490516001600160a01b039091168152602090f35b83903461013057608036600319011261013057610408610efb565b6024359060443560ff60036064359360018060a01b039061042d828a541633146111d0565b16958688528160205287208581558360018201558460028201550191825493600a838616961091826104f7575b50816104eb575b50151516809260ff191617905580806104e3575b156104a35750507f81f70183487e5a85bd6ea3ee31da9af34b63353244747835db4d8c36f8f4be978280a280f35b1590816104db575b506104b4575080f35b7f798e868a5d43e04e0a418a82c13c9548b65db330493241e3303b2d9e9140aaff8280a280f35b9050836104ab565b508115610475565b603c9150101587610461565b6203f480111591508861045a565b9050823461057b57602036600319011261057b578161057791843581526001602052209160018060a01b0383541661053f60018501610fdf565b9361054c60028201610fdf565b956003820154908201549060066005840154930154945197889760ff808860081c16971695896110c4565b0390f35b80fd5b919050346106ae5760203660031901126106ae57803567ffffffffffffffff81116103c1576105b09036908301610f4e565b6105c460018060a01b0385541633146111d0565b6020815191012091828452600260205280842060018101546105e781151561120d565b4210610674576002019182549161060160ff84161561124f565b60ff8360081c1661063e57505060ff191660011790557f9b5a634ce9dbcc1cc28dbce24cd5b30136689ff28f9ae433837bd68895d7d5e08280a280f35b906020606492519162461bcd60e51b8352820152601060248201526f1058dd1a5bdb8818d85b98d95b1b195960821b6044820152fd5b815162461bcd60e51b81526020818501526014602482015273151a5b595b1bd8dac81b9bdd08195e1c1a5c995960621b6044820152606490fd5b8280fd5b82843461057b57602036600319011261057b578261057791833581526001602052209160018060a01b0383541660038401549184015460058501549060068601549361070c600261070560018a01610fdf565b9801610fdf565b975197889760ff808860081c16971695896110c4565b83903461013057816003193601126101305751908152602090f35b919050346106ae57826003193601126106ae5760209250549051908152f35b919050346106ae5760203660031901126106ae57600290359161078960018060a01b0385541633146111d0565b8284528160205283206107a16001820154151561120d565b0161010081546107b460ff82161561124f565b61ff0019161790557f123ababb6f85aa48b13de8f5bd2acb5393e4980d969791661dc98733100703958280a280f35b919050346106ae5760203660031901126106ae579181923581526002602052209061057782549160ff600185015494610823600360028301549201610fdf565b9280519687968752602087015282821615159086015260081c161515606084015260a0608084015260a0830190611084565b8390346101305760203660031901126101305760209160ff9060039083906001600160a01b03610883610efb565b1681528286522001541690519015158152f35b9050346106ae57806003193601126106ae5767ffffffffffffffff928235848111610130576108c89036908501610f4e565b6024358581116106ae576108df9036908601610f4e565b916108f160ff825460a01c161561111e565b6108fb85546111ab565b808655815260019060209682885285822092336bffffffffffffffffffffffff60a01b855416178455808401855190838211610bb05761093b8154610fa5565b918b601f93848111610b6b575b5050808c8d858311600114610b0957508791610afe575b50600019600383901b1c191690841b1790555b60028501938751938411610358578a61098b8654610fa5565b838111610ab9575b50508a918411600114610a30579280807f7b8dec03dc1ab3e7e93135384d6adbb54ffc289b79839fc05f10fa31cfbddeaf9794610a0e9c979460069793610a25575b501b916000199060031b1c19161790555b4260038201550161ffff19815416905554948592610a1c865192839288845288840190611084565b8281038a8401523396611084565b0390a351908152f35b8b01519250386109d5565b90601f9392931983168583528b8320925b8c828210610aa557505092610a0e9a959260069592827f7b8dec03dc1ab3e7e93135384d6adbb54ffc289b79839fc05f10fa31cfbddeaf999610610a8c575b5050811b0190556109e6565b8a015160001960f88460031b161c191690553880610a80565b8a8401518555938601939283019201610a41565b868352838284209181880160051c8301938810610af5575b0160051c019084905b828110610aea57508c9150610993565b838155018490610ada565b92508192610ad1565b90508801513861095f565b90869350601f198316858a52828a20928a905b8d838310610b53575050508311610b3a575b5050811b019055610972565b8a015160001960f88460031b161c191690553880610b2e565b84015185558996909401939283019290810190610b1c565b838852848289209181850160051c8301938510610ba7575b0160051c019085905b828110610b9c57508d9150610948565b888155018590610b8c565b92508192610b83565b634e487b7160e01b855260418a52602485fd5b83903461013057816003193601126101305760ff6020925460a01c1690519015158152f35b83903461013057816003193601126101305760209051620151808152f35b833461057b578060031936011261057b578054610c2d336001600160a01b038316146111d0565b60ff60a01b1916600160a01b178155337f7c83004a7e59a8ea03b200186c4dda29a4e144d9844d63dbc1a09acf7dfcd4858280a280f35b833461057b578060031936011261057b578054610c8b336001600160a01b038316146111d0565b60ff60a01b19168155337f306ca22c455fe433ebbf0542bbf947ea6a725495f9e1043db2a47e3c579403858280a280f35b919050346106ae57816003193601126106ae576024356001600160a01b03811691908290036103c15760209360ff92849235825260018652600783832001908252855220541690519015158152f35b8390346101305760203660031901126101305760809181906001600160a01b03610d33610efb565b1681526003602052209081549160018101549160ff6003600284015493015416928151948552602085015283015215156060820152f35b9050346106ae57806003193601126106ae578135916024359182151590818403610ef757610d9f60ff875460a01c161561111e565b3386526020906003825260ff600382892001541615610ec1578587526001825280872094610dd460ff6006880154161561115f565b6007860133895280845260ff838a205416610e8e573389528352818820805460ff1916600117905586927fe71fcdac32df1877c1700e7bda2a03157e20993363a28fc35ac495cefc76e4d492909115610e7957858701610e3481546111ab565b90555b519384523393a36005818301549201548201809211610e66575060031115610e5d575080f35b61012d9061129b565b634e487b7160e01b845260119052602483fd5b60058701610e8781546111ab565b9055610e37565b825162461bcd60e51b8152808701859052600d60248201526c105b1c9958591e481d9bdd1959609a1b6044820152606490fd5b5162461bcd60e51b815292830152506012602482015271139bd919481b9bdd081c5d585b1a599a595960721b6044820152606490fd5b8580fd5b600435906001600160a01b0382168203610f1157565b600080fd5b90601f8019910116810190811067ffffffffffffffff821117610f3857604052565b634e487b7160e01b600052604160045260246000fd5b81601f82011215610f115780359067ffffffffffffffff8211610f385760405192610f83601f8401601f191660200185610f16565b82845260208383010111610f1157816000926020809301838601378301015290565b90600182811c92168015610fd5575b6020831014610fbf57565b634e487b7160e01b600052602260045260246000fd5b91607f1691610fb4565b90604051918260008254610ff281610fa5565b908184526020946001916001811690816000146110625750600114611023575b50505061102192500383610f16565b565b600090815285812095935091905b81831061104a5750506110219350820101388080611012565b85548884018501529485019487945091830191611031565b9250505061102194925060ff191682840152151560051b820101388080611012565b919082519283825260005b8481106110b0575050826000602080949584010152601f8019910116010190565b60208183018101518483018201520161108f565b969398979491926110f260e09794611100936101009060018060a01b03168b528060208c01528a0190611084565b9088820360408a0152611084565b976060870152608086015260a0850152151560c08401521515910152565b1561112557565b60405162461bcd60e51b815260206004820152601260248201527110dbdb9d1c9858dd081a5cc81c185d5cd95960721b6044820152606490fd5b1561116657565b60405162461bcd60e51b815260206004820152601760248201527f41707065616c20616c7265616479207265736f6c7665640000000000000000006044820152606490fd5b60001981146111ba5760010190565b634e487b7160e01b600052601160045260246000fd5b156111d757565b60405162461bcd60e51b815260206004820152600e60248201526d27b7363c903232bb32b637b832b960911b6044820152606490fd5b1561121457565b60405162461bcd60e51b81526020600482015260136024820152721058dd1a5bdb881b9bdd081c1c9bdc1bdcd959606a1b6044820152606490fd5b1561125657565b60405162461bcd60e51b815260206004820152601760248201527f416374696f6e20616c72656164792065786563757465640000000000000000006044820152606490fd5b8060005260016020527f89cd618842088e9ada48e481bba3a9320eba61a9329ef23ede5abd02837084a5602060406000206001600682019161ff008354916112e660ff84161561115f565b600560048201549101541060081b169061ffff1916171780915560ff6040519160081c1615158152a256fea164736f6c6343000818000a","opcodes":"PUSH1 0x80 DUP1 PUSH1 0x40 MSTORE CALLVALUE PUSH2 0x2F JUMPI PUSH1 0x0 DUP1 SLOAD PUSH1 0x1 PUSH1 0x1 PUSH1 0xA8 SHL SUB NOT AND CALLER PUSH1 0xFF PUSH1 0xA0 SHL NOT AND OR SWAP1 SSTORE PUSH2 0x131E SWAP1 DUP2 PUSH2 0x35 DUP3 CODECOPY RETURN JUMPDEST PUSH1 0x0 DUP1 REVERT INVALID PUSH1 0x40 PUSH1 0x80 DUP2 MSTORE PUSH1 0x4 DUP1 CALLDATASIZE LT ISZERO PUSH2 0x14 JUMPI PUSH1 0x0 DUP1 REVERT JUMPDEST PUSH1 0x0 SWAP2 DUP3 CALLDATALOAD PUSH1 0xE0 SHR SWAP1 DUP2 PUSH4 0x15373E3D EQ PUSH2 0xD6A JUMPI DUP2 PUSH4 0x189A5A17 EQ PUSH2 0xD0B JUMPI DUP2 PUSH4 0x43859632 EQ PUSH2 0xCBC JUMPI DUP2 PUSH4 0x4A4E3BD5 EQ PUSH2 0xC64 JUMPI DUP2 PUSH4 0x51858E27 EQ PUSH2 0xC06 JUMPI DUP2 PUSH4 0x5BA1C1A9 EQ PUSH2 0xBE8 JUMPI DUP2 PUSH4 0x5C975ABB EQ PUSH2 0xBC3 JUMPI DUP2 PUSH4 0x5FB03247 EQ PUSH2 0x896 JUMPI DUP2 PUSH4 0x64DBADCA EQ PUSH2 0x855 JUMPI DUP2 PUSH4 0x69D2529D EQ PUSH2 0x7E3 JUMPI DUP2 PUSH4 0x781CC3D3 EQ PUSH2 0x75C JUMPI DUP2 PUSH4 0x7F52479A EQ PUSH2 0x73D JUMPI DUP2 PUSH4 0x82944E2D EQ PUSH2 0x722 JUMPI DUP2 PUSH4 0x8550EA2A EQ PUSH2 0x6B2 JUMPI DUP2 PUSH4 0xA129568D EQ PUSH2 0x57E JUMPI DUP2 PUSH4 0xACFF8687 EQ PUSH2 0x505 JUMPI DUP2 PUSH4 0xAD2F85DC EQ PUSH2 0x3ED JUMPI DUP2 PUSH4 0xCA4B208B EQ PUSH2 0x3C5 JUMPI DUP2 PUSH4 0xE38B0E54 EQ PUSH2 0x134 JUMPI POP PUSH4 0xFB237D41 EQ PUSH2 0xFE JUMPI PUSH1 0x0 DUP1 REVERT JUMPDEST CALLVALUE PUSH2 0x130 JUMPI PUSH1 0x20 CALLDATASIZE PUSH1 0x3 NOT ADD SLT PUSH2 0x130 JUMPI PUSH2 0x12D SWAP1 PUSH2 0x127 PUSH1 0x1 DUP1 PUSH1 0xA0 SHL SUB DUP5 SLOAD AND CALLER EQ PUSH2 0x11D0 JUMP JUMPDEST CALLDATALOAD PUSH2 0x129B JUMP JUMPDEST DUP1 RETURN JUMPDEST POP DUP1 REVERT JUMPDEST DUP4 SWAP2 POP CALLVALUE PUSH2 0x130 JUMPI DUP1 PUSH1 0x3 NOT CALLDATASIZE ADD SLT PUSH2 0x130 JUMPI PUSH8 0xFFFFFFFFFFFFFFFF SWAP1 DUP4 CALLDATALOAD DUP3 DUP2 GT PUSH2 0x3C1 JUMPI PUSH2 0x167 SWAP1 CALLDATASIZE SWAP1 DUP7 ADD PUSH2 0xF4E JUMP JUMPDEST SWAP3 PUSH1 0x24 CALLDATALOAD DUP4 DUP2 GT PUSH2 0x130 JUMPI PUSH2 0x17F SWAP1 CALLDATASIZE SWAP1 DUP8 ADD PUSH2 0xF4E JUMP JUMPDEST PUSH2 0x193 PUSH1 0x1 DUP1 PUSH1 0xA0 SHL SUB DUP4 SLOAD AND CALLER EQ PUSH2 0x11D0 JUMP JUMPDEST DUP5 MLOAD PUSH1 0x20 DUP1 SWAP7 ADD KECCAK256 SWAP4 DUP5 DUP4 MSTORE PUSH1 0x2 DUP7 MSTORE PUSH1 0x1 SWAP3 DUP4 DUP6 DUP3 KECCAK256 ADD SLOAD PUSH2 0x37E JUMPI DUP6 DUP2 MSTORE PUSH1 0x2 DUP8 MSTORE DUP5 DUP2 KECCAK256 SWAP2 DUP7 DUP4 SSTORE PUSH3 0x15180 TIMESTAMP ADD SWAP3 DUP4 TIMESTAMP GT PUSH2 0x36B JUMPI DUP1 DUP7 PUSH1 0x3 SWAP3 ADD SWAP5 DUP6 SSTORE PUSH1 0x2 DUP2 ADD PUSH2 0xFFFF NOT DUP2 SLOAD AND SWAP1 SSTORE ADD SWAP2 DUP5 MLOAD SWAP2 DUP3 GT PUSH2 0x358 JUMPI SWAP1 DUP3 SWAP2 PUSH2 0x1FD DUP10 SWAP7 SWAP6 SWAP5 SLOAD PUSH2 0xFA5 JUMP JUMPDEST PUSH1 0x1F DUP2 GT PUSH2 0x300 JUMPI JUMPDEST POP DUP10 SWAP1 PUSH1 0x1F DUP4 GT PUSH1 0x1 EQ PUSH2 0x27F JUMPI PUSH32 0x1107C3351390E351F7859A17B5FFF4B12BBB9353072B11AD8A593938FFFFF93E SWAP7 SWAP8 DUP4 SWAP3 DUP4 SWAP3 SWAP4 PUSH2 0x274 JUMPI JUMPDEST POP SHL SWAP2 PUSH1 0x0 NOT SWAP1 PUSH1 0x3 SHL SHR NOT AND OR SWAP1 SSTORE JUMPDEST SLOAD PUSH2 0x26B DUP6 MLOAD SWAP3 DUP4 SWAP3 DUP4 MSTORE DUP7 DUP10 DUP5 ADD MSTORE DUP7 DUP4 ADD SWAP1 PUSH2 0x1084 JUMP JUMPDEST SUB SWAP1 LOG2 MLOAD SWAP1 DUP2 MSTORE RETURN JUMPDEST DUP8 ADD MLOAD SWAP3 POP DUP13 PUSH2 0x241 JUMP JUMPDEST DUP4 DUP2 MSTORE DUP11 DUP2 KECCAK256 PUSH1 0x1F NOT DUP5 AND SWAP9 SWAP4 SWAP3 SWAP1 SWAP2 JUMPDEST DUP13 DUP11 DUP3 LT PUSH2 0x2E9 JUMPI POP POP DUP3 PUSH32 0x1107C3351390E351F7859A17B5FFF4B12BBB9353072B11AD8A593938FFFFF93E SWAP9 SWAP10 LT PUSH2 0x2D0 JUMPI JUMPDEST POP POP DUP2 SHL ADD SWAP1 SSTORE PUSH2 0x252 JUMP JUMPDEST DUP7 ADD MLOAD PUSH1 0x0 NOT PUSH1 0xF8 DUP5 PUSH1 0x3 SHL AND SHR NOT AND SWAP1 SSTORE DUP11 DUP1 PUSH2 0x2C4 JUMP JUMPDEST DUP9 DUP4 ADD MLOAD DUP5 SSTORE DUP13 SWAP10 POP SWAP3 DUP6 ADD SWAP3 SWAP2 DUP3 ADD SWAP2 ADD PUSH2 0x290 JUMP JUMPDEST SWAP1 SWAP2 SWAP3 DUP1 SWAP5 SWAP6 SWAP7 POP DUP3 MSTORE DUP10 DUP3 KECCAK256 PUSH1 0x1F DUP5 ADD PUSH1 0x5 SHR DUP2 ADD SWAP2 DUP12 DUP6 LT PUSH2 0x34E JUMPI JUMPDEST DUP11 SWAP8 SWAP7 SWAP6 SWAP5 SWAP4 SWAP3 SWAP2 PUSH1 0x1F DUP11 SWAP3 ADD PUSH1 0x5 SHR ADD SWAP2 JUMPDEST DUP3 DUP2 LT PUSH2 0x340 JUMPI POP POP PUSH2 0x206 JUMP JUMPDEST DUP4 DUP2 SSTORE DUP12 SWAP9 POP DUP10 SWAP2 ADD PUSH2 0x332 JUMP JUMPDEST SWAP1 SWAP2 POP DUP2 SWAP1 PUSH2 0x31F JUMP JUMPDEST PUSH4 0x4E487B71 PUSH1 0xE0 SHL DUP2 MSTORE PUSH1 0x41 DUP11 MSTORE PUSH1 0x24 SWAP1 REVERT JUMPDEST PUSH4 0x4E487B71 PUSH1 0xE0 SHL DUP4 MSTORE PUSH1 0x11 DUP11 MSTORE PUSH1 0x24 DUP4 REVERT JUMPDEST DUP5 MLOAD PUSH3 0x461BCD PUSH1 0xE5 SHL DUP2 MSTORE DUP1 DUP10 ADD DUP9 SWAP1 MSTORE PUSH1 0x17 PUSH1 0x24 DUP3 ADD MSTORE PUSH32 0x416374696F6E20616C72656164792070726F706F736564000000000000000000 PUSH1 0x44 DUP3 ADD MSTORE PUSH1 0x64 SWAP1 REVERT JUMPDEST DUP4 DUP1 REVERT JUMPDEST DUP4 SWAP1 CALLVALUE PUSH2 0x130 JUMPI DUP2 PUSH1 0x3 NOT CALLDATASIZE ADD SLT PUSH2 0x130 JUMPI SWAP1 SLOAD SWAP1 MLOAD PUSH1 0x1 PUSH1 0x1 PUSH1 0xA0 SHL SUB SWAP1 SWAP2 AND DUP2 MSTORE PUSH1 0x20 SWAP1 RETURN JUMPDEST DUP4 SWAP1 CALLVALUE PUSH2 0x130 JUMPI PUSH1 0x80 CALLDATASIZE PUSH1 0x3 NOT ADD SLT PUSH2 0x130 JUMPI PUSH2 0x408 PUSH2 0xEFB JUMP JUMPDEST PUSH1 0x24 CALLDATALOAD SWAP1 PUSH1 0x44 CALLDATALOAD PUSH1 0xFF PUSH1 0x3 PUSH1 0x64 CALLDATALOAD SWAP4 PUSH1 0x1 DUP1 PUSH1 0xA0 SHL SUB SWAP1 PUSH2 0x42D DUP3 DUP11 SLOAD AND CALLER EQ PUSH2 0x11D0 JUMP JUMPDEST AND SWAP6 DUP7 DUP9 MSTORE DUP2 PUSH1 0x20 MSTORE DUP8 KECCAK256 DUP6 DUP2 SSTORE DUP4 PUSH1 0x1 DUP3 ADD SSTORE DUP5 PUSH1 0x2 DUP3 ADD SSTORE ADD SWAP2 DUP3 SLOAD SWAP4 PUSH1 0xA DUP4 DUP7 AND SWAP7 LT SWAP2 DUP3 PUSH2 0x4F7 JUMPI JUMPDEST POP DUP2 PUSH2 0x4EB JUMPI JUMPDEST POP ISZERO ISZERO AND DUP1 SWAP3 PUSH1 0xFF NOT AND OR SWAP1 SSTORE DUP1 DUP1 PUSH2 0x4E3 JUMPI JUMPDEST ISZERO PUSH2 0x4A3 JUMPI POP POP PUSH32 0x81F70183487E5A85BD6EA3EE31DA9AF34B63353244747835DB4D8C36F8F4BE97 DUP3 DUP1 LOG2 DUP1 RETURN JUMPDEST ISZERO SWAP1 DUP2 PUSH2 0x4DB JUMPI JUMPDEST POP PUSH2 0x4B4 JUMPI POP DUP1 RETURN JUMPDEST PUSH32 0x798E868A5D43E04E0A418A82C13C9548B65DB330493241E3303B2D9E9140AAFF DUP3 DUP1 LOG2 DUP1 RETURN JUMPDEST SWAP1 POP DUP4 PUSH2 0x4AB JUMP JUMPDEST POP DUP2 ISZERO PUSH2 0x475 JUMP JUMPDEST PUSH1 0x3C SWAP2 POP LT ISZERO DUP8 PUSH2 0x461 JUMP JUMPDEST PUSH3 0x3F480 GT ISZERO SWAP2 POP DUP9 PUSH2 0x45A JUMP JUMPDEST SWAP1 POP DUP3 CALLVALUE PUSH2 0x57B JUMPI PUSH1 0x20 CALLDATASIZE PUSH1 0x3 NOT ADD SLT PUSH2 0x57B JUMPI DUP2 PUSH2 0x577 SWAP2 DUP5 CALLDATALOAD DUP2 MSTORE PUSH1 0x1 PUSH1 0x20 MSTORE KECCAK256 SWAP2 PUSH1 0x1 DUP1 PUSH1 0xA0 SHL SUB DUP4 SLOAD AND PUSH2 0x53F PUSH1 0x1 DUP6 ADD PUSH2 0xFDF JUMP JUMPDEST SWAP4 PUSH2 0x54C PUSH1 0x2 DUP3 ADD PUSH2 0xFDF JUMP JUMPDEST SWAP6 PUSH1 0x3 DUP3 ADD SLOAD SWAP1 DUP3 ADD SLOAD SWAP1 PUSH1 0x6 PUSH1 0x5 DUP5 ADD SLOAD SWAP4 ADD SLOAD SWAP5 MLOAD SWAP8 DUP9 SWAP8 PUSH1 0xFF DUP1 DUP9 PUSH1 0x8 SHR AND SWAP8 AND SWAP6 DUP10 PUSH2 0x10C4 JUMP JUMPDEST SUB SWAP1 RETURN JUMPDEST DUP1 REVERT JUMPDEST SWAP2 SWAP1 POP CALLVALUE PUSH2 0x6AE JUMPI PUSH1 0x20 CALLDATASIZE PUSH1 0x3 NOT ADD SLT PUSH2 0x6AE JUMPI DUP1 CALLDATALOAD PUSH8 0xFFFFFFFFFFFFFFFF DUP2 GT PUSH2 0x3C1 JUMPI PUSH2 0x5B0 SWAP1 CALLDATASIZE SWAP1 DUP4 ADD PUSH2 0xF4E JUMP JUMPDEST PUSH2 0x5C4 PUSH1 0x1 DUP1 PUSH1 0xA0 SHL SUB DUP6 SLOAD AND CALLER EQ PUSH2 0x11D0 JUMP JUMPDEST PUSH1 0x20 DUP2 MLOAD SWAP2 ADD KECCAK256 SWAP2 DUP3 DUP5 MSTORE PUSH1 0x2 PUSH1 0x20 MSTORE DUP1 DUP5 KECCAK256 PUSH1 0x1 DUP2 ADD SLOAD PUSH2 0x5E7 DUP2 ISZERO ISZERO PUSH2 0x120D JUMP JUMPDEST TIMESTAMP LT PUSH2 0x674 JUMPI PUSH1 0x2 ADD SWAP2 DUP3 SLOAD SWAP2 PUSH2 0x601 PUSH1 0xFF DUP5 AND ISZERO PUSH2 0x124F JUMP JUMPDEST PUSH1 0xFF DUP4 PUSH1 0x8 SHR AND PUSH2 0x63E JUMPI POP POP PUSH1 0xFF NOT AND PUSH1 0x1 OR SWAP1 SSTORE PUSH32 0x9B5A634CE9DBCC1CC28DBCE24CD5B30136689FF28F9AE433837BD68895D7D5E0 DUP3 DUP1 LOG2 DUP1 RETURN JUMPDEST SWAP1 PUSH1 0x20 PUSH1 0x64 SWAP3 MLOAD SWAP2 PUSH3 0x461BCD PUSH1 0xE5 SHL DUP4 MSTORE DUP3 ADD MSTORE PUSH1 0x10 PUSH1 0x24 DUP3 ADD MSTORE PUSH16 0x1058DD1A5BDB8818D85B98D95B1B1959 PUSH1 0x82 SHL PUSH1 0x44 DUP3 ADD MSTORE REVERT JUMPDEST DUP2 MLOAD PUSH3 0x461BCD PUSH1 0xE5 SHL DUP2 MSTORE PUSH1 0x20 DUP2 DUP6 ADD MSTORE PUSH1 0x14 PUSH1 0x24 DUP3 ADD MSTORE PUSH20 0x151A5B595B1BD8DAC81B9BDD08195E1C1A5C9959 PUSH1 0x62 SHL PUSH1 0x44 DUP3 ADD MSTORE PUSH1 0x64 SWAP1 REVERT JUMPDEST DUP3 DUP1 REVERT JUMPDEST DUP3 DUP5 CALLVALUE PUSH2 0x57B JUMPI PUSH1 0x20 CALLDATASIZE PUSH1 0x3 NOT ADD SLT PUSH2 0x57B JUMPI DUP3 PUSH2 0x577 SWAP2 DUP4 CALLDATALOAD DUP2 MSTORE PUSH1 0x1 PUSH1 0x20 MSTORE KECCAK256 SWAP2 PUSH1 0x1 DUP1 PUSH1 0xA0 SHL SUB DUP4 SLOAD AND PUSH1 0x3 DUP5 ADD SLOAD SWAP2 DUP5 ADD SLOAD PUSH1 0x5 DUP6 ADD SLOAD SWAP1 PUSH1 0x6 DUP7 ADD SLOAD SWAP4 PUSH2 0x70C PUSH1 0x2 PUSH2 0x705 PUSH1 0x1 DUP11 ADD PUSH2 0xFDF JUMP JUMPDEST SWAP9 ADD PUSH2 0xFDF JUMP JUMPDEST SWAP8 MLOAD SWAP8 DUP9 SWAP8 PUSH1 0xFF DUP1 DUP9 PUSH1 0x8 SHR AND SWAP8 AND SWAP6 DUP10 PUSH2 0x10C4 JUMP JUMPDEST DUP4 SWAP1 CALLVALUE PUSH2 0x130 JUMPI DUP2 PUSH1 0x3 NOT CALLDATASIZE ADD SLT PUSH2 0x130 JUMPI MLOAD SWAP1 DUP2 MSTORE PUSH1 0x20 SWAP1 RETURN JUMPDEST SWAP2 SWAP1 POP CALLVALUE PUSH2 0x6AE JUMPI DUP3 PUSH1 0x3 NOT CALLDATASIZE ADD SLT PUSH2 0x6AE JUMPI PUSH1 0x20 SWAP3 POP SLOAD SWAP1 MLOAD SWAP1 DUP2 MSTORE RETURN JUMPDEST SWAP2 SWAP1 POP CALLVALUE PUSH2 0x6AE JUMPI PUSH1 0x20 CALLDATASIZE PUSH1 0x3 NOT ADD SLT PUSH2 0x6AE JUMPI PUSH1 0x2 SWAP1 CALLDATALOAD SWAP2 PUSH2 0x789 PUSH1 0x1 DUP1 PUSH1 0xA0 SHL SUB DUP6 SLOAD AND CALLER EQ PUSH2 0x11D0 JUMP JUMPDEST DUP3 DUP5 MSTORE DUP2 PUSH1 0x20 MSTORE DUP4 KECCAK256 PUSH2 0x7A1 PUSH1 0x1 DUP3 ADD SLOAD ISZERO ISZERO PUSH2 0x120D JUMP JUMPDEST ADD PUSH2 0x100 DUP2 SLOAD PUSH2 0x7B4 PUSH1 0xFF DUP3 AND ISZERO PUSH2 0x124F JUMP JUMPDEST PUSH2 0xFF00 NOT AND OR SWAP1 SSTORE PUSH32 0x123ABABB6F85AA48B13DE8F5BD2ACB5393E4980D969791661DC9873310070395 DUP3 DUP1 LOG2 DUP1 RETURN JUMPDEST SWAP2 SWAP1 POP CALLVALUE PUSH2 0x6AE JUMPI PUSH1 0x20 CALLDATASIZE PUSH1 0x3 NOT ADD SLT PUSH2 0x6AE JUMPI SWAP2 DUP2 SWAP3 CALLDATALOAD DUP2 MSTORE PUSH1 0x2 PUSH1 0x20 MSTORE KECCAK256 SWAP1 PUSH2 0x577 DUP3 SLOAD SWAP2 PUSH1 0xFF PUSH1 0x1 DUP6 ADD SLOAD SWAP5 PUSH2 0x823 PUSH1 0x3 PUSH1 0x2 DUP4 ADD SLOAD SWAP3 ADD PUSH2 0xFDF JUMP JUMPDEST SWAP3 DUP1 MLOAD SWAP7 DUP8 SWAP7 DUP8 MSTORE PUSH1 0x20 DUP8 ADD MSTORE DUP3 DUP3 AND ISZERO ISZERO SWAP1 DUP7 ADD MSTORE PUSH1 0x8 SHR AND ISZERO ISZERO PUSH1 0x60 DUP5 ADD MSTORE PUSH1 0xA0 PUSH1 0x80 DUP5 ADD MSTORE PUSH1 0xA0 DUP4 ADD SWAP1 PUSH2 0x1084 JUMP JUMPDEST DUP4 SWAP1 CALLVALUE PUSH2 0x130 JUMPI PUSH1 0x20 CALLDATASIZE PUSH1 0x3 NOT ADD SLT PUSH2 0x130 JUMPI PUSH1 0x20 SWAP2 PUSH1 0xFF SWAP1 PUSH1 0x3 SWAP1 DUP4 SWAP1 PUSH1 0x1 PUSH1 0x1 PUSH1 0xA0 SHL SUB PUSH2 0x883 PUSH2 0xEFB JUMP JUMPDEST AND DUP2 MSTORE DUP3 DUP7 MSTORE KECCAK256 ADD SLOAD AND SWAP1 MLOAD SWAP1 ISZERO ISZERO DUP2 MSTORE RETURN JUMPDEST SWAP1 POP CALLVALUE PUSH2 0x6AE JUMPI DUP1 PUSH1 0x3 NOT CALLDATASIZE ADD SLT PUSH2 0x6AE JUMPI PUSH8 0xFFFFFFFFFFFFFFFF SWAP3 DUP3 CALLDATALOAD DUP5 DUP2 GT PUSH2 0x130 JUMPI PUSH2 0x8C8 SWAP1 CALLDATASIZE SWAP1 DUP6 ADD PUSH2 0xF4E JUMP JUMPDEST PUSH1 0x24 CALLDATALOAD DUP6 DUP2 GT PUSH2 0x6AE JUMPI PUSH2 0x8DF SWAP1 CALLDATASIZE SWAP1 DUP7 ADD PUSH2 0xF4E JUMP JUMPDEST SWAP2 PUSH2 0x8F1 PUSH1 0xFF DUP3 SLOAD PUSH1 0xA0 SHR AND ISZERO PUSH2 0x111E JUMP JUMPDEST PUSH2 0x8FB DUP6 SLOAD PUSH2 0x11AB JUMP JUMPDEST DUP1 DUP7 SSTORE DUP2 MSTORE PUSH1 0x1 SWAP1 PUSH1 0x20 SWAP7 DUP3 DUP9 MSTORE DUP6 DUP3 KECCAK256 SWAP3 CALLER PUSH12 0xFFFFFFFFFFFFFFFFFFFFFFFF PUSH1 0xA0 SHL DUP6 SLOAD AND OR DUP5 SSTORE DUP1 DUP5 ADD DUP6 MLOAD SWAP1 DUP4 DUP3 GT PUSH2 0xBB0 JUMPI PUSH2 0x93B DUP2 SLOAD PUSH2 0xFA5 JUMP JUMPDEST SWAP2 DUP12 PUSH1 0x1F SWAP4 DUP5 DUP2 GT PUSH2 0xB6B JUMPI JUMPDEST POP POP DUP1 DUP13 DUP14 DUP6 DUP4 GT PUSH1 0x1 EQ PUSH2 0xB09 JUMPI POP DUP8 SWAP2 PUSH2 0xAFE JUMPI JUMPDEST POP PUSH1 0x0 NOT PUSH1 0x3 DUP4 SWAP1 SHL SHR NOT AND SWAP1 DUP5 SHL OR SWAP1 SSTORE JUMPDEST PUSH1 0x2 DUP6 ADD SWAP4 DUP8 MLOAD SWAP4 DUP5 GT PUSH2 0x358 JUMPI DUP11 PUSH2 0x98B DUP7 SLOAD PUSH2 0xFA5 JUMP JUMPDEST DUP4 DUP2 GT PUSH2 0xAB9 JUMPI JUMPDEST POP POP DUP11 SWAP2 DUP5 GT PUSH1 0x1 EQ PUSH2 0xA30 JUMPI SWAP3 DUP1 DUP1 PUSH32 0x7B8DEC03DC1AB3E7E93135384D6ADBB54FFC289B79839FC05F10FA31CFBDDEAF SWAP8 SWAP5 PUSH2 0xA0E SWAP13 SWAP8 SWAP5 PUSH1 0x6 SWAP8 SWAP4 PUSH2 0xA25 JUMPI JUMPDEST POP SHL SWAP2 PUSH1 0x0 NOT SWAP1 PUSH1 0x3 SHL SHR NOT AND OR SWAP1 SSTORE JUMPDEST TIMESTAMP PUSH1 0x3 DUP3 ADD SSTORE ADD PUSH2 0xFFFF NOT DUP2 SLOAD AND SWAP1 SSTORE SLOAD SWAP5 DUP6 SWAP3 PUSH2 0xA1C DUP7 MLOAD SWAP3 DUP4 SWAP3 DUP9 DUP5 MSTORE DUP9 DUP5 ADD SWAP1 PUSH2 0x1084 JUMP JUMPDEST DUP3 DUP2 SUB DUP11 DUP5 ADD MSTORE CALLER SWAP7 PUSH2 0x1084 JUMP JUMPDEST SUB SWAP1 LOG3 MLOAD SWAP1 DUP2 MSTORE RETURN JUMPDEST DUP12 ADD MLOAD SWAP3 POP CODESIZE PUSH2 0x9D5 JUMP JUMPDEST SWAP1 PUSH1 0x1F SWAP4 SWAP3 SWAP4 NOT DUP4 AND DUP6 DUP4 MSTORE DUP12 DUP4 KECCAK256 SWAP3 JUMPDEST DUP13 DUP3 DUP3 LT PUSH2 0xAA5 JUMPI POP POP SWAP3 PUSH2 0xA0E SWAP11 SWAP6 SWAP3 PUSH1 0x6 SWAP6 SWAP3 DUP3 PUSH32 0x7B8DEC03DC1AB3E7E93135384D6ADBB54FFC289B79839FC05F10FA31CFBDDEAF SWAP10 SWAP7 LT PUSH2 0xA8C JUMPI JUMPDEST POP POP DUP2 SHL ADD SWAP1 SSTORE PUSH2 0x9E6 JUMP JUMPDEST DUP11 ADD MLOAD PUSH1 0x0 NOT PUSH1 0xF8 DUP5 PUSH1 0x3 SHL AND SHR NOT AND SWAP1 SSTORE CODESIZE DUP1 PUSH2 0xA80 JUMP JUMPDEST DUP11 DUP5 ADD MLOAD DUP6 SSTORE SWAP4 DUP7 ADD SWAP4 SWAP3 DUP4 ADD SWAP3 ADD PUSH2 0xA41 JUMP JUMPDEST DUP7 DUP4 MSTORE DUP4 DUP3 DUP5 KECCAK256 SWAP2 DUP2 DUP9 ADD PUSH1 0x5 SHR DUP4 ADD SWAP4 DUP9 LT PUSH2 0xAF5 JUMPI JUMPDEST ADD PUSH1 0x5 SHR ADD SWAP1 DUP5 SWAP1 JUMPDEST DUP3 DUP2 LT PUSH2 0xAEA JUMPI POP DUP13 SWAP2 POP PUSH2 0x993 JUMP JUMPDEST DUP4 DUP2 SSTORE ADD DUP5 SWAP1 PUSH2 0xADA JUMP JUMPDEST SWAP3 POP DUP2 SWAP3 PUSH2 0xAD1 JUMP JUMPDEST SWAP1 POP DUP9 ADD MLOAD CODESIZE PUSH2 0x95F JUMP JUMPDEST SWAP1 DUP7 SWAP4 POP PUSH1 0x1F NOT DUP4 AND DUP6 DUP11 MSTORE DUP3 DUP11 KECCAK256 SWAP3 DUP11 SWAP1 JUMPDEST DUP14 DUP4 DUP4 LT PUSH2 0xB53 JUMPI POP POP POP DUP4 GT PUSH2 0xB3A JUMPI JUMPDEST POP POP DUP2 SHL ADD SWAP1 SSTORE PUSH2 0x972 JUMP JUMPDEST DUP11 ADD MLOAD PUSH1 0x0 NOT PUSH1 0xF8 DUP5 PUSH1 0x3 SHL AND SHR NOT AND SWAP1 SSTORE CODESIZE DUP1 PUSH2 0xB2E JUMP JUMPDEST DUP5 ADD MLOAD DUP6 SSTORE DUP10 SWAP7 SWAP1 SWAP5 ADD SWAP4 SWAP3 DUP4 ADD SWAP3 SWAP1 DUP2 ADD SWAP1 PUSH2 0xB1C JUMP JUMPDEST DUP4 DUP9 MSTORE DUP5 DUP3 DUP10 KECCAK256 SWAP2 DUP2 DUP6 ADD PUSH1 0x5 SHR DUP4 ADD SWAP4 DUP6 LT PUSH2 0xBA7 JUMPI JUMPDEST ADD PUSH1 0x5 SHR ADD SWAP1 DUP6 SWAP1 JUMPDEST DUP3 DUP2 LT PUSH2 0xB9C JUMPI POP DUP14 SWAP2 POP PUSH2 0x948 JUMP JUMPDEST DUP9 DUP2 SSTORE ADD DUP6 SWAP1 PUSH2 0xB8C JUMP JUMPDEST SWAP3 POP DUP2 SWAP3 PUSH2 0xB83 JUMP JUMPDEST PUSH4 0x4E487B71 PUSH1 0xE0 SHL DUP6 MSTORE PUSH1 0x41 DUP11 MSTORE PUSH1 0x24 DUP6 REVERT JUMPDEST DUP4 SWAP1 CALLVALUE PUSH2 0x130 JUMPI DUP2 PUSH1 0x3 NOT CALLDATASIZE ADD SLT PUSH2 0x130 JUMPI PUSH1 0xFF PUSH1 0x20 SWAP3 SLOAD PUSH1 0xA0 SHR AND SWAP1 MLOAD SWAP1 ISZERO ISZERO DUP2 MSTORE RETURN JUMPDEST DUP4 SWAP1 CALLVALUE PUSH2 0x130 JUMPI DUP2 PUSH1 0x3 NOT CALLDATASIZE ADD SLT PUSH2 0x130 JUMPI PUSH1 0x20 SWAP1 MLOAD PUSH3 0x15180 DUP2 MSTORE RETURN JUMPDEST DUP4 CALLVALUE PUSH2 0x57B JUMPI DUP1 PUSH1 0x3 NOT CALLDATASIZE ADD SLT PUSH2 0x57B JUMPI DUP1 SLOAD PUSH2 0xC2D CALLER PUSH1 0x1 PUSH1 0x1 PUSH1 0xA0 SHL SUB DUP4 AND EQ PUSH2 0x11D0 JUMP JUMPDEST PUSH1 0xFF PUSH1 0xA0 SHL NOT AND PUSH1 0x1 PUSH1 0xA0 SHL OR DUP2 SSTORE CALLER PUSH32 0x7C83004A7E59A8EA03B200186C4DDA29A4E144D9844D63DBC1A09ACF7DFCD485 DUP3 DUP1 LOG2 DUP1 RETURN JUMPDEST DUP4 CALLVALUE PUSH2 0x57B JUMPI DUP1 PUSH1 0x3 NOT CALLDATASIZE ADD SLT PUSH2 0x57B JUMPI DUP1 SLOAD PUSH2 0xC8B CALLER PUSH1 0x1 PUSH1 0x1 PUSH1 0xA0 SHL SUB DUP4 AND EQ PUSH2 0x11D0 JUMP JUMPDEST PUSH1 0xFF PUSH1 0xA0 SHL NOT AND DUP2 SSTORE CALLER PUSH32 0x306CA22C455FE433EBBF0542BBF947EA6A725495F9E1043DB2A47E3C57940385 DUP3 DUP1 LOG2 DUP1 RETURN JUMPDEST SWAP2 SWAP1 POP CALLVALUE PUSH2 0x6AE JUMPI DUP2 PUSH1 0x3 NOT CALLDATASIZE ADD SLT PUSH2 0x6AE JUMPI PUSH1 0x24 CALLDATALOAD PUSH1 0x1 PUSH1 0x1 PUSH1 0xA0 SHL SUB DUP2 AND SWAP2 SWAP1 DUP3 SWAP1 SUB PUSH2 0x3C1 JUMPI PUSH1 0x20 SWAP4 PUSH1 0xFF SWAP3 DUP5 SWAP3 CALLDATALOAD DUP3 MSTORE PUSH1 0x1 DUP7 MSTORE PUSH1 0x7 DUP4 DUP4 KECCAK256 ADD SWAP1 DUP3 MSTORE DUP6 MSTORE KECCAK256 SLOAD AND SWAP1 MLOAD SWAP1 ISZERO ISZERO DUP2 MSTORE RETURN JUMPDEST DUP4 SWAP1 CALLVALUE PUSH2 0x130 JUMPI PUSH1 0x20 CALLDATASIZE PUSH1 0x3 NOT ADD SLT PUSH2 0x130 JUMPI PUSH1 0x80 SWAP2 DUP2 SWAP1 PUSH1 0x1 PUSH1 0x1 PUSH1 0xA0 SHL SUB PUSH2 0xD33 PUSH2 0xEFB JUMP JUMPDEST AND DUP2 MSTORE PUSH1 0x3 PUSH1 0x20 MSTORE KECCAK256 SWAP1 DUP2 SLOAD SWAP2 PUSH1 0x1 DUP2 ADD SLOAD SWAP2 PUSH1 0xFF PUSH1 0x3 PUSH1 0x2 DUP5 ADD SLOAD SWAP4 ADD SLOAD AND SWAP3 DUP2 MLOAD SWAP5 DUP6 MSTORE PUSH1 0x20 DUP6 ADD MSTORE DUP4 ADD MSTORE ISZERO ISZERO PUSH1 0x60 DUP3 ADD MSTORE RETURN JUMPDEST SWAP1 POP CALLVALUE PUSH2 0x6AE JUMPI DUP1 PUSH1 0x3 NOT CALLDATASIZE ADD SLT PUSH2 0x6AE JUMPI DUP2 CALLDATALOAD SWAP2 PUSH1 0x24 CALLDATALOAD SWAP2 DUP3 ISZERO ISZERO SWAP1 DUP2 DUP5 SUB PUSH2 0xEF7 JUMPI PUSH2 0xD9F PUSH1 0xFF DUP8 SLOAD PUSH1 0xA0 SHR AND ISZERO PUSH2 0x111E JUMP JUMPDEST CALLER DUP7 MSTORE PUSH1 0x20 SWAP1 PUSH1 0x3 DUP3 MSTORE PUSH1 0xFF PUSH1 0x3 DUP3 DUP10 KECCAK256 ADD SLOAD AND ISZERO PUSH2 0xEC1 JUMPI DUP6 DUP8 MSTORE PUSH1 0x1 DUP3 MSTORE DUP1 DUP8 KECCAK256 SWAP5 PUSH2 0xDD4 PUSH1 0xFF PUSH1 0x6 DUP9 ADD SLOAD AND ISZERO PUSH2 0x115F JUMP JUMPDEST PUSH1 0x7 DUP7 ADD CALLER DUP10 MSTORE DUP1 DUP5 MSTORE PUSH1 0xFF DUP4 DUP11 KECCAK256 SLOAD AND PUSH2 0xE8E JUMPI CALLER DUP10 MSTORE DUP4 MSTORE DUP2 DUP9 KECCAK256 DUP1 SLOAD PUSH1 0xFF NOT AND PUSH1 0x1 OR SWAP1 SSTORE DUP7 SWAP3 PUSH32 0xE71FCDAC32DF1877C1700E7BDA2A03157E20993363A28FC35AC495CEFC76E4D4 SWAP3 SWAP1 SWAP2 ISZERO PUSH2 0xE79 JUMPI DUP6 DUP8 ADD PUSH2 0xE34 DUP2 SLOAD PUSH2 0x11AB JUMP JUMPDEST SWAP1 SSTORE JUMPDEST MLOAD SWAP4 DUP5 MSTORE CALLER SWAP4 LOG3 PUSH1 0x5 DUP2 DUP4 ADD SLOAD SWAP3 ADD SLOAD DUP3 ADD DUP1 SWAP3 GT PUSH2 0xE66 JUMPI POP PUSH1 0x3 GT ISZERO PUSH2 0xE5D JUMPI POP DUP1 RETURN JUMPDEST PUSH2 0x12D SWAP1 PUSH2 0x129B JUMP JUMPDEST PUSH4 0x4E487B71 PUSH1 0xE0 SHL DUP5 MSTORE PUSH1 0x11 SWAP1 MSTORE PUSH1 0x24 DUP4 REVERT JUMPDEST PUSH1 0x5 DUP8 ADD PUSH2 0xE87 DUP2 SLOAD PUSH2 0x11AB JUMP JUMPDEST SWAP1 SSTORE PUSH2 0xE37 JUMP JUMPDEST DUP3 MLOAD PUSH3 0x461BCD PUSH1 0xE5 SHL DUP2 MSTORE DUP1 DUP8 ADD DUP6 SWAP1 MSTORE PUSH1 0xD PUSH1 0x24 DUP3 ADD MSTORE PUSH13 0x105B1C9958591E481D9BDD1959 PUSH1 0x9A SHL PUSH1 0x44 DUP3 ADD MSTORE PUSH1 0x64 SWAP1 REVERT JUMPDEST MLOAD PUSH3 0x461BCD PUSH1 0xE5 SHL DUP2 MSTORE SWAP3 DUP4 ADD MSTORE POP PUSH1 0x12 PUSH1 0x24 DUP3 ADD MSTORE PUSH18 0x139BD919481B9BDD081C5D585B1A599A5959 PUSH1 0x72 SHL PUSH1 0x44 DUP3 ADD MSTORE PUSH1 0x64 SWAP1 REVERT JUMPDEST DUP6 DUP1 REVERT JUMPDEST PUSH1 0x4 CALLDATALOAD SWAP1 PUSH1 0x1 PUSH1 0x1 PUSH1 0xA0 SHL SUB DUP3 AND DUP3 SUB PUSH2 0xF11 JUMPI JUMP JUMPDEST PUSH1 0x0 DUP1 REVERT JUMPDEST SWAP1 PUSH1 0x1F DUP1 NOT SWAP2 ADD AND DUP2 ADD SWAP1 DUP2 LT PUSH8 0xFFFFFFFFFFFFFFFF DUP3 GT OR PUSH2 0xF38 JUMPI PUSH1 0x40 MSTORE JUMP JUMPDEST PUSH4 0x4E487B71 PUSH1 0xE0 SHL PUSH1 0x0 MSTORE PUSH1 0x41 PUSH1 0x4 MSTORE PUSH1 0x24 PUSH1 0x0 REVERT JUMPDEST DUP2 PUSH1 0x1F DUP3 ADD SLT ISZERO PUSH2 0xF11 JUMPI DUP1 CALLDATALOAD SWAP1 PUSH8 0xFFFFFFFFFFFFFFFF DUP3 GT PUSH2 0xF38 JUMPI PUSH1 0x40 MLOAD SWAP3 PUSH2 0xF83 PUSH1 0x1F DUP5 ADD PUSH1 0x1F NOT AND PUSH1 0x20 ADD DUP6 PUSH2 0xF16 JUMP JUMPDEST DUP3 DUP5 MSTORE PUSH1 0x20 DUP4 DUP4 ADD ADD GT PUSH2 0xF11 JUMPI DUP2 PUSH1 0x0 SWAP3 PUSH1 0x20 DUP1 SWAP4 ADD DUP4 DUP7 ADD CALLDATACOPY DUP4 ADD ADD MSTORE SWAP1 JUMP JUMPDEST SWAP1 PUSH1 0x1 DUP3 DUP2 SHR SWAP3 AND DUP1 ISZERO PUSH2 0xFD5 JUMPI JUMPDEST PUSH1 0x20 DUP4 LT EQ PUSH2 0xFBF JUMPI JUMP JUMPDEST PUSH4 0x4E487B71 PUSH1 0xE0 SHL PUSH1 0x0 MSTORE PUSH1 0x22 PUSH1 0x4 MSTORE PUSH1 0x24 PUSH1 0x0 REVERT JUMPDEST SWAP2 PUSH1 0x7F AND SWAP2 PUSH2 0xFB4 JUMP JUMPDEST SWAP1 PUSH1 0x40 MLOAD SWAP2 DUP3 PUSH1 0x0 DUP3 SLOAD PUSH2 0xFF2 DUP2 PUSH2 0xFA5 JUMP JUMPDEST SWAP1 DUP2 DUP5 MSTORE PUSH1 0x20 SWAP5 PUSH1 0x1 SWAP2 PUSH1 0x1 DUP2 AND SWAP1 DUP2 PUSH1 0x0 EQ PUSH2 0x1062 JUMPI POP PUSH1 0x1 EQ PUSH2 0x1023 JUMPI JUMPDEST POP POP POP PUSH2 0x1021 SWAP3 POP SUB DUP4 PUSH2 0xF16 JUMP JUMPDEST JUMP JUMPDEST PUSH1 0x0 SWAP1 DUP2 MSTORE DUP6 DUP2 KECCAK256 SWAP6 SWAP4 POP SWAP2 SWAP1 JUMPDEST DUP2 DUP4 LT PUSH2 0x104A JUMPI POP POP PUSH2 0x1021 SWAP4 POP DUP3 ADD ADD CODESIZE DUP1 DUP1 PUSH2 0x1012 JUMP JUMPDEST DUP6 SLOAD DUP9 DUP5 ADD DUP6 ADD MSTORE SWAP5 DUP6 ADD SWAP5 DUP8 SWAP5 POP SWAP2 DUP4 ADD SWAP2 PUSH2 0x1031 JUMP JUMPDEST SWAP3 POP POP POP PUSH2 0x1021 SWAP5 SWAP3 POP PUSH1 0xFF NOT AND DUP3 DUP5 ADD MSTORE ISZERO ISZERO PUSH1 0x5 SHL DUP3 ADD ADD CODESIZE DUP1 DUP1 PUSH2 0x1012 JUMP JUMPDEST SWAP2 SWAP1 DUP3 MLOAD SWAP3 DUP4 DUP3 MSTORE PUSH1 0x0 JUMPDEST DUP5 DUP2 LT PUSH2 0x10B0 JUMPI POP POP DUP3 PUSH1 0x0 PUSH1 0x20 DUP1 SWAP5 SWAP6 DUP5 ADD ADD MSTORE PUSH1 0x1F DUP1 NOT SWAP2 ADD AND ADD ADD SWAP1 JUMP JUMPDEST PUSH1 0x20 DUP2 DUP4 ADD DUP2 ADD MLOAD DUP5 DUP4 ADD DUP3 ADD MSTORE ADD PUSH2 0x108F JUMP JUMPDEST SWAP7 SWAP4 SWAP9 SWAP8 SWAP5 SWAP2 SWAP3 PUSH2 0x10F2 PUSH1 0xE0 SWAP8 SWAP5 PUSH2 0x1100 SWAP4 PUSH2 0x100 SWAP1 PUSH1 0x1 DUP1 PUSH1 0xA0 SHL SUB AND DUP12 MSTORE DUP1 PUSH1 0x20 DUP13 ADD MSTORE DUP11 ADD SWAP1 PUSH2 0x1084 JUMP JUMPDEST SWAP1 DUP9 DUP3 SUB PUSH1 0x40 DUP11 ADD MSTORE PUSH2 0x1084 JUMP JUMPDEST SWAP8 PUSH1 0x60 DUP8 ADD MSTORE PUSH1 0x80 DUP7 ADD MSTORE PUSH1 0xA0 DUP6 ADD MSTORE ISZERO ISZERO PUSH1 0xC0 DUP5 ADD MSTORE ISZERO ISZERO SWAP2 ADD MSTORE JUMP JUMPDEST ISZERO PUSH2 0x1125 JUMPI JUMP JUMPDEST PUSH1 0x40 MLOAD PUSH3 0x461BCD PUSH1 0xE5 SHL DUP2 MSTORE PUSH1 0x20 PUSH1 0x4 DUP3 ADD MSTORE PUSH1 0x12 PUSH1 0x24 DUP3 ADD MSTORE PUSH18 0x10DBDB9D1C9858DD081A5CC81C185D5CD959 PUSH1 0x72 SHL PUSH1 0x44 DUP3 ADD MSTORE PUSH1 0x64 SWAP1 REVERT JUMPDEST ISZERO PUSH2 0x1166 JUMPI JUMP JUMPDEST PUSH1 0x40 MLOAD PUSH3 0x461BCD PUSH1 0xE5 SHL DUP2 MSTORE PUSH1 0x20 PUSH1 0x4 DUP3 ADD MSTORE PUSH1 0x17 PUSH1 0x24 DUP3 ADD MSTORE PUSH32 0x41707065616C20616C7265616479207265736F6C766564000000000000000000 PUSH1 0x44 DUP3 ADD MSTORE PUSH1 0x64 SWAP1 REVERT JUMPDEST PUSH1 0x0 NOT DUP2 EQ PUSH2 0x11BA JUMPI PUSH1 0x1 ADD SWAP1 JUMP JUMPDEST PUSH4 0x4E487B71 PUSH1 0xE0 SHL PUSH1 0x0 MSTORE PUSH1 0x11 PUSH1 0x4 MSTORE PUSH1 0x24 PUSH1 0x0 REVERT JUMPDEST ISZERO PUSH2 0x11D7 JUMPI JUMP JUMPDEST PUSH1 0x40 MLOAD PUSH3 0x461BCD PUSH1 0xE5 SHL DUP2 MSTORE PUSH1 0x20 PUSH1 0x4 DUP3 ADD MSTORE PUSH1 0xE PUSH1 0x24 DUP3 ADD MSTORE PUSH14 0x27B7363C903232BB32B637B832B9 PUSH1 0x91 SHL PUSH1 0x44 DUP3 ADD MSTORE PUSH1 0x64 SWAP1 REVERT JUMPDEST ISZERO PUSH2 0x1214 JUMPI JUMP JUMPDEST PUSH1 0x40 MLOAD PUSH3 0x461BCD PUSH1 0xE5 SHL DUP2 MSTORE PUSH1 0x20 PUSH1 0x4 DUP3 ADD MSTORE PUSH1 0x13 PUSH1 0x24 DUP3 ADD MSTORE PUSH19 0x1058DD1A5BDB881B9BDD081C1C9BDC1BDCD959 PUSH1 0x6A SHL PUSH1 0x44 DUP3 ADD MSTORE PUSH1 0x64 SWAP1 REVERT JUMPDEST ISZERO PUSH2 0x1256 JUMPI JUMP JUMPDEST PUSH1 0x40 MLOAD PUSH3 0x461BCD PUSH1 0xE5 SHL DUP2 MSTORE PUSH1 0x20 PUSH1 0x4 DUP3 ADD MSTORE PUSH1 0x17 PUSH1 0x24 DUP3 ADD MSTORE PUSH32 0x416374696F6E20616C7265616479206578656375746564000000000000000000 PUSH1 0x44 DUP3 ADD MSTORE PUSH1 0x64 SWAP1 REVERT JUMPDEST DUP1 PUSH1 0x0 MSTORE PUSH1 0x1 PUSH1 0x20 MSTORE PUSH32 0x89CD618842088E9ADA48E481BBA3A9320EBA61A9329EF23EDE5ABD02837084A5 PUSH1 0x20 PUSH1 0x40 PUSH1 0x0 KECCAK256 PUSH1 0x1 PUSH1 0x6 DUP3 ADD SWAP2 PUSH2 0xFF00 DUP4 SLOAD SWAP2 PUSH2 0x12E6 PUSH1 0xFF DUP5 AND ISZERO PUSH2 0x115F JUMP JUMPDEST PUSH1 0x5 PUSH1 0x4 DUP3 ADD SLOAD SWAP2 ADD SLOAD LT PUSH1 0x8 SHL AND SWAP1 PUSH2 0xFFFF NOT AND OR OR DUP1 SWAP2 SSTORE PUSH1 0xFF PUSH1 0x40 MLOAD SWAP2 PUSH1 0x8 SHR AND ISZERO ISZERO DUP2 MSTORE LOG2 JUMP INVALID LOG1 PUSH5 0x736F6C6343 STOP ADDMOD XOR STOP EXP "},"methodIdentifiers":{"EMERGENCY_DELAY()":"82944e2d","TIMELOCK_DELAY()":"5ba1c1a9","appealCount()":"7f52479a","appeals(uint256)":"acff8687","cancelAction(bytes32)":"781cc3d3","castVote(uint256,bool)":"15373e3d","developer()":"ca4b208b","emergencyPause()":"51858e27","emergencyUnpause()":"4a4e3bd5","executeAction(bytes)":"a129568d","getAppeal(uint256)":"8550ea2a","hasVoted(uint256,address)":"43859632","isNodeQualified(address)":"64dbadca","nodes(address)":"189a5a17","paused()":"5c975abb","proposeAction(bytes,string)":"e38b0e54","proposedActions(bytes32)":"69d2529d","resolveAppeal(uint256)":"fb237d41","submitAppeal(string,string)":"5fb03247","updateNodeQualification(address,uint256,uint256,uint256)":"ad2f85dc"}}}}}