{"contracts/OptimizedThreatRegistry.sol":{"OptimizedThreatRegistry":{"abi":[{"inputs":[],"stateMutability":"nonpayable","type":"constructor"},{"inputs":[],"name":"AccessControlBadConfirmation","type":"error"},{"inputs":[{"internalType":"address","name":"account","type":"address"},{"internalType":"bytes32","name":"neededRole","type":"bytes32"}],"name":"AccessControlUnauthorizedAccount","type":"error"},{"anonymous":false,"inputs":[{"indexed":true,"internalType":"bytes32","name":"root","type":"bytes32"},{"indexed":false,"internalType":"uint256","name":"timestamp","type":"uint256"}],"name":"MerkleRootUpdated","type":"event"},{"anonymous":false,"inputs":[{"indexed":true,"internalType":"bytes32","name":"role","type":"bytes32"},{"indexed":true,"internalType":"bytes32","name":"previousAdminRole","type":"bytes32"},{"indexed":true,"internalType":"bytes32","name":"newAdminRole","type":"bytes32"}],"name":"RoleAdminChanged","type":"event"},{"anonymous":false,"inputs":[{"indexed":true,"internalType":"bytes32","name":"role","type":"bytes32"},{"indexed":true,"internalType":"address","name":"account","type":"address"},{"indexed":true,"internalType":"address","name":"sender","type":"address"}],"name":"RoleGranted","type":"event"},{"anonymous":false,"inputs":[{"indexed":true,"internalType":"bytes32","name":"role","type":"bytes32"},{"indexed":true,"internalType":"address","name":"account","type":"address"},{"indexed":true,"internalType":"address","name":"sender","type":"address"}],"name":"RoleRevoked","type":"event"},{"anonymous":false,"inputs":[{"indexed":true,"internalType":"bytes4","name":"ip","type":"bytes4"}],"name":"ThreatRemoved","type":"event"},{"anonymous":false,"inputs":[{"indexed":true,"internalType":"bytes4","name":"ip","type":"bytes4"},{"indexed":false,"internalType":"uint8","name":"riskLevel","type":"uint8"},{"indexed":false,"internalType":"uint64","name":"expiry","type":"uint64"},{"indexed":false,"internalType":"uint8","name":"mask","type":"uint8"}],"name":"ThreatUpdated","type":"event"},{"inputs":[],"name":"DEFAULT_ADMIN_ROLE","outputs":[{"internalType":"bytes32","name":"","type":"bytes32"}],"stateMutability":"view","type":"function"},{"inputs":[],"name":"ORACLE_ROLE","outputs":[{"internalType":"bytes32","name":"","type":"bytes32"}],"stateMutability":"view","type":"function"},{"inputs":[{"internalType":"bytes32","name":"role","type":"bytes32"}],"name":"getRoleAdmin","outputs":[{"internalType":"bytes32","name":"","type":"bytes32"}],"stateMutability":"view","type":"function"},{"inputs":[{"internalType":"bytes4","name":"ip","type":"bytes4"}],"name":"getThreat","outputs":[{"components":[{"internalType":"uint64","name":"expiry","type":"uint64"},{"internalType":"uint8","name":"riskLevel","type":"uint8"},{"internalType":"uint8","name":"mask","type":"uint8"},{"internalType":"uint16","name":"sourceMask","type":"uint16"}],"internalType":"struct OptimizedThreatRegistry.ThreatInfo","name":"","type":"tuple"}],"stateMutability":"view","type":"function"},{"inputs":[{"internalType":"bytes32","name":"role","type":"bytes32"},{"internalType":"address","name":"account","type":"address"}],"name":"grantRole","outputs":[],"stateMutability":"nonpayable","type":"function"},{"inputs":[{"internalType":"bytes32","name":"role","type":"bytes32"},{"internalType":"address","name":"account","type":"address"}],"name":"hasRole","outputs":[{"internalType":"bool","name":"","type":"bool"}],"stateMutability":"view","type":"function"},{"inputs":[{"internalType":"bytes4","name":"ip","type":"bytes4"}],"name":"isThreat","outputs":[{"internalType":"bool","name":"","type":"bool"},{"internalType":"uint8","name":"","type":"uint8"},{"internalType":"uint64","name":"","type":"uint64"}],"stateMutability":"view","type":"function"},{"inputs":[],"name":"merkleRoot","outputs":[{"internalType":"bytes32","name":"","type":"bytes32"}],"stateMutability":"view","type":"function"},{"inputs":[{"internalType":"bytes4[]","name":"ips","type":"bytes4[]"}],"name":"pruneExpired","outputs":[],"stateMutability":"nonpayable","type":"function"},{"inputs":[{"internalType":"bytes32","name":"role","type":"bytes32"},{"internalType":"address","name":"callerConfirmation","type":"address"}],"name":"renounceRole","outputs":[],"stateMutability":"nonpayable","type":"function"},{"inputs":[{"internalType":"bytes32","name":"role","type":"bytes32"},{"internalType":"address","name":"account","type":"address"}],"name":"revokeRole","outputs":[],"stateMutability":"nonpayable","type":"function"},{"inputs":[{"internalType":"bytes4","name":"interfaceId","type":"bytes4"}],"name":"supportsInterface","outputs":[{"internalType":"bool","name":"","type":"bool"}],"stateMutability":"view","type":"function"},{"inputs":[{"internalType":"bytes4","name":"","type":"bytes4"}],"name":"threats","outputs":[{"internalType":"uint64","name":"expiry","type":"uint64"},{"internalType":"uint8","name":"riskLevel","type":"uint8"},{"internalType":"uint8","name":"mask","type":"uint8"},{"internalType":"uint16","name":"sourceMask","type":"uint16"}],"stateMutability":"view","type":"function"},{"inputs":[{"internalType":"bytes32","name":"_root","type":"bytes32"}],"name":"updateMerkleRoot","outputs":[],"stateMutability":"nonpayable","type":"function"},{"inputs":[{"internalType":"bytes4[]","name":"ips","type":"bytes4[]"},{"internalType":"uint8[]","name":"levels","type":"uint8[]"},{"internalType":"uint8[]","name":"masks","type":"uint8[]"},{"internalType":"uint16[]","name":"sources","type":"uint16[]"},{"internalType":"uint64","name":"duration","type":"uint64"}],"name":"updateThreatBatch","outputs":[],"stateMutability":"nonpayable","type":"function"}],"evm":{"bytecode":{"linkReferences":{},"object":"60806040523461002c5761001233610031565b5061001c336100af565b50604051610b7290816101508239f35b600080fd5b6001600160a01b031660008181527fad3228b676f7d3cd4284a5443f17f1962b36e491b30a40b2405849e597ba5fb5602052604081205490919060ff166100ab57818052816020526040822081835260205260408220600160ff198254161790553391600080516020610cc28339815191528180a4600190565b5090565b6001600160a01b031660008181527fa629f6981c2f6895a67dc766e8e03ff72d04a413d0d8773a3ca56e9e474032c160205260408120549091907f68e79a7bf1e0bc45d0a330c573bc367f9cf464fd326078812f301165fbda4ef19060ff1661014a57808352826020526040832082845260205260408320600160ff19825416179055600080516020610cc2833981519152339380a4600190565b50509056fe608080604052600436101561001357600080fd5b600090813560e01c90816301ffc9a7146108235750806307e2cea5146107e8578063248a9ca3146107bc5780632eb4a7ab1461079e5780632f2ef1a1146106a55780632f2ff15d1461067657806331cf430914610621578063359d577a146102f957806336568abe146102bf57806341e6d71d146102545780634783f0ef146102065780635a92e5891461015257806391d1485414610117578063a217fddf146100fb5763d547741f146100c657600080fd5b346100f8576100f46100d7366108b1565b90808452836020526100ef6001604086200154610a4c565b610af0565b5080f35b80fd5b50346100f857806003193601126100f857602090604051908152f35b50346100f85760ff604060209261012d366108b1565b9082528185528282206001600160a01b03909116825284522054604051911615158152f35b50346100f85760203660031901126100f85760043563ffffffff60e01b811680910361020257816040916080936060610189610912565b82815282602082015282868201520152815260016020522060606101ab610912565b915460ff6001600160401b038216938481528160208201818560401c1681526040830192828660481c16845261ffff968791019560501c168552604051968752511660208601525116604084015251166060820152f35b5080fd5b50346100f85760203660031901126100f8576004356102236109d2565b806002557fecb6e184c8c1ff50ab199b30650a76b7eb56fe2f261becc6284e0a3a1707be486020604051428152a280f35b50346100f85760203660031901126100f85760043563ffffffff60e01b81168091036102025781604091608093526001602052205461ffff604051916001600160401b038116835260ff8160401c16602084015260ff8160481c16604084015260501c166060820152f35b50346100f8576102ce366108b1565b336001600160a01b038216036102e7576100f491610af0565b60405163334bd91960e11b8152600490fd5b50346100f85760a03660031901126100f8576004356001600160401b0381116102025761032a90369060040161087c565b906024356001600160401b03811161061d5761034a90369060040161087c565b90926044356001600160401b0381116106195761036b90369060040161087c565b906064356001600160401b0381116106155761038b90369060040161087c565b939094608435916001600160401b0383168303610611576103aa6109d2565b81811480610608575b806105ff575b156105c857895b8181106103cb578a80f35b806103f56103f082866103ea8f968f90896103e5926108d7565b6108fd565b956108d7565b6109c4565b60ff811615610585576001600160e01b031983168d52600160205260408d2080549390426001600160401b0386161180610574575b15610536576001600160401b0362093a808187160111610522578b91899161047e868e60ff60481b8f6103f084610474926001600160401b038f8162093a809116015b169a6108d7565b60481b16966108d7565b359261ffff8416840361051c576104f66103f0888f8f60ff9660019d7fbf9c82a2e49583ea8990e5994f020f8ff61f2a9a5ae067d4df0d0fe8d76b78639b8d68ff00000000000000008a60609e61ffff60501b9060501b16946bffffffffffffffffffffffff1916179160401b1617171790556108d7565b908260405197168752602087015216604085015263ffffffff60e01b1692a25b016103c0565b50508f80fd5b634e487b7160e01b8f52601160045260248ffd5b6001600160401b03881642014211610522578b91899161047e868e60ff60481b8f6103f08f610474926001600160401b03808089941642011661046d565b50600360ff8660401c16101561042a565b5060019163ffffffff60e01b16808d52826020528c60408120557f75ffe9fe5fbb1f7406f31f5657e09f354ba90e288df44302b3e7fc1397b6f3888d80a2610516565b60405162461bcd60e51b815260206004820152600f60248201526e098cadccee8d040dad2e6dac2e8c6d608b1b6044820152606490fd5b508581146103b9565b508481146103b3565b8980fd5b8780fd5b8580fd5b8380fd5b50346100f85760203660031901126100f857600435906001600160e01b0319821682036100f857606060ff6001600160401b0361065d85610947565b9193906040519415158552166020840152166040820152f35b50346100f8576100f4610688366108b1565b90808452836020526106a06001604086200154610a4c565b610a72565b50346100f857602080600319360112610202576001600160401b0360043581811161061d576106d890369060040161087c565b9091845b8281106106e7578580f35b6001906001600160e01b0319806107026103e584888a6108d7565b16885282808852428560408b20541611158061077a575b610726575b5050016106dc565b816107356103e585898b6108d7565b168952875287604081205561074e6103e58387896108d7565b167f75ffe9fe5fbb1f7406f31f5657e09f354ba90e288df44302b3e7fc1397b6f3888880a2388061071e565b508161078a6103e585898b6108d7565b1689528088528460408a2054161515610719565b50346100f857806003193601126100f8576020600254604051908152f35b50346100f85760203660031901126100f857600160406020926004358152808452200154604051908152f35b50346100f857806003193601126100f85760206040517f68e79a7bf1e0bc45d0a330c573bc367f9cf464fd326078812f301165fbda4ef18152f35b9050346102025760203660031901126102025760043563ffffffff60e01b81168091036108785760209250637965db0b60e01b8114908115610867575b5015158152f35b6301ffc9a760e01b14905038610860565b8280fd5b9181601f840112156108ac578235916001600160401b0383116108ac576020808501948460051b0101116108ac57565b600080fd5b60409060031901126108ac57600435906024356001600160a01b03811681036108ac5790565b91908110156108e75760051b0190565b634e487b7160e01b600052603260045260246000fd5b356001600160e01b0319811681036108ac5790565b60405190608082018281106001600160401b0382111761093157604052565b634e487b7160e01b600052604160045260246000fd5b63ffffffff60e01b1660005260016020526040600020610965610912565b9054906001600160401b03821690818152606061ffff60ff8560401c169485602085015260ff8160481c16604085015260501c16910152428111806109bb575b6109b6575050600090600090600090565b600192565b508115156109a5565b3560ff811681036108ac5790565b3360009081527fa629f6981c2f6895a67dc766e8e03ff72d04a413d0d8773a3ca56e9e474032c160205260409020547f68e79a7bf1e0bc45d0a330c573bc367f9cf464fd326078812f301165fbda4ef19060ff1615610a2e5750565b6044906040519063e2517d3f60e01b82523360048301526024820152fd5b80600052600060205260406000203360005260205260ff6040600020541615610a2e5750565b9060009180835282602052604083209160018060a01b03169182845260205260ff60408420541615600014610aeb57808352826020526040832082845260205260408320600160ff198254161790557f2f8788117e7eff1d82e926ec794901d17c78024a50270940304540a733656f0d339380a4600190565b505090565b9060009180835282602052604083209160018060a01b03169182845260205260ff604084205416600014610aeb5780835282602052604083208284526020526040832060ff1981541690557ff6391f5c32d9c69d2a47ea670b442974b53935d1edc7fd64eb21e047a839171b339380a460019056fea164736f6c6343000818000a2f8788117e7eff1d82e926ec794901d17c78024a50270940304540a733656f0d","opcodes":"PUSH1 0x80 PUSH1 0x40 MSTORE CALLVALUE PUSH2 0x2C JUMPI PUSH2 0x12 CALLER PUSH2 0x31 JUMP JUMPDEST POP PUSH2 0x1C CALLER PUSH2 0xAF JUMP JUMPDEST POP PUSH1 0x40 MLOAD PUSH2 0xB72 SWAP1 DUP2 PUSH2 0x150 DUP3 CODECOPY RETURN JUMPDEST PUSH1 0x0 DUP1 REVERT JUMPDEST PUSH1 0x1 PUSH1 0x1 PUSH1 0xA0 SHL SUB AND PUSH1 0x0 DUP2 DUP2 MSTORE PUSH32 0xAD3228B676F7D3CD4284A5443F17F1962B36E491B30A40B2405849E597BA5FB5 PUSH1 0x20 MSTORE PUSH1 0x40 DUP2 KECCAK256 SLOAD SWAP1 SWAP2 SWAP1 PUSH1 0xFF AND PUSH2 0xAB JUMPI DUP2 DUP1 MSTORE DUP2 PUSH1 0x20 MSTORE PUSH1 0x40 DUP3 KECCAK256 DUP2 DUP4 MSTORE PUSH1 0x20 MSTORE PUSH1 0x40 DUP3 KECCAK256 PUSH1 0x1 PUSH1 0xFF NOT DUP3 SLOAD AND OR SWAP1 SSTORE CALLER SWAP2 PUSH1 0x0 DUP1 MLOAD PUSH1 0x20 PUSH2 0xCC2 DUP4 CODECOPY DUP2 MLOAD SWAP2 MSTORE DUP2 DUP1 LOG4 PUSH1 0x1 SWAP1 JUMP JUMPDEST POP SWAP1 JUMP JUMPDEST PUSH1 0x1 PUSH1 0x1 PUSH1 0xA0 SHL SUB AND PUSH1 0x0 DUP2 DUP2 MSTORE PUSH32 0xA629F6981C2F6895A67DC766E8E03FF72D04A413D0D8773A3CA56E9E474032C1 PUSH1 0x20 MSTORE PUSH1 0x40 DUP2 KECCAK256 SLOAD SWAP1 SWAP2 SWAP1 PUSH32 0x68E79A7BF1E0BC45D0A330C573BC367F9CF464FD326078812F301165FBDA4EF1 SWAP1 PUSH1 0xFF AND PUSH2 0x14A JUMPI DUP1 DUP4 MSTORE DUP3 PUSH1 0x20 MSTORE PUSH1 0x40 DUP4 KECCAK256 DUP3 DUP5 MSTORE PUSH1 0x20 MSTORE PUSH1 0x40 DUP4 KECCAK256 PUSH1 0x1 PUSH1 0xFF NOT DUP3 SLOAD AND OR SWAP1 SSTORE PUSH1 0x0 DUP1 MLOAD PUSH1 0x20 PUSH2 0xCC2 DUP4 CODECOPY DUP2 MLOAD SWAP2 MSTORE CALLER SWAP4 DUP1 LOG4 PUSH1 0x1 SWAP1 JUMP JUMPDEST POP POP SWAP1 JUMP INVALID PUSH1 0x80 DUP1 PUSH1 0x40 MSTORE PUSH1 0x4 CALLDATASIZE LT ISZERO PUSH2 0x13 JUMPI PUSH1 0x0 DUP1 REVERT JUMPDEST PUSH1 0x0 SWAP1 DUP2 CALLDATALOAD PUSH1 0xE0 SHR SWAP1 DUP2 PUSH4 0x1FFC9A7 EQ PUSH2 0x823 JUMPI POP DUP1 PUSH4 0x7E2CEA5 EQ PUSH2 0x7E8 JUMPI DUP1 PUSH4 0x248A9CA3 EQ PUSH2 0x7BC JUMPI DUP1 PUSH4 0x2EB4A7AB EQ PUSH2 0x79E JUMPI DUP1 PUSH4 0x2F2EF1A1 EQ PUSH2 0x6A5 JUMPI DUP1 PUSH4 0x2F2FF15D EQ PUSH2 0x676 JUMPI DUP1 PUSH4 0x31CF4309 EQ PUSH2 0x621 JUMPI DUP1 PUSH4 0x359D577A EQ PUSH2 0x2F9 JUMPI DUP1 PUSH4 0x36568ABE EQ PUSH2 0x2BF JUMPI DUP1 PUSH4 0x41E6D71D EQ PUSH2 0x254 JUMPI DUP1 PUSH4 0x4783F0EF EQ PUSH2 0x206 JUMPI DUP1 PUSH4 0x5A92E589 EQ PUSH2 0x152 JUMPI DUP1 PUSH4 0x91D14854 EQ PUSH2 0x117 JUMPI DUP1 PUSH4 0xA217FDDF EQ PUSH2 0xFB JUMPI PUSH4 0xD547741F EQ PUSH2 0xC6 JUMPI PUSH1 0x0 DUP1 REVERT JUMPDEST CALLVALUE PUSH2 0xF8 JUMPI PUSH2 0xF4 PUSH2 0xD7 CALLDATASIZE PUSH2 0x8B1 JUMP JUMPDEST SWAP1 DUP1 DUP5 MSTORE DUP4 PUSH1 0x20 MSTORE PUSH2 0xEF PUSH1 0x1 PUSH1 0x40 DUP7 KECCAK256 ADD SLOAD PUSH2 0xA4C JUMP JUMPDEST PUSH2 0xAF0 JUMP JUMPDEST POP DUP1 RETURN JUMPDEST DUP1 REVERT JUMPDEST POP CALLVALUE PUSH2 0xF8 JUMPI DUP1 PUSH1 0x3 NOT CALLDATASIZE ADD SLT PUSH2 0xF8 JUMPI PUSH1 0x20 SWAP1 PUSH1 0x40 MLOAD SWAP1 DUP2 MSTORE RETURN JUMPDEST POP CALLVALUE PUSH2 0xF8 JUMPI PUSH1 0xFF PUSH1 0x40 PUSH1 0x20 SWAP3 PUSH2 0x12D CALLDATASIZE PUSH2 0x8B1 JUMP JUMPDEST SWAP1 DUP3 MSTORE DUP2 DUP6 MSTORE DUP3 DUP3 KECCAK256 PUSH1 0x1 PUSH1 0x1 PUSH1 0xA0 SHL SUB SWAP1 SWAP2 AND DUP3 MSTORE DUP5 MSTORE KECCAK256 SLOAD PUSH1 0x40 MLOAD SWAP2 AND ISZERO ISZERO DUP2 MSTORE RETURN JUMPDEST POP CALLVALUE PUSH2 0xF8 JUMPI PUSH1 0x20 CALLDATASIZE PUSH1 0x3 NOT ADD SLT PUSH2 0xF8 JUMPI PUSH1 0x4 CALLDATALOAD PUSH4 0xFFFFFFFF PUSH1 0xE0 SHL DUP2 AND DUP1 SWAP2 SUB PUSH2 0x202 JUMPI DUP2 PUSH1 0x40 SWAP2 PUSH1 0x80 SWAP4 PUSH1 0x60 PUSH2 0x189 PUSH2 0x912 JUMP JUMPDEST DUP3 DUP2 MSTORE DUP3 PUSH1 0x20 DUP3 ADD MSTORE DUP3 DUP7 DUP3 ADD MSTORE ADD MSTORE DUP2 MSTORE PUSH1 0x1 PUSH1 0x20 MSTORE KECCAK256 PUSH1 0x60 PUSH2 0x1AB PUSH2 0x912 JUMP JUMPDEST SWAP2 SLOAD PUSH1 0xFF PUSH1 0x1 PUSH1 0x1 PUSH1 0x40 SHL SUB DUP3 AND SWAP4 DUP5 DUP2 MSTORE DUP2 PUSH1 0x20 DUP3 ADD DUP2 DUP6 PUSH1 0x40 SHR AND DUP2 MSTORE PUSH1 0x40 DUP4 ADD SWAP3 DUP3 DUP7 PUSH1 0x48 SHR AND DUP5 MSTORE PUSH2 0xFFFF SWAP7 DUP8 SWAP2 ADD SWAP6 PUSH1 0x50 SHR AND DUP6 MSTORE PUSH1 0x40 MLOAD SWAP7 DUP8 MSTORE MLOAD AND PUSH1 0x20 DUP7 ADD MSTORE MLOAD AND PUSH1 0x40 DUP5 ADD MSTORE MLOAD AND PUSH1 0x60 DUP3 ADD MSTORE RETURN JUMPDEST POP DUP1 REVERT JUMPDEST POP CALLVALUE PUSH2 0xF8 JUMPI PUSH1 0x20 CALLDATASIZE PUSH1 0x3 NOT ADD SLT PUSH2 0xF8 JUMPI PUSH1 0x4 CALLDATALOAD PUSH2 0x223 PUSH2 0x9D2 JUMP JUMPDEST DUP1 PUSH1 0x2 SSTORE PUSH32 0xECB6E184C8C1FF50AB199B30650A76B7EB56FE2F261BECC6284E0A3A1707BE48 PUSH1 0x20 PUSH1 0x40 MLOAD TIMESTAMP DUP2 MSTORE LOG2 DUP1 RETURN JUMPDEST POP CALLVALUE PUSH2 0xF8 JUMPI PUSH1 0x20 CALLDATASIZE PUSH1 0x3 NOT ADD SLT PUSH2 0xF8 JUMPI PUSH1 0x4 CALLDATALOAD PUSH4 0xFFFFFFFF PUSH1 0xE0 SHL DUP2 AND DUP1 SWAP2 SUB PUSH2 0x202 JUMPI DUP2 PUSH1 0x40 SWAP2 PUSH1 0x80 SWAP4 MSTORE PUSH1 0x1 PUSH1 0x20 MSTORE KECCAK256 SLOAD PUSH2 0xFFFF PUSH1 0x40 MLOAD SWAP2 PUSH1 0x1 PUSH1 0x1 PUSH1 0x40 SHL SUB DUP2 AND DUP4 MSTORE PUSH1 0xFF DUP2 PUSH1 0x40 SHR AND PUSH1 0x20 DUP5 ADD MSTORE PUSH1 0xFF DUP2 PUSH1 0x48 SHR AND PUSH1 0x40 DUP5 ADD MSTORE PUSH1 0x50 SHR AND PUSH1 0x60 DUP3 ADD MSTORE RETURN JUMPDEST POP CALLVALUE PUSH2 0xF8 JUMPI PUSH2 0x2CE CALLDATASIZE PUSH2 0x8B1 JUMP JUMPDEST CALLER PUSH1 0x1 PUSH1 0x1 PUSH1 0xA0 SHL SUB DUP3 AND SUB PUSH2 0x2E7 JUMPI PUSH2 0xF4 SWAP2 PUSH2 0xAF0 JUMP JUMPDEST PUSH1 0x40 MLOAD PUSH4 0x334BD919 PUSH1 0xE1 SHL DUP2 MSTORE PUSH1 0x4 SWAP1 REVERT JUMPDEST POP CALLVALUE PUSH2 0xF8 JUMPI PUSH1 0xA0 CALLDATASIZE PUSH1 0x3 NOT ADD SLT PUSH2 0xF8 JUMPI PUSH1 0x4 CALLDATALOAD PUSH1 0x1 PUSH1 0x1 PUSH1 0x40 SHL SUB DUP2 GT PUSH2 0x202 JUMPI PUSH2 0x32A SWAP1 CALLDATASIZE SWAP1 PUSH1 0x4 ADD PUSH2 0x87C JUMP JUMPDEST SWAP1 PUSH1 0x24 CALLDATALOAD PUSH1 0x1 PUSH1 0x1 PUSH1 0x40 SHL SUB DUP2 GT PUSH2 0x61D JUMPI PUSH2 0x34A SWAP1 CALLDATASIZE SWAP1 PUSH1 0x4 ADD PUSH2 0x87C JUMP JUMPDEST SWAP1 SWAP3 PUSH1 0x44 CALLDATALOAD PUSH1 0x1 PUSH1 0x1 PUSH1 0x40 SHL SUB DUP2 GT PUSH2 0x619 JUMPI PUSH2 0x36B SWAP1 CALLDATASIZE SWAP1 PUSH1 0x4 ADD PUSH2 0x87C JUMP JUMPDEST SWAP1 PUSH1 0x64 CALLDATALOAD PUSH1 0x1 PUSH1 0x1 PUSH1 0x40 SHL SUB DUP2 GT PUSH2 0x615 JUMPI PUSH2 0x38B SWAP1 CALLDATASIZE SWAP1 PUSH1 0x4 ADD PUSH2 0x87C JUMP JUMPDEST SWAP4 SWAP1 SWAP5 PUSH1 0x84 CALLDATALOAD SWAP2 PUSH1 0x1 PUSH1 0x1 PUSH1 0x40 SHL SUB DUP4 AND DUP4 SUB PUSH2 0x611 JUMPI PUSH2 0x3AA PUSH2 0x9D2 JUMP JUMPDEST DUP2 DUP2 EQ DUP1 PUSH2 0x608 JUMPI JUMPDEST DUP1 PUSH2 0x5FF JUMPI JUMPDEST ISZERO PUSH2 0x5C8 JUMPI DUP10 JUMPDEST DUP2 DUP2 LT PUSH2 0x3CB JUMPI DUP11 DUP1 RETURN JUMPDEST DUP1 PUSH2 0x3F5 PUSH2 0x3F0 DUP3 DUP7 PUSH2 0x3EA DUP16 SWAP7 DUP16 SWAP1 DUP10 PUSH2 0x3E5 SWAP3 PUSH2 0x8D7 JUMP JUMPDEST PUSH2 0x8FD JUMP JUMPDEST SWAP6 PUSH2 0x8D7 JUMP JUMPDEST PUSH2 0x9C4 JUMP JUMPDEST PUSH1 0xFF DUP2 AND ISZERO PUSH2 0x585 JUMPI PUSH1 0x1 PUSH1 0x1 PUSH1 0xE0 SHL SUB NOT DUP4 AND DUP14 MSTORE PUSH1 0x1 PUSH1 0x20 MSTORE PUSH1 0x40 DUP14 KECCAK256 DUP1 SLOAD SWAP4 SWAP1 TIMESTAMP PUSH1 0x1 PUSH1 0x1 PUSH1 0x40 SHL SUB DUP7 AND GT DUP1 PUSH2 0x574 JUMPI JUMPDEST ISZERO PUSH2 0x536 JUMPI PUSH1 0x1 PUSH1 0x1 PUSH1 0x40 SHL SUB PUSH3 0x93A80 DUP2 DUP8 AND ADD GT PUSH2 0x522 JUMPI DUP12 SWAP2 DUP10 SWAP2 PUSH2 0x47E DUP7 DUP15 PUSH1 0xFF PUSH1 0x48 SHL DUP16 PUSH2 0x3F0 DUP5 PUSH2 0x474 SWAP3 PUSH1 0x1 PUSH1 0x1 PUSH1 0x40 SHL SUB DUP16 DUP2 PUSH3 0x93A80 SWAP2 AND ADD JUMPDEST AND SWAP11 PUSH2 0x8D7 JUMP JUMPDEST PUSH1 0x48 SHL AND SWAP7 PUSH2 0x8D7 JUMP JUMPDEST CALLDATALOAD SWAP3 PUSH2 0xFFFF DUP5 AND DUP5 SUB PUSH2 0x51C JUMPI PUSH2 0x4F6 PUSH2 0x3F0 DUP9 DUP16 DUP16 PUSH1 0xFF SWAP7 PUSH1 0x1 SWAP14 PUSH32 0xBF9C82A2E49583EA8990E5994F020F8FF61F2A9A5AE067D4DF0D0FE8D76B7863 SWAP12 DUP14 PUSH9 0xFF0000000000000000 DUP11 PUSH1 0x60 SWAP15 PUSH2 0xFFFF PUSH1 0x50 SHL SWAP1 PUSH1 0x50 SHL AND SWAP5 PUSH12 0xFFFFFFFFFFFFFFFFFFFFFFFF NOT AND OR SWAP2 PUSH1 0x40 SHL AND OR OR OR SWAP1 SSTORE PUSH2 0x8D7 JUMP JUMPDEST SWAP1 DUP3 PUSH1 0x40 MLOAD SWAP8 AND DUP8 MSTORE PUSH1 0x20 DUP8 ADD MSTORE AND PUSH1 0x40 DUP6 ADD MSTORE PUSH4 0xFFFFFFFF PUSH1 0xE0 SHL AND SWAP3 LOG2 JUMPDEST ADD PUSH2 0x3C0 JUMP JUMPDEST POP POP DUP16 DUP1 REVERT JUMPDEST PUSH4 0x4E487B71 PUSH1 0xE0 SHL DUP16 MSTORE PUSH1 0x11 PUSH1 0x4 MSTORE PUSH1 0x24 DUP16 REVERT JUMPDEST PUSH1 0x1 PUSH1 0x1 PUSH1 0x40 SHL SUB DUP9 AND TIMESTAMP ADD TIMESTAMP GT PUSH2 0x522 JUMPI DUP12 SWAP2 DUP10 SWAP2 PUSH2 0x47E DUP7 DUP15 PUSH1 0xFF PUSH1 0x48 SHL DUP16 PUSH2 0x3F0 DUP16 PUSH2 0x474 SWAP3 PUSH1 0x1 PUSH1 0x1 PUSH1 0x40 SHL SUB DUP1 DUP1 DUP10 SWAP5 AND TIMESTAMP ADD AND PUSH2 0x46D JUMP JUMPDEST POP PUSH1 0x3 PUSH1 0xFF DUP7 PUSH1 0x40 SHR AND LT ISZERO PUSH2 0x42A JUMP JUMPDEST POP PUSH1 0x1 SWAP2 PUSH4 0xFFFFFFFF PUSH1 0xE0 SHL AND DUP1 DUP14 MSTORE DUP3 PUSH1 0x20 MSTORE DUP13 PUSH1 0x40 DUP2 KECCAK256 SSTORE PUSH32 0x75FFE9FE5FBB1F7406F31F5657E09F354BA90E288DF44302B3E7FC1397B6F388 DUP14 DUP1 LOG2 PUSH2 0x516 JUMP JUMPDEST PUSH1 0x40 MLOAD PUSH3 0x461BCD PUSH1 0xE5 SHL DUP2 MSTORE PUSH1 0x20 PUSH1 0x4 DUP3 ADD MSTORE PUSH1 0xF PUSH1 0x24 DUP3 ADD MSTORE PUSH15 0x98CADCCEE8D040DAD2E6DAC2E8C6D PUSH1 0x8B SHL PUSH1 0x44 DUP3 ADD MSTORE PUSH1 0x64 SWAP1 REVERT JUMPDEST POP DUP6 DUP2 EQ PUSH2 0x3B9 JUMP JUMPDEST POP DUP5 DUP2 EQ PUSH2 0x3B3 JUMP JUMPDEST DUP10 DUP1 REVERT JUMPDEST DUP8 DUP1 REVERT JUMPDEST DUP6 DUP1 REVERT JUMPDEST DUP4 DUP1 REVERT JUMPDEST POP CALLVALUE PUSH2 0xF8 JUMPI PUSH1 0x20 CALLDATASIZE PUSH1 0x3 NOT ADD SLT PUSH2 0xF8 JUMPI PUSH1 0x4 CALLDATALOAD SWAP1 PUSH1 0x1 PUSH1 0x1 PUSH1 0xE0 SHL SUB NOT DUP3 AND DUP3 SUB PUSH2 0xF8 JUMPI PUSH1 0x60 PUSH1 0xFF PUSH1 0x1 PUSH1 0x1 PUSH1 0x40 SHL SUB PUSH2 0x65D DUP6 PUSH2 0x947 JUMP JUMPDEST SWAP2 SWAP4 SWAP1 PUSH1 0x40 MLOAD SWAP5 ISZERO ISZERO DUP6 MSTORE AND PUSH1 0x20 DUP5 ADD MSTORE AND PUSH1 0x40 DUP3 ADD MSTORE RETURN JUMPDEST POP CALLVALUE PUSH2 0xF8 JUMPI PUSH2 0xF4 PUSH2 0x688 CALLDATASIZE PUSH2 0x8B1 JUMP JUMPDEST SWAP1 DUP1 DUP5 MSTORE DUP4 PUSH1 0x20 MSTORE PUSH2 0x6A0 PUSH1 0x1 PUSH1 0x40 DUP7 KECCAK256 ADD SLOAD PUSH2 0xA4C JUMP JUMPDEST PUSH2 0xA72 JUMP JUMPDEST POP CALLVALUE PUSH2 0xF8 JUMPI PUSH1 0x20 DUP1 PUSH1 0x3 NOT CALLDATASIZE ADD SLT PUSH2 0x202 JUMPI PUSH1 0x1 PUSH1 0x1 PUSH1 0x40 SHL SUB PUSH1 0x4 CALLDATALOAD DUP2 DUP2 GT PUSH2 0x61D JUMPI PUSH2 0x6D8 SWAP1 CALLDATASIZE SWAP1 PUSH1 0x4 ADD PUSH2 0x87C JUMP JUMPDEST SWAP1 SWAP2 DUP5 JUMPDEST DUP3 DUP2 LT PUSH2 0x6E7 JUMPI DUP6 DUP1 RETURN JUMPDEST PUSH1 0x1 SWAP1 PUSH1 0x1 PUSH1 0x1 PUSH1 0xE0 SHL SUB NOT DUP1 PUSH2 0x702 PUSH2 0x3E5 DUP5 DUP9 DUP11 PUSH2 0x8D7 JUMP JUMPDEST AND DUP9 MSTORE DUP3 DUP1 DUP9 MSTORE TIMESTAMP DUP6 PUSH1 0x40 DUP12 KECCAK256 SLOAD AND GT ISZERO DUP1 PUSH2 0x77A JUMPI JUMPDEST PUSH2 0x726 JUMPI JUMPDEST POP POP ADD PUSH2 0x6DC JUMP JUMPDEST DUP2 PUSH2 0x735 PUSH2 0x3E5 DUP6 DUP10 DUP12 PUSH2 0x8D7 JUMP JUMPDEST AND DUP10 MSTORE DUP8 MSTORE DUP8 PUSH1 0x40 DUP2 KECCAK256 SSTORE PUSH2 0x74E PUSH2 0x3E5 DUP4 DUP8 DUP10 PUSH2 0x8D7 JUMP JUMPDEST AND PUSH32 0x75FFE9FE5FBB1F7406F31F5657E09F354BA90E288DF44302B3E7FC1397B6F388 DUP9 DUP1 LOG2 CODESIZE DUP1 PUSH2 0x71E JUMP JUMPDEST POP DUP2 PUSH2 0x78A PUSH2 0x3E5 DUP6 DUP10 DUP12 PUSH2 0x8D7 JUMP JUMPDEST AND DUP10 MSTORE DUP1 DUP9 MSTORE DUP5 PUSH1 0x40 DUP11 KECCAK256 SLOAD AND ISZERO ISZERO PUSH2 0x719 JUMP JUMPDEST POP CALLVALUE PUSH2 0xF8 JUMPI DUP1 PUSH1 0x3 NOT CALLDATASIZE ADD SLT PUSH2 0xF8 JUMPI PUSH1 0x20 PUSH1 0x2 SLOAD PUSH1 0x40 MLOAD SWAP1 DUP2 MSTORE RETURN JUMPDEST POP CALLVALUE PUSH2 0xF8 JUMPI PUSH1 0x20 CALLDATASIZE PUSH1 0x3 NOT ADD SLT PUSH2 0xF8 JUMPI PUSH1 0x1 PUSH1 0x40 PUSH1 0x20 SWAP3 PUSH1 0x4 CALLDATALOAD DUP2 MSTORE DUP1 DUP5 MSTORE KECCAK256 ADD SLOAD PUSH1 0x40 MLOAD SWAP1 DUP2 MSTORE RETURN JUMPDEST POP CALLVALUE PUSH2 0xF8 JUMPI DUP1 PUSH1 0x3 NOT CALLDATASIZE ADD SLT PUSH2 0xF8 JUMPI PUSH1 0x20 PUSH1 0x40 MLOAD PUSH32 0x68E79A7BF1E0BC45D0A330C573BC367F9CF464FD326078812F301165FBDA4EF1 DUP2 MSTORE RETURN JUMPDEST SWAP1 POP CALLVALUE PUSH2 0x202 JUMPI PUSH1 0x20 CALLDATASIZE PUSH1 0x3 NOT ADD SLT PUSH2 0x202 JUMPI PUSH1 0x4 CALLDATALOAD PUSH4 0xFFFFFFFF PUSH1 0xE0 SHL DUP2 AND DUP1 SWAP2 SUB PUSH2 0x878 JUMPI PUSH1 0x20 SWAP3 POP PUSH4 0x7965DB0B PUSH1 0xE0 SHL DUP2 EQ SWAP1 DUP2 ISZERO PUSH2 0x867 JUMPI JUMPDEST POP ISZERO ISZERO DUP2 MSTORE RETURN JUMPDEST PUSH4 0x1FFC9A7 PUSH1 0xE0 SHL EQ SWAP1 POP CODESIZE PUSH2 0x860 JUMP JUMPDEST DUP3 DUP1 REVERT JUMPDEST SWAP2 DUP2 PUSH1 0x1F DUP5 ADD SLT ISZERO PUSH2 0x8AC JUMPI DUP3 CALLDATALOAD SWAP2 PUSH1 0x1 PUSH1 0x1 PUSH1 0x40 SHL SUB DUP4 GT PUSH2 0x8AC JUMPI PUSH1 0x20 DUP1 DUP6 ADD SWAP5 DUP5 PUSH1 0x5 SHL ADD ADD GT PUSH2 0x8AC JUMPI JUMP JUMPDEST PUSH1 0x0 DUP1 REVERT JUMPDEST PUSH1 0x40 SWAP1 PUSH1 0x3 NOT ADD SLT PUSH2 0x8AC JUMPI PUSH1 0x4 CALLDATALOAD SWAP1 PUSH1 0x24 CALLDATALOAD PUSH1 0x1 PUSH1 0x1 PUSH1 0xA0 SHL SUB DUP2 AND DUP2 SUB PUSH2 0x8AC JUMPI SWAP1 JUMP JUMPDEST SWAP2 SWAP1 DUP2 LT ISZERO PUSH2 0x8E7 JUMPI PUSH1 0x5 SHL ADD SWAP1 JUMP JUMPDEST PUSH4 0x4E487B71 PUSH1 0xE0 SHL PUSH1 0x0 MSTORE PUSH1 0x32 PUSH1 0x4 MSTORE PUSH1 0x24 PUSH1 0x0 REVERT JUMPDEST CALLDATALOAD PUSH1 0x1 PUSH1 0x1 PUSH1 0xE0 SHL SUB NOT DUP2 AND DUP2 SUB PUSH2 0x8AC JUMPI SWAP1 JUMP JUMPDEST PUSH1 0x40 MLOAD SWAP1 PUSH1 0x80 DUP3 ADD DUP3 DUP2 LT PUSH1 0x1 PUSH1 0x1 PUSH1 0x40 SHL SUB DUP3 GT OR PUSH2 0x931 JUMPI PUSH1 0x40 MSTORE JUMP JUMPDEST PUSH4 0x4E487B71 PUSH1 0xE0 SHL PUSH1 0x0 MSTORE PUSH1 0x41 PUSH1 0x4 MSTORE PUSH1 0x24 PUSH1 0x0 REVERT JUMPDEST PUSH4 0xFFFFFFFF PUSH1 0xE0 SHL AND PUSH1 0x0 MSTORE PUSH1 0x1 PUSH1 0x20 MSTORE PUSH1 0x40 PUSH1 0x0 KECCAK256 PUSH2 0x965 PUSH2 0x912 JUMP JUMPDEST SWAP1 SLOAD SWAP1 PUSH1 0x1 PUSH1 0x1 PUSH1 0x40 SHL SUB DUP3 AND SWAP1 DUP2 DUP2 MSTORE PUSH1 0x60 PUSH2 0xFFFF PUSH1 0xFF DUP6 PUSH1 0x40 SHR AND SWAP5 DUP6 PUSH1 0x20 DUP6 ADD MSTORE PUSH1 0xFF DUP2 PUSH1 0x48 SHR AND PUSH1 0x40 DUP6 ADD MSTORE PUSH1 0x50 SHR AND SWAP2 ADD MSTORE TIMESTAMP DUP2 GT DUP1 PUSH2 0x9BB JUMPI JUMPDEST PUSH2 0x9B6 JUMPI POP POP PUSH1 0x0 SWAP1 PUSH1 0x0 SWAP1 PUSH1 0x0 SWAP1 JUMP JUMPDEST PUSH1 0x1 SWAP3 JUMP JUMPDEST POP DUP2 ISZERO ISZERO PUSH2 0x9A5 JUMP JUMPDEST CALLDATALOAD PUSH1 0xFF DUP2 AND DUP2 SUB PUSH2 0x8AC JUMPI SWAP1 JUMP JUMPDEST CALLER PUSH1 0x0 SWAP1 DUP2 MSTORE PUSH32 0xA629F6981C2F6895A67DC766E8E03FF72D04A413D0D8773A3CA56E9E474032C1 PUSH1 0x20 MSTORE PUSH1 0x40 SWAP1 KECCAK256 SLOAD PUSH32 0x68E79A7BF1E0BC45D0A330C573BC367F9CF464FD326078812F301165FBDA4EF1 SWAP1 PUSH1 0xFF AND ISZERO PUSH2 0xA2E JUMPI POP JUMP JUMPDEST PUSH1 0x44 SWAP1 PUSH1 0x40 MLOAD SWAP1 PUSH4 0xE2517D3F PUSH1 0xE0 SHL DUP3 MSTORE CALLER PUSH1 0x4 DUP4 ADD MSTORE PUSH1 0x24 DUP3 ADD MSTORE REVERT JUMPDEST DUP1 PUSH1 0x0 MSTORE PUSH1 0x0 PUSH1 0x20 MSTORE PUSH1 0x40 PUSH1 0x0 KECCAK256 CALLER PUSH1 0x0 MSTORE PUSH1 0x20 MSTORE PUSH1 0xFF PUSH1 0x40 PUSH1 0x0 KECCAK256 SLOAD AND ISZERO PUSH2 0xA2E JUMPI POP JUMP JUMPDEST SWAP1 PUSH1 0x0 SWAP2 DUP1 DUP4 MSTORE DUP3 PUSH1 0x20 MSTORE PUSH1 0x40 DUP4 KECCAK256 SWAP2 PUSH1 0x1 DUP1 PUSH1 0xA0 SHL SUB AND SWAP2 DUP3 DUP5 MSTORE PUSH1 0x20 MSTORE PUSH1 0xFF PUSH1 0x40 DUP5 KECCAK256 SLOAD AND ISZERO PUSH1 0x0 EQ PUSH2 0xAEB JUMPI DUP1 DUP4 MSTORE DUP3 PUSH1 0x20 MSTORE PUSH1 0x40 DUP4 KECCAK256 DUP3 DUP5 MSTORE PUSH1 0x20 MSTORE PUSH1 0x40 DUP4 KECCAK256 PUSH1 0x1 PUSH1 0xFF NOT DUP3 SLOAD AND OR SWAP1 SSTORE PUSH32 0x2F8788117E7EFF1D82E926EC794901D17C78024A50270940304540A733656F0D CALLER SWAP4 DUP1 LOG4 PUSH1 0x1 SWAP1 JUMP JUMPDEST POP POP SWAP1 JUMP JUMPDEST SWAP1 PUSH1 0x0 SWAP2 DUP1 DUP4 MSTORE DUP3 PUSH1 0x20 MSTORE PUSH1 0x40 DUP4 KECCAK256 SWAP2 PUSH1 0x1 DUP1 PUSH1 0xA0 SHL SUB AND SWAP2 DUP3 DUP5 MSTORE PUSH1 0x20 MSTORE PUSH1 0xFF PUSH1 0x40 DUP5 KECCAK256 SLOAD AND PUSH1 0x0 EQ PUSH2 0xAEB JUMPI DUP1 DUP4 MSTORE DUP3 PUSH1 0x20 MSTORE PUSH1 0x40 DUP4 KECCAK256 DUP3 DUP5 MSTORE PUSH1 0x20 MSTORE PUSH1 0x40 DUP4 KECCAK256 PUSH1 0xFF NOT DUP2 SLOAD AND SWAP1 SSTORE PUSH32 0xF6391F5C32D9C69D2A47EA670B442974B53935D1EDC7FD64EB21E047A839171B CALLER SWAP4 DUP1 LOG4 PUSH1 0x1 SWAP1 JUMP INVALID LOG1 PUSH5 0x736F6C6343 STOP ADDMOD XOR STOP EXP 0x2F DUP8 DUP9 GT PUSH31 0x7EFF1D82E926EC794901D17C78024A50270940304540A733656F0D00000000 "},"methodIdentifiers":{"DEFAULT_ADMIN_ROLE()":"a217fddf","ORACLE_ROLE()":"07e2cea5","getRoleAdmin(bytes32)":"248a9ca3","getThreat(bytes4)":"5a92e589","grantRole(bytes32,address)":"2f2ff15d","hasRole(bytes32,address)":"91d14854","isThreat(bytes4)":"31cf4309","merkleRoot()":"2eb4a7ab","pruneExpired(bytes4[])":"2f2ef1a1","renounceRole(bytes32,address)":"36568abe","revokeRole(bytes32,address)":"d547741f","supportsInterface(bytes4)":"01ffc9a7","threats(bytes4)":"41e6d71d","updateMerkleRoot(bytes32)":"4783f0ef","updateThreatBatch(bytes4[],uint8[],uint8[],uint16[],uint64)":"359d577a"}}}}}