{"contracts/core/GasSubsidy.sol":{"GasSubsidy":{"abi":[{"inputs":[{"internalType":"address","name":"_initialOwner","type":"address"},{"internalType":"address","name":"_relayer","type":"address"}],"stateMutability":"nonpayable","type":"constructor"},{"inputs":[{"internalType":"address","name":"owner","type":"address"}],"name":"OwnableInvalidOwner","type":"error"},{"inputs":[{"internalType":"address","name":"account","type":"address"}],"name":"OwnableUnauthorizedAccount","type":"error"},{"inputs":[],"name":"ReentrancyGuardReentrantCall","type":"error"},{"anonymous":false,"inputs":[{"indexed":true,"internalType":"address","name":"user","type":"address"},{"indexed":false,"internalType":"uint256","name":"amount","type":"uint256"}],"name":"GasSubsidized","type":"event"},{"anonymous":false,"inputs":[{"indexed":true,"internalType":"address","name":"previousOwner","type":"address"},{"indexed":true,"internalType":"address","name":"newOwner","type":"address"}],"name":"OwnershipTransferred","type":"event"},{"anonymous":false,"inputs":[{"indexed":true,"internalType":"address","name":"newRelayer","type":"address"}],"name":"RelayerUpdated","type":"event"},{"anonymous":false,"inputs":[{"indexed":false,"internalType":"uint256","name":"newAmount","type":"uint256"}],"name":"SubsidyAmountUpdated","type":"event"},{"inputs":[{"internalType":"address[]","name":"_users","type":"address[]"}],"name":"batchSubsidize","outputs":[],"stateMutability":"nonpayable","type":"function"},{"inputs":[{"internalType":"uint256","name":"amount","type":"uint256"}],"name":"emergencyWithdraw","outputs":[],"stateMutability":"nonpayable","type":"function"},{"inputs":[{"internalType":"address","name":"","type":"address"}],"name":"hasClaimed","outputs":[{"internalType":"bool","name":"","type":"bool"}],"stateMutability":"view","type":"function"},{"inputs":[],"name":"owner","outputs":[{"internalType":"address","name":"","type":"address"}],"stateMutability":"view","type":"function"},{"inputs":[],"name":"relayerAddress","outputs":[{"internalType":"address","name":"","type":"address"}],"stateMutability":"view","type":"function"},{"inputs":[],"name":"renounceOwnership","outputs":[],"stateMutability":"nonpayable","type":"function"},{"inputs":[{"internalType":"address","name":"_newRelayer","type":"address"}],"name":"setRelayer","outputs":[],"stateMutability":"nonpayable","type":"function"},{"inputs":[{"internalType":"uint256","name":"_amount","type":"uint256"}],"name":"setSubsidyAmount","outputs":[],"stateMutability":"nonpayable","type":"function"},{"inputs":[{"internalType":"address","name":"_user","type":"address"}],"name":"subsidize","outputs":[],"stateMutability":"nonpayable","type":"function"},{"inputs":[],"name":"subsidyAmount","outputs":[{"internalType":"uint256","name":"","type":"uint256"}],"stateMutability":"view","type":"function"},{"inputs":[{"internalType":"address","name":"newOwner","type":"address"}],"name":"transferOwnership","outputs":[],"stateMutability":"nonpayable","type":"function"},{"stateMutability":"payable","type":"receive"}],"evm":{"bytecode":{"linkReferences":{},"object":"6080346100e457601f6108da38819003918201601f19168301916001600160401b038311848410176100e95780849260409485528339810103126100e457610052602061004b836100ff565b92016100ff565b906001600160a01b039081169081156100cb576000549260018060a01b03199280848616176000558260405195167f8be0079c531659141344cd1fd0a4f28419497f9722a3daafe3b4186f6b6457e0600080a360018055670de0b6b3a7640000600255169060045416176004556107c690816101148239f35b604051631e4fbdf760e01b815260006004820152602490fd5b600080fd5b634e487b7160e01b600052604160045260246000fd5b51906001600160a01b03821682036100e45756fe6080604081815260049081361015610022575b505050361561002057600080fd5b005b600092833560e01c908163113bbf26146106515750806318a7cca814610629578063310b2169146104ba578381635312ea8e14610469575080636548e9bc146104025780636869fa74146103b4578063715018a61461035757806373b2e80e146103185780638da5cb5b146102ec578063ba142acb146101365763f2fde38b036100125734610132576020366003190112610132576001600160a01b0382358181169391929084900361012e576100d761078d565b831561011857505082546001600160a01b0319811683178455167f8be0079c531659141344cd1fd0a4f28419497f9722a3daafe3b4186f6b6457e08380a380f35b51631e4fbdf760e01b8152908101849052602490fd5b8480fd5b8280fd5b503461013257602090816003193601126102e85782356001600160a01b0381811694908583036102e4576002600154146102d5576101879060026001558083541633149081156102c8575b5061066d565b8415610293578486526003845260ff838720541661025057476002541161020d5750906101fd858080807f25b5ceb41a95556203ee76d73889d894ac2e2719bd7ec73d82c99f9c1073e4a1979689825260038852868220600160ff19825416179055600254905af16101f76106e9565b5061074a565b6002549051908152a26001805580f35b825162461bcd60e51b8152908101849052601a60248201527f496e73756666696369656e7420737562736964792066756e64730000000000006044820152606490fd5b825162461bcd60e51b8152908101849052601c60248201527f5573657220616c726561647920636c61696d65642073756273696479000000006044820152606490fd5b825162461bcd60e51b8152908101849052600f60248201526e496e76616c6964206164647265737360881b6044820152606490fd5b9050875416331438610181565b508251633ee5aeb560e01b8152fd5b8680fd5b8380fd5b838234610314578160031936011261031457905490516001600160a01b039091168152602090f35b5080fd5b50903461013257602036600319011261013257356001600160a01b0381169081900361013257818360ff92602095526003855220541690519015158152f35b83346103b157806003193601126103b15761037061078d565b80546001600160a01b03198116825581906001600160a01b03167f8be0079c531659141344cd1fd0a4f28419497f9722a3daafe3b4186f6b6457e08280a380f35b80fd5b509034610132576020366003190112610132577ffc2eb6007fcc0e3dda55e5fe38e643552791303714618047c907faed6c2aff989160209135906103f661078d565b8160025551908152a180f35b5050346103145760203660031901126103145780356001600160a01b03811691908290036101325761043261078d565b80546001600160a01b031916821790557f09bf35b7806e61e7baf86e6547c4221f69d130ccc0a19215d064685a89464a708280a280f35b8281853461031457602036600319011261031457818080923561048a61078d565b81546001600160a01b03168282156104b1575bf1156104a7575080f35b51903d90823e3d90fd5b506108fc61049d565b50346101325760209160206003193601126102e85780359267ffffffffffffffff9182851161062557366023860112156106255784810135928311610625576024850194602436918560051b01011161062557546001600160a01b0390811633148015610619575b61052b9061066d565b855b838110610538578680f35b808261054f61054a600194888b6106aa565b6106d0565b16885287878585896003808452868b60ff8489205416158061060d575b61057f575b50505050505050500161052d565b866105f59461054a94876105b861054a87877f25b5ceb41a95556203ee76d73889d894ac2e2719bd7ec73d82c99f9c1073e4a19e6106aa565b168b5288528920805460ff19168c1790556105f0866105db61054a8686866106aa565b169980808060029d8e54905af16101f76106e9565b6106aa565b9354938a519485521692a2878785858938868b610571565b5047600254111561056c565b50855481163314610522565b8580fd5b5090346101325782600319360112610132575490516001600160a01b03909116815260209150f35b8490346103145781600319360112610314576020906002548152f35b1561067457565b60405162461bcd60e51b815260206004820152600e60248201526d139bdd08185d5d1a1bdc9a5e995960921b6044820152606490fd5b91908110156106ba5760051b0190565b634e487b7160e01b600052603260045260246000fd5b356001600160a01b03811681036106e45790565b600080fd5b3d156107455767ffffffffffffffff903d82811161072f5760405192601f8201601f19908116603f011684019081118482101761072f5760405282523d6000602084013e565b634e487b7160e01b600052604160045260246000fd5b606090565b1561075157565b60405162461bcd60e51b81526020600482015260146024820152732330b4b632b2103a379039b2b7321022ba3432b960611b6044820152606490fd5b6000546001600160a01b031633036107a157565b60405163118cdaa760e01b8152336004820152602490fdfea164736f6c6343000818000a","opcodes":"PUSH1 0x80 CALLVALUE PUSH2 0xE4 JUMPI PUSH1 0x1F PUSH2 0x8DA CODESIZE DUP2 SWAP1 SUB SWAP2 DUP3 ADD PUSH1 0x1F NOT AND DUP4 ADD SWAP2 PUSH1 0x1 PUSH1 0x1 PUSH1 0x40 SHL SUB DUP4 GT DUP5 DUP5 LT OR PUSH2 0xE9 JUMPI DUP1 DUP5 SWAP3 PUSH1 0x40 SWAP5 DUP6 MSTORE DUP4 CODECOPY DUP2 ADD SUB SLT PUSH2 0xE4 JUMPI PUSH2 0x52 PUSH1 0x20 PUSH2 0x4B DUP4 PUSH2 0xFF JUMP JUMPDEST SWAP3 ADD PUSH2 0xFF JUMP JUMPDEST SWAP1 PUSH1 0x1 PUSH1 0x1 PUSH1 0xA0 SHL SUB SWAP1 DUP2 AND SWAP1 DUP2 ISZERO PUSH2 0xCB JUMPI PUSH1 0x0 SLOAD SWAP3 PUSH1 0x1 DUP1 PUSH1 0xA0 SHL SUB NOT SWAP3 DUP1 DUP5 DUP7 AND OR PUSH1 0x0 SSTORE DUP3 PUSH1 0x40 MLOAD SWAP6 AND PUSH32 0x8BE0079C531659141344CD1FD0A4F28419497F9722A3DAAFE3B4186F6B6457E0 PUSH1 0x0 DUP1 LOG3 PUSH1 0x1 DUP1 SSTORE PUSH8 0xDE0B6B3A7640000 PUSH1 0x2 SSTORE AND SWAP1 PUSH1 0x4 SLOAD AND OR PUSH1 0x4 SSTORE PUSH2 0x7C6 SWAP1 DUP2 PUSH2 0x114 DUP3 CODECOPY RETURN JUMPDEST PUSH1 0x40 MLOAD PUSH4 0x1E4FBDF7 PUSH1 0xE0 SHL DUP2 MSTORE PUSH1 0x0 PUSH1 0x4 DUP3 ADD MSTORE PUSH1 0x24 SWAP1 REVERT JUMPDEST PUSH1 0x0 DUP1 REVERT JUMPDEST PUSH4 0x4E487B71 PUSH1 0xE0 SHL PUSH1 0x0 MSTORE PUSH1 0x41 PUSH1 0x4 MSTORE PUSH1 0x24 PUSH1 0x0 REVERT JUMPDEST MLOAD SWAP1 PUSH1 0x1 PUSH1 0x1 PUSH1 0xA0 SHL SUB DUP3 AND DUP3 SUB PUSH2 0xE4 JUMPI JUMP INVALID PUSH1 0x80 PUSH1 0x40 DUP2 DUP2 MSTORE PUSH1 0x4 SWAP1 DUP2 CALLDATASIZE LT ISZERO PUSH2 0x22 JUMPI JUMPDEST POP POP POP CALLDATASIZE ISZERO PUSH2 0x20 JUMPI PUSH1 0x0 DUP1 REVERT JUMPDEST STOP JUMPDEST PUSH1 0x0 SWAP3 DUP4 CALLDATALOAD PUSH1 0xE0 SHR SWAP1 DUP2 PUSH4 0x113BBF26 EQ PUSH2 0x651 JUMPI POP DUP1 PUSH4 0x18A7CCA8 EQ PUSH2 0x629 JUMPI DUP1 PUSH4 0x310B2169 EQ PUSH2 0x4BA JUMPI DUP4 DUP2 PUSH4 0x5312EA8E EQ PUSH2 0x469 JUMPI POP DUP1 PUSH4 0x6548E9BC EQ PUSH2 0x402 JUMPI DUP1 PUSH4 0x6869FA74 EQ PUSH2 0x3B4 JUMPI DUP1 PUSH4 0x715018A6 EQ PUSH2 0x357 JUMPI DUP1 PUSH4 0x73B2E80E EQ PUSH2 0x318 JUMPI DUP1 PUSH4 0x8DA5CB5B EQ PUSH2 0x2EC JUMPI DUP1 PUSH4 0xBA142ACB EQ PUSH2 0x136 JUMPI PUSH4 0xF2FDE38B SUB PUSH2 0x12 JUMPI CALLVALUE PUSH2 0x132 JUMPI PUSH1 0x20 CALLDATASIZE PUSH1 0x3 NOT ADD SLT PUSH2 0x132 JUMPI PUSH1 0x1 PUSH1 0x1 PUSH1 0xA0 SHL SUB DUP3 CALLDATALOAD DUP2 DUP2 AND SWAP4 SWAP2 SWAP3 SWAP1 DUP5 SWAP1 SUB PUSH2 0x12E JUMPI PUSH2 0xD7 PUSH2 0x78D JUMP JUMPDEST DUP4 ISZERO PUSH2 0x118 JUMPI POP POP DUP3 SLOAD PUSH1 0x1 PUSH1 0x1 PUSH1 0xA0 SHL SUB NOT DUP2 AND DUP4 OR DUP5 SSTORE AND PUSH32 0x8BE0079C531659141344CD1FD0A4F28419497F9722A3DAAFE3B4186F6B6457E0 DUP4 DUP1 LOG3 DUP1 RETURN JUMPDEST MLOAD PUSH4 0x1E4FBDF7 PUSH1 0xE0 SHL DUP2 MSTORE SWAP1 DUP2 ADD DUP5 SWAP1 MSTORE PUSH1 0x24 SWAP1 REVERT JUMPDEST DUP5 DUP1 REVERT JUMPDEST DUP3 DUP1 REVERT JUMPDEST POP CALLVALUE PUSH2 0x132 JUMPI PUSH1 0x20 SWAP1 DUP2 PUSH1 0x3 NOT CALLDATASIZE ADD SLT PUSH2 0x2E8 JUMPI DUP3 CALLDATALOAD PUSH1 0x1 PUSH1 0x1 PUSH1 0xA0 SHL SUB DUP2 DUP2 AND SWAP5 SWAP1 DUP6 DUP4 SUB PUSH2 0x2E4 JUMPI PUSH1 0x2 PUSH1 0x1 SLOAD EQ PUSH2 0x2D5 JUMPI PUSH2 0x187 SWAP1 PUSH1 0x2 PUSH1 0x1 SSTORE DUP1 DUP4 SLOAD AND CALLER EQ SWAP1 DUP2 ISZERO PUSH2 0x2C8 JUMPI JUMPDEST POP PUSH2 0x66D JUMP JUMPDEST DUP5 ISZERO PUSH2 0x293 JUMPI DUP5 DUP7 MSTORE PUSH1 0x3 DUP5 MSTORE PUSH1 0xFF DUP4 DUP8 KECCAK256 SLOAD AND PUSH2 0x250 JUMPI SELFBALANCE PUSH1 0x2 SLOAD GT PUSH2 0x20D JUMPI POP SWAP1 PUSH2 0x1FD DUP6 DUP1 DUP1 DUP1 PUSH32 0x25B5CEB41A95556203EE76D73889D894AC2E2719BD7EC73D82C99F9C1073E4A1 SWAP8 SWAP7 DUP10 DUP3 MSTORE PUSH1 0x3 DUP9 MSTORE DUP7 DUP3 KECCAK256 PUSH1 0x1 PUSH1 0xFF NOT DUP3 SLOAD AND OR SWAP1 SSTORE PUSH1 0x2 SLOAD SWAP1 GAS CALL PUSH2 0x1F7 PUSH2 0x6E9 JUMP JUMPDEST POP PUSH2 0x74A JUMP JUMPDEST PUSH1 0x2 SLOAD SWAP1 MLOAD SWAP1 DUP2 MSTORE LOG2 PUSH1 0x1 DUP1 SSTORE DUP1 RETURN JUMPDEST DUP3 MLOAD PUSH3 0x461BCD PUSH1 0xE5 SHL DUP2 MSTORE SWAP1 DUP2 ADD DUP5 SWAP1 MSTORE PUSH1 0x1A PUSH1 0x24 DUP3 ADD MSTORE PUSH32 0x496E73756666696369656E7420737562736964792066756E6473000000000000 PUSH1 0x44 DUP3 ADD MSTORE PUSH1 0x64 SWAP1 REVERT JUMPDEST DUP3 MLOAD PUSH3 0x461BCD PUSH1 0xE5 SHL DUP2 MSTORE SWAP1 DUP2 ADD DUP5 SWAP1 MSTORE PUSH1 0x1C PUSH1 0x24 DUP3 ADD MSTORE PUSH32 0x5573657220616C726561647920636C61696D6564207375627369647900000000 PUSH1 0x44 DUP3 ADD MSTORE PUSH1 0x64 SWAP1 REVERT JUMPDEST DUP3 MLOAD PUSH3 0x461BCD PUSH1 0xE5 SHL DUP2 MSTORE SWAP1 DUP2 ADD DUP5 SWAP1 MSTORE PUSH1 0xF PUSH1 0x24 DUP3 ADD MSTORE PUSH15 0x496E76616C69642061646472657373 PUSH1 0x88 SHL PUSH1 0x44 DUP3 ADD MSTORE PUSH1 0x64 SWAP1 REVERT JUMPDEST SWAP1 POP DUP8 SLOAD AND CALLER EQ CODESIZE PUSH2 0x181 JUMP JUMPDEST POP DUP3 MLOAD PUSH4 0x3EE5AEB5 PUSH1 0xE0 SHL DUP2 MSTORE REVERT JUMPDEST DUP7 DUP1 REVERT JUMPDEST DUP4 DUP1 REVERT JUMPDEST DUP4 DUP3 CALLVALUE PUSH2 0x314 JUMPI DUP2 PUSH1 0x3 NOT CALLDATASIZE ADD SLT PUSH2 0x314 JUMPI SWAP1 SLOAD SWAP1 MLOAD PUSH1 0x1 PUSH1 0x1 PUSH1 0xA0 SHL SUB SWAP1 SWAP2 AND DUP2 MSTORE PUSH1 0x20 SWAP1 RETURN JUMPDEST POP DUP1 REVERT JUMPDEST POP SWAP1 CALLVALUE PUSH2 0x132 JUMPI PUSH1 0x20 CALLDATASIZE PUSH1 0x3 NOT ADD SLT PUSH2 0x132 JUMPI CALLDATALOAD PUSH1 0x1 PUSH1 0x1 PUSH1 0xA0 SHL SUB DUP2 AND SWAP1 DUP2 SWAP1 SUB PUSH2 0x132 JUMPI DUP2 DUP4 PUSH1 0xFF SWAP3 PUSH1 0x20 SWAP6 MSTORE PUSH1 0x3 DUP6 MSTORE KECCAK256 SLOAD AND SWAP1 MLOAD SWAP1 ISZERO ISZERO DUP2 MSTORE RETURN JUMPDEST DUP4 CALLVALUE PUSH2 0x3B1 JUMPI DUP1 PUSH1 0x3 NOT CALLDATASIZE ADD SLT PUSH2 0x3B1 JUMPI PUSH2 0x370 PUSH2 0x78D JUMP JUMPDEST DUP1 SLOAD PUSH1 0x1 PUSH1 0x1 PUSH1 0xA0 SHL SUB NOT DUP2 AND DUP3 SSTORE DUP2 SWAP1 PUSH1 0x1 PUSH1 0x1 PUSH1 0xA0 SHL SUB AND PUSH32 0x8BE0079C531659141344CD1FD0A4F28419497F9722A3DAAFE3B4186F6B6457E0 DUP3 DUP1 LOG3 DUP1 RETURN JUMPDEST DUP1 REVERT JUMPDEST POP SWAP1 CALLVALUE PUSH2 0x132 JUMPI PUSH1 0x20 CALLDATASIZE PUSH1 0x3 NOT ADD SLT PUSH2 0x132 JUMPI PUSH32 0xFC2EB6007FCC0E3DDA55E5FE38E643552791303714618047C907FAED6C2AFF98 SWAP2 PUSH1 0x20 SWAP2 CALLDATALOAD SWAP1 PUSH2 0x3F6 PUSH2 0x78D JUMP JUMPDEST DUP2 PUSH1 0x2 SSTORE MLOAD SWAP1 DUP2 MSTORE LOG1 DUP1 RETURN JUMPDEST POP POP CALLVALUE PUSH2 0x314 JUMPI PUSH1 0x20 CALLDATASIZE PUSH1 0x3 NOT ADD SLT PUSH2 0x314 JUMPI DUP1 CALLDATALOAD PUSH1 0x1 PUSH1 0x1 PUSH1 0xA0 SHL SUB DUP2 AND SWAP2 SWAP1 DUP3 SWAP1 SUB PUSH2 0x132 JUMPI PUSH2 0x432 PUSH2 0x78D JUMP JUMPDEST DUP1 SLOAD PUSH1 0x1 PUSH1 0x1 PUSH1 0xA0 SHL SUB NOT AND DUP3 OR SWAP1 SSTORE PUSH32 0x9BF35B7806E61E7BAF86E6547C4221F69D130CCC0A19215D064685A89464A70 DUP3 DUP1 LOG2 DUP1 RETURN JUMPDEST DUP3 DUP2 DUP6 CALLVALUE PUSH2 0x314 JUMPI PUSH1 0x20 CALLDATASIZE PUSH1 0x3 NOT ADD SLT PUSH2 0x314 JUMPI DUP2 DUP1 DUP1 SWAP3 CALLDATALOAD PUSH2 0x48A PUSH2 0x78D JUMP JUMPDEST DUP2 SLOAD PUSH1 0x1 PUSH1 0x1 PUSH1 0xA0 SHL SUB AND DUP3 DUP3 ISZERO PUSH2 0x4B1 JUMPI JUMPDEST CALL ISZERO PUSH2 0x4A7 JUMPI POP DUP1 RETURN JUMPDEST MLOAD SWAP1 RETURNDATASIZE SWAP1 DUP3 RETURNDATACOPY RETURNDATASIZE SWAP1 REVERT JUMPDEST POP PUSH2 0x8FC PUSH2 0x49D JUMP JUMPDEST POP CALLVALUE PUSH2 0x132 JUMPI PUSH1 0x20 SWAP2 PUSH1 0x20 PUSH1 0x3 NOT CALLDATASIZE ADD SLT PUSH2 0x2E8 JUMPI DUP1 CALLDATALOAD SWAP3 PUSH8 0xFFFFFFFFFFFFFFFF SWAP2 DUP3 DUP6 GT PUSH2 0x625 JUMPI CALLDATASIZE PUSH1 0x23 DUP7 ADD SLT ISZERO PUSH2 0x625 JUMPI DUP5 DUP2 ADD CALLDATALOAD SWAP3 DUP4 GT PUSH2 0x625 JUMPI PUSH1 0x24 DUP6 ADD SWAP5 PUSH1 0x24 CALLDATASIZE SWAP2 DUP6 PUSH1 0x5 SHL ADD ADD GT PUSH2 0x625 JUMPI SLOAD PUSH1 0x1 PUSH1 0x1 PUSH1 0xA0 SHL SUB SWAP1 DUP2 AND CALLER EQ DUP1 ISZERO PUSH2 0x619 JUMPI JUMPDEST PUSH2 0x52B SWAP1 PUSH2 0x66D JUMP JUMPDEST DUP6 JUMPDEST DUP4 DUP2 LT PUSH2 0x538 JUMPI DUP7 DUP1 RETURN JUMPDEST DUP1 DUP3 PUSH2 0x54F PUSH2 0x54A PUSH1 0x1 SWAP5 DUP9 DUP12 PUSH2 0x6AA JUMP JUMPDEST PUSH2 0x6D0 JUMP JUMPDEST AND DUP9 MSTORE DUP8 DUP8 DUP6 DUP6 DUP10 PUSH1 0x3 DUP1 DUP5 MSTORE DUP7 DUP12 PUSH1 0xFF DUP5 DUP10 KECCAK256 SLOAD AND ISZERO DUP1 PUSH2 0x60D JUMPI JUMPDEST PUSH2 0x57F JUMPI JUMPDEST POP POP POP POP POP POP POP POP ADD PUSH2 0x52D JUMP JUMPDEST DUP7 PUSH2 0x5F5 SWAP5 PUSH2 0x54A SWAP5 DUP8 PUSH2 0x5B8 PUSH2 0x54A DUP8 DUP8 PUSH32 0x25B5CEB41A95556203EE76D73889D894AC2E2719BD7EC73D82C99F9C1073E4A1 SWAP15 PUSH2 0x6AA JUMP JUMPDEST AND DUP12 MSTORE DUP9 MSTORE DUP10 KECCAK256 DUP1 SLOAD PUSH1 0xFF NOT AND DUP13 OR SWAP1 SSTORE PUSH2 0x5F0 DUP7 PUSH2 0x5DB PUSH2 0x54A DUP7 DUP7 DUP7 PUSH2 0x6AA JUMP JUMPDEST AND SWAP10 DUP1 DUP1 DUP1 PUSH1 0x2 SWAP14 DUP15 SLOAD SWAP1 GAS CALL PUSH2 0x1F7 PUSH2 0x6E9 JUMP JUMPDEST PUSH2 0x6AA JUMP JUMPDEST SWAP4 SLOAD SWAP4 DUP11 MLOAD SWAP5 DUP6 MSTORE AND SWAP3 LOG2 DUP8 DUP8 DUP6 DUP6 DUP10 CODESIZE DUP7 DUP12 PUSH2 0x571 JUMP JUMPDEST POP SELFBALANCE PUSH1 0x2 SLOAD GT ISZERO PUSH2 0x56C JUMP JUMPDEST POP DUP6 SLOAD DUP2 AND CALLER EQ PUSH2 0x522 JUMP JUMPDEST DUP6 DUP1 REVERT JUMPDEST POP SWAP1 CALLVALUE PUSH2 0x132 JUMPI DUP3 PUSH1 0x3 NOT CALLDATASIZE ADD SLT PUSH2 0x132 JUMPI SLOAD SWAP1 MLOAD PUSH1 0x1 PUSH1 0x1 PUSH1 0xA0 SHL SUB SWAP1 SWAP2 AND DUP2 MSTORE PUSH1 0x20 SWAP2 POP RETURN JUMPDEST DUP5 SWAP1 CALLVALUE PUSH2 0x314 JUMPI DUP2 PUSH1 0x3 NOT CALLDATASIZE ADD SLT PUSH2 0x314 JUMPI PUSH1 0x20 SWAP1 PUSH1 0x2 SLOAD DUP2 MSTORE RETURN JUMPDEST ISZERO PUSH2 0x674 JUMPI JUMP JUMPDEST PUSH1 0x40 MLOAD PUSH3 0x461BCD PUSH1 0xE5 SHL DUP2 MSTORE PUSH1 0x20 PUSH1 0x4 DUP3 ADD MSTORE PUSH1 0xE PUSH1 0x24 DUP3 ADD MSTORE PUSH14 0x139BDD08185D5D1A1BDC9A5E9959 PUSH1 0x92 SHL PUSH1 0x44 DUP3 ADD MSTORE PUSH1 0x64 SWAP1 REVERT JUMPDEST SWAP2 SWAP1 DUP2 LT ISZERO PUSH2 0x6BA JUMPI PUSH1 0x5 SHL ADD SWAP1 JUMP JUMPDEST PUSH4 0x4E487B71 PUSH1 0xE0 SHL PUSH1 0x0 MSTORE PUSH1 0x32 PUSH1 0x4 MSTORE PUSH1 0x24 PUSH1 0x0 REVERT JUMPDEST CALLDATALOAD PUSH1 0x1 PUSH1 0x1 PUSH1 0xA0 SHL SUB DUP2 AND DUP2 SUB PUSH2 0x6E4 JUMPI SWAP1 JUMP JUMPDEST PUSH1 0x0 DUP1 REVERT JUMPDEST RETURNDATASIZE ISZERO PUSH2 0x745 JUMPI PUSH8 0xFFFFFFFFFFFFFFFF SWAP1 RETURNDATASIZE DUP3 DUP2 GT PUSH2 0x72F JUMPI PUSH1 0x40 MLOAD SWAP3 PUSH1 0x1F DUP3 ADD PUSH1 0x1F NOT SWAP1 DUP2 AND PUSH1 0x3F ADD AND DUP5 ADD SWAP1 DUP2 GT DUP5 DUP3 LT OR PUSH2 0x72F JUMPI PUSH1 0x40 MSTORE DUP3 MSTORE RETURNDATASIZE PUSH1 0x0 PUSH1 0x20 DUP5 ADD RETURNDATACOPY JUMP JUMPDEST PUSH4 0x4E487B71 PUSH1 0xE0 SHL PUSH1 0x0 MSTORE PUSH1 0x41 PUSH1 0x4 MSTORE PUSH1 0x24 PUSH1 0x0 REVERT JUMPDEST PUSH1 0x60 SWAP1 JUMP JUMPDEST ISZERO PUSH2 0x751 JUMPI JUMP JUMPDEST PUSH1 0x40 MLOAD PUSH3 0x461BCD PUSH1 0xE5 SHL DUP2 MSTORE PUSH1 0x20 PUSH1 0x4 DUP3 ADD MSTORE PUSH1 0x14 PUSH1 0x24 DUP3 ADD MSTORE PUSH20 0x2330B4B632B2103A379039B2B7321022BA3432B9 PUSH1 0x61 SHL PUSH1 0x44 DUP3 ADD MSTORE PUSH1 0x64 SWAP1 REVERT JUMPDEST PUSH1 0x0 SLOAD PUSH1 0x1 PUSH1 0x1 PUSH1 0xA0 SHL SUB AND CALLER SUB PUSH2 0x7A1 JUMPI JUMP JUMPDEST PUSH1 0x40 MLOAD PUSH4 0x118CDAA7 PUSH1 0xE0 SHL DUP2 MSTORE CALLER PUSH1 0x4 DUP3 ADD MSTORE PUSH1 0x24 SWAP1 REVERT INVALID LOG1 PUSH5 0x736F6C6343 STOP ADDMOD XOR STOP EXP "},"methodIdentifiers":{"batchSubsidize(address[])":"310b2169","emergencyWithdraw(uint256)":"5312ea8e","hasClaimed(address)":"73b2e80e","owner()":"8da5cb5b","relayerAddress()":"18a7cca8","renounceOwnership()":"715018a6","setRelayer(address)":"6548e9bc","setSubsidyAmount(uint256)":"6869fa74","subsidize(address)":"ba142acb","subsidyAmount()":"113bbf26","transferOwnership(address)":"f2fde38b"}}}}}