{"contracts/NodeRegistry.sol":{"NodeRegistry":{"abi":[{"inputs":[{"internalType":"uint256","name":"","type":"uint256"}],"name":"activeNodes","outputs":[{"internalType":"string","name":"ip","type":"string"},{"internalType":"uint16","name":"port","type":"uint16"},{"internalType":"address","name":"wallet","type":"address"}],"stateMutability":"view","type":"function"},{"inputs":[],"name":"getNodes","outputs":[{"components":[{"internalType":"string","name":"ip","type":"string"},{"internalType":"uint16","name":"port","type":"uint16"},{"internalType":"address","name":"wallet","type":"address"}],"internalType":"struct NodeRegistry.NodeInfo[]","name":"","type":"tuple[]"}],"stateMutability":"view","type":"function"},{"inputs":[{"internalType":"string","name":"_ip","type":"string"},{"internalType":"uint16","name":"_port","type":"uint16"}],"name":"registerNode","outputs":[],"stateMutability":"nonpayable","type":"function"}],"evm":{"bytecode":{"linkReferences":{},"object":"6080806040523461001657610636908161001c8239f35b600080fdfe608060409080825260048036101561001657600080fd5b600091823560e01c9081630bca8d79146102125750806396f9d9831461019a5763e29581aa1461004557600080fd5b3461019657816003193601126101965781549067ffffffffffffffff82116101835750602091835161007c848460051b018261049b565b82815281805283810192827f290decd9548b62a8d60345a988386fc84ba6bc95484008f6362f93160ef3e563855b83831061013557505050508451938085019181865251809252858501868360051b8701019493965b8388106100df5786860387f35b90919293948380600192603f198a82030186528851908561010960608451908085528401906105e9565b9261ffff85820151168584015281878060a01b03910151169101529701930197019690939291936100d2565b6002886001928b9a97989a5161014a81610469565b61015386610544565b81528486015461ffff811684830152858060a01b039060101c168d820152815201920192019190969493966100aa565b634e487b7160e01b835260419052602482fd5b5080fd5b5082903461020e57602036600319011261020e573591805483101561020b57506101c66101ea926104bd565b509060016101d383610544565b9201549080519384936060855260608501906105e9565b61ffff8316602085015260109290921c6001600160a01b0316908301520390f35b80fd5b8280fd5b9050833461046557806003193601126104655782359167ffffffffffffffff908184116104615736602385011215610461576024918585013581811161044f5787602096601f199261026b8985601f840116018761049b565b8086523687828401011161020e5780878a9301838801378501015283359661ffff9586891680990361044b578051946102a386610469565b85528785019889528401963388528954956801000000000000000087101561043a576102d56001978881018d556104bd565b9690966104295751928351958611610418575050908392916102f7865461050a565b601f81116103c4575b508092601f85116001146103645750508992610359575b5050600019600383901b1c191690831b1781555b0192511682549162010000600160b01b03905160101b169169ffffffffffffffffffff60b01b161717905580f35b015190508880610317565b87959392919316868c52838c20938c905b8282106103ab5750508411610392575b505050811b01815561032b565b015160001960f88460031b161c19169055888080610385565b8484015186558997909501949384019390810190610375565b9091929350858b52818b20601f860160051c81019183871061040e575b869594939291601f8a920160051c01915b828110610400575050610300565b8d81558796508991016103f2565b90915081906103e1565b634e487b7160e01b8c52604190528afd5b50634e487b7160e01b8b528a83528afd5b634e487b7160e01b8b52604183528afd5b8980fd5b634e487b7160e01b8852604187528388fd5b8580fd5b8380fd5b6060810190811067ffffffffffffffff82111761048557604052565b634e487b7160e01b600052604160045260246000fd5b90601f8019910116810190811067ffffffffffffffff82111761048557604052565b9060009182548110156104f65782805260011b7f290decd9548b62a8d60345a988386fc84ba6bc95484008f6362f93160ef3e563019190565b634e487b7160e01b83526032600452602483fd5b90600182811c9216801561053a575b602083101461052457565b634e487b7160e01b600052602260045260246000fd5b91607f1691610519565b906040519182600082546105578161050a565b908184526020946001916001811690816000146105c75750600114610588575b5050506105869250038361049b565b565b600090815285812095935091905b8183106105af5750506105869350820101388080610577565b85548884018501529485019487945091830191610596565b9250505061058694925060ff191682840152151560051b820101388080610577565b919082519283825260005b848110610615575050826000602080949584010152601f8019910116010190565b6020818301810151848301820152016105f456fea164736f6c6343000818000a","opcodes":"PUSH1 0x80 DUP1 PUSH1 0x40 MSTORE CALLVALUE PUSH2 0x16 JUMPI PUSH2 0x636 SWAP1 DUP2 PUSH2 0x1C DUP3 CODECOPY RETURN JUMPDEST PUSH1 0x0 DUP1 REVERT INVALID PUSH1 0x80 PUSH1 0x40 SWAP1 DUP1 DUP3 MSTORE PUSH1 0x4 DUP1 CALLDATASIZE LT ISZERO PUSH2 0x16 JUMPI PUSH1 0x0 DUP1 REVERT JUMPDEST PUSH1 0x0 SWAP2 DUP3 CALLDATALOAD PUSH1 0xE0 SHR SWAP1 DUP2 PUSH4 0xBCA8D79 EQ PUSH2 0x212 JUMPI POP DUP1 PUSH4 0x96F9D983 EQ PUSH2 0x19A JUMPI PUSH4 0xE29581AA EQ PUSH2 0x45 JUMPI PUSH1 0x0 DUP1 REVERT JUMPDEST CALLVALUE PUSH2 0x196 JUMPI DUP2 PUSH1 0x3 NOT CALLDATASIZE ADD SLT PUSH2 0x196 JUMPI DUP2 SLOAD SWAP1 PUSH8 0xFFFFFFFFFFFFFFFF DUP3 GT PUSH2 0x183 JUMPI POP PUSH1 0x20 SWAP2 DUP4 MLOAD PUSH2 0x7C DUP5 DUP5 PUSH1 0x5 SHL ADD DUP3 PUSH2 0x49B JUMP JUMPDEST DUP3 DUP2 MSTORE DUP2 DUP1 MSTORE DUP4 DUP2 ADD SWAP3 DUP3 PUSH32 0x290DECD9548B62A8D60345A988386FC84BA6BC95484008F6362F93160EF3E563 DUP6 JUMPDEST DUP4 DUP4 LT PUSH2 0x135 JUMPI POP POP POP POP DUP5 MLOAD SWAP4 DUP1 DUP6 ADD SWAP2 DUP2 DUP7 MSTORE MLOAD DUP1 SWAP3 MSTORE DUP6 DUP6 ADD DUP7 DUP4 PUSH1 0x5 SHL DUP8 ADD ADD SWAP5 SWAP4 SWAP7 JUMPDEST DUP4 DUP9 LT PUSH2 0xDF JUMPI DUP7 DUP7 SUB DUP8 RETURN JUMPDEST SWAP1 SWAP2 SWAP3 SWAP4 SWAP5 DUP4 DUP1 PUSH1 0x1 SWAP3 PUSH1 0x3F NOT DUP11 DUP3 SUB ADD DUP7 MSTORE DUP9 MLOAD SWAP1 DUP6 PUSH2 0x109 PUSH1 0x60 DUP5 MLOAD SWAP1 DUP1 DUP6 MSTORE DUP5 ADD SWAP1 PUSH2 0x5E9 JUMP JUMPDEST SWAP3 PUSH2 0xFFFF DUP6 DUP3 ADD MLOAD AND DUP6 DUP5 ADD MSTORE DUP2 DUP8 DUP1 PUSH1 0xA0 SHL SUB SWAP2 ADD MLOAD AND SWAP2 ADD MSTORE SWAP8 ADD SWAP4 ADD SWAP8 ADD SWAP7 SWAP1 SWAP4 SWAP3 SWAP2 SWAP4 PUSH2 0xD2 JUMP JUMPDEST PUSH1 0x2 DUP9 PUSH1 0x1 SWAP3 DUP12 SWAP11 SWAP8 SWAP9 SWAP11 MLOAD PUSH2 0x14A DUP2 PUSH2 0x469 JUMP JUMPDEST PUSH2 0x153 DUP7 PUSH2 0x544 JUMP JUMPDEST DUP2 MSTORE DUP5 DUP7 ADD SLOAD PUSH2 0xFFFF DUP2 AND DUP5 DUP4 ADD MSTORE DUP6 DUP1 PUSH1 0xA0 SHL SUB SWAP1 PUSH1 0x10 SHR AND DUP14 DUP3 ADD MSTORE DUP2 MSTORE ADD SWAP3 ADD SWAP3 ADD SWAP2 SWAP1 SWAP7 SWAP5 SWAP4 SWAP7 PUSH2 0xAA JUMP JUMPDEST PUSH4 0x4E487B71 PUSH1 0xE0 SHL DUP4 MSTORE PUSH1 0x41 SWAP1 MSTORE PUSH1 0x24 DUP3 REVERT JUMPDEST POP DUP1 REVERT JUMPDEST POP DUP3 SWAP1 CALLVALUE PUSH2 0x20E JUMPI PUSH1 0x20 CALLDATASIZE PUSH1 0x3 NOT ADD SLT PUSH2 0x20E JUMPI CALLDATALOAD SWAP2 DUP1 SLOAD DUP4 LT ISZERO PUSH2 0x20B JUMPI POP PUSH2 0x1C6 PUSH2 0x1EA SWAP3 PUSH2 0x4BD JUMP JUMPDEST POP SWAP1 PUSH1 0x1 PUSH2 0x1D3 DUP4 PUSH2 0x544 JUMP JUMPDEST SWAP3 ADD SLOAD SWAP1 DUP1 MLOAD SWAP4 DUP5 SWAP4 PUSH1 0x60 DUP6 MSTORE PUSH1 0x60 DUP6 ADD SWAP1 PUSH2 0x5E9 JUMP JUMPDEST PUSH2 0xFFFF DUP4 AND PUSH1 0x20 DUP6 ADD MSTORE PUSH1 0x10 SWAP3 SWAP1 SWAP3 SHR PUSH1 0x1 PUSH1 0x1 PUSH1 0xA0 SHL SUB AND SWAP1 DUP4 ADD MSTORE SUB SWAP1 RETURN JUMPDEST DUP1 REVERT JUMPDEST DUP3 DUP1 REVERT JUMPDEST SWAP1 POP DUP4 CALLVALUE PUSH2 0x465 JUMPI DUP1 PUSH1 0x3 NOT CALLDATASIZE ADD SLT PUSH2 0x465 JUMPI DUP3 CALLDATALOAD SWAP2 PUSH8 0xFFFFFFFFFFFFFFFF SWAP1 DUP2 DUP5 GT PUSH2 0x461 JUMPI CALLDATASIZE PUSH1 0x23 DUP6 ADD SLT ISZERO PUSH2 0x461 JUMPI PUSH1 0x24 SWAP2 DUP6 DUP6 ADD CALLDATALOAD DUP2 DUP2 GT PUSH2 0x44F JUMPI DUP8 PUSH1 0x20 SWAP7 PUSH1 0x1F NOT SWAP3 PUSH2 0x26B DUP10 DUP6 PUSH1 0x1F DUP5 ADD AND ADD DUP8 PUSH2 0x49B JUMP JUMPDEST DUP1 DUP7 MSTORE CALLDATASIZE DUP8 DUP3 DUP5 ADD ADD GT PUSH2 0x20E JUMPI DUP1 DUP8 DUP11 SWAP4 ADD DUP4 DUP9 ADD CALLDATACOPY DUP6 ADD ADD MSTORE DUP4 CALLDATALOAD SWAP7 PUSH2 0xFFFF SWAP6 DUP7 DUP10 AND DUP1 SWAP10 SUB PUSH2 0x44B JUMPI DUP1 MLOAD SWAP5 PUSH2 0x2A3 DUP7 PUSH2 0x469 JUMP JUMPDEST DUP6 MSTORE DUP8 DUP6 ADD SWAP9 DUP10 MSTORE DUP5 ADD SWAP7 CALLER DUP9 MSTORE DUP10 SLOAD SWAP6 PUSH9 0x10000000000000000 DUP8 LT ISZERO PUSH2 0x43A JUMPI PUSH2 0x2D5 PUSH1 0x1 SWAP8 DUP9 DUP2 ADD DUP14 SSTORE PUSH2 0x4BD JUMP JUMPDEST SWAP7 SWAP1 SWAP7 PUSH2 0x429 JUMPI MLOAD SWAP3 DUP4 MLOAD SWAP6 DUP7 GT PUSH2 0x418 JUMPI POP POP SWAP1 DUP4 SWAP3 SWAP2 PUSH2 0x2F7 DUP7 SLOAD PUSH2 0x50A JUMP JUMPDEST PUSH1 0x1F DUP2 GT PUSH2 0x3C4 JUMPI JUMPDEST POP DUP1 SWAP3 PUSH1 0x1F DUP6 GT PUSH1 0x1 EQ PUSH2 0x364 JUMPI POP POP DUP10 SWAP3 PUSH2 0x359 JUMPI JUMPDEST POP POP PUSH1 0x0 NOT PUSH1 0x3 DUP4 SWAP1 SHL SHR NOT AND SWAP1 DUP4 SHL OR DUP2 SSTORE JUMPDEST ADD SWAP3 MLOAD AND DUP3 SLOAD SWAP2 PUSH3 0x10000 PUSH1 0x1 PUSH1 0xB0 SHL SUB SWAP1 MLOAD PUSH1 0x10 SHL AND SWAP2 PUSH10 0xFFFFFFFFFFFFFFFFFFFF PUSH1 0xB0 SHL AND OR OR SWAP1 SSTORE DUP1 RETURN JUMPDEST ADD MLOAD SWAP1 POP DUP9 DUP1 PUSH2 0x317 JUMP JUMPDEST DUP8 SWAP6 SWAP4 SWAP3 SWAP2 SWAP4 AND DUP7 DUP13 MSTORE DUP4 DUP13 KECCAK256 SWAP4 DUP13 SWAP1 JUMPDEST DUP3 DUP3 LT PUSH2 0x3AB JUMPI POP POP DUP5 GT PUSH2 0x392 JUMPI JUMPDEST POP POP POP DUP2 SHL ADD DUP2 SSTORE PUSH2 0x32B JUMP JUMPDEST ADD MLOAD PUSH1 0x0 NOT PUSH1 0xF8 DUP5 PUSH1 0x3 SHL AND SHR NOT AND SWAP1 SSTORE DUP9 DUP1 DUP1 PUSH2 0x385 JUMP JUMPDEST DUP5 DUP5 ADD MLOAD DUP7 SSTORE DUP10 SWAP8 SWAP1 SWAP6 ADD SWAP5 SWAP4 DUP5 ADD SWAP4 SWAP1 DUP2 ADD SWAP1 PUSH2 0x375 JUMP JUMPDEST SWAP1 SWAP2 SWAP3 SWAP4 POP DUP6 DUP12 MSTORE DUP2 DUP12 KECCAK256 PUSH1 0x1F DUP7 ADD PUSH1 0x5 SHR DUP2 ADD SWAP2 DUP4 DUP8 LT PUSH2 0x40E JUMPI JUMPDEST DUP7 SWAP6 SWAP5 SWAP4 SWAP3 SWAP2 PUSH1 0x1F DUP11 SWAP3 ADD PUSH1 0x5 SHR ADD SWAP2 JUMPDEST DUP3 DUP2 LT PUSH2 0x400 JUMPI POP POP PUSH2 0x300 JUMP JUMPDEST DUP14 DUP2 SSTORE DUP8 SWAP7 POP DUP10 SWAP2 ADD PUSH2 0x3F2 JUMP JUMPDEST SWAP1 SWAP2 POP DUP2 SWAP1 PUSH2 0x3E1 JUMP JUMPDEST PUSH4 0x4E487B71 PUSH1 0xE0 SHL DUP13 MSTORE PUSH1 0x41 SWAP1 MSTORE DUP11 REVERT JUMPDEST POP PUSH4 0x4E487B71 PUSH1 0xE0 SHL DUP12 MSTORE DUP11 DUP4 MSTORE DUP11 REVERT JUMPDEST PUSH4 0x4E487B71 PUSH1 0xE0 SHL DUP12 MSTORE PUSH1 0x41 DUP4 MSTORE DUP11 REVERT JUMPDEST DUP10 DUP1 REVERT JUMPDEST PUSH4 0x4E487B71 PUSH1 0xE0 SHL DUP9 MSTORE PUSH1 0x41 DUP8 MSTORE DUP4 DUP9 REVERT JUMPDEST DUP6 DUP1 REVERT JUMPDEST DUP4 DUP1 REVERT JUMPDEST PUSH1 0x60 DUP2 ADD SWAP1 DUP2 LT PUSH8 0xFFFFFFFFFFFFFFFF DUP3 GT OR PUSH2 0x485 JUMPI PUSH1 0x40 MSTORE JUMP JUMPDEST PUSH4 0x4E487B71 PUSH1 0xE0 SHL PUSH1 0x0 MSTORE PUSH1 0x41 PUSH1 0x4 MSTORE PUSH1 0x24 PUSH1 0x0 REVERT JUMPDEST SWAP1 PUSH1 0x1F DUP1 NOT SWAP2 ADD AND DUP2 ADD SWAP1 DUP2 LT PUSH8 0xFFFFFFFFFFFFFFFF DUP3 GT OR PUSH2 0x485 JUMPI PUSH1 0x40 MSTORE JUMP JUMPDEST SWAP1 PUSH1 0x0 SWAP2 DUP3 SLOAD DUP2 LT ISZERO PUSH2 0x4F6 JUMPI DUP3 DUP1 MSTORE PUSH1 0x1 SHL PUSH32 0x290DECD9548B62A8D60345A988386FC84BA6BC95484008F6362F93160EF3E563 ADD SWAP2 SWAP1 JUMP JUMPDEST PUSH4 0x4E487B71 PUSH1 0xE0 SHL DUP4 MSTORE PUSH1 0x32 PUSH1 0x4 MSTORE PUSH1 0x24 DUP4 REVERT JUMPDEST SWAP1 PUSH1 0x1 DUP3 DUP2 SHR SWAP3 AND DUP1 ISZERO PUSH2 0x53A JUMPI JUMPDEST PUSH1 0x20 DUP4 LT EQ PUSH2 0x524 JUMPI JUMP JUMPDEST PUSH4 0x4E487B71 PUSH1 0xE0 SHL PUSH1 0x0 MSTORE PUSH1 0x22 PUSH1 0x4 MSTORE PUSH1 0x24 PUSH1 0x0 REVERT JUMPDEST SWAP2 PUSH1 0x7F AND SWAP2 PUSH2 0x519 JUMP JUMPDEST SWAP1 PUSH1 0x40 MLOAD SWAP2 DUP3 PUSH1 0x0 DUP3 SLOAD PUSH2 0x557 DUP2 PUSH2 0x50A JUMP JUMPDEST SWAP1 DUP2 DUP5 MSTORE PUSH1 0x20 SWAP5 PUSH1 0x1 SWAP2 PUSH1 0x1 DUP2 AND SWAP1 DUP2 PUSH1 0x0 EQ PUSH2 0x5C7 JUMPI POP PUSH1 0x1 EQ PUSH2 0x588 JUMPI JUMPDEST POP POP POP PUSH2 0x586 SWAP3 POP SUB DUP4 PUSH2 0x49B JUMP JUMPDEST JUMP JUMPDEST PUSH1 0x0 SWAP1 DUP2 MSTORE DUP6 DUP2 KECCAK256 SWAP6 SWAP4 POP SWAP2 SWAP1 JUMPDEST DUP2 DUP4 LT PUSH2 0x5AF JUMPI POP POP PUSH2 0x586 SWAP4 POP DUP3 ADD ADD CODESIZE DUP1 DUP1 PUSH2 0x577 JUMP JUMPDEST DUP6 SLOAD DUP9 DUP5 ADD DUP6 ADD MSTORE SWAP5 DUP6 ADD SWAP5 DUP8 SWAP5 POP SWAP2 DUP4 ADD SWAP2 PUSH2 0x596 JUMP JUMPDEST SWAP3 POP POP POP PUSH2 0x586 SWAP5 SWAP3 POP PUSH1 0xFF NOT AND DUP3 DUP5 ADD MSTORE ISZERO ISZERO PUSH1 0x5 SHL DUP3 ADD ADD CODESIZE DUP1 DUP1 PUSH2 0x577 JUMP JUMPDEST SWAP2 SWAP1 DUP3 MLOAD SWAP3 DUP4 DUP3 MSTORE PUSH1 0x0 JUMPDEST DUP5 DUP2 LT PUSH2 0x615 JUMPI POP POP DUP3 PUSH1 0x0 PUSH1 0x20 DUP1 SWAP5 SWAP6 DUP5 ADD ADD MSTORE PUSH1 0x1F DUP1 NOT SWAP2 ADD AND ADD ADD SWAP1 JUMP JUMPDEST PUSH1 0x20 DUP2 DUP4 ADD DUP2 ADD MLOAD DUP5 DUP4 ADD DUP3 ADD MSTORE ADD PUSH2 0x5F4 JUMP INVALID LOG1 PUSH5 0x736F6C6343 STOP ADDMOD XOR STOP EXP "},"methodIdentifiers":{"activeNodes(uint256)":"96f9d983","getNodes()":"e29581aa","registerNode(string,uint16)":"0bca8d79"}}}}}