{"contracts/ThreatIntelligenceCoordination.sol":{"ThreatIntelligenceCoordination":{"abi":[{"inputs":[],"stateMutability":"nonpayable","type":"constructor"},{"anonymous":false,"inputs":[{"indexed":true,"internalType":"string","name":"ip","type":"string"},{"indexed":false,"internalType":"enum ThreatIntelligenceCoordination.ThreatLevel","name":"level","type":"uint8"},{"indexed":false,"internalType":"string","name":"threatType","type":"string"},{"indexed":false,"internalType":"uint256","name":"timestamp","type":"uint256"}],"name":"ThreatIntelAdded","type":"event"},{"anonymous":false,"inputs":[{"indexed":true,"internalType":"string","name":"ip","type":"string"},{"indexed":false,"internalType":"uint256","name":"timestamp","type":"uint256"}],"name":"ThreatIntelRemoved","type":"event"},{"anonymous":false,"inputs":[{"indexed":true,"internalType":"string","name":"ip","type":"string"},{"indexed":false,"internalType":"uint256","name":"score","type":"uint256"},{"indexed":false,"internalType":"uint256","name":"timestamp","type":"uint256"}],"name":"ThreatScoreUpdated","type":"event"},{"inputs":[{"internalType":"string","name":"_ip","type":"string"},{"internalType":"enum ThreatIntelligenceCoordination.ThreatLevel","name":"_threatLevel","type":"uint8"},{"internalType":"string","name":"_threatType","type":"string"}],"name":"addThreatIntel","outputs":[],"stateMutability":"nonpayable","type":"function"},{"inputs":[{"internalType":"uint256","name":"","type":"uint256"}],"name":"allThreatIPs","outputs":[{"internalType":"string","name":"","type":"string"}],"stateMutability":"view","type":"function"},{"inputs":[{"internalType":"string[]","name":"_ips","type":"string[]"},{"internalType":"uint256[]","name":"_scores","type":"uint256[]"}],"name":"batchUpdateThreatScores","outputs":[],"stateMutability":"nonpayable","type":"function"},{"inputs":[{"internalType":"uint256","name":"maxCount","type":"uint256"}],"name":"getAllThreatIPs","outputs":[{"internalType":"string[]","name":"ips","type":"string[]"}],"stateMutability":"view","type":"function"},{"inputs":[{"internalType":"uint256","name":"offset","type":"uint256"},{"internalType":"uint256","name":"count","type":"uint256"}],"name":"getThreatIPs","outputs":[{"internalType":"string[]","name":"ips","type":"string[]"}],"stateMutability":"view","type":"function"},{"inputs":[],"name":"getThreatIPsCount","outputs":[{"internalType":"uint256","name":"","type":"uint256"}],"stateMutability":"view","type":"function"},{"inputs":[{"internalType":"string","name":"_ip","type":"string"}],"name":"getThreatIntel","outputs":[{"internalType":"string","name":"sourceIP","type":"string"},{"internalType":"string","name":"targetIP","type":"string"},{"internalType":"enum ThreatIntelligenceCoordination.ThreatLevel","name":"threatLevel","type":"uint8"},{"internalType":"uint256","name":"timestamp","type":"uint256"},{"internalType":"string","name":"threatType","type":"string"},{"internalType":"bool","name":"isActive","type":"bool"}],"stateMutability":"view","type":"function"},{"inputs":[{"internalType":"string","name":"_ip","type":"string"}],"name":"getThreatScore","outputs":[{"internalType":"uint256","name":"","type":"uint256"}],"stateMutability":"view","type":"function"},{"inputs":[{"internalType":"string[]","name":"_ips","type":"string[]"}],"name":"getThreatScores","outputs":[{"internalType":"uint256[]","name":"","type":"uint256[]"}],"stateMutability":"view","type":"function"},{"inputs":[{"internalType":"string","name":"","type":"string"}],"name":"isThreatIP","outputs":[{"internalType":"bool","name":"","type":"bool"}],"stateMutability":"view","type":"function"},{"inputs":[{"internalType":"string","name":"_ip","type":"string"}],"name":"isThreatSource","outputs":[{"internalType":"bool","name":"","type":"bool"}],"stateMutability":"view","type":"function"},{"inputs":[{"internalType":"string","name":"_ip","type":"string"}],"name":"removeThreatIntel","outputs":[],"stateMutability":"nonpayable","type":"function"},{"inputs":[{"internalType":"string","name":"","type":"string"}],"name":"threatIntels","outputs":[{"internalType":"string","name":"sourceIP","type":"string"},{"internalType":"string","name":"targetIP","type":"string"},{"internalType":"enum ThreatIntelligenceCoordination.ThreatLevel","name":"threatLevel","type":"uint8"},{"internalType":"uint256","name":"timestamp","type":"uint256"},{"internalType":"string","name":"threatType","type":"string"},{"internalType":"bool","name":"isActive","type":"bool"}],"stateMutability":"view","type":"function"},{"inputs":[{"internalType":"string","name":"","type":"string"}],"name":"threatScores","outputs":[{"internalType":"uint256","name":"","type":"uint256"}],"stateMutability":"view","type":"function"},{"inputs":[{"internalType":"string","name":"_ip","type":"string"},{"internalType":"uint256","name":"_score","type":"uint256"}],"name":"updateThreatScore","outputs":[],"stateMutability":"nonpayable","type":"function"}],"evm":{"bytecode":{"linkReferences":{},"object":"6080806040523461001657611378908161001c8239f35b600080fdfe6040608081526004908136101561001557600080fd5b600091823560e01c908163149cdd9914610ce85781632a592cff14610c4b5781632ec920c914610bea578163387d132514610a6b5781633da195cc146103445781634ee14a8d1461099557816352eee69a1461093457816360b3f7cd146108bf57816387e7ff95146108265781639d55cb291461073c578163a19b5f8d1461064c578163b64a71e3146103a3578163b832717a14610344578163bd1cbfd5146100e9575063fa1e7394146100c857600080fd5b346100e557816003193601126100e5576020906003549051908152f35b5080fd5b8383346100e5576020806003193601126103405783356001600160401b03811161033c5761011a9036908601610dd2565b82516005825191848181860194610132818388610e2d565b8101898152030190200160ff1990818154169055845184818551610157818388610e2d565b81016001815203019020908154169055835183818451610178818387610e2d565b8101898152030190205480151580610330575b6101c6575b5050906101bd7f0d06e35fac876e69e0d720d375f7b4d852cee07e4e59c9170cad871f37bf81c992611150565b9251428152a280f35b600354600019919082810190811161031d576101e46101ea9161108b565b50610eb0565b82820182811161030a578161020c61021e936102068a9461108b565b90611346565b81895193828580945193849201610e2d565b81018b8152030190205560035480156102f7570161023b8161108b565b6102e557846101bd9493889989947f0d06e35fac876e69e0d720d375f7b4d852cee07e4e59c9170cad871f37bf81c9999a8561027a6102969754610e76565b806102a9575b5050506003558951809481938851928391610e2d565b8201908152030190205590859493610190565b82601f82116001146102c1575050555b858d80610280565b90918082526102de601f898420940160051c84016001850161122a565b55556102b9565b634e487b7160e01b8752868852602487fd5b634e487b7160e01b875260318852602487fd5b634e487b7160e01b895260118a52602489fd5b634e487b7160e01b885260118952602488fd5b5060035481111561018b565b8380fd5b8280fd5b8284346103a05760203660031901126103a0578235906001600160401b0382116103a05750602061037c819461038e93369101610dd2565b81845193828580945193849201610e2d565b81016002815203019020549051908152f35b80fd5b8383346100e55760603660031901126100e5576001600160401b0390833582811161033c576103d59036908601610dd2565b90602435918583101561064857604435848111610644576103f99036908801610dd2565b90610406815115156111ba565b825161041181610d80565b8181528351602096878201908111828210176106315785528781528187019081528691858101919061044388846111fb565b60608101428152608082019087825260a0830193600185528c878b5180928b8281519c8d92019c610474918e610e2d565b82019081520301902093516104899085611241565b516104979060018501611241565b600283019451948d86101561061d57916104cd916005949360ff199760ff898354169116179055516003840155518d8301611241565b019051151560ff83835416911617905560018551888186516104f0818389610e2d565b81018481520301902091825416179055835186818451610511818387610e2d565b81018b815203019020541561057c575b50916105707f87bdc31b1bcec98e3bcc912354b27eb9f24fb60e3c33a4995a4dc319640a452b9492606061055761056396611150565b97845196878097610f7a565b8501526060840190610f55565b9042908301520390a280f35b6003546801000000000000000081101561060a576105578388999a6105f07f87bdc31b1bcec98e3bcc912354b27eb9f24fb60e3c33a4995a4dc319640a452b9a6105639a9998966105dc6105709961020689600160609b0160035561108b565b600354938a51809481938851928391610e2d565b820190815203019020559350505091929387969550610521565b634e487b7160e01b885260418952602488fd5b50634e487b7160e01b8c5260218d5260248cfd5b634e487b7160e01b895260418a52602489fd5b8580fd5b8480fd5b8383346100e557806003193601126100e557823592602435906003549081861015610702578161067c8488611207565b116106db575b505061068d81611170565b925b8181106106a7578251806106a386826110d8565b0390f35b806106bf6101e46106ba60019489611207565b61108b565b6106c9828761113c565b526106d4818661113c565b500161068f565b85820392509082116106ef57508480610682565b634e487b7160e01b845260119052602483fd5b606490602085519162461bcd60e51b835282015260146024820152734f6666736574206f7574206f6620626f756e647360601b6044820152fd5b8383346100e55760203660031901126100e55782356001600160401b03811161034057602061037c6107719236908701610dd2565b81018581520301902090805161078681610d80565b61078f83610eb0565b815261079d60018401610eb0565b926020820193845260ff600282015416946107bb84840196876111fb565b60038201546060840190815260ff60056107d68a8601610eb0565b94608087019586520154169360a0810194151585525195519651918883101561081357506106a39596975051915192511515935196879687610f9d565b634e487b7160e01b815260218952602490fd5b90503461034057816003193601126103405780356001600160401b03811161033c577f40c5eea1c520c4788adb7b4a4afe6fe8154919b4256274796cca5f0509af84179161087691369101610dd2565b916108af6024359361088a815115156111ba565b848351602081845161089f8183858901610e2d565b8101600281520301902055611150565b928151908152426020820152a280f35b839150346100e55760203660031901126100e55735916003549283811061092c575b506108eb83611170565b915b838110610901578151806106a385826110d8565b806109106101e460019361108b565b61091a828661113c565b52610925818561113c565b50016108ed565b9250836108e1565b8284346103a05760203660031901126103a05782356003548110156100e55761095c9061108b565b939093610983576106a38361097086610eb0565b9051918291602083526020830190610f55565b634e487b7160e01b8252819052602490fd5b839150346100e557602090816003193601126103405780356001600160401b03811161033c576109c79136910161100c565b928351916109ec6109d784610ff5565b936109e484519586610db1565b808552610ff5565b8382019190601f1901368337845b8651811015610a2b5780610a19610a136001938a61113c565b51610e50565b54610a24828861113c565b52016109fa565b509190848483519485948186019282875251809352850193925b828110610a5457505050500390f35b835185528695509381019392810192600101610a45565b839150346100e557826003193601126100e5576001600160401b03813581811161033c57610a9c903690840161100c565b60243591821161033c573660238301121561033c578183013592610abf84610ff5565b92610acc87519485610db1565b8484526020946024602086019160051b83010191368311610be6576024879101915b838310610bd657505050508151835103610b815750835b8151811015610b7d5780610b1b6001928561113c565b51610b29610a13838661113c565b55610b34818461113c565b517f40c5eea1c520c4788adb7b4a4afe6fe8154919b4256274796cca5f0509af841788610b6b610b64858961113c565b5193611150565b9281519081524289820152a201610b05565b8480f35b608490602087519162461bcd60e51b8352820152602960248201527f495020616e642073636f726520617272617973206d75737420686176652073616044820152680daca40d8cadccee8d60bb1b6064820152fd5b8235815291810191879101610aee565b8780fd5b8284346103a05760203660031901126103a0578235906001600160401b0382116103a05750610c366020610c24819560ff94369101610dd2565b81855193828580945193849201610e2d565b81016001815203019020541690519015158152f35b8383346100e55760203660031901126100e55782356001600160401b03811161034057602093610c7d91369101610dd2565b9181519060ff845192868181880195610c97818389610e2d565b8101600181520301902054169384610cb5575b505050519015158152f35b839450600592610cd392879260ff9651948593849251928391610e2d565b82019081520301902001541690838080610caa565b8284346103a05760203660031901126103a05782356001600160401b0381116100e55760206106a392610d21610d349336908801610dd2565b9082865194838680955193849201610e2d565b82019081520301902091610d4783610eb0565b92610d5460018201610eb0565b9460ff60028301541660ff6005610d716003860154948601610eb0565b94015416935196879687610f9d565b60c081019081106001600160401b03821117610d9b57604052565b634e487b7160e01b600052604160045260246000fd5b90601f801991011681019081106001600160401b03821117610d9b57604052565b81601f82011215610e28578035906001600160401b038211610d9b5760405192610e06601f8401601f191660200185610db1565b82845260208383010111610e2857816000926020809301838601378301015290565b600080fd5b60005b838110610e405750506000910152565b8181015183820152602001610e30565b6020610e69918160405193828580945193849201610e2d565b8101600281520301902090565b90600182811c92168015610ea6575b6020831014610e9057565b634e487b7160e01b600052602260045260246000fd5b91607f1691610e85565b90604051918260008254610ec381610e76565b90818452602094600191600181169081600014610f335750600114610ef4575b505050610ef292500383610db1565b565b600090815285812095935091905b818310610f1b575050610ef29350820101388080610ee3565b85548884018501529485019487945091830191610f02565b92505050610ef294925060ff191682840152151560051b820101388080610ee3565b90602091610f6e81518092818552858086019101610e2d565b601f01601f1916010190565b906004821015610f875752565b634e487b7160e01b600052602160045260246000fd5b949093610fdb610fd0610fed9594610fc260a0989b9a9b60c08b5260c08b0190610f55565b9089820360208b0152610f55565b936040880190610f7a565b60608601528482036080860152610f55565b931515910152565b6001600160401b038111610d9b5760051b60200190565b81601f82011215610e285780359160209161102684610ff5565b936110346040519586610db1565b808552838086019160051b83010192808411610e2857848301915b84831061105f5750505050505090565b82356001600160401b038111610e2857869161108084848094890101610dd2565b81520192019161104f565b6003548110156110c25760036000527fc2575a0e9e593c00f959f8c92f12db2869c3395a3b0502d05e2516446f71f85b0190600090565b634e487b7160e01b600052603260045260246000fd5b6020808201906020835283518092526040830192602060408460051b8301019501936000915b84831061110e5750505050505090565b909192939495848061112c600193603f198682030187528a51610f55565b98019301930191949392906110fe565b80518210156110c25760209160051b010190565b61116890602060405192828480945193849201610e2d565b810103902090565b9061117a82610ff5565b6111876040519182610db1565b8281528092611198601f1991610ff5565b019060005b8281106111a957505050565b80606060208093850101520161119d565b156111c157565b60405162461bcd60e51b815260206004820152601260248201527149502063616e6e6f7420626520656d70747960701b6044820152606490fd5b6004821015610f875752565b9190820180921161121457565b634e487b7160e01b600052601160045260246000fd5b818110611235575050565b6000815560010161122a565b91909182516001600160401b038111610d9b5761125e8254610e76565b601f8111611309575b50602080601f83116001146112a4575081929394600092611299575b50508160011b916000199060031b1c1916179055565b015190503880611283565b90601f19831695846000526020600020926000905b8882106112f1575050836001959697106112d8575b505050811b019055565b015160001960f88460031b161c191690553880806112ce565b806001859682949686015181550195019301906112b9565b61133690836000526020600020601f840160051c8101916020851061133c575b601f0160051c019061122a565b38611267565b9091508190611329565b919061135557610ef291611241565b634e487b7160e01b600052600060045260246000fdfea164736f6c6343000818000a","opcodes":"PUSH1 0x80 DUP1 PUSH1 0x40 MSTORE CALLVALUE PUSH2 0x16 JUMPI PUSH2 0x1378 SWAP1 DUP2 PUSH2 0x1C DUP3 CODECOPY RETURN JUMPDEST PUSH1 0x0 DUP1 REVERT INVALID PUSH1 0x40 PUSH1 0x80 DUP2 MSTORE PUSH1 0x4 SWAP1 DUP2 CALLDATASIZE LT ISZERO PUSH2 0x15 JUMPI PUSH1 0x0 DUP1 REVERT JUMPDEST PUSH1 0x0 SWAP2 DUP3 CALLDATALOAD PUSH1 0xE0 SHR SWAP1 DUP2 PUSH4 0x149CDD99 EQ PUSH2 0xCE8 JUMPI DUP2 PUSH4 0x2A592CFF EQ PUSH2 0xC4B JUMPI DUP2 PUSH4 0x2EC920C9 EQ PUSH2 0xBEA JUMPI DUP2 PUSH4 0x387D1325 EQ PUSH2 0xA6B JUMPI DUP2 PUSH4 0x3DA195CC EQ PUSH2 0x344 JUMPI DUP2 PUSH4 0x4EE14A8D EQ PUSH2 0x995 JUMPI DUP2 PUSH4 0x52EEE69A EQ PUSH2 0x934 JUMPI DUP2 PUSH4 0x60B3F7CD EQ PUSH2 0x8BF JUMPI DUP2 PUSH4 0x87E7FF95 EQ PUSH2 0x826 JUMPI DUP2 PUSH4 0x9D55CB29 EQ PUSH2 0x73C JUMPI DUP2 PUSH4 0xA19B5F8D EQ PUSH2 0x64C JUMPI DUP2 PUSH4 0xB64A71E3 EQ PUSH2 0x3A3 JUMPI DUP2 PUSH4 0xB832717A EQ PUSH2 0x344 JUMPI DUP2 PUSH4 0xBD1CBFD5 EQ PUSH2 0xE9 JUMPI POP PUSH4 0xFA1E7394 EQ PUSH2 0xC8 JUMPI PUSH1 0x0 DUP1 REVERT JUMPDEST CALLVALUE PUSH2 0xE5 JUMPI DUP2 PUSH1 0x3 NOT CALLDATASIZE ADD SLT PUSH2 0xE5 JUMPI PUSH1 0x20 SWAP1 PUSH1 0x3 SLOAD SWAP1 MLOAD SWAP1 DUP2 MSTORE RETURN JUMPDEST POP DUP1 REVERT JUMPDEST DUP4 DUP4 CALLVALUE PUSH2 0xE5 JUMPI PUSH1 0x20 DUP1 PUSH1 0x3 NOT CALLDATASIZE ADD SLT PUSH2 0x340 JUMPI DUP4 CALLDATALOAD PUSH1 0x1 PUSH1 0x1 PUSH1 0x40 SHL SUB DUP2 GT PUSH2 0x33C JUMPI PUSH2 0x11A SWAP1 CALLDATASIZE SWAP1 DUP7 ADD PUSH2 0xDD2 JUMP JUMPDEST DUP3 MLOAD PUSH1 0x5 DUP3 MLOAD SWAP2 DUP5 DUP2 DUP2 DUP7 ADD SWAP5 PUSH2 0x132 DUP2 DUP4 DUP9 PUSH2 0xE2D JUMP JUMPDEST DUP2 ADD DUP10 DUP2 MSTORE SUB ADD SWAP1 KECCAK256 ADD PUSH1 0xFF NOT SWAP1 DUP2 DUP2 SLOAD AND SWAP1 SSTORE DUP5 MLOAD DUP5 DUP2 DUP6 MLOAD PUSH2 0x157 DUP2 DUP4 DUP9 PUSH2 0xE2D JUMP JUMPDEST DUP2 ADD PUSH1 0x1 DUP2 MSTORE SUB ADD SWAP1 KECCAK256 SWAP1 DUP2 SLOAD AND SWAP1 SSTORE DUP4 MLOAD DUP4 DUP2 DUP5 MLOAD PUSH2 0x178 DUP2 DUP4 DUP8 PUSH2 0xE2D JUMP JUMPDEST DUP2 ADD DUP10 DUP2 MSTORE SUB ADD SWAP1 KECCAK256 SLOAD DUP1 ISZERO ISZERO DUP1 PUSH2 0x330 JUMPI JUMPDEST PUSH2 0x1C6 JUMPI JUMPDEST POP POP SWAP1 PUSH2 0x1BD PUSH32 0xD06E35FAC876E69E0D720D375F7B4D852CEE07E4E59C9170CAD871F37BF81C9 SWAP3 PUSH2 0x1150 JUMP JUMPDEST SWAP3 MLOAD TIMESTAMP DUP2 MSTORE LOG2 DUP1 RETURN JUMPDEST PUSH1 0x3 SLOAD PUSH1 0x0 NOT SWAP2 SWAP1 DUP3 DUP2 ADD SWAP1 DUP2 GT PUSH2 0x31D JUMPI PUSH2 0x1E4 PUSH2 0x1EA SWAP2 PUSH2 0x108B JUMP JUMPDEST POP PUSH2 0xEB0 JUMP JUMPDEST DUP3 DUP3 ADD DUP3 DUP2 GT PUSH2 0x30A JUMPI DUP2 PUSH2 0x20C PUSH2 0x21E SWAP4 PUSH2 0x206 DUP11 SWAP5 PUSH2 0x108B JUMP JUMPDEST SWAP1 PUSH2 0x1346 JUMP JUMPDEST DUP2 DUP10 MLOAD SWAP4 DUP3 DUP6 DUP1 SWAP5 MLOAD SWAP4 DUP5 SWAP3 ADD PUSH2 0xE2D JUMP JUMPDEST DUP2 ADD DUP12 DUP2 MSTORE SUB ADD SWAP1 KECCAK256 SSTORE PUSH1 0x3 SLOAD DUP1 ISZERO PUSH2 0x2F7 JUMPI ADD PUSH2 0x23B DUP2 PUSH2 0x108B JUMP JUMPDEST PUSH2 0x2E5 JUMPI DUP5 PUSH2 0x1BD SWAP5 SWAP4 DUP9 SWAP10 DUP10 SWAP5 PUSH32 0xD06E35FAC876E69E0D720D375F7B4D852CEE07E4E59C9170CAD871F37BF81C9 SWAP10 SWAP11 DUP6 PUSH2 0x27A PUSH2 0x296 SWAP8 SLOAD PUSH2 0xE76 JUMP JUMPDEST DUP1 PUSH2 0x2A9 JUMPI JUMPDEST POP POP POP PUSH1 0x3 SSTORE DUP10 MLOAD DUP1 SWAP5 DUP2 SWAP4 DUP9 MLOAD SWAP3 DUP4 SWAP2 PUSH2 0xE2D JUMP JUMPDEST DUP3 ADD SWAP1 DUP2 MSTORE SUB ADD SWAP1 KECCAK256 SSTORE SWAP1 DUP6 SWAP5 SWAP4 PUSH2 0x190 JUMP JUMPDEST DUP3 PUSH1 0x1F DUP3 GT PUSH1 0x1 EQ PUSH2 0x2C1 JUMPI POP POP SSTORE JUMPDEST DUP6 DUP14 DUP1 PUSH2 0x280 JUMP JUMPDEST SWAP1 SWAP2 DUP1 DUP3 MSTORE PUSH2 0x2DE PUSH1 0x1F DUP10 DUP5 KECCAK256 SWAP5 ADD PUSH1 0x5 SHR DUP5 ADD PUSH1 0x1 DUP6 ADD PUSH2 0x122A JUMP JUMPDEST SSTORE SSTORE PUSH2 0x2B9 JUMP JUMPDEST PUSH4 0x4E487B71 PUSH1 0xE0 SHL DUP8 MSTORE DUP7 DUP9 MSTORE PUSH1 0x24 DUP8 REVERT JUMPDEST PUSH4 0x4E487B71 PUSH1 0xE0 SHL DUP8 MSTORE PUSH1 0x31 DUP9 MSTORE PUSH1 0x24 DUP8 REVERT JUMPDEST PUSH4 0x4E487B71 PUSH1 0xE0 SHL DUP10 MSTORE PUSH1 0x11 DUP11 MSTORE PUSH1 0x24 DUP10 REVERT JUMPDEST PUSH4 0x4E487B71 PUSH1 0xE0 SHL DUP9 MSTORE PUSH1 0x11 DUP10 MSTORE PUSH1 0x24 DUP9 REVERT JUMPDEST POP PUSH1 0x3 SLOAD DUP2 GT ISZERO PUSH2 0x18B JUMP JUMPDEST DUP4 DUP1 REVERT JUMPDEST DUP3 DUP1 REVERT JUMPDEST DUP3 DUP5 CALLVALUE PUSH2 0x3A0 JUMPI PUSH1 0x20 CALLDATASIZE PUSH1 0x3 NOT ADD SLT PUSH2 0x3A0 JUMPI DUP3 CALLDATALOAD SWAP1 PUSH1 0x1 PUSH1 0x1 PUSH1 0x40 SHL SUB DUP3 GT PUSH2 0x3A0 JUMPI POP PUSH1 0x20 PUSH2 0x37C DUP2 SWAP5 PUSH2 0x38E SWAP4 CALLDATASIZE SWAP2 ADD PUSH2 0xDD2 JUMP JUMPDEST DUP2 DUP5 MLOAD SWAP4 DUP3 DUP6 DUP1 SWAP5 MLOAD SWAP4 DUP5 SWAP3 ADD PUSH2 0xE2D JUMP JUMPDEST DUP2 ADD PUSH1 0x2 DUP2 MSTORE SUB ADD SWAP1 KECCAK256 SLOAD SWAP1 MLOAD SWAP1 DUP2 MSTORE RETURN JUMPDEST DUP1 REVERT JUMPDEST DUP4 DUP4 CALLVALUE PUSH2 0xE5 JUMPI PUSH1 0x60 CALLDATASIZE PUSH1 0x3 NOT ADD SLT PUSH2 0xE5 JUMPI PUSH1 0x1 PUSH1 0x1 PUSH1 0x40 SHL SUB SWAP1 DUP4 CALLDATALOAD DUP3 DUP2 GT PUSH2 0x33C JUMPI PUSH2 0x3D5 SWAP1 CALLDATASIZE SWAP1 DUP7 ADD PUSH2 0xDD2 JUMP JUMPDEST SWAP1 PUSH1 0x24 CALLDATALOAD SWAP2 DUP6 DUP4 LT ISZERO PUSH2 0x648 JUMPI PUSH1 0x44 CALLDATALOAD DUP5 DUP2 GT PUSH2 0x644 JUMPI PUSH2 0x3F9 SWAP1 CALLDATASIZE SWAP1 DUP9 ADD PUSH2 0xDD2 JUMP JUMPDEST SWAP1 PUSH2 0x406 DUP2 MLOAD ISZERO ISZERO PUSH2 0x11BA JUMP JUMPDEST DUP3 MLOAD PUSH2 0x411 DUP2 PUSH2 0xD80 JUMP JUMPDEST DUP2 DUP2 MSTORE DUP4 MLOAD PUSH1 0x20 SWAP7 DUP8 DUP3 ADD SWAP1 DUP2 GT DUP3 DUP3 LT OR PUSH2 0x631 JUMPI DUP6 MSTORE DUP8 DUP2 MSTORE DUP2 DUP8 ADD SWAP1 DUP2 MSTORE DUP7 SWAP2 DUP6 DUP2 ADD SWAP2 SWAP1 PUSH2 0x443 DUP9 DUP5 PUSH2 0x11FB JUMP JUMPDEST PUSH1 0x60 DUP2 ADD TIMESTAMP DUP2 MSTORE PUSH1 0x80 DUP3 ADD SWAP1 DUP8 DUP3 MSTORE PUSH1 0xA0 DUP4 ADD SWAP4 PUSH1 0x1 DUP6 MSTORE DUP13 DUP8 DUP12 MLOAD DUP1 SWAP3 DUP12 DUP3 DUP2 MLOAD SWAP13 DUP14 SWAP3 ADD SWAP13 PUSH2 0x474 SWAP2 DUP15 PUSH2 0xE2D JUMP JUMPDEST DUP3 ADD SWAP1 DUP2 MSTORE SUB ADD SWAP1 KECCAK256 SWAP4 MLOAD PUSH2 0x489 SWAP1 DUP6 PUSH2 0x1241 JUMP JUMPDEST MLOAD PUSH2 0x497 SWAP1 PUSH1 0x1 DUP6 ADD PUSH2 0x1241 JUMP JUMPDEST PUSH1 0x2 DUP4 ADD SWAP5 MLOAD SWAP5 DUP14 DUP7 LT ISZERO PUSH2 0x61D JUMPI SWAP2 PUSH2 0x4CD SWAP2 PUSH1 0x5 SWAP5 SWAP4 PUSH1 0xFF NOT SWAP8 PUSH1 0xFF DUP10 DUP4 SLOAD AND SWAP2 AND OR SWAP1 SSTORE MLOAD PUSH1 0x3 DUP5 ADD SSTORE MLOAD DUP14 DUP4 ADD PUSH2 0x1241 JUMP JUMPDEST ADD SWAP1 MLOAD ISZERO ISZERO PUSH1 0xFF DUP4 DUP4 SLOAD AND SWAP2 AND OR SWAP1 SSTORE PUSH1 0x1 DUP6 MLOAD DUP9 DUP2 DUP7 MLOAD PUSH2 0x4F0 DUP2 DUP4 DUP10 PUSH2 0xE2D JUMP JUMPDEST DUP2 ADD DUP5 DUP2 MSTORE SUB ADD SWAP1 KECCAK256 SWAP2 DUP3 SLOAD AND OR SWAP1 SSTORE DUP4 MLOAD DUP7 DUP2 DUP5 MLOAD PUSH2 0x511 DUP2 DUP4 DUP8 PUSH2 0xE2D JUMP JUMPDEST DUP2 ADD DUP12 DUP2 MSTORE SUB ADD SWAP1 KECCAK256 SLOAD ISZERO PUSH2 0x57C JUMPI JUMPDEST POP SWAP2 PUSH2 0x570 PUSH32 0x87BDC31B1BCEC98E3BCC912354B27EB9F24FB60E3C33A4995A4DC319640A452B SWAP5 SWAP3 PUSH1 0x60 PUSH2 0x557 PUSH2 0x563 SWAP7 PUSH2 0x1150 JUMP JUMPDEST SWAP8 DUP5 MLOAD SWAP7 DUP8 DUP1 SWAP8 PUSH2 0xF7A JUMP JUMPDEST DUP6 ADD MSTORE PUSH1 0x60 DUP5 ADD SWAP1 PUSH2 0xF55 JUMP JUMPDEST SWAP1 TIMESTAMP SWAP1 DUP4 ADD MSTORE SUB SWAP1 LOG2 DUP1 RETURN JUMPDEST PUSH1 0x3 SLOAD PUSH9 0x10000000000000000 DUP2 LT ISZERO PUSH2 0x60A JUMPI PUSH2 0x557 DUP4 DUP9 SWAP10 SWAP11 PUSH2 0x5F0 PUSH32 0x87BDC31B1BCEC98E3BCC912354B27EB9F24FB60E3C33A4995A4DC319640A452B SWAP11 PUSH2 0x563 SWAP11 SWAP10 SWAP9 SWAP7 PUSH2 0x5DC PUSH2 0x570 SWAP10 PUSH2 0x206 DUP10 PUSH1 0x1 PUSH1 0x60 SWAP12 ADD PUSH1 0x3 SSTORE PUSH2 0x108B JUMP JUMPDEST PUSH1 0x3 SLOAD SWAP4 DUP11 MLOAD DUP1 SWAP5 DUP2 SWAP4 DUP9 MLOAD SWAP3 DUP4 SWAP2 PUSH2 0xE2D JUMP JUMPDEST DUP3 ADD SWAP1 DUP2 MSTORE SUB ADD SWAP1 KECCAK256 SSTORE SWAP4 POP POP POP SWAP2 SWAP3 SWAP4 DUP8 SWAP7 SWAP6 POP PUSH2 0x521 JUMP JUMPDEST PUSH4 0x4E487B71 PUSH1 0xE0 SHL DUP9 MSTORE PUSH1 0x41 DUP10 MSTORE PUSH1 0x24 DUP9 REVERT JUMPDEST POP PUSH4 0x4E487B71 PUSH1 0xE0 SHL DUP13 MSTORE PUSH1 0x21 DUP14 MSTORE PUSH1 0x24 DUP13 REVERT JUMPDEST PUSH4 0x4E487B71 PUSH1 0xE0 SHL DUP10 MSTORE PUSH1 0x41 DUP11 MSTORE PUSH1 0x24 DUP10 REVERT JUMPDEST DUP6 DUP1 REVERT JUMPDEST DUP5 DUP1 REVERT JUMPDEST DUP4 DUP4 CALLVALUE PUSH2 0xE5 JUMPI DUP1 PUSH1 0x3 NOT CALLDATASIZE ADD SLT PUSH2 0xE5 JUMPI DUP3 CALLDATALOAD SWAP3 PUSH1 0x24 CALLDATALOAD SWAP1 PUSH1 0x3 SLOAD SWAP1 DUP2 DUP7 LT ISZERO PUSH2 0x702 JUMPI DUP2 PUSH2 0x67C DUP5 DUP9 PUSH2 0x1207 JUMP JUMPDEST GT PUSH2 0x6DB JUMPI JUMPDEST POP POP PUSH2 0x68D DUP2 PUSH2 0x1170 JUMP JUMPDEST SWAP3 JUMPDEST DUP2 DUP2 LT PUSH2 0x6A7 JUMPI DUP3 MLOAD DUP1 PUSH2 0x6A3 DUP7 DUP3 PUSH2 0x10D8 JUMP JUMPDEST SUB SWAP1 RETURN JUMPDEST DUP1 PUSH2 0x6BF PUSH2 0x1E4 PUSH2 0x6BA PUSH1 0x1 SWAP5 DUP10 PUSH2 0x1207 JUMP JUMPDEST PUSH2 0x108B JUMP JUMPDEST PUSH2 0x6C9 DUP3 DUP8 PUSH2 0x113C JUMP JUMPDEST MSTORE PUSH2 0x6D4 DUP2 DUP7 PUSH2 0x113C JUMP JUMPDEST POP ADD PUSH2 0x68F JUMP JUMPDEST DUP6 DUP3 SUB SWAP3 POP SWAP1 DUP3 GT PUSH2 0x6EF JUMPI POP DUP5 DUP1 PUSH2 0x682 JUMP JUMPDEST PUSH4 0x4E487B71 PUSH1 0xE0 SHL DUP5 MSTORE PUSH1 0x11 SWAP1 MSTORE PUSH1 0x24 DUP4 REVERT JUMPDEST PUSH1 0x64 SWAP1 PUSH1 0x20 DUP6 MLOAD SWAP2 PUSH3 0x461BCD PUSH1 0xE5 SHL DUP4 MSTORE DUP3 ADD MSTORE PUSH1 0x14 PUSH1 0x24 DUP3 ADD MSTORE PUSH20 0x4F6666736574206F7574206F6620626F756E6473 PUSH1 0x60 SHL PUSH1 0x44 DUP3 ADD MSTORE REVERT JUMPDEST DUP4 DUP4 CALLVALUE PUSH2 0xE5 JUMPI PUSH1 0x20 CALLDATASIZE PUSH1 0x3 NOT ADD SLT PUSH2 0xE5 JUMPI DUP3 CALLDATALOAD PUSH1 0x1 PUSH1 0x1 PUSH1 0x40 SHL SUB DUP2 GT PUSH2 0x340 JUMPI PUSH1 0x20 PUSH2 0x37C PUSH2 0x771 SWAP3 CALLDATASIZE SWAP1 DUP8 ADD PUSH2 0xDD2 JUMP JUMPDEST DUP2 ADD DUP6 DUP2 MSTORE SUB ADD SWAP1 KECCAK256 SWAP1 DUP1 MLOAD PUSH2 0x786 DUP2 PUSH2 0xD80 JUMP JUMPDEST PUSH2 0x78F DUP4 PUSH2 0xEB0 JUMP JUMPDEST DUP2 MSTORE PUSH2 0x79D PUSH1 0x1 DUP5 ADD PUSH2 0xEB0 JUMP JUMPDEST SWAP3 PUSH1 0x20 DUP3 ADD SWAP4 DUP5 MSTORE PUSH1 0xFF PUSH1 0x2 DUP3 ADD SLOAD AND SWAP5 PUSH2 0x7BB DUP5 DUP5 ADD SWAP7 DUP8 PUSH2 0x11FB JUMP JUMPDEST PUSH1 0x3 DUP3 ADD SLOAD PUSH1 0x60 DUP5 ADD SWAP1 DUP2 MSTORE PUSH1 0xFF PUSH1 0x5 PUSH2 0x7D6 DUP11 DUP7 ADD PUSH2 0xEB0 JUMP JUMPDEST SWAP5 PUSH1 0x80 DUP8 ADD SWAP6 DUP7 MSTORE ADD SLOAD AND SWAP4 PUSH1 0xA0 DUP2 ADD SWAP5 ISZERO ISZERO DUP6 MSTORE MLOAD SWAP6 MLOAD SWAP7 MLOAD SWAP2 DUP9 DUP4 LT ISZERO PUSH2 0x813 JUMPI POP PUSH2 0x6A3 SWAP6 SWAP7 SWAP8 POP MLOAD SWAP2 MLOAD SWAP3 MLOAD ISZERO ISZERO SWAP4 MLOAD SWAP7 DUP8 SWAP7 DUP8 PUSH2 0xF9D JUMP JUMPDEST PUSH4 0x4E487B71 PUSH1 0xE0 SHL DUP2 MSTORE PUSH1 0x21 DUP10 MSTORE PUSH1 0x24 SWAP1 REVERT JUMPDEST SWAP1 POP CALLVALUE PUSH2 0x340 JUMPI DUP2 PUSH1 0x3 NOT CALLDATASIZE ADD SLT PUSH2 0x340 JUMPI DUP1 CALLDATALOAD PUSH1 0x1 PUSH1 0x1 PUSH1 0x40 SHL SUB DUP2 GT PUSH2 0x33C JUMPI PUSH32 0x40C5EEA1C520C4788ADB7B4A4AFE6FE8154919B4256274796CCA5F0509AF8417 SWAP2 PUSH2 0x876 SWAP2 CALLDATASIZE SWAP2 ADD PUSH2 0xDD2 JUMP JUMPDEST SWAP2 PUSH2 0x8AF PUSH1 0x24 CALLDATALOAD SWAP4 PUSH2 0x88A DUP2 MLOAD ISZERO ISZERO PUSH2 0x11BA JUMP JUMPDEST DUP5 DUP4 MLOAD PUSH1 0x20 DUP2 DUP5 MLOAD PUSH2 0x89F DUP2 DUP4 DUP6 DUP10 ADD PUSH2 0xE2D JUMP JUMPDEST DUP2 ADD PUSH1 0x2 DUP2 MSTORE SUB ADD SWAP1 KECCAK256 SSTORE PUSH2 0x1150 JUMP JUMPDEST SWAP3 DUP2 MLOAD SWAP1 DUP2 MSTORE TIMESTAMP PUSH1 0x20 DUP3 ADD MSTORE LOG2 DUP1 RETURN JUMPDEST DUP4 SWAP2 POP CALLVALUE PUSH2 0xE5 JUMPI PUSH1 0x20 CALLDATASIZE PUSH1 0x3 NOT ADD SLT PUSH2 0xE5 JUMPI CALLDATALOAD SWAP2 PUSH1 0x3 SLOAD SWAP3 DUP4 DUP2 LT PUSH2 0x92C JUMPI JUMPDEST POP PUSH2 0x8EB DUP4 PUSH2 0x1170 JUMP JUMPDEST SWAP2 JUMPDEST DUP4 DUP2 LT PUSH2 0x901 JUMPI DUP2 MLOAD DUP1 PUSH2 0x6A3 DUP6 DUP3 PUSH2 0x10D8 JUMP JUMPDEST DUP1 PUSH2 0x910 PUSH2 0x1E4 PUSH1 0x1 SWAP4 PUSH2 0x108B JUMP JUMPDEST PUSH2 0x91A DUP3 DUP7 PUSH2 0x113C JUMP JUMPDEST MSTORE PUSH2 0x925 DUP2 DUP6 PUSH2 0x113C JUMP JUMPDEST POP ADD PUSH2 0x8ED JUMP JUMPDEST SWAP3 POP DUP4 PUSH2 0x8E1 JUMP JUMPDEST DUP3 DUP5 CALLVALUE PUSH2 0x3A0 JUMPI PUSH1 0x20 CALLDATASIZE PUSH1 0x3 NOT ADD SLT PUSH2 0x3A0 JUMPI DUP3 CALLDATALOAD PUSH1 0x3 SLOAD DUP2 LT ISZERO PUSH2 0xE5 JUMPI PUSH2 0x95C SWAP1 PUSH2 0x108B JUMP JUMPDEST SWAP4 SWAP1 SWAP4 PUSH2 0x983 JUMPI PUSH2 0x6A3 DUP4 PUSH2 0x970 DUP7 PUSH2 0xEB0 JUMP JUMPDEST SWAP1 MLOAD SWAP2 DUP3 SWAP2 PUSH1 0x20 DUP4 MSTORE PUSH1 0x20 DUP4 ADD SWAP1 PUSH2 0xF55 JUMP JUMPDEST PUSH4 0x4E487B71 PUSH1 0xE0 SHL DUP3 MSTORE DUP2 SWAP1 MSTORE PUSH1 0x24 SWAP1 REVERT JUMPDEST DUP4 SWAP2 POP CALLVALUE PUSH2 0xE5 JUMPI PUSH1 0x20 SWAP1 DUP2 PUSH1 0x3 NOT CALLDATASIZE ADD SLT PUSH2 0x340 JUMPI DUP1 CALLDATALOAD PUSH1 0x1 PUSH1 0x1 PUSH1 0x40 SHL SUB DUP2 GT PUSH2 0x33C JUMPI PUSH2 0x9C7 SWAP2 CALLDATASIZE SWAP2 ADD PUSH2 0x100C JUMP JUMPDEST SWAP3 DUP4 MLOAD SWAP2 PUSH2 0x9EC PUSH2 0x9D7 DUP5 PUSH2 0xFF5 JUMP JUMPDEST SWAP4 PUSH2 0x9E4 DUP5 MLOAD SWAP6 DUP7 PUSH2 0xDB1 JUMP JUMPDEST DUP1 DUP6 MSTORE PUSH2 0xFF5 JUMP JUMPDEST DUP4 DUP3 ADD SWAP2 SWAP1 PUSH1 0x1F NOT ADD CALLDATASIZE DUP4 CALLDATACOPY DUP5 JUMPDEST DUP7 MLOAD DUP2 LT ISZERO PUSH2 0xA2B JUMPI DUP1 PUSH2 0xA19 PUSH2 0xA13 PUSH1 0x1 SWAP4 DUP11 PUSH2 0x113C JUMP JUMPDEST MLOAD PUSH2 0xE50 JUMP JUMPDEST SLOAD PUSH2 0xA24 DUP3 DUP9 PUSH2 0x113C JUMP JUMPDEST MSTORE ADD PUSH2 0x9FA JUMP JUMPDEST POP SWAP2 SWAP1 DUP5 DUP5 DUP4 MLOAD SWAP5 DUP6 SWAP5 DUP2 DUP7 ADD SWAP3 DUP3 DUP8 MSTORE MLOAD DUP1 SWAP4 MSTORE DUP6 ADD SWAP4 SWAP3 JUMPDEST DUP3 DUP2 LT PUSH2 0xA54 JUMPI POP POP POP POP SUB SWAP1 RETURN JUMPDEST DUP4 MLOAD DUP6 MSTORE DUP7 SWAP6 POP SWAP4 DUP2 ADD SWAP4 SWAP3 DUP2 ADD SWAP3 PUSH1 0x1 ADD PUSH2 0xA45 JUMP JUMPDEST DUP4 SWAP2 POP CALLVALUE PUSH2 0xE5 JUMPI DUP3 PUSH1 0x3 NOT CALLDATASIZE ADD SLT PUSH2 0xE5 JUMPI PUSH1 0x1 PUSH1 0x1 PUSH1 0x40 SHL SUB DUP2 CALLDATALOAD DUP2 DUP2 GT PUSH2 0x33C JUMPI PUSH2 0xA9C SWAP1 CALLDATASIZE SWAP1 DUP5 ADD PUSH2 0x100C JUMP JUMPDEST PUSH1 0x24 CALLDATALOAD SWAP2 DUP3 GT PUSH2 0x33C JUMPI CALLDATASIZE PUSH1 0x23 DUP4 ADD SLT ISZERO PUSH2 0x33C JUMPI DUP2 DUP4 ADD CALLDATALOAD SWAP3 PUSH2 0xABF DUP5 PUSH2 0xFF5 JUMP JUMPDEST SWAP3 PUSH2 0xACC DUP8 MLOAD SWAP5 DUP6 PUSH2 0xDB1 JUMP JUMPDEST DUP5 DUP5 MSTORE PUSH1 0x20 SWAP5 PUSH1 0x24 PUSH1 0x20 DUP7 ADD SWAP2 PUSH1 0x5 SHL DUP4 ADD ADD SWAP2 CALLDATASIZE DUP4 GT PUSH2 0xBE6 JUMPI PUSH1 0x24 DUP8 SWAP2 ADD SWAP2 JUMPDEST DUP4 DUP4 LT PUSH2 0xBD6 JUMPI POP POP POP POP DUP2 MLOAD DUP4 MLOAD SUB PUSH2 0xB81 JUMPI POP DUP4 JUMPDEST DUP2 MLOAD DUP2 LT ISZERO PUSH2 0xB7D JUMPI DUP1 PUSH2 0xB1B PUSH1 0x1 SWAP3 DUP6 PUSH2 0x113C JUMP JUMPDEST MLOAD PUSH2 0xB29 PUSH2 0xA13 DUP4 DUP7 PUSH2 0x113C JUMP JUMPDEST SSTORE PUSH2 0xB34 DUP2 DUP5 PUSH2 0x113C JUMP JUMPDEST MLOAD PUSH32 0x40C5EEA1C520C4788ADB7B4A4AFE6FE8154919B4256274796CCA5F0509AF8417 DUP9 PUSH2 0xB6B PUSH2 0xB64 DUP6 DUP10 PUSH2 0x113C JUMP JUMPDEST MLOAD SWAP4 PUSH2 0x1150 JUMP JUMPDEST SWAP3 DUP2 MLOAD SWAP1 DUP2 MSTORE TIMESTAMP DUP10 DUP3 ADD MSTORE LOG2 ADD PUSH2 0xB05 JUMP JUMPDEST DUP5 DUP1 RETURN JUMPDEST PUSH1 0x84 SWAP1 PUSH1 0x20 DUP8 MLOAD SWAP2 PUSH3 0x461BCD PUSH1 0xE5 SHL DUP4 MSTORE DUP3 ADD MSTORE PUSH1 0x29 PUSH1 0x24 DUP3 ADD MSTORE PUSH32 0x495020616E642073636F726520617272617973206D7573742068617665207361 PUSH1 0x44 DUP3 ADD MSTORE PUSH9 0xDACA40D8CADCCEE8D PUSH1 0xBB SHL PUSH1 0x64 DUP3 ADD MSTORE REVERT JUMPDEST DUP3 CALLDATALOAD DUP2 MSTORE SWAP2 DUP2 ADD SWAP2 DUP8 SWAP2 ADD PUSH2 0xAEE JUMP JUMPDEST DUP8 DUP1 REVERT JUMPDEST DUP3 DUP5 CALLVALUE PUSH2 0x3A0 JUMPI PUSH1 0x20 CALLDATASIZE PUSH1 0x3 NOT ADD SLT PUSH2 0x3A0 JUMPI DUP3 CALLDATALOAD SWAP1 PUSH1 0x1 PUSH1 0x1 PUSH1 0x40 SHL SUB DUP3 GT PUSH2 0x3A0 JUMPI POP PUSH2 0xC36 PUSH1 0x20 PUSH2 0xC24 DUP2 SWAP6 PUSH1 0xFF SWAP5 CALLDATASIZE SWAP2 ADD PUSH2 0xDD2 JUMP JUMPDEST DUP2 DUP6 MLOAD SWAP4 DUP3 DUP6 DUP1 SWAP5 MLOAD SWAP4 DUP5 SWAP3 ADD PUSH2 0xE2D JUMP JUMPDEST DUP2 ADD PUSH1 0x1 DUP2 MSTORE SUB ADD SWAP1 KECCAK256 SLOAD AND SWAP1 MLOAD SWAP1 ISZERO ISZERO DUP2 MSTORE RETURN JUMPDEST DUP4 DUP4 CALLVALUE PUSH2 0xE5 JUMPI PUSH1 0x20 CALLDATASIZE PUSH1 0x3 NOT ADD SLT PUSH2 0xE5 JUMPI DUP3 CALLDATALOAD PUSH1 0x1 PUSH1 0x1 PUSH1 0x40 SHL SUB DUP2 GT PUSH2 0x340 JUMPI PUSH1 0x20 SWAP4 PUSH2 0xC7D SWAP2 CALLDATASIZE SWAP2 ADD PUSH2 0xDD2 JUMP JUMPDEST SWAP2 DUP2 MLOAD SWAP1 PUSH1 0xFF DUP5 MLOAD SWAP3 DUP7 DUP2 DUP2 DUP9 ADD SWAP6 PUSH2 0xC97 DUP2 DUP4 DUP10 PUSH2 0xE2D JUMP JUMPDEST DUP2 ADD PUSH1 0x1 DUP2 MSTORE SUB ADD SWAP1 KECCAK256 SLOAD AND SWAP4 DUP5 PUSH2 0xCB5 JUMPI JUMPDEST POP POP POP MLOAD SWAP1 ISZERO ISZERO DUP2 MSTORE RETURN JUMPDEST DUP4 SWAP5 POP PUSH1 0x5 SWAP3 PUSH2 0xCD3 SWAP3 DUP8 SWAP3 PUSH1 0xFF SWAP7 MLOAD SWAP5 DUP6 SWAP4 DUP5 SWAP3 MLOAD SWAP3 DUP4 SWAP2 PUSH2 0xE2D JUMP JUMPDEST DUP3 ADD SWAP1 DUP2 MSTORE SUB ADD SWAP1 KECCAK256 ADD SLOAD AND SWAP1 DUP4 DUP1 DUP1 PUSH2 0xCAA JUMP JUMPDEST DUP3 DUP5 CALLVALUE PUSH2 0x3A0 JUMPI PUSH1 0x20 CALLDATASIZE PUSH1 0x3 NOT ADD SLT PUSH2 0x3A0 JUMPI DUP3 CALLDATALOAD PUSH1 0x1 PUSH1 0x1 PUSH1 0x40 SHL SUB DUP2 GT PUSH2 0xE5 JUMPI PUSH1 0x20 PUSH2 0x6A3 SWAP3 PUSH2 0xD21 PUSH2 0xD34 SWAP4 CALLDATASIZE SWAP1 DUP9 ADD PUSH2 0xDD2 JUMP JUMPDEST SWAP1 DUP3 DUP7 MLOAD SWAP5 DUP4 DUP7 DUP1 SWAP6 MLOAD SWAP4 DUP5 SWAP3 ADD PUSH2 0xE2D JUMP JUMPDEST DUP3 ADD SWAP1 DUP2 MSTORE SUB ADD SWAP1 KECCAK256 SWAP2 PUSH2 0xD47 DUP4 PUSH2 0xEB0 JUMP JUMPDEST SWAP3 PUSH2 0xD54 PUSH1 0x1 DUP3 ADD PUSH2 0xEB0 JUMP JUMPDEST SWAP5 PUSH1 0xFF PUSH1 0x2 DUP4 ADD SLOAD AND PUSH1 0xFF PUSH1 0x5 PUSH2 0xD71 PUSH1 0x3 DUP7 ADD SLOAD SWAP5 DUP7 ADD PUSH2 0xEB0 JUMP JUMPDEST SWAP5 ADD SLOAD AND SWAP4 MLOAD SWAP7 DUP8 SWAP7 DUP8 PUSH2 0xF9D JUMP JUMPDEST PUSH1 0xC0 DUP2 ADD SWAP1 DUP2 LT PUSH1 0x1 PUSH1 0x1 PUSH1 0x40 SHL SUB DUP3 GT OR PUSH2 0xD9B JUMPI PUSH1 0x40 MSTORE JUMP JUMPDEST PUSH4 0x4E487B71 PUSH1 0xE0 SHL PUSH1 0x0 MSTORE PUSH1 0x41 PUSH1 0x4 MSTORE PUSH1 0x24 PUSH1 0x0 REVERT JUMPDEST SWAP1 PUSH1 0x1F DUP1 NOT SWAP2 ADD AND DUP2 ADD SWAP1 DUP2 LT PUSH1 0x1 PUSH1 0x1 PUSH1 0x40 SHL SUB DUP3 GT OR PUSH2 0xD9B JUMPI PUSH1 0x40 MSTORE JUMP JUMPDEST DUP2 PUSH1 0x1F DUP3 ADD SLT ISZERO PUSH2 0xE28 JUMPI DUP1 CALLDATALOAD SWAP1 PUSH1 0x1 PUSH1 0x1 PUSH1 0x40 SHL SUB DUP3 GT PUSH2 0xD9B JUMPI PUSH1 0x40 MLOAD SWAP3 PUSH2 0xE06 PUSH1 0x1F DUP5 ADD PUSH1 0x1F NOT AND PUSH1 0x20 ADD DUP6 PUSH2 0xDB1 JUMP JUMPDEST DUP3 DUP5 MSTORE PUSH1 0x20 DUP4 DUP4 ADD ADD GT PUSH2 0xE28 JUMPI DUP2 PUSH1 0x0 SWAP3 PUSH1 0x20 DUP1 SWAP4 ADD DUP4 DUP7 ADD CALLDATACOPY DUP4 ADD ADD MSTORE SWAP1 JUMP JUMPDEST PUSH1 0x0 DUP1 REVERT JUMPDEST PUSH1 0x0 JUMPDEST DUP4 DUP2 LT PUSH2 0xE40 JUMPI POP POP PUSH1 0x0 SWAP2 ADD MSTORE JUMP JUMPDEST DUP2 DUP2 ADD MLOAD DUP4 DUP3 ADD MSTORE PUSH1 0x20 ADD PUSH2 0xE30 JUMP JUMPDEST PUSH1 0x20 PUSH2 0xE69 SWAP2 DUP2 PUSH1 0x40 MLOAD SWAP4 DUP3 DUP6 DUP1 SWAP5 MLOAD SWAP4 DUP5 SWAP3 ADD PUSH2 0xE2D JUMP JUMPDEST DUP2 ADD PUSH1 0x2 DUP2 MSTORE SUB ADD SWAP1 KECCAK256 SWAP1 JUMP JUMPDEST SWAP1 PUSH1 0x1 DUP3 DUP2 SHR SWAP3 AND DUP1 ISZERO PUSH2 0xEA6 JUMPI JUMPDEST PUSH1 0x20 DUP4 LT EQ PUSH2 0xE90 JUMPI JUMP JUMPDEST PUSH4 0x4E487B71 PUSH1 0xE0 SHL PUSH1 0x0 MSTORE PUSH1 0x22 PUSH1 0x4 MSTORE PUSH1 0x24 PUSH1 0x0 REVERT JUMPDEST SWAP2 PUSH1 0x7F AND SWAP2 PUSH2 0xE85 JUMP JUMPDEST SWAP1 PUSH1 0x40 MLOAD SWAP2 DUP3 PUSH1 0x0 DUP3 SLOAD PUSH2 0xEC3 DUP2 PUSH2 0xE76 JUMP JUMPDEST SWAP1 DUP2 DUP5 MSTORE PUSH1 0x20 SWAP5 PUSH1 0x1 SWAP2 PUSH1 0x1 DUP2 AND SWAP1 DUP2 PUSH1 0x0 EQ PUSH2 0xF33 JUMPI POP PUSH1 0x1 EQ PUSH2 0xEF4 JUMPI JUMPDEST POP POP POP PUSH2 0xEF2 SWAP3 POP SUB DUP4 PUSH2 0xDB1 JUMP JUMPDEST JUMP JUMPDEST PUSH1 0x0 SWAP1 DUP2 MSTORE DUP6 DUP2 KECCAK256 SWAP6 SWAP4 POP SWAP2 SWAP1 JUMPDEST DUP2 DUP4 LT PUSH2 0xF1B JUMPI POP POP PUSH2 0xEF2 SWAP4 POP DUP3 ADD ADD CODESIZE DUP1 DUP1 PUSH2 0xEE3 JUMP JUMPDEST DUP6 SLOAD DUP9 DUP5 ADD DUP6 ADD MSTORE SWAP5 DUP6 ADD SWAP5 DUP8 SWAP5 POP SWAP2 DUP4 ADD SWAP2 PUSH2 0xF02 JUMP JUMPDEST SWAP3 POP POP POP PUSH2 0xEF2 SWAP5 SWAP3 POP PUSH1 0xFF NOT AND DUP3 DUP5 ADD MSTORE ISZERO ISZERO PUSH1 0x5 SHL DUP3 ADD ADD CODESIZE DUP1 DUP1 PUSH2 0xEE3 JUMP JUMPDEST SWAP1 PUSH1 0x20 SWAP2 PUSH2 0xF6E DUP2 MLOAD DUP1 SWAP3 DUP2 DUP6 MSTORE DUP6 DUP1 DUP7 ADD SWAP2 ADD PUSH2 0xE2D JUMP JUMPDEST PUSH1 0x1F ADD PUSH1 0x1F NOT AND ADD ADD SWAP1 JUMP JUMPDEST SWAP1 PUSH1 0x4 DUP3 LT ISZERO PUSH2 0xF87 JUMPI MSTORE JUMP JUMPDEST PUSH4 0x4E487B71 PUSH1 0xE0 SHL PUSH1 0x0 MSTORE PUSH1 0x21 PUSH1 0x4 MSTORE PUSH1 0x24 PUSH1 0x0 REVERT JUMPDEST SWAP5 SWAP1 SWAP4 PUSH2 0xFDB PUSH2 0xFD0 PUSH2 0xFED SWAP6 SWAP5 PUSH2 0xFC2 PUSH1 0xA0 SWAP9 SWAP12 SWAP11 SWAP12 PUSH1 0xC0 DUP12 MSTORE PUSH1 0xC0 DUP12 ADD SWAP1 PUSH2 0xF55 JUMP JUMPDEST SWAP1 DUP10 DUP3 SUB PUSH1 0x20 DUP12 ADD MSTORE PUSH2 0xF55 JUMP JUMPDEST SWAP4 PUSH1 0x40 DUP9 ADD SWAP1 PUSH2 0xF7A JUMP JUMPDEST PUSH1 0x60 DUP7 ADD MSTORE DUP5 DUP3 SUB PUSH1 0x80 DUP7 ADD MSTORE PUSH2 0xF55 JUMP JUMPDEST SWAP4 ISZERO ISZERO SWAP2 ADD MSTORE JUMP JUMPDEST PUSH1 0x1 PUSH1 0x1 PUSH1 0x40 SHL SUB DUP2 GT PUSH2 0xD9B JUMPI PUSH1 0x5 SHL PUSH1 0x20 ADD SWAP1 JUMP JUMPDEST DUP2 PUSH1 0x1F DUP3 ADD SLT ISZERO PUSH2 0xE28 JUMPI DUP1 CALLDATALOAD SWAP2 PUSH1 0x20 SWAP2 PUSH2 0x1026 DUP5 PUSH2 0xFF5 JUMP JUMPDEST SWAP4 PUSH2 0x1034 PUSH1 0x40 MLOAD SWAP6 DUP7 PUSH2 0xDB1 JUMP JUMPDEST DUP1 DUP6 MSTORE DUP4 DUP1 DUP7 ADD SWAP2 PUSH1 0x5 SHL DUP4 ADD ADD SWAP3 DUP1 DUP5 GT PUSH2 0xE28 JUMPI DUP5 DUP4 ADD SWAP2 JUMPDEST DUP5 DUP4 LT PUSH2 0x105F JUMPI POP POP POP POP POP POP SWAP1 JUMP JUMPDEST DUP3 CALLDATALOAD PUSH1 0x1 PUSH1 0x1 PUSH1 0x40 SHL SUB DUP2 GT PUSH2 0xE28 JUMPI DUP7 SWAP2 PUSH2 0x1080 DUP5 DUP5 DUP1 SWAP5 DUP10 ADD ADD PUSH2 0xDD2 JUMP JUMPDEST DUP2 MSTORE ADD SWAP3 ADD SWAP2 PUSH2 0x104F JUMP JUMPDEST PUSH1 0x3 SLOAD DUP2 LT ISZERO PUSH2 0x10C2 JUMPI PUSH1 0x3 PUSH1 0x0 MSTORE PUSH32 0xC2575A0E9E593C00F959F8C92F12DB2869C3395A3B0502D05E2516446F71F85B ADD SWAP1 PUSH1 0x0 SWAP1 JUMP JUMPDEST PUSH4 0x4E487B71 PUSH1 0xE0 SHL PUSH1 0x0 MSTORE PUSH1 0x32 PUSH1 0x4 MSTORE PUSH1 0x24 PUSH1 0x0 REVERT JUMPDEST PUSH1 0x20 DUP1 DUP3 ADD SWAP1 PUSH1 0x20 DUP4 MSTORE DUP4 MLOAD DUP1 SWAP3 MSTORE PUSH1 0x40 DUP4 ADD SWAP3 PUSH1 0x20 PUSH1 0x40 DUP5 PUSH1 0x5 SHL DUP4 ADD ADD SWAP6 ADD SWAP4 PUSH1 0x0 SWAP2 JUMPDEST DUP5 DUP4 LT PUSH2 0x110E JUMPI POP POP POP POP POP POP SWAP1 JUMP JUMPDEST SWAP1 SWAP2 SWAP3 SWAP4 SWAP5 SWAP6 DUP5 DUP1 PUSH2 0x112C PUSH1 0x1 SWAP4 PUSH1 0x3F NOT DUP7 DUP3 SUB ADD DUP8 MSTORE DUP11 MLOAD PUSH2 0xF55 JUMP JUMPDEST SWAP9 ADD SWAP4 ADD SWAP4 ADD SWAP2 SWAP5 SWAP4 SWAP3 SWAP1 PUSH2 0x10FE JUMP JUMPDEST DUP1 MLOAD DUP3 LT ISZERO PUSH2 0x10C2 JUMPI PUSH1 0x20 SWAP2 PUSH1 0x5 SHL ADD ADD SWAP1 JUMP JUMPDEST PUSH2 0x1168 SWAP1 PUSH1 0x20 PUSH1 0x40 MLOAD SWAP3 DUP3 DUP5 DUP1 SWAP5 MLOAD SWAP4 DUP5 SWAP3 ADD PUSH2 0xE2D JUMP JUMPDEST DUP2 ADD SUB SWAP1 KECCAK256 SWAP1 JUMP JUMPDEST SWAP1 PUSH2 0x117A DUP3 PUSH2 0xFF5 JUMP JUMPDEST PUSH2 0x1187 PUSH1 0x40 MLOAD SWAP2 DUP3 PUSH2 0xDB1 JUMP JUMPDEST DUP3 DUP2 MSTORE DUP1 SWAP3 PUSH2 0x1198 PUSH1 0x1F NOT SWAP2 PUSH2 0xFF5 JUMP JUMPDEST ADD SWAP1 PUSH1 0x0 JUMPDEST DUP3 DUP2 LT PUSH2 0x11A9 JUMPI POP POP POP JUMP JUMPDEST DUP1 PUSH1 0x60 PUSH1 0x20 DUP1 SWAP4 DUP6 ADD ADD MSTORE ADD PUSH2 0x119D JUMP JUMPDEST ISZERO PUSH2 0x11C1 JUMPI JUMP JUMPDEST PUSH1 0x40 MLOAD PUSH3 0x461BCD PUSH1 0xE5 SHL DUP2 MSTORE PUSH1 0x20 PUSH1 0x4 DUP3 ADD MSTORE PUSH1 0x12 PUSH1 0x24 DUP3 ADD MSTORE PUSH18 0x49502063616E6E6F7420626520656D707479 PUSH1 0x70 SHL PUSH1 0x44 DUP3 ADD MSTORE PUSH1 0x64 SWAP1 REVERT JUMPDEST PUSH1 0x4 DUP3 LT ISZERO PUSH2 0xF87 JUMPI MSTORE JUMP JUMPDEST SWAP2 SWAP1 DUP3 ADD DUP1 SWAP3 GT PUSH2 0x1214 JUMPI JUMP JUMPDEST PUSH4 0x4E487B71 PUSH1 0xE0 SHL PUSH1 0x0 MSTORE PUSH1 0x11 PUSH1 0x4 MSTORE PUSH1 0x24 PUSH1 0x0 REVERT JUMPDEST DUP2 DUP2 LT PUSH2 0x1235 JUMPI POP POP JUMP JUMPDEST PUSH1 0x0 DUP2 SSTORE PUSH1 0x1 ADD PUSH2 0x122A JUMP JUMPDEST SWAP2 SWAP1 SWAP2 DUP3 MLOAD PUSH1 0x1 PUSH1 0x1 PUSH1 0x40 SHL SUB DUP2 GT PUSH2 0xD9B JUMPI PUSH2 0x125E DUP3 SLOAD PUSH2 0xE76 JUMP JUMPDEST PUSH1 0x1F DUP2 GT PUSH2 0x1309 JUMPI JUMPDEST POP PUSH1 0x20 DUP1 PUSH1 0x1F DUP4 GT PUSH1 0x1 EQ PUSH2 0x12A4 JUMPI POP DUP2 SWAP3 SWAP4 SWAP5 PUSH1 0x0 SWAP3 PUSH2 0x1299 JUMPI JUMPDEST POP POP DUP2 PUSH1 0x1 SHL SWAP2 PUSH1 0x0 NOT SWAP1 PUSH1 0x3 SHL SHR NOT AND OR SWAP1 SSTORE JUMP JUMPDEST ADD MLOAD SWAP1 POP CODESIZE DUP1 PUSH2 0x1283 JUMP JUMPDEST SWAP1 PUSH1 0x1F NOT DUP4 AND SWAP6 DUP5 PUSH1 0x0 MSTORE PUSH1 0x20 PUSH1 0x0 KECCAK256 SWAP3 PUSH1 0x0 SWAP1 JUMPDEST DUP9 DUP3 LT PUSH2 0x12F1 JUMPI POP POP DUP4 PUSH1 0x1 SWAP6 SWAP7 SWAP8 LT PUSH2 0x12D8 JUMPI JUMPDEST POP POP POP DUP2 SHL ADD SWAP1 SSTORE JUMP JUMPDEST ADD MLOAD PUSH1 0x0 NOT PUSH1 0xF8 DUP5 PUSH1 0x3 SHL AND SHR NOT AND SWAP1 SSTORE CODESIZE DUP1 DUP1 PUSH2 0x12CE JUMP JUMPDEST DUP1 PUSH1 0x1 DUP6 SWAP7 DUP3 SWAP5 SWAP7 DUP7 ADD MLOAD DUP2 SSTORE ADD SWAP6 ADD SWAP4 ADD SWAP1 PUSH2 0x12B9 JUMP JUMPDEST PUSH2 0x1336 SWAP1 DUP4 PUSH1 0x0 MSTORE PUSH1 0x20 PUSH1 0x0 KECCAK256 PUSH1 0x1F DUP5 ADD PUSH1 0x5 SHR DUP2 ADD SWAP2 PUSH1 0x20 DUP6 LT PUSH2 0x133C JUMPI JUMPDEST PUSH1 0x1F ADD PUSH1 0x5 SHR ADD SWAP1 PUSH2 0x122A JUMP JUMPDEST CODESIZE PUSH2 0x1267 JUMP JUMPDEST SWAP1 SWAP2 POP DUP2 SWAP1 PUSH2 0x1329 JUMP JUMPDEST SWAP2 SWAP1 PUSH2 0x1355 JUMPI PUSH2 0xEF2 SWAP2 PUSH2 0x1241 JUMP JUMPDEST PUSH4 0x4E487B71 PUSH1 0xE0 SHL PUSH1 0x0 MSTORE PUSH1 0x0 PUSH1 0x4 MSTORE PUSH1 0x24 PUSH1 0x0 REVERT INVALID LOG1 PUSH5 0x736F6C6343 STOP ADDMOD XOR STOP EXP "},"methodIdentifiers":{"addThreatIntel(string,uint8,string)":"b64a71e3","allThreatIPs(uint256)":"52eee69a","batchUpdateThreatScores(string[],uint256[])":"387d1325","getAllThreatIPs(uint256)":"60b3f7cd","getThreatIPs(uint256,uint256)":"a19b5f8d","getThreatIPsCount()":"fa1e7394","getThreatIntel(string)":"9d55cb29","getThreatScore(string)":"b832717a","getThreatScores(string[])":"4ee14a8d","isThreatIP(string)":"2ec920c9","isThreatSource(string)":"2a592cff","removeThreatIntel(string)":"bd1cbfd5","threatIntels(string)":"149cdd99","threatScores(string)":"3da195cc","updateThreatScore(string,uint256)":"87e7ff95"}}}}}