{"project/isolated_contracts/GovernanceMirror.sol":{"GovernanceMirror":{"abi":[{"inputs":[{"internalType":"address","name":"_layerZeroEndpoint","type":"address"},{"internalType":"address","name":"_governanceContract","type":"address"},{"internalType":"address","name":"_threatIntelSyncContract","type":"address"},{"internalType":"uint256","name":"_domesticChainId","type":"uint256"},{"internalType":"uint256","name":"_overseasChainId","type":"uint256"}],"stateMutability":"nonpayable","type":"constructor"},{"anonymous":false,"inputs":[{"indexed":true,"internalType":"uint256","name":"mirrorProposalId","type":"uint256"},{"indexed":true,"internalType":"uint256","name":"sourceProposalId","type":"uint256"},{"indexed":true,"internalType":"uint256","name":"sourceChainId","type":"uint256"}],"name":"CrossChainProposalReceived","type":"event"},{"anonymous":false,"inputs":[{"indexed":true,"internalType":"uint256","name":"proposalId","type":"uint256"},{"indexed":true,"internalType":"address","name":"voter","type":"address"},{"indexed":false,"internalType":"uint8","name":"support","type":"uint8"}],"name":"CrossChainVoteReceived","type":"event"},{"anonymous":false,"inputs":[{"indexed":false,"internalType":"address","name":"oldGovernance","type":"address"},{"indexed":false,"internalType":"address","name":"newGovernance","type":"address"}],"name":"GovernanceUpdated","type":"event"},{"anonymous":false,"inputs":[{"indexed":true,"internalType":"uint256","name":"id","type":"uint256"},{"indexed":true,"internalType":"address","name":"proposer","type":"address"},{"indexed":true,"internalType":"uint256","name":"sourceChainId","type":"uint256"},{"indexed":false,"internalType":"string","name":"sourceProposalId","type":"string"}],"name":"ProposalCreated","type":"event"},{"anonymous":false,"inputs":[{"indexed":true,"internalType":"uint256","name":"id","type":"uint256"}],"name":"ProposalExecuted","type":"event"},{"anonymous":false,"inputs":[{"indexed":true,"internalType":"uint256","name":"proposalId","type":"uint256"},{"indexed":true,"internalType":"address","name":"voter","type":"address"},{"indexed":false,"internalType":"uint8","name":"support","type":"uint8"},{"indexed":false,"internalType":"uint256","name":"votes","type":"uint256"}],"name":"VoteCast","type":"event"},{"inputs":[{"internalType":"uint16","name":"_targetChainId","type":"uint16"},{"internalType":"string","name":"_sourceProposalId","type":"string"},{"internalType":"uint8","name":"_support","type":"uint8"},{"internalType":"string","name":"_reason","type":"string"}],"name":"castCrossChainVote","outputs":[],"stateMutability":"payable","type":"function"},{"inputs":[{"internalType":"uint16","name":"_targetChainId","type":"uint16"},{"internalType":"string","name":"_description","type":"string"},{"internalType":"enum GovernanceMirror.ProposalType","name":"_proposalType","type":"uint8"},{"internalType":"address[]","name":"_targets","type":"address[]"},{"internalType":"uint256[]","name":"_values","type":"uint256[]"},{"internalType":"bytes[]","name":"_calldatas","type":"bytes[]"}],"name":"createCrossChainProposal","outputs":[{"internalType":"uint256","name":"proposalId","type":"uint256"}],"stateMutability":"payable","type":"function"},{"inputs":[],"name":"domesticChainId","outputs":[{"internalType":"uint256","name":"","type":"uint256"}],"stateMutability":"view","type":"function"},{"inputs":[{"internalType":"uint256","name":"proposalId","type":"uint256"}],"name":"getProposal","outputs":[{"components":[{"internalType":"uint256","name":"id","type":"uint256"},{"internalType":"address","name":"proposer","type":"address"},{"internalType":"uint256","name":"startTime","type":"uint256"},{"internalType":"uint256","name":"endTime","type":"uint256"},{"internalType":"uint256","name":"votesFor","type":"uint256"},{"internalType":"uint256","name":"votesAgainst","type":"uint256"},{"internalType":"uint256","name":"votesAbstain","type":"uint256"},{"internalType":"uint256","name":"requiredQuorum","type":"uint256"},{"internalType":"string","name":"description","type":"string"},{"internalType":"enum GovernanceMirror.ProposalType","name":"proposalType","type":"uint8"},{"internalType":"enum GovernanceMirror.ProposalState","name":"state","type":"uint8"},{"internalType":"address[]","name":"targets","type":"address[]"},{"internalType":"uint256[]","name":"values","type":"uint256[]"},{"internalType":"bytes[]","name":"calldatas","type":"bytes[]"},{"internalType":"uint256","name":"sourceChainId","type":"uint256"},{"internalType":"string","name":"sourceProposalId","type":"string"}],"internalType":"struct GovernanceMirror.Proposal","name":"","type":"tuple"}],"stateMutability":"view","type":"function"},{"inputs":[{"internalType":"uint256","name":"proposalId","type":"uint256"},{"internalType":"address","name":"voter","type":"address"}],"name":"getVote","outputs":[{"components":[{"internalType":"bool","name":"hasVoted","type":"bool"},{"internalType":"uint8","name":"support","type":"uint8"},{"internalType":"uint256","name":"votes","type":"uint256"}],"internalType":"struct GovernanceMirror.Vote","name":"","type":"tuple"}],"stateMutability":"view","type":"function"},{"inputs":[],"name":"governanceContract","outputs":[{"internalType":"address","name":"","type":"address"}],"stateMutability":"view","type":"function"},{"inputs":[],"name":"lzEndpoint","outputs":[{"internalType":"contract ILayerZeroEndpoint","name":"","type":"address"}],"stateMutability":"view","type":"function"},{"inputs":[{"internalType":"uint16","name":"_srcChainId","type":"uint16"},{"internalType":"bytes","name":"_srcAddress","type":"bytes"},{"internalType":"uint64","name":"_nonce","type":"uint64"},{"internalType":"bytes","name":"_payload","type":"bytes"}],"name":"lzReceive","outputs":[],"stateMutability":"nonpayable","type":"function"},{"inputs":[],"name":"overseasChainId","outputs":[{"internalType":"uint256","name":"","type":"uint256"}],"stateMutability":"view","type":"function"},{"inputs":[],"name":"pause","outputs":[],"stateMutability":"nonpayable","type":"function"},{"inputs":[{"internalType":"bytes32","name":"","type":"bytes32"}],"name":"processedMessages","outputs":[{"internalType":"bool","name":"","type":"bool"}],"stateMutability":"view","type":"function"},{"inputs":[],"name":"proposalCount","outputs":[{"internalType":"uint256","name":"","type":"uint256"}],"stateMutability":"view","type":"function"},{"inputs":[{"internalType":"uint256","name":"","type":"uint256"}],"name":"proposalMirrorCount","outputs":[{"internalType":"uint256","name":"","type":"uint256"}],"stateMutability":"view","type":"function"},{"inputs":[{"internalType":"uint256","name":"","type":"uint256"}],"name":"proposals","outputs":[{"internalType":"uint256","name":"id","type":"uint256"},{"internalType":"address","name":"proposer","type":"address"},{"internalType":"uint256","name":"startTime","type":"uint256"},{"internalType":"uint256","name":"endTime","type":"uint256"},{"internalType":"uint256","name":"votesFor","type":"uint256"},{"internalType":"uint256","name":"votesAgainst","type":"uint256"},{"internalType":"uint256","name":"votesAbstain","type":"uint256"},{"internalType":"uint256","name":"requiredQuorum","type":"uint256"},{"internalType":"string","name":"description","type":"string"},{"internalType":"enum GovernanceMirror.ProposalType","name":"proposalType","type":"uint8"},{"internalType":"enum GovernanceMirror.ProposalState","name":"state","type":"uint8"},{"internalType":"uint256","name":"sourceChainId","type":"uint256"},{"internalType":"string","name":"sourceProposalId","type":"string"}],"stateMutability":"view","type":"function"},{"inputs":[],"name":"quorumPercentage","outputs":[{"internalType":"uint256","name":"","type":"uint256"}],"stateMutability":"view","type":"function"},{"inputs":[{"internalType":"string","name":"","type":"string"}],"name":"sourceProposalToMirror","outputs":[{"internalType":"uint256","name":"","type":"uint256"}],"stateMutability":"view","type":"function"},{"inputs":[{"internalType":"uint256","name":"proposalId","type":"uint256"}],"name":"state","outputs":[{"internalType":"enum GovernanceMirror.ProposalState","name":"","type":"uint8"}],"stateMutability":"view","type":"function"},{"inputs":[],"name":"threatIntelSyncContract","outputs":[{"internalType":"address","name":"","type":"address"}],"stateMutability":"view","type":"function"},{"inputs":[],"name":"unpause","outputs":[],"stateMutability":"nonpayable","type":"function"},{"inputs":[{"internalType":"address","name":"_newGovernance","type":"address"}],"name":"updateGovernance","outputs":[],"stateMutability":"nonpayable","type":"function"},{"inputs":[{"internalType":"uint256","name":"_newQuorum","type":"uint256"}],"name":"updateQuorumPercentage","outputs":[],"stateMutability":"nonpayable","type":"function"},{"inputs":[{"internalType":"address","name":"_newContract","type":"address"}],"name":"updateThreatIntelSyncContract","outputs":[],"stateMutability":"nonpayable","type":"function"},{"inputs":[{"internalType":"uint256","name":"","type":"uint256"},{"internalType":"address","name":"","type":"address"}],"name":"votes","outputs":[{"internalType":"bool","name":"hasVoted","type":"bool"},{"internalType":"uint8","name":"support","type":"uint8"},{"internalType":"uint256","name":"votes","type":"uint256"}],"stateMutability":"view","type":"function"},{"inputs":[],"name":"votingPeriod","outputs":[{"internalType":"uint256","name":"","type":"uint256"}],"stateMutability":"view","type":"function"}],"evm":{"bytecode":{"linkReferences":{},"object":"60806040523480156200001157600080fd5b50604051620036f1380380620036f18339810160408190526200003491620000ac565b600080546001600160a01b03199081166001600160a01b039788161790915560078054821695871695909517909455600880549094169290941691909117909155600955600a55620186a0600b5562093a80600c5562000109565b80516001600160a01b0381168114620000a757600080fd5b919050565b600080600080600060a08688031215620000c557600080fd5b620000d0866200008f565b9450620000e0602087016200008f565b9350620000f0604087016200008f565b6060870151608090970151959894975095949392505050565b6135d880620001196000396000f3fe60806040526004361061014a5760003560e01c80638456cb59116100b6578063c7f758a81161006f578063c7f758a8146103ef578063c859630d1461041c578063d23254b41461043c578063da35c664146104a7578063f0f9e6b7146104bd578063f4d0ea3c146104dd57600080fd5b80638456cb59146102b257806388ba16ab146102f0578063b172b22214610330578063b256126314610368578063b353aaa714610388578063bc3f931f146103a857600080fd5b806336874b8c1161010857806336874b8c146102425780633864ddf5146102585780633e4f49e6146102855780633f4ba83a146102b25780634fa76ec9146102c75780635573a039146102dd57600080fd5b80621d35671461014f578063013cf08b1461017157806302a251a3146101b35780631766a00e146101d757806320737f1f1461020f578063288f2f581461022f575b600080fd5b34801561015b57600080fd5b5061016f61016a3660046122fe565b6104f3565b005b34801561017d57600080fd5b5061019161018c366004612397565b610653565b6040516101aa9d9c9b9a9998979695949392919061243a565b60405180910390f35b3480156101bf57600080fd5b506101c9600c5481565b6040519081526020016101aa565b3480156101e357600080fd5b506101c96101f23660046125f1565b805160208183018101805160048252928201919093012091525481565b34801561021b57600080fd5b5061016f61022a36600461263a565b6107dc565b61016f61023d366004612666565b610828565b34801561024e57600080fd5b506101c9600a5481565b34801561026457600080fd5b506101c9610273366004612397565b60056020526000908152604090205481565b34801561029157600080fd5b506102a56102a0366004612397565b610b67565b6040516101aa91906126ee565b3480156102be57600080fd5b5061016f610c2a565b3480156102d357600080fd5b506101c9600b5481565b6101c96102eb366004612895565b610c56565b3480156102fc57600080fd5b5061032061030b366004612397565b60036020526000908152604090205460ff1681565b60405190151581526020016101aa565b34801561033c57600080fd5b50600754610350906001600160a01b031681565b6040516001600160a01b0390911681526020016101aa565b34801561037457600080fd5b5061016f61038336600461263a565b6111fe565b34801561039457600080fd5b50600054610350906001600160a01b031681565b3480156103b457600080fd5b506103c86103c3366004612961565b611289565b6040805182511515815260208084015160ff169082015291810151908201526060016101aa565b3480156103fb57600080fd5b5061040f61040a366004612397565b6112f6565b6040516101aa9190612a5d565b34801561042857600080fd5b50600854610350906001600160a01b031681565b34801561044857600080fd5b50610488610457366004612961565b60026020908152600092835260408084209091529082529020805460019091015460ff808316926101009004169083565b60408051931515845260ff9092166020840152908201526060016101aa565b3480156104b357600080fd5b506101c960065481565b3480156104c957600080fd5b5061016f6104d8366004612397565b6116ac565b3480156104e957600080fd5b506101c960095481565b6000546001600160a01b031633146105525760405162461bcd60e51b815260206004820152601760248201527f4c7a4170703a20696e76616c696420656e64706f696e7400000000000000000060448201526064015b60405180910390fd5b60008282600081811061056757610567612b9f565b919091013560f81c91505060018190036105c0576105bb8784848080601f0160208091040260200160405190810160405280939291908181526020018383808284376000920191909152506116db92505050565b61064a565b8060ff1660020361060b576105bb8784848080601f016020809104026020016040519081016040528093929190818152602001838380828437600092019190915250611aa392505050565b60405162461bcd60e51b8152602060048201526014602482015273496e76616c6964206d657373616765207479706560601b6044820152606401610549565b50505050505050565b60016020819052600091825260409091208054918101546002820154600383015460048401546005850154600686015460078701546008880180546001600160a01b0390981698969795969495939492939192916106b090612bb5565b80601f01602080910402602001604051908101604052809291908181526020018280546106dc90612bb5565b80156107295780601f106106fe57610100808354040283529160200191610729565b820191906000526020600020905b81548152906001019060200180831161070c57829003601f168201915b505050506009830154600d840154600e85018054949560ff80851696610100909504169450919261075990612bb5565b80601f016020809104026020016040519081016040528092919081815260200182805461078590612bb5565b80156107d25780601f106107a7576101008083540402835291602001916107d2565b820191906000526020600020905b8154815290600101906020018083116107b557829003601f168201915b505050505090508d565b6007546001600160a01b031633146108065760405162461bcd60e51b815260040161054990612be9565b600880546001600160a01b0319166001600160a01b0392909216919091179055565b6009548461ffff1614806108415750600a548461ffff16145b6108845760405162461bcd60e51b815260206004820152601460248201527324b73b30b634b2103a30b933b2ba1031b430b4b760611b6044820152606401610549565b60028260ff1611156108d85760405162461bcd60e51b815260206004820152601a60248201527f496e76616c696420766f746520737570706f72742076616c75650000000000006044820152606401610549565b60006040518060e0016040528060008152602001336001600160a01b031681526020018460ff16815260200183815260200146815260200185815260200142815250905060008160405160200161092f9190612c2f565b60405160208183030381529060405290506000815160016109509190612cc9565b6001600160401b03811115610967576109676124d4565b6040519080825280601f01601f191660200182016040528015610991576020820181803683370190505b509050600260f81b816000815181106109ac576109ac612b9f565b60200101906001600160f81b031916908160001a90535060005b8251811015610a35578281815181106109e1576109e1612b9f565b01602001516001600160f81b031916826109fc836001612cc9565b81518110610a0c57610a0c612b9f565b60200101906001600160f81b031916908160001a90535080610a2d81612cdc565b9150506109c6565b506000805460408051602081018252838152905163040a7bb160e41b81526001600160a01b03909216916340a7bb1091610a79918c91309188918891600401612cf5565b6040805180830381865afa158015610a95573d6000803e3d6000fd5b505050506040513d601f19601f82011682018060405250810190610ab99190612d49565b50905080341015610aff5760405162461bcd60e51b815260206004820152601060248201526f496e73756666696369656e742066656560801b6044820152606401610549565b610b1c888333306040518060200160405280600081525086611eaf565b6040805160ff881681526064602082015233916000917fb83d25c6a5d258561330739951487acb4bd09ba5190b5d32c4f261817d906792910160405180910390a35050505050505050565b600081600081118015610b7c57506006548111155b610bbe5760405162461bcd60e51b8152602060048201526013602482015272125b9d985b1a59081c1c9bdc1bdcd85b081251606a1b6044820152606401610549565b60008381526001602052604090206003810154421015610be2576001925050610c24565b80600501548160040154111580610c0f5750806007015481600501548260040154610c0d9190612cc9565b105b15610c1e576003925050610c24565b60049250505b50919050565b6007546001600160a01b03163314610c545760405162461bcd60e51b815260040161054990612be9565b565b60006009548761ffff161480610c715750600a548761ffff16145b610cb45760405162461bcd60e51b815260206004820152601460248201527324b73b30b634b2103a30b933b2ba1031b430b4b760611b6044820152606401610549565b600660008154610cc390612cdc565b9182905550600c549091504290600090610cdd9083612cc9565b9050604051806102000160405280848152602001336001600160a01b03168152602001838152602001828152602001600081526020016000815260200160008152602001600b548152602001898152602001886004811115610d4157610d41612400565b815260200160008152602001878152602001868152602001858152602001468152602001610d6e85611f9f565b604051602001610d7e9190612d6d565b60408051808303601f19018152918152915260008581526001602081815291839020845181559184015190820180546001600160a01b0319166001600160a01b03909216919091179055908201516002820155606082015160038201556080820151600482015560a0820151600582015560c0820151600682015560e082015160078201556101008201516008820190610e189082612de4565b5061012082015160098201805460ff19166001836004811115610e3d57610e3d612400565b021790555061014082015160098201805461ff001916610100836006811115610e6857610e68612400565b02179055506101608201518051610e8991600a8401916020909101906120a7565b506101808201518051610ea691600b84019160209091019061210c565b506101a08201518051610ec391600c840191602090910190612147565b506101c0820151600d8201556101e0820151600e820190610ee49082612de4565b509050506000604051806101800160405280858152602001336001600160a01b031681526020018481526020018381526020018a8152602001896004811115610f2f57610f2f612400565b8152602001888152602001878152602001868152602001468152602001610f5586611f9f565b604051602001610f659190612d6d565b6040516020818303038152906040528152602001428152509050600081604051602001610f929190612ea3565b6040516020818303038152906040529050600081516001610fb39190612cc9565b6001600160401b03811115610fca57610fca6124d4565b6040519080825280601f01601f191660200182016040528015610ff4576020820181803683370190505b509050600160f81b8160008151811061100f5761100f612b9f565b60200101906001600160f81b031916908160001a90535060005b82518110156110985782818151811061104457611044612b9f565b01602001516001600160f81b0319168261105f836001612cc9565b8151811061106f5761106f612b9f565b60200101906001600160f81b031916908160001a9053508061109081612cdc565b915050611029565b5060008060009054906101000a90046001600160a01b03166001600160a01b03166340a7bb108e30856000604051806020016040528060008152506040518663ffffffff1660e01b81526004016110f3959493929190612cf5565b6040805180830381865afa15801561110f573d6000803e3d6000fd5b505050506040513d601f19601f820116820180604052508101906111339190612d49565b509050803410156111795760405162461bcd60e51b815260206004820152601060248201526f496e73756666696369656e742066656560801b6044820152606401610549565b6111968d8333306040518060200160405280600081525086611eaf565b46336001600160a01b0316887f85b1e5bd1e58840265c40582ff09f8cbfab823e041a824467b654a99b5156d39600160008c8152602001908152602001600020600e016040516111e69190612fac565b60405180910390a45050505050509695505050505050565b6007546001600160a01b031633146112285760405162461bcd60e51b815260040161054990612be9565b600780546001600160a01b038381166001600160a01b031983168117909355604080519190921680825260208201939093527f434a2db650703b36c824e745330d6397cdaa9ee2cc891a4938ae853e1c50b68d910160405180910390a15050565b604080516060808201835260008083526020808401829052928401819052858152600283528381206001600160a01b0386168252835283902083519182018452805460ff808216151584526101009091041692820192909252600190910154918101919091525b92915050565b6112fe612199565b60008281526001602081815260409283902083516102008101855281548152928101546001600160a01b0316918301919091526002810154928201929092526003820154606082015260048201546080820152600582015460a0820152600682015460c0820152600782015460e08201526008820180549192916101008401919061138890612bb5565b80601f01602080910402602001604051908101604052809291908181526020018280546113b490612bb5565b80156114015780601f106113d657610100808354040283529160200191611401565b820191906000526020600020905b8154815290600101906020018083116113e457829003601f168201915b5050509183525050600982015460209091019060ff16600481111561142857611428612400565b600481111561143957611439612400565b81526020016009820160019054906101000a900460ff16600681111561146157611461612400565b600681111561147257611472612400565b8152602001600a82018054806020026020016040519081016040528092919081815260200182805480156114cf57602002820191906000526020600020905b81546001600160a01b031681526001909101906020018083116114b1575b50505050508152602001600b820180548060200260200160405190810160405280929190818152602001828054801561152757602002820191906000526020600020905b815481526020019060010190808311611513575b50505050508152602001600c8201805480602002602001604051908101604052809291908181526020016000905b8282101561160157838290600052602060002001805461157490612bb5565b80601f01602080910402602001604051908101604052809291908181526020018280546115a090612bb5565b80156115ed5780601f106115c2576101008083540402835291602001916115ed565b820191906000526020600020905b8154815290600101906020018083116115d057829003601f168201915b505050505081526020019060010190611555565b505050508152602001600d8201548152602001600e8201805461162390612bb5565b80601f016020809104026020016040519081016040528092919081815260200182805461164f90612bb5565b801561169c5780601f106116715761010080835404028352916020019161169c565b820191906000526020600020905b81548152906001019060200180831161167f57829003601f168201915b5050505050815250509050919050565b6007546001600160a01b031633146116d65760405162461bcd60e51b815260040161054990612be9565b600b55565b6000600182516116eb9190613037565b6001600160401b03811115611702576117026124d4565b6040519080825280601f01601f19166020018201604052801561172c576020820181803683370190505b50905060005b815181101561179d5782611747826001612cc9565b8151811061175757611757612b9f565b602001015160f81c60f81b82828151811061177457611774612b9f565b60200101906001600160f81b031916908160001a9053508061179581612cdc565b915050611732565b506000818060200190518101906117b49190613203565b90506000848261014001518361016001516040516020016117d79392919061335f565b60408051601f1981840301815291815281516020928301206000818152600390935291205490915060ff161561184b5760405162461bcd60e51b815260206004820152601960248201527813595cdcd859d948185b1c9958591e481c1c9bd8d95cdcd959603a1b6044820152606401610549565b6000908152600360205260408120805460ff1916600117905561014082015161187761ffff8716611f9f565b604051602001611888929190613396565b60405160208183030381529060405290506004816040516118a991906133d2565b908152602001604051809103902054600003611a9c5760006006600081546118d090612cdc565b918290555060008181526001602081815260408084208581558883015193810180546001600160a01b0319166001600160a01b03909516949094179093558781015160028401556060880151600384015560048301849055600583018490556006830184905560078301939093556080870151925193945090926119559291016133ee565b6040516020818303038152906040528160080190816119749190612de4565b5060a084015160098201805460ff1916600183600481111561199857611998612400565b021790555060098101805461ff001916905560c084015180516119c591600a8401916020909101906120a7565b5060e084015180516119e191600b84019160209091019061210c565b5061010084015180516119fe91600c840191602090910190612147565b5061ffff8716600d820155610140840151600e820190611a1e9082612de4565b5081600484604051611a3091906133d2565b908152604080516020928190038301902092909255855160009081526005909152908120805491611a6083612cdc565b9091555050835160405161ffff8916919084907ff65135ae5722d730514bed08180cf4945deb1a09ac82cd182d4a21ede78e097990600090a450505b5050505050565b600060018251611ab39190613037565b6001600160401b03811115611aca57611aca6124d4565b6040519080825280601f01601f191660200182016040528015611af4576020820181803683370190505b50905060005b8151811015611b655782611b0f826001612cc9565b81518110611b1f57611b1f612b9f565b602001015160f81c60f81b828281518110611b3c57611b3c612b9f565b60200101906001600160f81b031916908160001a90535080611b5d81612cdc565b915050611afa565b50600081806020019051810190611b7c919061342a565b9050600084826000015183602001518460c00151604051602001611bda949392919060f09490941b6001600160f01b0319168452600284019290925260601b6bffffffffffffffffffffffff19166022830152603682015260560190565b60408051601f1981840301815291815281516020928301206000818152600390935291205490915060ff1615611c4e5760405162461bcd60e51b815260206004820152601960248201527813595cdcd859d948185b1c9958591e481c1c9bd8d95cdcd959603a1b6044820152606401610549565b6000908152600360205260408120805460ff1916600117905560a0820151611c7961ffff8716611f9f565b604051602001611c8a929190613396565b60405160208183030381529060405290506000600482604051611cad91906133d2565b908152602001604051809103902054905060008111611d0e5760405162461bcd60e51b815260206004820152601960248201527f4d6972726f722070726f706f73616c206e6f7420666f756e64000000000000006044820152606401610549565b6000818152600260209081526040808320868301516001600160a01b0316845290915290205460ff16611ea757600081815260026020818152604080842087830180516001600160a01b0390811687528285528387208054600160ff1990911681179091558a850180518a8a52888852845184168a52858852868a20805461ff00191661010060ff938416021790558a8a529787529251909116875291909352932060649084015551169003611deb576000818152600160205260408120600401805460649290611de0908490612cc9565b90915550611e539050565b826040015160ff16600003611e1c576000818152600160205260408120600501805460649290611de0908490612cc9565b826040015160ff16600203611e53576000818152600160205260408120600601805460649290611e4d908490612cc9565b90915550505b82602001516001600160a01b0316817f0fbb5288adf2ae9ab642e3ceae559536f1cca92b5b88f3f3eef60be52a6609a88560400151604051611e9e919060ff91909116815260200190565b60405180910390a35b505050505050565b6000825111611f005760405162461bcd60e51b815260206004820152601860248201527f4c7a4170703a206e6f206164617074657220706172616d7300000000000000006044820152606401610549565b600054604080513060601b6bffffffffffffffffffffffff1916602082015281516014818303018152603482019283905262c5803160e81b9092526001600160a01b039092169163c5803100918491611f65918b918b908b908b908b906038016134fd565b6000604051808303818588803b158015611f7e57600080fd5b505af1158015611f92573d6000803e3d6000fd5b5050505050505050505050565b606081600003611fc65750506040805180820190915260018152600360fc1b602082015290565b8160005b8115611ff05780611fda81612cdc565b9150611fe99050600a8361357a565b9150611fca565b6000816001600160401b0381111561200a5761200a6124d4565b6040519080825280601f01601f191660200182016040528015612034576020820181803683370190505b5090505b841561209f57612049600183613037565b9150612056600a8661358e565b612061906030612cc9565b60f81b81838151811061207657612076612b9f565b60200101906001600160f81b031916908160001a905350612098600a8661357a565b9450612038565b949350505050565b8280548282559060005260206000209081019282156120fc579160200282015b828111156120fc57825182546001600160a01b0319166001600160a01b039091161782556020909201916001909101906120c7565b50612108929150612230565b5090565b8280548282559060005260206000209081019282156120fc579160200282015b828111156120fc57825182559160200191906001019061212c565b82805482825590600052602060002090810192821561218d579160200282015b8281111561218d578251829061217d9082612de4565b5091602001919060010190612167565b50612108929150612245565b6040518061020001604052806000815260200160006001600160a01b03168152602001600081526020016000815260200160008152602001600081526020016000815260200160008152602001606081526020016000600481111561220057612200612400565b81526020016000815260200160608152602001606081526020016060815260200160008152602001606081525090565b5b808211156121085760008155600101612231565b808211156121085760006122598282612262565b50600101612245565b50805461226e90612bb5565b6000825580601f1061227e575050565b601f01602090049060005260206000209081019061229c9190612230565b50565b803561ffff811681146122b157600080fd5b919050565b60008083601f8401126122c857600080fd5b5081356001600160401b038111156122df57600080fd5b6020830191508360208285010111156122f757600080fd5b9250929050565b6000806000806000806080878903121561231757600080fd5b6123208761229f565b955060208701356001600160401b038082111561233c57600080fd5b6123488a838b016122b6565b909750955060408901359150808216821461236257600080fd5b9093506060880135908082111561237857600080fd5b5061238589828a016122b6565b979a9699509497509295939492505050565b6000602082840312156123a957600080fd5b5035919050565b60005b838110156123cb5781810151838201526020016123b3565b50506000910152565b600081518084526123ec8160208601602086016123b0565b601f01601f19169290920160200192915050565b634e487b7160e01b600052602160045260246000fd5b6005811061242657612426612400565b9052565b6007811061242657612426612400565b60006101a08f835260018060a01b038f1660208401528d60408401528c60608401528b60808401528a60a08401528960c08401528860e084015280610100840152612487818401896123d4565b9050612497610120840188612416565b6124a561014084018761242a565b846101608401528281036101808401526124bf81856123d4565b9150509e9d5050505050505050505050505050565b634e487b7160e01b600052604160045260246000fd5b60405161018081016001600160401b038111828210171561250d5761250d6124d4565b60405290565b60405160e081016001600160401b038111828210171561250d5761250d6124d4565b604051601f8201601f191681016001600160401b038111828210171561255d5761255d6124d4565b604052919050565b60006001600160401b0382111561257e5761257e6124d4565b50601f01601f191660200190565b600061259f61259a84612565565b612535565b90508281528383830111156125b357600080fd5b828260208301376000602084830101529392505050565b600082601f8301126125db57600080fd5b6125ea8383356020850161258c565b9392505050565b60006020828403121561260357600080fd5b81356001600160401b0381111561261957600080fd5b61209f848285016125ca565b6001600160a01b038116811461229c57600080fd5b60006020828403121561264c57600080fd5b81356125ea81612625565b60ff8116811461229c57600080fd5b6000806000806080858703121561267c57600080fd5b6126858561229f565b935060208501356001600160401b03808211156126a157600080fd5b6126ad888389016125ca565b9450604087013591506126bf82612657565b909250606086013590808211156126d557600080fd5b506126e2878288016125ca565b91505092959194509250565b602081016112f0828461242a565b6005811061229c57600080fd5b80356122b1816126fc565b60006001600160401b0382111561272d5761272d6124d4565b5060051b60200190565b600082601f83011261274857600080fd5b8135602061275861259a83612714565b82815260059290921b8401810191818101908684111561277757600080fd5b8286015b8481101561279b57803561278e81612625565b835291830191830161277b565b509695505050505050565b600082601f8301126127b757600080fd5b813560206127c761259a83612714565b82815260059290921b840181019181810190868411156127e657600080fd5b8286015b8481101561279b57803583529183019183016127ea565b600082601f83011261281257600080fd5b8135602061282261259a83612714565b82815260059290921b8401810191818101908684111561284157600080fd5b8286015b8481101561279b5780356001600160401b038111156128645760008081fd5b8701603f810189136128765760008081fd5b61288789868301356040840161258c565b845250918301918301612845565b60008060008060008060c087890312156128ae57600080fd5b6128b78761229f565b955060208701356001600160401b03808211156128d357600080fd5b6128df8a838b016125ca565b96506128ed60408a01612709565b9550606089013591508082111561290357600080fd5b61290f8a838b01612737565b9450608089013591508082111561292557600080fd5b6129318a838b016127a6565b935060a089013591508082111561294757600080fd5b5061295489828a01612801565b9150509295509295509295565b6000806040838503121561297457600080fd5b82359150602083013561298681612625565b809150509250929050565b600081518084526020808501945080840160005b838110156129ca5781516001600160a01b0316875295820195908201906001016129a5565b509495945050505050565b600081518084526020808501945080840160005b838110156129ca578151875295820195908201906001016129e9565b600082825180855260208086019550808260051b84010181860160005b84811015612a5057601f19868403018952612a3e8383516123d4565b98840198925090830190600101612a22565b5090979650505050505050565b602081528151602082015260006020830151612a8460408401826001600160a01b03169052565b506040830151606083015260608301516080830152608083015160a083015260a083015160c083015260c083015160e083015260e08301516101008181850152808501519150506102006101208181860152612ae46102208601846123d4565b90860151909250610140612afa86820183612416565b8601519050610160612b0e8682018361242a565b80870151915050601f19610180818786030181880152612b2e8584612991565b9450808801519250506101a0818786030181880152612b4d85846129d5565b9450808801519250506101c0818786030181880152612b6c8584612a05565b908801516101e0888101919091528801518782039092018488015293509050612b9583826123d4565b9695505050505050565b634e487b7160e01b600052603260045260246000fd5b600181811c90821680612bc957607f821691505b602082108103610c2457634e487b7160e01b600052602260045260246000fd5b60208082526026908201527f4f6e6c7920676f7665726e616e63652063616e2063616c6c20746869732066756040820152653731ba34b7b760d11b606082015260800190565b602081528151602082015260018060a01b03602083015116604082015260ff60408301511660608201526000606083015160e06080840152612c756101008401826123d4565b9050608084015160a084015260a0840151601f198483030160c0850152612c9c82826123d4565b91505060c084015160e08401528091505092915050565b634e487b7160e01b600052601160045260246000fd5b808201808211156112f0576112f0612cb3565b600060018201612cee57612cee612cb3565b5060010190565b61ffff861681526001600160a01b038516602082015260a060408201819052600090612d23908301866123d4565b84151560608401528281036080840152612d3d81856123d4565b98975050505050505050565b60008060408385031215612d5c57600080fd5b505080516020909101519092909150565b637372635f60e01b815260008251612d8c8160048501602087016123b0565b9190910160040192915050565b601f821115612ddf57600081815260208120601f850160051c81016020861015612dc05750805b601f850160051c820191505b81811015611ea757828155600101612dcc565b505050565b81516001600160401b03811115612dfd57612dfd6124d4565b612e1181612e0b8454612bb5565b84612d99565b602080601f831160018114612e465760008415612e2e5750858301515b600019600386901b1c1916600185901b178555611ea7565b600085815260208120601f198616915b82811015612e7557888601518255948401946001909101908401612e56565b5085821015612e935787850151600019600388901b60f8161c191681555b5050505050600190811b01905550565b602081528151602082015260006020830151612eca60408401826001600160a01b03169052565b50604083015160608301526060830151608083015260808301516101808060a0850152612efb6101a08501836123d4565b915060a0850151612f0f60c0860182612416565b5060c0850151601f19808685030160e0870152612f2c8483612991565b935060e08701519150610100818786030181880152612f4b85846129d5565b945080880151925050610120818786030181880152612f6a8584612a05565b945080880151925050610140828188015280880151925050610160818786030181880152612f9885846123d4565b970151959092019490945250929392505050565b6000602080835260008454612fc081612bb5565b80848701526040600180841660008114612fe15760018114612ffb57613029565b60ff1985168984015283151560051b890183019550613029565b896000528660002060005b858110156130215781548b8201860152908301908801613006565b8a0184019650505b509398975050505050505050565b818103818111156112f0576112f0612cb3565b80516122b181612625565b600061306361259a84612565565b905082815283838301111561307757600080fd5b6125ea8360208301846123b0565b600082601f83011261309657600080fd5b6125ea83835160208501613055565b80516122b1816126fc565b600082601f8301126130c157600080fd5b815160206130d161259a83612714565b82815260059290921b840181019181810190868411156130f057600080fd5b8286015b8481101561279b57805161310781612625565b83529183019183016130f4565b600082601f83011261312557600080fd5b8151602061313561259a83612714565b82815260059290921b8401810191818101908684111561315457600080fd5b8286015b8481101561279b5780518352918301918301613158565b600082601f83011261318057600080fd5b8151602061319061259a83612714565b82815260059290921b840181019181810190868411156131af57600080fd5b8286015b8481101561279b5780516001600160401b038111156131d25760008081fd5b8701603f810189136131e45760008081fd5b6131f5898683015160408401613055565b8452509183019183016131b3565b60006020828403121561321557600080fd5b81516001600160401b038082111561322c57600080fd5b90830190610180828603121561324157600080fd5b6132496124ea565b825181526132596020840161304a565b6020820152604083015160408201526060830151606082015260808301518281111561328457600080fd5b61329087828601613085565b6080830152506132a260a084016130a5565b60a082015260c0830151828111156132b957600080fd5b6132c5878286016130b0565b60c08301525060e0830151828111156132dd57600080fd5b6132e987828601613114565b60e083015250610100808401518381111561330357600080fd5b61330f8882870161316f565b828401525050610120808401518183015250610140808401518381111561333557600080fd5b61334188828701613085565b91830191909152506101609283015192810192909252509392505050565b61ffff60f01b8460f01b168152600083516133818160028501602088016123b0565b60029201918201929092526022019392505050565b600083516133a88184602088016123b0565b602d60f81b90830190815283516133c68160018401602088016123b0565b01600101949350505050565b600082516133e48184602087016123b0565b9190910192915050565b6802da6a4a92927a92e960bd1b8152600082516134128160098501602087016123b0565b9190910160090192915050565b80516122b181612657565b60006020828403121561343c57600080fd5b81516001600160401b038082111561345357600080fd5b9083019060e0828603121561346757600080fd5b61346f612513565b8251815261347f6020840161304a565b60208201526134906040840161341f565b60408201526060830151828111156134a757600080fd5b6134b387828601613085565b6060830152506080830151608082015260a0830151828111156134d557600080fd5b6134e187828601613085565b60a08301525060c083015160c082015280935050505092915050565b61ffff8716815260c06020820152600061351a60c08301886123d4565b828103604084015261352c81886123d4565b6001600160a01b0387811660608601528616608085015283810360a0850152905061355781856123d4565b9998505050505050505050565b634e487b7160e01b600052601260045260246000fd5b60008261358957613589613564565b500490565b60008261359d5761359d613564565b50069056fea2646970667358221220b58b671d7537213bdee6bda8333255931d623a3c21438232b8122d5419a48c3a64736f6c63430008130033","opcodes":"PUSH1 0x80 PUSH1 0x40 MSTORE CALLVALUE DUP1 ISZERO PUSH3 0x11 JUMPI PUSH1 0x0 DUP1 REVERT JUMPDEST POP PUSH1 0x40 MLOAD PUSH3 0x36F1 CODESIZE SUB DUP1 PUSH3 0x36F1 DUP4 CODECOPY DUP2 ADD PUSH1 0x40 DUP2 SWAP1 MSTORE PUSH3 0x34 SWAP2 PUSH3 0xAC JUMP JUMPDEST PUSH1 0x0 DUP1 SLOAD PUSH1 0x1 PUSH1 0x1 PUSH1 0xA0 SHL SUB NOT SWAP1 DUP2 AND PUSH1 0x1 PUSH1 0x1 PUSH1 0xA0 SHL SUB SWAP8 DUP9 AND OR SWAP1 SWAP2 SSTORE PUSH1 0x7 DUP1 SLOAD DUP3 AND SWAP6 DUP8 AND SWAP6 SWAP1 SWAP6 OR SWAP1 SWAP5 SSTORE PUSH1 0x8 DUP1 SLOAD SWAP1 SWAP5 AND SWAP3 SWAP1 SWAP5 AND SWAP2 SWAP1 SWAP2 OR SWAP1 SWAP2 SSTORE PUSH1 0x9 SSTORE PUSH1 0xA SSTORE PUSH3 0x186A0 PUSH1 0xB SSTORE PUSH3 0x93A80 PUSH1 0xC SSTORE PUSH3 0x109 JUMP JUMPDEST DUP1 MLOAD PUSH1 0x1 PUSH1 0x1 PUSH1 0xA0 SHL SUB DUP2 AND DUP2 EQ PUSH3 0xA7 JUMPI PUSH1 0x0 DUP1 REVERT JUMPDEST SWAP2 SWAP1 POP JUMP JUMPDEST PUSH1 0x0 DUP1 PUSH1 0x0 DUP1 PUSH1 0x0 PUSH1 0xA0 DUP7 DUP9 SUB SLT ISZERO PUSH3 0xC5 JUMPI PUSH1 0x0 DUP1 REVERT JUMPDEST PUSH3 0xD0 DUP7 PUSH3 0x8F JUMP JUMPDEST SWAP5 POP PUSH3 0xE0 PUSH1 0x20 DUP8 ADD PUSH3 0x8F JUMP JUMPDEST SWAP4 POP PUSH3 0xF0 PUSH1 0x40 DUP8 ADD PUSH3 0x8F JUMP JUMPDEST PUSH1 0x60 DUP8 ADD MLOAD PUSH1 0x80 SWAP1 SWAP8 ADD MLOAD SWAP6 SWAP9 SWAP5 SWAP8 POP SWAP6 SWAP5 SWAP4 SWAP3 POP POP POP JUMP JUMPDEST PUSH2 0x35D8 DUP1 PUSH3 0x119 PUSH1 0x0 CODECOPY PUSH1 0x0 RETURN INVALID PUSH1 0x80 PUSH1 0x40 MSTORE PUSH1 0x4 CALLDATASIZE LT PUSH2 0x14A JUMPI PUSH1 0x0 CALLDATALOAD PUSH1 0xE0 SHR DUP1 PUSH4 0x8456CB59 GT PUSH2 0xB6 JUMPI DUP1 PUSH4 0xC7F758A8 GT PUSH2 0x6F JUMPI DUP1 PUSH4 0xC7F758A8 EQ PUSH2 0x3EF JUMPI DUP1 PUSH4 0xC859630D EQ PUSH2 0x41C JUMPI DUP1 PUSH4 0xD23254B4 EQ PUSH2 0x43C JUMPI DUP1 PUSH4 0xDA35C664 EQ PUSH2 0x4A7 JUMPI DUP1 PUSH4 0xF0F9E6B7 EQ PUSH2 0x4BD JUMPI DUP1 PUSH4 0xF4D0EA3C EQ PUSH2 0x4DD JUMPI PUSH1 0x0 DUP1 REVERT JUMPDEST DUP1 PUSH4 0x8456CB59 EQ PUSH2 0x2B2 JUMPI DUP1 PUSH4 0x88BA16AB EQ PUSH2 0x2F0 JUMPI DUP1 PUSH4 0xB172B222 EQ PUSH2 0x330 JUMPI DUP1 PUSH4 0xB2561263 EQ PUSH2 0x368 JUMPI DUP1 PUSH4 0xB353AAA7 EQ PUSH2 0x388 JUMPI DUP1 PUSH4 0xBC3F931F EQ PUSH2 0x3A8 JUMPI PUSH1 0x0 DUP1 REVERT JUMPDEST DUP1 PUSH4 0x36874B8C GT PUSH2 0x108 JUMPI DUP1 PUSH4 0x36874B8C EQ PUSH2 0x242 JUMPI DUP1 PUSH4 0x3864DDF5 EQ PUSH2 0x258 JUMPI DUP1 PUSH4 0x3E4F49E6 EQ PUSH2 0x285 JUMPI DUP1 PUSH4 0x3F4BA83A EQ PUSH2 0x2B2 JUMPI DUP1 PUSH4 0x4FA76EC9 EQ PUSH2 0x2C7 JUMPI DUP1 PUSH4 0x5573A039 EQ PUSH2 0x2DD JUMPI PUSH1 0x0 DUP1 REVERT JUMPDEST DUP1 PUSH3 0x1D3567 EQ PUSH2 0x14F JUMPI DUP1 PUSH4 0x13CF08B EQ PUSH2 0x171 JUMPI DUP1 PUSH4 0x2A251A3 EQ PUSH2 0x1B3 JUMPI DUP1 PUSH4 0x1766A00E EQ PUSH2 0x1D7 JUMPI DUP1 PUSH4 0x20737F1F EQ PUSH2 0x20F JUMPI DUP1 PUSH4 0x288F2F58 EQ PUSH2 0x22F JUMPI JUMPDEST PUSH1 0x0 DUP1 REVERT JUMPDEST CALLVALUE DUP1 ISZERO PUSH2 0x15B JUMPI PUSH1 0x0 DUP1 REVERT JUMPDEST POP PUSH2 0x16F PUSH2 0x16A CALLDATASIZE PUSH1 0x4 PUSH2 0x22FE JUMP JUMPDEST PUSH2 0x4F3 JUMP JUMPDEST STOP JUMPDEST CALLVALUE DUP1 ISZERO PUSH2 0x17D JUMPI PUSH1 0x0 DUP1 REVERT JUMPDEST POP PUSH2 0x191 PUSH2 0x18C CALLDATASIZE PUSH1 0x4 PUSH2 0x2397 JUMP JUMPDEST PUSH2 0x653 JUMP JUMPDEST PUSH1 0x40 MLOAD PUSH2 0x1AA SWAP14 SWAP13 SWAP12 SWAP11 SWAP10 SWAP9 SWAP8 SWAP7 SWAP6 SWAP5 SWAP4 SWAP3 SWAP2 SWAP1 PUSH2 0x243A JUMP JUMPDEST PUSH1 0x40 MLOAD DUP1 SWAP2 SUB SWAP1 RETURN JUMPDEST CALLVALUE DUP1 ISZERO PUSH2 0x1BF JUMPI PUSH1 0x0 DUP1 REVERT JUMPDEST POP PUSH2 0x1C9 PUSH1 0xC SLOAD DUP2 JUMP JUMPDEST PUSH1 0x40 MLOAD SWAP1 DUP2 MSTORE PUSH1 0x20 ADD PUSH2 0x1AA JUMP JUMPDEST CALLVALUE DUP1 ISZERO PUSH2 0x1E3 JUMPI PUSH1 0x0 DUP1 REVERT JUMPDEST POP PUSH2 0x1C9 PUSH2 0x1F2 CALLDATASIZE PUSH1 0x4 PUSH2 0x25F1 JUMP JUMPDEST DUP1 MLOAD PUSH1 0x20 DUP2 DUP4 ADD DUP2 ADD DUP1 MLOAD PUSH1 0x4 DUP3 MSTORE SWAP3 DUP3 ADD SWAP2 SWAP1 SWAP4 ADD KECCAK256 SWAP2 MSTORE SLOAD DUP2 JUMP JUMPDEST CALLVALUE DUP1 ISZERO PUSH2 0x21B JUMPI PUSH1 0x0 DUP1 REVERT JUMPDEST POP PUSH2 0x16F PUSH2 0x22A CALLDATASIZE PUSH1 0x4 PUSH2 0x263A JUMP JUMPDEST PUSH2 0x7DC JUMP JUMPDEST PUSH2 0x16F PUSH2 0x23D CALLDATASIZE PUSH1 0x4 PUSH2 0x2666 JUMP JUMPDEST PUSH2 0x828 JUMP JUMPDEST CALLVALUE DUP1 ISZERO PUSH2 0x24E JUMPI PUSH1 0x0 DUP1 REVERT JUMPDEST POP PUSH2 0x1C9 PUSH1 0xA SLOAD DUP2 JUMP JUMPDEST CALLVALUE DUP1 ISZERO PUSH2 0x264 JUMPI PUSH1 0x0 DUP1 REVERT JUMPDEST POP PUSH2 0x1C9 PUSH2 0x273 CALLDATASIZE PUSH1 0x4 PUSH2 0x2397 JUMP JUMPDEST PUSH1 0x5 PUSH1 0x20 MSTORE PUSH1 0x0 SWAP1 DUP2 MSTORE PUSH1 0x40 SWAP1 KECCAK256 SLOAD DUP2 JUMP JUMPDEST CALLVALUE DUP1 ISZERO PUSH2 0x291 JUMPI PUSH1 0x0 DUP1 REVERT JUMPDEST POP PUSH2 0x2A5 PUSH2 0x2A0 CALLDATASIZE PUSH1 0x4 PUSH2 0x2397 JUMP JUMPDEST PUSH2 0xB67 JUMP JUMPDEST PUSH1 0x40 MLOAD PUSH2 0x1AA SWAP2 SWAP1 PUSH2 0x26EE JUMP JUMPDEST CALLVALUE DUP1 ISZERO PUSH2 0x2BE JUMPI PUSH1 0x0 DUP1 REVERT JUMPDEST POP PUSH2 0x16F PUSH2 0xC2A JUMP JUMPDEST CALLVALUE DUP1 ISZERO PUSH2 0x2D3 JUMPI PUSH1 0x0 DUP1 REVERT JUMPDEST POP PUSH2 0x1C9 PUSH1 0xB SLOAD DUP2 JUMP JUMPDEST PUSH2 0x1C9 PUSH2 0x2EB CALLDATASIZE PUSH1 0x4 PUSH2 0x2895 JUMP JUMPDEST PUSH2 0xC56 JUMP JUMPDEST CALLVALUE DUP1 ISZERO PUSH2 0x2FC JUMPI PUSH1 0x0 DUP1 REVERT JUMPDEST POP PUSH2 0x320 PUSH2 0x30B CALLDATASIZE PUSH1 0x4 PUSH2 0x2397 JUMP JUMPDEST PUSH1 0x3 PUSH1 0x20 MSTORE PUSH1 0x0 SWAP1 DUP2 MSTORE PUSH1 0x40 SWAP1 KECCAK256 SLOAD PUSH1 0xFF AND DUP2 JUMP JUMPDEST PUSH1 0x40 MLOAD SWAP1 ISZERO ISZERO DUP2 MSTORE PUSH1 0x20 ADD PUSH2 0x1AA JUMP JUMPDEST CALLVALUE DUP1 ISZERO PUSH2 0x33C JUMPI PUSH1 0x0 DUP1 REVERT JUMPDEST POP PUSH1 0x7 SLOAD PUSH2 0x350 SWAP1 PUSH1 0x1 PUSH1 0x1 PUSH1 0xA0 SHL SUB AND DUP2 JUMP JUMPDEST PUSH1 0x40 MLOAD PUSH1 0x1 PUSH1 0x1 PUSH1 0xA0 SHL SUB SWAP1 SWAP2 AND DUP2 MSTORE PUSH1 0x20 ADD PUSH2 0x1AA JUMP JUMPDEST CALLVALUE DUP1 ISZERO PUSH2 0x374 JUMPI PUSH1 0x0 DUP1 REVERT JUMPDEST POP PUSH2 0x16F PUSH2 0x383 CALLDATASIZE PUSH1 0x4 PUSH2 0x263A JUMP JUMPDEST PUSH2 0x11FE JUMP JUMPDEST CALLVALUE DUP1 ISZERO PUSH2 0x394 JUMPI PUSH1 0x0 DUP1 REVERT JUMPDEST POP PUSH1 0x0 SLOAD PUSH2 0x350 SWAP1 PUSH1 0x1 PUSH1 0x1 PUSH1 0xA0 SHL SUB AND DUP2 JUMP JUMPDEST CALLVALUE DUP1 ISZERO PUSH2 0x3B4 JUMPI PUSH1 0x0 DUP1 REVERT JUMPDEST POP PUSH2 0x3C8 PUSH2 0x3C3 CALLDATASIZE PUSH1 0x4 PUSH2 0x2961 JUMP JUMPDEST PUSH2 0x1289 JUMP JUMPDEST PUSH1 0x40 DUP1 MLOAD DUP3 MLOAD ISZERO ISZERO DUP2 MSTORE PUSH1 0x20 DUP1 DUP5 ADD MLOAD PUSH1 0xFF AND SWAP1 DUP3 ADD MSTORE SWAP2 DUP2 ADD MLOAD SWAP1 DUP3 ADD MSTORE PUSH1 0x60 ADD PUSH2 0x1AA JUMP JUMPDEST CALLVALUE DUP1 ISZERO PUSH2 0x3FB JUMPI PUSH1 0x0 DUP1 REVERT JUMPDEST POP PUSH2 0x40F PUSH2 0x40A CALLDATASIZE PUSH1 0x4 PUSH2 0x2397 JUMP JUMPDEST PUSH2 0x12F6 JUMP JUMPDEST PUSH1 0x40 MLOAD PUSH2 0x1AA SWAP2 SWAP1 PUSH2 0x2A5D JUMP JUMPDEST CALLVALUE DUP1 ISZERO PUSH2 0x428 JUMPI PUSH1 0x0 DUP1 REVERT JUMPDEST POP PUSH1 0x8 SLOAD PUSH2 0x350 SWAP1 PUSH1 0x1 PUSH1 0x1 PUSH1 0xA0 SHL SUB AND DUP2 JUMP JUMPDEST CALLVALUE DUP1 ISZERO PUSH2 0x448 JUMPI PUSH1 0x0 DUP1 REVERT JUMPDEST POP PUSH2 0x488 PUSH2 0x457 CALLDATASIZE PUSH1 0x4 PUSH2 0x2961 JUMP JUMPDEST PUSH1 0x2 PUSH1 0x20 SWAP1 DUP2 MSTORE PUSH1 0x0 SWAP3 DUP4 MSTORE PUSH1 0x40 DUP1 DUP5 KECCAK256 SWAP1 SWAP2 MSTORE SWAP1 DUP3 MSTORE SWAP1 KECCAK256 DUP1 SLOAD PUSH1 0x1 SWAP1 SWAP2 ADD SLOAD PUSH1 0xFF DUP1 DUP4 AND SWAP3 PUSH2 0x100 SWAP1 DIV AND SWAP1 DUP4 JUMP JUMPDEST PUSH1 0x40 DUP1 MLOAD SWAP4 ISZERO ISZERO DUP5 MSTORE PUSH1 0xFF SWAP1 SWAP3 AND PUSH1 0x20 DUP5 ADD MSTORE SWAP1 DUP3 ADD MSTORE PUSH1 0x60 ADD PUSH2 0x1AA JUMP JUMPDEST CALLVALUE DUP1 ISZERO PUSH2 0x4B3 JUMPI PUSH1 0x0 DUP1 REVERT JUMPDEST POP PUSH2 0x1C9 PUSH1 0x6 SLOAD DUP2 JUMP JUMPDEST CALLVALUE DUP1 ISZERO PUSH2 0x4C9 JUMPI PUSH1 0x0 DUP1 REVERT JUMPDEST POP PUSH2 0x16F PUSH2 0x4D8 CALLDATASIZE PUSH1 0x4 PUSH2 0x2397 JUMP JUMPDEST PUSH2 0x16AC JUMP JUMPDEST CALLVALUE DUP1 ISZERO PUSH2 0x4E9 JUMPI PUSH1 0x0 DUP1 REVERT JUMPDEST POP PUSH2 0x1C9 PUSH1 0x9 SLOAD DUP2 JUMP JUMPDEST PUSH1 0x0 SLOAD PUSH1 0x1 PUSH1 0x1 PUSH1 0xA0 SHL SUB AND CALLER EQ PUSH2 0x552 JUMPI PUSH1 0x40 MLOAD PUSH3 0x461BCD PUSH1 0xE5 SHL DUP2 MSTORE PUSH1 0x20 PUSH1 0x4 DUP3 ADD MSTORE PUSH1 0x17 PUSH1 0x24 DUP3 ADD MSTORE PUSH32 0x4C7A4170703A20696E76616C696420656E64706F696E74000000000000000000 PUSH1 0x44 DUP3 ADD MSTORE PUSH1 0x64 ADD JUMPDEST PUSH1 0x40 MLOAD DUP1 SWAP2 SUB SWAP1 REVERT JUMPDEST PUSH1 0x0 DUP3 DUP3 PUSH1 0x0 DUP2 DUP2 LT PUSH2 0x567 JUMPI PUSH2 0x567 PUSH2 0x2B9F JUMP JUMPDEST SWAP2 SWAP1 SWAP2 ADD CALLDATALOAD PUSH1 0xF8 SHR SWAP2 POP POP PUSH1 0x1 DUP2 SWAP1 SUB PUSH2 0x5C0 JUMPI PUSH2 0x5BB DUP8 DUP5 DUP5 DUP1 DUP1 PUSH1 0x1F ADD PUSH1 0x20 DUP1 SWAP2 DIV MUL PUSH1 0x20 ADD PUSH1 0x40 MLOAD SWAP1 DUP2 ADD PUSH1 0x40 MSTORE DUP1 SWAP4 SWAP3 SWAP2 SWAP1 DUP2 DUP2 MSTORE PUSH1 0x20 ADD DUP4 DUP4 DUP1 DUP3 DUP5 CALLDATACOPY PUSH1 0x0 SWAP3 ADD SWAP2 SWAP1 SWAP2 MSTORE POP PUSH2 0x16DB SWAP3 POP POP POP JUMP JUMPDEST PUSH2 0x64A JUMP JUMPDEST DUP1 PUSH1 0xFF AND PUSH1 0x2 SUB PUSH2 0x60B JUMPI PUSH2 0x5BB DUP8 DUP5 DUP5 DUP1 DUP1 PUSH1 0x1F ADD PUSH1 0x20 DUP1 SWAP2 DIV MUL PUSH1 0x20 ADD PUSH1 0x40 MLOAD SWAP1 DUP2 ADD PUSH1 0x40 MSTORE DUP1 SWAP4 SWAP3 SWAP2 SWAP1 DUP2 DUP2 MSTORE PUSH1 0x20 ADD DUP4 DUP4 DUP1 DUP3 DUP5 CALLDATACOPY PUSH1 0x0 SWAP3 ADD SWAP2 SWAP1 SWAP2 MSTORE POP PUSH2 0x1AA3 SWAP3 POP POP POP JUMP JUMPDEST PUSH1 0x40 MLOAD PUSH3 0x461BCD PUSH1 0xE5 SHL DUP2 MSTORE PUSH1 0x20 PUSH1 0x4 DUP3 ADD MSTORE PUSH1 0x14 PUSH1 0x24 DUP3 ADD MSTORE PUSH20 0x496E76616C6964206D6573736167652074797065 PUSH1 0x60 SHL PUSH1 0x44 DUP3 ADD MSTORE PUSH1 0x64 ADD PUSH2 0x549 JUMP JUMPDEST POP POP POP POP POP POP POP JUMP JUMPDEST PUSH1 0x1 PUSH1 0x20 DUP2 SWAP1 MSTORE PUSH1 0x0 SWAP2 DUP3 MSTORE PUSH1 0x40 SWAP1 SWAP2 KECCAK256 DUP1 SLOAD SWAP2 DUP2 ADD SLOAD PUSH1 0x2 DUP3 ADD SLOAD PUSH1 0x3 DUP4 ADD SLOAD PUSH1 0x4 DUP5 ADD SLOAD PUSH1 0x5 DUP6 ADD SLOAD PUSH1 0x6 DUP7 ADD SLOAD PUSH1 0x7 DUP8 ADD SLOAD PUSH1 0x8 DUP9 ADD DUP1 SLOAD PUSH1 0x1 PUSH1 0x1 PUSH1 0xA0 SHL SUB SWAP1 SWAP9 AND SWAP9 SWAP7 SWAP8 SWAP6 SWAP7 SWAP5 SWAP6 SWAP4 SWAP5 SWAP3 SWAP4 SWAP2 SWAP3 SWAP2 PUSH2 0x6B0 SWAP1 PUSH2 0x2BB5 JUMP JUMPDEST DUP1 PUSH1 0x1F ADD PUSH1 0x20 DUP1 SWAP2 DIV MUL PUSH1 0x20 ADD PUSH1 0x40 MLOAD SWAP1 DUP2 ADD PUSH1 0x40 MSTORE DUP1 SWAP3 SWAP2 SWAP1 DUP2 DUP2 MSTORE PUSH1 0x20 ADD DUP3 DUP1 SLOAD PUSH2 0x6DC SWAP1 PUSH2 0x2BB5 JUMP JUMPDEST DUP1 ISZERO PUSH2 0x729 JUMPI DUP1 PUSH1 0x1F LT PUSH2 0x6FE JUMPI PUSH2 0x100 DUP1 DUP4 SLOAD DIV MUL DUP4 MSTORE SWAP2 PUSH1 0x20 ADD SWAP2 PUSH2 0x729 JUMP JUMPDEST DUP3 ADD SWAP2 SWAP1 PUSH1 0x0 MSTORE PUSH1 0x20 PUSH1 0x0 KECCAK256 SWAP1 JUMPDEST DUP2 SLOAD DUP2 MSTORE SWAP1 PUSH1 0x1 ADD SWAP1 PUSH1 0x20 ADD DUP1 DUP4 GT PUSH2 0x70C JUMPI DUP3 SWAP1 SUB PUSH1 0x1F AND DUP3 ADD SWAP2 JUMPDEST POP POP POP POP PUSH1 0x9 DUP4 ADD SLOAD PUSH1 0xD DUP5 ADD SLOAD PUSH1 0xE DUP6 ADD DUP1 SLOAD SWAP5 SWAP6 PUSH1 0xFF DUP1 DUP6 AND SWAP7 PUSH2 0x100 SWAP1 SWAP6 DIV AND SWAP5 POP SWAP2 SWAP3 PUSH2 0x759 SWAP1 PUSH2 0x2BB5 JUMP JUMPDEST DUP1 PUSH1 0x1F ADD PUSH1 0x20 DUP1 SWAP2 DIV MUL PUSH1 0x20 ADD PUSH1 0x40 MLOAD SWAP1 DUP2 ADD PUSH1 0x40 MSTORE DUP1 SWAP3 SWAP2 SWAP1 DUP2 DUP2 MSTORE PUSH1 0x20 ADD DUP3 DUP1 SLOAD PUSH2 0x785 SWAP1 PUSH2 0x2BB5 JUMP JUMPDEST DUP1 ISZERO PUSH2 0x7D2 JUMPI DUP1 PUSH1 0x1F LT PUSH2 0x7A7 JUMPI PUSH2 0x100 DUP1 DUP4 SLOAD DIV MUL DUP4 MSTORE SWAP2 PUSH1 0x20 ADD SWAP2 PUSH2 0x7D2 JUMP JUMPDEST DUP3 ADD SWAP2 SWAP1 PUSH1 0x0 MSTORE PUSH1 0x20 PUSH1 0x0 KECCAK256 SWAP1 JUMPDEST DUP2 SLOAD DUP2 MSTORE SWAP1 PUSH1 0x1 ADD SWAP1 PUSH1 0x20 ADD DUP1 DUP4 GT PUSH2 0x7B5 JUMPI DUP3 SWAP1 SUB PUSH1 0x1F AND DUP3 ADD SWAP2 JUMPDEST POP POP POP POP POP SWAP1 POP DUP14 JUMP JUMPDEST PUSH1 0x7 SLOAD PUSH1 0x1 PUSH1 0x1 PUSH1 0xA0 SHL SUB AND CALLER EQ PUSH2 0x806 JUMPI PUSH1 0x40 MLOAD PUSH3 0x461BCD PUSH1 0xE5 SHL DUP2 MSTORE PUSH1 0x4 ADD PUSH2 0x549 SWAP1 PUSH2 0x2BE9 JUMP JUMPDEST PUSH1 0x8 DUP1 SLOAD PUSH1 0x1 PUSH1 0x1 PUSH1 0xA0 SHL SUB NOT AND PUSH1 0x1 PUSH1 0x1 PUSH1 0xA0 SHL SUB SWAP3 SWAP1 SWAP3 AND SWAP2 SWAP1 SWAP2 OR SWAP1 SSTORE JUMP JUMPDEST PUSH1 0x9 SLOAD DUP5 PUSH2 0xFFFF AND EQ DUP1 PUSH2 0x841 JUMPI POP PUSH1 0xA SLOAD DUP5 PUSH2 0xFFFF AND EQ JUMPDEST PUSH2 0x884 JUMPI PUSH1 0x40 MLOAD PUSH3 0x461BCD PUSH1 0xE5 SHL DUP2 MSTORE PUSH1 0x20 PUSH1 0x4 DUP3 ADD MSTORE PUSH1 0x14 PUSH1 0x24 DUP3 ADD MSTORE PUSH20 0x24B73B30B634B2103A30B933B2BA1031B430B4B7 PUSH1 0x61 SHL PUSH1 0x44 DUP3 ADD MSTORE PUSH1 0x64 ADD PUSH2 0x549 JUMP JUMPDEST PUSH1 0x2 DUP3 PUSH1 0xFF AND GT ISZERO PUSH2 0x8D8 JUMPI PUSH1 0x40 MLOAD PUSH3 0x461BCD PUSH1 0xE5 SHL DUP2 MSTORE PUSH1 0x20 PUSH1 0x4 DUP3 ADD MSTORE PUSH1 0x1A PUSH1 0x24 DUP3 ADD MSTORE PUSH32 0x496E76616C696420766F746520737570706F72742076616C7565000000000000 PUSH1 0x44 DUP3 ADD MSTORE PUSH1 0x64 ADD PUSH2 0x549 JUMP JUMPDEST PUSH1 0x0 PUSH1 0x40 MLOAD DUP1 PUSH1 0xE0 ADD PUSH1 0x40 MSTORE DUP1 PUSH1 0x0 DUP2 MSTORE PUSH1 0x20 ADD CALLER PUSH1 0x1 PUSH1 0x1 PUSH1 0xA0 SHL SUB AND DUP2 MSTORE PUSH1 0x20 ADD DUP5 PUSH1 0xFF AND DUP2 MSTORE PUSH1 0x20 ADD DUP4 DUP2 MSTORE PUSH1 0x20 ADD CHAINID DUP2 MSTORE PUSH1 0x20 ADD DUP6 DUP2 MSTORE PUSH1 0x20 ADD TIMESTAMP DUP2 MSTORE POP SWAP1 POP PUSH1 0x0 DUP2 PUSH1 0x40 MLOAD PUSH1 0x20 ADD PUSH2 0x92F SWAP2 SWAP1 PUSH2 0x2C2F JUMP JUMPDEST PUSH1 0x40 MLOAD PUSH1 0x20 DUP2 DUP4 SUB SUB DUP2 MSTORE SWAP1 PUSH1 0x40 MSTORE SWAP1 POP PUSH1 0x0 DUP2 MLOAD PUSH1 0x1 PUSH2 0x950 SWAP2 SWAP1 PUSH2 0x2CC9 JUMP JUMPDEST PUSH1 0x1 PUSH1 0x1 PUSH1 0x40 SHL SUB DUP2 GT ISZERO PUSH2 0x967 JUMPI PUSH2 0x967 PUSH2 0x24D4 JUMP JUMPDEST PUSH1 0x40 MLOAD SWAP1 DUP1 DUP3 MSTORE DUP1 PUSH1 0x1F ADD PUSH1 0x1F NOT AND PUSH1 0x20 ADD DUP3 ADD PUSH1 0x40 MSTORE DUP1 ISZERO PUSH2 0x991 JUMPI PUSH1 0x20 DUP3 ADD DUP2 DUP1 CALLDATASIZE DUP4 CALLDATACOPY ADD SWAP1 POP JUMPDEST POP SWAP1 POP PUSH1 0x2 PUSH1 0xF8 SHL DUP2 PUSH1 0x0 DUP2 MLOAD DUP2 LT PUSH2 0x9AC JUMPI PUSH2 0x9AC PUSH2 0x2B9F JUMP JUMPDEST PUSH1 0x20 ADD ADD SWAP1 PUSH1 0x1 PUSH1 0x1 PUSH1 0xF8 SHL SUB NOT AND SWAP1 DUP2 PUSH1 0x0 BYTE SWAP1 MSTORE8 POP PUSH1 0x0 JUMPDEST DUP3 MLOAD DUP2 LT ISZERO PUSH2 0xA35 JUMPI DUP3 DUP2 DUP2 MLOAD DUP2 LT PUSH2 0x9E1 JUMPI PUSH2 0x9E1 PUSH2 0x2B9F JUMP JUMPDEST ADD PUSH1 0x20 ADD MLOAD PUSH1 0x1 PUSH1 0x1 PUSH1 0xF8 SHL SUB NOT AND DUP3 PUSH2 0x9FC DUP4 PUSH1 0x1 PUSH2 0x2CC9 JUMP JUMPDEST DUP2 MLOAD DUP2 LT PUSH2 0xA0C JUMPI PUSH2 0xA0C PUSH2 0x2B9F JUMP JUMPDEST PUSH1 0x20 ADD ADD SWAP1 PUSH1 0x1 PUSH1 0x1 PUSH1 0xF8 SHL SUB NOT AND SWAP1 DUP2 PUSH1 0x0 BYTE SWAP1 MSTORE8 POP DUP1 PUSH2 0xA2D DUP2 PUSH2 0x2CDC JUMP JUMPDEST SWAP2 POP POP PUSH2 0x9C6 JUMP JUMPDEST POP PUSH1 0x0 DUP1 SLOAD PUSH1 0x40 DUP1 MLOAD PUSH1 0x20 DUP2 ADD DUP3 MSTORE DUP4 DUP2 MSTORE SWAP1 MLOAD PUSH4 0x40A7BB1 PUSH1 0xE4 SHL DUP2 MSTORE PUSH1 0x1 PUSH1 0x1 PUSH1 0xA0 SHL SUB SWAP1 SWAP3 AND SWAP2 PUSH4 0x40A7BB10 SWAP2 PUSH2 0xA79 SWAP2 DUP13 SWAP2 ADDRESS SWAP2 DUP9 SWAP2 DUP9 SWAP2 PUSH1 0x4 ADD PUSH2 0x2CF5 JUMP JUMPDEST PUSH1 0x40 DUP1 MLOAD DUP1 DUP4 SUB DUP2 DUP7 GAS STATICCALL ISZERO DUP1 ISZERO PUSH2 0xA95 JUMPI RETURNDATASIZE PUSH1 0x0 DUP1 RETURNDATACOPY RETURNDATASIZE PUSH1 0x0 REVERT JUMPDEST POP POP POP POP PUSH1 0x40 MLOAD RETURNDATASIZE PUSH1 0x1F NOT PUSH1 0x1F DUP3 ADD AND DUP3 ADD DUP1 PUSH1 0x40 MSTORE POP DUP2 ADD SWAP1 PUSH2 0xAB9 SWAP2 SWAP1 PUSH2 0x2D49 JUMP JUMPDEST POP SWAP1 POP DUP1 CALLVALUE LT ISZERO PUSH2 0xAFF JUMPI PUSH1 0x40 MLOAD PUSH3 0x461BCD PUSH1 0xE5 SHL DUP2 MSTORE PUSH1 0x20 PUSH1 0x4 DUP3 ADD MSTORE PUSH1 0x10 PUSH1 0x24 DUP3 ADD MSTORE PUSH16 0x496E73756666696369656E7420666565 PUSH1 0x80 SHL PUSH1 0x44 DUP3 ADD MSTORE PUSH1 0x64 ADD PUSH2 0x549 JUMP JUMPDEST PUSH2 0xB1C DUP9 DUP4 CALLER ADDRESS PUSH1 0x40 MLOAD DUP1 PUSH1 0x20 ADD PUSH1 0x40 MSTORE DUP1 PUSH1 0x0 DUP2 MSTORE POP DUP7 PUSH2 0x1EAF JUMP JUMPDEST PUSH1 0x40 DUP1 MLOAD PUSH1 0xFF DUP9 AND DUP2 MSTORE PUSH1 0x64 PUSH1 0x20 DUP3 ADD MSTORE CALLER SWAP2 PUSH1 0x0 SWAP2 PUSH32 0xB83D25C6A5D258561330739951487ACB4BD09BA5190B5D32C4F261817D906792 SWAP2 ADD PUSH1 0x40 MLOAD DUP1 SWAP2 SUB SWAP1 LOG3 POP POP POP POP POP POP POP POP JUMP JUMPDEST PUSH1 0x0 DUP2 PUSH1 0x0 DUP2 GT DUP1 ISZERO PUSH2 0xB7C JUMPI POP PUSH1 0x6 SLOAD DUP2 GT ISZERO JUMPDEST PUSH2 0xBBE JUMPI PUSH1 0x40 MLOAD PUSH3 0x461BCD PUSH1 0xE5 SHL DUP2 MSTORE PUSH1 0x20 PUSH1 0x4 DUP3 ADD MSTORE PUSH1 0x13 PUSH1 0x24 DUP3 ADD MSTORE PUSH19 0x125B9D985B1A59081C1C9BDC1BDCD85B081251 PUSH1 0x6A SHL PUSH1 0x44 DUP3 ADD MSTORE PUSH1 0x64 ADD PUSH2 0x549 JUMP JUMPDEST PUSH1 0x0 DUP4 DUP2 MSTORE PUSH1 0x1 PUSH1 0x20 MSTORE PUSH1 0x40 SWAP1 KECCAK256 PUSH1 0x3 DUP2 ADD SLOAD TIMESTAMP LT ISZERO PUSH2 0xBE2 JUMPI PUSH1 0x1 SWAP3 POP POP PUSH2 0xC24 JUMP JUMPDEST DUP1 PUSH1 0x5 ADD SLOAD DUP2 PUSH1 0x4 ADD SLOAD GT ISZERO DUP1 PUSH2 0xC0F JUMPI POP DUP1 PUSH1 0x7 ADD SLOAD DUP2 PUSH1 0x5 ADD SLOAD DUP3 PUSH1 0x4 ADD SLOAD PUSH2 0xC0D SWAP2 SWAP1 PUSH2 0x2CC9 JUMP JUMPDEST LT JUMPDEST ISZERO PUSH2 0xC1E JUMPI PUSH1 0x3 SWAP3 POP POP PUSH2 0xC24 JUMP JUMPDEST PUSH1 0x4 SWAP3 POP POP JUMPDEST POP SWAP2 SWAP1 POP JUMP JUMPDEST PUSH1 0x7 SLOAD PUSH1 0x1 PUSH1 0x1 PUSH1 0xA0 SHL SUB AND CALLER EQ PUSH2 0xC54 JUMPI PUSH1 0x40 MLOAD PUSH3 0x461BCD PUSH1 0xE5 SHL DUP2 MSTORE PUSH1 0x4 ADD PUSH2 0x549 SWAP1 PUSH2 0x2BE9 JUMP JUMPDEST JUMP JUMPDEST PUSH1 0x0 PUSH1 0x9 SLOAD DUP8 PUSH2 0xFFFF AND EQ DUP1 PUSH2 0xC71 JUMPI POP PUSH1 0xA SLOAD DUP8 PUSH2 0xFFFF AND EQ JUMPDEST PUSH2 0xCB4 JUMPI PUSH1 0x40 MLOAD PUSH3 0x461BCD PUSH1 0xE5 SHL DUP2 MSTORE PUSH1 0x20 PUSH1 0x4 DUP3 ADD MSTORE PUSH1 0x14 PUSH1 0x24 DUP3 ADD MSTORE PUSH20 0x24B73B30B634B2103A30B933B2BA1031B430B4B7 PUSH1 0x61 SHL PUSH1 0x44 DUP3 ADD MSTORE PUSH1 0x64 ADD PUSH2 0x549 JUMP JUMPDEST PUSH1 0x6 PUSH1 0x0 DUP2 SLOAD PUSH2 0xCC3 SWAP1 PUSH2 0x2CDC JUMP JUMPDEST SWAP2 DUP3 SWAP1 SSTORE POP PUSH1 0xC SLOAD SWAP1 SWAP2 POP TIMESTAMP SWAP1 PUSH1 0x0 SWAP1 PUSH2 0xCDD SWAP1 DUP4 PUSH2 0x2CC9 JUMP JUMPDEST SWAP1 POP PUSH1 0x40 MLOAD DUP1 PUSH2 0x200 ADD PUSH1 0x40 MSTORE DUP1 DUP5 DUP2 MSTORE PUSH1 0x20 ADD CALLER PUSH1 0x1 PUSH1 0x1 PUSH1 0xA0 SHL SUB AND DUP2 MSTORE PUSH1 0x20 ADD DUP4 DUP2 MSTORE PUSH1 0x20 ADD DUP3 DUP2 MSTORE PUSH1 0x20 ADD PUSH1 0x0 DUP2 MSTORE PUSH1 0x20 ADD PUSH1 0x0 DUP2 MSTORE PUSH1 0x20 ADD PUSH1 0x0 DUP2 MSTORE PUSH1 0x20 ADD PUSH1 0xB SLOAD DUP2 MSTORE PUSH1 0x20 ADD DUP10 DUP2 MSTORE PUSH1 0x20 ADD DUP9 PUSH1 0x4 DUP2 GT ISZERO PUSH2 0xD41 JUMPI PUSH2 0xD41 PUSH2 0x2400 JUMP JUMPDEST DUP2 MSTORE PUSH1 0x20 ADD PUSH1 0x0 DUP2 MSTORE PUSH1 0x20 ADD DUP8 DUP2 MSTORE PUSH1 0x20 ADD DUP7 DUP2 MSTORE PUSH1 0x20 ADD DUP6 DUP2 MSTORE PUSH1 0x20 ADD CHAINID DUP2 MSTORE PUSH1 0x20 ADD PUSH2 0xD6E DUP6 PUSH2 0x1F9F JUMP JUMPDEST PUSH1 0x40 MLOAD PUSH1 0x20 ADD PUSH2 0xD7E SWAP2 SWAP1 PUSH2 0x2D6D JUMP JUMPDEST PUSH1 0x40 DUP1 MLOAD DUP1 DUP4 SUB PUSH1 0x1F NOT ADD DUP2 MSTORE SWAP2 DUP2 MSTORE SWAP2 MSTORE PUSH1 0x0 DUP6 DUP2 MSTORE PUSH1 0x1 PUSH1 0x20 DUP2 DUP2 MSTORE SWAP2 DUP4 SWAP1 KECCAK256 DUP5 MLOAD DUP2 SSTORE SWAP2 DUP5 ADD MLOAD SWAP1 DUP3 ADD DUP1 SLOAD PUSH1 0x1 PUSH1 0x1 PUSH1 0xA0 SHL SUB NOT AND PUSH1 0x1 PUSH1 0x1 PUSH1 0xA0 SHL SUB SWAP1 SWAP3 AND SWAP2 SWAP1 SWAP2 OR SWAP1 SSTORE SWAP1 DUP3 ADD MLOAD PUSH1 0x2 DUP3 ADD SSTORE PUSH1 0x60 DUP3 ADD MLOAD PUSH1 0x3 DUP3 ADD SSTORE PUSH1 0x80 DUP3 ADD MLOAD PUSH1 0x4 DUP3 ADD SSTORE PUSH1 0xA0 DUP3 ADD MLOAD PUSH1 0x5 DUP3 ADD SSTORE PUSH1 0xC0 DUP3 ADD MLOAD PUSH1 0x6 DUP3 ADD SSTORE PUSH1 0xE0 DUP3 ADD MLOAD PUSH1 0x7 DUP3 ADD SSTORE PUSH2 0x100 DUP3 ADD MLOAD PUSH1 0x8 DUP3 ADD SWAP1 PUSH2 0xE18 SWAP1 DUP3 PUSH2 0x2DE4 JUMP JUMPDEST POP PUSH2 0x120 DUP3 ADD MLOAD PUSH1 0x9 DUP3 ADD DUP1 SLOAD PUSH1 0xFF NOT AND PUSH1 0x1 DUP4 PUSH1 0x4 DUP2 GT ISZERO PUSH2 0xE3D JUMPI PUSH2 0xE3D PUSH2 0x2400 JUMP JUMPDEST MUL OR SWAP1 SSTORE POP PUSH2 0x140 DUP3 ADD MLOAD PUSH1 0x9 DUP3 ADD DUP1 SLOAD PUSH2 0xFF00 NOT AND PUSH2 0x100 DUP4 PUSH1 0x6 DUP2 GT ISZERO PUSH2 0xE68 JUMPI PUSH2 0xE68 PUSH2 0x2400 JUMP JUMPDEST MUL OR SWAP1 SSTORE POP PUSH2 0x160 DUP3 ADD MLOAD DUP1 MLOAD PUSH2 0xE89 SWAP2 PUSH1 0xA DUP5 ADD SWAP2 PUSH1 0x20 SWAP1 SWAP2 ADD SWAP1 PUSH2 0x20A7 JUMP JUMPDEST POP PUSH2 0x180 DUP3 ADD MLOAD DUP1 MLOAD PUSH2 0xEA6 SWAP2 PUSH1 0xB DUP5 ADD SWAP2 PUSH1 0x20 SWAP1 SWAP2 ADD SWAP1 PUSH2 0x210C JUMP JUMPDEST POP PUSH2 0x1A0 DUP3 ADD MLOAD DUP1 MLOAD PUSH2 0xEC3 SWAP2 PUSH1 0xC DUP5 ADD SWAP2 PUSH1 0x20 SWAP1 SWAP2 ADD SWAP1 PUSH2 0x2147 JUMP JUMPDEST POP PUSH2 0x1C0 DUP3 ADD MLOAD PUSH1 0xD DUP3 ADD SSTORE PUSH2 0x1E0 DUP3 ADD MLOAD PUSH1 0xE DUP3 ADD SWAP1 PUSH2 0xEE4 SWAP1 DUP3 PUSH2 0x2DE4 JUMP JUMPDEST POP SWAP1 POP POP PUSH1 0x0 PUSH1 0x40 MLOAD DUP1 PUSH2 0x180 ADD PUSH1 0x40 MSTORE DUP1 DUP6 DUP2 MSTORE PUSH1 0x20 ADD CALLER PUSH1 0x1 PUSH1 0x1 PUSH1 0xA0 SHL SUB AND DUP2 MSTORE PUSH1 0x20 ADD DUP5 DUP2 MSTORE PUSH1 0x20 ADD DUP4 DUP2 MSTORE PUSH1 0x20 ADD DUP11 DUP2 MSTORE PUSH1 0x20 ADD DUP10 PUSH1 0x4 DUP2 GT ISZERO PUSH2 0xF2F JUMPI PUSH2 0xF2F PUSH2 0x2400 JUMP JUMPDEST DUP2 MSTORE PUSH1 0x20 ADD DUP9 DUP2 MSTORE PUSH1 0x20 ADD DUP8 DUP2 MSTORE PUSH1 0x20 ADD DUP7 DUP2 MSTORE PUSH1 0x20 ADD CHAINID DUP2 MSTORE PUSH1 0x20 ADD PUSH2 0xF55 DUP7 PUSH2 0x1F9F JUMP JUMPDEST PUSH1 0x40 MLOAD PUSH1 0x20 ADD PUSH2 0xF65 SWAP2 SWAP1 PUSH2 0x2D6D JUMP JUMPDEST PUSH1 0x40 MLOAD PUSH1 0x20 DUP2 DUP4 SUB SUB DUP2 MSTORE SWAP1 PUSH1 0x40 MSTORE DUP2 MSTORE PUSH1 0x20 ADD TIMESTAMP DUP2 MSTORE POP SWAP1 POP PUSH1 0x0 DUP2 PUSH1 0x40 MLOAD PUSH1 0x20 ADD PUSH2 0xF92 SWAP2 SWAP1 PUSH2 0x2EA3 JUMP JUMPDEST PUSH1 0x40 MLOAD PUSH1 0x20 DUP2 DUP4 SUB SUB DUP2 MSTORE SWAP1 PUSH1 0x40 MSTORE SWAP1 POP PUSH1 0x0 DUP2 MLOAD PUSH1 0x1 PUSH2 0xFB3 SWAP2 SWAP1 PUSH2 0x2CC9 JUMP JUMPDEST PUSH1 0x1 PUSH1 0x1 PUSH1 0x40 SHL SUB DUP2 GT ISZERO PUSH2 0xFCA JUMPI PUSH2 0xFCA PUSH2 0x24D4 JUMP JUMPDEST PUSH1 0x40 MLOAD SWAP1 DUP1 DUP3 MSTORE DUP1 PUSH1 0x1F ADD PUSH1 0x1F NOT AND PUSH1 0x20 ADD DUP3 ADD PUSH1 0x40 MSTORE DUP1 ISZERO PUSH2 0xFF4 JUMPI PUSH1 0x20 DUP3 ADD DUP2 DUP1 CALLDATASIZE DUP4 CALLDATACOPY ADD SWAP1 POP JUMPDEST POP SWAP1 POP PUSH1 0x1 PUSH1 0xF8 SHL DUP2 PUSH1 0x0 DUP2 MLOAD DUP2 LT PUSH2 0x100F JUMPI PUSH2 0x100F PUSH2 0x2B9F JUMP JUMPDEST PUSH1 0x20 ADD ADD SWAP1 PUSH1 0x1 PUSH1 0x1 PUSH1 0xF8 SHL SUB NOT AND SWAP1 DUP2 PUSH1 0x0 BYTE SWAP1 MSTORE8 POP PUSH1 0x0 JUMPDEST DUP3 MLOAD DUP2 LT ISZERO PUSH2 0x1098 JUMPI DUP3 DUP2 DUP2 MLOAD DUP2 LT PUSH2 0x1044 JUMPI PUSH2 0x1044 PUSH2 0x2B9F JUMP JUMPDEST ADD PUSH1 0x20 ADD MLOAD PUSH1 0x1 PUSH1 0x1 PUSH1 0xF8 SHL SUB NOT AND DUP3 PUSH2 0x105F DUP4 PUSH1 0x1 PUSH2 0x2CC9 JUMP JUMPDEST DUP2 MLOAD DUP2 LT PUSH2 0x106F JUMPI PUSH2 0x106F PUSH2 0x2B9F JUMP JUMPDEST PUSH1 0x20 ADD ADD SWAP1 PUSH1 0x1 PUSH1 0x1 PUSH1 0xF8 SHL SUB NOT AND SWAP1 DUP2 PUSH1 0x0 BYTE SWAP1 MSTORE8 POP DUP1 PUSH2 0x1090 DUP2 PUSH2 0x2CDC JUMP JUMPDEST SWAP2 POP POP PUSH2 0x1029 JUMP JUMPDEST POP PUSH1 0x0 DUP1 PUSH1 0x0 SWAP1 SLOAD SWAP1 PUSH2 0x100 EXP SWAP1 DIV PUSH1 0x1 PUSH1 0x1 PUSH1 0xA0 SHL SUB AND PUSH1 0x1 PUSH1 0x1 PUSH1 0xA0 SHL SUB AND PUSH4 0x40A7BB10 DUP15 ADDRESS DUP6 PUSH1 0x0 PUSH1 0x40 MLOAD DUP1 PUSH1 0x20 ADD PUSH1 0x40 MSTORE DUP1 PUSH1 0x0 DUP2 MSTORE POP PUSH1 0x40 MLOAD DUP7 PUSH4 0xFFFFFFFF AND PUSH1 0xE0 SHL DUP2 MSTORE PUSH1 0x4 ADD PUSH2 0x10F3 SWAP6 SWAP5 SWAP4 SWAP3 SWAP2 SWAP1 PUSH2 0x2CF5 JUMP JUMPDEST PUSH1 0x40 DUP1 MLOAD DUP1 DUP4 SUB DUP2 DUP7 GAS STATICCALL ISZERO DUP1 ISZERO PUSH2 0x110F JUMPI RETURNDATASIZE PUSH1 0x0 DUP1 RETURNDATACOPY RETURNDATASIZE PUSH1 0x0 REVERT JUMPDEST POP POP POP POP PUSH1 0x40 MLOAD RETURNDATASIZE PUSH1 0x1F NOT PUSH1 0x1F DUP3 ADD AND DUP3 ADD DUP1 PUSH1 0x40 MSTORE POP DUP2 ADD SWAP1 PUSH2 0x1133 SWAP2 SWAP1 PUSH2 0x2D49 JUMP JUMPDEST POP SWAP1 POP DUP1 CALLVALUE LT ISZERO PUSH2 0x1179 JUMPI PUSH1 0x40 MLOAD PUSH3 0x461BCD PUSH1 0xE5 SHL DUP2 MSTORE PUSH1 0x20 PUSH1 0x4 DUP3 ADD MSTORE PUSH1 0x10 PUSH1 0x24 DUP3 ADD MSTORE PUSH16 0x496E73756666696369656E7420666565 PUSH1 0x80 SHL PUSH1 0x44 DUP3 ADD MSTORE PUSH1 0x64 ADD PUSH2 0x549 JUMP JUMPDEST PUSH2 0x1196 DUP14 DUP4 CALLER ADDRESS PUSH1 0x40 MLOAD DUP1 PUSH1 0x20 ADD PUSH1 0x40 MSTORE DUP1 PUSH1 0x0 DUP2 MSTORE POP DUP7 PUSH2 0x1EAF JUMP JUMPDEST CHAINID CALLER PUSH1 0x1 PUSH1 0x1 PUSH1 0xA0 SHL SUB AND DUP9 PUSH32 0x85B1E5BD1E58840265C40582FF09F8CBFAB823E041A824467B654A99B5156D39 PUSH1 0x1 PUSH1 0x0 DUP13 DUP2 MSTORE PUSH1 0x20 ADD SWAP1 DUP2 MSTORE PUSH1 0x20 ADD PUSH1 0x0 KECCAK256 PUSH1 0xE ADD PUSH1 0x40 MLOAD PUSH2 0x11E6 SWAP2 SWAP1 PUSH2 0x2FAC JUMP JUMPDEST PUSH1 0x40 MLOAD DUP1 SWAP2 SUB SWAP1 LOG4 POP POP POP POP POP POP SWAP7 SWAP6 POP POP POP POP POP POP JUMP JUMPDEST PUSH1 0x7 SLOAD PUSH1 0x1 PUSH1 0x1 PUSH1 0xA0 SHL SUB AND CALLER EQ PUSH2 0x1228 JUMPI PUSH1 0x40 MLOAD PUSH3 0x461BCD PUSH1 0xE5 SHL DUP2 MSTORE PUSH1 0x4 ADD PUSH2 0x549 SWAP1 PUSH2 0x2BE9 JUMP JUMPDEST PUSH1 0x7 DUP1 SLOAD PUSH1 0x1 PUSH1 0x1 PUSH1 0xA0 SHL SUB DUP4 DUP2 AND PUSH1 0x1 PUSH1 0x1 PUSH1 0xA0 SHL SUB NOT DUP4 AND DUP2 OR SWAP1 SWAP4 SSTORE PUSH1 0x40 DUP1 MLOAD SWAP2 SWAP1 SWAP3 AND DUP1 DUP3 MSTORE PUSH1 0x20 DUP3 ADD SWAP4 SWAP1 SWAP4 MSTORE PUSH32 0x434A2DB650703B36C824E745330D6397CDAA9EE2CC891A4938AE853E1C50B68D SWAP2 ADD PUSH1 0x40 MLOAD DUP1 SWAP2 SUB SWAP1 LOG1 POP POP JUMP JUMPDEST PUSH1 0x40 DUP1 MLOAD PUSH1 0x60 DUP1 DUP3 ADD DUP4 MSTORE PUSH1 0x0 DUP1 DUP4 MSTORE PUSH1 0x20 DUP1 DUP5 ADD DUP3 SWAP1 MSTORE SWAP3 DUP5 ADD DUP2 SWAP1 MSTORE DUP6 DUP2 MSTORE PUSH1 0x2 DUP4 MSTORE DUP4 DUP2 KECCAK256 PUSH1 0x1 PUSH1 0x1 PUSH1 0xA0 SHL SUB DUP7 AND DUP3 MSTORE DUP4 MSTORE DUP4 SWAP1 KECCAK256 DUP4 MLOAD SWAP2 DUP3 ADD DUP5 MSTORE DUP1 SLOAD PUSH1 0xFF DUP1 DUP3 AND ISZERO ISZERO DUP5 MSTORE PUSH2 0x100 SWAP1 SWAP2 DIV AND SWAP3 DUP3 ADD SWAP3 SWAP1 SWAP3 MSTORE PUSH1 0x1 SWAP1 SWAP2 ADD SLOAD SWAP2 DUP2 ADD SWAP2 SWAP1 SWAP2 MSTORE JUMPDEST SWAP3 SWAP2 POP POP JUMP JUMPDEST PUSH2 0x12FE PUSH2 0x2199 JUMP JUMPDEST PUSH1 0x0 DUP3 DUP2 MSTORE PUSH1 0x1 PUSH1 0x20 DUP2 DUP2 MSTORE PUSH1 0x40 SWAP3 DUP4 SWAP1 KECCAK256 DUP4 MLOAD PUSH2 0x200 DUP2 ADD DUP6 MSTORE DUP2 SLOAD DUP2 MSTORE SWAP3 DUP2 ADD SLOAD PUSH1 0x1 PUSH1 0x1 PUSH1 0xA0 SHL SUB AND SWAP2 DUP4 ADD SWAP2 SWAP1 SWAP2 MSTORE PUSH1 0x2 DUP2 ADD SLOAD SWAP3 DUP3 ADD SWAP3 SWAP1 SWAP3 MSTORE PUSH1 0x3 DUP3 ADD SLOAD PUSH1 0x60 DUP3 ADD MSTORE PUSH1 0x4 DUP3 ADD SLOAD PUSH1 0x80 DUP3 ADD MSTORE PUSH1 0x5 DUP3 ADD SLOAD PUSH1 0xA0 DUP3 ADD MSTORE PUSH1 0x6 DUP3 ADD SLOAD PUSH1 0xC0 DUP3 ADD MSTORE PUSH1 0x7 DUP3 ADD SLOAD PUSH1 0xE0 DUP3 ADD MSTORE PUSH1 0x8 DUP3 ADD DUP1 SLOAD SWAP2 SWAP3 SWAP2 PUSH2 0x100 DUP5 ADD SWAP2 SWAP1 PUSH2 0x1388 SWAP1 PUSH2 0x2BB5 JUMP JUMPDEST DUP1 PUSH1 0x1F ADD PUSH1 0x20 DUP1 SWAP2 DIV MUL PUSH1 0x20 ADD PUSH1 0x40 MLOAD SWAP1 DUP2 ADD PUSH1 0x40 MSTORE DUP1 SWAP3 SWAP2 SWAP1 DUP2 DUP2 MSTORE PUSH1 0x20 ADD DUP3 DUP1 SLOAD PUSH2 0x13B4 SWAP1 PUSH2 0x2BB5 JUMP JUMPDEST DUP1 ISZERO PUSH2 0x1401 JUMPI DUP1 PUSH1 0x1F LT PUSH2 0x13D6 JUMPI PUSH2 0x100 DUP1 DUP4 SLOAD DIV MUL DUP4 MSTORE SWAP2 PUSH1 0x20 ADD SWAP2 PUSH2 0x1401 JUMP JUMPDEST DUP3 ADD SWAP2 SWAP1 PUSH1 0x0 MSTORE PUSH1 0x20 PUSH1 0x0 KECCAK256 SWAP1 JUMPDEST DUP2 SLOAD DUP2 MSTORE SWAP1 PUSH1 0x1 ADD SWAP1 PUSH1 0x20 ADD DUP1 DUP4 GT PUSH2 0x13E4 JUMPI DUP3 SWAP1 SUB PUSH1 0x1F AND DUP3 ADD SWAP2 JUMPDEST POP POP POP SWAP2 DUP4 MSTORE POP POP PUSH1 0x9 DUP3 ADD SLOAD PUSH1 0x20 SWAP1 SWAP2 ADD SWAP1 PUSH1 0xFF AND PUSH1 0x4 DUP2 GT ISZERO PUSH2 0x1428 JUMPI PUSH2 0x1428 PUSH2 0x2400 JUMP JUMPDEST PUSH1 0x4 DUP2 GT ISZERO PUSH2 0x1439 JUMPI PUSH2 0x1439 PUSH2 0x2400 JUMP JUMPDEST DUP2 MSTORE PUSH1 0x20 ADD PUSH1 0x9 DUP3 ADD PUSH1 0x1 SWAP1 SLOAD SWAP1 PUSH2 0x100 EXP SWAP1 DIV PUSH1 0xFF AND PUSH1 0x6 DUP2 GT ISZERO PUSH2 0x1461 JUMPI PUSH2 0x1461 PUSH2 0x2400 JUMP JUMPDEST PUSH1 0x6 DUP2 GT ISZERO PUSH2 0x1472 JUMPI PUSH2 0x1472 PUSH2 0x2400 JUMP JUMPDEST DUP2 MSTORE PUSH1 0x20 ADD PUSH1 0xA DUP3 ADD DUP1 SLOAD DUP1 PUSH1 0x20 MUL PUSH1 0x20 ADD PUSH1 0x40 MLOAD SWAP1 DUP2 ADD PUSH1 0x40 MSTORE DUP1 SWAP3 SWAP2 SWAP1 DUP2 DUP2 MSTORE PUSH1 0x20 ADD DUP3 DUP1 SLOAD DUP1 ISZERO PUSH2 0x14CF JUMPI PUSH1 0x20 MUL DUP3 ADD SWAP2 SWAP1 PUSH1 0x0 MSTORE PUSH1 0x20 PUSH1 0x0 KECCAK256 SWAP1 JUMPDEST DUP2 SLOAD PUSH1 0x1 PUSH1 0x1 PUSH1 0xA0 SHL SUB AND DUP2 MSTORE PUSH1 0x1 SWAP1 SWAP2 ADD SWAP1 PUSH1 0x20 ADD DUP1 DUP4 GT PUSH2 0x14B1 JUMPI JUMPDEST POP POP POP POP POP DUP2 MSTORE PUSH1 0x20 ADD PUSH1 0xB DUP3 ADD DUP1 SLOAD DUP1 PUSH1 0x20 MUL PUSH1 0x20 ADD PUSH1 0x40 MLOAD SWAP1 DUP2 ADD PUSH1 0x40 MSTORE DUP1 SWAP3 SWAP2 SWAP1 DUP2 DUP2 MSTORE PUSH1 0x20 ADD DUP3 DUP1 SLOAD DUP1 ISZERO PUSH2 0x1527 JUMPI PUSH1 0x20 MUL DUP3 ADD SWAP2 SWAP1 PUSH1 0x0 MSTORE PUSH1 0x20 PUSH1 0x0 KECCAK256 SWAP1 JUMPDEST DUP2 SLOAD DUP2 MSTORE PUSH1 0x20 ADD SWAP1 PUSH1 0x1 ADD SWAP1 DUP1 DUP4 GT PUSH2 0x1513 JUMPI JUMPDEST POP POP POP POP POP DUP2 MSTORE PUSH1 0x20 ADD PUSH1 0xC DUP3 ADD DUP1 SLOAD DUP1 PUSH1 0x20 MUL PUSH1 0x20 ADD PUSH1 0x40 MLOAD SWAP1 DUP2 ADD PUSH1 0x40 MSTORE DUP1 SWAP3 SWAP2 SWAP1 DUP2 DUP2 MSTORE PUSH1 0x20 ADD PUSH1 0x0 SWAP1 JUMPDEST DUP3 DUP3 LT ISZERO PUSH2 0x1601 JUMPI DUP4 DUP3 SWAP1 PUSH1 0x0 MSTORE PUSH1 0x20 PUSH1 0x0 KECCAK256 ADD DUP1 SLOAD PUSH2 0x1574 SWAP1 PUSH2 0x2BB5 JUMP JUMPDEST DUP1 PUSH1 0x1F ADD PUSH1 0x20 DUP1 SWAP2 DIV MUL PUSH1 0x20 ADD PUSH1 0x40 MLOAD SWAP1 DUP2 ADD PUSH1 0x40 MSTORE DUP1 SWAP3 SWAP2 SWAP1 DUP2 DUP2 MSTORE PUSH1 0x20 ADD DUP3 DUP1 SLOAD PUSH2 0x15A0 SWAP1 PUSH2 0x2BB5 JUMP JUMPDEST DUP1 ISZERO PUSH2 0x15ED JUMPI DUP1 PUSH1 0x1F LT PUSH2 0x15C2 JUMPI PUSH2 0x100 DUP1 DUP4 SLOAD DIV MUL DUP4 MSTORE SWAP2 PUSH1 0x20 ADD SWAP2 PUSH2 0x15ED JUMP JUMPDEST DUP3 ADD SWAP2 SWAP1 PUSH1 0x0 MSTORE PUSH1 0x20 PUSH1 0x0 KECCAK256 SWAP1 JUMPDEST DUP2 SLOAD DUP2 MSTORE SWAP1 PUSH1 0x1 ADD SWAP1 PUSH1 0x20 ADD DUP1 DUP4 GT PUSH2 0x15D0 JUMPI DUP3 SWAP1 SUB PUSH1 0x1F AND DUP3 ADD SWAP2 JUMPDEST POP POP POP POP POP DUP2 MSTORE PUSH1 0x20 ADD SWAP1 PUSH1 0x1 ADD SWAP1 PUSH2 0x1555 JUMP JUMPDEST POP POP POP POP DUP2 MSTORE PUSH1 0x20 ADD PUSH1 0xD DUP3 ADD SLOAD DUP2 MSTORE PUSH1 0x20 ADD PUSH1 0xE DUP3 ADD DUP1 SLOAD PUSH2 0x1623 SWAP1 PUSH2 0x2BB5 JUMP JUMPDEST DUP1 PUSH1 0x1F ADD PUSH1 0x20 DUP1 SWAP2 DIV MUL PUSH1 0x20 ADD PUSH1 0x40 MLOAD SWAP1 DUP2 ADD PUSH1 0x40 MSTORE DUP1 SWAP3 SWAP2 SWAP1 DUP2 DUP2 MSTORE PUSH1 0x20 ADD DUP3 DUP1 SLOAD PUSH2 0x164F SWAP1 PUSH2 0x2BB5 JUMP JUMPDEST DUP1 ISZERO PUSH2 0x169C JUMPI DUP1 PUSH1 0x1F LT PUSH2 0x1671 JUMPI PUSH2 0x100 DUP1 DUP4 SLOAD DIV MUL DUP4 MSTORE SWAP2 PUSH1 0x20 ADD SWAP2 PUSH2 0x169C JUMP JUMPDEST DUP3 ADD SWAP2 SWAP1 PUSH1 0x0 MSTORE PUSH1 0x20 PUSH1 0x0 KECCAK256 SWAP1 JUMPDEST DUP2 SLOAD DUP2 MSTORE SWAP1 PUSH1 0x1 ADD SWAP1 PUSH1 0x20 ADD DUP1 DUP4 GT PUSH2 0x167F JUMPI DUP3 SWAP1 SUB PUSH1 0x1F AND DUP3 ADD SWAP2 JUMPDEST POP POP POP POP POP DUP2 MSTORE POP POP SWAP1 POP SWAP2 SWAP1 POP JUMP JUMPDEST PUSH1 0x7 SLOAD PUSH1 0x1 PUSH1 0x1 PUSH1 0xA0 SHL SUB AND CALLER EQ PUSH2 0x16D6 JUMPI PUSH1 0x40 MLOAD PUSH3 0x461BCD PUSH1 0xE5 SHL DUP2 MSTORE PUSH1 0x4 ADD PUSH2 0x549 SWAP1 PUSH2 0x2BE9 JUMP JUMPDEST PUSH1 0xB SSTORE JUMP JUMPDEST PUSH1 0x0 PUSH1 0x1 DUP3 MLOAD PUSH2 0x16EB SWAP2 SWAP1 PUSH2 0x3037 JUMP JUMPDEST PUSH1 0x1 PUSH1 0x1 PUSH1 0x40 SHL SUB DUP2 GT ISZERO PUSH2 0x1702 JUMPI PUSH2 0x1702 PUSH2 0x24D4 JUMP JUMPDEST PUSH1 0x40 MLOAD SWAP1 DUP1 DUP3 MSTORE DUP1 PUSH1 0x1F ADD PUSH1 0x1F NOT AND PUSH1 0x20 ADD DUP3 ADD PUSH1 0x40 MSTORE DUP1 ISZERO PUSH2 0x172C JUMPI PUSH1 0x20 DUP3 ADD DUP2 DUP1 CALLDATASIZE DUP4 CALLDATACOPY ADD SWAP1 POP JUMPDEST POP SWAP1 POP PUSH1 0x0 JUMPDEST DUP2 MLOAD DUP2 LT ISZERO PUSH2 0x179D JUMPI DUP3 PUSH2 0x1747 DUP3 PUSH1 0x1 PUSH2 0x2CC9 JUMP JUMPDEST DUP2 MLOAD DUP2 LT PUSH2 0x1757 JUMPI PUSH2 0x1757 PUSH2 0x2B9F JUMP JUMPDEST PUSH1 0x20 ADD ADD MLOAD PUSH1 0xF8 SHR PUSH1 0xF8 SHL DUP3 DUP3 DUP2 MLOAD DUP2 LT PUSH2 0x1774 JUMPI PUSH2 0x1774 PUSH2 0x2B9F JUMP JUMPDEST PUSH1 0x20 ADD ADD SWAP1 PUSH1 0x1 PUSH1 0x1 PUSH1 0xF8 SHL SUB NOT AND SWAP1 DUP2 PUSH1 0x0 BYTE SWAP1 MSTORE8 POP DUP1 PUSH2 0x1795 DUP2 PUSH2 0x2CDC JUMP JUMPDEST SWAP2 POP POP PUSH2 0x1732 JUMP JUMPDEST POP PUSH1 0x0 DUP2 DUP1 PUSH1 0x20 ADD SWAP1 MLOAD DUP2 ADD SWAP1 PUSH2 0x17B4 SWAP2 SWAP1 PUSH2 0x3203 JUMP JUMPDEST SWAP1 POP PUSH1 0x0 DUP5 DUP3 PUSH2 0x140 ADD MLOAD DUP4 PUSH2 0x160 ADD MLOAD PUSH1 0x40 MLOAD PUSH1 0x20 ADD PUSH2 0x17D7 SWAP4 SWAP3 SWAP2 SWAP1 PUSH2 0x335F JUMP JUMPDEST PUSH1 0x40 DUP1 MLOAD PUSH1 0x1F NOT DUP2 DUP5 SUB ADD DUP2 MSTORE SWAP2 DUP2 MSTORE DUP2 MLOAD PUSH1 0x20 SWAP3 DUP4 ADD KECCAK256 PUSH1 0x0 DUP2 DUP2 MSTORE PUSH1 0x3 SWAP1 SWAP4 MSTORE SWAP2 KECCAK256 SLOAD SWAP1 SWAP2 POP PUSH1 0xFF AND ISZERO PUSH2 0x184B JUMPI PUSH1 0x40 MLOAD PUSH3 0x461BCD PUSH1 0xE5 SHL DUP2 MSTORE PUSH1 0x20 PUSH1 0x4 DUP3 ADD MSTORE PUSH1 0x19 PUSH1 0x24 DUP3 ADD MSTORE PUSH25 0x13595CDCD859D948185B1C9958591E481C1C9BD8D95CDCD959 PUSH1 0x3A SHL PUSH1 0x44 DUP3 ADD MSTORE PUSH1 0x64 ADD PUSH2 0x549 JUMP JUMPDEST PUSH1 0x0 SWAP1 DUP2 MSTORE PUSH1 0x3 PUSH1 0x20 MSTORE PUSH1 0x40 DUP2 KECCAK256 DUP1 SLOAD PUSH1 0xFF NOT AND PUSH1 0x1 OR SWAP1 SSTORE PUSH2 0x140 DUP3 ADD MLOAD PUSH2 0x1877 PUSH2 0xFFFF DUP8 AND PUSH2 0x1F9F JUMP JUMPDEST PUSH1 0x40 MLOAD PUSH1 0x20 ADD PUSH2 0x1888 SWAP3 SWAP2 SWAP1 PUSH2 0x3396 JUMP JUMPDEST PUSH1 0x40 MLOAD PUSH1 0x20 DUP2 DUP4 SUB SUB DUP2 MSTORE SWAP1 PUSH1 0x40 MSTORE SWAP1 POP PUSH1 0x4 DUP2 PUSH1 0x40 MLOAD PUSH2 0x18A9 SWAP2 SWAP1 PUSH2 0x33D2 JUMP JUMPDEST SWAP1 DUP2 MSTORE PUSH1 0x20 ADD PUSH1 0x40 MLOAD DUP1 SWAP2 SUB SWAP1 KECCAK256 SLOAD PUSH1 0x0 SUB PUSH2 0x1A9C JUMPI PUSH1 0x0 PUSH1 0x6 PUSH1 0x0 DUP2 SLOAD PUSH2 0x18D0 SWAP1 PUSH2 0x2CDC JUMP JUMPDEST SWAP2 DUP3 SWAP1 SSTORE POP PUSH1 0x0 DUP2 DUP2 MSTORE PUSH1 0x1 PUSH1 0x20 DUP2 DUP2 MSTORE PUSH1 0x40 DUP1 DUP5 KECCAK256 DUP6 DUP2 SSTORE DUP9 DUP4 ADD MLOAD SWAP4 DUP2 ADD DUP1 SLOAD PUSH1 0x1 PUSH1 0x1 PUSH1 0xA0 SHL SUB NOT AND PUSH1 0x1 PUSH1 0x1 PUSH1 0xA0 SHL SUB SWAP1 SWAP6 AND SWAP5 SWAP1 SWAP5 OR SWAP1 SWAP4 SSTORE DUP8 DUP2 ADD MLOAD PUSH1 0x2 DUP5 ADD SSTORE PUSH1 0x60 DUP9 ADD MLOAD PUSH1 0x3 DUP5 ADD SSTORE PUSH1 0x4 DUP4 ADD DUP5 SWAP1 SSTORE PUSH1 0x5 DUP4 ADD DUP5 SWAP1 SSTORE PUSH1 0x6 DUP4 ADD DUP5 SWAP1 SSTORE PUSH1 0x7 DUP4 ADD SWAP4 SWAP1 SWAP4 SSTORE PUSH1 0x80 DUP8 ADD MLOAD SWAP3 MLOAD SWAP4 SWAP5 POP SWAP1 SWAP3 PUSH2 0x1955 SWAP3 SWAP2 ADD PUSH2 0x33EE JUMP JUMPDEST PUSH1 0x40 MLOAD PUSH1 0x20 DUP2 DUP4 SUB SUB DUP2 MSTORE SWAP1 PUSH1 0x40 MSTORE DUP2 PUSH1 0x8 ADD SWAP1 DUP2 PUSH2 0x1974 SWAP2 SWAP1 PUSH2 0x2DE4 JUMP JUMPDEST POP PUSH1 0xA0 DUP5 ADD MLOAD PUSH1 0x9 DUP3 ADD DUP1 SLOAD PUSH1 0xFF NOT AND PUSH1 0x1 DUP4 PUSH1 0x4 DUP2 GT ISZERO PUSH2 0x1998 JUMPI PUSH2 0x1998 PUSH2 0x2400 JUMP JUMPDEST MUL OR SWAP1 SSTORE POP PUSH1 0x9 DUP2 ADD DUP1 SLOAD PUSH2 0xFF00 NOT AND SWAP1 SSTORE PUSH1 0xC0 DUP5 ADD MLOAD DUP1 MLOAD PUSH2 0x19C5 SWAP2 PUSH1 0xA DUP5 ADD SWAP2 PUSH1 0x20 SWAP1 SWAP2 ADD SWAP1 PUSH2 0x20A7 JUMP JUMPDEST POP PUSH1 0xE0 DUP5 ADD MLOAD DUP1 MLOAD PUSH2 0x19E1 SWAP2 PUSH1 0xB DUP5 ADD SWAP2 PUSH1 0x20 SWAP1 SWAP2 ADD SWAP1 PUSH2 0x210C JUMP JUMPDEST POP PUSH2 0x100 DUP5 ADD MLOAD DUP1 MLOAD PUSH2 0x19FE SWAP2 PUSH1 0xC DUP5 ADD SWAP2 PUSH1 0x20 SWAP1 SWAP2 ADD SWAP1 PUSH2 0x2147 JUMP JUMPDEST POP PUSH2 0xFFFF DUP8 AND PUSH1 0xD DUP3 ADD SSTORE PUSH2 0x140 DUP5 ADD MLOAD PUSH1 0xE DUP3 ADD SWAP1 PUSH2 0x1A1E SWAP1 DUP3 PUSH2 0x2DE4 JUMP JUMPDEST POP DUP2 PUSH1 0x4 DUP5 PUSH1 0x40 MLOAD PUSH2 0x1A30 SWAP2 SWAP1 PUSH2 0x33D2 JUMP JUMPDEST SWAP1 DUP2 MSTORE PUSH1 0x40 DUP1 MLOAD PUSH1 0x20 SWAP3 DUP2 SWAP1 SUB DUP4 ADD SWAP1 KECCAK256 SWAP3 SWAP1 SWAP3 SSTORE DUP6 MLOAD PUSH1 0x0 SWAP1 DUP2 MSTORE PUSH1 0x5 SWAP1 SWAP2 MSTORE SWAP1 DUP2 KECCAK256 DUP1 SLOAD SWAP2 PUSH2 0x1A60 DUP4 PUSH2 0x2CDC JUMP JUMPDEST SWAP1 SWAP2 SSTORE POP POP DUP4 MLOAD PUSH1 0x40 MLOAD PUSH2 0xFFFF DUP10 AND SWAP2 SWAP1 DUP5 SWAP1 PUSH32 0xF65135AE5722D730514BED08180CF4945DEB1A09AC82CD182D4A21EDE78E0979 SWAP1 PUSH1 0x0 SWAP1 LOG4 POP POP JUMPDEST POP POP POP POP POP JUMP JUMPDEST PUSH1 0x0 PUSH1 0x1 DUP3 MLOAD PUSH2 0x1AB3 SWAP2 SWAP1 PUSH2 0x3037 JUMP JUMPDEST PUSH1 0x1 PUSH1 0x1 PUSH1 0x40 SHL SUB DUP2 GT ISZERO PUSH2 0x1ACA JUMPI PUSH2 0x1ACA PUSH2 0x24D4 JUMP JUMPDEST PUSH1 0x40 MLOAD SWAP1 DUP1 DUP3 MSTORE DUP1 PUSH1 0x1F ADD PUSH1 0x1F NOT AND PUSH1 0x20 ADD DUP3 ADD PUSH1 0x40 MSTORE DUP1 ISZERO PUSH2 0x1AF4 JUMPI PUSH1 0x20 DUP3 ADD DUP2 DUP1 CALLDATASIZE DUP4 CALLDATACOPY ADD SWAP1 POP JUMPDEST POP SWAP1 POP PUSH1 0x0 JUMPDEST DUP2 MLOAD DUP2 LT ISZERO PUSH2 0x1B65 JUMPI DUP3 PUSH2 0x1B0F DUP3 PUSH1 0x1 PUSH2 0x2CC9 JUMP JUMPDEST DUP2 MLOAD DUP2 LT PUSH2 0x1B1F JUMPI PUSH2 0x1B1F PUSH2 0x2B9F JUMP JUMPDEST PUSH1 0x20 ADD ADD MLOAD PUSH1 0xF8 SHR PUSH1 0xF8 SHL DUP3 DUP3 DUP2 MLOAD DUP2 LT PUSH2 0x1B3C JUMPI PUSH2 0x1B3C PUSH2 0x2B9F JUMP JUMPDEST PUSH1 0x20 ADD ADD SWAP1 PUSH1 0x1 PUSH1 0x1 PUSH1 0xF8 SHL SUB NOT AND SWAP1 DUP2 PUSH1 0x0 BYTE SWAP1 MSTORE8 POP DUP1 PUSH2 0x1B5D DUP2 PUSH2 0x2CDC JUMP JUMPDEST SWAP2 POP POP PUSH2 0x1AFA JUMP JUMPDEST POP PUSH1 0x0 DUP2 DUP1 PUSH1 0x20 ADD SWAP1 MLOAD DUP2 ADD SWAP1 PUSH2 0x1B7C SWAP2 SWAP1 PUSH2 0x342A JUMP JUMPDEST SWAP1 POP PUSH1 0x0 DUP5 DUP3 PUSH1 0x0 ADD MLOAD DUP4 PUSH1 0x20 ADD MLOAD DUP5 PUSH1 0xC0 ADD MLOAD PUSH1 0x40 MLOAD PUSH1 0x20 ADD PUSH2 0x1BDA SWAP5 SWAP4 SWAP3 SWAP2 SWAP1 PUSH1 0xF0 SWAP5 SWAP1 SWAP5 SHL PUSH1 0x1 PUSH1 0x1 PUSH1 0xF0 SHL SUB NOT AND DUP5 MSTORE PUSH1 0x2 DUP5 ADD SWAP3 SWAP1 SWAP3 MSTORE PUSH1 0x60 SHL PUSH12 0xFFFFFFFFFFFFFFFFFFFFFFFF NOT AND PUSH1 0x22 DUP4 ADD MSTORE PUSH1 0x36 DUP3 ADD MSTORE PUSH1 0x56 ADD SWAP1 JUMP JUMPDEST PUSH1 0x40 DUP1 MLOAD PUSH1 0x1F NOT DUP2 DUP5 SUB ADD DUP2 MSTORE SWAP2 DUP2 MSTORE DUP2 MLOAD PUSH1 0x20 SWAP3 DUP4 ADD KECCAK256 PUSH1 0x0 DUP2 DUP2 MSTORE PUSH1 0x3 SWAP1 SWAP4 MSTORE SWAP2 KECCAK256 SLOAD SWAP1 SWAP2 POP PUSH1 0xFF AND ISZERO PUSH2 0x1C4E JUMPI PUSH1 0x40 MLOAD PUSH3 0x461BCD PUSH1 0xE5 SHL DUP2 MSTORE PUSH1 0x20 PUSH1 0x4 DUP3 ADD MSTORE PUSH1 0x19 PUSH1 0x24 DUP3 ADD MSTORE PUSH25 0x13595CDCD859D948185B1C9958591E481C1C9BD8D95CDCD959 PUSH1 0x3A SHL PUSH1 0x44 DUP3 ADD MSTORE PUSH1 0x64 ADD PUSH2 0x549 JUMP JUMPDEST PUSH1 0x0 SWAP1 DUP2 MSTORE PUSH1 0x3 PUSH1 0x20 MSTORE PUSH1 0x40 DUP2 KECCAK256 DUP1 SLOAD PUSH1 0xFF NOT AND PUSH1 0x1 OR SWAP1 SSTORE PUSH1 0xA0 DUP3 ADD MLOAD PUSH2 0x1C79 PUSH2 0xFFFF DUP8 AND PUSH2 0x1F9F JUMP JUMPDEST PUSH1 0x40 MLOAD PUSH1 0x20 ADD PUSH2 0x1C8A SWAP3 SWAP2 SWAP1 PUSH2 0x3396 JUMP JUMPDEST PUSH1 0x40 MLOAD PUSH1 0x20 DUP2 DUP4 SUB SUB DUP2 MSTORE SWAP1 PUSH1 0x40 MSTORE SWAP1 POP PUSH1 0x0 PUSH1 0x4 DUP3 PUSH1 0x40 MLOAD PUSH2 0x1CAD SWAP2 SWAP1 PUSH2 0x33D2 JUMP JUMPDEST SWAP1 DUP2 MSTORE PUSH1 0x20 ADD PUSH1 0x40 MLOAD DUP1 SWAP2 SUB SWAP1 KECCAK256 SLOAD SWAP1 POP PUSH1 0x0 DUP2 GT PUSH2 0x1D0E JUMPI PUSH1 0x40 MLOAD PUSH3 0x461BCD PUSH1 0xE5 SHL DUP2 MSTORE PUSH1 0x20 PUSH1 0x4 DUP3 ADD MSTORE PUSH1 0x19 PUSH1 0x24 DUP3 ADD MSTORE PUSH32 0x4D6972726F722070726F706F73616C206E6F7420666F756E6400000000000000 PUSH1 0x44 DUP3 ADD MSTORE PUSH1 0x64 ADD PUSH2 0x549 JUMP JUMPDEST PUSH1 0x0 DUP2 DUP2 MSTORE PUSH1 0x2 PUSH1 0x20 SWAP1 DUP2 MSTORE PUSH1 0x40 DUP1 DUP4 KECCAK256 DUP7 DUP4 ADD MLOAD PUSH1 0x1 PUSH1 0x1 PUSH1 0xA0 SHL SUB AND DUP5 MSTORE SWAP1 SWAP2 MSTORE SWAP1 KECCAK256 SLOAD PUSH1 0xFF AND PUSH2 0x1EA7 JUMPI PUSH1 0x0 DUP2 DUP2 MSTORE PUSH1 0x2 PUSH1 0x20 DUP2 DUP2 MSTORE PUSH1 0x40 DUP1 DUP5 KECCAK256 DUP8 DUP4 ADD DUP1 MLOAD PUSH1 0x1 PUSH1 0x1 PUSH1 0xA0 SHL SUB SWAP1 DUP2 AND DUP8 MSTORE DUP3 DUP6 MSTORE DUP4 DUP8 KECCAK256 DUP1 SLOAD PUSH1 0x1 PUSH1 0xFF NOT SWAP1 SWAP2 AND DUP2 OR SWAP1 SWAP2 SSTORE DUP11 DUP6 ADD DUP1 MLOAD DUP11 DUP11 MSTORE DUP9 DUP9 MSTORE DUP5 MLOAD DUP5 AND DUP11 MSTORE DUP6 DUP9 MSTORE DUP7 DUP11 KECCAK256 DUP1 SLOAD PUSH2 0xFF00 NOT AND PUSH2 0x100 PUSH1 0xFF SWAP4 DUP5 AND MUL OR SWAP1 SSTORE DUP11 DUP11 MSTORE SWAP8 DUP8 MSTORE SWAP3 MLOAD SWAP1 SWAP2 AND DUP8 MSTORE SWAP2 SWAP1 SWAP4 MSTORE SWAP4 KECCAK256 PUSH1 0x64 SWAP1 DUP5 ADD SSTORE MLOAD AND SWAP1 SUB PUSH2 0x1DEB JUMPI PUSH1 0x0 DUP2 DUP2 MSTORE PUSH1 0x1 PUSH1 0x20 MSTORE PUSH1 0x40 DUP2 KECCAK256 PUSH1 0x4 ADD DUP1 SLOAD PUSH1 0x64 SWAP3 SWAP1 PUSH2 0x1DE0 SWAP1 DUP5 SWAP1 PUSH2 0x2CC9 JUMP JUMPDEST SWAP1 SWAP2 SSTORE POP PUSH2 0x1E53 SWAP1 POP JUMP JUMPDEST DUP3 PUSH1 0x40 ADD MLOAD PUSH1 0xFF AND PUSH1 0x0 SUB PUSH2 0x1E1C JUMPI PUSH1 0x0 DUP2 DUP2 MSTORE PUSH1 0x1 PUSH1 0x20 MSTORE PUSH1 0x40 DUP2 KECCAK256 PUSH1 0x5 ADD DUP1 SLOAD PUSH1 0x64 SWAP3 SWAP1 PUSH2 0x1DE0 SWAP1 DUP5 SWAP1 PUSH2 0x2CC9 JUMP JUMPDEST DUP3 PUSH1 0x40 ADD MLOAD PUSH1 0xFF AND PUSH1 0x2 SUB PUSH2 0x1E53 JUMPI PUSH1 0x0 DUP2 DUP2 MSTORE PUSH1 0x1 PUSH1 0x20 MSTORE PUSH1 0x40 DUP2 KECCAK256 PUSH1 0x6 ADD DUP1 SLOAD PUSH1 0x64 SWAP3 SWAP1 PUSH2 0x1E4D SWAP1 DUP5 SWAP1 PUSH2 0x2CC9 JUMP JUMPDEST SWAP1 SWAP2 SSTORE POP POP JUMPDEST DUP3 PUSH1 0x20 ADD MLOAD PUSH1 0x1 PUSH1 0x1 PUSH1 0xA0 SHL SUB AND DUP2 PUSH32 0xFBB5288ADF2AE9AB642E3CEAE559536F1CCA92B5B88F3F3EEF60BE52A6609A8 DUP6 PUSH1 0x40 ADD MLOAD PUSH1 0x40 MLOAD PUSH2 0x1E9E SWAP2 SWAP1 PUSH1 0xFF SWAP2 SWAP1 SWAP2 AND DUP2 MSTORE PUSH1 0x20 ADD SWAP1 JUMP JUMPDEST PUSH1 0x40 MLOAD DUP1 SWAP2 SUB SWAP1 LOG3 JUMPDEST POP POP POP POP POP POP JUMP JUMPDEST PUSH1 0x0 DUP3 MLOAD GT PUSH2 0x1F00 JUMPI PUSH1 0x40 MLOAD PUSH3 0x461BCD PUSH1 0xE5 SHL DUP2 MSTORE PUSH1 0x20 PUSH1 0x4 DUP3 ADD MSTORE PUSH1 0x18 PUSH1 0x24 DUP3 ADD MSTORE PUSH32 0x4C7A4170703A206E6F206164617074657220706172616D730000000000000000 PUSH1 0x44 DUP3 ADD MSTORE PUSH1 0x64 ADD PUSH2 0x549 JUMP JUMPDEST PUSH1 0x0 SLOAD PUSH1 0x40 DUP1 MLOAD ADDRESS PUSH1 0x60 SHL PUSH12 0xFFFFFFFFFFFFFFFFFFFFFFFF NOT AND PUSH1 0x20 DUP3 ADD MSTORE DUP2 MLOAD PUSH1 0x14 DUP2 DUP4 SUB ADD DUP2 MSTORE PUSH1 0x34 DUP3 ADD SWAP3 DUP4 SWAP1 MSTORE PUSH3 0xC58031 PUSH1 0xE8 SHL SWAP1 SWAP3 MSTORE PUSH1 0x1 PUSH1 0x1 PUSH1 0xA0 SHL SUB SWAP1 SWAP3 AND SWAP2 PUSH4 0xC5803100 SWAP2 DUP5 SWAP2 PUSH2 0x1F65 SWAP2 DUP12 SWAP2 DUP12 SWAP1 DUP12 SWAP1 DUP12 SWAP1 DUP12 SWAP1 PUSH1 0x38 ADD PUSH2 0x34FD JUMP JUMPDEST PUSH1 0x0 PUSH1 0x40 MLOAD DUP1 DUP4 SUB DUP2 DUP6 DUP9 DUP1 EXTCODESIZE ISZERO DUP1 ISZERO PUSH2 0x1F7E JUMPI PUSH1 0x0 DUP1 REVERT JUMPDEST POP GAS CALL ISZERO DUP1 ISZERO PUSH2 0x1F92 JUMPI RETURNDATASIZE PUSH1 0x0 DUP1 RETURNDATACOPY RETURNDATASIZE PUSH1 0x0 REVERT JUMPDEST POP POP POP POP POP POP POP POP POP POP POP JUMP JUMPDEST PUSH1 0x60 DUP2 PUSH1 0x0 SUB PUSH2 0x1FC6 JUMPI POP POP PUSH1 0x40 DUP1 MLOAD DUP1 DUP3 ADD SWAP1 SWAP2 MSTORE PUSH1 0x1 DUP2 MSTORE PUSH1 0x3 PUSH1 0xFC SHL PUSH1 0x20 DUP3 ADD MSTORE SWAP1 JUMP JUMPDEST DUP2 PUSH1 0x0 JUMPDEST DUP2 ISZERO PUSH2 0x1FF0 JUMPI DUP1 PUSH2 0x1FDA DUP2 PUSH2 0x2CDC JUMP JUMPDEST SWAP2 POP PUSH2 0x1FE9 SWAP1 POP PUSH1 0xA DUP4 PUSH2 0x357A JUMP JUMPDEST SWAP2 POP PUSH2 0x1FCA JUMP JUMPDEST PUSH1 0x0 DUP2 PUSH1 0x1 PUSH1 0x1 PUSH1 0x40 SHL SUB DUP2 GT ISZERO PUSH2 0x200A JUMPI PUSH2 0x200A PUSH2 0x24D4 JUMP JUMPDEST PUSH1 0x40 MLOAD SWAP1 DUP1 DUP3 MSTORE DUP1 PUSH1 0x1F ADD PUSH1 0x1F NOT AND PUSH1 0x20 ADD DUP3 ADD PUSH1 0x40 MSTORE DUP1 ISZERO PUSH2 0x2034 JUMPI PUSH1 0x20 DUP3 ADD DUP2 DUP1 CALLDATASIZE DUP4 CALLDATACOPY ADD SWAP1 POP JUMPDEST POP SWAP1 POP JUMPDEST DUP5 ISZERO PUSH2 0x209F JUMPI PUSH2 0x2049 PUSH1 0x1 DUP4 PUSH2 0x3037 JUMP JUMPDEST SWAP2 POP PUSH2 0x2056 PUSH1 0xA DUP7 PUSH2 0x358E JUMP JUMPDEST PUSH2 0x2061 SWAP1 PUSH1 0x30 PUSH2 0x2CC9 JUMP JUMPDEST PUSH1 0xF8 SHL DUP2 DUP4 DUP2 MLOAD DUP2 LT PUSH2 0x2076 JUMPI PUSH2 0x2076 PUSH2 0x2B9F JUMP JUMPDEST PUSH1 0x20 ADD ADD SWAP1 PUSH1 0x1 PUSH1 0x1 PUSH1 0xF8 SHL SUB NOT AND SWAP1 DUP2 PUSH1 0x0 BYTE SWAP1 MSTORE8 POP PUSH2 0x2098 PUSH1 0xA DUP7 PUSH2 0x357A JUMP JUMPDEST SWAP5 POP PUSH2 0x2038 JUMP JUMPDEST SWAP5 SWAP4 POP POP POP POP JUMP JUMPDEST DUP3 DUP1 SLOAD DUP3 DUP3 SSTORE SWAP1 PUSH1 0x0 MSTORE PUSH1 0x20 PUSH1 0x0 KECCAK256 SWAP1 DUP2 ADD SWAP3 DUP3 ISZERO PUSH2 0x20FC JUMPI SWAP2 PUSH1 0x20 MUL DUP3 ADD JUMPDEST DUP3 DUP2 GT ISZERO PUSH2 0x20FC JUMPI DUP3 MLOAD DUP3 SLOAD PUSH1 0x1 PUSH1 0x1 PUSH1 0xA0 SHL SUB NOT AND PUSH1 0x1 PUSH1 0x1 PUSH1 0xA0 SHL SUB SWAP1 SWAP2 AND OR DUP3 SSTORE PUSH1 0x20 SWAP1 SWAP3 ADD SWAP2 PUSH1 0x1 SWAP1 SWAP2 ADD SWAP1 PUSH2 0x20C7 JUMP JUMPDEST POP PUSH2 0x2108 SWAP3 SWAP2 POP PUSH2 0x2230 JUMP JUMPDEST POP SWAP1 JUMP JUMPDEST DUP3 DUP1 SLOAD DUP3 DUP3 SSTORE SWAP1 PUSH1 0x0 MSTORE PUSH1 0x20 PUSH1 0x0 KECCAK256 SWAP1 DUP2 ADD SWAP3 DUP3 ISZERO PUSH2 0x20FC JUMPI SWAP2 PUSH1 0x20 MUL DUP3 ADD JUMPDEST DUP3 DUP2 GT ISZERO PUSH2 0x20FC JUMPI DUP3 MLOAD DUP3 SSTORE SWAP2 PUSH1 0x20 ADD SWAP2 SWAP1 PUSH1 0x1 ADD SWAP1 PUSH2 0x212C JUMP JUMPDEST DUP3 DUP1 SLOAD DUP3 DUP3 SSTORE SWAP1 PUSH1 0x0 MSTORE PUSH1 0x20 PUSH1 0x0 KECCAK256 SWAP1 DUP2 ADD SWAP3 DUP3 ISZERO PUSH2 0x218D JUMPI SWAP2 PUSH1 0x20 MUL DUP3 ADD JUMPDEST DUP3 DUP2 GT ISZERO PUSH2 0x218D JUMPI DUP3 MLOAD DUP3 SWAP1 PUSH2 0x217D SWAP1 DUP3 PUSH2 0x2DE4 JUMP JUMPDEST POP SWAP2 PUSH1 0x20 ADD SWAP2 SWAP1 PUSH1 0x1 ADD SWAP1 PUSH2 0x2167 JUMP JUMPDEST POP PUSH2 0x2108 SWAP3 SWAP2 POP PUSH2 0x2245 JUMP JUMPDEST PUSH1 0x40 MLOAD DUP1 PUSH2 0x200 ADD PUSH1 0x40 MSTORE DUP1 PUSH1 0x0 DUP2 MSTORE PUSH1 0x20 ADD PUSH1 0x0 PUSH1 0x1 PUSH1 0x1 PUSH1 0xA0 SHL SUB AND DUP2 MSTORE PUSH1 0x20 ADD PUSH1 0x0 DUP2 MSTORE PUSH1 0x20 ADD PUSH1 0x0 DUP2 MSTORE PUSH1 0x20 ADD PUSH1 0x0 DUP2 MSTORE PUSH1 0x20 ADD PUSH1 0x0 DUP2 MSTORE PUSH1 0x20 ADD PUSH1 0x0 DUP2 MSTORE PUSH1 0x20 ADD PUSH1 0x0 DUP2 MSTORE PUSH1 0x20 ADD PUSH1 0x60 DUP2 MSTORE PUSH1 0x20 ADD PUSH1 0x0 PUSH1 0x4 DUP2 GT ISZERO PUSH2 0x2200 JUMPI PUSH2 0x2200 PUSH2 0x2400 JUMP JUMPDEST DUP2 MSTORE PUSH1 0x20 ADD PUSH1 0x0 DUP2 MSTORE PUSH1 0x20 ADD PUSH1 0x60 DUP2 MSTORE PUSH1 0x20 ADD PUSH1 0x60 DUP2 MSTORE PUSH1 0x20 ADD PUSH1 0x60 DUP2 MSTORE PUSH1 0x20 ADD PUSH1 0x0 DUP2 MSTORE PUSH1 0x20 ADD PUSH1 0x60 DUP2 MSTORE POP SWAP1 JUMP JUMPDEST JUMPDEST DUP1 DUP3 GT ISZERO PUSH2 0x2108 JUMPI PUSH1 0x0 DUP2 SSTORE PUSH1 0x1 ADD PUSH2 0x2231 JUMP JUMPDEST DUP1 DUP3 GT ISZERO PUSH2 0x2108 JUMPI PUSH1 0x0 PUSH2 0x2259 DUP3 DUP3 PUSH2 0x2262 JUMP JUMPDEST POP PUSH1 0x1 ADD PUSH2 0x2245 JUMP JUMPDEST POP DUP1 SLOAD PUSH2 0x226E SWAP1 PUSH2 0x2BB5 JUMP JUMPDEST PUSH1 0x0 DUP3 SSTORE DUP1 PUSH1 0x1F LT PUSH2 0x227E JUMPI POP POP JUMP JUMPDEST PUSH1 0x1F ADD PUSH1 0x20 SWAP1 DIV SWAP1 PUSH1 0x0 MSTORE PUSH1 0x20 PUSH1 0x0 KECCAK256 SWAP1 DUP2 ADD SWAP1 PUSH2 0x229C SWAP2 SWAP1 PUSH2 0x2230 JUMP JUMPDEST POP JUMP JUMPDEST DUP1 CALLDATALOAD PUSH2 0xFFFF DUP2 AND DUP2 EQ PUSH2 0x22B1 JUMPI PUSH1 0x0 DUP1 REVERT JUMPDEST SWAP2 SWAP1 POP JUMP JUMPDEST PUSH1 0x0 DUP1 DUP4 PUSH1 0x1F DUP5 ADD SLT PUSH2 0x22C8 JUMPI PUSH1 0x0 DUP1 REVERT JUMPDEST POP DUP2 CALLDATALOAD PUSH1 0x1 PUSH1 0x1 PUSH1 0x40 SHL SUB DUP2 GT ISZERO PUSH2 0x22DF JUMPI PUSH1 0x0 DUP1 REVERT JUMPDEST PUSH1 0x20 DUP4 ADD SWAP2 POP DUP4 PUSH1 0x20 DUP3 DUP6 ADD ADD GT ISZERO PUSH2 0x22F7 JUMPI PUSH1 0x0 DUP1 REVERT JUMPDEST SWAP3 POP SWAP3 SWAP1 POP JUMP JUMPDEST PUSH1 0x0 DUP1 PUSH1 0x0 DUP1 PUSH1 0x0 DUP1 PUSH1 0x80 DUP8 DUP10 SUB SLT ISZERO PUSH2 0x2317 JUMPI PUSH1 0x0 DUP1 REVERT JUMPDEST PUSH2 0x2320 DUP8 PUSH2 0x229F JUMP JUMPDEST SWAP6 POP PUSH1 0x20 DUP8 ADD CALLDATALOAD PUSH1 0x1 PUSH1 0x1 PUSH1 0x40 SHL SUB DUP1 DUP3 GT ISZERO PUSH2 0x233C JUMPI PUSH1 0x0 DUP1 REVERT JUMPDEST PUSH2 0x2348 DUP11 DUP4 DUP12 ADD PUSH2 0x22B6 JUMP JUMPDEST SWAP1 SWAP8 POP SWAP6 POP PUSH1 0x40 DUP10 ADD CALLDATALOAD SWAP2 POP DUP1 DUP3 AND DUP3 EQ PUSH2 0x2362 JUMPI PUSH1 0x0 DUP1 REVERT JUMPDEST SWAP1 SWAP4 POP PUSH1 0x60 DUP9 ADD CALLDATALOAD SWAP1 DUP1 DUP3 GT ISZERO PUSH2 0x2378 JUMPI PUSH1 0x0 DUP1 REVERT JUMPDEST POP PUSH2 0x2385 DUP10 DUP3 DUP11 ADD PUSH2 0x22B6 JUMP JUMPDEST SWAP8 SWAP11 SWAP7 SWAP10 POP SWAP5 SWAP8 POP SWAP3 SWAP6 SWAP4 SWAP5 SWAP3 POP POP POP JUMP JUMPDEST PUSH1 0x0 PUSH1 0x20 DUP3 DUP5 SUB SLT ISZERO PUSH2 0x23A9 JUMPI PUSH1 0x0 DUP1 REVERT JUMPDEST POP CALLDATALOAD SWAP2 SWAP1 POP JUMP JUMPDEST PUSH1 0x0 JUMPDEST DUP4 DUP2 LT ISZERO PUSH2 0x23CB JUMPI DUP2 DUP2 ADD MLOAD DUP4 DUP3 ADD MSTORE PUSH1 0x20 ADD PUSH2 0x23B3 JUMP JUMPDEST POP POP PUSH1 0x0 SWAP2 ADD MSTORE JUMP JUMPDEST PUSH1 0x0 DUP2 MLOAD DUP1 DUP5 MSTORE PUSH2 0x23EC DUP2 PUSH1 0x20 DUP7 ADD PUSH1 0x20 DUP7 ADD PUSH2 0x23B0 JUMP JUMPDEST PUSH1 0x1F ADD PUSH1 0x1F NOT AND SWAP3 SWAP1 SWAP3 ADD PUSH1 0x20 ADD SWAP3 SWAP2 POP POP JUMP JUMPDEST PUSH4 0x4E487B71 PUSH1 0xE0 SHL PUSH1 0x0 MSTORE PUSH1 0x21 PUSH1 0x4 MSTORE PUSH1 0x24 PUSH1 0x0 REVERT JUMPDEST PUSH1 0x5 DUP2 LT PUSH2 0x2426 JUMPI PUSH2 0x2426 PUSH2 0x2400 JUMP JUMPDEST SWAP1 MSTORE JUMP JUMPDEST PUSH1 0x7 DUP2 LT PUSH2 0x2426 JUMPI PUSH2 0x2426 PUSH2 0x2400 JUMP JUMPDEST PUSH1 0x0 PUSH2 0x1A0 DUP16 DUP4 MSTORE PUSH1 0x1 DUP1 PUSH1 0xA0 SHL SUB DUP16 AND PUSH1 0x20 DUP5 ADD MSTORE DUP14 PUSH1 0x40 DUP5 ADD MSTORE DUP13 PUSH1 0x60 DUP5 ADD MSTORE DUP12 PUSH1 0x80 DUP5 ADD MSTORE DUP11 PUSH1 0xA0 DUP5 ADD MSTORE DUP10 PUSH1 0xC0 DUP5 ADD MSTORE DUP9 PUSH1 0xE0 DUP5 ADD MSTORE DUP1 PUSH2 0x100 DUP5 ADD MSTORE PUSH2 0x2487 DUP2 DUP5 ADD DUP10 PUSH2 0x23D4 JUMP JUMPDEST SWAP1 POP PUSH2 0x2497 PUSH2 0x120 DUP5 ADD DUP9 PUSH2 0x2416 JUMP JUMPDEST PUSH2 0x24A5 PUSH2 0x140 DUP5 ADD DUP8 PUSH2 0x242A JUMP JUMPDEST DUP5 PUSH2 0x160 DUP5 ADD MSTORE DUP3 DUP2 SUB PUSH2 0x180 DUP5 ADD MSTORE PUSH2 0x24BF DUP2 DUP6 PUSH2 0x23D4 JUMP JUMPDEST SWAP2 POP POP SWAP15 SWAP14 POP POP POP POP POP POP POP POP POP POP POP POP POP POP JUMP JUMPDEST PUSH4 0x4E487B71 PUSH1 0xE0 SHL PUSH1 0x0 MSTORE PUSH1 0x41 PUSH1 0x4 MSTORE PUSH1 0x24 PUSH1 0x0 REVERT JUMPDEST PUSH1 0x40 MLOAD PUSH2 0x180 DUP2 ADD PUSH1 0x1 PUSH1 0x1 PUSH1 0x40 SHL SUB DUP2 GT DUP3 DUP3 LT OR ISZERO PUSH2 0x250D JUMPI PUSH2 0x250D PUSH2 0x24D4 JUMP JUMPDEST PUSH1 0x40 MSTORE SWAP1 JUMP JUMPDEST PUSH1 0x40 MLOAD PUSH1 0xE0 DUP2 ADD PUSH1 0x1 PUSH1 0x1 PUSH1 0x40 SHL SUB DUP2 GT DUP3 DUP3 LT OR ISZERO PUSH2 0x250D JUMPI PUSH2 0x250D PUSH2 0x24D4 JUMP JUMPDEST PUSH1 0x40 MLOAD PUSH1 0x1F DUP3 ADD PUSH1 0x1F NOT AND DUP2 ADD PUSH1 0x1 PUSH1 0x1 PUSH1 0x40 SHL SUB DUP2 GT DUP3 DUP3 LT OR ISZERO PUSH2 0x255D JUMPI PUSH2 0x255D PUSH2 0x24D4 JUMP JUMPDEST PUSH1 0x40 MSTORE SWAP2 SWAP1 POP JUMP JUMPDEST PUSH1 0x0 PUSH1 0x1 PUSH1 0x1 PUSH1 0x40 SHL SUB DUP3 GT ISZERO PUSH2 0x257E JUMPI PUSH2 0x257E PUSH2 0x24D4 JUMP JUMPDEST POP PUSH1 0x1F ADD PUSH1 0x1F NOT AND PUSH1 0x20 ADD SWAP1 JUMP JUMPDEST PUSH1 0x0 PUSH2 0x259F PUSH2 0x259A DUP5 PUSH2 0x2565 JUMP JUMPDEST PUSH2 0x2535 JUMP JUMPDEST SWAP1 POP DUP3 DUP2 MSTORE DUP4 DUP4 DUP4 ADD GT ISZERO PUSH2 0x25B3 JUMPI PUSH1 0x0 DUP1 REVERT JUMPDEST DUP3 DUP3 PUSH1 0x20 DUP4 ADD CALLDATACOPY PUSH1 0x0 PUSH1 0x20 DUP5 DUP4 ADD ADD MSTORE SWAP4 SWAP3 POP POP POP JUMP JUMPDEST PUSH1 0x0 DUP3 PUSH1 0x1F DUP4 ADD SLT PUSH2 0x25DB JUMPI PUSH1 0x0 DUP1 REVERT JUMPDEST PUSH2 0x25EA DUP4 DUP4 CALLDATALOAD PUSH1 0x20 DUP6 ADD PUSH2 0x258C JUMP JUMPDEST SWAP4 SWAP3 POP POP POP JUMP JUMPDEST PUSH1 0x0 PUSH1 0x20 DUP3 DUP5 SUB SLT ISZERO PUSH2 0x2603 JUMPI PUSH1 0x0 DUP1 REVERT JUMPDEST DUP2 CALLDATALOAD PUSH1 0x1 PUSH1 0x1 PUSH1 0x40 SHL SUB DUP2 GT ISZERO PUSH2 0x2619 JUMPI PUSH1 0x0 DUP1 REVERT JUMPDEST PUSH2 0x209F DUP5 DUP3 DUP6 ADD PUSH2 0x25CA JUMP JUMPDEST PUSH1 0x1 PUSH1 0x1 PUSH1 0xA0 SHL SUB DUP2 AND DUP2 EQ PUSH2 0x229C JUMPI PUSH1 0x0 DUP1 REVERT JUMPDEST PUSH1 0x0 PUSH1 0x20 DUP3 DUP5 SUB SLT ISZERO PUSH2 0x264C JUMPI PUSH1 0x0 DUP1 REVERT JUMPDEST DUP2 CALLDATALOAD PUSH2 0x25EA DUP2 PUSH2 0x2625 JUMP JUMPDEST PUSH1 0xFF DUP2 AND DUP2 EQ PUSH2 0x229C JUMPI PUSH1 0x0 DUP1 REVERT JUMPDEST PUSH1 0x0 DUP1 PUSH1 0x0 DUP1 PUSH1 0x80 DUP6 DUP8 SUB SLT ISZERO PUSH2 0x267C JUMPI PUSH1 0x0 DUP1 REVERT JUMPDEST PUSH2 0x2685 DUP6 PUSH2 0x229F JUMP JUMPDEST SWAP4 POP PUSH1 0x20 DUP6 ADD CALLDATALOAD PUSH1 0x1 PUSH1 0x1 PUSH1 0x40 SHL SUB DUP1 DUP3 GT ISZERO PUSH2 0x26A1 JUMPI PUSH1 0x0 DUP1 REVERT JUMPDEST PUSH2 0x26AD DUP9 DUP4 DUP10 ADD PUSH2 0x25CA JUMP JUMPDEST SWAP5 POP PUSH1 0x40 DUP8 ADD CALLDATALOAD SWAP2 POP PUSH2 0x26BF DUP3 PUSH2 0x2657 JUMP JUMPDEST SWAP1 SWAP3 POP PUSH1 0x60 DUP7 ADD CALLDATALOAD SWAP1 DUP1 DUP3 GT ISZERO PUSH2 0x26D5 JUMPI PUSH1 0x0 DUP1 REVERT JUMPDEST POP PUSH2 0x26E2 DUP8 DUP3 DUP9 ADD PUSH2 0x25CA JUMP JUMPDEST SWAP2 POP POP SWAP3 SWAP6 SWAP2 SWAP5 POP SWAP3 POP JUMP JUMPDEST PUSH1 0x20 DUP2 ADD PUSH2 0x12F0 DUP3 DUP5 PUSH2 0x242A JUMP JUMPDEST PUSH1 0x5 DUP2 LT PUSH2 0x229C JUMPI PUSH1 0x0 DUP1 REVERT JUMPDEST DUP1 CALLDATALOAD PUSH2 0x22B1 DUP2 PUSH2 0x26FC JUMP JUMPDEST PUSH1 0x0 PUSH1 0x1 PUSH1 0x1 PUSH1 0x40 SHL SUB DUP3 GT ISZERO PUSH2 0x272D JUMPI PUSH2 0x272D PUSH2 0x24D4 JUMP JUMPDEST POP PUSH1 0x5 SHL PUSH1 0x20 ADD SWAP1 JUMP JUMPDEST PUSH1 0x0 DUP3 PUSH1 0x1F DUP4 ADD SLT PUSH2 0x2748 JUMPI PUSH1 0x0 DUP1 REVERT JUMPDEST DUP2 CALLDATALOAD PUSH1 0x20 PUSH2 0x2758 PUSH2 0x259A DUP4 PUSH2 0x2714 JUMP JUMPDEST DUP3 DUP2 MSTORE PUSH1 0x5 SWAP3 SWAP1 SWAP3 SHL DUP5 ADD DUP2 ADD SWAP2 DUP2 DUP2 ADD SWAP1 DUP7 DUP5 GT ISZERO PUSH2 0x2777 JUMPI PUSH1 0x0 DUP1 REVERT JUMPDEST DUP3 DUP7 ADD JUMPDEST DUP5 DUP2 LT ISZERO PUSH2 0x279B JUMPI DUP1 CALLDATALOAD PUSH2 0x278E DUP2 PUSH2 0x2625 JUMP JUMPDEST DUP4 MSTORE SWAP2 DUP4 ADD SWAP2 DUP4 ADD PUSH2 0x277B JUMP JUMPDEST POP SWAP7 SWAP6 POP POP POP POP POP POP JUMP JUMPDEST PUSH1 0x0 DUP3 PUSH1 0x1F DUP4 ADD SLT PUSH2 0x27B7 JUMPI PUSH1 0x0 DUP1 REVERT JUMPDEST DUP2 CALLDATALOAD PUSH1 0x20 PUSH2 0x27C7 PUSH2 0x259A DUP4 PUSH2 0x2714 JUMP JUMPDEST DUP3 DUP2 MSTORE PUSH1 0x5 SWAP3 SWAP1 SWAP3 SHL DUP5 ADD DUP2 ADD SWAP2 DUP2 DUP2 ADD SWAP1 DUP7 DUP5 GT ISZERO PUSH2 0x27E6 JUMPI PUSH1 0x0 DUP1 REVERT JUMPDEST DUP3 DUP7 ADD JUMPDEST DUP5 DUP2 LT ISZERO PUSH2 0x279B JUMPI DUP1 CALLDATALOAD DUP4 MSTORE SWAP2 DUP4 ADD SWAP2 DUP4 ADD PUSH2 0x27EA JUMP JUMPDEST PUSH1 0x0 DUP3 PUSH1 0x1F DUP4 ADD SLT PUSH2 0x2812 JUMPI PUSH1 0x0 DUP1 REVERT JUMPDEST DUP2 CALLDATALOAD PUSH1 0x20 PUSH2 0x2822 PUSH2 0x259A DUP4 PUSH2 0x2714 JUMP JUMPDEST DUP3 DUP2 MSTORE PUSH1 0x5 SWAP3 SWAP1 SWAP3 SHL DUP5 ADD DUP2 ADD SWAP2 DUP2 DUP2 ADD SWAP1 DUP7 DUP5 GT ISZERO PUSH2 0x2841 JUMPI PUSH1 0x0 DUP1 REVERT JUMPDEST DUP3 DUP7 ADD JUMPDEST DUP5 DUP2 LT ISZERO PUSH2 0x279B JUMPI DUP1 CALLDATALOAD PUSH1 0x1 PUSH1 0x1 PUSH1 0x40 SHL SUB DUP2 GT ISZERO PUSH2 0x2864 JUMPI PUSH1 0x0 DUP1 DUP2 REVERT JUMPDEST DUP8 ADD PUSH1 0x3F DUP2 ADD DUP10 SGT PUSH2 0x2876 JUMPI PUSH1 0x0 DUP1 DUP2 REVERT JUMPDEST PUSH2 0x2887 DUP10 DUP7 DUP4 ADD CALLDATALOAD PUSH1 0x40 DUP5 ADD PUSH2 0x258C JUMP JUMPDEST DUP5 MSTORE POP SWAP2 DUP4 ADD SWAP2 DUP4 ADD PUSH2 0x2845 JUMP JUMPDEST PUSH1 0x0 DUP1 PUSH1 0x0 DUP1 PUSH1 0x0 DUP1 PUSH1 0xC0 DUP8 DUP10 SUB SLT ISZERO PUSH2 0x28AE JUMPI PUSH1 0x0 DUP1 REVERT JUMPDEST PUSH2 0x28B7 DUP8 PUSH2 0x229F JUMP JUMPDEST SWAP6 POP PUSH1 0x20 DUP8 ADD CALLDATALOAD PUSH1 0x1 PUSH1 0x1 PUSH1 0x40 SHL SUB DUP1 DUP3 GT ISZERO PUSH2 0x28D3 JUMPI PUSH1 0x0 DUP1 REVERT JUMPDEST PUSH2 0x28DF DUP11 DUP4 DUP12 ADD PUSH2 0x25CA JUMP JUMPDEST SWAP7 POP PUSH2 0x28ED PUSH1 0x40 DUP11 ADD PUSH2 0x2709 JUMP JUMPDEST SWAP6 POP PUSH1 0x60 DUP10 ADD CALLDATALOAD SWAP2 POP DUP1 DUP3 GT ISZERO PUSH2 0x2903 JUMPI PUSH1 0x0 DUP1 REVERT JUMPDEST PUSH2 0x290F DUP11 DUP4 DUP12 ADD PUSH2 0x2737 JUMP JUMPDEST SWAP5 POP PUSH1 0x80 DUP10 ADD CALLDATALOAD SWAP2 POP DUP1 DUP3 GT ISZERO PUSH2 0x2925 JUMPI PUSH1 0x0 DUP1 REVERT JUMPDEST PUSH2 0x2931 DUP11 DUP4 DUP12 ADD PUSH2 0x27A6 JUMP JUMPDEST SWAP4 POP PUSH1 0xA0 DUP10 ADD CALLDATALOAD SWAP2 POP DUP1 DUP3 GT ISZERO PUSH2 0x2947 JUMPI PUSH1 0x0 DUP1 REVERT JUMPDEST POP PUSH2 0x2954 DUP10 DUP3 DUP11 ADD PUSH2 0x2801 JUMP JUMPDEST SWAP2 POP POP SWAP3 SWAP6 POP SWAP3 SWAP6 POP SWAP3 SWAP6 JUMP JUMPDEST PUSH1 0x0 DUP1 PUSH1 0x40 DUP4 DUP6 SUB SLT ISZERO PUSH2 0x2974 JUMPI PUSH1 0x0 DUP1 REVERT JUMPDEST DUP3 CALLDATALOAD SWAP2 POP PUSH1 0x20 DUP4 ADD CALLDATALOAD PUSH2 0x2986 DUP2 PUSH2 0x2625 JUMP JUMPDEST DUP1 SWAP2 POP POP SWAP3 POP SWAP3 SWAP1 POP JUMP JUMPDEST PUSH1 0x0 DUP2 MLOAD DUP1 DUP5 MSTORE PUSH1 0x20 DUP1 DUP6 ADD SWAP5 POP DUP1 DUP5 ADD PUSH1 0x0 JUMPDEST DUP4 DUP2 LT ISZERO PUSH2 0x29CA JUMPI DUP2 MLOAD PUSH1 0x1 PUSH1 0x1 PUSH1 0xA0 SHL SUB AND DUP8 MSTORE SWAP6 DUP3 ADD SWAP6 SWAP1 DUP3 ADD SWAP1 PUSH1 0x1 ADD PUSH2 0x29A5 JUMP JUMPDEST POP SWAP5 SWAP6 SWAP5 POP POP POP POP POP JUMP JUMPDEST PUSH1 0x0 DUP2 MLOAD DUP1 DUP5 MSTORE PUSH1 0x20 DUP1 DUP6 ADD SWAP5 POP DUP1 DUP5 ADD PUSH1 0x0 JUMPDEST DUP4 DUP2 LT ISZERO PUSH2 0x29CA JUMPI DUP2 MLOAD DUP8 MSTORE SWAP6 DUP3 ADD SWAP6 SWAP1 DUP3 ADD SWAP1 PUSH1 0x1 ADD PUSH2 0x29E9 JUMP JUMPDEST PUSH1 0x0 DUP3 DUP3 MLOAD DUP1 DUP6 MSTORE PUSH1 0x20 DUP1 DUP7 ADD SWAP6 POP DUP1 DUP3 PUSH1 0x5 SHL DUP5 ADD ADD DUP2 DUP7 ADD PUSH1 0x0 JUMPDEST DUP5 DUP2 LT ISZERO PUSH2 0x2A50 JUMPI PUSH1 0x1F NOT DUP7 DUP5 SUB ADD DUP10 MSTORE PUSH2 0x2A3E DUP4 DUP4 MLOAD PUSH2 0x23D4 JUMP JUMPDEST SWAP9 DUP5 ADD SWAP9 SWAP3 POP SWAP1 DUP4 ADD SWAP1 PUSH1 0x1 ADD PUSH2 0x2A22 JUMP JUMPDEST POP SWAP1 SWAP8 SWAP7 POP POP POP POP POP POP POP JUMP JUMPDEST PUSH1 0x20 DUP2 MSTORE DUP2 MLOAD PUSH1 0x20 DUP3 ADD MSTORE PUSH1 0x0 PUSH1 0x20 DUP4 ADD MLOAD PUSH2 0x2A84 PUSH1 0x40 DUP5 ADD DUP3 PUSH1 0x1 PUSH1 0x1 PUSH1 0xA0 SHL SUB AND SWAP1 MSTORE JUMP JUMPDEST POP PUSH1 0x40 DUP4 ADD MLOAD PUSH1 0x60 DUP4 ADD MSTORE PUSH1 0x60 DUP4 ADD MLOAD PUSH1 0x80 DUP4 ADD MSTORE PUSH1 0x80 DUP4 ADD MLOAD PUSH1 0xA0 DUP4 ADD MSTORE PUSH1 0xA0 DUP4 ADD MLOAD PUSH1 0xC0 DUP4 ADD MSTORE PUSH1 0xC0 DUP4 ADD MLOAD PUSH1 0xE0 DUP4 ADD MSTORE PUSH1 0xE0 DUP4 ADD MLOAD PUSH2 0x100 DUP2 DUP2 DUP6 ADD MSTORE DUP1 DUP6 ADD MLOAD SWAP2 POP POP PUSH2 0x200 PUSH2 0x120 DUP2 DUP2 DUP7 ADD MSTORE PUSH2 0x2AE4 PUSH2 0x220 DUP7 ADD DUP5 PUSH2 0x23D4 JUMP JUMPDEST SWAP1 DUP7 ADD MLOAD SWAP1 SWAP3 POP PUSH2 0x140 PUSH2 0x2AFA DUP7 DUP3 ADD DUP4 PUSH2 0x2416 JUMP JUMPDEST DUP7 ADD MLOAD SWAP1 POP PUSH2 0x160 PUSH2 0x2B0E DUP7 DUP3 ADD DUP4 PUSH2 0x242A JUMP JUMPDEST DUP1 DUP8 ADD MLOAD SWAP2 POP POP PUSH1 0x1F NOT PUSH2 0x180 DUP2 DUP8 DUP7 SUB ADD DUP2 DUP9 ADD MSTORE PUSH2 0x2B2E DUP6 DUP5 PUSH2 0x2991 JUMP JUMPDEST SWAP5 POP DUP1 DUP9 ADD MLOAD SWAP3 POP POP PUSH2 0x1A0 DUP2 DUP8 DUP7 SUB ADD DUP2 DUP9 ADD MSTORE PUSH2 0x2B4D DUP6 DUP5 PUSH2 0x29D5 JUMP JUMPDEST SWAP5 POP DUP1 DUP9 ADD MLOAD SWAP3 POP POP PUSH2 0x1C0 DUP2 DUP8 DUP7 SUB ADD DUP2 DUP9 ADD MSTORE PUSH2 0x2B6C DUP6 DUP5 PUSH2 0x2A05 JUMP JUMPDEST SWAP1 DUP9 ADD MLOAD PUSH2 0x1E0 DUP9 DUP2 ADD SWAP2 SWAP1 SWAP2 MSTORE DUP9 ADD MLOAD DUP8 DUP3 SUB SWAP1 SWAP3 ADD DUP5 DUP9 ADD MSTORE SWAP4 POP SWAP1 POP PUSH2 0x2B95 DUP4 DUP3 PUSH2 0x23D4 JUMP JUMPDEST SWAP7 SWAP6 POP POP POP POP POP POP JUMP JUMPDEST PUSH4 0x4E487B71 PUSH1 0xE0 SHL PUSH1 0x0 MSTORE PUSH1 0x32 PUSH1 0x4 MSTORE PUSH1 0x24 PUSH1 0x0 REVERT JUMPDEST PUSH1 0x1 DUP2 DUP2 SHR SWAP1 DUP3 AND DUP1 PUSH2 0x2BC9 JUMPI PUSH1 0x7F DUP3 AND SWAP2 POP JUMPDEST PUSH1 0x20 DUP3 LT DUP2 SUB PUSH2 0xC24 JUMPI PUSH4 0x4E487B71 PUSH1 0xE0 SHL PUSH1 0x0 MSTORE PUSH1 0x22 PUSH1 0x4 MSTORE PUSH1 0x24 PUSH1 0x0 REVERT JUMPDEST PUSH1 0x20 DUP1 DUP3 MSTORE PUSH1 0x26 SWAP1 DUP3 ADD MSTORE PUSH32 0x4F6E6C7920676F7665726E616E63652063616E2063616C6C2074686973206675 PUSH1 0x40 DUP3 ADD MSTORE PUSH6 0x3731BA34B7B7 PUSH1 0xD1 SHL PUSH1 0x60 DUP3 ADD MSTORE PUSH1 0x80 ADD SWAP1 JUMP JUMPDEST PUSH1 0x20 DUP2 MSTORE DUP2 MLOAD PUSH1 0x20 DUP3 ADD MSTORE PUSH1 0x1 DUP1 PUSH1 0xA0 SHL SUB PUSH1 0x20 DUP4 ADD MLOAD AND PUSH1 0x40 DUP3 ADD MSTORE PUSH1 0xFF PUSH1 0x40 DUP4 ADD MLOAD AND PUSH1 0x60 DUP3 ADD MSTORE PUSH1 0x0 PUSH1 0x60 DUP4 ADD MLOAD PUSH1 0xE0 PUSH1 0x80 DUP5 ADD MSTORE PUSH2 0x2C75 PUSH2 0x100 DUP5 ADD DUP3 PUSH2 0x23D4 JUMP JUMPDEST SWAP1 POP PUSH1 0x80 DUP5 ADD MLOAD PUSH1 0xA0 DUP5 ADD MSTORE PUSH1 0xA0 DUP5 ADD MLOAD PUSH1 0x1F NOT DUP5 DUP4 SUB ADD PUSH1 0xC0 DUP6 ADD MSTORE PUSH2 0x2C9C DUP3 DUP3 PUSH2 0x23D4 JUMP JUMPDEST SWAP2 POP POP PUSH1 0xC0 DUP5 ADD MLOAD PUSH1 0xE0 DUP5 ADD MSTORE DUP1 SWAP2 POP POP SWAP3 SWAP2 POP POP JUMP JUMPDEST PUSH4 0x4E487B71 PUSH1 0xE0 SHL PUSH1 0x0 MSTORE PUSH1 0x11 PUSH1 0x4 MSTORE PUSH1 0x24 PUSH1 0x0 REVERT JUMPDEST DUP1 DUP3 ADD DUP1 DUP3 GT ISZERO PUSH2 0x12F0 JUMPI PUSH2 0x12F0 PUSH2 0x2CB3 JUMP JUMPDEST PUSH1 0x0 PUSH1 0x1 DUP3 ADD PUSH2 0x2CEE JUMPI PUSH2 0x2CEE PUSH2 0x2CB3 JUMP JUMPDEST POP PUSH1 0x1 ADD SWAP1 JUMP JUMPDEST PUSH2 0xFFFF DUP7 AND DUP2 MSTORE PUSH1 0x1 PUSH1 0x1 PUSH1 0xA0 SHL SUB DUP6 AND PUSH1 0x20 DUP3 ADD MSTORE PUSH1 0xA0 PUSH1 0x40 DUP3 ADD DUP2 SWAP1 MSTORE PUSH1 0x0 SWAP1 PUSH2 0x2D23 SWAP1 DUP4 ADD DUP7 PUSH2 0x23D4 JUMP JUMPDEST DUP5 ISZERO ISZERO PUSH1 0x60 DUP5 ADD MSTORE DUP3 DUP2 SUB PUSH1 0x80 DUP5 ADD MSTORE PUSH2 0x2D3D DUP2 DUP6 PUSH2 0x23D4 JUMP JUMPDEST SWAP9 SWAP8 POP POP POP POP POP POP POP POP JUMP JUMPDEST PUSH1 0x0 DUP1 PUSH1 0x40 DUP4 DUP6 SUB SLT ISZERO PUSH2 0x2D5C JUMPI PUSH1 0x0 DUP1 REVERT JUMPDEST POP POP DUP1 MLOAD PUSH1 0x20 SWAP1 SWAP2 ADD MLOAD SWAP1 SWAP3 SWAP1 SWAP2 POP JUMP JUMPDEST PUSH4 0x7372635F PUSH1 0xE0 SHL DUP2 MSTORE PUSH1 0x0 DUP3 MLOAD PUSH2 0x2D8C DUP2 PUSH1 0x4 DUP6 ADD PUSH1 0x20 DUP8 ADD PUSH2 0x23B0 JUMP JUMPDEST SWAP2 SWAP1 SWAP2 ADD PUSH1 0x4 ADD SWAP3 SWAP2 POP POP JUMP JUMPDEST PUSH1 0x1F DUP3 GT ISZERO PUSH2 0x2DDF JUMPI PUSH1 0x0 DUP2 DUP2 MSTORE PUSH1 0x20 DUP2 KECCAK256 PUSH1 0x1F DUP6 ADD PUSH1 0x5 SHR DUP2 ADD PUSH1 0x20 DUP7 LT ISZERO PUSH2 0x2DC0 JUMPI POP DUP1 JUMPDEST PUSH1 0x1F DUP6 ADD PUSH1 0x5 SHR DUP3 ADD SWAP2 POP JUMPDEST DUP2 DUP2 LT ISZERO PUSH2 0x1EA7 JUMPI DUP3 DUP2 SSTORE PUSH1 0x1 ADD PUSH2 0x2DCC JUMP JUMPDEST POP POP POP JUMP JUMPDEST DUP2 MLOAD PUSH1 0x1 PUSH1 0x1 PUSH1 0x40 SHL SUB DUP2 GT ISZERO PUSH2 0x2DFD JUMPI PUSH2 0x2DFD PUSH2 0x24D4 JUMP JUMPDEST PUSH2 0x2E11 DUP2 PUSH2 0x2E0B DUP5 SLOAD PUSH2 0x2BB5 JUMP JUMPDEST DUP5 PUSH2 0x2D99 JUMP JUMPDEST PUSH1 0x20 DUP1 PUSH1 0x1F DUP4 GT PUSH1 0x1 DUP2 EQ PUSH2 0x2E46 JUMPI PUSH1 0x0 DUP5 ISZERO PUSH2 0x2E2E JUMPI POP DUP6 DUP4 ADD MLOAD JUMPDEST PUSH1 0x0 NOT PUSH1 0x3 DUP7 SWAP1 SHL SHR NOT AND PUSH1 0x1 DUP6 SWAP1 SHL OR DUP6 SSTORE PUSH2 0x1EA7 JUMP JUMPDEST PUSH1 0x0 DUP6 DUP2 MSTORE PUSH1 0x20 DUP2 KECCAK256 PUSH1 0x1F NOT DUP7 AND SWAP2 JUMPDEST DUP3 DUP2 LT ISZERO PUSH2 0x2E75 JUMPI DUP9 DUP7 ADD MLOAD DUP3 SSTORE SWAP5 DUP5 ADD SWAP5 PUSH1 0x1 SWAP1 SWAP2 ADD SWAP1 DUP5 ADD PUSH2 0x2E56 JUMP JUMPDEST POP DUP6 DUP3 LT ISZERO PUSH2 0x2E93 JUMPI DUP8 DUP6 ADD MLOAD PUSH1 0x0 NOT PUSH1 0x3 DUP9 SWAP1 SHL PUSH1 0xF8 AND SHR NOT AND DUP2 SSTORE JUMPDEST POP POP POP POP POP PUSH1 0x1 SWAP1 DUP2 SHL ADD SWAP1 SSTORE POP JUMP JUMPDEST PUSH1 0x20 DUP2 MSTORE DUP2 MLOAD PUSH1 0x20 DUP3 ADD MSTORE PUSH1 0x0 PUSH1 0x20 DUP4 ADD MLOAD PUSH2 0x2ECA PUSH1 0x40 DUP5 ADD DUP3 PUSH1 0x1 PUSH1 0x1 PUSH1 0xA0 SHL SUB AND SWAP1 MSTORE JUMP JUMPDEST POP PUSH1 0x40 DUP4 ADD MLOAD PUSH1 0x60 DUP4 ADD MSTORE PUSH1 0x60 DUP4 ADD MLOAD PUSH1 0x80 DUP4 ADD MSTORE PUSH1 0x80 DUP4 ADD MLOAD PUSH2 0x180 DUP1 PUSH1 0xA0 DUP6 ADD MSTORE PUSH2 0x2EFB PUSH2 0x1A0 DUP6 ADD DUP4 PUSH2 0x23D4 JUMP JUMPDEST SWAP2 POP PUSH1 0xA0 DUP6 ADD MLOAD PUSH2 0x2F0F PUSH1 0xC0 DUP7 ADD DUP3 PUSH2 0x2416 JUMP JUMPDEST POP PUSH1 0xC0 DUP6 ADD MLOAD PUSH1 0x1F NOT DUP1 DUP7 DUP6 SUB ADD PUSH1 0xE0 DUP8 ADD MSTORE PUSH2 0x2F2C DUP5 DUP4 PUSH2 0x2991 JUMP JUMPDEST SWAP4 POP PUSH1 0xE0 DUP8 ADD MLOAD SWAP2 POP PUSH2 0x100 DUP2 DUP8 DUP7 SUB ADD DUP2 DUP9 ADD MSTORE PUSH2 0x2F4B DUP6 DUP5 PUSH2 0x29D5 JUMP JUMPDEST SWAP5 POP DUP1 DUP9 ADD MLOAD SWAP3 POP POP PUSH2 0x120 DUP2 DUP8 DUP7 SUB ADD DUP2 DUP9 ADD MSTORE PUSH2 0x2F6A DUP6 DUP5 PUSH2 0x2A05 JUMP JUMPDEST SWAP5 POP DUP1 DUP9 ADD MLOAD SWAP3 POP POP PUSH2 0x140 DUP3 DUP2 DUP9 ADD MSTORE DUP1 DUP9 ADD MLOAD SWAP3 POP POP PUSH2 0x160 DUP2 DUP8 DUP7 SUB ADD DUP2 DUP9 ADD MSTORE PUSH2 0x2F98 DUP6 DUP5 PUSH2 0x23D4 JUMP JUMPDEST SWAP8 ADD MLOAD SWAP6 SWAP1 SWAP3 ADD SWAP5 SWAP1 SWAP5 MSTORE POP SWAP3 SWAP4 SWAP3 POP POP POP JUMP JUMPDEST PUSH1 0x0 PUSH1 0x20 DUP1 DUP4 MSTORE PUSH1 0x0 DUP5 SLOAD PUSH2 0x2FC0 DUP2 PUSH2 0x2BB5 JUMP JUMPDEST DUP1 DUP5 DUP8 ADD MSTORE PUSH1 0x40 PUSH1 0x1 DUP1 DUP5 AND PUSH1 0x0 DUP2 EQ PUSH2 0x2FE1 JUMPI PUSH1 0x1 DUP2 EQ PUSH2 0x2FFB JUMPI PUSH2 0x3029 JUMP JUMPDEST PUSH1 0xFF NOT DUP6 AND DUP10 DUP5 ADD MSTORE DUP4 ISZERO ISZERO PUSH1 0x5 SHL DUP10 ADD DUP4 ADD SWAP6 POP PUSH2 0x3029 JUMP JUMPDEST DUP10 PUSH1 0x0 MSTORE DUP7 PUSH1 0x0 KECCAK256 PUSH1 0x0 JUMPDEST DUP6 DUP2 LT ISZERO PUSH2 0x3021 JUMPI DUP2 SLOAD DUP12 DUP3 ADD DUP7 ADD MSTORE SWAP1 DUP4 ADD SWAP1 DUP9 ADD PUSH2 0x3006 JUMP JUMPDEST DUP11 ADD DUP5 ADD SWAP7 POP POP JUMPDEST POP SWAP4 SWAP9 SWAP8 POP POP POP POP POP POP POP POP JUMP JUMPDEST DUP2 DUP2 SUB DUP2 DUP2 GT ISZERO PUSH2 0x12F0 JUMPI PUSH2 0x12F0 PUSH2 0x2CB3 JUMP JUMPDEST DUP1 MLOAD PUSH2 0x22B1 DUP2 PUSH2 0x2625 JUMP JUMPDEST PUSH1 0x0 PUSH2 0x3063 PUSH2 0x259A DUP5 PUSH2 0x2565 JUMP JUMPDEST SWAP1 POP DUP3 DUP2 MSTORE DUP4 DUP4 DUP4 ADD GT ISZERO PUSH2 0x3077 JUMPI PUSH1 0x0 DUP1 REVERT JUMPDEST PUSH2 0x25EA DUP4 PUSH1 0x20 DUP4 ADD DUP5 PUSH2 0x23B0 JUMP JUMPDEST PUSH1 0x0 DUP3 PUSH1 0x1F DUP4 ADD SLT PUSH2 0x3096 JUMPI PUSH1 0x0 DUP1 REVERT JUMPDEST PUSH2 0x25EA DUP4 DUP4 MLOAD PUSH1 0x20 DUP6 ADD PUSH2 0x3055 JUMP JUMPDEST DUP1 MLOAD PUSH2 0x22B1 DUP2 PUSH2 0x26FC JUMP JUMPDEST PUSH1 0x0 DUP3 PUSH1 0x1F DUP4 ADD SLT PUSH2 0x30C1 JUMPI PUSH1 0x0 DUP1 REVERT JUMPDEST DUP2 MLOAD PUSH1 0x20 PUSH2 0x30D1 PUSH2 0x259A DUP4 PUSH2 0x2714 JUMP JUMPDEST DUP3 DUP2 MSTORE PUSH1 0x5 SWAP3 SWAP1 SWAP3 SHL DUP5 ADD DUP2 ADD SWAP2 DUP2 DUP2 ADD SWAP1 DUP7 DUP5 GT ISZERO PUSH2 0x30F0 JUMPI PUSH1 0x0 DUP1 REVERT JUMPDEST DUP3 DUP7 ADD JUMPDEST DUP5 DUP2 LT ISZERO PUSH2 0x279B JUMPI DUP1 MLOAD PUSH2 0x3107 DUP2 PUSH2 0x2625 JUMP JUMPDEST DUP4 MSTORE SWAP2 DUP4 ADD SWAP2 DUP4 ADD PUSH2 0x30F4 JUMP JUMPDEST PUSH1 0x0 DUP3 PUSH1 0x1F DUP4 ADD SLT PUSH2 0x3125 JUMPI PUSH1 0x0 DUP1 REVERT JUMPDEST DUP2 MLOAD PUSH1 0x20 PUSH2 0x3135 PUSH2 0x259A DUP4 PUSH2 0x2714 JUMP JUMPDEST DUP3 DUP2 MSTORE PUSH1 0x5 SWAP3 SWAP1 SWAP3 SHL DUP5 ADD DUP2 ADD SWAP2 DUP2 DUP2 ADD SWAP1 DUP7 DUP5 GT ISZERO PUSH2 0x3154 JUMPI PUSH1 0x0 DUP1 REVERT JUMPDEST DUP3 DUP7 ADD JUMPDEST DUP5 DUP2 LT ISZERO PUSH2 0x279B JUMPI DUP1 MLOAD DUP4 MSTORE SWAP2 DUP4 ADD SWAP2 DUP4 ADD PUSH2 0x3158 JUMP JUMPDEST PUSH1 0x0 DUP3 PUSH1 0x1F DUP4 ADD SLT PUSH2 0x3180 JUMPI PUSH1 0x0 DUP1 REVERT JUMPDEST DUP2 MLOAD PUSH1 0x20 PUSH2 0x3190 PUSH2 0x259A DUP4 PUSH2 0x2714 JUMP JUMPDEST DUP3 DUP2 MSTORE PUSH1 0x5 SWAP3 SWAP1 SWAP3 SHL DUP5 ADD DUP2 ADD SWAP2 DUP2 DUP2 ADD SWAP1 DUP7 DUP5 GT ISZERO PUSH2 0x31AF JUMPI PUSH1 0x0 DUP1 REVERT JUMPDEST DUP3 DUP7 ADD JUMPDEST DUP5 DUP2 LT ISZERO PUSH2 0x279B JUMPI DUP1 MLOAD PUSH1 0x1 PUSH1 0x1 PUSH1 0x40 SHL SUB DUP2 GT ISZERO PUSH2 0x31D2 JUMPI PUSH1 0x0 DUP1 DUP2 REVERT JUMPDEST DUP8 ADD PUSH1 0x3F DUP2 ADD DUP10 SGT PUSH2 0x31E4 JUMPI PUSH1 0x0 DUP1 DUP2 REVERT JUMPDEST PUSH2 0x31F5 DUP10 DUP7 DUP4 ADD MLOAD PUSH1 0x40 DUP5 ADD PUSH2 0x3055 JUMP JUMPDEST DUP5 MSTORE POP SWAP2 DUP4 ADD SWAP2 DUP4 ADD PUSH2 0x31B3 JUMP JUMPDEST PUSH1 0x0 PUSH1 0x20 DUP3 DUP5 SUB SLT ISZERO PUSH2 0x3215 JUMPI PUSH1 0x0 DUP1 REVERT JUMPDEST DUP2 MLOAD PUSH1 0x1 PUSH1 0x1 PUSH1 0x40 SHL SUB DUP1 DUP3 GT ISZERO PUSH2 0x322C JUMPI PUSH1 0x0 DUP1 REVERT JUMPDEST SWAP1 DUP4 ADD SWAP1 PUSH2 0x180 DUP3 DUP7 SUB SLT ISZERO PUSH2 0x3241 JUMPI PUSH1 0x0 DUP1 REVERT JUMPDEST PUSH2 0x3249 PUSH2 0x24EA JUMP JUMPDEST DUP3 MLOAD DUP2 MSTORE PUSH2 0x3259 PUSH1 0x20 DUP5 ADD PUSH2 0x304A JUMP JUMPDEST PUSH1 0x20 DUP3 ADD MSTORE PUSH1 0x40 DUP4 ADD MLOAD PUSH1 0x40 DUP3 ADD MSTORE PUSH1 0x60 DUP4 ADD MLOAD PUSH1 0x60 DUP3 ADD MSTORE PUSH1 0x80 DUP4 ADD MLOAD DUP3 DUP2 GT ISZERO PUSH2 0x3284 JUMPI PUSH1 0x0 DUP1 REVERT JUMPDEST PUSH2 0x3290 DUP8 DUP3 DUP7 ADD PUSH2 0x3085 JUMP JUMPDEST PUSH1 0x80 DUP4 ADD MSTORE POP PUSH2 0x32A2 PUSH1 0xA0 DUP5 ADD PUSH2 0x30A5 JUMP JUMPDEST PUSH1 0xA0 DUP3 ADD MSTORE PUSH1 0xC0 DUP4 ADD MLOAD DUP3 DUP2 GT ISZERO PUSH2 0x32B9 JUMPI PUSH1 0x0 DUP1 REVERT JUMPDEST PUSH2 0x32C5 DUP8 DUP3 DUP7 ADD PUSH2 0x30B0 JUMP JUMPDEST PUSH1 0xC0 DUP4 ADD MSTORE POP PUSH1 0xE0 DUP4 ADD MLOAD DUP3 DUP2 GT ISZERO PUSH2 0x32DD JUMPI PUSH1 0x0 DUP1 REVERT JUMPDEST PUSH2 0x32E9 DUP8 DUP3 DUP7 ADD PUSH2 0x3114 JUMP JUMPDEST PUSH1 0xE0 DUP4 ADD MSTORE POP PUSH2 0x100 DUP1 DUP5 ADD MLOAD DUP4 DUP2 GT ISZERO PUSH2 0x3303 JUMPI PUSH1 0x0 DUP1 REVERT JUMPDEST PUSH2 0x330F DUP9 DUP3 DUP8 ADD PUSH2 0x316F JUMP JUMPDEST DUP3 DUP5 ADD MSTORE POP POP PUSH2 0x120 DUP1 DUP5 ADD MLOAD DUP2 DUP4 ADD MSTORE POP PUSH2 0x140 DUP1 DUP5 ADD MLOAD DUP4 DUP2 GT ISZERO PUSH2 0x3335 JUMPI PUSH1 0x0 DUP1 REVERT JUMPDEST PUSH2 0x3341 DUP9 DUP3 DUP8 ADD PUSH2 0x3085 JUMP JUMPDEST SWAP2 DUP4 ADD SWAP2 SWAP1 SWAP2 MSTORE POP PUSH2 0x160 SWAP3 DUP4 ADD MLOAD SWAP3 DUP2 ADD SWAP3 SWAP1 SWAP3 MSTORE POP SWAP4 SWAP3 POP POP POP JUMP JUMPDEST PUSH2 0xFFFF PUSH1 0xF0 SHL DUP5 PUSH1 0xF0 SHL AND DUP2 MSTORE PUSH1 0x0 DUP4 MLOAD PUSH2 0x3381 DUP2 PUSH1 0x2 DUP6 ADD PUSH1 0x20 DUP9 ADD PUSH2 0x23B0 JUMP JUMPDEST PUSH1 0x2 SWAP3 ADD SWAP2 DUP3 ADD SWAP3 SWAP1 SWAP3 MSTORE PUSH1 0x22 ADD SWAP4 SWAP3 POP POP POP JUMP JUMPDEST PUSH1 0x0 DUP4 MLOAD PUSH2 0x33A8 DUP2 DUP5 PUSH1 0x20 DUP9 ADD PUSH2 0x23B0 JUMP JUMPDEST PUSH1 0x2D PUSH1 0xF8 SHL SWAP1 DUP4 ADD SWAP1 DUP2 MSTORE DUP4 MLOAD PUSH2 0x33C6 DUP2 PUSH1 0x1 DUP5 ADD PUSH1 0x20 DUP9 ADD PUSH2 0x23B0 JUMP JUMPDEST ADD PUSH1 0x1 ADD SWAP5 SWAP4 POP POP POP POP JUMP JUMPDEST PUSH1 0x0 DUP3 MLOAD PUSH2 0x33E4 DUP2 DUP5 PUSH1 0x20 DUP8 ADD PUSH2 0x23B0 JUMP JUMPDEST SWAP2 SWAP1 SWAP2 ADD SWAP3 SWAP2 POP POP JUMP JUMPDEST PUSH9 0x2DA6A4A92927A92E9 PUSH1 0xBD SHL DUP2 MSTORE PUSH1 0x0 DUP3 MLOAD PUSH2 0x3412 DUP2 PUSH1 0x9 DUP6 ADD PUSH1 0x20 DUP8 ADD PUSH2 0x23B0 JUMP JUMPDEST SWAP2 SWAP1 SWAP2 ADD PUSH1 0x9 ADD SWAP3 SWAP2 POP POP JUMP JUMPDEST DUP1 MLOAD PUSH2 0x22B1 DUP2 PUSH2 0x2657 JUMP JUMPDEST PUSH1 0x0 PUSH1 0x20 DUP3 DUP5 SUB SLT ISZERO PUSH2 0x343C JUMPI PUSH1 0x0 DUP1 REVERT JUMPDEST DUP2 MLOAD PUSH1 0x1 PUSH1 0x1 PUSH1 0x40 SHL SUB DUP1 DUP3 GT ISZERO PUSH2 0x3453 JUMPI PUSH1 0x0 DUP1 REVERT JUMPDEST SWAP1 DUP4 ADD SWAP1 PUSH1 0xE0 DUP3 DUP7 SUB SLT ISZERO PUSH2 0x3467 JUMPI PUSH1 0x0 DUP1 REVERT JUMPDEST PUSH2 0x346F PUSH2 0x2513 JUMP JUMPDEST DUP3 MLOAD DUP2 MSTORE PUSH2 0x347F PUSH1 0x20 DUP5 ADD PUSH2 0x304A JUMP JUMPDEST PUSH1 0x20 DUP3 ADD MSTORE PUSH2 0x3490 PUSH1 0x40 DUP5 ADD PUSH2 0x341F JUMP JUMPDEST PUSH1 0x40 DUP3 ADD MSTORE PUSH1 0x60 DUP4 ADD MLOAD DUP3 DUP2 GT ISZERO PUSH2 0x34A7 JUMPI PUSH1 0x0 DUP1 REVERT JUMPDEST PUSH2 0x34B3 DUP8 DUP3 DUP7 ADD PUSH2 0x3085 JUMP JUMPDEST PUSH1 0x60 DUP4 ADD MSTORE POP PUSH1 0x80 DUP4 ADD MLOAD PUSH1 0x80 DUP3 ADD MSTORE PUSH1 0xA0 DUP4 ADD MLOAD DUP3 DUP2 GT ISZERO PUSH2 0x34D5 JUMPI PUSH1 0x0 DUP1 REVERT JUMPDEST PUSH2 0x34E1 DUP8 DUP3 DUP7 ADD PUSH2 0x3085 JUMP JUMPDEST PUSH1 0xA0 DUP4 ADD MSTORE POP PUSH1 0xC0 DUP4 ADD MLOAD PUSH1 0xC0 DUP3 ADD MSTORE DUP1 SWAP4 POP POP POP POP SWAP3 SWAP2 POP POP JUMP JUMPDEST PUSH2 0xFFFF DUP8 AND DUP2 MSTORE PUSH1 0xC0 PUSH1 0x20 DUP3 ADD MSTORE PUSH1 0x0 PUSH2 0x351A PUSH1 0xC0 DUP4 ADD DUP9 PUSH2 0x23D4 JUMP JUMPDEST DUP3 DUP2 SUB PUSH1 0x40 DUP5 ADD MSTORE PUSH2 0x352C DUP2 DUP9 PUSH2 0x23D4 JUMP JUMPDEST PUSH1 0x1 PUSH1 0x1 PUSH1 0xA0 SHL SUB DUP8 DUP2 AND PUSH1 0x60 DUP7 ADD MSTORE DUP7 AND PUSH1 0x80 DUP6 ADD MSTORE DUP4 DUP2 SUB PUSH1 0xA0 DUP6 ADD MSTORE SWAP1 POP PUSH2 0x3557 DUP2 DUP6 PUSH2 0x23D4 JUMP JUMPDEST SWAP10 SWAP9 POP POP POP POP POP POP POP POP POP JUMP JUMPDEST PUSH4 0x4E487B71 PUSH1 0xE0 SHL PUSH1 0x0 MSTORE PUSH1 0x12 PUSH1 0x4 MSTORE PUSH1 0x24 PUSH1 0x0 REVERT JUMPDEST PUSH1 0x0 DUP3 PUSH2 0x3589 JUMPI PUSH2 0x3589 PUSH2 0x3564 JUMP JUMPDEST POP DIV SWAP1 JUMP JUMPDEST PUSH1 0x0 DUP3 PUSH2 0x359D JUMPI PUSH2 0x359D PUSH2 0x3564 JUMP JUMPDEST POP MOD SWAP1 JUMP INVALID LOG2 PUSH5 0x6970667358 0x22 SLT KECCAK256 0xB5 DUP12 PUSH8 0x1D7537213BDEE6BD 0xA8 CALLER ORIGIN SSTORE SWAP4 SAR PUSH3 0x3A3C21 NUMBER DUP3 ORIGIN 0xB8 SLT 0x2D SLOAD NOT LOG4 DUP13 GASPRICE PUSH5 0x736F6C6343 STOP ADDMOD SGT STOP CALLER "},"methodIdentifiers":{"castCrossChainVote(uint16,string,uint8,string)":"288f2f58","createCrossChainProposal(uint16,string,uint8,address[],uint256[],bytes[])":"5573a039","domesticChainId()":"f4d0ea3c","getProposal(uint256)":"c7f758a8","getVote(uint256,address)":"bc3f931f","governanceContract()":"b172b222","lzEndpoint()":"b353aaa7","lzReceive(uint16,bytes,uint64,bytes)":"001d3567","overseasChainId()":"36874b8c","pause()":"8456cb59","processedMessages(bytes32)":"88ba16ab","proposalCount()":"da35c664","proposalMirrorCount(uint256)":"3864ddf5","proposals(uint256)":"013cf08b","quorumPercentage()":"4fa76ec9","sourceProposalToMirror(string)":"1766a00e","state(uint256)":"3e4f49e6","threatIntelSyncContract()":"c859630d","unpause()":"3f4ba83a","updateGovernance(address)":"b2561263","updateQuorumPercentage(uint256)":"f0f9e6b7","updateThreatIntelSyncContract(address)":"20737f1f","votes(uint256,address)":"d23254b4","votingPeriod()":"02a251a3"}}}}}