{
  "_format": "hh-sol-artifact-1",
  "contractName": "GasSubsidy",
  "sourceName": "contracts/core/GasSubsidy.sol",
  "abi": [
    {
      "inputs": [
        {
          "internalType": "address",
          "name": "_initialOwner",
          "type": "address"
        },
        {
          "internalType": "address",
          "name": "_relayer",
          "type": "address"
        }
      ],
      "stateMutability": "nonpayable",
      "type": "constructor"
    },
    {
      "inputs": [
        {
          "internalType": "address",
          "name": "owner",
          "type": "address"
        }
      ],
      "name": "OwnableInvalidOwner",
      "type": "error"
    },
    {
      "inputs": [
        {
          "internalType": "address",
          "name": "account",
          "type": "address"
        }
      ],
      "name": "OwnableUnauthorizedAccount",
      "type": "error"
    },
    {
      "inputs": [],
      "name": "ReentrancyGuardReentrantCall",
      "type": "error"
    },
    {
      "anonymous": false,
      "inputs": [
        {
          "indexed": true,
          "internalType": "address",
          "name": "user",
          "type": "address"
        },
        {
          "indexed": false,
          "internalType": "uint256",
          "name": "amount",
          "type": "uint256"
        }
      ],
      "name": "GasSubsidized",
      "type": "event"
    },
    {
      "anonymous": false,
      "inputs": [
        {
          "indexed": true,
          "internalType": "address",
          "name": "previousOwner",
          "type": "address"
        },
        {
          "indexed": true,
          "internalType": "address",
          "name": "newOwner",
          "type": "address"
        }
      ],
      "name": "OwnershipTransferred",
      "type": "event"
    },
    {
      "anonymous": false,
      "inputs": [
        {
          "indexed": true,
          "internalType": "address",
          "name": "newRelayer",
          "type": "address"
        }
      ],
      "name": "RelayerUpdated",
      "type": "event"
    },
    {
      "anonymous": false,
      "inputs": [
        {
          "indexed": false,
          "internalType": "uint256",
          "name": "newAmount",
          "type": "uint256"
        }
      ],
      "name": "SubsidyAmountUpdated",
      "type": "event"
    },
    {
      "inputs": [
        {
          "internalType": "address[]",
          "name": "_users",
          "type": "address[]"
        }
      ],
      "name": "batchSubsidize",
      "outputs": [],
      "stateMutability": "nonpayable",
      "type": "function"
    },
    {
      "inputs": [
        {
          "internalType": "uint256",
          "name": "amount",
          "type": "uint256"
        }
      ],
      "name": "emergencyWithdraw",
      "outputs": [],
      "stateMutability": "nonpayable",
      "type": "function"
    },
    {
      "inputs": [
        {
          "internalType": "address",
          "name": "",
          "type": "address"
        }
      ],
      "name": "hasClaimed",
      "outputs": [
        {
          "internalType": "bool",
          "name": "",
          "type": "bool"
        }
      ],
      "stateMutability": "view",
      "type": "function"
    },
    {
      "inputs": [],
      "name": "owner",
      "outputs": [
        {
          "internalType": "address",
          "name": "",
          "type": "address"
        }
      ],
      "stateMutability": "view",
      "type": "function"
    },
    {
      "inputs": [],
      "name": "relayerAddress",
      "outputs": [
        {
          "internalType": "address",
          "name": "",
          "type": "address"
        }
      ],
      "stateMutability": "view",
      "type": "function"
    },
    {
      "inputs": [],
      "name": "renounceOwnership",
      "outputs": [],
      "stateMutability": "nonpayable",
      "type": "function"
    },
    {
      "inputs": [
        {
          "internalType": "address",
          "name": "_newRelayer",
          "type": "address"
        }
      ],
      "name": "setRelayer",
      "outputs": [],
      "stateMutability": "nonpayable",
      "type": "function"
    },
    {
      "inputs": [
        {
          "internalType": "uint256",
          "name": "_amount",
          "type": "uint256"
        }
      ],
      "name": "setSubsidyAmount",
      "outputs": [],
      "stateMutability": "nonpayable",
      "type": "function"
    },
    {
      "inputs": [
        {
          "internalType": "address",
          "name": "_user",
          "type": "address"
        }
      ],
      "name": "subsidize",
      "outputs": [],
      "stateMutability": "nonpayable",
      "type": "function"
    },
    {
      "inputs": [],
      "name": "subsidyAmount",
      "outputs": [
        {
          "internalType": "uint256",
          "name": "",
          "type": "uint256"
        }
      ],
      "stateMutability": "view",
      "type": "function"
    },
    {
      "inputs": [
        {
          "internalType": "address",
          "name": "newOwner",
          "type": "address"
        }
      ],
      "name": "transferOwnership",
      "outputs": [],
      "stateMutability": "nonpayable",
      "type": "function"
    },
    {
      "stateMutability": "payable",
      "type": "receive"
    }
  ],
  "bytecode": "0x6080346100e457601f6108da38819003918201601f19168301916001600160401b038311848410176100e95780849260409485528339810103126100e457610052602061004b836100ff565b92016100ff565b906001600160a01b039081169081156100cb576000549260018060a01b03199280848616176000558260405195167f8be0079c531659141344cd1fd0a4f28419497f9722a3daafe3b4186f6b6457e0600080a360018055670de0b6b3a7640000600255169060045416176004556107c690816101148239f35b604051631e4fbdf760e01b815260006004820152602490fd5b600080fd5b634e487b7160e01b600052604160045260246000fd5b51906001600160a01b03821682036100e45756fe6080604081815260049081361015610022575b505050361561002057600080fd5b005b600092833560e01c908163113bbf26146106515750806318a7cca814610629578063310b2169146104ba578381635312ea8e14610469575080636548e9bc146104025780636869fa74146103b4578063715018a61461035757806373b2e80e146103185780638da5cb5b146102ec578063ba142acb146101365763f2fde38b036100125734610132576020366003190112610132576001600160a01b0382358181169391929084900361012e576100d761078d565b831561011857505082546001600160a01b0319811683178455167f8be0079c531659141344cd1fd0a4f28419497f9722a3daafe3b4186f6b6457e08380a380f35b51631e4fbdf760e01b8152908101849052602490fd5b8480fd5b8280fd5b503461013257602090816003193601126102e85782356001600160a01b0381811694908583036102e4576002600154146102d5576101879060026001558083541633149081156102c8575b5061066d565b8415610293578486526003845260ff838720541661025057476002541161020d5750906101fd858080807f25b5ceb41a95556203ee76d73889d894ac2e2719bd7ec73d82c99f9c1073e4a1979689825260038852868220600160ff19825416179055600254905af16101f76106e9565b5061074a565b6002549051908152a26001805580f35b825162461bcd60e51b8152908101849052601a60248201527f496e73756666696369656e7420737562736964792066756e64730000000000006044820152606490fd5b825162461bcd60e51b8152908101849052601c60248201527f5573657220616c726561647920636c61696d65642073756273696479000000006044820152606490fd5b825162461bcd60e51b8152908101849052600f60248201526e496e76616c6964206164647265737360881b6044820152606490fd5b9050875416331438610181565b508251633ee5aeb560e01b8152fd5b8680fd5b8380fd5b838234610314578160031936011261031457905490516001600160a01b039091168152602090f35b5080fd5b50903461013257602036600319011261013257356001600160a01b0381169081900361013257818360ff92602095526003855220541690519015158152f35b83346103b157806003193601126103b15761037061078d565b80546001600160a01b03198116825581906001600160a01b03167f8be0079c531659141344cd1fd0a4f28419497f9722a3daafe3b4186f6b6457e08280a380f35b80fd5b509034610132576020366003190112610132577ffc2eb6007fcc0e3dda55e5fe38e643552791303714618047c907faed6c2aff989160209135906103f661078d565b8160025551908152a180f35b5050346103145760203660031901126103145780356001600160a01b03811691908290036101325761043261078d565b80546001600160a01b031916821790557f09bf35b7806e61e7baf86e6547c4221f69d130ccc0a19215d064685a89464a708280a280f35b8281853461031457602036600319011261031457818080923561048a61078d565b81546001600160a01b03168282156104b1575bf1156104a7575080f35b51903d90823e3d90fd5b506108fc61049d565b50346101325760209160206003193601126102e85780359267ffffffffffffffff9182851161062557366023860112156106255784810135928311610625576024850194602436918560051b01011161062557546001600160a01b0390811633148015610619575b61052b9061066d565b855b838110610538578680f35b808261054f61054a600194888b6106aa565b6106d0565b16885287878585896003808452868b60ff8489205416158061060d575b61057f575b50505050505050500161052d565b866105f59461054a94876105b861054a87877f25b5ceb41a95556203ee76d73889d894ac2e2719bd7ec73d82c99f9c1073e4a19e6106aa565b168b5288528920805460ff19168c1790556105f0866105db61054a8686866106aa565b169980808060029d8e54905af16101f76106e9565b6106aa565b9354938a519485521692a2878785858938868b610571565b5047600254111561056c565b50855481163314610522565b8580fd5b5090346101325782600319360112610132575490516001600160a01b03909116815260209150f35b8490346103145781600319360112610314576020906002548152f35b1561067457565b60405162461bcd60e51b815260206004820152600e60248201526d139bdd08185d5d1a1bdc9a5e995960921b6044820152606490fd5b91908110156106ba5760051b0190565b634e487b7160e01b600052603260045260246000fd5b356001600160a01b03811681036106e45790565b600080fd5b3d156107455767ffffffffffffffff903d82811161072f5760405192601f8201601f19908116603f011684019081118482101761072f5760405282523d6000602084013e565b634e487b7160e01b600052604160045260246000fd5b606090565b1561075157565b60405162461bcd60e51b81526020600482015260146024820152732330b4b632b2103a379039b2b7321022ba3432b960611b6044820152606490fd5b6000546001600160a01b031633036107a157565b60405163118cdaa760e01b8152336004820152602490fdfea164736f6c6343000818000a",
  "linkReferences": {},
  "deployedLinkReferences": {}
}