{
  "_format": "hh3-artifact-1",
  "contractName": "GovernanceMirror",
  "sourceName": "isolated_contracts/GovernanceMirror.sol",
  "abi": [
    {
      "inputs": [
        {
          "internalType": "address",
          "name": "_layerZeroEndpoint",
          "type": "address"
        },
        {
          "internalType": "address",
          "name": "_governanceContract",
          "type": "address"
        },
        {
          "internalType": "address",
          "name": "_threatIntelSyncContract",
          "type": "address"
        },
        {
          "internalType": "uint256",
          "name": "_domesticChainId",
          "type": "uint256"
        },
        {
          "internalType": "uint256",
          "name": "_overseasChainId",
          "type": "uint256"
        }
      ],
      "stateMutability": "nonpayable",
      "type": "constructor"
    },
    {
      "anonymous": false,
      "inputs": [
        {
          "indexed": true,
          "internalType": "uint256",
          "name": "mirrorProposalId",
          "type": "uint256"
        },
        {
          "indexed": true,
          "internalType": "uint256",
          "name": "sourceProposalId",
          "type": "uint256"
        },
        {
          "indexed": true,
          "internalType": "uint256",
          "name": "sourceChainId",
          "type": "uint256"
        }
      ],
      "name": "CrossChainProposalReceived",
      "type": "event"
    },
    {
      "anonymous": false,
      "inputs": [
        {
          "indexed": true,
          "internalType": "uint256",
          "name": "proposalId",
          "type": "uint256"
        },
        {
          "indexed": true,
          "internalType": "address",
          "name": "voter",
          "type": "address"
        },
        {
          "indexed": false,
          "internalType": "uint8",
          "name": "support",
          "type": "uint8"
        }
      ],
      "name": "CrossChainVoteReceived",
      "type": "event"
    },
    {
      "anonymous": false,
      "inputs": [
        {
          "indexed": false,
          "internalType": "address",
          "name": "oldGovernance",
          "type": "address"
        },
        {
          "indexed": false,
          "internalType": "address",
          "name": "newGovernance",
          "type": "address"
        }
      ],
      "name": "GovernanceUpdated",
      "type": "event"
    },
    {
      "anonymous": false,
      "inputs": [
        {
          "indexed": true,
          "internalType": "uint256",
          "name": "id",
          "type": "uint256"
        },
        {
          "indexed": true,
          "internalType": "address",
          "name": "proposer",
          "type": "address"
        },
        {
          "indexed": true,
          "internalType": "uint256",
          "name": "sourceChainId",
          "type": "uint256"
        },
        {
          "indexed": false,
          "internalType": "string",
          "name": "sourceProposalId",
          "type": "string"
        }
      ],
      "name": "ProposalCreated",
      "type": "event"
    },
    {
      "anonymous": false,
      "inputs": [
        {
          "indexed": true,
          "internalType": "uint256",
          "name": "id",
          "type": "uint256"
        }
      ],
      "name": "ProposalExecuted",
      "type": "event"
    },
    {
      "anonymous": false,
      "inputs": [
        {
          "indexed": true,
          "internalType": "uint256",
          "name": "proposalId",
          "type": "uint256"
        },
        {
          "indexed": true,
          "internalType": "address",
          "name": "voter",
          "type": "address"
        },
        {
          "indexed": false,
          "internalType": "uint8",
          "name": "support",
          "type": "uint8"
        },
        {
          "indexed": false,
          "internalType": "uint256",
          "name": "votes",
          "type": "uint256"
        }
      ],
      "name": "VoteCast",
      "type": "event"
    },
    {
      "inputs": [
        {
          "internalType": "uint16",
          "name": "_targetChainId",
          "type": "uint16"
        },
        {
          "internalType": "string",
          "name": "_sourceProposalId",
          "type": "string"
        },
        {
          "internalType": "uint8",
          "name": "_support",
          "type": "uint8"
        },
        {
          "internalType": "string",
          "name": "_reason",
          "type": "string"
        }
      ],
      "name": "castCrossChainVote",
      "outputs": [],
      "stateMutability": "payable",
      "type": "function"
    },
    {
      "inputs": [
        {
          "internalType": "uint16",
          "name": "_targetChainId",
          "type": "uint16"
        },
        {
          "internalType": "string",
          "name": "_description",
          "type": "string"
        },
        {
          "internalType": "enum GovernanceMirror.ProposalType",
          "name": "_proposalType",
          "type": "uint8"
        },
        {
          "internalType": "address[]",
          "name": "_targets",
          "type": "address[]"
        },
        {
          "internalType": "uint256[]",
          "name": "_values",
          "type": "uint256[]"
        },
        {
          "internalType": "bytes[]",
          "name": "_calldatas",
          "type": "bytes[]"
        }
      ],
      "name": "createCrossChainProposal",
      "outputs": [
        {
          "internalType": "uint256",
          "name": "proposalId",
          "type": "uint256"
        }
      ],
      "stateMutability": "payable",
      "type": "function"
    },
    {
      "inputs": [],
      "name": "domesticChainId",
      "outputs": [
        {
          "internalType": "uint256",
          "name": "",
          "type": "uint256"
        }
      ],
      "stateMutability": "view",
      "type": "function"
    },
    {
      "inputs": [
        {
          "internalType": "uint256",
          "name": "proposalId",
          "type": "uint256"
        }
      ],
      "name": "getProposal",
      "outputs": [
        {
          "components": [
            {
              "internalType": "uint256",
              "name": "id",
              "type": "uint256"
            },
            {
              "internalType": "address",
              "name": "proposer",
              "type": "address"
            },
            {
              "internalType": "uint256",
              "name": "startTime",
              "type": "uint256"
            },
            {
              "internalType": "uint256",
              "name": "endTime",
              "type": "uint256"
            },
            {
              "internalType": "uint256",
              "name": "votesFor",
              "type": "uint256"
            },
            {
              "internalType": "uint256",
              "name": "votesAgainst",
              "type": "uint256"
            },
            {
              "internalType": "uint256",
              "name": "votesAbstain",
              "type": "uint256"
            },
            {
              "internalType": "uint256",
              "name": "requiredQuorum",
              "type": "uint256"
            },
            {
              "internalType": "string",
              "name": "description",
              "type": "string"
            },
            {
              "internalType": "enum GovernanceMirror.ProposalType",
              "name": "proposalType",
              "type": "uint8"
            },
            {
              "internalType": "enum GovernanceMirror.ProposalState",
              "name": "state",
              "type": "uint8"
            },
            {
              "internalType": "address[]",
              "name": "targets",
              "type": "address[]"
            },
            {
              "internalType": "uint256[]",
              "name": "values",
              "type": "uint256[]"
            },
            {
              "internalType": "bytes[]",
              "name": "calldatas",
              "type": "bytes[]"
            },
            {
              "internalType": "uint256",
              "name": "sourceChainId",
              "type": "uint256"
            },
            {
              "internalType": "string",
              "name": "sourceProposalId",
              "type": "string"
            }
          ],
          "internalType": "struct GovernanceMirror.Proposal",
          "name": "",
          "type": "tuple"
        }
      ],
      "stateMutability": "view",
      "type": "function"
    },
    {
      "inputs": [
        {
          "internalType": "uint256",
          "name": "proposalId",
          "type": "uint256"
        },
        {
          "internalType": "address",
          "name": "voter",
          "type": "address"
        }
      ],
      "name": "getVote",
      "outputs": [
        {
          "components": [
            {
              "internalType": "bool",
              "name": "hasVoted",
              "type": "bool"
            },
            {
              "internalType": "uint8",
              "name": "support",
              "type": "uint8"
            },
            {
              "internalType": "uint256",
              "name": "votes",
              "type": "uint256"
            }
          ],
          "internalType": "struct GovernanceMirror.Vote",
          "name": "",
          "type": "tuple"
        }
      ],
      "stateMutability": "view",
      "type": "function"
    },
    {
      "inputs": [],
      "name": "governanceContract",
      "outputs": [
        {
          "internalType": "address",
          "name": "",
          "type": "address"
        }
      ],
      "stateMutability": "view",
      "type": "function"
    },
    {
      "inputs": [],
      "name": "lzEndpoint",
      "outputs": [
        {
          "internalType": "contract ILayerZeroEndpoint",
          "name": "",
          "type": "address"
        }
      ],
      "stateMutability": "view",
      "type": "function"
    },
    {
      "inputs": [
        {
          "internalType": "uint16",
          "name": "_srcChainId",
          "type": "uint16"
        },
        {
          "internalType": "bytes",
          "name": "_srcAddress",
          "type": "bytes"
        },
        {
          "internalType": "uint64",
          "name": "_nonce",
          "type": "uint64"
        },
        {
          "internalType": "bytes",
          "name": "_payload",
          "type": "bytes"
        }
      ],
      "name": "lzReceive",
      "outputs": [],
      "stateMutability": "nonpayable",
      "type": "function"
    },
    {
      "inputs": [],
      "name": "overseasChainId",
      "outputs": [
        {
          "internalType": "uint256",
          "name": "",
          "type": "uint256"
        }
      ],
      "stateMutability": "view",
      "type": "function"
    },
    {
      "inputs": [],
      "name": "pause",
      "outputs": [],
      "stateMutability": "nonpayable",
      "type": "function"
    },
    {
      "inputs": [
        {
          "internalType": "bytes32",
          "name": "",
          "type": "bytes32"
        }
      ],
      "name": "processedMessages",
      "outputs": [
        {
          "internalType": "bool",
          "name": "",
          "type": "bool"
        }
      ],
      "stateMutability": "view",
      "type": "function"
    },
    {
      "inputs": [],
      "name": "proposalCount",
      "outputs": [
        {
          "internalType": "uint256",
          "name": "",
          "type": "uint256"
        }
      ],
      "stateMutability": "view",
      "type": "function"
    },
    {
      "inputs": [
        {
          "internalType": "uint256",
          "name": "",
          "type": "uint256"
        }
      ],
      "name": "proposalMirrorCount",
      "outputs": [
        {
          "internalType": "uint256",
          "name": "",
          "type": "uint256"
        }
      ],
      "stateMutability": "view",
      "type": "function"
    },
    {
      "inputs": [
        {
          "internalType": "uint256",
          "name": "",
          "type": "uint256"
        }
      ],
      "name": "proposals",
      "outputs": [
        {
          "internalType": "uint256",
          "name": "id",
          "type": "uint256"
        },
        {
          "internalType": "address",
          "name": "proposer",
          "type": "address"
        },
        {
          "internalType": "uint256",
          "name": "startTime",
          "type": "uint256"
        },
        {
          "internalType": "uint256",
          "name": "endTime",
          "type": "uint256"
        },
        {
          "internalType": "uint256",
          "name": "votesFor",
          "type": "uint256"
        },
        {
          "internalType": "uint256",
          "name": "votesAgainst",
          "type": "uint256"
        },
        {
          "internalType": "uint256",
          "name": "votesAbstain",
          "type": "uint256"
        },
        {
          "internalType": "uint256",
          "name": "requiredQuorum",
          "type": "uint256"
        },
        {
          "internalType": "string",
          "name": "description",
          "type": "string"
        },
        {
          "internalType": "enum GovernanceMirror.ProposalType",
          "name": "proposalType",
          "type": "uint8"
        },
        {
          "internalType": "enum GovernanceMirror.ProposalState",
          "name": "state",
          "type": "uint8"
        },
        {
          "internalType": "uint256",
          "name": "sourceChainId",
          "type": "uint256"
        },
        {
          "internalType": "string",
          "name": "sourceProposalId",
          "type": "string"
        }
      ],
      "stateMutability": "view",
      "type": "function"
    },
    {
      "inputs": [],
      "name": "quorumPercentage",
      "outputs": [
        {
          "internalType": "uint256",
          "name": "",
          "type": "uint256"
        }
      ],
      "stateMutability": "view",
      "type": "function"
    },
    {
      "inputs": [
        {
          "internalType": "string",
          "name": "",
          "type": "string"
        }
      ],
      "name": "sourceProposalToMirror",
      "outputs": [
        {
          "internalType": "uint256",
          "name": "",
          "type": "uint256"
        }
      ],
      "stateMutability": "view",
      "type": "function"
    },
    {
      "inputs": [
        {
          "internalType": "uint256",
          "name": "proposalId",
          "type": "uint256"
        }
      ],
      "name": "state",
      "outputs": [
        {
          "internalType": "enum GovernanceMirror.ProposalState",
          "name": "",
          "type": "uint8"
        }
      ],
      "stateMutability": "view",
      "type": "function"
    },
    {
      "inputs": [],
      "name": "threatIntelSyncContract",
      "outputs": [
        {
          "internalType": "address",
          "name": "",
          "type": "address"
        }
      ],
      "stateMutability": "view",
      "type": "function"
    },
    {
      "inputs": [],
      "name": "unpause",
      "outputs": [],
      "stateMutability": "nonpayable",
      "type": "function"
    },
    {
      "inputs": [
        {
          "internalType": "address",
          "name": "_newGovernance",
          "type": "address"
        }
      ],
      "name": "updateGovernance",
      "outputs": [],
      "stateMutability": "nonpayable",
      "type": "function"
    },
    {
      "inputs": [
        {
          "internalType": "uint256",
          "name": "_newQuorum",
          "type": "uint256"
        }
      ],
      "name": "updateQuorumPercentage",
      "outputs": [],
      "stateMutability": "nonpayable",
      "type": "function"
    },
    {
      "inputs": [
        {
          "internalType": "address",
          "name": "_newContract",
          "type": "address"
        }
      ],
      "name": "updateThreatIntelSyncContract",
      "outputs": [],
      "stateMutability": "nonpayable",
      "type": "function"
    },
    {
      "inputs": [
        {
          "internalType": "uint256",
          "name": "",
          "type": "uint256"
        },
        {
          "internalType": "address",
          "name": "",
          "type": "address"
        }
      ],
      "name": "votes",
      "outputs": [
        {
          "internalType": "bool",
          "name": "hasVoted",
          "type": "bool"
        },
        {
          "internalType": "uint8",
          "name": "support",
          "type": "uint8"
        },
        {
          "internalType": "uint256",
          "name": "votes",
          "type": "uint256"
        }
      ],
      "stateMutability": "view",
      "type": "function"
    },
    {
      "inputs": [],
      "name": "votingPeriod",
      "outputs": [
        {
          "internalType": "uint256",
          "name": "",
          "type": "uint256"
        }
      ],
      "stateMutability": "view",
      "type": "function"
    }
  ],
  "bytecode": "0x60806040523480156200001157600080fd5b50604051620036f1380380620036f18339810160408190526200003491620000ac565b600080546001600160a01b03199081166001600160a01b039788161790915560078054821695871695909517909455600880549094169290941691909117909155600955600a55620186a0600b5562093a80600c5562000109565b80516001600160a01b0381168114620000a757600080fd5b919050565b600080600080600060a08688031215620000c557600080fd5b620000d0866200008f565b9450620000e0602087016200008f565b9350620000f0604087016200008f565b6060870151608090970151959894975095949392505050565b6135d880620001196000396000f3fe60806040526004361061014a5760003560e01c80638456cb59116100b6578063c7f758a81161006f578063c7f758a8146103ef578063c859630d1461041c578063d23254b41461043c578063da35c664146104a7578063f0f9e6b7146104bd578063f4d0ea3c146104dd57600080fd5b80638456cb59146102b257806388ba16ab146102f0578063b172b22214610330578063b256126314610368578063b353aaa714610388578063bc3f931f146103a857600080fd5b806336874b8c1161010857806336874b8c146102425780633864ddf5146102585780633e4f49e6146102855780633f4ba83a146102b25780634fa76ec9146102c75780635573a039146102dd57600080fd5b80621d35671461014f578063013cf08b1461017157806302a251a3146101b35780631766a00e146101d757806320737f1f1461020f578063288f2f581461022f575b600080fd5b34801561015b57600080fd5b5061016f61016a3660046122fe565b6104f3565b005b34801561017d57600080fd5b5061019161018c366004612397565b610653565b6040516101aa9d9c9b9a9998979695949392919061243a565b60405180910390f35b3480156101bf57600080fd5b506101c9600c5481565b6040519081526020016101aa565b3480156101e357600080fd5b506101c96101f23660046125f1565b805160208183018101805160048252928201919093012091525481565b34801561021b57600080fd5b5061016f61022a36600461263a565b6107dc565b61016f61023d366004612666565b610828565b34801561024e57600080fd5b506101c9600a5481565b34801561026457600080fd5b506101c9610273366004612397565b60056020526000908152604090205481565b34801561029157600080fd5b506102a56102a0366004612397565b610b67565b6040516101aa91906126ee565b3480156102be57600080fd5b5061016f610c2a565b3480156102d357600080fd5b506101c9600b5481565b6101c96102eb366004612895565b610c56565b3480156102fc57600080fd5b5061032061030b366004612397565b60036020526000908152604090205460ff1681565b60405190151581526020016101aa565b34801561033c57600080fd5b50600754610350906001600160a01b031681565b6040516001600160a01b0390911681526020016101aa565b34801561037457600080fd5b5061016f61038336600461263a565b6111fe565b34801561039457600080fd5b50600054610350906001600160a01b031681565b3480156103b457600080fd5b506103c86103c3366004612961565b611289565b6040805182511515815260208084015160ff169082015291810151908201526060016101aa565b3480156103fb57600080fd5b5061040f61040a366004612397565b6112f6565b6040516101aa9190612a5d565b34801561042857600080fd5b50600854610350906001600160a01b031681565b34801561044857600080fd5b50610488610457366004612961565b60026020908152600092835260408084209091529082529020805460019091015460ff808316926101009004169083565b60408051931515845260ff9092166020840152908201526060016101aa565b3480156104b357600080fd5b506101c960065481565b3480156104c957600080fd5b5061016f6104d8366004612397565b6116ac565b3480156104e957600080fd5b506101c960095481565b6000546001600160a01b031633146105525760405162461bcd60e51b815260206004820152601760248201527f4c7a4170703a20696e76616c696420656e64706f696e7400000000000000000060448201526064015b60405180910390fd5b60008282600081811061056757610567612b9f565b919091013560f81c91505060018190036105c0576105bb8784848080601f0160208091040260200160405190810160405280939291908181526020018383808284376000920191909152506116db92505050565b61064a565b8060ff1660020361060b576105bb8784848080601f016020809104026020016040519081016040528093929190818152602001838380828437600092019190915250611aa392505050565b60405162461bcd60e51b8152602060048201526014602482015273496e76616c6964206d657373616765207479706560601b6044820152606401610549565b50505050505050565b60016020819052600091825260409091208054918101546002820154600383015460048401546005850154600686015460078701546008880180546001600160a01b0390981698969795969495939492939192916106b090612bb5565b80601f01602080910402602001604051908101604052809291908181526020018280546106dc90612bb5565b80156107295780601f106106fe57610100808354040283529160200191610729565b820191906000526020600020905b81548152906001019060200180831161070c57829003601f168201915b505050506009830154600d840154600e85018054949560ff80851696610100909504169450919261075990612bb5565b80601f016020809104026020016040519081016040528092919081815260200182805461078590612bb5565b80156107d25780601f106107a7576101008083540402835291602001916107d2565b820191906000526020600020905b8154815290600101906020018083116107b557829003601f168201915b505050505090508d565b6007546001600160a01b031633146108065760405162461bcd60e51b815260040161054990612be9565b600880546001600160a01b0319166001600160a01b0392909216919091179055565b6009548461ffff1614806108415750600a548461ffff16145b6108845760405162461bcd60e51b815260206004820152601460248201527324b73b30b634b2103a30b933b2ba1031b430b4b760611b6044820152606401610549565b60028260ff1611156108d85760405162461bcd60e51b815260206004820152601a60248201527f496e76616c696420766f746520737570706f72742076616c75650000000000006044820152606401610549565b60006040518060e0016040528060008152602001336001600160a01b031681526020018460ff16815260200183815260200146815260200185815260200142815250905060008160405160200161092f9190612c2f565b60405160208183030381529060405290506000815160016109509190612cc9565b6001600160401b03811115610967576109676124d4565b6040519080825280601f01601f191660200182016040528015610991576020820181803683370190505b509050600260f81b816000815181106109ac576109ac612b9f565b60200101906001600160f81b031916908160001a90535060005b8251811015610a35578281815181106109e1576109e1612b9f565b01602001516001600160f81b031916826109fc836001612cc9565b81518110610a0c57610a0c612b9f565b60200101906001600160f81b031916908160001a90535080610a2d81612cdc565b9150506109c6565b506000805460408051602081018252838152905163040a7bb160e41b81526001600160a01b03909216916340a7bb1091610a79918c91309188918891600401612cf5565b6040805180830381865afa158015610a95573d6000803e3d6000fd5b505050506040513d601f19601f82011682018060405250810190610ab99190612d49565b50905080341015610aff5760405162461bcd60e51b815260206004820152601060248201526f496e73756666696369656e742066656560801b6044820152606401610549565b610b1c888333306040518060200160405280600081525086611eaf565b6040805160ff881681526064602082015233916000917fb83d25c6a5d258561330739951487acb4bd09ba5190b5d32c4f261817d906792910160405180910390a35050505050505050565b600081600081118015610b7c57506006548111155b610bbe5760405162461bcd60e51b8152602060048201526013602482015272125b9d985b1a59081c1c9bdc1bdcd85b081251606a1b6044820152606401610549565b60008381526001602052604090206003810154421015610be2576001925050610c24565b80600501548160040154111580610c0f5750806007015481600501548260040154610c0d9190612cc9565b105b15610c1e576003925050610c24565b60049250505b50919050565b6007546001600160a01b03163314610c545760405162461bcd60e51b815260040161054990612be9565b565b60006009548761ffff161480610c715750600a548761ffff16145b610cb45760405162461bcd60e51b815260206004820152601460248201527324b73b30b634b2103a30b933b2ba1031b430b4b760611b6044820152606401610549565b600660008154610cc390612cdc565b9182905550600c549091504290600090610cdd9083612cc9565b9050604051806102000160405280848152602001336001600160a01b03168152602001838152602001828152602001600081526020016000815260200160008152602001600b548152602001898152602001886004811115610d4157610d41612400565b815260200160008152602001878152602001868152602001858152602001468152602001610d6e85611f9f565b604051602001610d7e9190612d6d565b60408051808303601f19018152918152915260008581526001602081815291839020845181559184015190820180546001600160a01b0319166001600160a01b03909216919091179055908201516002820155606082015160038201556080820151600482015560a0820151600582015560c0820151600682015560e082015160078201556101008201516008820190610e189082612de4565b5061012082015160098201805460ff19166001836004811115610e3d57610e3d612400565b021790555061014082015160098201805461ff001916610100836006811115610e6857610e68612400565b02179055506101608201518051610e8991600a8401916020909101906120a7565b506101808201518051610ea691600b84019160209091019061210c565b506101a08201518051610ec391600c840191602090910190612147565b506101c0820151600d8201556101e0820151600e820190610ee49082612de4565b509050506000604051806101800160405280858152602001336001600160a01b031681526020018481526020018381526020018a8152602001896004811115610f2f57610f2f612400565b8152602001888152602001878152602001868152602001468152602001610f5586611f9f565b604051602001610f659190612d6d565b6040516020818303038152906040528152602001428152509050600081604051602001610f929190612ea3565b6040516020818303038152906040529050600081516001610fb39190612cc9565b6001600160401b03811115610fca57610fca6124d4565b6040519080825280601f01601f191660200182016040528015610ff4576020820181803683370190505b509050600160f81b8160008151811061100f5761100f612b9f565b60200101906001600160f81b031916908160001a90535060005b82518110156110985782818151811061104457611044612b9f565b01602001516001600160f81b0319168261105f836001612cc9565b8151811061106f5761106f612b9f565b60200101906001600160f81b031916908160001a9053508061109081612cdc565b915050611029565b5060008060009054906101000a90046001600160a01b03166001600160a01b03166340a7bb108e30856000604051806020016040528060008152506040518663ffffffff1660e01b81526004016110f3959493929190612cf5565b6040805180830381865afa15801561110f573d6000803e3d6000fd5b505050506040513d601f19601f820116820180604052508101906111339190612d49565b509050803410156111795760405162461bcd60e51b815260206004820152601060248201526f496e73756666696369656e742066656560801b6044820152606401610549565b6111968d8333306040518060200160405280600081525086611eaf565b46336001600160a01b0316887f85b1e5bd1e58840265c40582ff09f8cbfab823e041a824467b654a99b5156d39600160008c8152602001908152602001600020600e016040516111e69190612fac565b60405180910390a45050505050509695505050505050565b6007546001600160a01b031633146112285760405162461bcd60e51b815260040161054990612be9565b600780546001600160a01b038381166001600160a01b031983168117909355604080519190921680825260208201939093527f434a2db650703b36c824e745330d6397cdaa9ee2cc891a4938ae853e1c50b68d910160405180910390a15050565b604080516060808201835260008083526020808401829052928401819052858152600283528381206001600160a01b0386168252835283902083519182018452805460ff808216151584526101009091041692820192909252600190910154918101919091525b92915050565b6112fe612199565b60008281526001602081815260409283902083516102008101855281548152928101546001600160a01b0316918301919091526002810154928201929092526003820154606082015260048201546080820152600582015460a0820152600682015460c0820152600782015460e08201526008820180549192916101008401919061138890612bb5565b80601f01602080910402602001604051908101604052809291908181526020018280546113b490612bb5565b80156114015780601f106113d657610100808354040283529160200191611401565b820191906000526020600020905b8154815290600101906020018083116113e457829003601f168201915b5050509183525050600982015460209091019060ff16600481111561142857611428612400565b600481111561143957611439612400565b81526020016009820160019054906101000a900460ff16600681111561146157611461612400565b600681111561147257611472612400565b8152602001600a82018054806020026020016040519081016040528092919081815260200182805480156114cf57602002820191906000526020600020905b81546001600160a01b031681526001909101906020018083116114b1575b50505050508152602001600b820180548060200260200160405190810160405280929190818152602001828054801561152757602002820191906000526020600020905b815481526020019060010190808311611513575b50505050508152602001600c8201805480602002602001604051908101604052809291908181526020016000905b8282101561160157838290600052602060002001805461157490612bb5565b80601f01602080910402602001604051908101604052809291908181526020018280546115a090612bb5565b80156115ed5780601f106115c2576101008083540402835291602001916115ed565b820191906000526020600020905b8154815290600101906020018083116115d057829003601f168201915b505050505081526020019060010190611555565b505050508152602001600d8201548152602001600e8201805461162390612bb5565b80601f016020809104026020016040519081016040528092919081815260200182805461164f90612bb5565b801561169c5780601f106116715761010080835404028352916020019161169c565b820191906000526020600020905b81548152906001019060200180831161167f57829003601f168201915b5050505050815250509050919050565b6007546001600160a01b031633146116d65760405162461bcd60e51b815260040161054990612be9565b600b55565b6000600182516116eb9190613037565b6001600160401b03811115611702576117026124d4565b6040519080825280601f01601f19166020018201604052801561172c576020820181803683370190505b50905060005b815181101561179d5782611747826001612cc9565b8151811061175757611757612b9f565b602001015160f81c60f81b82828151811061177457611774612b9f565b60200101906001600160f81b031916908160001a9053508061179581612cdc565b915050611732565b506000818060200190518101906117b49190613203565b90506000848261014001518361016001516040516020016117d79392919061335f565b60408051601f1981840301815291815281516020928301206000818152600390935291205490915060ff161561184b5760405162461bcd60e51b815260206004820152601960248201527813595cdcd859d948185b1c9958591e481c1c9bd8d95cdcd959603a1b6044820152606401610549565b6000908152600360205260408120805460ff1916600117905561014082015161187761ffff8716611f9f565b604051602001611888929190613396565b60405160208183030381529060405290506004816040516118a991906133d2565b908152602001604051809103902054600003611a9c5760006006600081546118d090612cdc565b918290555060008181526001602081815260408084208581558883015193810180546001600160a01b0319166001600160a01b03909516949094179093558781015160028401556060880151600384015560048301849055600583018490556006830184905560078301939093556080870151925193945090926119559291016133ee565b6040516020818303038152906040528160080190816119749190612de4565b5060a084015160098201805460ff1916600183600481111561199857611998612400565b021790555060098101805461ff001916905560c084015180516119c591600a8401916020909101906120a7565b5060e084015180516119e191600b84019160209091019061210c565b5061010084015180516119fe91600c840191602090910190612147565b5061ffff8716600d820155610140840151600e820190611a1e9082612de4565b5081600484604051611a3091906133d2565b908152604080516020928190038301902092909255855160009081526005909152908120805491611a6083612cdc565b9091555050835160405161ffff8916919084907ff65135ae5722d730514bed08180cf4945deb1a09ac82cd182d4a21ede78e097990600090a450505b5050505050565b600060018251611ab39190613037565b6001600160401b03811115611aca57611aca6124d4565b6040519080825280601f01601f191660200182016040528015611af4576020820181803683370190505b50905060005b8151811015611b655782611b0f826001612cc9565b81518110611b1f57611b1f612b9f565b602001015160f81c60f81b828281518110611b3c57611b3c612b9f565b60200101906001600160f81b031916908160001a90535080611b5d81612cdc565b915050611afa565b50600081806020019051810190611b7c919061342a565b9050600084826000015183602001518460c00151604051602001611bda949392919060f09490941b6001600160f01b0319168452600284019290925260601b6bffffffffffffffffffffffff19166022830152603682015260560190565b60408051601f1981840301815291815281516020928301206000818152600390935291205490915060ff1615611c4e5760405162461bcd60e51b815260206004820152601960248201527813595cdcd859d948185b1c9958591e481c1c9bd8d95cdcd959603a1b6044820152606401610549565b6000908152600360205260408120805460ff1916600117905560a0820151611c7961ffff8716611f9f565b604051602001611c8a929190613396565b60405160208183030381529060405290506000600482604051611cad91906133d2565b908152602001604051809103902054905060008111611d0e5760405162461bcd60e51b815260206004820152601960248201527f4d6972726f722070726f706f73616c206e6f7420666f756e64000000000000006044820152606401610549565b6000818152600260209081526040808320868301516001600160a01b0316845290915290205460ff16611ea757600081815260026020818152604080842087830180516001600160a01b0390811687528285528387208054600160ff1990911681179091558a850180518a8a52888852845184168a52858852868a20805461ff00191661010060ff938416021790558a8a529787529251909116875291909352932060649084015551169003611deb576000818152600160205260408120600401805460649290611de0908490612cc9565b90915550611e539050565b826040015160ff16600003611e1c576000818152600160205260408120600501805460649290611de0908490612cc9565b826040015160ff16600203611e53576000818152600160205260408120600601805460649290611e4d908490612cc9565b90915550505b82602001516001600160a01b0316817f0fbb5288adf2ae9ab642e3ceae559536f1cca92b5b88f3f3eef60be52a6609a88560400151604051611e9e919060ff91909116815260200190565b60405180910390a35b505050505050565b6000825111611f005760405162461bcd60e51b815260206004820152601860248201527f4c7a4170703a206e6f206164617074657220706172616d7300000000000000006044820152606401610549565b600054604080513060601b6bffffffffffffffffffffffff1916602082015281516014818303018152603482019283905262c5803160e81b9092526001600160a01b039092169163c5803100918491611f65918b918b908b908b908b906038016134fd565b6000604051808303818588803b158015611f7e57600080fd5b505af1158015611f92573d6000803e3d6000fd5b5050505050505050505050565b606081600003611fc65750506040805180820190915260018152600360fc1b602082015290565b8160005b8115611ff05780611fda81612cdc565b9150611fe99050600a8361357a565b9150611fca565b6000816001600160401b0381111561200a5761200a6124d4565b6040519080825280601f01601f191660200182016040528015612034576020820181803683370190505b5090505b841561209f57612049600183613037565b9150612056600a8661358e565b612061906030612cc9565b60f81b81838151811061207657612076612b9f565b60200101906001600160f81b031916908160001a905350612098600a8661357a565b9450612038565b949350505050565b8280548282559060005260206000209081019282156120fc579160200282015b828111156120fc57825182546001600160a01b0319166001600160a01b039091161782556020909201916001909101906120c7565b50612108929150612230565b5090565b8280548282559060005260206000209081019282156120fc579160200282015b828111156120fc57825182559160200191906001019061212c565b82805482825590600052602060002090810192821561218d579160200282015b8281111561218d578251829061217d9082612de4565b5091602001919060010190612167565b50612108929150612245565b6040518061020001604052806000815260200160006001600160a01b03168152602001600081526020016000815260200160008152602001600081526020016000815260200160008152602001606081526020016000600481111561220057612200612400565b81526020016000815260200160608152602001606081526020016060815260200160008152602001606081525090565b5b808211156121085760008155600101612231565b808211156121085760006122598282612262565b50600101612245565b50805461226e90612bb5565b6000825580601f1061227e575050565b601f01602090049060005260206000209081019061229c9190612230565b50565b803561ffff811681146122b157600080fd5b919050565b60008083601f8401126122c857600080fd5b5081356001600160401b038111156122df57600080fd5b6020830191508360208285010111156122f757600080fd5b9250929050565b6000806000806000806080878903121561231757600080fd5b6123208761229f565b955060208701356001600160401b038082111561233c57600080fd5b6123488a838b016122b6565b909750955060408901359150808216821461236257600080fd5b9093506060880135908082111561237857600080fd5b5061238589828a016122b6565b979a9699509497509295939492505050565b6000602082840312156123a957600080fd5b5035919050565b60005b838110156123cb5781810151838201526020016123b3565b50506000910152565b600081518084526123ec8160208601602086016123b0565b601f01601f19169290920160200192915050565b634e487b7160e01b600052602160045260246000fd5b6005811061242657612426612400565b9052565b6007811061242657612426612400565b60006101a08f835260018060a01b038f1660208401528d60408401528c60608401528b60808401528a60a08401528960c08401528860e084015280610100840152612487818401896123d4565b9050612497610120840188612416565b6124a561014084018761242a565b846101608401528281036101808401526124bf81856123d4565b9150509e9d5050505050505050505050505050565b634e487b7160e01b600052604160045260246000fd5b60405161018081016001600160401b038111828210171561250d5761250d6124d4565b60405290565b60405160e081016001600160401b038111828210171561250d5761250d6124d4565b604051601f8201601f191681016001600160401b038111828210171561255d5761255d6124d4565b604052919050565b60006001600160401b0382111561257e5761257e6124d4565b50601f01601f191660200190565b600061259f61259a84612565565b612535565b90508281528383830111156125b357600080fd5b828260208301376000602084830101529392505050565b600082601f8301126125db57600080fd5b6125ea8383356020850161258c565b9392505050565b60006020828403121561260357600080fd5b81356001600160401b0381111561261957600080fd5b61209f848285016125ca565b6001600160a01b038116811461229c57600080fd5b60006020828403121561264c57600080fd5b81356125ea81612625565b60ff8116811461229c57600080fd5b6000806000806080858703121561267c57600080fd5b6126858561229f565b935060208501356001600160401b03808211156126a157600080fd5b6126ad888389016125ca565b9450604087013591506126bf82612657565b909250606086013590808211156126d557600080fd5b506126e2878288016125ca565b91505092959194509250565b602081016112f0828461242a565b6005811061229c57600080fd5b80356122b1816126fc565b60006001600160401b0382111561272d5761272d6124d4565b5060051b60200190565b600082601f83011261274857600080fd5b8135602061275861259a83612714565b82815260059290921b8401810191818101908684111561277757600080fd5b8286015b8481101561279b57803561278e81612625565b835291830191830161277b565b509695505050505050565b600082601f8301126127b757600080fd5b813560206127c761259a83612714565b82815260059290921b840181019181810190868411156127e657600080fd5b8286015b8481101561279b57803583529183019183016127ea565b600082601f83011261281257600080fd5b8135602061282261259a83612714565b82815260059290921b8401810191818101908684111561284157600080fd5b8286015b8481101561279b5780356001600160401b038111156128645760008081fd5b8701603f810189136128765760008081fd5b61288789868301356040840161258c565b845250918301918301612845565b60008060008060008060c087890312156128ae57600080fd5b6128b78761229f565b955060208701356001600160401b03808211156128d357600080fd5b6128df8a838b016125ca565b96506128ed60408a01612709565b9550606089013591508082111561290357600080fd5b61290f8a838b01612737565b9450608089013591508082111561292557600080fd5b6129318a838b016127a6565b935060a089013591508082111561294757600080fd5b5061295489828a01612801565b9150509295509295509295565b6000806040838503121561297457600080fd5b82359150602083013561298681612625565b809150509250929050565b600081518084526020808501945080840160005b838110156129ca5781516001600160a01b0316875295820195908201906001016129a5565b509495945050505050565b600081518084526020808501945080840160005b838110156129ca578151875295820195908201906001016129e9565b600082825180855260208086019550808260051b84010181860160005b84811015612a5057601f19868403018952612a3e8383516123d4565b98840198925090830190600101612a22565b5090979650505050505050565b602081528151602082015260006020830151612a8460408401826001600160a01b03169052565b506040830151606083015260608301516080830152608083015160a083015260a083015160c083015260c083015160e083015260e08301516101008181850152808501519150506102006101208181860152612ae46102208601846123d4565b90860151909250610140612afa86820183612416565b8601519050610160612b0e8682018361242a565b80870151915050601f19610180818786030181880152612b2e8584612991565b9450808801519250506101a0818786030181880152612b4d85846129d5565b9450808801519250506101c0818786030181880152612b6c8584612a05565b908801516101e0888101919091528801518782039092018488015293509050612b9583826123d4565b9695505050505050565b634e487b7160e01b600052603260045260246000fd5b600181811c90821680612bc957607f821691505b602082108103610c2457634e487b7160e01b600052602260045260246000fd5b60208082526026908201527f4f6e6c7920676f7665726e616e63652063616e2063616c6c20746869732066756040820152653731ba34b7b760d11b606082015260800190565b602081528151602082015260018060a01b03602083015116604082015260ff60408301511660608201526000606083015160e06080840152612c756101008401826123d4565b9050608084015160a084015260a0840151601f198483030160c0850152612c9c82826123d4565b91505060c084015160e08401528091505092915050565b634e487b7160e01b600052601160045260246000fd5b808201808211156112f0576112f0612cb3565b600060018201612cee57612cee612cb3565b5060010190565b61ffff861681526001600160a01b038516602082015260a060408201819052600090612d23908301866123d4565b84151560608401528281036080840152612d3d81856123d4565b98975050505050505050565b60008060408385031215612d5c57600080fd5b505080516020909101519092909150565b637372635f60e01b815260008251612d8c8160048501602087016123b0565b9190910160040192915050565b601f821115612ddf57600081815260208120601f850160051c81016020861015612dc05750805b601f850160051c820191505b81811015611ea757828155600101612dcc565b505050565b81516001600160401b03811115612dfd57612dfd6124d4565b612e1181612e0b8454612bb5565b84612d99565b602080601f831160018114612e465760008415612e2e5750858301515b600019600386901b1c1916600185901b178555611ea7565b600085815260208120601f198616915b82811015612e7557888601518255948401946001909101908401612e56565b5085821015612e935787850151600019600388901b60f8161c191681555b5050505050600190811b01905550565b602081528151602082015260006020830151612eca60408401826001600160a01b03169052565b50604083015160608301526060830151608083015260808301516101808060a0850152612efb6101a08501836123d4565b915060a0850151612f0f60c0860182612416565b5060c0850151601f19808685030160e0870152612f2c8483612991565b935060e08701519150610100818786030181880152612f4b85846129d5565b945080880151925050610120818786030181880152612f6a8584612a05565b945080880151925050610140828188015280880151925050610160818786030181880152612f9885846123d4565b970151959092019490945250929392505050565b6000602080835260008454612fc081612bb5565b80848701526040600180841660008114612fe15760018114612ffb57613029565b60ff1985168984015283151560051b890183019550613029565b896000528660002060005b858110156130215781548b8201860152908301908801613006565b8a0184019650505b509398975050505050505050565b818103818111156112f0576112f0612cb3565b80516122b181612625565b600061306361259a84612565565b905082815283838301111561307757600080fd5b6125ea8360208301846123b0565b600082601f83011261309657600080fd5b6125ea83835160208501613055565b80516122b1816126fc565b600082601f8301126130c157600080fd5b815160206130d161259a83612714565b82815260059290921b840181019181810190868411156130f057600080fd5b8286015b8481101561279b57805161310781612625565b83529183019183016130f4565b600082601f83011261312557600080fd5b8151602061313561259a83612714565b82815260059290921b8401810191818101908684111561315457600080fd5b8286015b8481101561279b5780518352918301918301613158565b600082601f83011261318057600080fd5b8151602061319061259a83612714565b82815260059290921b840181019181810190868411156131af57600080fd5b8286015b8481101561279b5780516001600160401b038111156131d25760008081fd5b8701603f810189136131e45760008081fd5b6131f5898683015160408401613055565b8452509183019183016131b3565b60006020828403121561321557600080fd5b81516001600160401b038082111561322c57600080fd5b90830190610180828603121561324157600080fd5b6132496124ea565b825181526132596020840161304a565b6020820152604083015160408201526060830151606082015260808301518281111561328457600080fd5b61329087828601613085565b6080830152506132a260a084016130a5565b60a082015260c0830151828111156132b957600080fd5b6132c5878286016130b0565b60c08301525060e0830151828111156132dd57600080fd5b6132e987828601613114565b60e083015250610100808401518381111561330357600080fd5b61330f8882870161316f565b828401525050610120808401518183015250610140808401518381111561333557600080fd5b61334188828701613085565b91830191909152506101609283015192810192909252509392505050565b61ffff60f01b8460f01b168152600083516133818160028501602088016123b0565b60029201918201929092526022019392505050565b600083516133a88184602088016123b0565b602d60f81b90830190815283516133c68160018401602088016123b0565b01600101949350505050565b600082516133e48184602087016123b0565b9190910192915050565b6802da6a4a92927a92e960bd1b8152600082516134128160098501602087016123b0565b9190910160090192915050565b80516122b181612657565b60006020828403121561343c57600080fd5b81516001600160401b038082111561345357600080fd5b9083019060e0828603121561346757600080fd5b61346f612513565b8251815261347f6020840161304a565b60208201526134906040840161341f565b60408201526060830151828111156134a757600080fd5b6134b387828601613085565b6060830152506080830151608082015260a0830151828111156134d557600080fd5b6134e187828601613085565b60a08301525060c083015160c082015280935050505092915050565b61ffff8716815260c06020820152600061351a60c08301886123d4565b828103604084015261352c81886123d4565b6001600160a01b0387811660608601528616608085015283810360a0850152905061355781856123d4565b9998505050505050505050565b634e487b7160e01b600052601260045260246000fd5b60008261358957613589613564565b500490565b60008261359d5761359d613564565b50069056fea2646970667358221220b58b671d7537213bdee6bda8333255931d623a3c21438232b8122d5419a48c3a64736f6c63430008130033",
  "linkReferences": {},
  "deployedLinkReferences": {},
  "immutableReferences": {},
  "inputSourceName": "project/isolated_contracts/GovernanceMirror.sol",
  "buildInfoId": "solc-0_8_19-22d079e1c32bc46a1bc5b10cbc249f0401cf74f3"
}