{
  "_format": "hh-sol-artifact-1",
  "contractName": "GlobalWhitelist",
  "sourceName": "contracts/GlobalWhitelist.sol",
  "abi": [
    {
      "inputs": [],
      "stateMutability": "nonpayable",
      "type": "constructor"
    },
    {
      "inputs": [
        {
          "internalType": "address",
          "name": "owner",
          "type": "address"
        }
      ],
      "name": "OwnableInvalidOwner",
      "type": "error"
    },
    {
      "inputs": [
        {
          "internalType": "address",
          "name": "account",
          "type": "address"
        }
      ],
      "name": "OwnableUnauthorizedAccount",
      "type": "error"
    },
    {
      "anonymous": false,
      "inputs": [
        {
          "indexed": true,
          "internalType": "address",
          "name": "previousOwner",
          "type": "address"
        },
        {
          "indexed": true,
          "internalType": "address",
          "name": "newOwner",
          "type": "address"
        }
      ],
      "name": "OwnershipTransferred",
      "type": "event"
    },
    {
      "anonymous": false,
      "inputs": [
        {
          "indexed": true,
          "internalType": "string",
          "name": "ip",
          "type": "string"
        }
      ],
      "name": "WhitelistAdded",
      "type": "event"
    },
    {
      "anonymous": false,
      "inputs": [
        {
          "indexed": true,
          "internalType": "string",
          "name": "ip",
          "type": "string"
        }
      ],
      "name": "WhitelistRemoved",
      "type": "event"
    },
    {
      "inputs": [
        {
          "internalType": "string",
          "name": "ip",
          "type": "string"
        }
      ],
      "name": "addToWhitelist",
      "outputs": [],
      "stateMutability": "nonpayable",
      "type": "function"
    },
    {
      "inputs": [
        {
          "internalType": "string[]",
          "name": "ips",
          "type": "string[]"
        }
      ],
      "name": "batchAddToWhitelist",
      "outputs": [],
      "stateMutability": "nonpayable",
      "type": "function"
    },
    {
      "inputs": [
        {
          "internalType": "string",
          "name": "ip",
          "type": "string"
        }
      ],
      "name": "isWhitelisted",
      "outputs": [
        {
          "internalType": "bool",
          "name": "",
          "type": "bool"
        }
      ],
      "stateMutability": "view",
      "type": "function"
    },
    {
      "inputs": [],
      "name": "owner",
      "outputs": [
        {
          "internalType": "address",
          "name": "",
          "type": "address"
        }
      ],
      "stateMutability": "view",
      "type": "function"
    },
    {
      "inputs": [
        {
          "internalType": "string",
          "name": "ip",
          "type": "string"
        }
      ],
      "name": "removeFromWhitelist",
      "outputs": [],
      "stateMutability": "nonpayable",
      "type": "function"
    },
    {
      "inputs": [],
      "name": "renounceOwnership",
      "outputs": [],
      "stateMutability": "nonpayable",
      "type": "function"
    },
    {
      "inputs": [
        {
          "internalType": "address",
          "name": "newOwner",
          "type": "address"
        }
      ],
      "name": "transferOwnership",
      "outputs": [],
      "stateMutability": "nonpayable",
      "type": "function"
    },
    {
      "inputs": [
        {
          "internalType": "string",
          "name": "",
          "type": "string"
        }
      ],
      "name": "whitelist",
      "outputs": [
        {
          "internalType": "bool",
          "name": "",
          "type": "bool"
        }
      ],
      "stateMutability": "view",
      "type": "function"
    }
  ],
  "bytecode": "0x6080806040523461007a5733156100645760008054336001600160a01b03198216811783556040519290916001600160a01b0316907f8be0079c531659141344cd1fd0a4f28419497f9722a3daafe3b4186f6b6457e09080a361057b90816100808239f35b631e4fbdf760e01b815260006004820152602490fd5b600080fdfe60406080815260048036101561001457600080fd5b600091823560e01c80630d80bf6414610108578063715018a6146103ff57806373e08a471461036d5780638cbab21f146102de5780638da5cb5b146102b25780639e76131f14610164578063b48eea44146101085763f2fde38b1461007857600080fd5b34610104576020366003190112610104576001600160a01b03823581811693919290849003610100576100a9610542565b83156100ea57505082546001600160a01b0319811683178455167f8be0079c531659141344cd1fd0a4f28419497f9722a3daafe3b4186f6b6457e08380a380f35b51631e4fbdf760e01b8152908101849052602490fd5b8480fd5b8280fd5b5082346101615760203660031901126101615782359067ffffffffffffffff8211610161575061014e6020610143819560ff94369101610495565b8451928380926104ed565b6001815203019020541690519015158152f35b80fd5b503461010457602091826003193601126102ae5780359067ffffffffffffffff908183116102aa57366023840112156102aa57828101359260249183851161029757508360051b916024876101ba818601610459565b809781520193830101933685116102935760248301935b858510610269575050505050506101e6610542565b835b815181101561026557806101fe60019284610518565b5161020b855180926104ed565b83815281900386019020805460ff19168317905561023861022c8285610518565b518551918280926104ed565b0390207fdf2d807a38b517cbb602c8e63f68619705816eacdfda9d3ad1fd8d162303aad38780a2016101e8565b8480f35b843582811161028f5789916102848392863691890101610495565b8152019401936101d1565b8a80fd5b8880fd5b634e487b7160e01b885260419052602487fd5b8580fd5b8380fd5b8382346102da57816003193601126102da57905490516001600160a01b039091168152602090f35b5080fd5b503461010457602036600319011261010457813567ffffffffffffffff81116102ae576103439261031191369101610495565b9061031a610542565b805160208161032981866104ed565b600181520301902060ff19815416905551918280926104ed565b0390207f0f362c4184587585411a4b614067566e9d26b22afa0571caa9c63256115bf2cb8280a280f35b503461010457602036600319011261010457813567ffffffffffffffff81116102ae576103d5926103a091369101610495565b906103a9610542565b80516020816103b881866104ed565b6001815203019020600160ff1982541617905551918280926104ed565b0390207fdf2d807a38b517cbb602c8e63f68619705816eacdfda9d3ad1fd8d162303aad38280a280f35b8334610161578060031936011261016157610418610542565b80546001600160a01b03198116825581906001600160a01b03167f8be0079c531659141344cd1fd0a4f28419497f9722a3daafe3b4186f6b6457e08280a380f35b6040519190601f01601f1916820167ffffffffffffffff81118382101761047f57604052565b634e487b7160e01b600052604160045260246000fd5b81601f820112156104e85780359067ffffffffffffffff821161047f576104c5601f8301601f1916602001610459565b92828452602083830101116104e857816000926020809301838601378301015290565b600080fd5b9081519160005b838110610505575050016000815290565b80602080928401015181850152016104f4565b805182101561052c5760209160051b010190565b634e487b7160e01b600052603260045260246000fd5b6000546001600160a01b0316330361055657565b60405163118cdaa760e01b8152336004820152602490fdfea164736f6c6343000818000a",
  "linkReferences": {},
  "deployedLinkReferences": {}
}