{
  "_format": "hh-sol-artifact-1",
  "contractName": "GlobalWhitelist",
  "sourceName": "contracts/GlobalWhitelist.sol",
  "abi": [
    {
      "inputs": [],
      "stateMutability": "nonpayable",
      "type": "constructor"
    },
    {
      "inputs": [
        {
          "internalType": "address",
          "name": "owner",
          "type": "address"
        }
      ],
      "name": "OwnableInvalidOwner",
      "type": "error"
    },
    {
      "inputs": [
        {
          "internalType": "address",
          "name": "account",
          "type": "address"
        }
      ],
      "name": "OwnableUnauthorizedAccount",
      "type": "error"
    },
    {
      "anonymous": false,
      "inputs": [
        {
          "indexed": true,
          "internalType": "address",
          "name": "previousOwner",
          "type": "address"
        },
        {
          "indexed": true,
          "internalType": "address",
          "name": "newOwner",
          "type": "address"
        }
      ],
      "name": "OwnershipTransferred",
      "type": "event"
    },
    {
      "anonymous": false,
      "inputs": [
        {
          "indexed": false,
          "internalType": "string",
          "name": "ip",
          "type": "string"
        }
      ],
      "name": "WhitelistAdded",
      "type": "event"
    },
    {
      "anonymous": false,
      "inputs": [
        {
          "indexed": true,
          "internalType": "string",
          "name": "ip",
          "type": "string"
        }
      ],
      "name": "WhitelistRemoved",
      "type": "event"
    },
    {
      "inputs": [
        {
          "internalType": "string",
          "name": "ip",
          "type": "string"
        }
      ],
      "name": "addToWhitelist",
      "outputs": [],
      "stateMutability": "nonpayable",
      "type": "function"
    },
    {
      "inputs": [
        {
          "internalType": "string[]",
          "name": "ips",
          "type": "string[]"
        }
      ],
      "name": "batchAddToWhitelist",
      "outputs": [],
      "stateMutability": "nonpayable",
      "type": "function"
    },
    {
      "inputs": [
        {
          "internalType": "string",
          "name": "ip",
          "type": "string"
        }
      ],
      "name": "isWhitelisted",
      "outputs": [
        {
          "internalType": "bool",
          "name": "",
          "type": "bool"
        }
      ],
      "stateMutability": "view",
      "type": "function"
    },
    {
      "inputs": [],
      "name": "owner",
      "outputs": [
        {
          "internalType": "address",
          "name": "",
          "type": "address"
        }
      ],
      "stateMutability": "view",
      "type": "function"
    },
    {
      "inputs": [
        {
          "internalType": "string",
          "name": "ip",
          "type": "string"
        }
      ],
      "name": "removeFromWhitelist",
      "outputs": [],
      "stateMutability": "nonpayable",
      "type": "function"
    },
    {
      "inputs": [],
      "name": "renounceOwnership",
      "outputs": [],
      "stateMutability": "nonpayable",
      "type": "function"
    },
    {
      "inputs": [
        {
          "internalType": "address",
          "name": "newOwner",
          "type": "address"
        }
      ],
      "name": "transferOwnership",
      "outputs": [],
      "stateMutability": "nonpayable",
      "type": "function"
    },
    {
      "inputs": [
        {
          "internalType": "string",
          "name": "",
          "type": "string"
        }
      ],
      "name": "whitelist",
      "outputs": [
        {
          "internalType": "bool",
          "name": "",
          "type": "bool"
        }
      ],
      "stateMutability": "view",
      "type": "function"
    }
  ],
  "bytecode": "0x6080806040523461007a5733156100645760008054336001600160a01b03198216811783556040519290916001600160a01b0316907f8be0079c531659141344cd1fd0a4f28419497f9722a3daafe3b4186f6b6457e09080a36105c290816100808239f35b631e4fbdf760e01b815260006004820152602490fd5b600080fdfe60406080815260048036101561001457600080fd5b600091823560e01c80630d80bf6414610108578063715018a61461042257806373e08a471461038a5780638cbab21f146102e65780638da5cb5b146102be5780639e76131f1461016d578063b48eea44146101085763f2fde38b1461007857600080fd5b34610104576020366003190112610104576001600160a01b03823581811693919290849003610100576100a9610589565b83156100ea57505082546001600160a01b0319811683178455167f8be0079c531659141344cd1fd0a4f28419497f9722a3daafe3b4186f6b6457e08380a380f35b51631e4fbdf760e01b8152908101849052602490fd5b8480fd5b8280fd5b50823461016a57602036600319011261016a5782359067ffffffffffffffff821161016a57506101556020610143819560ff943691016104b8565b81855193828580945193849201610510565b81016001815203019020541690519015158152f35b80fd5b509190346102ba576020806003193601126101045781359167ffffffffffffffff9081841161010057366023850112156101005783810135936024918386116102a757508460051b916024856101c481860161047c565b809881520193830101933685116102a35760248301935b858510610279575050505050506101f0610589565b825b825181101561027557806102086001928561055f565b518361021c88519283815193849201610510565b810183815281900384019020805460ff1916831790557fdf2d807a38b517cbb602c8e63f68619705816eacdfda9d3ad1fd8d162303aad361026c610260838761055f565b51885191829182610533565b0390a1016101f2565b8380f35b843582811161029f57879161029483928636918901016104b8565b8152019401936101db565b8980fd5b8780fd5b634e487b7160e01b875260419052602486fd5b5080fd5b8382346102ba57816003193601126102ba57905490516001600160a01b039091168152602090f35b503461010457602036600319011261010457813567ffffffffffffffff81116103865761035a92610319913691016104b8565b610321610589565b81519181519260208181850195610339818389610510565b8101600181520301902060ff19815416905551928392839251928391610510565b81010390207f0f362c4184587585411a4b614067566e9d26b22afa0571caa9c63256115bf2cb8280a280f35b8380fd5b5090346101045760203660031901126101045780359167ffffffffffffffff8311610386576103e061041c927fdf2d807a38b517cbb602c8e63f68619705816eacdfda9d3ad1fd8d162303aad3943691016104b8565b906103e9610589565b805160208184516103fd8183858901610510565b81016001815203019020600160ff198254161790555191829182610533565b0390a180f35b833461016a578060031936011261016a5761043b610589565b80546001600160a01b03198116825581906001600160a01b03167f8be0079c531659141344cd1fd0a4f28419497f9722a3daafe3b4186f6b6457e08280a380f35b6040519190601f01601f1916820167ffffffffffffffff8111838210176104a257604052565b634e487b7160e01b600052604160045260246000fd5b81601f8201121561050b5780359067ffffffffffffffff82116104a2576104e8601f8301601f191660200161047c565b928284526020838301011161050b57816000926020809301838601378301015290565b600080fd5b60005b8381106105235750506000910152565b8181015183820152602001610513565b604091602082526105538151809281602086015260208686019101610510565b601f01601f1916010190565b80518210156105735760209160051b010190565b634e487b7160e01b600052603260045260246000fd5b6000546001600160a01b0316330361059d57565b60405163118cdaa760e01b8152336004820152602490fdfea164736f6c6343000818000a",
  "linkReferences": {},
  "deployedLinkReferences": {}
}