{
  "_format": "hh3-artifact-1",
  "contractName": "MockLayerZeroEndpoint",
  "sourceName": "isolated_contracts/MockLayerZeroEndpoint.sol",
  "abi": [
    {
      "anonymous": false,
      "inputs": [
        {
          "indexed": true,
          "internalType": "uint256",
          "name": "messageId",
          "type": "uint256"
        },
        {
          "indexed": false,
          "internalType": "uint16",
          "name": "srcChainId",
          "type": "uint16"
        },
        {
          "indexed": false,
          "internalType": "address",
          "name": "srcAddr",
          "type": "address"
        }
      ],
      "name": "MessageReceived",
      "type": "event"
    },
    {
      "anonymous": false,
      "inputs": [
        {
          "indexed": true,
          "internalType": "uint256",
          "name": "messageId",
          "type": "uint256"
        },
        {
          "indexed": false,
          "internalType": "uint16",
          "name": "dstChainId",
          "type": "uint16"
        },
        {
          "indexed": false,
          "internalType": "address",
          "name": "dstAddr",
          "type": "address"
        }
      ],
      "name": "MessageSent",
      "type": "event"
    },
    {
      "inputs": [
        {
          "internalType": "uint16",
          "name": "",
          "type": "uint16"
        }
      ],
      "name": "chainAddresses",
      "outputs": [
        {
          "internalType": "address",
          "name": "",
          "type": "address"
        }
      ],
      "stateMutability": "view",
      "type": "function"
    },
    {
      "inputs": [
        {
          "internalType": "uint16",
          "name": "_dstChainId",
          "type": "uint16"
        },
        {
          "internalType": "address",
          "name": "_userApplication",
          "type": "address"
        },
        {
          "internalType": "bytes",
          "name": "_payload",
          "type": "bytes"
        },
        {
          "internalType": "bool",
          "name": "_payInZRO",
          "type": "bool"
        },
        {
          "internalType": "bytes",
          "name": "_adapterParam",
          "type": "bytes"
        }
      ],
      "name": "estimateFees",
      "outputs": [
        {
          "internalType": "uint256",
          "name": "nativeFee",
          "type": "uint256"
        },
        {
          "internalType": "uint256",
          "name": "zroFee",
          "type": "uint256"
        }
      ],
      "stateMutability": "view",
      "type": "function"
    },
    {
      "inputs": [],
      "name": "getMessageCount",
      "outputs": [
        {
          "internalType": "uint256",
          "name": "",
          "type": "uint256"
        }
      ],
      "stateMutability": "view",
      "type": "function"
    },
    {
      "inputs": [
        {
          "internalType": "uint256",
          "name": "",
          "type": "uint256"
        }
      ],
      "name": "messages",
      "outputs": [
        {
          "internalType": "uint16",
          "name": "dstChainId",
          "type": "uint16"
        },
        {
          "internalType": "address",
          "name": "dstAddr",
          "type": "address"
        },
        {
          "internalType": "bytes",
          "name": "payload",
          "type": "bytes"
        },
        {
          "internalType": "address",
          "name": "refundAddress",
          "type": "address"
        },
        {
          "internalType": "address",
          "name": "zroPaymentAddress",
          "type": "address"
        },
        {
          "internalType": "bytes",
          "name": "adapterParams",
          "type": "bytes"
        },
        {
          "internalType": "uint256",
          "name": "fee",
          "type": "uint256"
        },
        {
          "internalType": "uint256",
          "name": "blockNumber",
          "type": "uint256"
        }
      ],
      "stateMutability": "view",
      "type": "function"
    },
    {
      "inputs": [
        {
          "internalType": "uint16",
          "name": "_dstChainId",
          "type": "uint16"
        },
        {
          "internalType": "bytes",
          "name": "_destination",
          "type": "bytes"
        },
        {
          "internalType": "bytes",
          "name": "_payload",
          "type": "bytes"
        },
        {
          "internalType": "address payable",
          "name": "_refundAddress",
          "type": "address"
        },
        {
          "internalType": "address",
          "name": "_zroPaymentAddress",
          "type": "address"
        },
        {
          "internalType": "bytes",
          "name": "_adapterParams",
          "type": "bytes"
        }
      ],
      "name": "send",
      "outputs": [],
      "stateMutability": "payable",
      "type": "function"
    },
    {
      "inputs": [
        {
          "internalType": "uint16",
          "name": "_chainId",
          "type": "uint16"
        },
        {
          "internalType": "address",
          "name": "_addr",
          "type": "address"
        }
      ],
      "name": "setChainAddress",
      "outputs": [],
      "stateMutability": "nonpayable",
      "type": "function"
    }
  ],
  "bytecode": "0x608060405234801561001057600080fd5b50610ac3806100206000396000f3fe6080604052600436106100555760003560e01c80630d80fefd1461005a578063319339161461009757806340a7bb10146100b55780636d6b42e6146100fb578063c580310014610149578063f7ee470c1461015e575b600080fd5b34801561006657600080fd5b5061007a610075366004610570565b6101ad565b60405161008e9897969594939291906105cf565b60405180910390f35b3480156100a357600080fd5b5060005460405190815260200161008e565b3480156100c157600080fd5b506100e66100d03660046106c9565b5067016345785d8a000095600095509350505050565b6040805192835260208301919091520161008e565b34801561010757600080fd5b506101316101163660046107e0565b6001602052600090815260409020546001600160a01b031681565b6040516001600160a01b03909116815260200161008e565b61015c610157366004610802565b610332565b005b34801561016a57600080fd5b5061015c6101793660046108d8565b61ffff91909116600090815260016020526040902080546001600160a01b0319166001600160a01b03909216919091179055565b600081815481106101bd57600080fd5b60009182526020909120600790910201805460018201805461ffff83169450620100009092046001600160a01b031692916101f79061090f565b80601f01602080910402602001604051908101604052809291908181526020018280546102239061090f565b80156102705780601f1061024557610100808354040283529160200191610270565b820191906000526020600020905b81548152906001019060200180831161025357829003601f168201915b5050506002840154600385015460048601805495966001600160a01b03938416969290931694509192506102a39061090f565b80601f01602080910402602001604051908101604052809291908181526020018280546102cf9061090f565b801561031c5780601f106102f15761010080835404028352916020019161031c565b820191906000526020600020905b8154815290600101906020018083116102ff57829003601f168201915b5050505050908060050154908060060154905088565b60006040518061010001604052808b61ffff1681526020018a8a906103579190610949565b60601c6001600160a01b0316815260200188888080601f0160208091040260200160405190810160405280939291908181526020018383808284376000920191909152505050908252506001600160a01b038088166020808401919091529087166040808401919091528051601f870183900483028101830190915285815260609092019190869086908190840183828082843760009201829052509385525050346020808501919091524360409485015282546001810184559280528451600784027f290decd9548b62a8d60345a988386fc84ba6bc95484008f6362f93160ef3e56381018054938801516001600160a01b031662010000026001600160b01b031990941661ffff909316929092179290921781559385015194955091938593927f290decd9548b62a8d60345a988386fc84ba6bc95484008f6362f93160ef3e5640191506104a790826109cd565b5060608201516002820180546001600160a01b039283166001600160a01b031991821617909155608084015160038401805491909316911617905560a082015160048201906104f690826109cd565b5060c0820151816005015560e082015181600601555050807f1d57ba970503d6a140ca419ce8e842bf5ce82b4a886599bbaca8fbdc9feb9ade8c846020015160405161055b92919061ffff9290921682526001600160a01b0316602082015260400190565b60405180910390a25050505050505050505050565b60006020828403121561058257600080fd5b5035919050565b6000815180845260005b818110156105af57602081850181015186830182015201610593565b506000602082860101526020601f19601f83011685010191505092915050565b61ffff891681526001600160a01b038881166020830152610100604083018190526000916105ff8483018b610589565b8982166060860152908816608085015283810360a085015290506106238187610589565b60c0840195909552505060e001529695505050505050565b803561ffff8116811461064d57600080fd5b919050565b6001600160a01b038116811461066757600080fd5b50565b60008083601f84011261067c57600080fd5b50813567ffffffffffffffff81111561069457600080fd5b6020830191508360208285010111156106ac57600080fd5b9250929050565b634e487b7160e01b600052604160045260246000fd5b60008060008060008060a087890312156106e257600080fd5b6106eb8761063b565b955060208701356106fb81610652565b9450604087013567ffffffffffffffff8082111561071857600080fd5b6107248a838b0161066a565b909650945060608901359150811515821461073e57600080fd5b9092506080880135908082111561075457600080fd5b818901915089601f83011261076857600080fd5b81358181111561077a5761077a6106b3565b604051601f8201601f19908116603f011681019083821181831017156107a2576107a26106b3565b816040528281528c60208487010111156107bb57600080fd5b8260208601602083013760006020848301015280955050505050509295509295509295565b6000602082840312156107f257600080fd5b6107fb8261063b565b9392505050565b600080600080600080600080600060c08a8c03121561082057600080fd5b6108298a61063b565b985060208a013567ffffffffffffffff8082111561084657600080fd5b6108528d838e0161066a565b909a50985060408c013591508082111561086b57600080fd5b6108778d838e0161066a565b909850965060608c0135915061088c82610652565b90945060808b01359061089e82610652565b90935060a08b013590808211156108b457600080fd5b506108c18c828d0161066a565b915080935050809150509295985092959850929598565b600080604083850312156108eb57600080fd5b6108f48361063b565b9150602083013561090481610652565b809150509250929050565b600181811c9082168061092357607f821691505b60208210810361094357634e487b7160e01b600052602260045260246000fd5b50919050565b6bffffffffffffffffffffffff1981358181169160148510156109765780818660140360031b1b83161692505b505092915050565b601f8211156109c857600081815260208120601f850160051c810160208610156109a55750805b601f850160051c820191505b818110156109c4578281556001016109b1565b5050505b505050565b815167ffffffffffffffff8111156109e7576109e76106b3565b6109fb816109f5845461090f565b8461097e565b602080601f831160018114610a305760008415610a185750858301515b600019600386901b1c1916600185901b1785556109c4565b600085815260208120601f198616915b82811015610a5f57888601518255948401946001909101908401610a40565b5085821015610a7d5787850151600019600388901b60f8161c191681555b5050505050600190811b0190555056fea264697066735822122052dbfe6430badf9b8f945e2d83855f1be9e6a3ef88369f0dea9e3e1e274e3ae264736f6c63430008130033",
  "linkReferences": {},
  "deployedLinkReferences": {},
  "immutableReferences": {},
  "inputSourceName": "project/isolated_contracts/MockLayerZeroEndpoint.sol",
  "buildInfoId": "solc-0_8_19-22d079e1c32bc46a1bc5b10cbc249f0401cf74f3"
}