{
  "_format": "hh-sol-artifact-1",
  "contractName": "ContractRegistry",
  "sourceName": "contracts/ContractRegistry.sol",
  "abi": [
    {
      "inputs": [],
      "stateMutability": "nonpayable",
      "type": "constructor"
    },
    {
      "inputs": [
        {
          "internalType": "address",
          "name": "owner",
          "type": "address"
        }
      ],
      "name": "OwnableInvalidOwner",
      "type": "error"
    },
    {
      "inputs": [
        {
          "internalType": "address",
          "name": "account",
          "type": "address"
        }
      ],
      "name": "OwnableUnauthorizedAccount",
      "type": "error"
    },
    {
      "anonymous": false,
      "inputs": [
        {
          "indexed": true,
          "internalType": "string",
          "name": "name",
          "type": "string"
        },
        {
          "indexed": true,
          "internalType": "address",
          "name": "newAddress",
          "type": "address"
        }
      ],
      "name": "AddressUpdated",
      "type": "event"
    },
    {
      "anonymous": false,
      "inputs": [
        {
          "indexed": true,
          "internalType": "address",
          "name": "previousOwner",
          "type": "address"
        },
        {
          "indexed": true,
          "internalType": "address",
          "name": "newOwner",
          "type": "address"
        }
      ],
      "name": "OwnershipTransferred",
      "type": "event"
    },
    {
      "inputs": [
        {
          "internalType": "string",
          "name": "",
          "type": "string"
        }
      ],
      "name": "contracts",
      "outputs": [
        {
          "internalType": "address",
          "name": "",
          "type": "address"
        }
      ],
      "stateMutability": "view",
      "type": "function"
    },
    {
      "inputs": [
        {
          "internalType": "string",
          "name": "name",
          "type": "string"
        }
      ],
      "name": "getContractAddress",
      "outputs": [
        {
          "internalType": "address",
          "name": "",
          "type": "address"
        }
      ],
      "stateMutability": "view",
      "type": "function"
    },
    {
      "inputs": [],
      "name": "owner",
      "outputs": [
        {
          "internalType": "address",
          "name": "",
          "type": "address"
        }
      ],
      "stateMutability": "view",
      "type": "function"
    },
    {
      "inputs": [],
      "name": "renounceOwnership",
      "outputs": [],
      "stateMutability": "nonpayable",
      "type": "function"
    },
    {
      "inputs": [
        {
          "internalType": "address",
          "name": "newOwner",
          "type": "address"
        }
      ],
      "name": "transferOwnership",
      "outputs": [],
      "stateMutability": "nonpayable",
      "type": "function"
    },
    {
      "inputs": [
        {
          "internalType": "string",
          "name": "name",
          "type": "string"
        },
        {
          "internalType": "address",
          "name": "newAddress",
          "type": "address"
        }
      ],
      "name": "updateAddress",
      "outputs": [],
      "stateMutability": "nonpayable",
      "type": "function"
    },
    {
      "inputs": [
        {
          "internalType": "string[]",
          "name": "names",
          "type": "string[]"
        },
        {
          "internalType": "address[]",
          "name": "addresses",
          "type": "address[]"
        }
      ],
      "name": "updateAddresses",
      "outputs": [],
      "stateMutability": "nonpayable",
      "type": "function"
    }
  ],
  "bytecode": "0x6080806040523461007a5733156100645760008054336001600160a01b03198216811783556040519290916001600160a01b0316907f8be0079c531659141344cd1fd0a4f28419497f9722a3daafe3b4186f6b6457e09080a36105da90816100808239f35b631e4fbdf760e01b815260006004820152602490fd5b600080fdfe60406080815260048036101561001457600080fd5b600091823560e01c806304433bbc1461012957806321b55192146102975780633e21750a146101e4578063715018a61461018a5780638c5b8385146101295780638da5cb5b146100fd5763f2fde38b1461006d57600080fd5b346100f95760203660031901126100f9576001600160a01b038235818116939192908490036100f55761009e6105a1565b83156100df57505082546001600160a01b0319811683178455167f8be0079c531659141344cd1fd0a4f28419497f9722a3daafe3b4186f6b6457e08380a380f35b51631e4fbdf760e01b8152908101849052602490fd5b8480fd5b8280fd5b838234610125578160031936011261012557905490516001600160a01b039091168152602090f35b5080fd5b5082346101875760203660031901126101875782359067ffffffffffffffff8211610187575060209261015e913691016104dc565b61016a8251809261054c565b60018152819003830190205490516001600160a01b039091168152f35b80fd5b83346101875780600319360112610187576101a36105a1565b80546001600160a01b03198116825581906001600160a01b03167f8be0079c531659141344cd1fd0a4f28419497f9722a3daafe3b4186f6b6457e08280a380f35b5090346100f957816003193601126100f95780359067ffffffffffffffff821161029357610214913691016104dc565b6024356001600160a01b03811692919083900361029357610269916102376105a1565b8051602081610246818661054c565b600181520301902080546001600160a01b0319168517905551918291829061054c565b0390207f943e9d45a11aaae5d87503e3bc248665d9807856e5cf2bdb4a988bee444227818380a380f35b8380fd5b50346100f957806003193601126100f95767ffffffffffffffff82358181116100f557366023820112156100f557808401359360246102dd6102d887610534565b6104a0565b9283968085528260208096019160051b8301019136831161046e57838101915b83831061047657505050508035938411610472573660238501121561047257838201359361032d6102d886610534565b94828587838152019160051b8301019136831161046e578301905b82821061044b5750505061035a6105a1565b8551845103610412575050845b845181101561040e576001906001600160a01b03806103868387610577565b51166103a285610396858b610577565b5189519283809261054c565b8781520301902080546001600160a01b03191690911790556103e16103c78389610577565b51916103d38488610577565b51169187519182809261054c565b0390207f943e9d45a11aaae5d87503e3bc248665d9807856e5cf2bdb4a988bee444227818980a301610367565b8580f35b60169060649386519362461bcd60e51b855284015282015275082e4e4c2f2e640d8cadccee8d040dad2e6dac2e8c6d60531b6044820152fd5b81356001600160a01b038116810361046a578152908501908501610348565b8a80fd5b8980fd5b8680fd5b823588811161049c57879161049183928836918701016104dc565b8152019201916102fd565b8b80fd5b6040519190601f01601f1916820167ffffffffffffffff8111838210176104c657604052565b634e487b7160e01b600052604160045260246000fd5b81601f8201121561052f5780359067ffffffffffffffff82116104c65761050c601f8301601f19166020016104a0565b928284526020838301011161052f57816000926020809301838601378301015290565b600080fd5b67ffffffffffffffff81116104c65760051b60200190565b9081519160005b838110610564575050016000815290565b8060208092840101518185015201610553565b805182101561058b5760209160051b010190565b634e487b7160e01b600052603260045260246000fd5b6000546001600160a01b031633036105b557565b60405163118cdaa760e01b8152336004820152602490fdfea164736f6c6343000818000a",
  "linkReferences": {},
  "deployedLinkReferences": {}
}