{
  "_format": "hh-sol-artifact-1",
  "contractName": "GasSubsidy",
  "sourceName": "contracts/OnboardingContracts.sol",
  "abi": [
    {
      "inputs": [],
      "stateMutability": "payable",
      "type": "constructor"
    },
    {
      "anonymous": false,
      "inputs": [
        {
          "indexed": true,
          "internalType": "address",
          "name": "user",
          "type": "address"
        },
        {
          "indexed": false,
          "internalType": "uint256",
          "name": "amount",
          "type": "uint256"
        }
      ],
      "name": "SubsidyRequested",
      "type": "event"
    },
    {
      "inputs": [],
      "name": "SUBSIDY_AMOUNT",
      "outputs": [
        {
          "internalType": "uint256",
          "name": "",
          "type": "uint256"
        }
      ],
      "stateMutability": "view",
      "type": "function"
    },
    {
      "inputs": [],
      "name": "fund",
      "outputs": [],
      "stateMutability": "payable",
      "type": "function"
    },
    {
      "inputs": [],
      "name": "getBalance",
      "outputs": [
        {
          "internalType": "uint256",
          "name": "",
          "type": "uint256"
        }
      ],
      "stateMutability": "view",
      "type": "function"
    },
    {
      "inputs": [
        {
          "internalType": "address",
          "name": "",
          "type": "address"
        }
      ],
      "name": "hasReceivedSubsidy",
      "outputs": [
        {
          "internalType": "bool",
          "name": "",
          "type": "bool"
        }
      ],
      "stateMutability": "view",
      "type": "function"
    },
    {
      "inputs": [],
      "name": "owner",
      "outputs": [
        {
          "internalType": "address",
          "name": "",
          "type": "address"
        }
      ],
      "stateMutability": "view",
      "type": "function"
    },
    {
      "inputs": [],
      "name": "requestSubsidy",
      "outputs": [],
      "stateMutability": "nonpayable",
      "type": "function"
    },
    {
      "inputs": [
        {
          "internalType": "address",
          "name": "user",
          "type": "address"
        }
      ],
      "name": "requestSubsidyFor",
      "outputs": [],
      "stateMutability": "nonpayable",
      "type": "function"
    },
    {
      "stateMutability": "payable",
      "type": "receive"
    }
  ],
  "bytecode": "0x60806040819052600180546001600160a01b031916331790556103ef90816100258239f3fe60806040818152600436101561001f575b5050361561001d57600080fd5b005b600091823560e01c9081630511f4b5146102895750806312065fe01461026f57806344c0ccd81461022c5780635713cb89146101825780638da5cb5b1461015a578063b60d4288146101115763d223ebf203610010573461010d578160031936011261010d573382528160205261009c60ff8284205416156102ab565b670de0b6b3a7640000906100b2824710156102f7565b33835282602052808320600160ff198254161790556100e08380808086335af16100da610343565b506103a4565b519081527f9749136d4df99fff40acc624e96e08517a71b78d80f9b4977672f3353e7fbbd360203392a280f35b5080fd5b508160031936011261010d573415610127575080f35b5162461bcd60e51b815260206004820152600d60248201526c4d7573742073656e64204f524160981b6044820152606490fd5b503461010d578160031936011261010d5760015490516001600160a01b039091168152602090f35b503461010d57602036600319011261010d576004356001600160a01b03811691828203610228577f9749136d4df99fff40acc624e96e08517a71b78d80f9b4977672f3353e7fbbd3916020918486528583526101e460ff8288205416156102ab565b61022086808080670de0b6b3a76400008097610202824710156102f7565b8b8352828a52878320805460ff191660011790555af16100da610343565b51908152a280f35b8380fd5b503461010d57602036600319011261010d576004356001600160a01b0381169081900361026b57818360ff926020955280855220541690519015158152f35b8280fd5b503461010d578160031936011261010d5751478152602090f35b83903461010d578160031936011261010d5780670de0b6b3a764000060209252f35b156102b257565b60405162461bcd60e51b815260206004820152601860248201527f416c7265616479207265636569766564207375627369647900000000000000006044820152606490fd5b156102fe57565b60405162461bcd60e51b815260206004820152601d60248201527f496e73756666696369656e7420636f6e74726163742062616c616e63650000006044820152606490fd5b3d1561039f5767ffffffffffffffff903d8281116103895760405192601f8201601f19908116603f01168401908111848210176103895760405282523d6000602084013e565b634e487b7160e01b600052604160045260246000fd5b606090565b156103ab57565b60405162461bcd60e51b815260206004820152600f60248201526e151c985b9cd9995c8819985a5b1959608a1b6044820152606490fdfea164736f6c6343000818000a",
  "linkReferences": {},
  "deployedLinkReferences": {}
}