{
  "_format": "hh-sol-artifact-1",
  "contractName": "NodeRegistry",
  "sourceName": "contracts/OnboardingContracts.sol",
  "abi": [
    {
      "anonymous": false,
      "inputs": [
        {
          "indexed": true,
          "internalType": "address",
          "name": "nodeAddress",
          "type": "address"
        }
      ],
      "name": "NodeDeactivated",
      "type": "event"
    },
    {
      "anonymous": false,
      "inputs": [
        {
          "indexed": true,
          "internalType": "address",
          "name": "nodeAddress",
          "type": "address"
        },
        {
          "indexed": false,
          "internalType": "string",
          "name": "nodeId",
          "type": "string"
        },
        {
          "indexed": false,
          "internalType": "string",
          "name": "endpoint",
          "type": "string"
        }
      ],
      "name": "NodeRegistered",
      "type": "event"
    },
    {
      "anonymous": false,
      "inputs": [
        {
          "indexed": true,
          "internalType": "address",
          "name": "nodeAddress",
          "type": "address"
        },
        {
          "indexed": false,
          "internalType": "string",
          "name": "endpoint",
          "type": "string"
        }
      ],
      "name": "NodeUpdated",
      "type": "event"
    },
    {
      "anonymous": false,
      "inputs": [
        {
          "indexed": true,
          "internalType": "address",
          "name": "nodeAddress",
          "type": "address"
        },
        {
          "indexed": false,
          "internalType": "uint256",
          "name": "newReputation",
          "type": "uint256"
        }
      ],
      "name": "ReputationUpdated",
      "type": "event"
    },
    {
      "inputs": [],
      "name": "deactivateNode",
      "outputs": [],
      "stateMutability": "nonpayable",
      "type": "function"
    },
    {
      "inputs": [],
      "name": "getActiveNodeCount",
      "outputs": [
        {
          "internalType": "uint256",
          "name": "",
          "type": "uint256"
        }
      ],
      "stateMutability": "view",
      "type": "function"
    },
    {
      "inputs": [],
      "name": "getActiveNodes",
      "outputs": [
        {
          "internalType": "address[]",
          "name": "",
          "type": "address[]"
        }
      ],
      "stateMutability": "view",
      "type": "function"
    },
    {
      "inputs": [
        {
          "internalType": "address",
          "name": "nodeAddress",
          "type": "address"
        }
      ],
      "name": "getNodeInfo",
      "outputs": [
        {
          "internalType": "string",
          "name": "nodeId",
          "type": "string"
        },
        {
          "internalType": "string",
          "name": "endpoint",
          "type": "string"
        },
        {
          "internalType": "uint256",
          "name": "registeredAt",
          "type": "uint256"
        },
        {
          "internalType": "bool",
          "name": "active",
          "type": "bool"
        }
      ],
      "stateMutability": "view",
      "type": "function"
    },
    {
      "inputs": [
        {
          "internalType": "address",
          "name": "nodeAddress",
          "type": "address"
        }
      ],
      "name": "isNodeRegistered",
      "outputs": [
        {
          "internalType": "bool",
          "name": "",
          "type": "bool"
        }
      ],
      "stateMutability": "view",
      "type": "function"
    },
    {
      "inputs": [
        {
          "internalType": "string",
          "name": "",
          "type": "string"
        }
      ],
      "name": "nodeIdToAddress",
      "outputs": [
        {
          "internalType": "address",
          "name": "",
          "type": "address"
        }
      ],
      "stateMutability": "view",
      "type": "function"
    },
    {
      "inputs": [
        {
          "internalType": "uint256",
          "name": "",
          "type": "uint256"
        }
      ],
      "name": "nodeList",
      "outputs": [
        {
          "internalType": "address",
          "name": "",
          "type": "address"
        }
      ],
      "stateMutability": "view",
      "type": "function"
    },
    {
      "inputs": [
        {
          "internalType": "address",
          "name": "",
          "type": "address"
        }
      ],
      "name": "nodes",
      "outputs": [
        {
          "internalType": "string",
          "name": "nodeId",
          "type": "string"
        },
        {
          "internalType": "string",
          "name": "endpoint",
          "type": "string"
        },
        {
          "internalType": "uint256",
          "name": "registeredAt",
          "type": "uint256"
        },
        {
          "internalType": "bool",
          "name": "active",
          "type": "bool"
        },
        {
          "internalType": "uint256",
          "name": "reputation",
          "type": "uint256"
        },
        {
          "internalType": "uint256",
          "name": "uptime",
          "type": "uint256"
        }
      ],
      "stateMutability": "view",
      "type": "function"
    },
    {
      "inputs": [
        {
          "internalType": "string",
          "name": "nodeId",
          "type": "string"
        },
        {
          "internalType": "string",
          "name": "endpoint",
          "type": "string"
        }
      ],
      "name": "registerNode",
      "outputs": [],
      "stateMutability": "nonpayable",
      "type": "function"
    },
    {
      "inputs": [],
      "name": "totalNodes",
      "outputs": [
        {
          "internalType": "uint256",
          "name": "",
          "type": "uint256"
        }
      ],
      "stateMutability": "view",
      "type": "function"
    },
    {
      "inputs": [
        {
          "internalType": "string",
          "name": "newEndpoint",
          "type": "string"
        }
      ],
      "name": "updateEndpoint",
      "outputs": [],
      "stateMutability": "nonpayable",
      "type": "function"
    },
    {
      "inputs": [
        {
          "internalType": "address",
          "name": "nodeAddress",
          "type": "address"
        },
        {
          "internalType": "uint256",
          "name": "newReputation",
          "type": "uint256"
        }
      ],
      "name": "updateReputation",
      "outputs": [],
      "stateMutability": "nonpayable",
      "type": "function"
    },
    {
      "inputs": [
        {
          "internalType": "address",
          "name": "nodeAddress",
          "type": "address"
        },
        {
          "internalType": "uint256",
          "name": "uptimeSeconds",
          "type": "uint256"
        }
      ],
      "name": "updateUptime",
      "outputs": [],
      "stateMutability": "nonpayable",
      "type": "function"
    }
  ],
  "bytecode": "0x608080604052346100165761106c908161001c8239f35b600080fdfe6080604052600436101561001257600080fd5b60003560e01c8063189a5a1714610cf6578063208f2a3114610cb4578063582115fb14610bf25780635c019d2e14610a285780636b51e919146108aa5780638cc0ebb5146108625780639592d4241461084457806396ef592e146107d4578063c27f66a61461076b578063c5ea2b87146106f2578063d3983524146101ed578063e62a00bf1461018c5763f5c91a08146100ab57600080fd5b34610187576040366003190112610187576100c4610d97565b602435906100f26100ed8260018060a01b03166000526000602052600260406000200154151590565b610fa0565b606482116101425760207ffc577563f1b9a0461e24abef1e1fcc0d33d3d881f20b5df6dda59de4aae2c8219160018060a01b031692836000526000825280600460406000200155604051908152a2005b60405162461bcd60e51b815260206004820152601860248201527f52657075746174696f6e206d75737420626520302d31303000000000000000006044820152606490fd5b600080fd5b34610187576040366003190112610187576101a5610d97565b6001600160a01b0381166000908152602081905260409020600201546101cc901515610fa0565b60018060a01b03166000526000602052602435600560406000200155600080f35b346101875760403660031901126101875760043567ffffffffffffffff81116101875761021e903690600401610f49565b60243567ffffffffffffffff81116101875761023e903690600401610f49565b336000908152602081905260409020600201549091906106ad57604051815161026b818360208601610eca565b60019082019081528190036020019020546001600160a01b0316610670578051156106385761029c82511515610fe2565b6040516102a881610de7565b8181528260208201524260408201526001606082015260326080820152600060a0820152336000526000602052604060002090805180519067ffffffffffffffff82116104965781906102fb8554610dad565b601f81116105e8575b50602090601f831160011461057c57600092610571575b50508160011b916000199060031b1c19161782555b602081015180519067ffffffffffffffff8211610496576103546001850154610dad565b601f811161052a575b50602090601f83116001146104b75791806005949260a0946000926104ac575b50508160011b916000199060031b1c19161760018501555b60408101516002850155600384016060820151151560ff8019835416911617905560808101516004850155015191015560405160208183516103da8183858801610eca565b81016001815203019020336bffffffffffffffffffffffff60a01b82541617905560025468010000000000000000811015610496577f46406905bae74cf0ddefdf7faf9043b12cf891a01d9c85b17d88c6447fd9cd34916104448260016104829401600255610f12565b81549060031b9033821b9160018060a01b03901b1916179055610468600354611022565b600355610491604051928392604084526040840190610eed565b82810360208401523395610eed565b0390a2005b634e487b7160e01b600052604160045260246000fd5b01519050888061037d565b90601f198316916001860160005260206000209260005b818110610512575092600192859260a09660059896106104f9575b505050811b016001850155610395565b015160001960f88460031b161c191690558880806104e9565b929360206001819287860151815501950193016104ce565b600185016000526020600020601f840160051c81016020851061056a575b601f830160051c8201811061055e57505061035d565b60008155600101610548565b5080610548565b01519050868061031b565b9250846000526020600020906000935b601f19841685106105cd576001945083601f198116106105b4575b505050811b018255610330565b015160001960f88460031b161c191690558680806105a7565b8181015183556020948501946001909301929091019061058c565b909150846000526020600020601f840160051c810160208510610631575b90849392915b601f830160051c82018110610622575050610304565b6000815585945060010161060c565b5080610606565b60405162461bcd60e51b815260206004820152601060248201526f139bd919481251081c995c5d5a5c995960821b6044820152606490fd5b60405162461bcd60e51b81526020600482015260156024820152742737b2329024a21030b63932b0b23c903a30b5b2b760591b6044820152606490fd5b60405162461bcd60e51b815260206004820152601760248201527f4e6f646520616c726561647920726567697374657265640000000000000000006044820152606490fd5b3461018757600036600319011261018757600080600254905b81811061071d57602083604051908152f35b60ff61072882610f12565b9054600391821b1c6001600160a01b03166000908152602081905260409020015416610757575b60010161070b565b91610763600191611022565b92905061074f565b346101875760203660031901126101875760043567ffffffffffffffff81116101875761079e6020913690600401610f49565b816107b26040519283815193849201610eca565b600190820190815281900382019020546040516001600160a01b039091168152f35b346101875760003660031901126101875733600090815260208190526040902060020154610803901515610fa0565b336000526000602052600360406000200160ff198154169055337fd9957750e6343405c319eb99a4ec67fa11cfd66969318cbc71aa2d45fa53a349600080a2005b34610187576000366003190112610187576020600354604051908152f35b346101875760203660031901126101875760206108a0610880610d97565b6001600160a01b0316600090815260208190526040902060020154151590565b6040519015158152f35b34610187576000366003190112610187576002546000805b8281106109da57506108ec6108d682611047565b916108e46040519384610e03565b808352611047565b6020928383019291601f19013684376000805b8282106109535750505090604051928392818401908285525180915260408401929160005b82811061093357505050500390f35b83516001600160a01b031685528695509381019392810192600101610924565b61095c82610f12565b60018060a01b03809254600392831b1c166000526000885260ff816040600020015416610990575b505090600101906108ff565b61099984610f12565b9054911b1c1684518210156109c457816109bd918860019460051b88010152611022565b9087610984565b634e487b7160e01b600052603260045260246000fd5b60ff6109e582610f12565b9054600391821b1c6001600160a01b03166000908152602081905260409020015416610a14575b6001016108c2565b90610a20600191611022565b919050610a0c565b34610187576020806003193601126101875767ffffffffffffffff60043581811161018757610a5b903690600401610f49565b33600090815260208190526040902060020154610a79901515610fa0565b610a8581511515610fe2565b336000526000835260018060406000200190825193841161049657610aaa8254610dad565b601f8111610ba9575b5084601f8511600114610b22579380806104919594937f5f9fcbc17fba60677ae056851409ca727b54b90cb63be975f68684d06613b07897600093610b17575b501b916000199060031b1c19161790555b6040519182918583523395830190610eed565b860151925089610af3565b601f1985169083600052866000209160005b88828210610b955750509186917f5f9fcbc17fba60677ae056851409ca727b54b90cb63be975f68684d06613b078976104919796959410610b7c575b5050811b019055610b04565b85015160001960f88460031b161c191690558780610b70565b878401518555938501939283019201610b34565b8260005285600020601f860160051c810191878710610be8575b601f0160051c019082905b828110610bdc575050610ab3565b60008155018290610bce565b9091508190610bc3565b34610187576020366003190112610187576001600160a01b03610c13610d97565b166000526000602052610c976040600020604051610c3081610de7565b610c3982610e25565b8152610c4760018301610e25565b91826020830152610ca5600282015492836040820152600560ff60038501541615159384606084015260048101546080840152015460a08201525193604051958695608087526080870190610eed565b908582036020870152610eed565b91604084015260608301520390f35b346101875760203660031901126101875760043560025481101561018757610cdd602091610f12565b905460405160039290921b1c6001600160a01b03168152f35b34610187576020366003190112610187576001600160a01b03610d17610d97565b166000526000602052610d6e6040600020610d3181610e25565b90610d3e60018201610e25565b60028201549160ff600382015416610d7c600560048401549301549360405197889760c0895260c0890190610eed565b908782036020890152610eed565b93604086015215156060850152608084015260a08301520390f35b600435906001600160a01b038216820361018757565b90600182811c92168015610ddd575b6020831014610dc757565b634e487b7160e01b600052602260045260246000fd5b91607f1691610dbc565b60c0810190811067ffffffffffffffff82111761049657604052565b90601f8019910116810190811067ffffffffffffffff82111761049657604052565b90604051918260008254610e3881610dad565b90818452602094600191600181169081600014610ea85750600114610e69575b505050610e6792500383610e03565b565b600090815285812095935091905b818310610e90575050610e679350820101388080610e58565b85548884018501529485019487945091830191610e77565b92505050610e6794925060ff191682840152151560051b820101388080610e58565b60005b838110610edd5750506000910152565b8181015183820152602001610ecd565b90602091610f0681518092818552858086019101610eca565b601f01601f1916010190565b6002548110156109c45760026000527f405787fa12a823e0f2b7631cc41b3ba8828b3321ca811111fa75cd3aa3bb5ace0190600090565b81601f820112156101875780359067ffffffffffffffff82116104965760405192610f7e601f8401601f191660200185610e03565b8284526020838301011161018757816000926020809301838601378301015290565b15610fa757565b60405162461bcd60e51b8152602060048201526013602482015272139bd919481b9bdd081c9959da5cdd195c9959606a1b6044820152606490fd5b15610fe957565b60405162461bcd60e51b8152602060048201526011602482015270115b991c1bda5b9d081c995c5d5a5c9959607a1b6044820152606490fd5b60001981146110315760010190565b634e487b7160e01b600052601160045260246000fd5b67ffffffffffffffff81116104965760051b6020019056fea164736f6c6343000818000a",
  "linkReferences": {},
  "deployedLinkReferences": {}
}