{
  "_format": "hh-sol-artifact-1",
  "contractName": "TokenFaucet",
  "sourceName": "contracts/OnboardingContracts.sol",
  "abi": [
    {
      "inputs": [],
      "stateMutability": "nonpayable",
      "type": "constructor"
    },
    {
      "anonymous": false,
      "inputs": [
        {
          "indexed": true,
          "internalType": "address",
          "name": "user",
          "type": "address"
        },
        {
          "indexed": false,
          "internalType": "uint256",
          "name": "amount",
          "type": "uint256"
        }
      ],
      "name": "Claimed",
      "type": "event"
    },
    {
      "anonymous": false,
      "inputs": [
        {
          "indexed": true,
          "internalType": "address",
          "name": "from",
          "type": "address"
        },
        {
          "indexed": true,
          "internalType": "address",
          "name": "to",
          "type": "address"
        },
        {
          "indexed": false,
          "internalType": "uint256",
          "name": "value",
          "type": "uint256"
        }
      ],
      "name": "Transfer",
      "type": "event"
    },
    {
      "inputs": [],
      "name": "FAUCET_AMOUNT",
      "outputs": [
        {
          "internalType": "uint256",
          "name": "",
          "type": "uint256"
        }
      ],
      "stateMutability": "view",
      "type": "function"
    },
    {
      "inputs": [
        {
          "internalType": "address",
          "name": "account",
          "type": "address"
        }
      ],
      "name": "balanceOf",
      "outputs": [
        {
          "internalType": "uint256",
          "name": "",
          "type": "uint256"
        }
      ],
      "stateMutability": "view",
      "type": "function"
    },
    {
      "inputs": [
        {
          "internalType": "address",
          "name": "",
          "type": "address"
        }
      ],
      "name": "balances",
      "outputs": [
        {
          "internalType": "uint256",
          "name": "",
          "type": "uint256"
        }
      ],
      "stateMutability": "view",
      "type": "function"
    },
    {
      "inputs": [],
      "name": "claim",
      "outputs": [],
      "stateMutability": "nonpayable",
      "type": "function"
    },
    {
      "inputs": [],
      "name": "decimals",
      "outputs": [
        {
          "internalType": "uint8",
          "name": "",
          "type": "uint8"
        }
      ],
      "stateMutability": "view",
      "type": "function"
    },
    {
      "inputs": [
        {
          "internalType": "address",
          "name": "",
          "type": "address"
        }
      ],
      "name": "hasClaimed",
      "outputs": [
        {
          "internalType": "bool",
          "name": "",
          "type": "bool"
        }
      ],
      "stateMutability": "view",
      "type": "function"
    },
    {
      "inputs": [],
      "name": "name",
      "outputs": [
        {
          "internalType": "string",
          "name": "",
          "type": "string"
        }
      ],
      "stateMutability": "view",
      "type": "function"
    },
    {
      "inputs": [],
      "name": "symbol",
      "outputs": [
        {
          "internalType": "string",
          "name": "",
          "type": "string"
        }
      ],
      "stateMutability": "view",
      "type": "function"
    },
    {
      "inputs": [],
      "name": "totalSupply",
      "outputs": [
        {
          "internalType": "uint256",
          "name": "",
          "type": "uint256"
        }
      ],
      "stateMutability": "view",
      "type": "function"
    },
    {
      "inputs": [
        {
          "internalType": "address",
          "name": "to",
          "type": "address"
        },
        {
          "internalType": "uint256",
          "name": "amount",
          "type": "uint256"
        }
      ],
      "name": "transfer",
      "outputs": [
        {
          "internalType": "bool",
          "name": "",
          "type": "bool"
        }
      ],
      "stateMutability": "nonpayable",
      "type": "function"
    }
  ],
  "bytecode": "0x6080604052346101385761001460035461013d565b601f81116100eb575b507f4f7261535253205465737420546f6b656e00000000000000000000000000002260035560045461004e9061013d565b601f811161009e575b6006624f524160e81b01600455601260ff19600554161760055569d3c21bcecceda10000008060025530600052600160205260406000205560405161065390816101788239f35b6004600090815290601f0160051c7f8a35acfbc15ff81a39ae7d344fd709f28e8600b4aa8c65c6b64bfe7fe36bd19b908101905b8181106100e0575050610057565b8281556001016100d2565b6003600090815290601f0160051c7fc2575a0e9e593c00f959f8c92f12db2869c3395a3b0502d05e2516446f71f85b908101905b81811061012d57505061001d565b82815560010161011f565b600080fd5b90600182811c9216801561016d575b602083101461015757565b634e487b7160e01b600052602260045260246000fd5b91607f169161014c56fe608060408181526004918236101561001657600080fd5b600090813560e01c90816306fdde03146105075750806318160ddd146104e857806327e235e314610319578063313ce567146104c65780634e71d92d1461035157806370a082311461031957806373b2e80e146102dc57806376697640146102b857806395d89b41146101935763a9059cbb1461009257600080fd5b346101905781600319360112610190576100aa61062b565b9260243590338352602094600186528285852054106101565733845260018652848420805490848203918211610143575560018060a01b03169283815260018652848120908154928484018094116101305750505582519081527fddf252ad1be2c89b69c2b068fc378daa952ba7f163c4a11628f55a4df523b3ef843392a35160018152f35b634e487b7160e01b825260119052602490fd5b634e487b7160e01b865260118452602486fd5b845162461bcd60e51b81528083018790526014602482015273496e73756666696369656e742062616c616e636560601b6044820152606490fd5b80fd5b5090346102b457816003193601126102b45780519082845460018160011c90600183169283156102aa575b60209384841081146102975783885290811561027b5750600114610226575b505050829003601f01601f191682019267ffffffffffffffff841183851017610213575082918261020f9252826105e2565b0390f35b634e487b7160e01b815260418552602490fd5b8787529192508591837f8a35acfbc15ff81a39ae7d344fd709f28e8600b4aa8c65c6b64bfe7fe36bd19b5b83851061026757505050508301013880806101dd565b805488860183015293019284908201610251565b60ff1916878501525050151560051b84010190503880806101dd565b634e487b7160e01b895260228a52602489fd5b91607f16916101be565b5080fd5b5090346102b457816003193601126102b45760209051683635c9adc5dea000008152f35b5090346102b45760203660031901126102b45760209160ff9082906001600160a01b0361030761062b565b16815280855220541690519015158152f35b5090346102b45760203660031901126102b45760209181906001600160a01b0361034161062b565b1681526001845220549051908152f35b5091346104c257826003193601126104c25733835260209183835260ff818520541661048f5730845260018352683635c9adc5dea000009182828620541061045f57338552848452818520600160ff1982541617905530855260018452818520805490683635c9adc5de9fffff19820191821161044c57553385526001845281852080549184830180931161043957505580518281527fd8138f8a3f377c5259ca548e70e4c2de94f129f5a11036a15b69513cba2b426a843392a2519081527fddf252ad1be2c89b69c2b068fc378daa952ba7f163c4a11628f55a4df523b3ef33923092a380f35b634e487b7160e01b875260119052602486fd5b634e487b7160e01b875260118352602487fd5b83606492519162461bcd60e51b8352820152600c60248201526b46617563657420656d70747960a01b6044820152fd5b91606492519162461bcd60e51b8352820152600f60248201526e105b1c9958591e4818db185a5b5959608a1b6044820152fd5b8280fd5b5090346102b457816003193601126102b45760209060ff600554169051908152f35b5090346102b457816003193601126102b4576020906002549051908152f35b91929050346104c257826003193601126104c2578260035460018160011c90600183169283156105d8575b60209384841081146102975783885290811561027b575060011461058257505050829003601f01601f191682019267ffffffffffffffff841183851017610213575082918261020f9252826105e2565b600387529192508591837fc2575a0e9e593c00f959f8c92f12db2869c3395a3b0502d05e2516446f71f85b5b8385106105c457505050508301013880806101dd565b8054888601830152930192849082016105ae565b91607f1691610532565b6020808252825181830181905290939260005b82811061061757505060409293506000838284010152601f8019910116010190565b8181018601518482016040015285016105f5565b600435906001600160a01b038216820361064157565b600080fdfea164736f6c6343000818000a",
  "linkReferences": {},
  "deployedLinkReferences": {}
}