{
  "_format": "hh-sol-artifact-1",
  "contractName": "ThreatIntelligenceCoordination",
  "sourceName": "contracts/ThreatIntelligenceCoordination.sol",
  "abi": [
    {
      "inputs": [],
      "stateMutability": "nonpayable",
      "type": "constructor"
    },
    {
      "anonymous": false,
      "inputs": [
        {
          "indexed": true,
          "internalType": "string",
          "name": "ip",
          "type": "string"
        },
        {
          "indexed": false,
          "internalType": "enum ThreatIntelligenceCoordination.ThreatLevel",
          "name": "level",
          "type": "uint8"
        },
        {
          "indexed": false,
          "internalType": "string",
          "name": "threatType",
          "type": "string"
        },
        {
          "indexed": false,
          "internalType": "uint256",
          "name": "timestamp",
          "type": "uint256"
        }
      ],
      "name": "ThreatIntelAdded",
      "type": "event"
    },
    {
      "anonymous": false,
      "inputs": [
        {
          "indexed": true,
          "internalType": "string",
          "name": "ip",
          "type": "string"
        },
        {
          "indexed": false,
          "internalType": "uint256",
          "name": "timestamp",
          "type": "uint256"
        }
      ],
      "name": "ThreatIntelRemoved",
      "type": "event"
    },
    {
      "anonymous": false,
      "inputs": [
        {
          "indexed": true,
          "internalType": "string",
          "name": "ip",
          "type": "string"
        },
        {
          "indexed": false,
          "internalType": "uint256",
          "name": "score",
          "type": "uint256"
        },
        {
          "indexed": false,
          "internalType": "uint256",
          "name": "timestamp",
          "type": "uint256"
        }
      ],
      "name": "ThreatScoreUpdated",
      "type": "event"
    },
    {
      "inputs": [
        {
          "internalType": "string",
          "name": "_ip",
          "type": "string"
        },
        {
          "internalType": "enum ThreatIntelligenceCoordination.ThreatLevel",
          "name": "_threatLevel",
          "type": "uint8"
        },
        {
          "internalType": "string",
          "name": "_threatType",
          "type": "string"
        }
      ],
      "name": "addThreatIntel",
      "outputs": [],
      "stateMutability": "nonpayable",
      "type": "function"
    },
    {
      "inputs": [
        {
          "internalType": "uint256",
          "name": "",
          "type": "uint256"
        }
      ],
      "name": "allThreatIPs",
      "outputs": [
        {
          "internalType": "string",
          "name": "",
          "type": "string"
        }
      ],
      "stateMutability": "view",
      "type": "function"
    },
    {
      "inputs": [
        {
          "internalType": "string[]",
          "name": "_ips",
          "type": "string[]"
        },
        {
          "internalType": "uint256[]",
          "name": "_scores",
          "type": "uint256[]"
        }
      ],
      "name": "batchUpdateThreatScores",
      "outputs": [],
      "stateMutability": "nonpayable",
      "type": "function"
    },
    {
      "inputs": [
        {
          "internalType": "uint256",
          "name": "maxCount",
          "type": "uint256"
        }
      ],
      "name": "getAllThreatIPs",
      "outputs": [
        {
          "internalType": "string[]",
          "name": "ips",
          "type": "string[]"
        }
      ],
      "stateMutability": "view",
      "type": "function"
    },
    {
      "inputs": [
        {
          "internalType": "uint256",
          "name": "offset",
          "type": "uint256"
        },
        {
          "internalType": "uint256",
          "name": "count",
          "type": "uint256"
        }
      ],
      "name": "getThreatIPs",
      "outputs": [
        {
          "internalType": "string[]",
          "name": "ips",
          "type": "string[]"
        }
      ],
      "stateMutability": "view",
      "type": "function"
    },
    {
      "inputs": [],
      "name": "getThreatIPsCount",
      "outputs": [
        {
          "internalType": "uint256",
          "name": "",
          "type": "uint256"
        }
      ],
      "stateMutability": "view",
      "type": "function"
    },
    {
      "inputs": [
        {
          "internalType": "string",
          "name": "_ip",
          "type": "string"
        }
      ],
      "name": "getThreatIntel",
      "outputs": [
        {
          "internalType": "string",
          "name": "sourceIP",
          "type": "string"
        },
        {
          "internalType": "string",
          "name": "targetIP",
          "type": "string"
        },
        {
          "internalType": "enum ThreatIntelligenceCoordination.ThreatLevel",
          "name": "threatLevel",
          "type": "uint8"
        },
        {
          "internalType": "uint256",
          "name": "timestamp",
          "type": "uint256"
        },
        {
          "internalType": "string",
          "name": "threatType",
          "type": "string"
        },
        {
          "internalType": "bool",
          "name": "isActive",
          "type": "bool"
        }
      ],
      "stateMutability": "view",
      "type": "function"
    },
    {
      "inputs": [
        {
          "internalType": "string",
          "name": "_ip",
          "type": "string"
        }
      ],
      "name": "getThreatScore",
      "outputs": [
        {
          "internalType": "uint256",
          "name": "",
          "type": "uint256"
        }
      ],
      "stateMutability": "view",
      "type": "function"
    },
    {
      "inputs": [
        {
          "internalType": "string[]",
          "name": "_ips",
          "type": "string[]"
        }
      ],
      "name": "getThreatScores",
      "outputs": [
        {
          "internalType": "uint256[]",
          "name": "",
          "type": "uint256[]"
        }
      ],
      "stateMutability": "view",
      "type": "function"
    },
    {
      "inputs": [
        {
          "internalType": "string",
          "name": "",
          "type": "string"
        }
      ],
      "name": "isThreatIP",
      "outputs": [
        {
          "internalType": "bool",
          "name": "",
          "type": "bool"
        }
      ],
      "stateMutability": "view",
      "type": "function"
    },
    {
      "inputs": [
        {
          "internalType": "string",
          "name": "_ip",
          "type": "string"
        }
      ],
      "name": "isThreatSource",
      "outputs": [
        {
          "internalType": "bool",
          "name": "",
          "type": "bool"
        }
      ],
      "stateMutability": "view",
      "type": "function"
    },
    {
      "inputs": [
        {
          "internalType": "string",
          "name": "_ip",
          "type": "string"
        }
      ],
      "name": "removeThreatIntel",
      "outputs": [],
      "stateMutability": "nonpayable",
      "type": "function"
    },
    {
      "inputs": [
        {
          "internalType": "string",
          "name": "",
          "type": "string"
        }
      ],
      "name": "threatIntels",
      "outputs": [
        {
          "internalType": "string",
          "name": "sourceIP",
          "type": "string"
        },
        {
          "internalType": "string",
          "name": "targetIP",
          "type": "string"
        },
        {
          "internalType": "enum ThreatIntelligenceCoordination.ThreatLevel",
          "name": "threatLevel",
          "type": "uint8"
        },
        {
          "internalType": "uint256",
          "name": "timestamp",
          "type": "uint256"
        },
        {
          "internalType": "string",
          "name": "threatType",
          "type": "string"
        },
        {
          "internalType": "bool",
          "name": "isActive",
          "type": "bool"
        }
      ],
      "stateMutability": "view",
      "type": "function"
    },
    {
      "inputs": [
        {
          "internalType": "string",
          "name": "",
          "type": "string"
        }
      ],
      "name": "threatScores",
      "outputs": [
        {
          "internalType": "uint256",
          "name": "",
          "type": "uint256"
        }
      ],
      "stateMutability": "view",
      "type": "function"
    },
    {
      "inputs": [
        {
          "internalType": "string",
          "name": "_ip",
          "type": "string"
        },
        {
          "internalType": "uint256",
          "name": "_score",
          "type": "uint256"
        }
      ],
      "name": "updateThreatScore",
      "outputs": [],
      "stateMutability": "nonpayable",
      "type": "function"
    }
  ],
  "bytecode": "0x6080806040523461001657611378908161001c8239f35b600080fdfe6040608081526004908136101561001557600080fd5b600091823560e01c908163149cdd9914610ce85781632a592cff14610c4b5781632ec920c914610bea578163387d132514610a6b5781633da195cc146103445781634ee14a8d1461099557816352eee69a1461093457816360b3f7cd146108bf57816387e7ff95146108265781639d55cb291461073c578163a19b5f8d1461064c578163b64a71e3146103a3578163b832717a14610344578163bd1cbfd5146100e9575063fa1e7394146100c857600080fd5b346100e557816003193601126100e5576020906003549051908152f35b5080fd5b8383346100e5576020806003193601126103405783356001600160401b03811161033c5761011a9036908601610dd2565b82516005825191848181860194610132818388610e2d565b8101898152030190200160ff1990818154169055845184818551610157818388610e2d565b81016001815203019020908154169055835183818451610178818387610e2d565b8101898152030190205480151580610330575b6101c6575b5050906101bd7f0d06e35fac876e69e0d720d375f7b4d852cee07e4e59c9170cad871f37bf81c992611150565b9251428152a280f35b600354600019919082810190811161031d576101e46101ea9161108b565b50610eb0565b82820182811161030a578161020c61021e936102068a9461108b565b90611346565b81895193828580945193849201610e2d565b81018b8152030190205560035480156102f7570161023b8161108b565b6102e557846101bd9493889989947f0d06e35fac876e69e0d720d375f7b4d852cee07e4e59c9170cad871f37bf81c9999a8561027a6102969754610e76565b806102a9575b5050506003558951809481938851928391610e2d565b8201908152030190205590859493610190565b82601f82116001146102c1575050555b858d80610280565b90918082526102de601f898420940160051c84016001850161122a565b55556102b9565b634e487b7160e01b8752868852602487fd5b634e487b7160e01b875260318852602487fd5b634e487b7160e01b895260118a52602489fd5b634e487b7160e01b885260118952602488fd5b5060035481111561018b565b8380fd5b8280fd5b8284346103a05760203660031901126103a0578235906001600160401b0382116103a05750602061037c819461038e93369101610dd2565b81845193828580945193849201610e2d565b81016002815203019020549051908152f35b80fd5b8383346100e55760603660031901126100e5576001600160401b0390833582811161033c576103d59036908601610dd2565b90602435918583101561064857604435848111610644576103f99036908801610dd2565b90610406815115156111ba565b825161041181610d80565b8181528351602096878201908111828210176106315785528781528187019081528691858101919061044388846111fb565b60608101428152608082019087825260a0830193600185528c878b5180928b8281519c8d92019c610474918e610e2d565b82019081520301902093516104899085611241565b516104979060018501611241565b600283019451948d86101561061d57916104cd916005949360ff199760ff898354169116179055516003840155518d8301611241565b019051151560ff83835416911617905560018551888186516104f0818389610e2d565b81018481520301902091825416179055835186818451610511818387610e2d565b81018b815203019020541561057c575b50916105707f87bdc31b1bcec98e3bcc912354b27eb9f24fb60e3c33a4995a4dc319640a452b9492606061055761056396611150565b97845196878097610f7a565b8501526060840190610f55565b9042908301520390a280f35b6003546801000000000000000081101561060a576105578388999a6105f07f87bdc31b1bcec98e3bcc912354b27eb9f24fb60e3c33a4995a4dc319640a452b9a6105639a9998966105dc6105709961020689600160609b0160035561108b565b600354938a51809481938851928391610e2d565b820190815203019020559350505091929387969550610521565b634e487b7160e01b885260418952602488fd5b50634e487b7160e01b8c5260218d5260248cfd5b634e487b7160e01b895260418a52602489fd5b8580fd5b8480fd5b8383346100e557806003193601126100e557823592602435906003549081861015610702578161067c8488611207565b116106db575b505061068d81611170565b925b8181106106a7578251806106a386826110d8565b0390f35b806106bf6101e46106ba60019489611207565b61108b565b6106c9828761113c565b526106d4818661113c565b500161068f565b85820392509082116106ef57508480610682565b634e487b7160e01b845260119052602483fd5b606490602085519162461bcd60e51b835282015260146024820152734f6666736574206f7574206f6620626f756e647360601b6044820152fd5b8383346100e55760203660031901126100e55782356001600160401b03811161034057602061037c6107719236908701610dd2565b81018581520301902090805161078681610d80565b61078f83610eb0565b815261079d60018401610eb0565b926020820193845260ff600282015416946107bb84840196876111fb565b60038201546060840190815260ff60056107d68a8601610eb0565b94608087019586520154169360a0810194151585525195519651918883101561081357506106a39596975051915192511515935196879687610f9d565b634e487b7160e01b815260218952602490fd5b90503461034057816003193601126103405780356001600160401b03811161033c577f40c5eea1c520c4788adb7b4a4afe6fe8154919b4256274796cca5f0509af84179161087691369101610dd2565b916108af6024359361088a815115156111ba565b848351602081845161089f8183858901610e2d565b8101600281520301902055611150565b928151908152426020820152a280f35b839150346100e55760203660031901126100e55735916003549283811061092c575b506108eb83611170565b915b838110610901578151806106a385826110d8565b806109106101e460019361108b565b61091a828661113c565b52610925818561113c565b50016108ed565b9250836108e1565b8284346103a05760203660031901126103a05782356003548110156100e55761095c9061108b565b939093610983576106a38361097086610eb0565b9051918291602083526020830190610f55565b634e487b7160e01b8252819052602490fd5b839150346100e557602090816003193601126103405780356001600160401b03811161033c576109c79136910161100c565b928351916109ec6109d784610ff5565b936109e484519586610db1565b808552610ff5565b8382019190601f1901368337845b8651811015610a2b5780610a19610a136001938a61113c565b51610e50565b54610a24828861113c565b52016109fa565b509190848483519485948186019282875251809352850193925b828110610a5457505050500390f35b835185528695509381019392810192600101610a45565b839150346100e557826003193601126100e5576001600160401b03813581811161033c57610a9c903690840161100c565b60243591821161033c573660238301121561033c578183013592610abf84610ff5565b92610acc87519485610db1565b8484526020946024602086019160051b83010191368311610be6576024879101915b838310610bd657505050508151835103610b815750835b8151811015610b7d5780610b1b6001928561113c565b51610b29610a13838661113c565b55610b34818461113c565b517f40c5eea1c520c4788adb7b4a4afe6fe8154919b4256274796cca5f0509af841788610b6b610b64858961113c565b5193611150565b9281519081524289820152a201610b05565b8480f35b608490602087519162461bcd60e51b8352820152602960248201527f495020616e642073636f726520617272617973206d75737420686176652073616044820152680daca40d8cadccee8d60bb1b6064820152fd5b8235815291810191879101610aee565b8780fd5b8284346103a05760203660031901126103a0578235906001600160401b0382116103a05750610c366020610c24819560ff94369101610dd2565b81855193828580945193849201610e2d565b81016001815203019020541690519015158152f35b8383346100e55760203660031901126100e55782356001600160401b03811161034057602093610c7d91369101610dd2565b9181519060ff845192868181880195610c97818389610e2d565b8101600181520301902054169384610cb5575b505050519015158152f35b839450600592610cd392879260ff9651948593849251928391610e2d565b82019081520301902001541690838080610caa565b8284346103a05760203660031901126103a05782356001600160401b0381116100e55760206106a392610d21610d349336908801610dd2565b9082865194838680955193849201610e2d565b82019081520301902091610d4783610eb0565b92610d5460018201610eb0565b9460ff60028301541660ff6005610d716003860154948601610eb0565b94015416935196879687610f9d565b60c081019081106001600160401b03821117610d9b57604052565b634e487b7160e01b600052604160045260246000fd5b90601f801991011681019081106001600160401b03821117610d9b57604052565b81601f82011215610e28578035906001600160401b038211610d9b5760405192610e06601f8401601f191660200185610db1565b82845260208383010111610e2857816000926020809301838601378301015290565b600080fd5b60005b838110610e405750506000910152565b8181015183820152602001610e30565b6020610e69918160405193828580945193849201610e2d565b8101600281520301902090565b90600182811c92168015610ea6575b6020831014610e9057565b634e487b7160e01b600052602260045260246000fd5b91607f1691610e85565b90604051918260008254610ec381610e76565b90818452602094600191600181169081600014610f335750600114610ef4575b505050610ef292500383610db1565b565b600090815285812095935091905b818310610f1b575050610ef29350820101388080610ee3565b85548884018501529485019487945091830191610f02565b92505050610ef294925060ff191682840152151560051b820101388080610ee3565b90602091610f6e81518092818552858086019101610e2d565b601f01601f1916010190565b906004821015610f875752565b634e487b7160e01b600052602160045260246000fd5b949093610fdb610fd0610fed9594610fc260a0989b9a9b60c08b5260c08b0190610f55565b9089820360208b0152610f55565b936040880190610f7a565b60608601528482036080860152610f55565b931515910152565b6001600160401b038111610d9b5760051b60200190565b81601f82011215610e285780359160209161102684610ff5565b936110346040519586610db1565b808552838086019160051b83010192808411610e2857848301915b84831061105f5750505050505090565b82356001600160401b038111610e2857869161108084848094890101610dd2565b81520192019161104f565b6003548110156110c25760036000527fc2575a0e9e593c00f959f8c92f12db2869c3395a3b0502d05e2516446f71f85b0190600090565b634e487b7160e01b600052603260045260246000fd5b6020808201906020835283518092526040830192602060408460051b8301019501936000915b84831061110e5750505050505090565b909192939495848061112c600193603f198682030187528a51610f55565b98019301930191949392906110fe565b80518210156110c25760209160051b010190565b61116890602060405192828480945193849201610e2d565b810103902090565b9061117a82610ff5565b6111876040519182610db1565b8281528092611198601f1991610ff5565b019060005b8281106111a957505050565b80606060208093850101520161119d565b156111c157565b60405162461bcd60e51b815260206004820152601260248201527149502063616e6e6f7420626520656d70747960701b6044820152606490fd5b6004821015610f875752565b9190820180921161121457565b634e487b7160e01b600052601160045260246000fd5b818110611235575050565b6000815560010161122a565b91909182516001600160401b038111610d9b5761125e8254610e76565b601f8111611309575b50602080601f83116001146112a4575081929394600092611299575b50508160011b916000199060031b1c1916179055565b015190503880611283565b90601f19831695846000526020600020926000905b8882106112f1575050836001959697106112d8575b505050811b019055565b015160001960f88460031b161c191690553880806112ce565b806001859682949686015181550195019301906112b9565b61133690836000526020600020601f840160051c8101916020851061133c575b601f0160051c019061122a565b38611267565b9091508190611329565b919061135557610ef291611241565b634e487b7160e01b600052600060045260246000fdfea164736f6c6343000818000a",
  "linkReferences": {},
  "deployedLinkReferences": {}
}