{
  "_format": "hh-sol-artifact-1",
  "contractName": "ThreatIntelligenceCoordination",
  "sourceName": "contracts/ThreatIntelligenceCoordination.sol",
  "abi": [
    {
      "inputs": [],
      "stateMutability": "nonpayable",
      "type": "constructor"
    },
    {
      "anonymous": false,
      "inputs": [
        {
          "indexed": true,
          "internalType": "string",
          "name": "ip",
          "type": "string"
        },
        {
          "indexed": false,
          "internalType": "enum ThreatIntelligenceCoordination.ThreatLevel",
          "name": "level",
          "type": "uint8"
        },
        {
          "indexed": false,
          "internalType": "string",
          "name": "threatType",
          "type": "string"
        },
        {
          "indexed": false,
          "internalType": "uint256",
          "name": "timestamp",
          "type": "uint256"
        }
      ],
      "name": "ThreatIntelAdded",
      "type": "event"
    },
    {
      "anonymous": false,
      "inputs": [
        {
          "indexed": true,
          "internalType": "string",
          "name": "ip",
          "type": "string"
        },
        {
          "indexed": false,
          "internalType": "uint256",
          "name": "timestamp",
          "type": "uint256"
        }
      ],
      "name": "ThreatIntelRemoved",
      "type": "event"
    },
    {
      "anonymous": false,
      "inputs": [
        {
          "indexed": true,
          "internalType": "string",
          "name": "ip",
          "type": "string"
        },
        {
          "indexed": false,
          "internalType": "uint256",
          "name": "score",
          "type": "uint256"
        },
        {
          "indexed": false,
          "internalType": "uint256",
          "name": "timestamp",
          "type": "uint256"
        }
      ],
      "name": "ThreatScoreUpdated",
      "type": "event"
    },
    {
      "inputs": [
        {
          "internalType": "string",
          "name": "_ip",
          "type": "string"
        },
        {
          "internalType": "enum ThreatIntelligenceCoordination.ThreatLevel",
          "name": "_threatLevel",
          "type": "uint8"
        },
        {
          "internalType": "string",
          "name": "_threatType",
          "type": "string"
        }
      ],
      "name": "addThreatIntel",
      "outputs": [],
      "stateMutability": "nonpayable",
      "type": "function"
    },
    {
      "inputs": [
        {
          "internalType": "string[]",
          "name": "_ips",
          "type": "string[]"
        },
        {
          "internalType": "uint256[]",
          "name": "_scores",
          "type": "uint256[]"
        }
      ],
      "name": "batchUpdateThreatScores",
      "outputs": [],
      "stateMutability": "nonpayable",
      "type": "function"
    },
    {
      "inputs": [
        {
          "internalType": "string",
          "name": "_ip",
          "type": "string"
        }
      ],
      "name": "getThreatIntel",
      "outputs": [
        {
          "internalType": "string",
          "name": "sourceIP",
          "type": "string"
        },
        {
          "internalType": "string",
          "name": "targetIP",
          "type": "string"
        },
        {
          "internalType": "enum ThreatIntelligenceCoordination.ThreatLevel",
          "name": "threatLevel",
          "type": "uint8"
        },
        {
          "internalType": "uint256",
          "name": "timestamp",
          "type": "uint256"
        },
        {
          "internalType": "string",
          "name": "threatType",
          "type": "string"
        },
        {
          "internalType": "bool",
          "name": "isActive",
          "type": "bool"
        }
      ],
      "stateMutability": "view",
      "type": "function"
    },
    {
      "inputs": [
        {
          "internalType": "string",
          "name": "_ip",
          "type": "string"
        }
      ],
      "name": "getThreatScore",
      "outputs": [
        {
          "internalType": "uint256",
          "name": "",
          "type": "uint256"
        }
      ],
      "stateMutability": "view",
      "type": "function"
    },
    {
      "inputs": [
        {
          "internalType": "string[]",
          "name": "_ips",
          "type": "string[]"
        }
      ],
      "name": "getThreatScores",
      "outputs": [
        {
          "internalType": "uint256[]",
          "name": "",
          "type": "uint256[]"
        }
      ],
      "stateMutability": "view",
      "type": "function"
    },
    {
      "inputs": [
        {
          "internalType": "string",
          "name": "",
          "type": "string"
        }
      ],
      "name": "isThreatIP",
      "outputs": [
        {
          "internalType": "bool",
          "name": "",
          "type": "bool"
        }
      ],
      "stateMutability": "view",
      "type": "function"
    },
    {
      "inputs": [
        {
          "internalType": "string",
          "name": "_ip",
          "type": "string"
        }
      ],
      "name": "isThreatSource",
      "outputs": [
        {
          "internalType": "bool",
          "name": "",
          "type": "bool"
        }
      ],
      "stateMutability": "view",
      "type": "function"
    },
    {
      "inputs": [
        {
          "internalType": "string",
          "name": "_ip",
          "type": "string"
        }
      ],
      "name": "removeThreatIntel",
      "outputs": [],
      "stateMutability": "nonpayable",
      "type": "function"
    },
    {
      "inputs": [
        {
          "internalType": "string",
          "name": "",
          "type": "string"
        }
      ],
      "name": "threatIntels",
      "outputs": [
        {
          "internalType": "string",
          "name": "sourceIP",
          "type": "string"
        },
        {
          "internalType": "string",
          "name": "targetIP",
          "type": "string"
        },
        {
          "internalType": "enum ThreatIntelligenceCoordination.ThreatLevel",
          "name": "threatLevel",
          "type": "uint8"
        },
        {
          "internalType": "uint256",
          "name": "timestamp",
          "type": "uint256"
        },
        {
          "internalType": "string",
          "name": "threatType",
          "type": "string"
        },
        {
          "internalType": "bool",
          "name": "isActive",
          "type": "bool"
        }
      ],
      "stateMutability": "view",
      "type": "function"
    },
    {
      "inputs": [
        {
          "internalType": "string",
          "name": "",
          "type": "string"
        }
      ],
      "name": "threatScores",
      "outputs": [
        {
          "internalType": "uint256",
          "name": "",
          "type": "uint256"
        }
      ],
      "stateMutability": "view",
      "type": "function"
    },
    {
      "inputs": [
        {
          "internalType": "string",
          "name": "_ip",
          "type": "string"
        },
        {
          "internalType": "uint256",
          "name": "_score",
          "type": "uint256"
        }
      ],
      "name": "updateThreatScore",
      "outputs": [],
      "stateMutability": "nonpayable",
      "type": "function"
    }
  ],
  "bytecode": "0x6080806040523461001657610fd2908161001c8239f35b600080fdfe6080604052600436101561001257600080fd5b60003560e01c8063149cdd9914610bcd5780632a592cff14610b325780632ec920c914610ae4578063387d1325146109665780633da195cc146101535780634ee14a8d1461088c57806387e7ff95146107f25780639d55cb2914610714578063b64a71e3146101af578063b832717a146101535763bd1cbfd51461009557600080fd5b3461014e57602036600319011261014e576004356001600160401b03811161014e576100c8610122913690600401610c90565b60405161010d602060058451938281818801966100e681838a610ce6565b81016000815203019020019260ff1993848154169055604051809381928751928391610ce6565b81016001815203019020908154169055610f58565b7f0d06e35fac876e69e0d720d375f7b4d852cee07e4e59c9170cad871f37bf81c96020604051428152a2005b600080fd5b3461014e57602036600319011261014e576004356001600160401b03811161014e5761019c602061018981933690600401610c90565b8160405193828580945193849201610ce6565b8101600281520301902054604051908152f35b3461014e57606036600319011261014e576004356001600160401b03811161014e576101df903690600401610c90565b6004602435101561014e576044356001600160401b03811161014e57610209903690600401610c90565b9061021681511515610f78565b60405161022281610c54565b818152604051602081018181106001600160401b038211176105515760405260008152602082015261025960243560408301610fb9565b426060820152826080820152600160a082015260405160208184516102818183858901610ce6565b8101600081520301902081518051906001600160401b0382116105515781906102aa8454610d2f565b601f81116106c4575b50602090601f83116001146106585760009261064d575b50508160011b916000199060031b1c19161781555b60208201518051906001600160401b0382116105515781906103046001850154610d2f565b601f81116105fa575b50602090601f83116001146105885760009261057d575b50508160011b916000199060031b1c19161760018201555b60028101604083015160048110156105675760ff801983541691161790556060820151600382015560808201518051906001600160401b038211610551576103876004840154610d2f565b601f811161050a575b50602090601f831160011461046c57600561043294847f87bdc31b1bcec98e3bcc912354b27eb9f24fb60e3c33a4995a4dc319640a452b9895610456989560a095600092610461575b50508160011b916000199060031b1c19161760048201555b01910151151560ff8019835416911617905560405160208183516104188183858801610ce6565b81016001815203019020600160ff19825416179055610f58565b9260405191829161044583602435610e33565b606060208401526060830190610e0e565b4260408301520390a2005b015190508b806103d9565b906004840160005260206000209160005b601f19851681106104f2575061043294600185610456989560a0956005957f87bdc31b1bcec98e3bcc912354b27eb9f24fb60e3c33a4995a4dc319640a452b9c99601f198116106104d9575b505050811b0160048201556103f1565b015160001960f88460031b161c191690558b80806104c9565b9192602060018192868501518155019401920161047d565b600484016000526020600020601f840160051c81016020851061054a575b601f830160051c8201811061053e575050610390565b60008155600101610528565b5080610528565b634e487b7160e01b600052604160045260246000fd5b634e487b7160e01b600052602160045260246000fd5b015190508680610324565b9250600184016000526020600020906000935b601f19841685106105df576001945083601f198116106105c6575b505050811b01600182015561033c565b015160001960f88460031b161c191690558680806105b6565b8181015183556020948501946001909301929091019061059b565b909150600184016000526020600020601f840160051c810160208510610646575b90849392915b601f830160051c8201811061063757505061030d565b60008155859450600101610621565b508061061b565b0151905086806102ca565b9250836000526020600020906000935b601f19841685106106a9576001945083601f19811610610690575b505050811b0181556102df565b015160001960f88460031b161c19169055868080610683565b81810151835560209485019460019093019290910190610668565b909150836000526020600020601f840160051c81016020851061070d575b90849392915b601f830160051c820181106106fe5750506102b3565b600081558594506001016106e8565b50806106e2565b3461014e57602036600319011261014e576004356001600160401b03811161014e576020610189610749923690600401610c90565b8101600081520301902060405161075f81610c54565b61076882610d69565b815261077660018301610d69565b906020810191825260ff60028401541692610795604083019485610fb9565b6003810154916060810192835260ff60056107b260048501610d69565b93608084019485520154169060a0810191151582525193519451916004831015610567576107ee93519051915115159260405196879687610e40565b0390f35b3461014e57604036600319011261014e576004356001600160401b03811161014e57610822903690600401610c90565b7f40c5eea1c520c4788adb7b4a4afe6fe8154919b4256274796cca5f0509af8417604061087d6024359361085881511515610f78565b848351602081845161086d8183858901610ce6565b8101600281520301902055610f58565b928151908152426020820152a2005b3461014e5760208060031936011261014e576004356001600160401b03811161014e576108bd903690600401610eaf565b9081516108e26108cc82610e98565b916108da6040519384610c6f565b808352610e98565b8183019290601f190136843760005b8451811015610922578061091061090a60019388610f2e565b51610d09565b5461091b8286610f2e565b52016108f1565b50925090604051928392818401908285525180915260408401929160005b82811061094f57505050500390f35b835185528695509381019392810192600101610940565b3461014e57604036600319011261014e576001600160401b0360043581811161014e57610997903690600401610eaf565b9060243590811161014e573660238201121561014e5780600401356109bb81610e98565b916109c96040519384610c6f565b8183526020916024602085019160051b8301019136831161014e576024849101915b838310610ad457505050508251825103610a7d5760005b8351811015610a7b5780610a1860019285610f2e565b51610a2661090a8388610f2e565b55610a318186610f2e565b517f40c5eea1c520c4788adb7b4a4afe6fe8154919b4256274796cca5f0509af84176040610a69610a628589610f2e565b5193610f58565b9281519081524287820152a201610a02565b005b60405162461bcd60e51b815260206004820152602960248201527f495020616e642073636f726520617272617973206d75737420686176652073616044820152680daca40d8cadccee8d60bb1b6064820152608490fd5b82358152918101918491016109eb565b3461014e57602036600319011261014e576004356001600160401b03811161014e5760ff610b1c602061018981943690600401610c90565b8101600181520301902054166040519015158152f35b3461014e57602036600319011261014e576004356001600160401b03811161014e57610b646020913690600401610c90565b60405160ff825191848181860194610b7d818388610ce6565b8101600181520301902054169182610b9c575b50506040519015158152f35b60ff925083600592610bb992604051938492839251928391610ce6565b810160008152030190200154168280610b90565b3461014e57602036600319011261014e576004356001600160401b03811161014e576020610189610c02923690600401610c90565b81016000815203019020610c1581610d69565b6107ee610c2460018401610d69565b9260ff60028201541690600381015460ff6005610c4360048501610d69565b930154169260405196879687610e40565b60c081019081106001600160401b0382111761055157604052565b90601f801991011681019081106001600160401b0382111761055157604052565b81601f8201121561014e578035906001600160401b0382116105515760405192610cc4601f8401601f191660200185610c6f565b8284526020838301011161014e57816000926020809301838601378301015290565b60005b838110610cf95750506000910152565b8181015183820152602001610ce9565b6020610d22918160405193828580945193849201610ce6565b8101600281520301902090565b90600182811c92168015610d5f575b6020831014610d4957565b634e487b7160e01b600052602260045260246000fd5b91607f1691610d3e565b90604051918260008254610d7c81610d2f565b90818452602094600191600181169081600014610dec5750600114610dad575b505050610dab92500383610c6f565b565b600090815285812095935091905b818310610dd4575050610dab9350820101388080610d9c565b85548884018501529485019487945091830191610dbb565b92505050610dab94925060ff191682840152151560051b820101388080610d9c565b90602091610e2781518092818552858086019101610ce6565b601f01601f1916010190565b9060048210156105675752565b949093610e7e610e73610e909594610e6560a0989b9a9b60c08b5260c08b0190610e0e565b9089820360208b0152610e0e565b936040880190610e33565b60608601528482036080860152610e0e565b931515910152565b6001600160401b0381116105515760051b60200190565b81601f8201121561014e57803591602091610ec984610e98565b93610ed76040519586610c6f565b808552838086019160051b8301019280841161014e57848301915b848310610f025750505050505090565b82356001600160401b03811161014e578691610f2384848094890101610c90565b815201920191610ef2565b8051821015610f425760209160051b010190565b634e487b7160e01b600052603260045260246000fd5b610f7090602060405192828480945193849201610ce6565b810103902090565b15610f7f57565b60405162461bcd60e51b815260206004820152601260248201527149502063616e6e6f7420626520656d70747960701b6044820152606490fd5b6004821015610567575256fea164736f6c6343000818000a",
  "linkReferences": {},
  "deployedLinkReferences": {}
}