{
  "_format": "hh-sol-artifact-1",
  "contractName": "ThreatIntelligenceCoordination",
  "sourceName": "contracts/ThreatIntelligenceCoordination.sol",
  "abi": [
    {
      "inputs": [],
      "stateMutability": "nonpayable",
      "type": "constructor"
    },
    {
      "anonymous": false,
      "inputs": [
        {
          "indexed": true,
          "internalType": "string",
          "name": "ip",
          "type": "string"
        },
        {
          "indexed": false,
          "internalType": "enum ThreatIntelligenceCoordination.ThreatLevel",
          "name": "level",
          "type": "uint8"
        },
        {
          "indexed": false,
          "internalType": "string",
          "name": "threatType",
          "type": "string"
        },
        {
          "indexed": false,
          "internalType": "uint256",
          "name": "timestamp",
          "type": "uint256"
        }
      ],
      "name": "ThreatIntelAdded",
      "type": "event"
    },
    {
      "anonymous": false,
      "inputs": [
        {
          "indexed": true,
          "internalType": "string",
          "name": "ip",
          "type": "string"
        },
        {
          "indexed": false,
          "internalType": "uint256",
          "name": "timestamp",
          "type": "uint256"
        }
      ],
      "name": "ThreatIntelRemoved",
      "type": "event"
    },
    {
      "inputs": [
        {
          "internalType": "string",
          "name": "_ip",
          "type": "string"
        },
        {
          "internalType": "enum ThreatIntelligenceCoordination.ThreatLevel",
          "name": "_threatLevel",
          "type": "uint8"
        },
        {
          "internalType": "string",
          "name": "_threatType",
          "type": "string"
        }
      ],
      "name": "addThreatIntel",
      "outputs": [],
      "stateMutability": "nonpayable",
      "type": "function"
    },
    {
      "inputs": [
        {
          "internalType": "string",
          "name": "_ip",
          "type": "string"
        }
      ],
      "name": "getThreatIntel",
      "outputs": [
        {
          "internalType": "string",
          "name": "sourceIP",
          "type": "string"
        },
        {
          "internalType": "string",
          "name": "targetIP",
          "type": "string"
        },
        {
          "internalType": "enum ThreatIntelligenceCoordination.ThreatLevel",
          "name": "threatLevel",
          "type": "uint8"
        },
        {
          "internalType": "uint256",
          "name": "timestamp",
          "type": "uint256"
        },
        {
          "internalType": "string",
          "name": "threatType",
          "type": "string"
        },
        {
          "internalType": "bool",
          "name": "isActive",
          "type": "bool"
        }
      ],
      "stateMutability": "view",
      "type": "function"
    },
    {
      "inputs": [
        {
          "internalType": "string",
          "name": "",
          "type": "string"
        }
      ],
      "name": "isThreatIP",
      "outputs": [
        {
          "internalType": "bool",
          "name": "",
          "type": "bool"
        }
      ],
      "stateMutability": "view",
      "type": "function"
    },
    {
      "inputs": [
        {
          "internalType": "string",
          "name": "_ip",
          "type": "string"
        }
      ],
      "name": "isThreatSource",
      "outputs": [
        {
          "internalType": "bool",
          "name": "",
          "type": "bool"
        }
      ],
      "stateMutability": "view",
      "type": "function"
    },
    {
      "inputs": [
        {
          "internalType": "string",
          "name": "_ip",
          "type": "string"
        }
      ],
      "name": "removeThreatIntel",
      "outputs": [],
      "stateMutability": "nonpayable",
      "type": "function"
    },
    {
      "inputs": [
        {
          "internalType": "string",
          "name": "",
          "type": "string"
        }
      ],
      "name": "threatIntels",
      "outputs": [
        {
          "internalType": "string",
          "name": "sourceIP",
          "type": "string"
        },
        {
          "internalType": "string",
          "name": "targetIP",
          "type": "string"
        },
        {
          "internalType": "enum ThreatIntelligenceCoordination.ThreatLevel",
          "name": "threatLevel",
          "type": "uint8"
        },
        {
          "internalType": "uint256",
          "name": "timestamp",
          "type": "uint256"
        },
        {
          "internalType": "string",
          "name": "threatType",
          "type": "string"
        },
        {
          "internalType": "bool",
          "name": "isActive",
          "type": "bool"
        }
      ],
      "stateMutability": "view",
      "type": "function"
    }
  ],
  "bytecode": "0x6080806040523461001657610b6e908161001c8239f35b600080fdfe6080604052600436101561001257600080fd5b60003560e01c8063149cdd99146108905780632a592cff146107f55780632ec920c9146107a75780639d55cb29146106b6578063b64a71e31461011c5763bd1cbfd51461005e57600080fd5b34610117576020366003190112610117576004356001600160401b038111610117576100916100eb913690600401610953565b6040516100d6602060058451938281818801966100af81838a6109a9565b81016000815203019020019260ff19938481541690556040518093819287519283916109a9565b81016001815203019020908154169055610b41565b7f0d06e35fac876e69e0d720d375f7b4d852cee07e4e59c9170cad871f37bf81c96020604051428152a2005b600080fd5b34610117576060366003190112610117576004356001600160401b0381116101175761014c903690600401610953565b60046024351015610117576044356001600160401b03811161011757610176903690600401610953565b9080511561067c5760405161018a81610917565b818152604051602081018181106001600160401b038211176104b9576040526000815260208201526101c160243560408301610b35565b426060820152826080820152600160a082015260405160208184516101e981838589016109a9565b8101600081520301902081518051906001600160401b0382116104b957819061021284546109cc565b601f811161062c575b50602090601f83116001146105c0576000926105b5575b50508160011b916000199060031b1c19161781555b60208201518051906001600160401b0382116104b957819061026c60018501546109cc565b601f8111610562575b50602090601f83116001146104f0576000926104e5575b50508160011b916000199060031b1c19161760018201555b60028101604083015160048110156104cf5760ff801983541691161790556060820151600382015560808201518051906001600160401b0382116104b9576102ef60048401546109cc565b601f8111610472575b50602090601f83116001146103d457600561039a94847f87bdc31b1bcec98e3bcc912354b27eb9f24fb60e3c33a4995a4dc319640a452b98956103be989560a0956000926103c9575b50508160011b916000199060031b1c19161760048201555b01910151151560ff80198354169116179055604051602081835161038081838588016109a9565b81016001815203019020600160ff19825416179055610b41565b926040519182916103ad83602435610ad0565b606060208401526060830190610aab565b4260408301520390a2005b015190508b80610341565b906004840160005260206000209160005b601f198516811061045a575061039a946001856103be989560a0956005957f87bdc31b1bcec98e3bcc912354b27eb9f24fb60e3c33a4995a4dc319640a452b9c99601f19811610610441575b505050811b016004820155610359565b015160001960f88460031b161c191690558b8080610431565b919260206001819286850151815501940192016103e5565b600484016000526020600020601f840160051c8101602085106104b2575b601f830160051c820181106104a65750506102f8565b60008155600101610490565b5080610490565b634e487b7160e01b600052604160045260246000fd5b634e487b7160e01b600052602160045260246000fd5b01519050868061028c565b9250600184016000526020600020906000935b601f1984168510610547576001945083601f1981161061052e575b505050811b0160018201556102a4565b015160001960f88460031b161c1916905586808061051e565b81810151835560209485019460019093019290910190610503565b909150600184016000526020600020601f840160051c8101602085106105ae575b90849392915b601f830160051c8201811061059f575050610275565b60008155859450600101610589565b5080610583565b015190508680610232565b9250836000526020600020906000935b601f1984168510610611576001945083601f198116106105f8575b505050811b018155610247565b015160001960f88460031b161c191690558680806105eb565b818101518355602094850194600190930192909101906105d0565b909150836000526020600020601f840160051c810160208510610675575b90849392915b601f830160051c8201811061066657505061021b565b60008155859450600101610650565b508061064a565b60405162461bcd60e51b815260206004820152601260248201527149502063616e6e6f7420626520656d70747960701b6044820152606490fd5b34610117576020366003190112610117576004356001600160401b0381116101175760206106eb6106fe923690600401610953565b81604051938285809451938492016109a9565b8101600081520301902060405161071481610917565b61071d82610a06565b815261072b60018301610a06565b906020810191825260ff6002840154169261074a604083019485610b35565b6003810154916060810192835260ff600561076760048501610a06565b93608084019485520154169060a08101911515825251935194519160048310156104cf576107a393519051915115159260405196879687610add565b0390f35b34610117576020366003190112610117576004356001600160401b0381116101175760ff6107df60206106eb81943690600401610953565b8101600181520301902054166040519015158152f35b34610117576020366003190112610117576004356001600160401b038111610117576108276020913690600401610953565b60405160ff8251918481818601946108408183886109a9565b810160018152030190205416918261085f575b50506040519015158152f35b60ff92508360059261087c926040519384928392519283916109a9565b810160008152030190200154168280610853565b34610117576020366003190112610117576004356001600160401b0381116101175760206106eb6108c5923690600401610953565b810160008152030190206108d881610a06565b6107a36108e760018401610a06565b9260ff60028201541690600381015460ff600561090660048501610a06565b930154169260405196879687610add565b60c081019081106001600160401b038211176104b957604052565b90601f801991011681019081106001600160401b038211176104b957604052565b81601f82011215610117578035906001600160401b0382116104b95760405192610987601f8401601f191660200185610932565b8284526020838301011161011757816000926020809301838601378301015290565b60005b8381106109bc5750506000910152565b81810151838201526020016109ac565b90600182811c921680156109fc575b60208310146109e657565b634e487b7160e01b600052602260045260246000fd5b91607f16916109db565b90604051918260008254610a19816109cc565b90818452602094600191600181169081600014610a895750600114610a4a575b505050610a4892500383610932565b565b600090815285812095935091905b818310610a71575050610a489350820101388080610a39565b85548884018501529485019487945091830191610a58565b92505050610a4894925060ff191682840152151560051b820101388080610a39565b90602091610ac4815180928185528580860191016109a9565b601f01601f1916010190565b9060048210156104cf5752565b949093610b1b610b10610b2d9594610b0260a0989b9a9b60c08b5260c08b0190610aab565b9089820360208b0152610aab565b936040880190610ad0565b60608601528482036080860152610aab565b931515910152565b60048210156104cf5752565b610b59906020604051928284809451938492016109a9565b81010390209056fea164736f6c6343000818000a",
  "linkReferences": {},
  "deployedLinkReferences": {}
}