{
  "_format": "hh-sol-artifact-1",
  "contractName": "FaucetUpgradeable",
  "sourceName": "contracts/FaucetUpgradeable.sol",
  "abi": [
    {
      "inputs": [
        {
          "internalType": "address",
          "name": "_oraToken",
          "type": "address"
        }
      ],
      "stateMutability": "nonpayable",
      "type": "constructor"
    },
    {
      "inputs": [
        {
          "internalType": "address",
          "name": "owner",
          "type": "address"
        }
      ],
      "name": "OwnableInvalidOwner",
      "type": "error"
    },
    {
      "inputs": [
        {
          "internalType": "address",
          "name": "account",
          "type": "address"
        }
      ],
      "name": "OwnableUnauthorizedAccount",
      "type": "error"
    },
    {
      "anonymous": false,
      "inputs": [
        {
          "indexed": false,
          "internalType": "uint256",
          "name": "newPeriod",
          "type": "uint256"
        }
      ],
      "name": "CooldownPeriodChanged",
      "type": "event"
    },
    {
      "anonymous": false,
      "inputs": [
        {
          "indexed": true,
          "internalType": "address",
          "name": "previousOwner",
          "type": "address"
        },
        {
          "indexed": true,
          "internalType": "address",
          "name": "newOwner",
          "type": "address"
        }
      ],
      "name": "OwnershipTransferred",
      "type": "event"
    },
    {
      "anonymous": false,
      "inputs": [
        {
          "indexed": true,
          "internalType": "address",
          "name": "sender",
          "type": "address"
        },
        {
          "indexed": false,
          "internalType": "uint256",
          "name": "amount",
          "type": "uint256"
        }
      ],
      "name": "TokensDeposited",
      "type": "event"
    },
    {
      "anonymous": false,
      "inputs": [
        {
          "indexed": true,
          "internalType": "address",
          "name": "recipient",
          "type": "address"
        },
        {
          "indexed": false,
          "internalType": "uint256",
          "name": "amount",
          "type": "uint256"
        }
      ],
      "name": "TokensWithdrawn",
      "type": "event"
    },
    {
      "anonymous": false,
      "inputs": [
        {
          "indexed": false,
          "internalType": "uint256",
          "name": "newLimit",
          "type": "uint256"
        }
      ],
      "name": "WithdrawalLimitChanged",
      "type": "event"
    },
    {
      "inputs": [
        {
          "internalType": "address[]",
          "name": "recipients",
          "type": "address[]"
        }
      ],
      "name": "batchDistribute",
      "outputs": [],
      "stateMutability": "nonpayable",
      "type": "function"
    },
    {
      "inputs": [
        {
          "internalType": "address",
          "name": "account",
          "type": "address"
        }
      ],
      "name": "canWithdraw",
      "outputs": [
        {
          "internalType": "bool",
          "name": "",
          "type": "bool"
        }
      ],
      "stateMutability": "view",
      "type": "function"
    },
    {
      "inputs": [],
      "name": "cooldownPeriod",
      "outputs": [
        {
          "internalType": "uint256",
          "name": "",
          "type": "uint256"
        }
      ],
      "stateMutability": "view",
      "type": "function"
    },
    {
      "inputs": [
        {
          "internalType": "uint256",
          "name": "amount",
          "type": "uint256"
        }
      ],
      "name": "depositTokens",
      "outputs": [],
      "stateMutability": "nonpayable",
      "type": "function"
    },
    {
      "inputs": [],
      "name": "faucetBalance",
      "outputs": [
        {
          "internalType": "uint256",
          "name": "",
          "type": "uint256"
        }
      ],
      "stateMutability": "view",
      "type": "function"
    },
    {
      "inputs": [
        {
          "internalType": "address",
          "name": "",
          "type": "address"
        }
      ],
      "name": "lastWithdrawal",
      "outputs": [
        {
          "internalType": "uint256",
          "name": "",
          "type": "uint256"
        }
      ],
      "stateMutability": "view",
      "type": "function"
    },
    {
      "inputs": [],
      "name": "oraToken",
      "outputs": [
        {
          "internalType": "contract IERC20",
          "name": "",
          "type": "address"
        }
      ],
      "stateMutability": "view",
      "type": "function"
    },
    {
      "inputs": [],
      "name": "owner",
      "outputs": [
        {
          "internalType": "address",
          "name": "",
          "type": "address"
        }
      ],
      "stateMutability": "view",
      "type": "function"
    },
    {
      "inputs": [],
      "name": "renounceOwnership",
      "outputs": [],
      "stateMutability": "nonpayable",
      "type": "function"
    },
    {
      "inputs": [
        {
          "internalType": "uint256",
          "name": "newPeriod",
          "type": "uint256"
        }
      ],
      "name": "setCooldownPeriod",
      "outputs": [],
      "stateMutability": "nonpayable",
      "type": "function"
    },
    {
      "inputs": [
        {
          "internalType": "uint256",
          "name": "newAmount",
          "type": "uint256"
        }
      ],
      "name": "setWithdrawAmount",
      "outputs": [],
      "stateMutability": "nonpayable",
      "type": "function"
    },
    {
      "inputs": [
        {
          "internalType": "address",
          "name": "account",
          "type": "address"
        }
      ],
      "name": "timeToNextWithdraw",
      "outputs": [
        {
          "internalType": "uint256",
          "name": "",
          "type": "uint256"
        }
      ],
      "stateMutability": "view",
      "type": "function"
    },
    {
      "inputs": [
        {
          "internalType": "address",
          "name": "newOwner",
          "type": "address"
        }
      ],
      "name": "transferOwnership",
      "outputs": [],
      "stateMutability": "nonpayable",
      "type": "function"
    },
    {
      "inputs": [],
      "name": "withdrawAmount",
      "outputs": [
        {
          "internalType": "uint256",
          "name": "",
          "type": "uint256"
        }
      ],
      "stateMutability": "view",
      "type": "function"
    },
    {
      "inputs": [],
      "name": "withdrawETH",
      "outputs": [],
      "stateMutability": "nonpayable",
      "type": "function"
    },
    {
      "inputs": [
        {
          "internalType": "uint256",
          "name": "amount",
          "type": "uint256"
        }
      ],
      "name": "withdrawFaucetBalance",
      "outputs": [],
      "stateMutability": "nonpayable",
      "type": "function"
    },
    {
      "inputs": [],
      "name": "withdrawTokens",
      "outputs": [],
      "stateMutability": "nonpayable",
      "type": "function"
    },
    {
      "stateMutability": "payable",
      "type": "receive"
    }
  ],
  "bytecode": "0x60803461012657601f610da538819003918201601f19168301916001600160401b0383118484101761012b5780849260209460405283398101031261012657516001600160a01b038082169182900361012657331561010d576000549060018060a01b0319913383821617600055604051913391167f8be0079c531659141344cd1fd0a4f28419497f9722a3daafe3b4186f6b6457e0600080a382156100cb57506001541617600155683635c9adc5dea0000060025562015180600355604051610c6390816101428239f35b62461bcd60e51b815260206004820152601c60248201527f546f6b656e20616464726573732063616e6e6f74206265207a65726f000000006044820152606490fd5b604051631e4fbdf760e01b815260006004820152602490fd5b600080fd5b634e487b7160e01b600052604160045260246000fdfe60406080815260048036101561001f575b5050361561001d57600080fd5b005b600091823560e01c806301b5d703146109f257806304646a49146109d35780631720f5d21461093c57806319262d30146108f3578063534844a2146108d4578063715018a61461087a57806380ea3de11461082c5780638d8f2adb146106855780638da5cb5b1461065d578063b267250f14610625578063bb4abe1e146105fc578063bed24c2414610398578063ceb04e2914610301578063dd49756e146101ff578063e086e5ec146101b5578063ebe6c9ff146101775763f2fde38b146100e75750610010565b34610173576020366003190112610173576001600160a01b0382358181169391929084900361016f57610118610c2a565b831561015957505082546001600160a01b0319811683178455167f8be0079c531659141344cd1fd0a4f28419497f9722a3daafe3b4186f6b6457e08380a380f35b51631e4fbdf760e01b8152908101849052602490fd5b8480fd5b8280fd5b5090346101735760203660031901126101735780356001600160a01b038116908190036101b1579282916020948252845220549051908152f35b8380fd5b8382346101fb57816003193601126101fb576101cf610c2a565b81808080478181156101f2575b3390f1156101e8575080f35b51903d90823e3d90fd5b506108fc6101dc565b5080fd5b503461017357602090816003193601126101b15782359261021e610c2a565b60015482516323b872dd60e01b8152338382015230602482015260448101869052908490829060649082908a906001600160a01b03165af19081156102f75786916102ca575b50156102985750907f59062170a285eb80e8c6b8ced60428442a51910635005233fc4ce084a475845e91519283523392a280f35b82606492519162461bcd60e51b8352820152600e60248201526d11195c1bdcda5d0819985a5b195960921b6044820152fd5b6102ea9150843d86116102f0575b6102e28183610abf565b810190610af7565b38610264565b503d6102d8565b83513d88823e3d90fd5b50346101735760203660031901126101735781359161031e610c2a565b82156103565750816020917f8d9bc996d35f1a4bedd5ed20910999b7c750f5d5b01a50d09dbb82fdcdba1e539360025551908152a180f35b6020606492519162461bcd60e51b8352820152601d60248201527f416d6f756e74206d7573742062652067726561746572207468616e20300000006044820152fd5b5034610173576020806003193601126101b15782359067ffffffffffffffff928383116105f857366023840112156105f857828501359384116105f8576024926005953660248760051b840101116105f4576103f2610c2a565b6002916002549787890298808a048914901517156105e1576001805486516370a0823160e01b81523086820152919a6001600160a01b0394929189908390602490829089165afa80156105d7578d906105a4575b61045292501015610b37565b8a5b89811061045f578b80f35b8881841b83010135848116908d8282036105a15780838b9252888c52205461048b429160035490610b14565b1161054f57818e52868a52888e204290558c5488548a5163a9059cbb60e01b81526001600160a01b03909316838a0190815260208101919091528f92918c9183918a169082908690829060400103925af1918215610544578e9493926104f79290610527575b50610b83565b7f6352c5382c4a4578e712449ca65e83cdb392d045dfcf1cad9615189db2da244b8a89548b51908152a201610454565b61053e91508c8d3d106102f0576102e28183610abf565b386104f1565b8a51903d90823e3d90fd5b885162461bcd60e51b81528088018b90526027818d01527f526563697069656e74206d757374207761697420666f7220636f6f6c646f776e604482015266081c195c9a5bd960ca1b6064820152608490fd5b80fd5b508882813d83116105d0575b6105ba8183610abf565b810103126105cc576104529151610446565b8c80fd5b503d6105b0565b88513d8f823e3d90fd5b634e487b7160e01b8a526011835260248afd5b8780fd5b8580fd5b8382346101fb57816003193601126101fb5760015490516001600160a01b039091168152602090f35b5090346101735760203660031901126101735735916001600160a01b03831683036105a15750610656602092610bc1565b9051908152f35b8382346101fb57816003193601126101fb57905490516001600160a01b039091168152602090f35b50903461017357826003193601126101735733835260208181526106af8385205460035490610b14565b42106107ec5760015483516370a0823160e01b815230818501526001600160a01b03939183908290602490829088165afa9081156107e25786916107b1575b50906107429361070384936002541115610b37565b33808852828452868820429055600154600254885163a9059cbb60e01b8152948501928352602083015292958693929092169183918991839160400190565b03925af19182156107a4577f6352c5382c4a4578e712449ca65e83cdb392d045dfcf1cad9615189db2da244b9261077f91869161078d5750610b83565b60025492519283523392a280f35b61053e9150833d85116102f0576102e28183610abf565b50505051903d90823e3d90fd5b9190508282813d83116107db575b6107c98183610abf565b810103126105f85790516107426106ee565b503d6107bf565b85513d88823e3d90fd5b606492519162461bcd60e51b8352820152601d60248201527f4d757374207761697420666f7220636f6f6c646f776e20706572696f640000006044820152fd5b509034610173576020366003190112610173577fd4d83b235c1d3bdbbbfc0256f977fa865028b88b40fb15b3acdc1f70a4cda27291602091359061086e610c2a565b8160035551908152a180f35b83346105a157806003193601126105a157610893610c2a565b80546001600160a01b03198116825581906001600160a01b03167f8be0079c531659141344cd1fd0a4f28419497f9722a3daafe3b4186f6b6457e08280a380f35b8382346101fb57816003193601126101fb576020906002549051908152f35b5090346101735760203660031901126101735780356001600160a01b038116908190036101b15783610932928492602096528552205460035490610b14565b9051904210158152f35b503461017357826003193601126101735760015481516370a0823160e01b81523093810193909352602090839060249082906001600160a01b03165afa9182156109c9578392610991575b6020838351908152f35b9091506020813d6020116109c1575b816109ad60209383610abf565b810103126101735760209250519038610987565b3d91506109a0565b81513d85823e3d90fd5b8382346101fb57816003193601126101fb576020906003549051908152f35b503461017357602036600319011261017357610a0c610c2a565b600154815163a9059cbb60e01b81523384820190815284356020808301919091529192839182900360400190829088906001600160a01b03165af1908115610ab5578491610a96575b5015610a5f578280f35b906020606492519162461bcd60e51b8352820152601160248201527015da5d1a191c985dd85b0819985a5b1959607a1b6044820152fd5b610aaf915060203d6020116102f0576102e28183610abf565b38610a55565b82513d86823e3d90fd5b90601f8019910116810190811067ffffffffffffffff821117610ae157604052565b634e487b7160e01b600052604160045260246000fd5b90816020910312610b0f57518015158103610b0f5790565b600080fd5b91908201809211610b2157565b634e487b7160e01b600052601160045260246000fd5b15610b3e57565b60405162461bcd60e51b815260206004820152601b60248201527f496e73756666696369656e74206661756365742062616c616e636500000000006044820152606490fd5b15610b8a57565b60405162461bcd60e51b815260206004820152600f60248201526e151c985b9cd9995c8819985a5b1959608a1b6044820152606490fd5b60018060a01b031660009080825260046020526040822054610be66003548092610b14565b421015610c2557610c0291835260046020526040832054610b14565b90428203918211610c11575090565b634e487b7160e01b81526011600452602490fd5b505090565b6000546001600160a01b03163303610c3e57565b60405163118cdaa760e01b8152336004820152602490fdfea164736f6c6343000818000a",
  "linkReferences": {},
  "deployedLinkReferences": {}
}