{
  "_format": "hh-sol-artifact-1",
  "contractName": "NodeRegistry",
  "sourceName": "contracts/NodeRegistry.sol",
  "abi": [
    {
      "inputs": [
        {
          "internalType": "uint256",
          "name": "",
          "type": "uint256"
        }
      ],
      "name": "activeNodes",
      "outputs": [
        {
          "internalType": "string",
          "name": "ip",
          "type": "string"
        },
        {
          "internalType": "uint16",
          "name": "port",
          "type": "uint16"
        },
        {
          "internalType": "address",
          "name": "wallet",
          "type": "address"
        }
      ],
      "stateMutability": "view",
      "type": "function"
    },
    {
      "inputs": [],
      "name": "getNodes",
      "outputs": [
        {
          "components": [
            {
              "internalType": "string",
              "name": "ip",
              "type": "string"
            },
            {
              "internalType": "uint16",
              "name": "port",
              "type": "uint16"
            },
            {
              "internalType": "address",
              "name": "wallet",
              "type": "address"
            }
          ],
          "internalType": "struct NodeRegistry.NodeInfo[]",
          "name": "",
          "type": "tuple[]"
        }
      ],
      "stateMutability": "view",
      "type": "function"
    },
    {
      "inputs": [
        {
          "internalType": "string",
          "name": "_ip",
          "type": "string"
        },
        {
          "internalType": "uint16",
          "name": "_port",
          "type": "uint16"
        }
      ],
      "name": "registerNode",
      "outputs": [],
      "stateMutability": "nonpayable",
      "type": "function"
    }
  ],
  "bytecode": "0x6080806040523461001657610636908161001c8239f35b600080fdfe608060409080825260048036101561001657600080fd5b600091823560e01c9081630bca8d79146102125750806396f9d9831461019a5763e29581aa1461004557600080fd5b3461019657816003193601126101965781549067ffffffffffffffff82116101835750602091835161007c848460051b018261049b565b82815281805283810192827f290decd9548b62a8d60345a988386fc84ba6bc95484008f6362f93160ef3e563855b83831061013557505050508451938085019181865251809252858501868360051b8701019493965b8388106100df5786860387f35b90919293948380600192603f198a82030186528851908561010960608451908085528401906105e9565b9261ffff85820151168584015281878060a01b03910151169101529701930197019690939291936100d2565b6002886001928b9a97989a5161014a81610469565b61015386610544565b81528486015461ffff811684830152858060a01b039060101c168d820152815201920192019190969493966100aa565b634e487b7160e01b835260419052602482fd5b5080fd5b5082903461020e57602036600319011261020e573591805483101561020b57506101c66101ea926104bd565b509060016101d383610544565b9201549080519384936060855260608501906105e9565b61ffff8316602085015260109290921c6001600160a01b0316908301520390f35b80fd5b8280fd5b9050833461046557806003193601126104655782359167ffffffffffffffff908184116104615736602385011215610461576024918585013581811161044f5787602096601f199261026b8985601f840116018761049b565b8086523687828401011161020e5780878a9301838801378501015283359661ffff9586891680990361044b578051946102a386610469565b85528785019889528401963388528954956801000000000000000087101561043a576102d56001978881018d556104bd565b9690966104295751928351958611610418575050908392916102f7865461050a565b601f81116103c4575b508092601f85116001146103645750508992610359575b5050600019600383901b1c191690831b1781555b0192511682549162010000600160b01b03905160101b169169ffffffffffffffffffff60b01b161717905580f35b015190508880610317565b87959392919316868c52838c20938c905b8282106103ab5750508411610392575b505050811b01815561032b565b015160001960f88460031b161c19169055888080610385565b8484015186558997909501949384019390810190610375565b9091929350858b52818b20601f860160051c81019183871061040e575b869594939291601f8a920160051c01915b828110610400575050610300565b8d81558796508991016103f2565b90915081906103e1565b634e487b7160e01b8c52604190528afd5b50634e487b7160e01b8b528a83528afd5b634e487b7160e01b8b52604183528afd5b8980fd5b634e487b7160e01b8852604187528388fd5b8580fd5b8380fd5b6060810190811067ffffffffffffffff82111761048557604052565b634e487b7160e01b600052604160045260246000fd5b90601f8019910116810190811067ffffffffffffffff82111761048557604052565b9060009182548110156104f65782805260011b7f290decd9548b62a8d60345a988386fc84ba6bc95484008f6362f93160ef3e563019190565b634e487b7160e01b83526032600452602483fd5b90600182811c9216801561053a575b602083101461052457565b634e487b7160e01b600052602260045260246000fd5b91607f1691610519565b906040519182600082546105578161050a565b908184526020946001916001811690816000146105c75750600114610588575b5050506105869250038361049b565b565b600090815285812095935091905b8183106105af5750506105869350820101388080610577565b85548884018501529485019487945091830191610596565b9250505061058694925060ff191682840152151560051b820101388080610577565b919082519283825260005b848110610615575050826000602080949584010152601f8019910116010190565b6020818301810151848301820152016105f456fea164736f6c6343000818000a",
  "linkReferences": {},
  "deployedLinkReferences": {}
}