{
  "_format": "hh-sol-artifact-1",
  "contractName": "NodeRegistry",
  "sourceName": "contracts/NodeRegistry.sol",
  "abi": [
    {
      "inputs": [],
      "stateMutability": "nonpayable",
      "type": "constructor"
    },
    {
      "inputs": [
        {
          "internalType": "address",
          "name": "owner",
          "type": "address"
        }
      ],
      "name": "OwnableInvalidOwner",
      "type": "error"
    },
    {
      "inputs": [
        {
          "internalType": "address",
          "name": "account",
          "type": "address"
        }
      ],
      "name": "OwnableUnauthorizedAccount",
      "type": "error"
    },
    {
      "anonymous": false,
      "inputs": [
        {
          "indexed": true,
          "internalType": "address",
          "name": "wallet",
          "type": "address"
        },
        {
          "indexed": false,
          "internalType": "string",
          "name": "ip",
          "type": "string"
        }
      ],
      "name": "NodeDeactivated",
      "type": "event"
    },
    {
      "anonymous": false,
      "inputs": [
        {
          "indexed": true,
          "internalType": "address",
          "name": "wallet",
          "type": "address"
        },
        {
          "indexed": false,
          "internalType": "string",
          "name": "ip",
          "type": "string"
        }
      ],
      "name": "NodeReactivated",
      "type": "event"
    },
    {
      "anonymous": false,
      "inputs": [
        {
          "indexed": true,
          "internalType": "address",
          "name": "wallet",
          "type": "address"
        },
        {
          "indexed": false,
          "internalType": "string",
          "name": "ip",
          "type": "string"
        },
        {
          "indexed": false,
          "internalType": "uint16",
          "name": "port",
          "type": "uint16"
        }
      ],
      "name": "NodeRegistered",
      "type": "event"
    },
    {
      "anonymous": false,
      "inputs": [
        {
          "indexed": true,
          "internalType": "address",
          "name": "previousOwner",
          "type": "address"
        },
        {
          "indexed": true,
          "internalType": "address",
          "name": "newOwner",
          "type": "address"
        }
      ],
      "name": "OwnershipTransferred",
      "type": "event"
    },
    {
      "inputs": [
        {
          "internalType": "uint256",
          "name": "",
          "type": "uint256"
        }
      ],
      "name": "activeNodes",
      "outputs": [
        {
          "internalType": "string",
          "name": "ip",
          "type": "string"
        },
        {
          "internalType": "uint16",
          "name": "port",
          "type": "uint16"
        },
        {
          "internalType": "address",
          "name": "wallet",
          "type": "address"
        },
        {
          "internalType": "uint256",
          "name": "registeredAt",
          "type": "uint256"
        },
        {
          "internalType": "bool",
          "name": "active",
          "type": "bool"
        }
      ],
      "stateMutability": "view",
      "type": "function"
    },
    {
      "inputs": [
        {
          "internalType": "address",
          "name": "_wallet",
          "type": "address"
        }
      ],
      "name": "forceUnregisterNode",
      "outputs": [],
      "stateMutability": "nonpayable",
      "type": "function"
    },
    {
      "inputs": [],
      "name": "getActiveNodeCount",
      "outputs": [
        {
          "internalType": "uint256",
          "name": "",
          "type": "uint256"
        }
      ],
      "stateMutability": "view",
      "type": "function"
    },
    {
      "inputs": [],
      "name": "getActiveNodes",
      "outputs": [
        {
          "components": [
            {
              "internalType": "string",
              "name": "ip",
              "type": "string"
            },
            {
              "internalType": "uint16",
              "name": "port",
              "type": "uint16"
            },
            {
              "internalType": "address",
              "name": "wallet",
              "type": "address"
            },
            {
              "internalType": "uint256",
              "name": "registeredAt",
              "type": "uint256"
            },
            {
              "internalType": "bool",
              "name": "active",
              "type": "bool"
            }
          ],
          "internalType": "struct NodeRegistry.NodeInfo[]",
          "name": "",
          "type": "tuple[]"
        }
      ],
      "stateMutability": "view",
      "type": "function"
    },
    {
      "inputs": [
        {
          "internalType": "string",
          "name": "",
          "type": "string"
        }
      ],
      "name": "ipRegistered",
      "outputs": [
        {
          "internalType": "bool",
          "name": "",
          "type": "bool"
        }
      ],
      "stateMutability": "view",
      "type": "function"
    },
    {
      "inputs": [
        {
          "internalType": "address",
          "name": "_wallet",
          "type": "address"
        }
      ],
      "name": "isNodeActive",
      "outputs": [
        {
          "internalType": "bool",
          "name": "",
          "type": "bool"
        }
      ],
      "stateMutability": "view",
      "type": "function"
    },
    {
      "inputs": [
        {
          "internalType": "address",
          "name": "",
          "type": "address"
        }
      ],
      "name": "nodeIndex",
      "outputs": [
        {
          "internalType": "uint256",
          "name": "",
          "type": "uint256"
        }
      ],
      "stateMutability": "view",
      "type": "function"
    },
    {
      "inputs": [],
      "name": "owner",
      "outputs": [
        {
          "internalType": "address",
          "name": "",
          "type": "address"
        }
      ],
      "stateMutability": "view",
      "type": "function"
    },
    {
      "inputs": [
        {
          "internalType": "string",
          "name": "_ip",
          "type": "string"
        },
        {
          "internalType": "uint16",
          "name": "_port",
          "type": "uint16"
        }
      ],
      "name": "registerNode",
      "outputs": [],
      "stateMutability": "nonpayable",
      "type": "function"
    },
    {
      "inputs": [],
      "name": "renounceOwnership",
      "outputs": [],
      "stateMutability": "nonpayable",
      "type": "function"
    },
    {
      "inputs": [
        {
          "internalType": "address",
          "name": "newOwner",
          "type": "address"
        }
      ],
      "name": "transferOwnership",
      "outputs": [],
      "stateMutability": "nonpayable",
      "type": "function"
    },
    {
      "inputs": [],
      "name": "unregisterNode",
      "outputs": [],
      "stateMutability": "nonpayable",
      "type": "function"
    }
  ],
  "bytecode": "0x6080806040523461007a5733156100645760008054336001600160a01b03198216811783556040519290916001600160a01b0316907f8be0079c531659141344cd1fd0a4f28419497f9722a3daafe3b4186f6b6457e09080a36110cb90816100808239f35b631e4fbdf760e01b815260006004820152602490fd5b600080fdfe6080604052600436101561001257600080fd5b60003560e01c80630bca8d79146107a35780633d385cf5146106be5780636b51e91914610460578063715018a6146104075780638da5cb5b146103de5780638faeddc7146103025780639407af1f146102c957806396f9d9831461022f578063c5ea2b87146101d5578063d673de4614610197578063e894188a146101355763f2fde38b146100a057600080fd5b34610130576020366003190112610130576004356001600160a01b0381811691829003610130576100cf611092565b811561011757600054826bffffffffffffffffffffffff60a01b821617600055167f8be0079c531659141344cd1fd0a4f28419497f9722a3daafe3b4186f6b6457e0600080a3005b604051631e4fbdf760e01b815260006004820152602490fd5b600080fd5b346101305760203660031901126101305760043567ffffffffffffffff81116101305760ff610181602061016e81943690600401610d7e565b8160405193828580945193849201610dd5565b8101600381520301902054166040519015158152f35b34610130576020366003190112610130576004356001600160a01b038116908190036101305760005260026020526020604060002054604051908152f35b346101305760003660031901126101305760018054600090815b81811061020157602083604051908152f35b8060ff60036102108794610e1d565b5001541661021f575b016101ef565b926102299061102b565b92610219565b34610130576020366003190112610130576004356001548110156101305761025961029b91610e1d565b50604051906102738261026c8184610ea7565b0383610d5c565b60018101549060ff60036002830154920154169060405194859460a0865260a0860190610df8565b61ffff8416602086015260109390931c6001600160a01b031660408501526060840152151560808301520390f35b34610130576020366003190112610130576004356001600160a01b0381168103610130576102f860209161104e565b6040519015158152f35b34610130576020366003190112610130576004356001600160a01b0381169081900361013057610330611092565b8060005260026020526103496040600020541515610f3d565b80600052600260205260406000205460001981019081116103c8576103c36103917f7d4442641ef9cf201769cbb64e481e45bdcb2113c1f5a2e03054a958659f1e8392610e1d565b506003810160ff19908181541690556103a982610f7f565b908154169055604051918291602083526020830190610ea7565b0390a2005b634e487b7160e01b600052601160045260246000fd5b34610130576000366003190112610130576000546040516001600160a01b039091168152602090f35b3461013057600036600319011261013057610420611092565b600080546001600160a01b0319811682556001600160a01b03167f8be0079c531659141344cd1fd0a4f28419497f9722a3daafe3b4186f6b6457e08280a3005b34610130576000366003190112610130576040516020908181019080821067ffffffffffffffff8311176106a85760009160405252600080600190600154905b81811061067857506104b183611013565b926104bf6040519485610d5c565b8084526104ce601f1991611013565b018460005b828110610642575050506000805b8281106105915750505090604051928392818401828552835180915260408501928060408360051b8801019501936000905b8382106105205787870388f35b918496819592949698508190603f198b820301855289519061054b60a0835190808452830190610df8565b9161ffff84820151168483015260018060a01b03604082015116604083015260608082015190830152608080910151151591015298019201920187969593919492610513565b8061059c8592610e1d565b5060ff80600380930154166105b4575b5050016104e1565b908294916105c461063a94610e1d565b5091604051926105d384610d40565b6040516105eb816105e48185610ea7565b0382610d5c565b84528087015461ffff81168d86015260101c6001600160a01b031660408501526002810154606085015201541615156080820152610629828961103a565b52610634818861103a565b5061102b565b9187806105ac565b60405161064e81610d40565b600060608083528185840152816040840152820152600060808201528282880101520185906104d3565b60ff600361068583610e1d565b50015416610695575b82016104a0565b926106a0839161102b565b93905061068e565b634e487b7160e01b600052604160045260246000fd5b34610130576000366003190112610130573360005260026020526106e86040600020541515610f3d565b33600052600260205260406000205460001981019081116103c85761070c90610e1d565b506003810180549060ff82161561076c5760ff19918216905561072e82610f7f565b9081541690557f7d4442641ef9cf201769cbb64e481e45bdcb2113c1f5a2e03054a958659f1e8360405160208152806103c333946020830190610ea7565b60405162461bcd60e51b815260206004820152600f60248201526e4e6f6465206e6f742061637469766560881b6044820152606490fd5b346101305760403660031901126101305767ffffffffffffffff600435818111610130576107d5903690600401610d7e565b906024359161ffff8316830361013057805115610d065761ffff831615610cc15760ff604051602081845161080d8183858901610dd5565b810160038152030190205416610c84573360005260026020526040600020548015600014610a9957506040519161084383610d40565b81835261ffff8416602084015233604084015242606084015260016080840152600154680100000000000000008110156106a8578060016108879201600155610e1d565b919091610a8357835180519182116106a8576108a38354610e6d565b601f8111610a3f575b50602090601f83116001146109d1579180608094926003946000926109c6575b50508160011b9160001990851b1c19161781555b6001810161ffff60208701511681549062010000600160b01b03604089015160101b169169ffffffffffffffffffff60b01b1617179055606085015160028201550192015115159160ff199260ff84835416911617905560015491826000198101116103c8577f4da2517be3ced8d91603c36095d6df59c154202332590203c4be65624b92eee2923360005260026020526040600020556001604051602081855161098e8183858a01610dd5565b810160038152030190209182541617905561ffff6109b760405192604084526040840190610df8565b931660208201528033930390a2005b0151905088806108cc565b908360005260206000209160005b601f1985168110610a275750926080949260019260039583601f19811610610a0f575b505050811b0181556108e0565b015160001983871b60f8161c19169055888080610a02565b919260206001819286850151815501940192016109df565b836000526020600020601f840160051c810160208510610a7c575b601f830160051c82018110610a705750506108ac565b60008155600101610a5a565b5080610a5a565b634e487b7160e01b600052600060045260246000fd5b90926000199290918381019081116103c857610ab490610e1d565b5090600382019360ff855416610c495785519182116106a857610ad78354610e6d565b601f8111610c01575b506020601f8311600114610b9457918061ffff9492600194600092610b89575b5082851b9260031b1c19161781555b01911661ffff1982541617905560ff199060018282541617905560016040516020818551610b408183858a01610dd5565b81016003815203019020918254161790557f586f841fac1aa0d2e00e5b989a5ff672b5ef45b1f256f60715d921ae9652a49f60405160208152806103c333946020830190610df8565b890151915089610b00565b90601f198316918460005260206000209260005b818110610be9575092600194919285938361ffff989610610bd1575b505050811b018155610b0f565b8a01519060f88460031b161c19169055888080610bc4565b9193602060018192878d015181550195019201610ba8565b836000526020600020601f840160051c81019160208510610c3f575b601f0160051c01905b818110610c335750610ae0565b60008155600101610c26565b9091508190610c1d565b60405162461bcd60e51b81526020600482015260136024820152724e6f646520616c72656164792061637469766560681b6044820152606490fd5b60405162461bcd60e51b8152602060048201526015602482015274125408185b1c9958591e481c9959da5cdd195c9959605a1b6044820152606490fd5b60405162461bcd60e51b815260206004820152601b60248201527f506f7274206d7573742062652067726561746572207468616e203000000000006044820152606490fd5b60405162461bcd60e51b815260206004820152601260248201527149502063616e6e6f7420626520656d70747960701b6044820152606490fd5b60a0810190811067ffffffffffffffff8211176106a857604052565b90601f8019910116810190811067ffffffffffffffff8211176106a857604052565b81601f820112156101305780359067ffffffffffffffff82116106a85760405192610db3601f8401601f191660200185610d5c565b8284526020838301011161013057816000926020809301838601378301015290565b60005b838110610de85750506000910152565b8181015183820152602001610dd8565b90602091610e1181518092818552858086019101610dd5565b601f01601f1916010190565b600154811015610e5757600160005260021b7fb10e2d527612073b26eecdfd717e6a320cf44b4afac2b0732d9fcbe2b7fa0cf60190600090565b634e487b7160e01b600052603260045260246000fd5b90600182811c92168015610e9d575b6020831014610e8757565b634e487b7160e01b600052602260045260246000fd5b91607f1691610e7c565b805460009392610eb682610e6d565b91828252602093600191600181169081600014610f1e5750600114610edd575b5050505050565b90939495506000929192528360002092846000945b838610610f0a57505050500101903880808080610ed6565b805485870183015294019385908201610ef2565b60ff19168685015250505090151560051b010191503880808080610ed6565b15610f4457565b60405162461bcd60e51b8152602060048201526013602482015272139bd919481b9bdd081c9959da5cdd195c9959606a1b6044820152606490fd5b604051908160008254610f9181610e6d565b93600191808316908115610ff75750600114610fb9575b505060209250600381520301902090565b9091506000526020906020600020906000915b858310610fe3575050505060209181013880610fa8565b805487840152869450918301918101610fcc565b92505050602093915060ff191682528015150281013880610fa8565b67ffffffffffffffff81116106a85760051b60200190565b60001981146103c85760010190565b8051821015610e575760209160051b010190565b6001600160a01b0316600090815260026020526040902054801561108c5760001981019081116103c857600361108560ff92610e1d565b5001541690565b50600090565b6000546001600160a01b031633036110a657565b60405163118cdaa760e01b8152336004820152602490fdfea164736f6c6343000818000a",
  "linkReferences": {},
  "deployedLinkReferences": {}
}