{
  "_format": "hh-sol-artifact-1",
  "contractName": "OraSRSToken",
  "sourceName": "contracts/OraSRSToken.sol",
  "abi": [
    {
      "inputs": [],
      "stateMutability": "nonpayable",
      "type": "constructor"
    },
    {
      "inputs": [
        {
          "internalType": "address",
          "name": "spender",
          "type": "address"
        },
        {
          "internalType": "uint256",
          "name": "allowance",
          "type": "uint256"
        },
        {
          "internalType": "uint256",
          "name": "needed",
          "type": "uint256"
        }
      ],
      "name": "ERC20InsufficientAllowance",
      "type": "error"
    },
    {
      "inputs": [
        {
          "internalType": "address",
          "name": "sender",
          "type": "address"
        },
        {
          "internalType": "uint256",
          "name": "balance",
          "type": "uint256"
        },
        {
          "internalType": "uint256",
          "name": "needed",
          "type": "uint256"
        }
      ],
      "name": "ERC20InsufficientBalance",
      "type": "error"
    },
    {
      "inputs": [
        {
          "internalType": "address",
          "name": "approver",
          "type": "address"
        }
      ],
      "name": "ERC20InvalidApprover",
      "type": "error"
    },
    {
      "inputs": [
        {
          "internalType": "address",
          "name": "receiver",
          "type": "address"
        }
      ],
      "name": "ERC20InvalidReceiver",
      "type": "error"
    },
    {
      "inputs": [
        {
          "internalType": "address",
          "name": "sender",
          "type": "address"
        }
      ],
      "name": "ERC20InvalidSender",
      "type": "error"
    },
    {
      "inputs": [
        {
          "internalType": "address",
          "name": "spender",
          "type": "address"
        }
      ],
      "name": "ERC20InvalidSpender",
      "type": "error"
    },
    {
      "inputs": [
        {
          "internalType": "address",
          "name": "owner",
          "type": "address"
        }
      ],
      "name": "OwnableInvalidOwner",
      "type": "error"
    },
    {
      "inputs": [
        {
          "internalType": "address",
          "name": "account",
          "type": "address"
        }
      ],
      "name": "OwnableUnauthorizedAccount",
      "type": "error"
    },
    {
      "anonymous": false,
      "inputs": [
        {
          "indexed": true,
          "internalType": "address",
          "name": "owner",
          "type": "address"
        },
        {
          "indexed": true,
          "internalType": "address",
          "name": "spender",
          "type": "address"
        },
        {
          "indexed": false,
          "internalType": "uint256",
          "name": "value",
          "type": "uint256"
        }
      ],
      "name": "Approval",
      "type": "event"
    },
    {
      "anonymous": false,
      "inputs": [
        {
          "indexed": true,
          "internalType": "address",
          "name": "previousOwner",
          "type": "address"
        },
        {
          "indexed": true,
          "internalType": "address",
          "name": "newOwner",
          "type": "address"
        }
      ],
      "name": "OwnershipTransferred",
      "type": "event"
    },
    {
      "anonymous": false,
      "inputs": [
        {
          "indexed": true,
          "internalType": "address",
          "name": "from",
          "type": "address"
        },
        {
          "indexed": true,
          "internalType": "address",
          "name": "to",
          "type": "address"
        },
        {
          "indexed": false,
          "internalType": "uint256",
          "name": "value",
          "type": "uint256"
        }
      ],
      "name": "Transfer",
      "type": "event"
    },
    {
      "inputs": [
        {
          "internalType": "address",
          "name": "owner",
          "type": "address"
        },
        {
          "internalType": "address",
          "name": "spender",
          "type": "address"
        }
      ],
      "name": "allowance",
      "outputs": [
        {
          "internalType": "uint256",
          "name": "",
          "type": "uint256"
        }
      ],
      "stateMutability": "view",
      "type": "function"
    },
    {
      "inputs": [
        {
          "internalType": "address",
          "name": "spender",
          "type": "address"
        },
        {
          "internalType": "uint256",
          "name": "value",
          "type": "uint256"
        }
      ],
      "name": "approve",
      "outputs": [
        {
          "internalType": "bool",
          "name": "",
          "type": "bool"
        }
      ],
      "stateMutability": "nonpayable",
      "type": "function"
    },
    {
      "inputs": [
        {
          "internalType": "address",
          "name": "account",
          "type": "address"
        }
      ],
      "name": "balanceOf",
      "outputs": [
        {
          "internalType": "uint256",
          "name": "",
          "type": "uint256"
        }
      ],
      "stateMutability": "view",
      "type": "function"
    },
    {
      "inputs": [
        {
          "internalType": "uint256",
          "name": "value",
          "type": "uint256"
        }
      ],
      "name": "burn",
      "outputs": [],
      "stateMutability": "nonpayable",
      "type": "function"
    },
    {
      "inputs": [
        {
          "internalType": "address",
          "name": "account",
          "type": "address"
        },
        {
          "internalType": "uint256",
          "name": "value",
          "type": "uint256"
        }
      ],
      "name": "burnFrom",
      "outputs": [],
      "stateMutability": "nonpayable",
      "type": "function"
    },
    {
      "inputs": [],
      "name": "decimals",
      "outputs": [
        {
          "internalType": "uint8",
          "name": "",
          "type": "uint8"
        }
      ],
      "stateMutability": "pure",
      "type": "function"
    },
    {
      "inputs": [
        {
          "internalType": "address",
          "name": "to",
          "type": "address"
        },
        {
          "internalType": "uint256",
          "name": "amount",
          "type": "uint256"
        }
      ],
      "name": "mint",
      "outputs": [],
      "stateMutability": "nonpayable",
      "type": "function"
    },
    {
      "inputs": [],
      "name": "name",
      "outputs": [
        {
          "internalType": "string",
          "name": "",
          "type": "string"
        }
      ],
      "stateMutability": "view",
      "type": "function"
    },
    {
      "inputs": [],
      "name": "owner",
      "outputs": [
        {
          "internalType": "address",
          "name": "",
          "type": "address"
        }
      ],
      "stateMutability": "view",
      "type": "function"
    },
    {
      "inputs": [],
      "name": "renounceOwnership",
      "outputs": [],
      "stateMutability": "nonpayable",
      "type": "function"
    },
    {
      "inputs": [],
      "name": "symbol",
      "outputs": [
        {
          "internalType": "string",
          "name": "",
          "type": "string"
        }
      ],
      "stateMutability": "view",
      "type": "function"
    },
    {
      "inputs": [],
      "name": "totalSupply",
      "outputs": [
        {
          "internalType": "uint256",
          "name": "",
          "type": "uint256"
        }
      ],
      "stateMutability": "view",
      "type": "function"
    },
    {
      "inputs": [
        {
          "internalType": "address",
          "name": "to",
          "type": "address"
        },
        {
          "internalType": "uint256",
          "name": "value",
          "type": "uint256"
        }
      ],
      "name": "transfer",
      "outputs": [
        {
          "internalType": "bool",
          "name": "",
          "type": "bool"
        }
      ],
      "stateMutability": "nonpayable",
      "type": "function"
    },
    {
      "inputs": [
        {
          "internalType": "address",
          "name": "from",
          "type": "address"
        },
        {
          "internalType": "address",
          "name": "to",
          "type": "address"
        },
        {
          "internalType": "uint256",
          "name": "value",
          "type": "uint256"
        }
      ],
      "name": "transferFrom",
      "outputs": [
        {
          "internalType": "bool",
          "name": "",
          "type": "bool"
        }
      ],
      "stateMutability": "nonpayable",
      "type": "function"
    },
    {
      "inputs": [
        {
          "internalType": "address",
          "name": "newOwner",
          "type": "address"
        }
      ],
      "name": "transferOwnership",
      "outputs": [],
      "stateMutability": "nonpayable",
      "type": "function"
    }
  ],
  "bytecode": "0x608034620003ee576040906001600160401b039080830182811182821017620002ee578352601581526020907f4f72615352532050726f746f636f6c20546f6b656e00000000000000000000008282015283519284840184811082821117620002ee5785526003808552624f524160e81b848601528251828111620002ee578154906001948583811c93168015620003e3575b87841014620003cd578190601f9384811162000377575b508790848311600114620003105760009262000304575b505060001982851b1c191690851b1782555b8551928311620002ee5760049586548581811c91168015620002e3575b87821014620002ce5782811162000283575b508591841160011462000218579383949184926000956200020c575b50501b92600019911b1c19161782555b3315620001f55760058054336001600160a01b0319821681179092556001600160a01b03167f8be0079c531659141344cd1fd0a4f28419497f9722a3daafe3b4186f6b6457e0600080a36002546a52b7d2dcc80cd2e400000092838201809211620001e057506000917fddf252ad1be2c89b69c2b068fc378daa952ba7f163c4a11628f55a4df523b3ef9160025533835282815284832084815401905584519384523393a3516109d59081620003f48239f35b601190634e487b7160e01b6000525260246000fd5b5060006024925191631e4fbdf760e01b8352820152fd5b0151935038806200011d565b9190601f198416928760005284876000209460005b89898383106200026b575050501062000250575b50505050811b0182556200012d565b01519060f884600019921b161c191690553880808062000241565b8686015189559097019694850194889350016200022d565b87600052866000208380870160051c820192898810620002c4575b0160051c019086905b828110620002b757505062000101565b60008155018690620002a7565b925081926200029e565b602288634e487b7160e01b6000525260246000fd5b90607f1690620000ef565b634e487b7160e01b600052604160045260246000fd5b015190503880620000c0565b90879350601f1983169186600052896000209260005b8b82821062000360575050841162000347575b505050811b018255620000d2565b015160001983871b60f8161c1916905538808062000339565b8385015186558b9790950194938401930162000326565b90915084600052876000208480850160051c8201928a8610620003c3575b918991869594930160051c01915b828110620003b3575050620000a9565b60008155859450899101620003a3565b9250819262000395565b634e487b7160e01b600052602260045260246000fd5b92607f169262000092565b600080fdfe6080604081815260048036101561001557600080fd5b600092833560e01c90816306fdde03146105db57508063095ea7b31461053257806318160ddd1461051357806323b872dd146104d6578063313ce567146104ba57806340c10f191461040b57806342966c68146103ed57806370a08231146103b6578063715018a61461035957806379cc6790146103235780638da5cb5b146102fa57806395d89b41146101d8578063a9059cbb146101a7578063dd62ed3e1461015a5763f2fde38b146100c857600080fd5b34610156576020366003190112610156576100e161071b565b906100ea6108fd565b6001600160a01b03918216928315610140575050600554826bffffffffffffffffffffffff60a01b821617600555167f8be0079c531659141344cd1fd0a4f28419497f9722a3daafe3b4186f6b6457e08380a380f35b51631e4fbdf760e01b8152908101849052602490fd5b8280fd5b5050346101a357806003193601126101a3578060209261017861071b565b610180610736565b6001600160a01b0391821683526001865283832091168252845220549051908152f35b5080fd5b5050346101a357806003193601126101a3576020906101d16101c761071b565b602435903361081f565b5160018152f35b509190346101a357816003193601126101a35780519082845460018160011c90600183169283156102f0575b60209384841081146102dd578388529081156102c1575060011461026c575b505050829003601f01601f191682019267ffffffffffffffff84118385101761025957508291826102559252826106d2565b0390f35b634e487b7160e01b815260418552602490fd5b8787529192508591837f8a35acfbc15ff81a39ae7d344fd709f28e8600b4aa8c65c6b64bfe7fe36bd19b5b8385106102ad5750505050830101388080610223565b805488860183015293019284908201610297565b60ff1916878501525050151560051b8401019050388080610223565b634e487b7160e01b895260228a52602489fd5b91607f1691610204565b5050346101a357816003193601126101a35760055490516001600160a01b039091168152602090f35b5050346101a3573660031901126103565761035361033f61071b565b6024359061034e82338361074c565b610929565b80f35b80fd5b83346103565780600319360112610356576103726108fd565b600580546001600160a01b0319811690915581906001600160a01b03167f8be0079c531659141344cd1fd0a4f28419497f9722a3daafe3b4186f6b6457e08280a380f35b5050346101a35760203660031901126101a35760209181906001600160a01b036103de61071b565b16815280845220549051908152f35b8382346101a35760203660031901126101a357610353903533610929565b50903461015657806003193601126101565761042561071b565b90602435916104326108fd565b6001600160a01b03169283156104a55760025490838201809211610492575084927fddf252ad1be2c89b69c2b068fc378daa952ba7f163c4a11628f55a4df523b3ef9260209260025585855284835280852082815401905551908152a380f35b634e487b7160e01b865260119052602485fd5b84602492519163ec442f0560e01b8352820152fd5b5050346101a357816003193601126101a3576020905160128152f35b5050346101a35760603660031901126101a3576020906101d16104f761071b565b6104ff610736565b6044359161050e83338361074c565b61081f565b5050346101a357816003193601126101a3576020906002549051908152f35b503461015657816003193601126101565761054b61071b565b6024359033156105c4576001600160a01b03169182156105ad57508083602095338152600187528181208582528752205582519081527f8c5be1e5ebec7d5bd14f71427d1e84f3dd0314c0f7b2291e5b200ac8c7c3b925843392a35160018152f35b8351634a1406b160e11b8152908101859052602490fd5b835163e602df0560e01b8152808401869052602490fd5b84915083346101565782600319360112610156578260035460018160011c90600183169283156106c8575b60209384841081146102dd578388529081156106ac575060011461065657505050829003601f01601f191682019267ffffffffffffffff84118385101761025957508291826102559252826106d2565b600387529192508591837fc2575a0e9e593c00f959f8c92f12db2869c3395a3b0502d05e2516446f71f85b5b8385106106985750505050830101858080610223565b805488860183015293019284908201610682565b60ff1916878501525050151560051b8401019050858080610223565b91607f1691610606565b6020808252825181830181905290939260005b82811061070757505060409293506000838284010152601f8019910116010190565b8181018601518482016040015285016106e5565b600435906001600160a01b038216820361073157565b600080fd5b602435906001600160a01b038216820361073157565b9160018060a01b03809316916000938385526001602052604093848620918316918287526020528486205492600019841061078b575b50505050505050565b8484106107ef575080156107d75781156107bf57855260016020528385209085526020520391205538808080808080610782565b8451634a1406b160e11b815260048101879052602490fd5b845163e602df0560e01b815260048101879052602490fd5b8551637dc7a0d960e11b81526001600160a01b039190911660048201526024810184905260448101859052606490fd5b916001600160a01b038084169283156108e457169283156108cb5760009083825281602052604082205490838210610899575091604082827fddf252ad1be2c89b69c2b068fc378daa952ba7f163c4a11628f55a4df523b3ef958760209652828652038282205586815220818154019055604051908152a3565b60405163391434e360e21b81526001600160a01b03919091166004820152602481019190915260448101839052606490fd5b60405163ec442f0560e01b815260006004820152602490fd5b604051634b637e8f60e11b815260006004820152602490fd5b6005546001600160a01b0316330361091157565b60405163118cdaa760e01b8152336004820152602490fd5b906001600160a01b0382169081156108e457600092828452836020526040842054908282106109965750817fddf252ad1be2c89b69c2b068fc378daa952ba7f163c4a11628f55a4df523b3ef926020928587528684520360408620558060025403600255604051908152a3565b60405163391434e360e21b81526001600160a01b03919091166004820152602481019190915260448101829052606490fdfea164736f6c6343000818000a",
  "linkReferences": {},
  "deployedLinkReferences": {}
}