{
  "_format": "hh-sol-artifact-1",
  "contractName": "SimpleSecurityActionContract",
  "sourceName": "contracts/SimpleSecurityActionContract.sol",
  "abi": [
    {
      "inputs": [
        {
          "internalType": "address",
          "name": "_governanceContract",
          "type": "address"
        }
      ],
      "stateMutability": "nonpayable",
      "type": "constructor"
    },
    {
      "inputs": [
        {
          "internalType": "address",
          "name": "owner",
          "type": "address"
        }
      ],
      "name": "OwnableInvalidOwner",
      "type": "error"
    },
    {
      "inputs": [
        {
          "internalType": "address",
          "name": "account",
          "type": "address"
        }
      ],
      "name": "OwnableUnauthorizedAccount",
      "type": "error"
    },
    {
      "inputs": [],
      "name": "ReentrancyGuardReentrantCall",
      "type": "error"
    },
    {
      "anonymous": false,
      "inputs": [
        {
          "indexed": true,
          "internalType": "string",
          "name": "domain",
          "type": "string"
        },
        {
          "indexed": false,
          "internalType": "address",
          "name": "executor",
          "type": "address"
        },
        {
          "indexed": false,
          "internalType": "uint256",
          "name": "timestamp",
          "type": "uint256"
        }
      ],
      "name": "DomainBlocked",
      "type": "event"
    },
    {
      "anonymous": false,
      "inputs": [
        {
          "indexed": true,
          "internalType": "string",
          "name": "domain",
          "type": "string"
        },
        {
          "indexed": false,
          "internalType": "address",
          "name": "executor",
          "type": "address"
        },
        {
          "indexed": false,
          "internalType": "uint256",
          "name": "timestamp",
          "type": "uint256"
        }
      ],
      "name": "DomainUnblocked",
      "type": "event"
    },
    {
      "anonymous": false,
      "inputs": [
        {
          "indexed": false,
          "internalType": "address",
          "name": "oldGovernance",
          "type": "address"
        },
        {
          "indexed": false,
          "internalType": "address",
          "name": "newGovernance",
          "type": "address"
        }
      ],
      "name": "GovernanceContractUpdated",
      "type": "event"
    },
    {
      "anonymous": false,
      "inputs": [
        {
          "indexed": true,
          "internalType": "string",
          "name": "ip",
          "type": "string"
        },
        {
          "indexed": false,
          "internalType": "address",
          "name": "executor",
          "type": "address"
        },
        {
          "indexed": false,
          "internalType": "uint256",
          "name": "timestamp",
          "type": "uint256"
        }
      ],
      "name": "IPBlocked",
      "type": "event"
    },
    {
      "anonymous": false,
      "inputs": [
        {
          "indexed": true,
          "internalType": "string",
          "name": "ip",
          "type": "string"
        },
        {
          "indexed": false,
          "internalType": "address",
          "name": "executor",
          "type": "address"
        },
        {
          "indexed": false,
          "internalType": "uint256",
          "name": "timestamp",
          "type": "uint256"
        }
      ],
      "name": "IPUnblocked",
      "type": "event"
    },
    {
      "anonymous": false,
      "inputs": [
        {
          "indexed": true,
          "internalType": "address",
          "name": "previousOwner",
          "type": "address"
        },
        {
          "indexed": true,
          "internalType": "address",
          "name": "newOwner",
          "type": "address"
        }
      ],
      "name": "OwnershipTransferred",
      "type": "event"
    },
    {
      "inputs": [
        {
          "internalType": "string",
          "name": "_domain",
          "type": "string"
        }
      ],
      "name": "blockDomain",
      "outputs": [],
      "stateMutability": "nonpayable",
      "type": "function"
    },
    {
      "inputs": [
        {
          "internalType": "string",
          "name": "_ip",
          "type": "string"
        }
      ],
      "name": "blockIP",
      "outputs": [],
      "stateMutability": "nonpayable",
      "type": "function"
    },
    {
      "inputs": [
        {
          "internalType": "string",
          "name": "",
          "type": "string"
        }
      ],
      "name": "domainBlocked",
      "outputs": [
        {
          "internalType": "bool",
          "name": "",
          "type": "bool"
        }
      ],
      "stateMutability": "view",
      "type": "function"
    },
    {
      "inputs": [],
      "name": "governanceContract",
      "outputs": [
        {
          "internalType": "address",
          "name": "",
          "type": "address"
        }
      ],
      "stateMutability": "view",
      "type": "function"
    },
    {
      "inputs": [
        {
          "internalType": "string",
          "name": "",
          "type": "string"
        }
      ],
      "name": "ipBlocked",
      "outputs": [
        {
          "internalType": "bool",
          "name": "",
          "type": "bool"
        }
      ],
      "stateMutability": "view",
      "type": "function"
    },
    {
      "inputs": [
        {
          "internalType": "string",
          "name": "_domain",
          "type": "string"
        }
      ],
      "name": "isDomainBlocked",
      "outputs": [
        {
          "internalType": "bool",
          "name": "",
          "type": "bool"
        }
      ],
      "stateMutability": "view",
      "type": "function"
    },
    {
      "inputs": [
        {
          "internalType": "string",
          "name": "_ip",
          "type": "string"
        }
      ],
      "name": "isIPBlocked",
      "outputs": [
        {
          "internalType": "bool",
          "name": "",
          "type": "bool"
        }
      ],
      "stateMutability": "view",
      "type": "function"
    },
    {
      "inputs": [],
      "name": "owner",
      "outputs": [
        {
          "internalType": "address",
          "name": "",
          "type": "address"
        }
      ],
      "stateMutability": "view",
      "type": "function"
    },
    {
      "inputs": [],
      "name": "renounceOwnership",
      "outputs": [],
      "stateMutability": "nonpayable",
      "type": "function"
    },
    {
      "inputs": [
        {
          "internalType": "address",
          "name": "newOwner",
          "type": "address"
        }
      ],
      "name": "transferOwnership",
      "outputs": [],
      "stateMutability": "nonpayable",
      "type": "function"
    },
    {
      "inputs": [
        {
          "internalType": "string",
          "name": "_domain",
          "type": "string"
        }
      ],
      "name": "unblockDomain",
      "outputs": [],
      "stateMutability": "nonpayable",
      "type": "function"
    },
    {
      "inputs": [
        {
          "internalType": "string",
          "name": "_ip",
          "type": "string"
        }
      ],
      "name": "unblockIP",
      "outputs": [],
      "stateMutability": "nonpayable",
      "type": "function"
    },
    {
      "inputs": [
        {
          "internalType": "address",
          "name": "_newGovernanceContract",
          "type": "address"
        }
      ],
      "name": "updateGovernanceContract",
      "outputs": [],
      "stateMutability": "nonpayable",
      "type": "function"
    }
  ],
  "bytecode": "0x6080346100da57601f61091d38819003918201601f19168301916001600160401b038311848410176100df578084926020946040528339810103126100da57516001600160a01b03808216908183036100da5733156100c1576000549260018060a01b031992338486161760005560405194833391167f8be0079c531659141344cd1fd0a4f28419497f9722a3daafe3b4186f6b6457e0600080a360018055156100ba575b1690600454161760045561082790816100f68239f35b50336100a4565b604051631e4fbdf760e01b815260006004820152602490fd5b600080fd5b634e487b7160e01b600052604160045260246000fdfe60406080815260048036101561001457600080fd5b600091823560e01c80633134c0f61461041857806367ea2f5c146104535780636faf60a0146105cc578063715018a61461056f5780638da5cb5b146105475780639a5910d81461047f5780639c8df9ee14610453578063a86541c214610418578063af25d8511461034c578063b172b22214610324578063bdc97ffe14610243578063cc19a7f81461013f5763f2fde38b146100af57600080fd5b3461013b57602036600319011261013b576001600160a01b03823581811693919290849003610137576100e06107cb565b831561012157505082546001600160a01b0319811683178455167f8be0079c531659141344cd1fd0a4f28419497f9722a3daafe3b4186f6b6457e08380a380f35b51631e4fbdf760e01b8152908101849052602490fd5b8480fd5b8280fd5b50903461013b5761014f366106ad565b9061016e60018060a01b03808354163314908115610236575b50610770565b6101766107f7565b60ff83516020816101878187610745565b60028152030190205416156101ff57506101e67f3a9c6ad3cf1251080bae89e2df88f737a61c86cebc98159a00ae1f697a70e8539183516020816101cb8185610745565b600281520301902060ff198154169055835191828092610745565b0390209151338152426020820152604090a26001805580f35b606490602084519162461bcd60e51b835282015260116024820152701254081a5cc81b9bdd08189b1bd8dad959607a1b6044820152fd5b9050855416331438610168565b50903461013b57610253366106ad565b9061027160018060a01b038083541633149081156102365750610770565b6102796107f7565b60ff835160208161028a8187610745565b60038152030190205416156102e957506101e67feb3b2d6524360a3cec92b47d0c021f4701895ebc5a13a7841e544416cb14ddad9183516020816102ce8185610745565b600381520301902060ff198154169055835191828092610745565b606490602084519162461bcd60e51b83528201526015602482015274111bdb585a5b881a5cc81b9bdd08189b1bd8dad959605a1b6044820152fd5b50903461013b578260031936011261013b575490516001600160a01b03909116815260209150f35b50903461013b5761035c366106ad565b9061037a60018060a01b038083541633149081156102365750610770565b6103826107f7565b8151156103dc57506101e67f5cf440f3e90a7f05f0863c70777b810007ed2bc1e8e28068adb06afe1ee985959183516020816103be8185610745565b6003815203019020600160ff19825416179055835191828092610745565b606490602084519162461bcd60e51b83528201526016602482015275446f6d61696e2063616e6e6f7420626520656d70747960501b6044820152fd5b83823461044f5760209060ff61043c83610431366106ad565b845192838092610745565b6003815203019020541690519015158152f35b5080fd5b83823461044f5760209060ff61046c83610431366106ad565b6002815203019020541690519015158152f35b50903461013b5761048f366106ad565b906104ad60018060a01b038083541633149081156102365750610770565b6104b56107f7565b81511561050f57506101e67f63212388728c1be1255e63e773d8ecd037e8fb76623c1986f34fab5f629bbcb99183516020816104f18185610745565b6002815203019020600160ff19825416179055835191828092610745565b606490602084519162461bcd60e51b8352820152601260248201527149502063616e6e6f7420626520656d70747960701b6044820152fd5b83823461044f578160031936011261044f57905490516001600160a01b039091168152602090f35b83346105c957806003193601126105c9576105886107cb565b80546001600160a01b03198116825581906001600160a01b03167f8be0079c531659141344cd1fd0a4f28419497f9722a3daafe3b4186f6b6457e08280a380f35b80fd5b5082903461044f57602036600319011261044f576001600160a01b03928035848116908190036106a9576105fe6107cb565b801561064f577f2bb6fa423908148a692d1326edeb12cf0436abf468ce271a4be85c722b3277489394825492826bffffffffffffffffffffffff60a01b85161790558351921682526020820152a180f35b506020608492519162461bcd60e51b8352820152602e60248201527f4e657720676f7665726e616e636520636f6e74726163742063616e6e6f74206260448201526d65207a65726f206164647265737360901b6064820152fd5b8380fd5b602060031982011261072a5767ffffffffffffffff9060043582811161072a578160238201121561072a5780600401359183831161072f5760405193601f8401601f19908116603f011685019081118582101761072f576040528284526024838301011161072a5781600092602460209301838601378301015290565b600080fd5b634e487b7160e01b600052604160045260246000fd5b9081519160005b83811061075d575050016000815290565b806020809284010151818501520161074c565b1561077757565b60405162461bcd60e51b815260206004820152602660248201527f4f6e6c7920617574686f72697a65642063616e2063616c6c20746869732066756044820152653731ba34b7b760d11b6064820152608490fd5b6000546001600160a01b031633036107df57565b60405163118cdaa760e01b8152336004820152602490fd5b600260015414610808576002600155565b604051633ee5aeb560e01b8152600490fdfea164736f6c6343000818000a",
  "linkReferences": {},
  "deployedLinkReferences": {}
}