{
  "_format": "hh-sol-artifact-1",
  "contractName": "IPRiskCalculator",
  "sourceName": "contracts/IPRiskCalculator.sol",
  "abi": [
    {
      "inputs": [],
      "stateMutability": "nonpayable",
      "type": "constructor"
    },
    {
      "inputs": [
        {
          "internalType": "enum IPRiskCalculator.AttackType",
          "name": "",
          "type": "uint8"
        }
      ],
      "name": "baseScores",
      "outputs": [
        {
          "internalType": "uint256",
          "name": "",
          "type": "uint256"
        }
      ],
      "stateMutability": "view",
      "type": "function"
    },
    {
      "inputs": [
        {
          "internalType": "uint256",
          "name": "currentScore",
          "type": "uint256"
        },
        {
          "internalType": "uint8",
          "name": "attackType",
          "type": "uint8"
        },
        {
          "internalType": "uint256",
          "name": "frequency",
          "type": "uint256"
        }
      ],
      "name": "calculateRisk",
      "outputs": [
        {
          "internalType": "uint256",
          "name": "newScore",
          "type": "uint256"
        }
      ],
      "stateMutability": "view",
      "type": "function"
    },
    {
      "inputs": [
        {
          "internalType": "uint256",
          "name": "score",
          "type": "uint256"
        }
      ],
      "name": "evaluateRiskLevel",
      "outputs": [
        {
          "internalType": "uint8",
          "name": "level",
          "type": "uint8"
        }
      ],
      "stateMutability": "pure",
      "type": "function"
    },
    {
      "inputs": [
        {
          "internalType": "enum IPRiskCalculator.AttackType",
          "name": "attackType",
          "type": "uint8"
        },
        {
          "internalType": "uint256",
          "name": "newScore",
          "type": "uint256"
        }
      ],
      "name": "updateBaseScore",
      "outputs": [],
      "stateMutability": "nonpayable",
      "type": "function"
    }
  ],
  "bytecode": "0x608060408181523461004e57603c9060006001815280602052601482822055600281526032828220556003815260508282205560048152600a8282205560058152205561026090816100548239f35b600080fdfe6040608081526004908136101561001557600080fd5b600091823560e01c80630f56a16b1461012d5780634af30f8d1461010357806383a429b1146100845763ad3846ae1461004d57600080fd5b34610080576020366003190112610080573591600683101561007d5750610075602092610167565b549051908152f35b80fd5b8280fd5b503461008057816003193601126100805780359060068210156100ff5760243592606484116100bc5750506100b890610167565b5580f35b906020606492519162461bcd60e51b8352820152601760248201527f53636f72652063616e6e6f7420657863656564203130300000000000000000006044820152fd5b8380fd5b50913461007d57602036600319011261007d575060ff61012560209335610225565b915191168152f35b50913461007d57606036600319011261007d576024359060ff8216820361007d5750602092610160916044359135610196565b9051908152f35b6006811015610180576000526000602052604060002090565b634e487b7160e01b600052602160045260246000fd5b919060ff166006811015610180576101ad90610167565b54801561021d575b600191600a8111610214575b60641061020b575b8181029181830414901517156101f55781018091116101f5576103e88082116101f0575090565b905090565b634e487b7160e01b600052601160045260246000fd5b600591506101c9565b600292506101c1565b50600a6101b5565b6032811061024d5760c88110610247576102581161024257600390565b600290565b50600190565b5060009056fea164736f6c6343000818000a",
  "linkReferences": {},
  "deployedLinkReferences": {}
}