{
  "_format": "hh-sol-artifact-1",
  "contractName": "OraSRSReader",
  "sourceName": "contracts/OraSRSReader.sol",
  "abi": [
    {
      "inputs": [
        {
          "internalType": "address",
          "name": "_storage",
          "type": "address"
        },
        {
          "internalType": "address",
          "name": "_calc",
          "type": "address"
        }
      ],
      "stateMutability": "nonpayable",
      "type": "constructor"
    },
    {
      "inputs": [],
      "name": "calculatorContract",
      "outputs": [
        {
          "internalType": "contract IRiskCalculator",
          "name": "",
          "type": "address"
        }
      ],
      "stateMutability": "view",
      "type": "function"
    },
    {
      "inputs": [
        {
          "internalType": "string[]",
          "name": "ips",
          "type": "string[]"
        },
        {
          "internalType": "uint256",
          "name": "threshold",
          "type": "uint256"
        }
      ],
      "name": "checkMultipleIPs",
      "outputs": [
        {
          "components": [
            {
              "internalType": "string",
              "name": "ip",
              "type": "string"
            },
            {
              "internalType": "uint256",
              "name": "score",
              "type": "uint256"
            },
            {
              "internalType": "uint8",
              "name": "riskLevel",
              "type": "uint8"
            },
            {
              "internalType": "bool",
              "name": "shouldBlock",
              "type": "bool"
            }
          ],
          "internalType": "struct OraSRSReader.BulkResult[]",
          "name": "",
          "type": "tuple[]"
        }
      ],
      "stateMutability": "view",
      "type": "function"
    },
    {
      "inputs": [
        {
          "internalType": "string[]",
          "name": "ips",
          "type": "string[]"
        },
        {
          "internalType": "uint256",
          "name": "threshold",
          "type": "uint256"
        }
      ],
      "name": "checkMultipleIPsFiltered",
      "outputs": [
        {
          "components": [
            {
              "internalType": "string",
              "name": "ip",
              "type": "string"
            },
            {
              "internalType": "uint256",
              "name": "score",
              "type": "uint256"
            },
            {
              "internalType": "uint8",
              "name": "riskLevel",
              "type": "uint8"
            },
            {
              "internalType": "bool",
              "name": "shouldBlock",
              "type": "bool"
            }
          ],
          "internalType": "struct OraSRSReader.BulkResult[]",
          "name": "",
          "type": "tuple[]"
        }
      ],
      "stateMutability": "view",
      "type": "function"
    },
    {
      "inputs": [
        {
          "internalType": "string",
          "name": "ip",
          "type": "string"
        },
        {
          "internalType": "uint256",
          "name": "threshold",
          "type": "uint256"
        }
      ],
      "name": "checkSingleIP",
      "outputs": [
        {
          "internalType": "string",
          "name": "ipResult",
          "type": "string"
        },
        {
          "internalType": "uint256",
          "name": "score",
          "type": "uint256"
        },
        {
          "internalType": "uint8",
          "name": "riskLevel",
          "type": "uint8"
        },
        {
          "internalType": "bool",
          "name": "shouldBlock",
          "type": "bool"
        }
      ],
      "stateMutability": "view",
      "type": "function"
    },
    {
      "inputs": [
        {
          "internalType": "string[]",
          "name": "ips",
          "type": "string[]"
        }
      ],
      "name": "getAllThreatInfo",
      "outputs": [
        {
          "components": [
            {
              "internalType": "string",
              "name": "ip",
              "type": "string"
            },
            {
              "internalType": "uint256",
              "name": "score",
              "type": "uint256"
            },
            {
              "internalType": "uint8",
              "name": "riskLevel",
              "type": "uint8"
            },
            {
              "internalType": "uint8",
              "name": "threatLevel",
              "type": "uint8"
            },
            {
              "internalType": "uint256",
              "name": "timestamp",
              "type": "uint256"
            },
            {
              "internalType": "string",
              "name": "threatType",
              "type": "string"
            },
            {
              "internalType": "bool",
              "name": "isActive",
              "type": "bool"
            }
          ],
          "internalType": "struct OraSRSReader.ThreatInfo[]",
          "name": "",
          "type": "tuple[]"
        }
      ],
      "stateMutability": "view",
      "type": "function"
    },
    {
      "inputs": [
        {
          "internalType": "string[]",
          "name": "ips",
          "type": "string[]"
        }
      ],
      "name": "getThreatIPs",
      "outputs": [
        {
          "components": [
            {
              "internalType": "string",
              "name": "ip",
              "type": "string"
            },
            {
              "internalType": "uint256",
              "name": "score",
              "type": "uint256"
            },
            {
              "internalType": "uint8",
              "name": "riskLevel",
              "type": "uint8"
            },
            {
              "internalType": "uint8",
              "name": "threatLevel",
              "type": "uint8"
            },
            {
              "internalType": "uint256",
              "name": "timestamp",
              "type": "uint256"
            },
            {
              "internalType": "string",
              "name": "threatType",
              "type": "string"
            },
            {
              "internalType": "bool",
              "name": "isActive",
              "type": "bool"
            }
          ],
          "internalType": "struct OraSRSReader.ThreatInfo[]",
          "name": "",
          "type": "tuple[]"
        }
      ],
      "stateMutability": "view",
      "type": "function"
    },
    {
      "inputs": [],
      "name": "storageContract",
      "outputs": [
        {
          "internalType": "contract IThreatCoordination",
          "name": "",
          "type": "address"
        }
      ],
      "stateMutability": "view",
      "type": "function"
    },
    {
      "inputs": [
        {
          "internalType": "address",
          "name": "newCalc",
          "type": "address"
        }
      ],
      "name": "updateCalculatorContract",
      "outputs": [],
      "stateMutability": "nonpayable",
      "type": "function"
    },
    {
      "inputs": [
        {
          "internalType": "address",
          "name": "newStorage",
          "type": "address"
        }
      ],
      "name": "updateStorageContract",
      "outputs": [],
      "stateMutability": "nonpayable",
      "type": "function"
    }
  ],
  "bytecode": "0x60803461008d57601f61137638819003918201601f19168301916001600160401b0383118484101761009257808492604094855283398101031261008d57610052602061004b836100a8565b92016100a8565b600080546001600160a01b039384166001600160a01b031991821617909155600180549290931691161790556040516112b990816100bd8239f35b600080fd5b634e487b7160e01b600052604160045260246000fd5b51906001600160a01b038216820361008d5756fe608080604052600436101561001357600080fd5b60003560e01c90816311ce026714610cea5750806319a36ea614610b8b5780633ad218d9146108605780635b1c8c3a1461083757806362b4e821146105f257806379563271146102c65780638fb6d99714610278578063ef94e3a8146100d55763f9a0abf61461008257600080fd5b346100d05760203660031901126100d0576004356001600160a01b038116908190036100d0576100b381151561126e565b6bffffffffffffffffffffffff60a01b6001541617600155600080f35b600080fd5b346100d0576100e336610f0a565b91906100ee816111ff565b9160009060018060a01b039485600054169160019660015416935b858110610122576040518061011e8982610f3d565b0390f35b61012d818784611077565b919060405190635c1938bd60e11b825281806101506020968794600484016110dc565b0381895afa90811561023f5760009161024b575b50604051634af30f8d60e01b8152600481018290529083826024818b5afa801561023f578b948a88946000936101ef575b50918360ff926101ab886101c19897968c611077565b9790604051986101ba8a610d40565b3691610d9a565b8752860152166040840152101560608201526101dd828a611104565b526101e88189611104565b5001610109565b945050919450508082813d8311610238575b61020b8183610d5c565b810103126100d0578360ff8a8d9689946101ab8861022b6101c199610fcf565b9697985050509250610195565b503d610201565b6040513d6000823e3d90fd5b90508281813d8311610271575b6102628183610d5c565b810103126100d057518a610164565b503d610258565b346100d05760203660031901126100d0576004356001600160a01b038116908190036100d0576102a981151561126e565b6bffffffffffffffffffffffff60a01b6000541617600055600080f35b346100d05760203660031901126100d05760043567ffffffffffffffff81116100d0576102f7903690600401610e19565b61030081610ff5565b600080549193909290916001600160a01b0316835b82811061036a57858561032781610ff5565b9160005b828110610340576040518061011e8682610e4a565b8061034d60019284611104565b516103588287611104565b526103638186611104565b500161032b565b610396602061037a838688611077565b604051632a592cff60e01b8152938492839290600484016110dc565b0381865afa90811561023f576000916105b8575b506103b8575b600101610315565b936103e560006103c9878688611077565b604051639d55cb2960e01b8152938492839290600484016110dc565b0381865afa90811561023f57600080600092600094610587575b5061042d9060206104118b8a8c611077565b604051635c1938bd60e11b8152948592839290600484016110dc565b03818a5afa801561023f57600090610554575b600154604051634af30f8d60e01b8152600481018390529350602090849060249082906001600160a01b03165afa92831561023f57898b8d926000966104f6575b509261049c6104ee99969360019b9996936104ab9996611077565b9790604051986101ba8a610d0e565b8752602087015260ff8092166040870152166060850152608084015260a0830152151560c08201526104dd828a611104565b526104e88189611104565b506111da565b9490506103b0565b999794989550505050926020873d60201161054c575b8161051960209383610d5c565b810103126100d057896104ee966104ab9561049c8e8d61053a60019d610fcf565b989b509396999b509391949750610481565b3d915061050c565b506020823d60201161057f575b8161056e60209383610d5c565b810103126100d05760249151610440565b3d9150610561565b91505061042d92506105ac91503d806000833e6105a48183610d5c565b81019061115d565b959094509092506103ff565b90506020813d6020116105ea575b816105d360209383610d5c565b810103126100d0576105e4906110cf565b876103aa565b3d91506105c6565b346100d05761060036610f0a565b600080546001600160a01b039492939290851691805b8481106107985750610627906111ff565b9360009160009160019760015416925b86811061064c576040518061011e8a82610f3d565b610657818885611077565b919060405190635c1938bd60e11b8252818061067a6020968794600484016110dc565b03818b5afa90811561023f5760009161076b575b50604051634af30f8d60e01b8152600481018290529083826024818a5afa90811561023f578c948b9360009361072e575b508682101593846106d6575b505050505001610637565b92859a949260ff926106ef610723986106fe978d611077565b9690604051976101ba89610d40565b86528501521660408301526060820152610718828c611104565b526104e8818b611104565b948a8080808b6106cb565b9350915093508082813d8311610764575b6107498183610d5c565b810103126100d0578b9361075d8b93610fcf565b918e6106bf565b503d61073f565b90508281813d8311610791575b6107828183610d5c565b810103126100d057518b61068e565b503d610778565b6107a6818685989798611077565b9060405190635c1938bd60e11b825281806107c86020958694600484016110dc565b0381895afa90811561023f578792600092610806575b505010156107f2575b600101949394610616565b906107fe6001916111da565b9190506107e7565b8193508092503d8311610830575b61081e8183610d5c565b810103126100d05785905189806107de565b503d610814565b346100d05760003660031901126100d0576001546040516001600160a01b039091168152602090f35b346100d05760203660031901126100d05767ffffffffffffffff6004358181116100d057610892903690600401610e19565b909161089d82610ff5565b9160009160018060a01b0380600054169060015416935b8381106108c9576040518061011e8882610e4a565b8060206108da6108f693878b611077565b604051632a592cff60e01b8152948592839290600484016110dc565b0381865afa801561023f57600090610b50575b6109379250602061091b83888c611077565b604051635c1938bd60e11b8152958692839290600484016110dc565b0381875afa92831561023f57600093610b1c575b50604051634af30f8d60e01b8152600481018490529060249060208383818c5afa92831561023f5788918c91600095610adc575b5015610a41576109979250846000926103c992611077565b0381885afa90811561023f578a6109ca93600196600090878c600095600097600099610a0f575b509061049c9291611077565b8752602087015260ff8092166040870152166060850152608084015260a0830152151560c08201526109fc8289611104565b52610a078188611104565b505b016108b4565b919450975061049c9650610a2f9195503d806000833e6105a48183610d5c565b9a9099919892969294509192506109be565b94610a558560ff949593610a649798611077565b9590604051966101ba88610d0e565b85526020850152166040830152600060608301526000608083015260405190602082019082821087831117610ac857509060019392916040526000815260a0820152600060c0820152610ab78289611104565b52610ac28188611104565b50610a09565b634e487b7160e01b60009081526041600452fd5b92509350506020813d602011610b14575b81610afa60209383610d5c565b810103126100d0578a610b0d8992610fcf565b938d61097f565b3d9150610aed565b9092506020813d602011610b48575b81610b3860209383610d5c565b810103126100d05751918961094b565b3d9150610b2b565b506020823d602011610b83575b81610b6a60209383610d5c565b810103126100d057610b7e610937926110cf565b610909565b3d9150610b5d565b346100d05760403660031901126100d05760043567ffffffffffffffff81116100d057366023820112156100d057610bcd903690602481600401359101610d9a565b600054604051635c1938bd60e11b81526020600482018190529092916001600160a01b03908290859083168180610c076024820189610df4565b03915afa93841561023f57600094610cbb575b5092816024946001541660405195868092634af30f8d60e01b82528560048301525afa93841561023f57600094610c80575b5060ff610c689482604051968796608088526080880190610df4565b94860152166040840152602435111560608301520390f35b93508184813d8311610cb4575b610c978183610d5c565b810103126100d05760ff610cad610c6895610fcf565b9450610c4c565b503d610c8d565b93508184813d8311610ce3575b610cd28183610d5c565b810103126100d05792519281610c1a565b503d610cc8565b346100d05760003660031901126100d0576000546001600160a01b03168152602090f35b60e0810190811067ffffffffffffffff821117610d2a57604052565b634e487b7160e01b600052604160045260246000fd5b6080810190811067ffffffffffffffff821117610d2a57604052565b90601f8019910116810190811067ffffffffffffffff821117610d2a57604052565b67ffffffffffffffff8111610d2a57601f01601f191660200190565b929192610da682610d7e565b91610db46040519384610d5c565b8294818452818301116100d0578281602093846000960137010152565b60005b838110610de45750506000910152565b8181015183820152602001610dd4565b90602091610e0d81518092818552858086019101610dd1565b601f01601f1916010190565b9181601f840112156100d05782359167ffffffffffffffff83116100d0576020808501948460051b0101116100d057565b6020808201908083528351809252604092604081018260408560051b8401019601946000925b858410610e81575050505050505090565b909192939495968580600192603f198582030187528a5190610eed610eaf60e0845190808552840190610df4565b84840151858401528884015160ff8091168a8501526060908186015116908401526080808501519084015260a0808501519084830390850152610df4565b9160c0809101511515910152990194019401929594939190610e70565b60406003198201126100d0576004359067ffffffffffffffff82116100d057610f3591600401610e19565b909160243590565b6020808201908083528351809252604092604081018260408560051b8401019601946000925b858410610f74575050505050505090565b909192939495968580600192603f198582030187528a5190610f9f6080835190808452830190610df4565b91838101518483015260ff8882015116888301526060809101511515910152990194019401929594939190610f63565b519060ff821682036100d057565b67ffffffffffffffff8111610d2a5760051b60200190565b90610fff82610fdd565b60409061100f6040519182610d5c565b8381528093611020601f1991610fdd565b019160005b8381106110325750505050565b602090825161104081610d0e565b606080825283906000828401526000868401526000818401526000608084015260a0830152600060c0830152828601015201611025565b91908110156110b95760051b81013590601e19813603018212156100d057019081359167ffffffffffffffff83116100d05760200182360381136100d0579190565b634e487b7160e01b600052603260045260246000fd5b519081151582036100d057565b90918060409360208452816020850152848401376000828201840152601f01601f1916010190565b80518210156110b95760209160051b010190565b81601f820112156100d057805161112e81610d7e565b9261113c6040519485610d5c565b818452602082840101116100d05761115a9160208085019101610dd1565b90565b919060c0838203126100d05782519067ffffffffffffffff918281116100d05781611189918601611118565b9360208101518381116100d057826111a2918301611118565b936111af60408301610fcf565b9360608301519360808401519182116100d0576111d360a09161115a938601611118565b93016110cf565b60001981146111e95760010190565b634e487b7160e01b600052601160045260246000fd5b9061120982610fdd565b6040906112196040519182610d5c565b838152809361122a601f1991610fdd565b019160009160005b848110611240575050505050565b602090835161124e81610d40565b606080825286849181838501528188850152830152828501015201611232565b1561127557565b60405162461bcd60e51b815260206004820152600f60248201526e496e76616c6964206164647265737360881b6044820152606490fdfea164736f6c6343000818000a",
  "linkReferences": {},
  "deployedLinkReferences": {}
}