{
  "_format": "hh-sol-artifact-1",
  "contractName": "ThreatReport",
  "sourceName": "contracts/ThreatReport.sol",
  "abi": [
    {
      "anonymous": false,
      "inputs": [
        {
          "indexed": true,
          "internalType": "address",
          "name": "reporter",
          "type": "address"
        },
        {
          "indexed": false,
          "internalType": "string",
          "name": "ip",
          "type": "string"
        },
        {
          "indexed": false,
          "internalType": "string",
          "name": "reason",
          "type": "string"
        },
        {
          "indexed": false,
          "internalType": "uint256",
          "name": "timestamp",
          "type": "uint256"
        }
      ],
      "name": "ThreatReported",
      "type": "event"
    },
    {
      "inputs": [
        {
          "internalType": "string",
          "name": "ip",
          "type": "string"
        }
      ],
      "name": "getReportCount",
      "outputs": [
        {
          "internalType": "uint256",
          "name": "",
          "type": "uint256"
        }
      ],
      "stateMutability": "view",
      "type": "function"
    },
    {
      "inputs": [
        {
          "internalType": "string",
          "name": "ip",
          "type": "string"
        }
      ],
      "name": "getReports",
      "outputs": [
        {
          "components": [
            {
              "internalType": "address",
              "name": "reporter",
              "type": "address"
            },
            {
              "internalType": "uint256",
              "name": "timestamp",
              "type": "uint256"
            },
            {
              "internalType": "string",
              "name": "reason",
              "type": "string"
            },
            {
              "internalType": "bytes",
              "name": "signature",
              "type": "bytes"
            }
          ],
          "internalType": "struct ThreatReport.Report[]",
          "name": "",
          "type": "tuple[]"
        }
      ],
      "stateMutability": "view",
      "type": "function"
    },
    {
      "inputs": [
        {
          "internalType": "string",
          "name": "",
          "type": "string"
        },
        {
          "internalType": "address",
          "name": "",
          "type": "address"
        }
      ],
      "name": "hasReported",
      "outputs": [
        {
          "internalType": "bool",
          "name": "",
          "type": "bool"
        }
      ],
      "stateMutability": "view",
      "type": "function"
    },
    {
      "inputs": [
        {
          "internalType": "string",
          "name": "ip",
          "type": "string"
        },
        {
          "internalType": "string",
          "name": "reason",
          "type": "string"
        },
        {
          "internalType": "bytes",
          "name": "signature",
          "type": "bytes"
        }
      ],
      "name": "reportThreat",
      "outputs": [],
      "stateMutability": "nonpayable",
      "type": "function"
    },
    {
      "inputs": [
        {
          "internalType": "string",
          "name": "",
          "type": "string"
        },
        {
          "internalType": "uint256",
          "name": "",
          "type": "uint256"
        }
      ],
      "name": "reports",
      "outputs": [
        {
          "internalType": "address",
          "name": "reporter",
          "type": "address"
        },
        {
          "internalType": "uint256",
          "name": "timestamp",
          "type": "uint256"
        },
        {
          "internalType": "string",
          "name": "reason",
          "type": "string"
        },
        {
          "internalType": "bytes",
          "name": "signature",
          "type": "bytes"
        }
      ],
      "stateMutability": "view",
      "type": "function"
    }
  ],
  "bytecode": "0x6080806040523461001657610a85908161001c8239f35b600080fdfe6040608081526004908136101561001557600080fd5b600091823560e01c80631a68638a1461066c57806327ec324a146102125780637c96e08e146101b7578063db0cc2c0146101395763f9158e991461005857600080fd5b3461013557816003193601126101355780359067ffffffffffffffff821161013157610086913691016108ba565b6100a1602060243592818551938285809451938492016108d8565b810186815203019020805482101561013157906100bd91610920565b5061012d600361011f60018060a01b038454169360806001820154966101068151936100f7856100f0816002850161098c565b038661084c565b6100f08351809881930161098c565b80519788978852602088015286015260808501906108fb565b9083820360608501526108fb565b0390f35b8380fd5b8280fd5b503461013557816003193601126101355780359067ffffffffffffffff821161013157610168913691016108ba565b6024356001600160a01b03811691908290036101315760209360ff9261019c868694818651938285809451938492016108d8565b81016001815203019020908252855220541690519015158152f35b503461013557602036600319011261013557803567ffffffffffffffff8111610131576020936101ee6102019386933691016108ba565b90828551948386809551938492016108d8565b820190815203019020549051908152f35b50346101355760603660031901126101355767ffffffffffffffff81358181116106685761024390369084016108ba565b9160249182358181116106645761025d90369084016108ba565b916044358281116106605736602382011215610660576102859036908681850135910161086e565b8651928651926020968789019461029d8188886108d8565b860195888160019889815203019020338c52885260ff8a8c205416610614578851156105dd57895188818d8c516102d581848c6108d8565b8201908152030190208a51906102ea8261081a565b3382528982014281528c8301918a835260608401978852805490680100000000000000008210156105ca5790610324918b82018155610920565b9390936105b9575183546001600160a01b0319166001600160a01b0391909116178355518883015551805160028301918682116105a7578e906103718361036b8654610952565b86610a22565b8c91601f84116001146105325760039594936103a493909283610487575b50508160011b916000199060031b1c19161790565b90555b0193519182519384116105215750506103ca826103c48554610952565b85610a22565b86908a601f841160011461049257936104298461043c958b9997956104789b99957fd12664356d7f55a0cce98c3b14a9b04ff21949b9c2cb7dab401b4a9e3e64f70d9e9d97926104875750508160011b916000199060031b1c19161790565b90555b8951809381928a519283916108d8565b81018481520301902033895283528688209060ff1982541617905561046b8651946060865260608601906108fb565b91848303908501526108fb565b9242908201528033930390a280f35b01519050388061038f565b50838b52878b209190601f1984168c5b81811061050c575096848a98946104789a989483989461043c987fd12664356d7f55a0cce98c3b14a9b04ff21949b9c2cb7dab401b4a9e3e64f70d9f9e98106104f3575b505050811b01905561042c565b015160001960f88460031b161c191690553880806104e6565b82840151855593880193928a01928a016104a2565b634e487b7160e01b8c52604190528afd5b8b928e601f97969593971984169086845280842093905b82821061058257505096836003981061056a575b505050811b0190556103a7565b015160001983881b60f8161c1916905538808061055d565b919295899487849397999a9b015181550195019301908f918e95939897969492610549565b634e487b7160e01b8f5260418652848ffd5b634e487b7160e01b8f528e8652848ffd5b50634e487b7160e01b8f5260418652848ffd5b895162461bcd60e51b81529182018890526012908201527149502063616e6e6f7420626520656d70747960701b6044820152606490fd5b895162461bcd60e51b81529182018890526021908201527f596f75206861766520616c7265616479207265706f72746564207468697320496044820152600560fc1b6064820152608490fd5b8780fd5b8680fd5b8480fd5b5082903461081657602090816003193601126101355767ffffffffffffffff91813583811161066857816106a66106b892369086016108ba565b818851938285809451938492016108d8565b8101878152030190209283549081116108035785519194926106e0600583901b87018461084c565b8183528583018095855286852085915b84831061078c5750505050508451938085019181865251809252858501868360051b8701019493965b8388106107265786860387f35b9091929394838061077b600193603f198b820301875289516107686080878060a01b03835116845285830151868501528883015190808a8601528401906108fb565b91606080920151918184039101526108fb565b970193019701969093929193610719565b83896001928c9b98999b516107a08161081a565b848060a01b03865416815284860154838201528d8051906107cf826107c88160028c0161098c565b038361084c565b8201528d516107ec816107e58160038b0161098c565b038261084c565b6060820152815201920192019190979594976106f0565b634e487b7160e01b855260418352602485fd5b5080fd5b6080810190811067ffffffffffffffff82111761083657604052565b634e487b7160e01b600052604160045260246000fd5b90601f8019910116810190811067ffffffffffffffff82111761083657604052565b92919267ffffffffffffffff82116108365760405191610898601f8201601f19166020018461084c565b8294818452818301116108b5578281602093846000960137010152565b600080fd5b9080601f830112156108b5578160206108d59335910161086e565b90565b60005b8381106108eb5750506000910152565b81810151838201526020016108db565b90602091610914815180928185528580860191016108d8565b601f01601f1916010190565b805482101561093c5760005260206000209060021b0190600090565b634e487b7160e01b600052603260045260246000fd5b90600182811c92168015610982575b602083101461096c57565b634e487b7160e01b600052602260045260246000fd5b91607f1691610961565b80546000939261099b82610952565b91828252602093600191600181169081600014610a0357506001146109c2575b5050505050565b90939495506000929192528360002092846000945b8386106109ef575050505001019038808080806109bb565b8054858701830152940193859082016109d7565b60ff19168685015250505090151560051b0101915038808080806109bb565b90601f8111610a3057505050565b6000916000526020600020906020601f850160051c83019410610a6e575b601f0160051c01915b828110610a6357505050565b818155600101610a57565b9092508290610a4e56fea164736f6c6343000818000a",
  "linkReferences": {},
  "deployedLinkReferences": {}
}