{
  "_format": "hh-sol-artifact-1",
  "contractName": "ThreatConsensus",
  "sourceName": "contracts/ThreatConsensus.sol",
  "abi": [
    {
      "inputs": [
        {
          "internalType": "address",
          "name": "tokenAddress",
          "type": "address"
        }
      ],
      "stateMutability": "nonpayable",
      "type": "constructor"
    },
    {
      "inputs": [
        {
          "internalType": "address",
          "name": "owner",
          "type": "address"
        }
      ],
      "name": "OwnableInvalidOwner",
      "type": "error"
    },
    {
      "inputs": [
        {
          "internalType": "address",
          "name": "account",
          "type": "address"
        }
      ],
      "name": "OwnableUnauthorizedAccount",
      "type": "error"
    },
    {
      "inputs": [],
      "name": "ReentrancyGuardReentrantCall",
      "type": "error"
    },
    {
      "anonymous": false,
      "inputs": [
        {
          "indexed": true,
          "internalType": "string",
          "name": "ip",
          "type": "string"
        },
        {
          "indexed": false,
          "internalType": "string",
          "name": "reason",
          "type": "string"
        }
      ],
      "name": "GlobalThreatConfirmed",
      "type": "event"
    },
    {
      "anonymous": false,
      "inputs": [
        {
          "indexed": true,
          "internalType": "string",
          "name": "ip",
          "type": "string"
        },
        {
          "indexed": true,
          "internalType": "address",
          "name": "reporter",
          "type": "address"
        }
      ],
      "name": "LocalDefenseActive",
      "type": "event"
    },
    {
      "anonymous": false,
      "inputs": [
        {
          "indexed": true,
          "internalType": "address",
          "name": "previousOwner",
          "type": "address"
        },
        {
          "indexed": true,
          "internalType": "address",
          "name": "newOwner",
          "type": "address"
        }
      ],
      "name": "OwnershipTransferred",
      "type": "event"
    },
    {
      "anonymous": false,
      "inputs": [
        {
          "indexed": true,
          "internalType": "bytes32",
          "name": "commitment",
          "type": "bytes32"
        },
        {
          "indexed": true,
          "internalType": "address",
          "name": "reporter",
          "type": "address"
        },
        {
          "indexed": false,
          "internalType": "uint256",
          "name": "commitBlock",
          "type": "uint256"
        }
      ],
      "name": "ThreatCommitted",
      "type": "event"
    },
    {
      "anonymous": false,
      "inputs": [
        {
          "indexed": true,
          "internalType": "string",
          "name": "ip",
          "type": "string"
        },
        {
          "indexed": true,
          "internalType": "address",
          "name": "reporter",
          "type": "address"
        }
      ],
      "name": "ThreatReportRevoked",
      "type": "event"
    },
    {
      "anonymous": false,
      "inputs": [
        {
          "indexed": true,
          "internalType": "string",
          "name": "ip",
          "type": "string"
        },
        {
          "indexed": true,
          "internalType": "address",
          "name": "reporter",
          "type": "address"
        },
        {
          "indexed": true,
          "internalType": "string",
          "name": "salt",
          "type": "string"
        }
      ],
      "name": "ThreatRevealed",
      "type": "event"
    },
    {
      "anonymous": false,
      "inputs": [
        {
          "indexed": true,
          "internalType": "string",
          "name": "ip",
          "type": "string"
        },
        {
          "indexed": false,
          "internalType": "bool",
          "name": "isWhitelisted",
          "type": "bool"
        }
      ],
      "name": "WhitelistUpdated",
      "type": "event"
    },
    {
      "inputs": [],
      "name": "CONSENSUS_THRESHOLD",
      "outputs": [
        {
          "internalType": "uint256",
          "name": "",
          "type": "uint256"
        }
      ],
      "stateMutability": "view",
      "type": "function"
    },
    {
      "inputs": [],
      "name": "MAX_CPULOAD",
      "outputs": [
        {
          "internalType": "uint256",
          "name": "",
          "type": "uint256"
        }
      ],
      "stateMutability": "view",
      "type": "function"
    },
    {
      "inputs": [],
      "name": "MIN_TOKEN_BALANCE",
      "outputs": [
        {
          "internalType": "uint256",
          "name": "",
          "type": "uint256"
        }
      ],
      "stateMutability": "view",
      "type": "function"
    },
    {
      "inputs": [],
      "name": "REVEAL_DELAY",
      "outputs": [
        {
          "internalType": "uint256",
          "name": "",
          "type": "uint256"
        }
      ],
      "stateMutability": "view",
      "type": "function"
    },
    {
      "inputs": [
        {
          "internalType": "string",
          "name": "ip",
          "type": "string"
        }
      ],
      "name": "addToWhitelist",
      "outputs": [],
      "stateMutability": "nonpayable",
      "type": "function"
    },
    {
      "inputs": [
        {
          "internalType": "bytes32",
          "name": "ipHash",
          "type": "bytes32"
        },
        {
          "internalType": "string",
          "name": "salt",
          "type": "string"
        }
      ],
      "name": "commitThreatEvidence",
      "outputs": [],
      "stateMutability": "nonpayable",
      "type": "function"
    },
    {
      "inputs": [
        {
          "internalType": "bytes32",
          "name": "",
          "type": "bytes32"
        }
      ],
      "name": "commitments",
      "outputs": [
        {
          "internalType": "bytes32",
          "name": "hash",
          "type": "bytes32"
        },
        {
          "internalType": "uint256",
          "name": "commitBlock",
          "type": "uint256"
        },
        {
          "internalType": "bool",
          "name": "revealed",
          "type": "bool"
        }
      ],
      "stateMutability": "view",
      "type": "function"
    },
    {
      "inputs": [
        {
          "internalType": "string",
          "name": "",
          "type": "string"
        },
        {
          "internalType": "uint256",
          "name": "",
          "type": "uint256"
        }
      ],
      "name": "evidenceHistory",
      "outputs": [
        {
          "internalType": "address",
          "name": "reporter",
          "type": "address"
        },
        {
          "internalType": "uint64",
          "name": "timestamp",
          "type": "uint64"
        },
        {
          "internalType": "uint8",
          "name": "cpuLoad",
          "type": "uint8"
        },
        {
          "internalType": "string",
          "name": "logHash",
          "type": "string"
        },
        {
          "internalType": "string",
          "name": "attackType",
          "type": "string"
        }
      ],
      "stateMutability": "view",
      "type": "function"
    },
    {
      "inputs": [
        {
          "internalType": "string",
          "name": "ip",
          "type": "string"
        }
      ],
      "name": "forceConfirm",
      "outputs": [],
      "stateMutability": "nonpayable",
      "type": "function"
    },
    {
      "inputs": [
        {
          "internalType": "string",
          "name": "ip",
          "type": "string"
        }
      ],
      "name": "forceRevoke",
      "outputs": [],
      "stateMutability": "nonpayable",
      "type": "function"
    },
    {
      "inputs": [
        {
          "internalType": "string",
          "name": "ip",
          "type": "string"
        }
      ],
      "name": "getEvidenceCount",
      "outputs": [
        {
          "internalType": "uint256",
          "name": "",
          "type": "uint256"
        }
      ],
      "stateMutability": "view",
      "type": "function"
    },
    {
      "inputs": [
        {
          "internalType": "string",
          "name": "ip",
          "type": "string"
        }
      ],
      "name": "getThreatStatus",
      "outputs": [
        {
          "internalType": "bool",
          "name": "",
          "type": "bool"
        },
        {
          "internalType": "uint256",
          "name": "",
          "type": "uint256"
        },
        {
          "internalType": "uint256",
          "name": "",
          "type": "uint256"
        },
        {
          "internalType": "uint256",
          "name": "",
          "type": "uint256"
        }
      ],
      "stateMutability": "view",
      "type": "function"
    },
    {
      "inputs": [
        {
          "internalType": "address",
          "name": "reporter",
          "type": "address"
        },
        {
          "internalType": "string",
          "name": "ip",
          "type": "string"
        }
      ],
      "name": "hasAddressReported",
      "outputs": [
        {
          "internalType": "bool",
          "name": "",
          "type": "bool"
        }
      ],
      "stateMutability": "view",
      "type": "function"
    },
    {
      "inputs": [
        {
          "internalType": "address",
          "name": "",
          "type": "address"
        },
        {
          "internalType": "string",
          "name": "",
          "type": "string"
        }
      ],
      "name": "hasReported",
      "outputs": [
        {
          "internalType": "bool",
          "name": "",
          "type": "bool"
        }
      ],
      "stateMutability": "view",
      "type": "function"
    },
    {
      "inputs": [
        {
          "internalType": "bytes32",
          "name": "commitment",
          "type": "bytes32"
        }
      ],
      "name": "isCommitmentRevealed",
      "outputs": [
        {
          "internalType": "bool",
          "name": "",
          "type": "bool"
        }
      ],
      "stateMutability": "view",
      "type": "function"
    },
    {
      "inputs": [
        {
          "internalType": "bytes32",
          "name": "commitment",
          "type": "bytes32"
        }
      ],
      "name": "isValidCommitment",
      "outputs": [
        {
          "internalType": "bool",
          "name": "",
          "type": "bool"
        }
      ],
      "stateMutability": "view",
      "type": "function"
    },
    {
      "inputs": [
        {
          "internalType": "string",
          "name": "ip",
          "type": "string"
        }
      ],
      "name": "isWhitelisted",
      "outputs": [
        {
          "internalType": "bool",
          "name": "",
          "type": "bool"
        }
      ],
      "stateMutability": "view",
      "type": "function"
    },
    {
      "inputs": [],
      "name": "orasrsToken",
      "outputs": [
        {
          "internalType": "contract IERC20",
          "name": "",
          "type": "address"
        }
      ],
      "stateMutability": "view",
      "type": "function"
    },
    {
      "inputs": [],
      "name": "owner",
      "outputs": [
        {
          "internalType": "address",
          "name": "",
          "type": "address"
        }
      ],
      "stateMutability": "view",
      "type": "function"
    },
    {
      "inputs": [
        {
          "internalType": "string",
          "name": "ip",
          "type": "string"
        }
      ],
      "name": "removeFromWhitelist",
      "outputs": [],
      "stateMutability": "nonpayable",
      "type": "function"
    },
    {
      "inputs": [],
      "name": "renounceOwnership",
      "outputs": [],
      "stateMutability": "nonpayable",
      "type": "function"
    },
    {
      "inputs": [
        {
          "internalType": "string",
          "name": "ip",
          "type": "string"
        },
        {
          "internalType": "string",
          "name": "salt",
          "type": "string"
        },
        {
          "internalType": "uint8",
          "name": "cpuLoad",
          "type": "uint8"
        },
        {
          "internalType": "string",
          "name": "logHash",
          "type": "string"
        },
        {
          "internalType": "string",
          "name": "attackType",
          "type": "string"
        },
        {
          "internalType": "uint256",
          "name": "riskScore",
          "type": "uint256"
        }
      ],
      "name": "revealThreatEvidence",
      "outputs": [],
      "stateMutability": "nonpayable",
      "type": "function"
    },
    {
      "inputs": [
        {
          "internalType": "string",
          "name": "ip",
          "type": "string"
        }
      ],
      "name": "revokeThreatReport",
      "outputs": [],
      "stateMutability": "nonpayable",
      "type": "function"
    },
    {
      "inputs": [
        {
          "internalType": "string",
          "name": "",
          "type": "string"
        }
      ],
      "name": "threatStatus",
      "outputs": [
        {
          "internalType": "bool",
          "name": "isConfirmed",
          "type": "bool"
        },
        {
          "internalType": "uint256",
          "name": "reportCount",
          "type": "uint256"
        },
        {
          "internalType": "uint256",
          "name": "totalRiskScore",
          "type": "uint256"
        },
        {
          "internalType": "uint256",
          "name": "confirmedAt",
          "type": "uint256"
        }
      ],
      "stateMutability": "view",
      "type": "function"
    },
    {
      "inputs": [
        {
          "internalType": "address",
          "name": "newOwner",
          "type": "address"
        }
      ],
      "name": "transferOwnership",
      "outputs": [],
      "stateMutability": "nonpayable",
      "type": "function"
    },
    {
      "inputs": [
        {
          "internalType": "string",
          "name": "",
          "type": "string"
        }
      ],
      "name": "whitelist",
      "outputs": [
        {
          "internalType": "bool",
          "name": "",
          "type": "bool"
        }
      ],
      "stateMutability": "view",
      "type": "function"
    }
  ],
  "bytecode": "0x60803461015057601f611b2938819003918201601f191683019291906001600160401b0384118385101761015557816020928492604096875283398101031261015057516001600160a01b039081811690819003610150573315610138576027806000549360018060a01b03199433868216176000558651913391167f8be0079c531659141344cd1fd0a4f28419497f9722a3daafe3b4186f6b6457e0600080a3600193848055600795865416178555660705c705c705c760cb1b8152600685820152209260ff19938385825416179055818551660e0b8e0b8d0b8d60ca1b815260068382015220838582541617905581855166312e312e312e3160c81b8152600683820152208385825416179055600685519166312e302e302e3160c81b83528201522091825416179055516119bd908161016c8239f35b8251631e4fbdf760e01b815260006004820152602490fd5b600080fd5b634e487b7160e01b600052604160045260246000fdfe6080604052600436101561001257600080fd5b60003560e01c806307ff46851461168e5780630d80bf6414611640578063113f51001461161c578063199008ec146114f657806325d4d0811461147157806337b8710b14610bd55780633dc3ecef14610b45578063646986fb14610af45780636ee2cfb514610a1d578063715018a6146109c457806373e08a471461092c57806374a0ee31146107c5578063839df9451461077d5780638cbab21f146106e85780638da5cb5b146106bf578063a7bc4e30146106a3578063b48eea441461064d578063b5e1644414610631578063b825fceb1461058b578063bca125f01461056f578063d21ee54c14610546578063e122352e146104c6578063e51abf191461027f578063f0f041f31461024b578063f2fde38b146101bd5763fd88aa411461013a57600080fd5b346101b85760403660031901126101b8576101536116fa565b6024356001600160401b0381116101b8576101a36020809361017b60ff9436906004016117a4565b9060018060a01b031660005260048252604060002082604051948386809551938492016117c2565b82019081520301902054166040519015158152f35b600080fd5b346101b85760203660031901126101b8576101d66116fa565b6101de611961565b6001600160a01b0390811690811561023257600054826bffffffffffffffffffffffff60a01b821617600055167f8be0079c531659141344cd1fd0a4f28419497f9722a3daafe3b4186f6b6457e0600080a3005b604051631e4fbdf760e01b815260006004820152602490fd5b346101b85760203660031901126101b8576004356000526005602052602060ff600260406000200154166040519015158152f35b346101b85760403660031901126101b8576001600160401b036004356024358281116101b8576102b3903690600401611710565b6102be93919361198d565b6007546040516370a0823160e01b8152336004820152602095918690829060249082906001600160a01b03165afa80156104ba57600090610484575b683635c9adc5dea0000091501061042757610333610325916040519283918883019533918988611934565b03601f19810183528261173d565b5190209182600052600584526040600020546103e2576040519160608301908111838210176103cc5760405281526002838201914383526040810192600084528460005260058652604060002091518255516001820155019051151560ff801983541691161790557f71a5c7b15b05487c69f637cb029d1afed660993b500f1a407ece0e17a891b388604051924384523393a360018055005b634e487b7160e01b600052604160045260246000fd5b60405162461bcd60e51b815260048101859052601960248201527f436f6d6d69746d656e7420616c726561647920657869737473000000000000006044820152606490fd5b60405162461bcd60e51b815260048101869052602f60248201527f496e73756666696369656e7420746f6b656e2062616c616e636520666f72207460448201526e6872656174207265706f7274696e6760881b6064820152608490fd5b508581813d83116104b3575b61049a818361173d565b810103126101b857683635c9adc5dea0000090516102fa565b503d610490565b6040513d6000823e3d90fd5b346101b85760203660031901126101b85760043560005260056020526040600020805415159081610536575b81610505575b6020826040519015158152f35b600191500154600a81018091116105205743101560206104f8565b634e487b7160e01b600052601160045260246000fd5b600281015460ff161591506104f2565b346101b85760003660031901126101b8576007546040516001600160a01b039091168152602090f35b346101b85760003660031901126101b857602060405160038152f35b346101b85760203660031901126101b8576004356001600160401b0381116101b8576105bd6020913690600401611710565b91906105c7611961565b82604051938492833781016002815203019020805460ff8116156105f55760ff191681556000600390910155005b60405162461bcd60e51b8152602060048201526014602482015273151a1c99585d081b9bdd0818dbdb999a5c9b595960621b6044820152606490fd5b346101b85760003660031901126101b857602060405160648152f35b346101b85760203660031901126101b8576004356001600160401b0381116101b85760ff602061068281933690600401611710565b91908260405193849283378101600681520301902054166040519015158152f35b346101b85760003660031901126101b8576020604051600a8152f35b346101b85760003660031901126101b8576000546040516001600160a01b039091168152602090f35b346101b85760203660031901126101b8576004356001600160401b0381116101b857610718903690600401611710565b90610721611961565b60405182828237602081848101600681520301902060ff1981541690558160405192839283378101600081520390207f938bd9e1ba5482c8b35a66c1b5454438ea3cac2fa4bd57a7d3f6194bc9f7b8b5602060405160008152a2005b346101b85760203660031901126101b85760043560005260056020526060604060002080549060ff600260018301549201541690604051928352602083015215156040820152f35b346101b8576020806003193601126101b8576004356001600160401b0381116101b8576107f6903690600401611710565b9091604051828482378181848101600281520301902060ff8154166108e757336000526004825260ff61082e6040600020858761191b565b5416156108a25760010190815491821561052057600492600019019055336000525261085f6040600020828461191b565b60ff19815416905580604051928337810190600082528033920390207f7b5435de93dbc462c76a81300843964fc8533b062126c250e72909ba19b7221f600080a3005b60405162461bcd60e51b815260048101839052601c60248201527f596f7520686176656e2774207265706f727465642074686973204950000000006044820152606490fd5b60405162461bcd60e51b815260048101839052601860248201527f54687265617420616c726561647920636f6e6669726d656400000000000000006044820152606490fd5b346101b85760203660031901126101b8576004356001600160401b0381116101b85761095c903690600401611710565b90610965611961565b604051828282376020818481016006815203019020600160ff198254161790558160405192839283378101600081520390207f938bd9e1ba5482c8b35a66c1b5454438ea3cac2fa4bd57a7d3f6194bc9f7b8b5602060405160018152a2005b346101b85760003660031901126101b8576109dd611961565b600080546001600160a01b0319811682556001600160a01b03167f8be0079c531659141344cd1fd0a4f28419497f9722a3daafe3b4186f6b6457e08280a3005b346101b85760403660031901126101b8576001600160401b036004358181116101b857610a4e9036906004016117a4565b610a6a60206024359281604051938285809451938492016117c2565b810160038152030190209081548110156101b857610a87916117e5565b5090610af0825492610ae2610aaa6002610aa360018501611851565b9301611851565b9160ff60405196879660018060a01b03821688528160a01c16602088015260e01c16604086015260a0606086015260a08501906118f6565b9083820360808501526118f6565b0390f35b346101b85760203660031901126101b8576004356001600160401b0381116101b8576020610b2781923690600401611710565b91908260405193849283378101600381520301902054604051908152f35b346101b85760203660031901126101b8576004356001600160401b0381116101b8576020610b7a610b8d9236906004016117a4565b81604051938285809451938492016117c2565b8101600281520301902060ff815416610af060018301549260036002820154910154906040519485948590949392606092608083019615158352602083015260408201520152565b346101b85760c03660031901126101b8576004356001600160401b0381116101b857610c05903690600401611710565b6024356001600160401b0381116101b857610c24903690600401611710565b926044359260ff841684036101b8576064356001600160401b0381116101b857610c52903690600401611710565b9390956084356001600160401b0381116101b857610c74903690600401611710565b959097610c7f61198d565b604051602081019086888337610ca560208289810160008382015203808452018261173d565b519020604051610cbf8161032533888a8760208601611934565b60208151910120600052600560205260406000209081549081156114375760028301549160ff83166113f2576001840154600a81018091116105205743106113ad570361137857600160029160ff19161791015560ff604051868882376020818881016006815203019020541661133e57606460ff8916116113015784156112c7578115611282576040518587823760208187810160028152030190209733600052600460205260ff610d776040600020888a61191b565b541661123d5760405186888237602081888101600381520301902091604051938460a08101106001600160401b0360a0870111176103cc5760ff610ddb9360a087016040523387526001600160401b0342166020880152166040860152369161175e565b6060830152610deb36888b61175e565b60808301528054680100000000000000008110156103cc57610e12916001820181556117e5565b9190916112275780518254602083015160408401516001600160e81b03199092166001600160a01b03939093169290921760a09290921b67ffffffffffffffff60a01b169190911760e09190911b60ff60e01b1617825560608101518051906001600160401b0382116103cc57610e8c6001850154611817565b601f81116111e0575b50602090601f831160011461116d57608093929160009183611162575b50508160011b916000199060031b1c19161760018401555b01518051906001600160401b0382116103cc57610eea6002840154611817565b601f811161111b575b50602090601f83116001146110ab5760029291600091836110a0575b50508160011b916000199060031b1c1916179101555b60018601546000198114610520576001016001870155600286015460a435810181116105205760a435016002870155336000526004602052610f6c6040600020848661191b565b805460ff19166001179055604051838582378084810160008152039020918160405192839283378101600081520390209033907f6af06155ad45086a03422080edb53a9699504a58687c94dbc760162e14a03d39600080a46040518183823781810190600082528033920390207f98c490d5a37f962ca3695fa9e919347e3467f30f0f78c3be4f9415c7315122c3600080a383549160ff83161580611091575b611017575b60018055005b7f96515b5ce7946c8549790b0152ee3a0c7b388c40a8115ac999a5f919ab4b240c94600160409460ff191617815560034291015581835192839283378101600081520390209382825193849260208452816020850152848401376000828201840152601f01601f19168101030190a2808080808080611011565b5060036001860154101561100c565b015190508b80610f0f565b906002840160005260206000209160005b601f19851681106111035750918391600193600295601f198116106110ea575b505050811b01910155610f25565b015160001960f88460031b161c191690558b80806110dc565b919260206001819286850151815501940192016110bc565b600284016000526020600020601f840160051c81016020851061115b575b601f830160051c8201811061114f575050610ef3565b60008155600101611139565b5080611139565b015190508c80610eb2565b906001850160005260206000209160005b601f19851681106111c8575091839160019360809695601f198116106111af575b505050811b016001840155610eca565b015160001960f88460031b161c191690558c808061119f565b9192602060018192868501518155019401920161117e565b600185016000526020600020601f840160051c810160208510611220575b601f830160051c82018110611214575050610e95565b600081556001016111fe565b50806111fe565b634e487b7160e01b600052600060045260246000fd5b60405162461bcd60e51b815260206004820152601860248201527f416c7265616479207265706f72746564207468697320495000000000000000006044820152606490fd5b60405162461bcd60e51b815260206004820152601860248201527f4c6f6720686173682063616e6e6f7420626520656d70747900000000000000006044820152606490fd5b60405162461bcd60e51b815260206004820152601260248201527149502063616e6e6f7420626520656d70747960701b6044820152606490fd5b60405162461bcd60e51b8152602060048201526015602482015274435055206c6f6164206f7574206f662072616e676560581b6044820152606490fd5b60405162461bcd60e51b81526020600482015260126024820152711254081a5cc81a5b881dda1a5d195b1a5cdd60721b6044820152606490fd5b60405162461bcd60e51b815260206004820152600d60248201526c090c2e6d040dad2e6dac2e8c6d609b1b6044820152606490fd5b60405162461bcd60e51b815260206004820152601860248201527f52657665616c2064656c6179206e6f74207265616368656400000000000000006044820152606490fd5b60405162461bcd60e51b815260206004820152601b60248201527f436f6d6d69746d656e7420616c72656164792072657665616c656400000000006044820152606490fd5b60405162461bcd60e51b8152602060048201526012602482015271139bc81cdd58da0818dbdb5b5a5d1b595b9d60721b6044820152606490fd5b346101b85760203660031901126101b8576004356001600160401b0381116101b8576114a36020913690600401611710565b91908260405193849283378101600281520301902060ff815416610af060018301549260036002820154910154906040519485948590949392606092608083019615158352602083015260408201520152565b346101b8576020806003193601126101b8576004356001600160401b0381116101b857611527903690600401611710565b90611530611961565b60ff604051838382378481858101600681520301902054166115d7577f96515b5ce7946c8549790b0152ee3a0c7b388c40a8115ac999a5f919ab4b240c916060916040518282823785818481016002815203019020600160ff198254161781556003429101558160405192839283378101600081520390209260166040519180835282015275476f7665726e616e636520466f72636520426c6f636b60501b6040820152a2005b60405162461bcd60e51b815260048101849052601d60248201527f43616e6e6f7420636f6e6669726d2077686974656c69737465642049500000006044820152606490fd5b346101b85760003660031901126101b8576020604051683635c9adc5dea000008152f35b346101b85760203660031901126101b8576004356001600160401b0381116101b85760ff6116786020610b7a819436906004016117a4565b8101600681520301902054166040519015158152f35b346101b85760403660031901126101b8576116a76116fa565b602435906001600160401b0382116101b8576116ee60ff916116cf6020943690600401611710565b6001600160a01b0390921660009081526004865260409020919061191b565b54166040519015158152f35b600435906001600160a01b03821682036101b857565b9181601f840112156101b8578235916001600160401b0383116101b857602083818601950101116101b857565b90601f801991011681019081106001600160401b038211176103cc57604052565b9291926001600160401b0382116103cc5760405191611787601f8201601f19166020018461173d565b8294818452818301116101b8578281602093846000960137010152565b9080601f830112156101b8578160206117bf9335910161175e565b90565b60005b8381106117d55750506000910152565b81810151838201526020016117c5565b8054821015611801576000526003602060002091020190600090565b634e487b7160e01b600052603260045260246000fd5b90600182811c92168015611847575b602083101461183157565b634e487b7160e01b600052602260045260246000fd5b91607f1691611826565b9060405191826000825461186481611817565b908184526020946001916001811690816000146118d45750600114611895575b5050506118939250038361173d565b565b600090815285812095935091905b8183106118bc5750506118939350820101388080611884565b855488840185015294850194879450918301916118a3565b9250505061189394925060ff191682840152151560051b820101388080611884565b9060209161190f815180928185528580860191016117c2565b601f01601f1916010190565b6020919283604051948593843782019081520301902090565b90928092603495948352602083013701906bffffffffffffffffffffffff199060601b1660208201520190565b6000546001600160a01b0316330361197557565b60405163118cdaa760e01b8152336004820152602490fd5b60026001541461199e576002600155565b604051633ee5aeb560e01b8152600490fdfea164736f6c6343000818000a",
  "linkReferences": {},
  "deployedLinkReferences": {}
}